:020000040800F2
:20000000000002207DF8000889EC0008A5EC0008C5EC0008E1EC0008FDEC000800000000AC
:2000200000000000000000000000000019ED00081BED0008000000001DED000839ED000862
:20004000CDF80008CDF80008CDF80008CDF80008CDF80008CDF80008E9ED0008CDF8000827
:20006000CDF80008CDF80008CDF80008CDF80008CDF80008CDF80008CDF80008CDF8000818
:20008000CDF80008CDF800080DEE0008CDF80008CDF80008CDF80008CDF80008EFED0008AB
:2000A000CDF80008CDF80008CDF80008CDF80008CDF80008CDF80008CDF80008CDF80008D8
:2000C000CDF80008CDF80008CDF80008CDF80008CDF8000819EE0008CDF80008CDF8000876
:2000E00003EE0008CDF80008CDF80008CDF80008CDF80008CDF80008CDF80008CDF800086C
:20010000CDF80008CDF80008CDF80008CDF80008CDF80008CDF80008CDF8000825EE000829
:20012000CDF80008CDF80008CDF80008CDF80008CDF80008CDF80008CDF80008CDF8000857
:20014000CDF80008CDF80008CDF800087DEE0008CDF80008CDF80008CDF80008CDF8000891
:20016000CDF80008CDF80008CDF80008CDF80008CDF8000889EE0008CDF800080000000032
:20018000CDF80008CDF80008FFFFFFFFFFFFFFFF10B5054C237833B9044B13B10448AFF32F
:2001A00000800123237010BD6003002000000000B0D0010808B5034B1BB103490348AFF31F
:2001C000008008BD0000000064030020B0D00108034613F8012B002AFBD1181A0138704732
:2001E00001F0FF01102A2BDB10F0070F08D010F8013B013A8B422DD010F0070F42B3F6D1C5
:20020000F0B441EA012141EA014122F007047FF000070023F0E80256083C85EA010586EA71
:20022000010685FA47F5A3FA87F586FA47F6A5FA87F68EB9EED1F0BC01F0FF0102F007026C
:2002400032B110F8013B013A83EA010313B1F8D10020704701387047002D06BF35460338CF
:20026000073815F0010F07D1013015F4807F02BF013015F4C03F0130F0BC0138704700BF93
:2002800081F0004102E000BF83F0004330B54FEA41044FEA430594EA050F08BF90EA020F8D
:2002A0001FBF54EA000C55EA020C7FEA645C7FEA655C00F0E2804FEA5454D4EB5555B8BF63
:2002C0006D420CDD2C4480EA020281EA030382EA000083EA010180EA020281EA0303362D1A
:2002E00088BF30BD11F0004F4FEA01314FF4801C4CEA113102D0404261EB410113F0004F84
:200300004FEA03334CEA133302D0524263EB430394EA050F00F0A780A4F10104D5F1200EC1
:200320000DDB02FA0EFC22FA05F2801841F1000103FA0EF2801843FA05F359410EE0A5F109
:2003400020050EF1200E012A03FA0EFC28BF4CF0020C43FA05F3C01851EBE37101F0004515
:2003600007D54FF0000EDCF1000C7EEB00006EEB0101B1F5801F1BD3B1F5001F0CD349088F
:200380005FEA30004FEA3C0C04F101044FEA445212F5800F80F09A80BCF1004F08BF5FEA6E
:2003A000500C50F1000041EB045141EA050130BD5FEA4C0C404141EB0101013C28BFB1F5E7
:2003C000801FE9D291F0000F04BF01460020B1FA81F308BF2033A3F10B03B3F120020CDA82
:2003E0000C3208DD02F1140CC2F10C0201FA0CF021FA02F10CE002F11402D8BFC2F1200C96
:2004000001FA02F120FA0CFCDCBF41EA0C019040E41AA2BF01EB0451294330BD6FEA0404CF
:200420001F3C1CDA0C340EDC04F11404C4F1200220FA04F001FA02F340EA030021FA04F320
:2004400045EA030130BDC4F10C04C4F1200220FA02F001FA04F340EA0300294630BD21FA3E
:2004600004F0294630BD94F0000F83F4801306BF81F480110134013D4EE77FEA645C18BF1C
:200480007FEA655C29D094EA050F08BF90EA020F05D054EA000C04BF1946104630BD91EA56
:2004A000030F1EBF0021002030BD5FEA545C05D14000494128BF41F0004130BD14F58004B3
:2004C0003CBF01F5801130BD01F0004545F0FE4141F470014FF0000030BD7FEA645C1ABF2F
:2004E000194610467FEA655C1CBF0B46024650EA013406BF52EA033591EA030F41F400211E
:2005000030BD00BF90F0000F04BF0021704730B54FF4806404F132044FF000054FF000014A
:2005200050E700BF90F0000F04BF0021704730B54FF4806404F1320410F0004548BF404296
:200540004FF000013EE700BF42004FEAE2014FEA31014FEA02701FBF12F07F4393F07F4F10
:2005600081F06051704732F07F4208BF704793F07F4F04BF41F40021704730B54FF4607424
:2005800001F0004521F000411CE700BF50EA010208BF704730B54FF000050AE050EA010206
:2005A00008BF704730B511F0004502D5404261EB41014FF4806404F132045FEA915C3FF4F0
:2005C000D8AE4FF003025FEADC0C18BF03325FEADC0C18BF033202EBDC02C2F1200300FA3C
:2005E00003FC20FA02F001FA03FE40EA0E0021FA02F11444BDE600BF70B54FF0FF0C4CF445
:20060000E06C1CEA11541DBF1CEA135594EA0C0F95EA0C0F00F0DEF82C4481EA030621EAF1
:200620004C5123EA4C5350EA013518BF52EA033541F4801143F4801338D0A0FB02CE4FF074
:200640000005E1FB02E506F00042E0FB03E54FF00006E1FB03569CF0000F18BF4EF0010E9E
:20066000A4F1FF04B6F5007F64F5407404D25FEA4E0E6D4146EB060642EAC62141EA555161
:200680004FEAC52040EA5E504FEACE2EB4F1FD0C88BFBCF5E06F1ED8BEF1004F08BF5FEA36
:2006A000500E50F1000041EB045170BD06F0004646EA010140EA020081EA0301B4EB5C04E5
:2006C000C2BFD4EB0C0541EA045170BD41F480114FF0000E013C00F3AB8014F1360FDEBFC7
:2006E000002001F0004170BDC4F10004203C35DA0C341BDC04F11404C4F1200500FA05F347
:2007000020FA04F001FA05F240EA020001F0004221F0004110EBD37021FA04F642EB0601A1
:200720005EEA430E08BF20EAD37070BDC4F10C04C4F1200500FA04F320FA05F001FA04F24F
:2007400040EA020001F0004110EBD37041F100015EEA430E08BF20EAD37070BDC4F1200516
:2007600000FA05F24EEA020E20FA04F301FA05F243EA020321FA04F001F0004121FA04F2B9
:2007800020EA020000EBD3705EEA430E08BF20EAD37070BD94F0000F0FD101F0004640005B
:2007A00041EB010111F4801F08BF013CF7D041EA060195F0000F18BF704703F000465200BD
:2007C00043EB030313F4801F08BF013DF7D043EA0603704794EA0C0F0CEA135518BF95EA39
:2007E0000C0F0CD050EA410618BF52EA4306D1D181EA030101F000414FF0000070BD50EA3C
:20080000410606BF1046194652EA430619D094EA0C0F02D150EA013613D195EA0C0F05D178
:2008200052EA03361CBF104619460AD181EA030101F0004141F0FE4141F470014FF00000E2
:2008400070BD41F0FE4141F4780170BD70B54FF0FF0C4CF4E06C1CEA11541DBF1CEA135570
:2008600094EA0C0F95EA0C0F00F0A7F8A4EB050481EA030E52EA03354FEA013100F08880CB
:200880004FEA03334FF0805545EA131343EA12634FEA022245EA111545EA10654FEA002629
:2008A0000EF000419D4208BF964244F1FD0404F5407402D25B084FEA3202B61A65EB0305CC
:2008C0005B084FEA32024FF480104FF4002CB6EB020E75EB030E22BFB61A754640EA0C0042
:2008E0005B084FEA3202B6EB020E75EB030E22BFB61A754640EA5C005B084FEA3202B6EBA3
:20090000020E75EB030E22BFB61A754640EA9C005B084FEA3202B6EB020E75EB030E22BF51
:20092000B61A754640EADC0055EA060E18D04FEA051545EA16754FEA06164FEAC30343EA5D
:2009400052734FEAC2025FEA1C1CC0D111F4801F0BD141EA00014FF000004FF0004CB6E7B0
:2009600011F4801F04BF01430020B4F1FD0C88BFBCF5E06F3FF6AFAEB5EB030C04BFB6EB12
:20098000020C5FEA500C50F1000041EB045170BD0EF0004E4EEA113114EB5C04C2BFD4EB50
:2009A0000C0541EA045170BD41F480114FF0000E013C90E645EA060E8DE60CEA135594EA21
:2009C0000C0F08BF95EA0C0F3FF43BAF94EA0C0F0AD150EA01347FF434AF95EA0C0F7FF438
:2009E00025AF104619462CE795EA0C0F06D152EA03353FF4FDAE1046194622E750EA410659
:200A000018BF52EA43067FF4C5AE50EA41047FF40DAF52EA43057FF4EBAE12E74FF0FF3CE3
:200A200006E000BF4FF0010C02E000BF4FF0010C4DF804CD4FEA410C7FEA6C5C4FEA430C83
:200A400018BF7FEA6C5C1BD001B050EA410C0CBF52EA430C91EA030F02BF90EA020F00201C
:200A6000704710F1000F91EA030F58BF994208BF90422CBFD8176FEAE37040F00100704729
:200A80004FEA410C7FEA6C5C02D150EA013C07D14FEA430C7FEA6C5CD6D152EA033CD3D0FF
:200AA0005DF8040B704700BF8446104662468C461946634600E000BF01B5FFF7B7FF002891
:200AC00048BF10F1000F01BD4DF808EDFFF7F4FF0CBF012000205DF808FB00BF4DF808EDC1
:200AE000FFF7EAFF34BF012000205DF808FB00BF4DF808EDFFF7E0FF94BF012000205DF8D4
:200B000008FB00BF4DF808EDFFF7CEFF94BF012000205DF808FB00BF4DF808EDFFF7C4FF78
:200B200034BF012000205DF808FB00BF4FEA410C7FEA6C5C02D150EA013C0AD14FEA430C06
:200B40007FEA6C5C02D152EA033C02D14FF0000070474FF0010070474FEA410212F50012C1
:200B600015D211D56FF47873B3EB625212D94FEAC12343F0004343EA505311F0004F23FA4D
:200B800002F018BF404270474FF00000704750EA013005D111F0004008BF6FF000407047BE
:200BA0004FF00000704700BF4A0011D212F5001211D20DD56FF47873B3EB62520ED44FEABA
:200BC000C12343F0004343EA505323FA02F070474FF00000704750EA013002D14FF0FF3083
:200BE00070474FF0000070474FEA4102B2F1E04324BFB3F5001CDCF1FE5C0DD901F0004C15
:200C00004FEAC0024CEA5070B2F1004F40EB830008BF20F00100704711F0804F21D113F1EE
:200C20003872BCBF01F00040704741F480114FEA5252C2F11802C2F1200C10FA0CF320FA35
:200C400002F018BF40F001004FEAC1234FEAD32303FA0CFC40EA0C0023FA02F34FEA430382
:200C6000CCE77FEA625307D150EA01331EBF4FF0FE4040F44000704701F0004040F0FE4039
:200C800040F40000704700BF53B94AB9002908BF00281CBF4FF0FF314FF0FF3000F074B9AE
:200CA000ADF1080C6DE904CE00F006F8DDF804E0DDE9022304B070472DE9F047089D044621
:200CC0008E46002B4DD18A42944669D9B2FA82F252B101FA02F3C2F1200120FA01F10CFA16
:200CE00002FC41EA030E94404FEA1C48210CBEFBF8F61FFA8CF708FB16E341EA034306FB6B
:200D000007F199420AD91CEB030306F1FF3080F01F81994240F21C81023E63445B1AA4B27E
:200D2000B3FBF8F008FB103344EA034400FB07F7A7420AD91CEB040400F1FF3380F00A8170
:200D4000A74240F207816444023840EA0640E41B00261DB1D4400023C5E900433146BDE867
:200D6000F0878B4209D9002D00F0EF800026C5E9000130463146BDE8F087B3FA83F6002E8F
:200D80004AD18B4202D3824200F2F980841A61EB030301209E46002DE0D0C5E9004EDDE7D5
:200DA00002B9FFDEB2FA82F2002A40F09280A1EB0C014FEA1C471FFA8CFE0126200CB1FB38
:200DC000F7F307FB131140EA01410EFB03F0884208D91CEB010103F1FF3802D2884200F22C
:200DE000CB804346091AA4B2B1FBF7F007FB101144EA01440EFB00FEA64508D91CEB04049B
:200E000000F1FF3102D2A64500F2BB800846A4EB0E0440EA03409CE7C6F12007B34022FAF9
:200E200007FC4CEA030C20FA07F401FA06F31C43F9404FEA1C4900FA06F3B1FBF9F8200C6F
:200E40001FFA8CFE09FB181140EA014108FB0EF0884202FA06F20BD91CEB010108F1FF3A78
:200E600080F08880884240F28580A8F102086144091AA4B2B1FBF9F009FB101144EA01410E
:200E800000FB0EFE8E4508D91CEB010100F1FF346CD28E456AD90238614440EA0840A0FB2A
:200EA0000294A1EB0E01A142C846A64656D353D05DB1B3EB080261EB0E0101FA07F722FAB2
:200EC00006F3F1401F43C5E9007100263146BDE8F087C2F12003D8400CFA02FC21FA03F3AB
:200EE000914001434FEA1C471FFA8CFEB3FBF7F007FB10360B0C43EA064300FB0EF69E4255
:200F000004FA02F408D91CEB030300F1FF382FD29E422DD9023863449B1B89B2B3FBF7F673
:200F200007FB163341EA034106FB0EF38B4208D91CEB010106F1FF3816D28B4214D9023E2E
:200F40006144C91A46EA004638E72E46284605E70646E3E61846F8E64B45A9D2B9EB02089C
:200F600064EB0C0E0138A3E74646EAE7204694E74046D1E7D0467BE7023B614432E73046E0
:200F800009E76444023842E7704700BF70B500258EB004462422294605A8049518F086FD88
:200FA00042238DF800304D238DF801302A4BCDF80A501B688DF802301A0A8DF803201A0C31
:200FC0001B0E8DF804208DF80530F02236238DF80A308DF81820282318228DF810308DF8CF
:200FE0001E2040232C22C4218DF814308DF8252001230E228DF815308DF81C308DF82630C0
:201000008DF829208DF82D208DF83130CDF806508DF828108DF82C106A46234602AE15468D
:2010200003CDB542186059602A4603F10803F6D128681860AA889A8004AD04F10E030EACBD
:201040002A4603CAA24218605960154603F10803F6D10EB070BD00BF0000002037B5094C12
:201060000190656810F032FD019B074AB0FBF2F0584301906368019A5B1B9342FAD303B00C
:2010800030BD00BF001000E040420F0030B587B004460D461422002101A818F007FD2946EF
:2010A000204601220FF070F911220023CDE9022301A903232046019504930EF0EDFF07B00A
:2010C00030BD30B587B004460D461422002101A818F0ECFC0122294620460FF055F9002312
:2010E00001A92046CDE9023301950EF0D5FF07B030BD00002DE9F84F254B264F93F800809C
:2011000000263546F3B298450BD8234B187809F0EDFD1DB101200AF077FA01252846BDE855
:20112000F88F07EB43124FEA431AD17D69B301249C40E0B209F0DAFD4FF08C0B002002F096
:2011400041FBBBF1010BF9D107EB0A0957F80A00B9F80410FFF7B5FFB9F8041057F80A00E6
:201160000FF00CF90C4A63B2147828B12343137089F81AB00136C5E724EA030313700123C9
:201180001D4489F81A30EDB2F4E79176F2E700BF10290208045D0020E45C002008B50548DC
:2011A000012280210FF0F0F809F0C8FDBDE80840FFF7A0BF001002407FB50C4604A901E915
:2011C0000C001646BDF80C1001910546002230460FF0DAF82846FFF741FF304601990122B9
:2011E0000FF0D2F8204604B0BDE87040FFF736BF82B06B4683E806000CCB20B905213C2046
:2012000002B0FFF7D9BF3C210520F9E773B56D4685E806000646002446FA04F095E80600B7
:2012200000F001000134FFF7E3FF082CF4D102B070BD30B585B002AB83E803000A210CCBA1
:201240000120FFF7B9FF029DBDF80C1001912846FFF737FF019928460FF090F80446282002
:20126000FFF7FCFE28460199FFF710FF201E18BF012005B030BD73B56E4686E80300002527
:201280002C4696E80300FFF7D4FFA84001350444082DE4B2F5D1204602B070BD30B585B03C
:2012A00002AB83E8030046210CCB4FF4FA70FFF783FF029DBDF80C1001912846FFF701FF4A
:2012C000019928460FF05AF8019904462846FFF7DDFE4FF4C870FFF7C1FEB4FA84F04009F7
:2012E00005B030BD84B008B50DF1080C8CE80F00DCE90001FFF7D2FFBDE80840013818BF3C
:20130000012004B0704784B007B50DF1100C8CE80F00DCE90001FFF7C1FF01281BD104AB74
:2013200093E80600CC20FFF771FF04AB93E806004420FFF76BFF04AA92E803006B4683E89F
:201340000300FFF798FF003818BF012003B05DF804EB04B070470120F8E7000008B54378F3
:20136000007800EB0320DB0980B20CD0404280B2FFF7D8F8064B0022FFF73EF9FFF734FCB5
:2013800000EE100A08BDFFF7CDF8024B0022F3E70000B0BF0000B03F73B56C4684E80600D2
:2013A000054694E80300FFF779FFE0B194E80600CC20FFF72BFF94E80600BE20FFF726FF5B
:2013C0006E1E083594E80300FFF755FF06F8010FAE42F7D194E80300FFF760FFB0FA80F0C7
:2013E000400902B070BD0120FBE737B56C4684E80600054694E80300FFF750FF10B90120B9
:2014000003B030BD94E80600CC20FFF7FFFE94E806004E20FFF7FAFE94E80600A878FFF755
:20142000F5FE94E80600E878FFF7F0FE94E806002879FFF7EBFE94E80300FFF72FFF002826
:20144000DDD094E80600CC20FFF7E0FE94E806004820FFF7DBFE142002F0B4F90020CFE73B
:2014600010B586B06B4683E80600002204468DF8102003A893E80600FFF78EFFA0B99DF891
:2014800010301F2B03D10923237006B010BD3F2B01D10A23F8E75F2B01D10B23F4E77F2B55
:2014A00001D10C23F0E720700120EEE730B587B06D4685E806000446002395E806000DF19E
:2014C0000B008DF80B30FFF7CBFF10B1012007B030BD9DF80B30A342F9D0092C1ED00A2C24
:2014E0001ED00B2C1ED00C2C0CBF7F231F2395E8060003A88DF81030FFF777FF0028E5D1B5
:2015000095E806000DF10B00FFF7AAFF0028DDD19DF80B30181B18BF0120D8E71F23E6E701
:201520003F23E4E75F23E2E730B593B0C3790493837903934379029303790193C378009377
:201540000DAD0C46837842781649284619F0B4F895E803009DF83F308DF82E309DF84030DC
:201560008DF81C309DF84130BDF83D2008908DF81D30DDF839008DF8241007AB00250A90E0
:20158000ADF82C20009308498DF825500AAB08AA20468DF82F508DF81F5019F08DF8A57311
:2015A00013B030BD01D101081ED1010870B40379C67944790A46817946EA036643F3C0151E
:2015C0002404C37844EA012481782B44457803EB012144EA060001EB054170BC0CF0F4BFDF
:2015E00030B50246014400208A4200D130BD12F8015B082480EA050313F0010F4FEA50002F
:201600001CBF80F08C03D8B2631E13F0FF044FEA5505EFD1E8E7000070B52DED028B424A65
:2016200086B0516804461068127A03AB03C394E803001A7001AB83E80300B0EE408AFFF778
:201640001AFE08B9012548E094E80300FFF726FE0028F7D094E80600CC20FFF7D7FD94E827
:201660000600BE20FFF7D2FD03AE092594E80300FFF701FE013D15F0FF0506F8010BF5D157
:20168000082103A8FFF7ACFF9DF81430834244D19DF80D309DF80C00DE0900EB032080B288
:2016A00020D0404280B2FEF73DFF204B0022FEF7A3FFFFF799FA07EE900A37EE880A10EE64
:2016C000100A84ED040AFEF73FFF194B0022FEF793FFFFF769FA4042A082284606B0BDEC67
:2016E000028B70BDFEF71EFF124B0022FEF784FFFFF77AFA07EE900A37EE880A354610EEFE
:20170000100A84ED040AFEF71FFF094B0022FEF773FFFFF749FAA082DFE7074818F018FFB1
:20172000064818F0B1FF8DE7C8D001080000B0BF000030400000B03FBBD101084BD1010806
:20174000F0B58BB006AD85E80600244A0646D2F80D10D2F8090008AB03C395E80300FFF720
:201760009DFD002838D095E806003320FFF74EFD08AF082495E80300FFF77DFD013C14F074
:20178000FF0407F8010BF5D1072108A8FFF728FF9DF82730834206D108AB03CB3060716016
:2017A00020460BB0F0BD04939DF8263003939DF8253002939DF8243001939DF823300093CC
:2017C0009DF821209DF822309DF82010044818F0BFFE044818F058FF0124E1E7C8D001083D
:2017E000DDD101084BD101082DE9F04F2DED028BB24B1B7891B0012B05900C4602D1B04862
:2018000010F038FD059B23F00203012B40F0AC80DFF8D0A2DFF8D0B2254626464FF0000893
:20182000B446BCE80F0008AF0FC79CE80F0087E80F0008AF97E80300FFF730FD012836D1D1
:2018400006F11B0996E806004846FFF709FE96E806004846FFF704FEF37E9AF800209A4255
:2018600025D0FF2B06D19748414618F071FE964818F00AFF4FF00A099AF80000F37E83428C
:2018800015D096E8060009F1FF39FFF70FFE19F0FF0903D0002001F095FFEDE7F27E08F1E4
:2018A0000101584618F054FE874818F0EDFE08F10108B8F1080F06F12006B1D104F580731F
:2018C0004FF0000B0693D946069B9D420AD1059B032B40F09B800025284611B0BDEC028B08
:2018E000BDE8F08F4FF00A0A4FF0020805F1100696E80F008DE80F0095E80F00FFF7F2FC9B
:20190000AE46BEE80F00BC46ACE80F0096E80F008CE80F0097E80300FFF7C0FC012805D037
:20192000EB7D85F816905BB92035CDE7A87596E80F008DE80F0095E80F00FFF7E4FC8046A9
:20194000BAF1010AEB7D09D0012B03D185F8189085F81E90B8F1000FCAD1E5E7012BE3D141
:201960002B76AB779B46DFE7059B002B4CD109F029FEDDF814B0554B9FED558A069308347C
:2019800001270025A4F1080307934FF000084FF00209A37B03B3A4F1080CBCE80F0008AE49
:2019A0000FC69CE80F0086E80F0008AE96E80300FFF774FC0128824642D000232360636039
:2019C000E37B002B55D1DFF824910A264FF00208A37B002B40F08C80E37B012B00D12374DC
:2019E000069B01370233092F069304F12004C9D1059B7BB9002D3FF46EAF364818F0A8FDD9
:201A0000314818F041FE67E74FF0000B059B022BB1D00025294B1B78012B02D1284810F085
:201A200019FC002D3FF457AFBBF1000F3FF453AF294818F08DFD244818F026FE5D464BE7CB
:201A4000079B304693E80600FFF77AFED0B14146224818F07DFD1C4818F016FE0023A381C4
:201A600084ED028A84F810A084F815A0484655468146B8F1090F0FD008F10108B9F1000FC1
:201A800087D1A0E76075E31D16F8012B1A70A34203F1FF33F8D1EBE7E67B012E93D13946B5
:201AA0000F4818F055FD084818F0EEFD0023A38184ED028A26746675B34684E7C8650020C8
:201AC000086500201BD201084BD1010846660020000000008ED201089FD2010852D2010882
:201AE00069D201087400002037D2010830010020069BB3F90000FEF715FD214B0022FEF7D4
:201B0000A5FEFFF771F800EE100A0798FFF784FDA37B002818BF0125012B1CD199F8003088
:201B2000D4ED027A012B0BD0B2EE027A67EE877AF1EE046A87EEA67ADFED127A77EE277AAF
:201B4000C4ED027A4FF00008013E0AD0B8F1000F7FF43EAF44E7E37B84ED028A002BF3D16B
:201B60003EE7E67B012E7FF43BAF3946064818F0EFFC064818F088FDB346267430E700BF4F
:201B8000000024400000004279D201084BD1010808B50B480B4A0C4BC0E9002300234FF438
:201BA0008042C0E90233C0E90423C0E9063303620FF026F918B1BDE808400AF01FBB08BD01
:201BC000A463002000540040A086010070B50E4D0E4E0446012086B028703078012808D065
:201BE0000A98009020460FF0CDF900232B7006B070BD0020CDE90423039101F0E3FDDDE9BF
:201C000004230399E9E700BF3B660020845E002070B50E4D0E4E0446012086B028703078F2
:201C2000012808D00A98009020460FF083FA00232B7006B070BD0020CDE90423039101F06C
:201C4000C1FDDDE904230399E9E700BF3B660020845E0020030903EB830300F00F0000EB81
:201C60004300C0B270470A23B0FBF3F3C3EB4312C3EB820200EB420040EA0310C0B2704772
:201C800010B5052386B0044602223E48D0210FF0C1FB50B13C4818F05BFC3C4818F0F4FC21
:201CA000FFF776FF012006B010BD8DF810002078FFF7D9FF8DF811006078FFF7D4FF8DF85E
:201CC0001200A078FFF7CFFF8DF81300E078FFF7CAFF8DF814002079FFF7C5FF8DF81500E1
:201CE0006079FFF7C0FF8DF81600A079FFF7BBFF64238DF8170000932248082304AAD02108
:201D0000FFF764FF08B12248C5E702A800F044F808B12048BFE79DF80900237862789DF856
:201D200008108B4208BF8242A2789DF80A300CBF012000209A4214BF002000F00100A27963
:201D40009DF80E309A4214BF002000F0010062799DF80D309A4214BF002000F001002279E8
:201D60009DF80C309A4214BF002000F00100E2789DF80B309A4214BF002000F0010080F078
:201D8000010090E7A4630020B5D201084BD10108E2D20108FDD201082DE9F043052389B0B0
:201DA000044602225D48D0210FF034FBB0B1FFF7EFFE642001F006FD584805230222D02158
:201DC0000FF028FB50B1564818F0C2FB554818F05BFC0122104609B0BDE8F08364254F4F10
:201DE0002E46009601230022D0213846FFF7EEFE40B14D4818F0ACFB4A4818F045FCFFF73C
:201E0000C7FEE6E702AA00960723D0213846FFF7FFFE024608B14548ECE700960123D02156
:201E20003846FFF7D3FE08B14148E3E704AA00960723D0213846FFF7EBFE024608B13D480F
:201E4000D8E7844602A904AB012011F8018B13F801EB0CF1010CF04518BF0020BCF1070FF9
:201E6000F3D1013D01D00028BBD09DF80800FFF7F1FE804620709DF80900FFF7EBFE8146C0
:201E800060709DF80A00FFF7E5FE0146A0709DF80B00FFF7DFFE0746E0709DF80C00FFF7FC
:201EA000D9FE064620719DF80D00FFF7D3FE607105469DF80E00FFF7CDFEB9F13B0F98BF3A
:201EC00017298CBF01210021B8F13B0F88BF41F00101013F062F88BF41F00101013E1E2E4D
:201EE00088BF41F00101A07119B9013D0B2D7FF671AF0023012406A88DF818308DF81930E9
:201F00008DF81A308DF81B408DF81C408DF81D408DF81E30FFF7B4FE22465BE7A463002003
:201F200018D301084BD10108E2D2010847D3010865D3010880D301081FB564238DF80C001F
:201F40008DF80D1000930948022303AAD021FFF73DFE40B1064818F0FBFA064818F094FBE6
:201F6000FFF716FE012005B05DF804FBA46300209ED301084BD1010830B585B0FA250C46DC
:201F80008DF8080000951048012302AAD021FFF71DFE50B10D4818F0DBFA0D4818F074FBF6
:201FA000FFF7F6FD012005B030BD07480095012303AAD021FFF72CFE08B10648EBE79DF841
:201FC0000C302370EFE700BFA46300209ED301084BD10108C2D301082DE9F3410646084655
:201FE00017461D46FFF73FFE04463846FFF73BFE80462846FFF737FE07469DF82000FFF7A0
:2020000032FEF20744BF64F07F04E4B2B30748BF68F07F08054648BF5FFA88F8700744BFE2
:2020200067F07F07FFB2310744BF65F07F05EDB2F20644BF45F04005EDB2330623D42146B4
:202040000720FFF779FF48B1314818F081FA314818F01AFB012002B0BDE8F0810DF1070171
:202060000720FFF789FF08B12B48EEE79DF80700041B18BF0124082641463046FFF75CFF87
:2020800020B12648E1E700240B26F5E70DF107013046FFF771FF08B12148D6E79DF807307B
:2020A000434518BF601C06F1010818BFC4B239464046FFF741FF08B11A48C6E70DF10701EF
:2020C0004046FFF759FF08B11748BEE79DF80730BB4218BF601C06F1020618BFC4B2294698
:2020E0003046FFF729FF08B11048AEE70DF107013046FFF741FF08B10D48A6E79DF807308D
:20210000AB4201D00B48A0E7201E18BF0120A2E7E9D301084BD101080DD4010830D4010887
:2021200054D4010877D401089BD40108BED40108E2D4010805D5010837B504460D460E20AE
:202140006946FFF719FF40B1164818F001FA164818F09AFA012003B030BD0123013C03FA57
:2021600004F49DF80030012D06BF43EA0401C9B223EA04010E208DF80010FFF7DDFE08B1A3
:202180000A48E2E701A90E20FFF7F6FE08B10848DBE79DF800209DF804309A42DBD0054845
:2021A000D3E700BF2AD501084BD1010854D501087BD50108A1D5010837B504460D460F20B7
:2021C0006946FFF7D9FE40B1174818F0C1F9174818F05AFA012003B030BD631E9DF80020BF
:2021E000012404FA03F312EA03001AD022EA03010F208DF80010FFF79FFE08B10C48E4E79E
:2022000001A90F20FFF7B8FE08B10A48DDE79DF800209DF804309A4201D12C70DBE7064892
:20222000D3E72870D7E700BFC9D501084BD10108E6D5010804D6010821D6010813B50C4642
:202240000F2001A9FFF798FE40B1074818F080F9064818F019FA012002B010BD9DF8043086
:2022600023F07F032370F7E740D601084BD1010813B5044669460E20FFF77EFE40B1154865
:2022800018F066F9144818F0FFF9012002B010BD9DF80010032C9BBF21F01C0141EAC4018F
:2022A00041F00401C9B20E208DF80010FFF744FE08B10A48E4E701A90E20FFF75DFE08B1BA
:2022C0000748DDE79DF800209DF804309A42DDD00448D5E762D601084BD1010884D6010813
:2022E000A7D60108C9D60108F0B587B00CF0FEFE0446D0B93348344E344D324F18F028F9E1
:20230000324818F0C1F90CF0F1FE00284FD1384618F01EF9284618F0B7F901344FF4FA70A9
:20232000E4B201F04FFA032CEDD9294C294D002001F048FA2378072B41D04FF4FA7001F01E
:2023400041FA4FF4FA7001F03DFA4FF4FA7001F039FA4FF4FA7001F035FA01231E482B70AA
:2023600018F0F6F8194818F08FF90CF01FFE1B4AD4F8013013601A4B1A485B685360237AAE
:202380000493E3790393A37902936379019323790093E378A278617818F0DAF80B4818F0E1
:2023A00073F92878431E5842584107B0F0BD304618F0CEF8284618F067F90424ADE7002320
:2023C0002B70D2E7EDD60108FFD601084BD10108AC6600207C0300200FD70108FB5C0020A3
:2023E000AD66002020D7010838B5214D00052B8800F57E22B3EB124F16D2020CB3EB104F10
:202400004FF0000038BF2A8001F0DCF90022288811460DF01BF810B928880CF021FF2B8895
:2024200001332B80022021E0FCD1124C2388B3EB123F17D200F57020020BB3EB103F4FF02E
:20244000000038BF228001F0BDF90022208811460CF05EFF10B920880CF0C2FE23880133B6
:202460002380DFE7DED100202880208038BD00BF940300209603002038B51C4D00052B88AA
:2024800000F57E22B3EB124F11D2B3EB104F4FEA10424FF0000038BF2A8001F093F9288830
:2024A0000DF030F92B8801332B8002201CE0FCD10F4C2388B3EB123F12D200F57020B3EB7D
:2024C000103F4FEA10324FF0000038BF228001F079F920880DF0ECF8238801332380E4E721
:2024E000E3D100202880208038BD00BFB0030020B203002030B51B4C0005238800F57E22D3
:20250000B3EB122FC1B00D4627D2B3EB102F4FEA10224FF0000038BF228001F053F94FF47F
:2025200080730022684621880DF052F900226B46104613F8011B0130A94218BF0132B0F5CC
:20254000807FF6D122B100232380012041B030BD2388013323800220F8E7FCD1002020800D
:20256000F4E700BF7E03002038B5214C0005238800F57E22B3EB124F19D2020CB3EB104F8C
:202580004FF0000038BF228001F01CF90022208811460CF05BFF20B1238801332380022071
:2025A00004E0144A002323801380012038BDF6D1104D2B88B3EB123F15D200F57020020B2B
:2025C000B3EB103F4FF0000038BF2A8001F0FAF80022288811460CF09BFE0028E1D02B8801
:2025E00001332B80DBE7DAD1002020802880DDE7980300209A0300202DE9F0470023C0B00B
:2026000006031A460C464FEA005A314668460DF0DFF804F13903002213F80119202903D1DE
:202620001978202908BF5A70A342F5D1671EE94604F138086A463B46002543452AD1002D95
:202640003CD023466A4604F1380C18685968144603C4083363452246F7D11B78237000225F
:202660004FEA1A34114620460CF052FE8246D0B100231A46314668460CF0C6FF00231A4695
:20268000314668460DF0A4F847451BD1003D18BF012513E012F8011B13F8010F88421CBFF1
:2026A0000135EDB2C9E720460CF09AFD5246514620460CF02DFE0028DAD10125284640B089
:2026C000BDE8F08719F8013B17F8012F9A421CBF0135EDB2D8E710B5C0B00C464FF480734A
:2026E0000103002268460DF073F8214604F139006B460024814202D1002040B010BD13F8B6
:20270000012BFF2A14BF0A700C700131F2E72DE9F041C4B001AC0B7823704B7863708B7879
:20272000A370CB78E3700B7923714B7963718B79A371CB79E3710B7A237200054B7A6372D7
:2027400000F57E258B7AA3724FEA152800231A46414604A80DF03CF804AE002327463246B0
:202760002146184611F801EB12F801CBE64518BF013003F1010318BFC0B20B2BF2D1002834
:2027800039D094E8070004AB03C323F8022B120C1A702D0B0022114628460CF0B9FD04462D
:2027A000F0B100231A46414604A80CF02DFF00231A4604A841460DF00BF80023184617F854
:2027C000011B16F8012B914218BF013003F1010318BFC0B20B2BF2D1003818BF01200AE074
:2027E00028460CF0FDFC2246214628460CF090FD0028D6D1012044B0BDE8F08110B50C469F
:202800000105C0B001F57E2168464FF480730022090A0CF0DDFF9DF8003023709DF801309E
:2028200063709DF80230A3709DF80330E3709DF8043023719DF8053063719DF80630A371F6
:202840009DF80730E3719DF8083023729DF8093063729DF80A30A372002040B010BD000092
:2028600010B5304C0005226800F580431B0A9342C0B051D900F58050B2EB102F4FEA10232F
:202880004FF0000038BF236000F09CFF21684FF48073002268460CF09BFF6946002311F8F4
:2028A000012BFF2A0BD12168FE200DF8030003EB01210CF069FE0020206040B010BD12B3A3
:2028C000FE2A08D1FC220DF8032021681DF8030003EB0121EDE7FC2A01D1F822F3E7F82A1E
:2028E00001D1F022EFE7F02A01D1E022EBE7E02A01D1C022E7E7C02A01D18022E3E7802A00
:20290000E3D10022DFE70133B3F5807FC7D12368013323600220D0E7FCD1002323600120F9
:20292000CBE700BFAC03002038B5040504F58054240BA51C0022114628460CF0E9FC08B91B
:20294000280138BD01340022114620460CF0E0FC08B92001F5E70020F3E70000F0B5314C93
:2029600003050E4603F580422168120A8A42C1B0054652D903F58053B1EB132F4FEA1327CD
:202980004FF0000038BF276000F01CFF216800224FF4807368460CF01BFF6A46002112F8EF
:2029A000013BFF2B0AD12368DB1B01EB0323DB00002046F82530206041B0F0BD23B3FE2B98
:2029C000194A09D1012313702368DB1B01EB0323117801EBC303EBE7FC2B01D10223F2E77C
:2029E000F82B01D10323EEE7F02B01D10423EAE7E02B01D10523E6E7C02B01D10623E2E781
:202A0000802BE1D10723DEE70131B1F5807FC6D12368013323600220CEE7FCD10023236070
:202A20000120C9E7A40300209C03002030B587B013788DF8043053788DF8053093788DF8CA
:202A40000630D3788DF8073013798DF8083053798DF8093093798DF80A30D3798DF80B308F
:202A6000137A8DF80C30537A8DF80D30937A8DF80E30D37A8DF80F30137B8DF81030537B77
:202A80008DF81130937B8DF81230D37B8DF813301324137C1F4D8DF814306143537C8DF892
:202AA000153001EB0050937C8DF816302A6800F5804323449A422AD200F58044A2424FF056
:202AC000000038BF2C6000F07DFE29680B1B18336B4413F8140C0CF057FD0DF1030029684A
:202AE0000CF038FE2B681C1B04F118020DEB02049DF8032014F8141C914217BF00230133D9
:202B00002B60012004BF2B60022007B030BD00202860FAE7A803002037B5132461432B4D62
:202B200001EB005000F5804329682344994218D200F58044A1424FF0000038BF2C6000F096
:202B400041FE29680DF107000CF004FE2B68204A9DF807101C1B013311552B60022003B0C8
:202B600030BD1C4B1120002113F8014BFF2C08BF03F8011C0138F7D1154B1978117059780A
:202B8000517099789170D978D170197911715979517199799171D979D171197A1172597A97
:202BA0005172997A9172D97AD172197B1173597B5173997B9173D97BD173197C1174597C57
:202BC00051749B7C93742860C9E700BFA00300208003002082030020F0B50388D3B00DF15F
:202BE00009028DF800301B0A8DF8013043888DF802301B0A8DF8033003798DF804304379EA
:202C00008DF8053083798DF80630C3798DF80730037A8DF8083000F1290100F1090353F8AE
:202C2000044B42F8044B8B42F9D1D0F82920CDF829209B88ADF82D3000F130030DF12F058B
:202C400000F150041A4652F8041B090AA24205F8011BF8D10DF1370253F8041B02F8011BD6
:202C6000A342F9D10DF13F01583013F8012B02F00102984201F8012BF7D100231A4647F62C
:202C8000F07112A80CF0A4FD12AC00226D4623466946104611F8017B13F8016BB74218BFAF
:202CA000013002F1010218BFC0B2482AF2D1002839D0694612A816F0D1FE0022114640F255
:202CC000FF700CF025FB064600B300231A4647F6F07112A80CF098FC00231A4612A847F685
:202CE000F0710CF075FD0023184615F8011B14F8012B914218BF013003F1010318BFC0B207
:202D0000482BF2D1003818BF01200CE040F2FF700CF066FA3246314640F2FF700CF0F8FAE6
:202D20000028D2D1012053B0F0BD30B5C1B04FF48073002247F6F071044668460CF048FD72
:202D400000236A46194612F8010B0133FF2808BF02F8011C482BF6D19DF801209DF800303D
:202D600003EB022323809DF803209DF8023003EB022363809DF8053063719DF80630A371AB
:202D80009DF80730E3719DF80830237204F109020DF109030DF1290153F8040B42F8040BDC
:202DA0008B42F9D1DDF82920C4F829209B88A4F82D3004F130020DF12F0504F15003114645
:202DC00015F8010B000241F8040B8B42F8D10DF13700156810F8011B294442F8041B934289
:202DE000F7D10DF13F01583411F8012B02F0010203F8012B9C42F7D1002041B030BD00004C
:202E00000248002280210DF0BFBA00BF000C02400248012280210DF0B7BA00BF000C024099
:202E200010B5084C0022202120460DF0ADFA05200CF09EFD20460122BDE8104020210DF094
:202E4000A3BA00BF000C024007B5002309488DF80430012240210DF097FA4FF0FF33012279
:202E600001A905480FF0C5F89DF8040003B05DF804FB00BF000C0240B064002007B50022E0
:202E80008DF80700402107480DF07EFA4FF0FF3301220DF1070104480EF00DFF03B05DF889
:202EA00004FB00BF000C0240B0640020F8B5012205460C460B480C4F40210DF065FA04B93D
:202EC000F8BDB4F5004F264628BF4FF4004629464FF0FF33B2B238460EF0EDFE3544A41B86
:202EE000EDE700BF000C0240B064002007B5030A8DF80500022101A88DF80430FFF7D6FF1A
:202F000003B05DF804FBF7B507462A2016460D461C46FFF7B3FF04213B0A0DEB01008DF8C6
:202F20000430330A8DF806308DF805708DF80760FFF7BCFF2B20FFF7A1FF2B0A04218DF80E
:202F400004300DEB0100230A8DF805508DF806308DF80740FFF7AAFF2C2003B0BDE8F04043
:202F6000FFF78CBF2DE9F3411C468318B3F5A07F154601EB0403C4BFC0F5A075ADB2F02BED
:202F8000C8BFC1F1F0040F460646C8BFA4B2BDF82080FFF735FF7B1E721E23442A4439468A
:202FA0009BB292B23046FFF7AEFF4FEA182310488DF80430012240218DF805800DF0E4F97A
:202FC0000C4F94B9FFF724FF02B0BDE8F0814FF0FF33022201A938460EF06DFE013EB6B29B
:202FE000002EF4D1013CA4B2EBE72E46F8E700BF000C0240B064002030B5782085B000F043
:20300000E1FB01224FF0FF3300218348834C0EF052FEFFF7F5FEFFF703FF782000F0D2FB01
:203020000120FFF72BFF782000F0CCFBCB20FFF725FF206823790090052168468DF80430BA
:20304000FFF734FFCF20FFF719FFB4F80520E379ADF80020032168468DF80230FFF726FFB4
:20306000E820FFF70BFF2289A37AADF80020032168468DF80230FFF719FFEA20FFF7FEFE28
:20308000002502216846ADF80050FFF70FFFED20FFF7F4FE624B009304216846FFF706FF3E
:2030A000F720FFF7EBFE2023012168468DF80030FFF7FCFEC020FFF7E1FE21230121684699
:2030C0008DF80030FFF7F2FEC120FFF7D7FE1023012168468DF80030FFF7E8FEC520FFF73A
:2030E000CDFE43F6314302216846ADF80030FFF7DDFEC720FFF7C2FEC023012168468DF80C
:203100000030FFF7D3FE3620FFF7B8FE4823012168468DF80030FFF7C9FE3A20FFF7AEFE0D
:203120005523012168468DF80030FFF7BFFEB120FFF7A4FE4FF4D85302216846ADF8003062
:20314000FFF7B4FEB620FFF799FE364B03211A889B78ADF8002068468DF80230FFF7A6FE46
:20316000F220FFF78BFE012168468DF80050FFF79DFE2620FFF782FE012168468DF8001067
:20318000FFF794FEE020FFF779FE04F10B036A46133418685968154603C50833A3422A464C
:2031A000F7D1186899889B79AB712860A98068460F21FFF77BFEE120FFF760FE1A4B6A460E
:2031C00003F1080518685968144603C40833AB422246F7D1186899889B79A3712060A180CA
:2031E00068460F21FFF762FE1120FFF747FE782000F0E8FA2920FFF741FE3620FFF73EFEBF
:203200002823012168468DF80030FFF74FFE05B0BDE83040FFF7FCBDB0640020D9D001083C
:203220006403128151D7010855D7010882B02DE9F04F85B0DEB2C3F3072514460F93721E74
:203240006B1E0B4402449BB292B2BDF84470BDF84880FFF758FEC72C71D0E72C71D0B42C25
:2032600071D0A82C71D0C02C71D0C12C71D0C22C71D0C32C71D0C42C71D0C82C71D0C92CE3
:2032800071D0CA2C71D0CB2C71D0CC2C71D0CD2C71D0CE2C71D0CF2C71D0D22C71D0D32C56
:2032A00071D0D42C71D0D52C71D0D62C71D0D92C71D0DA2C71D0DB2C71D0DC2C71D0E02CDD
:2032C00071D0E12C71D0E22C71D0E32C71D0E42C71D0E82C71D0E92C71D0EA2C71D0EB2C56
:2032E00071D0EC2C71D0ED2C71D0EE2C71D0EF2C71D0F22C71D0F32C71D0F42C71D0F52CE2
:2033000071D0F62C71D0F92C71D0FA2C71D0FB2C71D0FC2C71D07F2C28BF20244FEA182321
:20332000203C01936C433B0A009364004FF00009A94564D305B0BDE8F04F02B070477F24A0
:20334000ECE78024EAE78124E8E78224E6E78324E4E78424E2E78524E0E78624DEE78724D1
:20336000DCE78824DAE78924D8E78A24D6E78B24D4E78C24D2E78D24D0E78E24CEE78F24F1
:20338000CCE79024CAE79124C8E79224C6E79324C4E79424C2E79524C0E79624BEE7972411
:2033A000BCE79824BAE79924B8E79A24B6E79B24B4E79C24B2E79D24B0E79E24AEE79F2431
:2033C000ACE7A024AAE7A124A8E7A224A6E7A324A4E7A424A2E7A524A0E7A6249EE7A72451
:2033E0009CE7A8249AE7A92498E7AA2496E7AB2494E7AC2492E7AD2490E7AE248EE7109B99
:2034000033F804B04FF0000A564503D809F1010902348DE70BFA0AF10B044ABF009B019B11
:203420008DF80C304FF0020103A84EBF8DF80D708DF80C308DF80D800AF1010AFFF736FDCD
:20344000E2E782B02DE9FF470446BDF83C90BDF840A00D9388461546DFB2C3F30726FFF782
:20346000CFFC15F8012B2AB904B0BDE8F04702B0FFF7CEBCE319B3F5A07F0BDB08EB0603FE
:203480001FFA83F816FA83F3EF2BEDDC202A4FF00004E6D00E9B8DF834708DF8356000936D
:2034A0002046CDE9019A0D9B41463C44FFF7BEFEA4B2D6E730B4B0F5A07FBDF8085005D255
:2034C000EF2903D8029530BCFFF74CBD30BC704707B500210090F0234FF4A0720846FFF7BB
:2034E00041FD03B05DF804FBB0F5A07F13B505D2EF2903D800930123FFF7DCFF02B010BD2A
:20350000B0F5A07F13B506D2EF2904D8009313460122FFF7CFFF02B010BD2DE9F341B0F512
:20352000A07FBDF8207004460D4690461E4620D2EF291ED800970123FFF7BCFFA91942469A
:2035400020460097012389B2FFF7B4FF33462946204600970122FFF7ADFF04EB080033464C
:203560000122294680B2089702B0BDE8F041FFF7A1BF02B0BDE8F081B0F5A07F13B514465C
:2035800012DAEF2910DC80B289B24B1C421C9BB292B2FFF7B8FC230A022101A88DF804301C
:2035A0008DF80540FFF782FC02B010BD2DE9F74FBDF8306007460C4698469146FFF720FC47
:2035C000264408EB070BB6B24FF0000A1FFA8BFBB44215D009EB4A033D4621B20AE033F8A5
:2035E000022B28B2CDE90013FFF7C6FFDDE900130135ADB25D45F2D10134C244A4B2E7E70E
:2036000003B0BDE8F04FFFF703BC2DE9F74FA3EB0109A2EB000AB9F1000FB8BFC9F10009E0
:20362000BAF1000FB8BFCAF1000AD145BDF8307004460D46904603DD98460C461346054602
:20364000444505DD29461D460B46214644468846A8EB0406A3EB050BBBF1000FC6F3C0317D
:20366000B2B2B8BFCBF1000B01FA86F69D42B4BF01234FF0FF33009276100193FFF7C0FBED
:20368000444504DD03B0BDE8F04FFFF7C1BBD145C7BF2146284629462046A6EB0B063A464F
:2036A000FFF76AFFB3B236B2002E05DA019A1544009AD6182DB236B2013424B2E0E700003C
:2036C000044BC90001F4FC6141EAD20203EA00201043704700F8FFFF2DE9F341089E0F462F
:2036E0001D4614468046FFF78BFB2A20FFF7C6FB1FFA88F0FFF7FAFBA0B2FFF7F7FB2B20C9
:20370000FFF7BCFBB8B2FFF7F1FBA8B2FFF7EEFB2E20FFF7B3FBA4EB0804FFF795FBEB1B5E
:203720000134013314FB03F39BB203EB43050F4FADB206EB4304A64205D1FFF769FB28461D
:2037400002B0BDE8F0814FF0FF33032201A938460EF04FFC9DF806209DF805109DF804009C
:20376000FFF7AEFF26F8020BE5E700BFB064002037B5FFF745FB0920FFF780FBFFF764FBAB
:20378000FFF762FB0546FFF75FFB2D0645EA0044FFF75AFB0546FFF757FB044344EA05201D
:2037A0000190FFF735FB019803B030BD08B504480DF001FF18B1BDE8084008F01FBD08BDC4
:2037C0004C64002010B50446FFF7F0FF04B910BDFFF7ECFF01200CF0CBF8013CF6E70000C0
:2037E0000C480D4A08B542F21073C0E9002300234FF48042C0E90233C0E90423C0E9063326
:2038000003620DF0FDFA18B1BDE8084008F0F6BC08BD00BFF8630020005C004070B50E4DD4
:203820000E4E0446012086B028703078012808D00A98009020460DF0A5FB00232B7006B0A1
:2038400070BD0020CDE904230391FFF7BBFFDDE904230399E9E700BF845E00203B6600201F
:2038600070B50E4D0E4E0446012086B028703078012808D00A98009020460DF05BFC00237B
:203880002B7006B070BD0020CDE904230391FFF799FFDDE904230399E9E700BF845E002071
:2038A0003B66002030B585B005250C468DF80C008DF80D1016480095022303AAD021FFF7D2
:2038C000ADFF50B1134816F043FE134816F0DCFEFFF786FF012005B030BD0D480095012312
:2038E00003AAD021FFF79AFF08B10C48EBE708480095012303AAD021FFF7B2FF08B1084865
:20390000E1E79DF80C30181B18BF0120E3E700BFF863002065D701084BD1010889D701080C
:20392000ADD7010810B5084805230122D0210DF071FD08B1FFF754FFBDE8104002480523D5
:203940000122D0210DF066BDF8630020000000002DE9F04F964B2DED028B196885B069B10B
:20396000944816F0F5FD944816F08EFE4FF0020A504605B0BDEC028BBDE8F08F8F4F904E59
:203980008D4D012405231A46D02138460DF042FD824670B12146304616F0DAFD01342846AF
:2039A00016F072FEFFF71CFF0A2CEBD14FF0010ADEE79FED848ADFF80492DFF82C82DFF81C
:2039C0002CB204460546064607460020FFF7FAFE3B238DF80C30052300937848012303AA62
:2039E000D021FFF71BFF002800F0B680764816F0AFFD714816F048FEFFF7F2FE0134E4B252
:203A0000632CE2D907EE907AF8EEE77AC7EE886A07EE906AF8EEE77A87EE887A07EE905AE3
:203A2000F8EEE77AC7EE888A9FED688A66EE887A17EE90BA67EE087A17EE900AFCF784FD6B
:203A4000064658460F46FCF77FFD68EE887A804617EE900A8946FCF777FD02460B46FCF739
:203A6000CBFD424604460D464B4640464946FCF7C3FD22462B46FCF709FC41EC100B19F0DE
:203A80006EF9304653EC102B3946FCF7DFFE41EC100B18F0B9FF4E4B51EC100B0022FCF772
:203AA000ABFD41A3D3E90023FCF7D0FE494B804618688946FCF748FD02460B46404649464B
:203AC000FCF7E2FBFDF790F8324608EE100A3B4630463946FCF790FD22462B46FCF7D6FB7F
:203AE00041EC100B19F03BF955EC104B8BF00040FCF72AFD22462B46FCF7A8FE41EC100B16
:203B000018F082FF324B51EC100B0022FCF774FD25A3D3E90023FCF799FE2F4B044618684C
:203B20000D46FCF711FD0B46024629462046FCF7ABFBFDF759F8DFED297A294B38EE678AEB
:203B400007EE900ABDEEC88AFDEEE77A83ED008A244BC3ED007A0BE71E230093224A06239F
:203B6000D0214846FFF77CFE08B158463FE7B8F80030DBBA1F44B8F80230DBBA1E44F0EE4A
:203B8000087AB8F80430B4EEE78ADBBAF1EE10FA1D4404D5F7EE007A38EE278A2EE7632C1A
:203BA0003FF404AF642429E77A008BFCFA210940CC030020D4D701084BD10108F8630020DF
:203BC0000CD801080000000065D701080000803800806640B4030020B80300200000B4422D
:203BE000BC030020C0030020C4030020ADD701082DE9F0472DED068B8D4886B016F0A8FCE2
:203C00008C4816F041FD8C4B196861B18B4816F09FFC884816F038FD0224204606B0BDECB8
:203C2000068BBDE8F087DFF82482854F814E092505231A46D02140460DF0ECFB044668B143
:203C40003846013D16F084FCADB2304616F01CFDFFF7C6FD002DEBD10124DEE7DFED798AD3
:203C6000DFF8E8A1DFF808929FED778A05460646074680460020FFF7A5FD3B238DF814305D
:203C8000052300937148012305AAD021FFF7C6FD002800F0A0806E4816F05AFC654816F036
:203CA000F3FCFFF79DFD0135ADB2B5F57A7FE1D307EE908AF8EEE77A9FED669A87EEA87A20
:203CC00007EE907AF8EEE77A87EEA88A07EE906AF8EEE77A28EE098AC7EEA89A67EE098A39
:203CE000FDEEE87A17EE903A002BB8BF5B4207EE903AF8EEE77AE9EE897A17EE900AFCF7F7
:203D000023FC41EC1A0B18EE100AFCF71DFCB0EE4A1AF0EE6A1A41EC100B19F01EF84E4BA2
:203D200051EC100B0022FCF767FC4C4B0022FCF763FCBDEEC88A3CA3D3E90023FCF786FD77
:203D4000FCF752FF18EE103A002BB8BF5B4208EE103AB8EEC88A0646A9EE898A18EE100A42
:203D6000FCF7F2FB41EC190B18EE900AFCF7ECFBB0EE491AF0EE691A41EC100B18F0EDFFFA
:203D8000354B51EC100B0022FCF736FC344B0022FCF732FC24A3D3E90023FCF757FDFCF762
:203DA00023FF304B1E60304B054618603046FCF7CBFB02460B462846CDE90223FCF7C4FBE7
:203DC000DDE90223CDE90001284816F0C1FB194816F05AFC21E71E230093254A0623D021ED
:203DE0005046FFF73DFD08B1224855E7B9F80030DBBA9844B9F80230DBBA1F44B9F804308C
:203E0000F4EEC88ADBBAF1EE10FA1E4404D5F7EE007A78EEA78A46E740F2E7339D423FF434
:203E20001BAF4FF47A753EE77A008BFCFA2109403ED801084BD10108CC030020D4D7010815
:203E400050D801080000000000004843F863002065D7010800008038008076400000E03FD9
:203E60000000E0BFB4030020B80300207ED80108C4030020ADD70108F0B5284F284E85B057
:203E8000052500224FF4007138460CF07DFA3220FFF798FC01224FF4007138460CF074FA96
:203EA0003220FFF78FFC05231A46D02130460DF0B1FA08B1FFF794FC05231A46D02130466A
:203EC0000DF0A8FA68B1174816F042FB013D164816F0DAFBFFF784FC15F0FF05D1D10124CB
:203EE00018E06B238DF80C3080238DF80D300523009303AA0223D0213046FFF78FFC044657
:203F000008B10A48E0E70BF02DFD094B18602046FFF758FC204605B0F0BD00BF0004024061
:203F2000F86300208FD801084BD1010865D70108CC0300201FB575238DF80C3000238DF868
:203F40000D301B4B196849B11A4816F001FB1A4816F09AFB022005B05DF804FB0A230093F7
:203F60001648012303AAD021FFF758FC48B1144816F0EEFA104816F087FBFFF731FC012070
:203F8000E9E7052300930D48012303AAD021FFF767FC08B10B48EBE79DF80C106829DAD05C
:203FA000094816F0D5FA044816F06EFBE7E700BFCC030020D4D701084BD10108F863002050
:203FC000B9D80108DFD8010808D901082DE9F041304C236806463BB12F4D304F0BF0C2FC63
:203FE0002368643898421CD300232D4F2B4DDFF8C48023600124FFF795FC08B1FFF7F0FBD6
:20400000FFF790FCC0B12748214616F0A1FA0134284616F039FBFFF7E3FB0A2CEBD1012072
:2040200035E00020FFF7CEFB2168284616F090FA384616F029FBD1E7FFF77CFF014610B12C
:2040400019482146E1E76B20FFF72CFC014610B116482146D9E71B20FFF724FC014610B141
:2040600021464046D1E71C20FFF71CFC10B121463846CAE7012E0AD10D4816F069FA0748E3
:2040800016F002FBFFF7B4FD003818BF0120BDE8F08100BFCC030020D4D701084BD10108A9
:2040A000D5D9010837D9010857D901087AD9010804DA0108A7D9010807B5F02300210246F3
:2040C000009308464FF4A073FFF770FA03B05DF804FB000010B5044613F010FB2E4B627AD0
:2040E00018702E4B2E491A70A2780A702D4AA07910700978012902D01278012A12D11A7873
:204100002E2A02D157221A700CE01A782D2A01D15622F8E71A78252A01D15522F3E71A78DD
:20412000252AFAD0204C2268092A16D11B78292B13D11E4B1A68012A1D4A06D1002119609D
:2041400011701C4B03221A7007E01B49087801280BD1117839B100231370BDE810400021C9
:20416000012007F051BA1860F7E700230B70134913700B60124913480B7013490B8013496A
:2041800001220B604FF480710CF0FEF80A2323600F4B01221A70D4E7485400204554002084
:2041A0004654002047540020C8000020D06B0020076C0020D7650020096C0020A4A500205A
:2041C000B6620020000C0240C4830020586600204D00002030B5094A01F1C60314685D1AC1
:2041E000AC4206DB08551368C52B9CBF0133136030BD13F8014D5C70F0E700BF4C540020BE
:2042000070B50128049D1C4601D001294DD14F2A16D19149086803461A460133AC5C14F0A1
:20422000DF0F01D0C52AF7D92A445278002A32D0C52B30D8894A12688242FDD10B602AE050
:20424000502A28D184480368002B24DD834A12689342FDD1EA18E95C12F8012C203A18BFEF
:20426000012201B9013BE91805E00C78202C03F1FF3300D10132DE43012A4FEAD676C8BFED
:20428000002611F801490EB1002CEED1002B03DA714B00221A6070BD5A1C2B445B78002B8B
:2042A000F9D0C52AF7D80260F5E72F2A0ED16C4C206810B9B4232360EDE7C0B22946FFF7F3
:2042C00089FFB420FFF786FF0023F4E7342A0AD1634C206808B97E23EDE7C0B22946FFF78C
:2042E00079FF7E20EEE72A2A11D15B4B1968481EC528D0D8594A12689142FDD11860C1F193
:20430000C80229442844BDE8704015F0B5BB4C2A09D1514B1868C728C0F1C70200F1010168
:2043200088BF0022EDE7203B5F2B00F2D5804C4E3068002800F0CA8060281DD1412C6FD05E
:20434000452C6FD0492C6FD04F2C6FD0552C6FD0612C6FD0652C6FD0692C6FD06F2C6FD035
:20436000752C6FD02946FFF735FF29462046FFF731FF002333608EE7B42815D1412C63D03C
:20438000452C63D0492C63D04F2C63D0552C69D0612C69D0652C69D0692C69D06F2C69D037
:2043A000752CDFD1FA24E0E75E2815D1412C63D0452C63D0492C63D04F2C63D0552C63D00D
:2043C000612C63D0652C63D0692C63D06F2C63D0752CC7D1FB24C8E77E2809D1412C5DD0A2
:2043E0004F2C5DD0612C5DD06F2CBBD1F524BCE7A828BAD1412C57D0452C57D0492C57D055
:204400004F2C57D0552C57D0612C57D0652C57D0692C57D06F2C57D0752CA3D1FC24A4E7A8
:20442000C024A2E7C824A0E7CC249EE7D2249CE7D9249AE7E02498E7E82496E7EC2494E799
:20444000F22492E7F92490E7C1248EE7C9248CE7CD248AE7D32488E74C5400205054002033
:20446000D8030020DA2480E7E1247EE7E9247CE7ED247AE7F32478E7C22476E7CA2474E78E
:20448000CE2472E7D42470E7DB246EE7E2246CE7EA246AE7EE2468E7F42466E7C32464E77E
:2044A000D52462E7E32460E7C4245EE7CB245CE7CF245AE7D62458E7DC2456E7E42454E720
:2044C000EB2452E7EF2450E7F6244EE729462046BDE87040FFF77EBE4F2A0ED13149324A51
:2044E0000B681268E85C28B1C52B03D89342FDD10133A3E69342FDD1CAE6502A13D1294964
:20450000294A0B681068002B0BDD8342FDD1013B94E60132AC5C002CFBD18342FDD10A60B1
:20452000B9E60022F6E7522A0CD11E491E4A0B6812681B2B03DD9342FDD11C3B7EE693426F
:20454000FDD1A5E6512A19D1002300E00133EA5C002AFBD113490A6802F11C00984208DA91
:204560001B2A3FF798AE104B1B689A42FDD1086091E60D4800688242FDD15FE64B2A3FF4D7
:2045800087AE4E2A7FF487AE002300E00133EA5C002AFBD1044A1068024A11688842FDD130
:2045A000136078E64C540020505400201F48016801BB1F4B1A6812B905221A607047052ADC
:2045C00002D11B4B0622F8E7062A01D10822F4E7082A01D10922F0E7092A01D10B22ECE789
:2045E0000B2A01D10C22E8E70C2A1ED10122026019607047012918D10D4B1A68002AF7D0FF
:20460000012A01D10322D8E7032A01D10422D4E7042AD6D0062A01D10722CEE7072A04D11F
:20462000044A117000221A60026070472C040020280400201804002013B519234CF2186460
:20464000194618460094FA22FEF734FF192318460094FA22BE21FEF72DFF19221046009456
:204660008C233221FEF726FF00948C2319223221FA20FEF71FFF502319460094192240F24D
:204680001310FEF717FF3C210846009478231C22FEF710FF009478231C223C216220FEF78F
:2046A00009FF009478231C223C218820FEF702FF009478231C223C21AE20FEF7FBFE009470
:2046C00078231C223C21D420FEF7F4FE002002B010BD00002DE9F047DFF86C91514AD9F89D
:2046E0000030514F52F82310504CDFF860814FF620524FF6E075002918BF1546590107EB21
:20470000431386B09A7D012A68D193F818A0BAF1000F63D107F108028E1888587168444E6E
:2047200004AB03C3314604A8FCF7FEFE636800933246236869218B20CDE9015AFEF781FED7
:20474000D9F8003007EB43131869FBF7FDFE0B4602463849304615F0AFFFD9F800309FEDD2
:20476000367A07EB4317D7ED047A98F80030F4EEC77AF1EE10FA11DB012B01D12C23F37093
:20478000CD200023CDE9015363680093284A23687D21FEF756FE06B0BDE8F087B2EE047ACD
:2047A000F4EEC77AF1EE10FA05DB012B01D12C23B370D820E5E7F5EEC07AF1EE10FA05DDF1
:2047C000012B01D12C237370E320DAE7BAEE047AF4EEC77AF1EE10FAE7DDF1E76368174AEB
:2047E00000930026236869218B20CDE90156FEF728FE98F8003012490D48012B114B1B788D
:2048000014BF2E222C22B34214BF4323462315F053FF63680093CDE901562368044A7D2157
:20482000E320B6E7C85F0020045D00205C000020B754002029DA01080000C84230DA010840
:2048400041DA010830010020E0030020B5620020F0B40D2101FB00F3164C1749174D94F836
:2048600004C005F803C01944EA1800236779A679A5784B7164788B71CB710B724B721049B3
:2048800057709670D570147153719371D3711372537201220A7081F801C08F70CE700D7199
:2048A0004C718B71CB710B724B728B72F0BCC0B2FDF72DBF79660020AD5E0020155F002010
:2048C000A86200202DE9F041DFF860E01549164A0D2444430EEB04031EF804404C705C78F0
:2048E00092F804C05779967995788C7052789C7883F805C09F71DE711D725A724FF0000863
:20490000CC70DC781B7981F800800C714B7181F806C0CF710E724D728A72BDE8F041C0B23F
:20492000FDF7F5BEA862002079660020155F002030B5164B164C197801EB410301EB83013A
:20494000144B1A68144B53F8225085B09DB1134B1348194415F0B0FE00234FF62052CDE97E
:204960000132636800930E4A23682D21B420FEF768FD05B030BD0B4B0948194415F09CFE02
:204980004FF6E073CDE90153EBE700BFCA6500205C000020E0030020C85F002095EC010845
:2049A000B754002019ED010830B5154B154C197801EB410301EB8301134B1A68134B53F85D
:2049C000225085B09DB1124B1248194415F074FE002302934FF620530193636800930D4A9E
:2049E00023682D21B420FEF72CFD05B030BD0A4B0848194415F060FE02954FF6E073EBE7E4
:204A0000CA6500205C000020E0030020C85F0020BCEC0108B754002040ED01082DE9F04326
:204A2000DFF880801E4E87B00F460524002518F8013B8DF81550002B08BF20238DF8143025
:204A40007368009320463368CDE9017505AAB9210B34FEF7F6FCA4B240F239139C42E6D1A3
:204A6000DFF8449005254FF0000819F8013B8DF81580002B08BF20238DF81430284673686C
:204A800000930B35CDE90178336805AACD21ADB2FEF7D7FCA542E8D107B0BDE8F08300BF87
:204AA0005C000020B8610020D4610020494B2DE9F0411F68484D0D237B438AB0EB5C632BF8
:204AC0009FBF4FF00A0CB3FBFCFCCCEB4C12CCEB820298BF03EB42034FF00D0202FB0752FF
:204AE00088BF002351788CBF9C46DBB263299FBF0A22B1FBF2F2C2EB4210C2EB800098BFA0
:204B000001EB40014FF00D0000FB075088BF002180788CBF0A46C9B263289FBF4FF00A0E14
:204B2000B0FBFEFECEEB4E14CEEB840498BF00EB44004FF00D0404FB075488BF0020E4787F
:204B40008CBF8646C0B2632C9FBF0A26B4FBF6F6C6EB4618C6EB880898BF04EB48044FF0F3
:204B60000D0808FB075588BF00242D7994BFE4B22646632D9FBF0A27B5FBF7F7C7EB47188D
:204B8000C7EB880898BF05EB4805DFF8608098F800808ABF0025EDB22F46B8F1010F0CBF72
:204BA000CDE90021CDE900C3CDE902E015BF0B460A490B49624605A815F07EFDCDE9017540
:204BC00008490094334605AA074815F075FD0AB0BDE8F081E0030020155F00204CDA01086C
:204BE0005BDA01086ADA0108B7540020B3620020354B2DE9F0411B68344E0D2202FB036669
:204C00008AB03379632B53D80A257179B1FBF5FCCCEB4C13CCEB830301EB4301B379B3FBE2
:204C2000F5F2C2EB4210C2EB800003EB4003F079B0FBF5FECEEB4E14CEEB840400EB44009E
:204C4000347AB4FBF5F7C7EB4718C7EB8808767AB6FBF5F504EB4804C5EB4518C5EB8808A5
:204C600006EB4806C9B2DBB2C0B2E4B2F6B2DFF8708098F80080B8F1010F0ABFCDE900230B
:204C8000CDE900C10B46CDE902E00ABF10491149624605A815F010FDCDE901560E490094D9
:204CA0003B4605AA0D4815F007FD0AB0BDE8F081002427462046A646234622462146A44691
:204CC00026462546D3E700BFE0030020155F00204CDA01085BDA01086ADA0108B754002008
:204CE000B36200202DE9F04F0D234343574FF95C63299FBF4FF00A0CB1FBFCFCCCEB4C1380
:204D0000CCEB830398BF01EB43014FF00D0303FB007388BF00215B788CBF8C46C9B2632BAE
:204D200098BF0A2204469FBFB3FBF2F2C2EB4210C2EB800003EB40034FF00D0000FB04709E
:204D400088BF002380788CBF1A46DBB263289FBF4FF00A0EB0FBFEFECEEB4E15CEEB850573
:204D600098BF00EB45004FF00D0505FB047588BF0020AD7A8CBF8646C0B2632D9FBF4FF09E
:204D80000A08B5FBF8F8C8EB4816C8EB860698BF05EB46054FF00D0606FB047688BF002546
:204DA000F67A94BFEDB2A846632E9FBF4FF00A09B6FBF9F9C9EB491AC9EB8A0A98BF06EB18
:204DC0004A064FF00D0A0AFB047788BF00263F7B94BFF6B2B146632F9FBF4FF00A0AB7FB9F
:204DE000FAFACAEB4A1BCAEB8B0B98BF07EB4B07DFF86CB09BF800B08FB08ABF0027FFB229
:204E0000BA46BBF1010F0DF1240B0ABFCDE90023CDE900C10B46CDE902E00ABF0C490D4933
:204E20006246584615F048FC631CCDE905A7CDE90396CDE901850849CDF800B01A46074802
:204E400015F03AFC0FB0BDE8F08F00BFAD5E00204CDA01085BDA010877DA0108B754002058
:204E6000B362002070B506460D460020A84201DB012009E0345C54B92A1A22EAE2722021C7
:204E8000304414F013FE20460023735570BD0130ECE700002DE9F04F98464FF00B0992FBF4
:204EA000F9F909F1060385B023F00703144604AFADEB030D0A2C0DF1100B09F1FF32054631
:204EC000D8BF00220E465846B96AB7F82CA014F0C5FDB9F1010FACBF0BEB09030BF101039C
:204EE000ADB2B6B2A4B24FF0000203F8012C314622462846CDF800A0142306F11409FEF73A
:204F0000D9FA1FFA88F81FFA89F9A21E681C002300934946434692B280B2FEF7CBFA3A8E80
:204F2000144BCDF808A001925A680092B11CE81C5A461B6889B280B2FEF783FA08F11301DE
:204F4000314453462246284689B2FEF7CDFA2846013D5346424649462544FEF7D1FA534658
:204F600042464946A8B2FEF7CBFA0437BD46BDE8F08F00BF5C0000202DE9FF47744E754A8C
:204F80003178754B754C01EB810102EB8101184615F0B2FB2278012A0ED10C224CF2186171
:204FA000CDE901210090C8234FF4A07214210020FFF770FF002323703378DFF8E491684A30
:204FC0006548684C684F03EB430102EB410209EBC303664915F070FB4CF218650023CDE9EA
:204FE00001536368009323685B4A2D210520FEF728FA0095152340F2371240210420FEF783
:205000008CFA42F2041300934FF49B72142341210520FEF74FFAF97830783B79544A97F8E6
:2050200006C07D79002900F08E800139CDE9005C01EBC00102EB81024CF2186542F2041A17
:205040004C494D4815F038FBCDE9015A636800932368494A41210520FEF7F3F93278474BBD
:2050600047493D4802EB42024FF0000803EB420215F022FBCDE90158636800932368364AD7
:2050800096210520FEF7DDF90095152340F23712A9210420FEF741FACDF800A014234FF424
:2050A0009B72AA210520FEF705FA3B78BA78009334497B78344815F0FFFACDE9015A6368C1
:2050C00000932368304AAB210520FEF7BAF932782E49214809EBC20215F0EEFACDE9015861
:2050E0006368009323681C4A5F210520FEF7A9F93278274B27491848C2EB02121A4415F015
:20510000DBFACDE90158636800932368124A78210520FEF796F932781F4B20490E4802EB64
:20512000420202EBC2021A4415F0C6FACDE90158636800932368084AD2210520FEF781F986
:2051400004B0BDE8F087CDE9005C02EB401273E7CA6500201BE40108B75400204D000020E5
:2051600061E301085C0000208362002095DA01081AEF0108A8DA01081904002009E4010819
:20518000BBDA0108F7DE010830040020CADA0108DCE30108D4DA01088BE3010839DD01087D
:2051A00073E30108000000002DE9F04F2DED028B0C4695B0002930D1002828DD0C234CF239
:2051C0001862CDE90132B24DB24A2B7803EB830302EB830300934FF4A072C8231421204679
:2051E000FFF758FEAC4B2A78AC49AD4803EB021215F062FAAB4B02944FF6FF7201925A68E6
:2052000000921B68A64A2D210620FEF71AF9204615B0BDEC028BBDE8F08F012940F0898124
:205220000024DFF88C82DFF878922646D8ED047ABDEEE78AB8EEC87A77EEC77A17EE900A8C
:20524000FBF782F990A3D3E90023FBF7D5F9FBF783FC0DAA079008F10801002310460133A1
:2052600011F8015B02F8015B082BF8D10DF13C0A5146FCF759F9671C079B8B4901938DED50
:20528000008A53463A4648468DF84A6015F014FA98F817307E4D012B29780DF1240B40F0CF
:2052A0003381824B584603EB810115F005FA4FF4FC6306937E4B03EB441404F110030FCB2F
:2052C0008DE80F0094E80F00FCF70CF82978002840F02381754B0BA803EB810115F0ECF95E
:2052E000744B754A1B78127874498DED028A012B14BF2E232C23002A14BF43224622059250
:20530000079A684CCDE90332CDE900BA0BAB3A46484615F0D1F9069B02960193636800931F
:20532000C7EB07112D3123684A4689B20E20FEF788F8082F08F1200840F0E4802B78604A13
:2053400002EBC3025F4B06921868FBF7FDF84FF6FF77CDE90001069A5B49514815F0ACF9F9
:20536000029601976368009323684D4AB4210E20FEF767F82A7802EB820302EB4302534B42
:205380001A44534B06921868FBF7DEF8069ACDE900015049424815F08FF9CDE90176636832
:2053A000009323683E4AB4218C20FEF74AF82A7849494A4B3A481B68C2EBC2020A44484971
:2053C00015F07AF9CDE90176636800932368344AC3210E20FEF735F8424B43491A6830487A
:2053E00015F06AF9CDE901766368009323682C4AC3218220FEF725F83C4B1B78002B40F0AC
:2054000096803B49264800254FF6FF7615F074F9CDE90165636800932368214AC321C820F7
:20542000FEF70FF8334A344993680093D2E900231B4815F041F9CDE9016563680093236863
:20544000174AD2210E20FDF7FCFF2C4A2C49137A0593D37904939379039353790293137959
:205460000193D378009393780D48527815F024F9CDE90165636800932368094AE1210E20E6
:20548000FDF7DFFF2C46C2E6000000000088C340CA650020D2EE01086CEE0108DEDA010859
:2054A000B75400206C000020FCDA01080EEF0108045D0020B5620020300100200CDB010857
:2054C00033EE0108105E00202DDB01084BEE01087C5E002037DB01081EEE0108BC030020B8
:2054E00041DB0108C00300204EDB01088262002057DB0108846600206EDB0108AC660020A5
:2055000089DB01083C4691E60C4B584603EB810115F0D2F84FF6E073CBE6084B0BA803EBB4
:20552000810115F0C9F84FF478430693D8E6044968E7022918BF002469E600BF9CEE01086B
:2055400062DB01082DE9FF41624B634D1A78634F63493B78634CDFF8C881C2EBC20201EB83
:2055600042022846604915F0A7F80C234CF21861CDE901314FF4A072C82314210020009534
:20558000FFF788FC5949284615F0B6F800264FF6FF73CDE90136636800932A4623682D215D
:2055A0000620FDF74EFFB8F90000FAF7BBFF504B0022FBF74BF9FBF717FBFAF7C5FF024634
:2055C0000B4628464B4915F077F83B784A4A013B32F91320B8F900309A4270D102964FF44A
:2055E000FC630193636800932A4623682D216620FDF727FF3A78414B03EB421313F8093CA0
:20560000012B10D13E49344815F076F800234FF47842CDE90132636800932F4A23682D214E
:20562000DC20FDF70EFF4FF6FF75002663680093CDE901562368334A55210620FDF701FF8B
:2056400063680093CDE9015623682F4A69210620FDF7F7FE63680093CDE9015623682B4AD7
:205660007D210620FDF7EDFE63680093CDE901562368274A91210620FDF7E3FE6368009315
:20568000CDE901562368234AA5210620FDF7D9FE63680093CDE9015623681F4AB9210620EF
:2056A000FDF7CFFE63680093CDE9015623681B4ACD210620FDF7C5FE04B0BDE8F08103DA5C
:2056C00002964FF6E0738CE794DD02964FF6205387E700BFCA650020B7540020050000209A
:2056E000A8EE01085C000020C2DB0108CCDB010800002440D4DB010846660020045D0020D0
:20570000DBDB0108E4DB0108EEDB0108F8DB010808DC010819DC01082ADC01083FDC010836
:20572000AC5400202DE9F04F7E4C7F4D2378012B85B009D128687D4B392101FB0031C0B237
:20574000FCF75AFF00232370794B7A4F1A78012A1BD13A78784E794900241C702B6802EBA7
:20576000C20201EB420201337549304614F0A4FF0C234CF21860CDE901300096C8234FF496
:20578000A07214212046FFF785FB4CF218630021CDE901316B4C3A7863686B490093DFF8D2
:2057A000CCB12368DFF8C8A102EB02120A4405202D21FDF746FEDBF80030BBB93A7802EB91
:2057C000420102EB810229685AF82110002940F09D804FF4FC63CDE9011363680093236837
:2057E0005A490A44B4202D21FDF72BFE00264CF21868CDE901863A7863685549009302EBBD
:20580000820201EB4202236841210520FDF719FECDE901863A7863684E49009302EB4202A2
:2058200001EB4202236855210520FDF70AFE28685AF820304FF620524FF6E079B34218BFC3
:205840009146C0B2FFF732F9CDE90196636800932368394A41219F20FDF7F3FD2878FFF78A
:20586000C7F9CDE90196636800932368324A55219F20FDF7E6FDCDE9018663680093236884
:20588000354A69210520FDF7DCFDCDE90186636800932368314A7D210520FDF7D2FDFEF7F1
:2058A00019FFCDE901863A7863682D490093C2EBC202236801EB82020520A521FDF7C1FD04
:2058C000DBF800305BBB4FF62053009340F237122923B7210420FDF720FE2868214C5AF840
:2058E00020104FF620534FF6E07200290CBF11461946FFF793F82378012B04D12868FEF7DD
:20590000E1FF0023237005B0BDE8F08F4FF6E071CDE90131636800932368134961E748F2D3
:205920001043D2E7A7540020E0030020F05F00204D000020CA650020B7540020E3EC01080F
:2059400059DC01085C000020BBED010819ED0108EEED01080CEE01085FDC01086ADC010853
:2059600067ED0108A854002095EC010808000020C85F00202DE9FF41DFF82883D8F80030DD
:20598000042B54D1AE4BAF4A1B68D65C002E42D1AD4FAE4C3978AE4BAE4DC1EBC10103EBD4
:2059A0008101204614F0A8FE4FF620534FF4A072CDE900431421C82330460296FFF76AFAC7
:2059C0003978A54B01EB4101C1EBC1011944204614F092FE4CF218684FF47843CDE901833D
:2059E0006B68009322462B6878210520FDF729FD39789A4B01EB01111944204614F07CFE99
:205A0000CDE901866B6800932B682246D7210520FDF717FD05E0924B01221A60914B032263
:205A20001A70914B01221A7004B0BDE8F081864D884C29789A1E012A00F29080834E8B4BB5
:205A400001EB01111944304614F056FE00274FF620534FF4A072CDE901371421C82338465D
:205A60000096FFF717FA2978814B01EB410103EBC101304614F040FE4CF2186302970193A0
:205A8000636800932368324650210520FDF7D9FC784A2B781268012A4FEAC30340F0B380DA
:205AA00075496A48194414F027FE00264FF47843CDE90136636800932368644A782105208A
:205AC000FDF7BFFC6D4B2978604803EBC10114F0F3FD02964CF218630193636800932368A4
:205AE0005A4A78219B20FDF7ACFC654B297857481A2201FB02314CF21866002714F0FCFDD7
:205B0000CDE9016763680093504A2368A0210520FDF797FC29785B4B4C48C1EBC10103EB40
:205B2000810114F0E9FDCDE9016763680093474A2368B4210520FDF784FC29784348C1EB1B
:205B4000C10301EB8301504B194414F0D5FDCDE901676368009323683C4A57E7012B97DCD9
:205B60004A4B3A4E01EBC10103EB4101304614F0C3FD00274FF62053CDE901371421009658
:205B8000C8234FF4A0723846FFF784F92978D8F8008001EB4101C1EBC101B8F1000F0FD1AF
:205BA0003B4B3046194414F0A7FD4CF21863CDF80880019363680093236832465A2164E723
:205BC000344B4CF218681944304614F095FD0297CDF8048063680093324623685A2105203C
:205BE000FDF72FFC29782C4B01EB410103EBC101304614F081FDCDE9018763680093236871
:205C000032463C2141E725491048194414F054FD00264CF21863CDE901366368009323685A
:205C20000A4A78210520FDF70CFC1D4B2978074803EBC10114F040FD02964FF478434BE745
:205C4000E00300207D5F0020CA650020B754002094E001085C000020E8E0010827E10108F0
:205C6000C8000020D76500204D00002086DF01085AE10108EC5F00209EE20108B6E201082C
:205C8000CEE20108B9DF01083DE00108A2E10108D8E1010817E2010856E201080DE00108FD
:205CA00025E00108E85F00202DE9F043BF4DC04B2978C04A01EB810101EB810111441846D5
:205CC0009BB014F019FDBC4A1178012903460DD1002010704CF218611F22CDE9012100937C
:205CE0004FF4A072C8231421FFF7D4F82B78002B40F0B281B149AE4814F0FEFC4FF4FC63AC
:205D0000AF4C0022CDE9013263680093A84A23682D210520FDF795FB2B78012B40F0A38188
:205D2000A849A34814F0E8FC4FF4FC630022CDE90132636800939E4A236846210520FDF7A1
:205D400080FB2B78022B40F095819F49984814F0D3FC4FF4FC630026CDE901366368944AB9
:205D600000935F212368994F0520FDF76AFB984B29788F4803EBC10114F0BEFC4FF6E073BE
:205D8000019363688A4A00932D21236802969F20FDF757FB2B788F4A397803EBC3031A4488
:205DA000002940F06E818C49814814F085FC4FF4FC630022CDE9013263687D4A009346213F
:205DC00023689F20FDF73DFB3B78844A012B2B7803EBC3031A4440F05B817F49744814F057
:205DE0006BFC4FF4FC630026CDE901366368704A00935F212368DFF804929F20FDF721FB28
:205E00002978774B6A4801EB410103EB810114F073FC4FF6E073019363680093644A236899
:205E200002967D210520FDF70CFB99F80030002B40F035816B495E4814F05EFC4FF4FC63E0
:205E40000022CDE9013263680093594A236896210E20FDF7F6FA99F80030012B40F026811E
:205E60006149534814F048FC4FF4FC630026CDE9013663684E4A0093AF212368DFF88081B7
:205E80000E20FDF7DEFA2978584B494801EBC101194414F031FC4FF6E0730193636800936D
:205EA000434A236802967D219F20FDF7CAFA98F80030002B40F001814D493D4814F01CFC49
:205EC0004FF4FC630022CDE9013263680093384A236896219F20FDF7B4FA98F80030012BA6
:205EE00040F0F2804349324814F006FC4FF4FC630026CDE9013663682D4A0093AF2123680F
:205F00009F20FDF79EFA162398222A2104200096FDF703FB16239822432104200096FDF747
:205F2000FCFA162398225C2104200096FDF7F5FA16239822932104200096FDF7EEFA1623E8
:205F40009822AC2104200096FDF7E7FA16239B2243219C200096FDF7E0FA16239B225C213E
:205F60009C200096FDF7D9FA16239B2293219C200096FDF7D2FA16239C2000969B22AC2137
:205F8000FDF7CBFA1C4B1878002840F0A4804FF478430093982216232A210420FDF7BDFA37
:205FA00029780348C1EBC1032CE000BFCA650020B754002057E401084D00002078DC010832
:205FC0005C00002090DC0108A8DC0108B3620020A2E4010850E50108C4DC01086BE501083F
:205FE000BAE40108D2DC0108E4DC0108DEE40108F6DC010804DD0108CC650020B562002062
:206000003001002001EB8301584B194414F074FB4CF218630022CDE901326368544A00938C
:20602000D22123680320FDF70CFA04A8FCF77DFE3B788DF8153099F800308DF8163098F812
:2060400000308DF8173004A82B788DF81830FCF7C3FD1BB0BDE8F0834649454814F04CFB2B
:206060004CF218634CE64449414814F045FB4CF218635BE641493E4814F03EFB4CF21863DB
:2060800069E63F493A4814F017FB4CF2186390E63B49374814F010FB4CF21863A3E639498C
:2060A000334814F029FB4CF21863C9E63649304814F022FB4CF21863D8E634492C4814F051
:2060C0001BFB4CF21863FDE63149294814F014FB4CF218630CE7012806D14FF478430093D3
:2060E00098221623432158E7022806D14FF478430093982216235C214FE7032806D14FF48D
:206100007843009398221623932146E7042806D14FF47843009398221623AC213EE70528B7
:2061200007D14FF4784300939B22162343219C2034E7062806D14FF4784300939B22162339
:206140005C21F4E7072806D14FF4784300939B2216239321EBE708287FF422AF4FF4784362
:2061600000939B221623AC21E1E700BFF9E40108B754002084DC01089CDC0108B6DC0108AC
:20618000CBDC0108DBDC0108EDDC0108FDDC01080BDD01081FB50F4A0F4912780F4B104C25
:2061A0001B68C2EB0210014400910E49013301EBC20220460C4914F07FFA00201F23CDE93C
:2061C00001300094C8234FF4A0721421FEF762FE04B010BDCA65002034E30108E00300203D
:2061E000B75400201CE3010812DD0108000000002DE9F04F044687B0002840F09B80012208
:20620000114696480AF0C0F8954B1A78012A40F08880944E1C7005F0DFFC934B934A9449EC
:20622000944F954D304614F047FA4CF2186E0C23CDE9013E4FF4A072C82314212046009685
:20624000FEF728FE3A788D4902EB820205EB4202304614F031FA3B78894A03EB830305EB67
:2062600043051470234615F8011B00294BD104B1137000241F23CDE90134824D794A6B688D
:2062800000932B68804EDA210120FDF7DAF83A78347002EBC2037D4A1A441146234611F832
:2062A000010B002836D104B1337074496D4814F003FA774A1378012B0BD100231370327834
:2062C000072A06D800936E221223DA21D120FDF7F1F83078634A0230C0EB003300EB8303B8
:2062E00000EB830000241F23CDE901346B68009300F23F102B68DA2180B2FDF7A2F80020CA
:2063000007B0BDE8F08F0133DBB20A2B4FF00104A9D1ADE70133DBB2092B4FF00104BED192
:20632000C2E70094C82307222A2140F23510FDF7C1F8E4E7012807D10C23AF22282140F256
:206340003110FDF7DDF8DAE7022807D10C234FF4A072D7210020FDF7C7F8D0E74D4B0328A7
:2063600093F8008040F0F28008F10803DBB20593494B4A4F434CDFF8EC9003EB880A1C227A
:206380006FF0DF0312FB0833464607EB481704932D25059BB342B2DD414B1A78A6EB0803D0
:2063A0009A4240F08780072E48DCF0B2FEF79AFC00234FF4FC6CCDE9013C6368009323689A
:2063C0004A4629460520FDF73CF8072E2CDC3B7F0BB97B7F63B100234FF4FC60CDE90130FF
:2063E0006368009323682F4A29461B20FDF729F8DAF80030C3B100234FF4FC6BCDE9013B47
:20640000636800932368284A29462620FDF719F8CDF808B000230193636800932368234ADD
:2064200029465220FDF70DF8049B15351C330136ADB20AF1040A20370493AAE70D4B049A36
:206440001978E02313FB012319494846194414F053F91B214846FEF705FDA9E70010024036
:206460004D000020B75400201BDD010826DD010836DD0108CA6500209CE801083EDD01085B
:20648000625400205C00002061540020E1E50108D10300200F660020A85F0020045D0020D5
:2064A0000E66002043DD010845DD010847DD0108FCE50108072E39DCF0B2FEF713FC48F2B3
:2064C00010430021CDE901316368009323684A4629460520FCF7B5FF072EA5DC3B7F0BB978
:2064E0007B7F63B14FF620530022CDE901326368009323682A4A29461B20FCF7A2FFDAF85E
:206500000030012B90D14FF620534FF0000BCDE9013B636800932368224A29462620FCF7CD
:2065200090FFCDF808B04FF6205374E71E4B049A1978E02313FB01231C494846194414F01B
:20654000DBF81B214846FEF78DFCB8E7042818D1174B1878404407EE900AF8EEE77A17EE1B
:20656000900AF9F7F1FF0CA3D3E90023FAF744F8FAF71AFB0C23C1B20093072264232A31A0
:20658000D3E605287FF4BBAE0A480022012109F0FBFE0120B4E600BF66666666666614407F
:2065A00043DD010845DD0108CA650020FCE501080E660020001002402DE9F3470A28344F63
:2065C000DFF8DC808246054628BF4FF00A0A3B78012B28D098F80030012B24D000230093CE
:2065E00040F23912142391210320FCF763FF294B1B78022B1BD1284B1B78DBB1274B1B6816
:20660000072B0CBF4FF00C094FF01F090026B245544615DC092D03D842F20415092C25DD85
:2066200002B0BDE8F0870020FDF7CCF8CFE742F20419EBE74FF00C09E8E70020FDF7C2F8EA
:206640003B78012BF9D098F80030012BF5D070010330CDF8009014231922912180B2FCF79F
:2066600029FF0136D3E70020FDF7ACF83B78012BF9D098F80030012BF5D0600103300095C7
:2066800014231922912180B2FCF714FF0134C5E7D56500203E670020B6620020A4A50020FD
:2066A000845E0020F0B5A44B1B6885B0002B63D0A249A34814F020F800224FF47844CDE965
:2066C0000124A04B5A6800921B689D4A78210320FCF7B7FE9C4A9D491378009353789C48EF
:2066E00092789B4D13F0E8FF00239A4A2846194612F8016B10F8014B0133A6421CBF02F82F
:20670000014C0121082BF3D1002932D0924E934C3378012B00F09A812378012B00F0968179
:206720008F4B90491A788648854E8F4F02EB420302EB83028D4B1A4413F0BEFF002480480F
:20674000F9F746FD013415F8012B3946304413F0B3FF082CF3D14CF218620021CDE9012147
:20676000784B5A6800921B68754AB4210320FCF768FE012005B0F0BD7D4D2B78002B5AD02A
:20678000774A632B12784BD07A496D4C02EB420201EB42022046784913F08EFF2B78012BA2
:2067A00005D12046F9F714FD7449204482E7022B04D12046F9F70CFD7149F6E70E2B04D805
:2067C00044F64812DA40D6070FD41A1FD2B2082A10D840F22B1121FA02F2D50740F13A812F
:2067E0005748F9F7F5FC6749DFE72046F9F7F0FC6549DAE70D2B04D15148F9F7E9FC6349CB
:20680000D3E70F2B04D14E48F9F7E2FC6049CCE7102B7FF451AF4A48F9F7DAFC5D49C4E798
:2068200002EB420302EB83025B4B5C4944481A4413F042FF40E75A4A1278022A40F0F58015
:20684000584E3368002B00F0DA80574A1488574A127812B9002C00F0D280072B3E4D2DD126
:206860003E4E2B78012B5FD03378012B5CD03C4B4F491A78324802EB820302EB43024D4B24
:2068800000251A4413F018FF1223DC22009578215B20FCF70FFE1F222A4B029501925A68DD
:2068A000009203201B68264A7821FCF7CAFDE0B20A2828BF0A20FFF77FFE0BE7274F2B788A
:2068C000012B35D03B78012B32D00023009340F23712142378210320FCF7ECFD2B78012BD7
:2068E00072D03B78012B6FD033681D4A032B127873D13149314B09781B68012968D0304965
:2069000001EBC2022F490E4813F0D6FE00251223DC22009578215B20FCF7CCFD4FF6E072CE
