:020000040800F2
:200000000000022011F4000835E800084DE8000869E8000881E8000899E8000800000000FC
:20002000000000000000000000000000B1E80008B3E8000800000000B5E80008CDE800081A
:2000400061F4000861F4000861F4000861F4000861F4000861F400087DE9000861F40008A7
:2000600061F4000861F4000861F4000861F4000861F4000861F4000861F4000861F4000898
:2000800061F4000861F40008A1E9000861F4000861F4000861F4000861F4000883E900082C
:2000A00061F4000861F4000861F4000861F4000861F4000861F4000861F4000861F4000858
:2000C00061F4000861F4000861F4000861F4000861F40008ADE9000861F4000861F40008F7
:2000E00097E9000861F4000861F4000861F4000861F4000861F4000861F4000861F40008ED
:2001000061F4000861F4000861F4000861F4000861F4000861F4000861F40008B9E90008AA
:2001200061F4000861F4000861F4000861F4000861F4000861F4000861F4000861F40008D7
:2001400061F4000861F4000861F4000811EA000861F4000861F4000861F4000861F4000811
:2001600061F4000861F4000861F4000861F4000861F400081DEA000861F400080000000042
:2001800061F4000861F40008FFFFFFFFFFFFFFFF10B5054C237833B9044B13B10448AFF30F
:2001A00000800123237010BD600300200000000090CB010808B5034B1BB103490348AFF344
:2001C000008008BD000000006403002090CB0108034613F8012B002AFBD1181A0138704757
:2001E00001F0FF01102A2BDB10F0070F08D010F8013B013A8B422DD010F0070F42B3F6D1C5
:20020000F0B441EA012141EA014122F007047FF000070023F0E80256083C85EA010586EA71
:20022000010685FA47F5A3FA87F586FA47F6A5FA87F68EB9EED1F0BC01F0FF0102F007026C
:2002400032B110F8013B013A83EA010313B1F8D10020704701387047002D06BF35460338CF
:20026000073815F0010F07D1013015F4807F02BF013015F4C03F0130F0BC0138704700BF93
:2002800081F0004102E000BF83F0004330B54FEA41044FEA430594EA050F08BF90EA020F8D
:2002A0001FBF54EA000C55EA020C7FEA645C7FEA655C00F0E2804FEA5454D4EB5555B8BF63
:2002C0006D420CDD2C4480EA020281EA030382EA000083EA010180EA020281EA0303362D1A
:2002E00088BF30BD11F0004F4FEA01314FF4801C4CEA113102D0404261EB410113F0004F84
:200300004FEA03334CEA133302D0524263EB430394EA050F00F0A780A4F10104D5F1200EC1
:200320000DDB02FA0EFC22FA05F2801841F1000103FA0EF2801843FA05F359410EE0A5F109
:2003400020050EF1200E012A03FA0EFC28BF4CF0020C43FA05F3C01851EBE37101F0004515
:2003600007D54FF0000EDCF1000C7EEB00006EEB0101B1F5801F1BD3B1F5001F0CD349088F
:200380005FEA30004FEA3C0C04F101044FEA445212F5800F80F09A80BCF1004F08BF5FEA6E
:2003A000500C50F1000041EB045141EA050130BD5FEA4C0C404141EB0101013C28BFB1F5E7
:2003C000801FE9D291F0000F04BF01460020B1FA81F308BF2033A3F10B03B3F120020CDA82
:2003E0000C3208DD02F1140CC2F10C0201FA0CF021FA02F10CE002F11402D8BFC2F1200C96
:2004000001FA02F120FA0CFCDCBF41EA0C019040E41AA2BF01EB0451294330BD6FEA0404CF
:200420001F3C1CDA0C340EDC04F11404C4F1200220FA04F001FA02F340EA030021FA04F320
:2004400045EA030130BDC4F10C04C4F1200220FA02F001FA04F340EA0300294630BD21FA3E
:2004600004F0294630BD94F0000F83F4801306BF81F480110134013D4EE77FEA645C18BF1C
:200480007FEA655C29D094EA050F08BF90EA020F05D054EA000C04BF1946104630BD91EA56
:2004A000030F1EBF0021002030BD5FEA545C05D14000494128BF41F0004130BD14F58004B3
:2004C0003CBF01F5801130BD01F0004545F0FE4141F470014FF0000030BD7FEA645C1ABF2F
:2004E000194610467FEA655C1CBF0B46024650EA013406BF52EA033591EA030F41F400211E
:2005000030BD00BF90F0000F04BF0021704730B54FF4806404F132044FF000054FF000014A
:2005200050E700BF90F0000F04BF0021704730B54FF4806404F1320410F0004548BF404296
:200540004FF000013EE700BF42004FEAE2014FEA31014FEA02701FBF12F07F4393F07F4F10
:2005600081F06051704732F07F4208BF704793F07F4F04BF41F40021704730B54FF4607424
:2005800001F0004521F000411CE700BF50EA010208BF704730B54FF000050AE050EA010206
:2005A00008BF704730B511F0004502D5404261EB41014FF4806404F132045FEA915C3FF4F0
:2005C000D8AE4FF003025FEADC0C18BF03325FEADC0C18BF033202EBDC02C2F1200300FA3C
:2005E00003FC20FA02F001FA03FE40EA0E0021FA02F11444BDE600BF70B54FF0FF0C4CF445
:20060000E06C1CEA11541DBF1CEA135594EA0C0F95EA0C0F00F0DEF82C4481EA030621EAF1
:200620004C5123EA4C5350EA013518BF52EA033541F4801143F4801338D0A0FB02CE4FF074
:200640000005E1FB02E506F00042E0FB03E54FF00006E1FB03569CF0000F18BF4EF0010E9E
:20066000A4F1FF04B6F5007F64F5407404D25FEA4E0E6D4146EB060642EAC62141EA555161
:200680004FEAC52040EA5E504FEACE2EB4F1FD0C88BFBCF5E06F1ED8BEF1004F08BF5FEA36
:2006A000500E50F1000041EB045170BD06F0004646EA010140EA020081EA0301B4EB5C04E5
:2006C000C2BFD4EB0C0541EA045170BD41F480114FF0000E013C00F3AB8014F1360FDEBFC7
:2006E000002001F0004170BDC4F10004203C35DA0C341BDC04F11404C4F1200500FA05F347
:2007000020FA04F001FA05F240EA020001F0004221F0004110EBD37021FA04F642EB0601A1
:200720005EEA430E08BF20EAD37070BDC4F10C04C4F1200500FA04F320FA05F001FA04F24F
:2007400040EA020001F0004110EBD37041F100015EEA430E08BF20EAD37070BDC4F1200516
:2007600000FA05F24EEA020E20FA04F301FA05F243EA020321FA04F001F0004121FA04F2B9
:2007800020EA020000EBD3705EEA430E08BF20EAD37070BD94F0000F0FD101F0004640005B
:2007A00041EB010111F4801F08BF013CF7D041EA060195F0000F18BF704703F000465200BD
:2007C00043EB030313F4801F08BF013DF7D043EA0603704794EA0C0F0CEA135518BF95EA39
:2007E0000C0F0CD050EA410618BF52EA4306D1D181EA030101F000414FF0000070BD50EA3C
:20080000410606BF1046194652EA430619D094EA0C0F02D150EA013613D195EA0C0F05D178
:2008200052EA03361CBF104619460AD181EA030101F0004141F0FE4141F470014FF00000E2
:2008400070BD41F0FE4141F4780170BD70B54FF0FF0C4CF4E06C1CEA11541DBF1CEA135570
:2008600094EA0C0F95EA0C0F00F0A7F8A4EB050481EA030E52EA03354FEA013100F08880CB
:200880004FEA03334FF0805545EA131343EA12634FEA022245EA111545EA10654FEA002629
:2008A0000EF000419D4208BF964244F1FD0404F5407402D25B084FEA3202B61A65EB0305CC
:2008C0005B084FEA32024FF480104FF4002CB6EB020E75EB030E22BFB61A754640EA0C0042
:2008E0005B084FEA3202B6EB020E75EB030E22BFB61A754640EA5C005B084FEA3202B6EBA3
:20090000020E75EB030E22BFB61A754640EA9C005B084FEA3202B6EB020E75EB030E22BF51
:20092000B61A754640EADC0055EA060E18D04FEA051545EA16754FEA06164FEAC30343EA5D
:2009400052734FEAC2025FEA1C1CC0D111F4801F0BD141EA00014FF000004FF0004CB6E7B0
:2009600011F4801F04BF01430020B4F1FD0C88BFBCF5E06F3FF6AFAEB5EB030C04BFB6EB12
:20098000020C5FEA500C50F1000041EB045170BD0EF0004E4EEA113114EB5C04C2BFD4EB50
:2009A0000C0541EA045170BD41F480114FF0000E013C90E645EA060E8DE60CEA135594EA21
:2009C0000C0F08BF95EA0C0F3FF43BAF94EA0C0F0AD150EA01347FF434AF95EA0C0F7FF438
:2009E00025AF104619462CE795EA0C0F06D152EA03353FF4FDAE1046194622E750EA410659
:200A000018BF52EA43067FF4C5AE50EA41047FF40DAF52EA43057FF4EBAE12E74FF0FF3CE3
:200A200006E000BF4FF0010C02E000BF4FF0010C4DF804CD4FEA410C7FEA6C5C4FEA430C83
:200A400018BF7FEA6C5C1BD001B050EA410C0CBF52EA430C91EA030F02BF90EA020F00201C
:200A6000704710F1000F91EA030F58BF994208BF90422CBFD8176FEAE37040F00100704729
:200A80004FEA410C7FEA6C5C02D150EA013C07D14FEA430C7FEA6C5CD6D152EA033CD3D0FF
:200AA0005DF8040B704700BF8446104662468C461946634600E000BF01B5FFF7B7FF002891
:200AC00048BF10F1000F01BD4DF808EDFFF7F4FF0CBF012000205DF808FB00BF4DF808EDC1
:200AE000FFF7EAFF34BF012000205DF808FB00BF4DF808EDFFF7E0FF94BF012000205DF8D4
:200B000008FB00BF4DF808EDFFF7CEFF94BF012000205DF808FB00BF4DF808EDFFF7C4FF78
:200B200034BF012000205DF808FB00BF4FEA410C7FEA6C5C02D150EA013C0AD14FEA430C06
:200B40007FEA6C5C02D152EA033C02D14FF0000070474FF0010070474FEA410212F50012C1
:200B600015D211D56FF47873B3EB625212D94FEAC12343F0004343EA505311F0004F23FA4D
:200B800002F018BF404270474FF00000704750EA013005D111F0004008BF6FF000407047BE
:200BA0004FF00000704700BF4A0011D212F5001211D20DD56FF47873B3EB62520ED44FEABA
:200BC000C12343F0004343EA505323FA02F070474FF00000704750EA013002D14FF0FF3083
:200BE00070474FF0000070474FEA4102B2F1E04324BFB3F5001CDCF1FE5C0DD901F0004C15
:200C00004FEAC0024CEA5070B2F1004F40EB830008BF20F00100704711F0804F21D113F1EE
:200C20003872BCBF01F00040704741F480114FEA5252C2F11802C2F1200C10FA0CF320FA35
:200C400002F018BF40F001004FEAC1234FEAD32303FA0CFC40EA0C0023FA02F34FEA430382
:200C6000CCE77FEA625307D150EA01331EBF4FF0FE4040F44000704701F0004040F0FE4039
:200C800040F40000704700BF53B94AB9002908BF00281CBF4FF0FF314FF0FF3000F074B9AE
:200CA000ADF1080C6DE904CE00F006F8DDF804E0DDE9022304B070472DE9F047089D044621
:200CC0008E46002B4DD18A42944669D9B2FA82F252B101FA02F3C2F1200120FA01F10CFA16
:200CE00002FC41EA030E94404FEA1C48210CBEFBF8F61FFA8CF708FB16E341EA034306FB6B
:200D000007F199420AD91CEB030306F1FF3080F01F81994240F21C81023E63445B1AA4B27E
:200D2000B3FBF8F008FB103344EA034400FB07F7A7420AD91CEB040400F1FF3380F00A8170
:200D4000A74240F207816444023840EA0640E41B00261DB1D4400023C5E900433146BDE867
:200D6000F0878B4209D9002D00F0EF800026C5E9000130463146BDE8F087B3FA83F6002E8F
:200D80004AD18B4202D3824200F2F980841A61EB030301209E46002DE0D0C5E9004EDDE7D5
:200DA00002B9FFDEB2FA82F2002A40F09280A1EB0C014FEA1C471FFA8CFE0126200CB1FB38
:200DC000F7F307FB131140EA01410EFB03F0884208D91CEB010103F1FF3802D2884200F22C
:200DE000CB804346091AA4B2B1FBF7F007FB101144EA01440EFB00FEA64508D91CEB04049B
:200E000000F1FF3102D2A64500F2BB800846A4EB0E0440EA03409CE7C6F12007B34022FAF9
:200E200007FC4CEA030C20FA07F401FA06F31C43F9404FEA1C4900FA06F3B1FBF9F8200C6F
:200E40001FFA8CFE09FB181140EA014108FB0EF0884202FA06F20BD91CEB010108F1FF3A78
:200E600080F08880884240F28580A8F102086144091AA4B2B1FBF9F009FB101144EA01410E
:200E800000FB0EFE8E4508D91CEB010100F1FF346CD28E456AD90238614440EA0840A0FB2A
:200EA0000294A1EB0E01A142C846A64656D353D05DB1B3EB080261EB0E0101FA07F722FAB2
:200EC00006F3F1401F43C5E9007100263146BDE8F087C2F12003D8400CFA02FC21FA03F3AB
:200EE000914001434FEA1C471FFA8CFEB3FBF7F007FB10360B0C43EA064300FB0EF69E4255
:200F000004FA02F408D91CEB030300F1FF382FD29E422DD9023863449B1B89B2B3FBF7F673
:200F200007FB163341EA034106FB0EF38B4208D91CEB010106F1FF3816D28B4214D9023E2E
:200F40006144C91A46EA004638E72E46284605E70646E3E61846F8E64B45A9D2B9EB02089C
:200F600064EB0C0E0138A3E74646EAE7204694E74046D1E7D0467BE7023B614432E73046E0
:200F800009E76444023842E7704700BF70B500258EB004462422294605A8049518F0F4FA1D
:200FA00042238DF800304D238DF801302A4BCDF80A501B688DF802301A0A8DF803201A0C31
:200FC0001B0E8DF804208DF80530F02236238DF80A308DF81820282318228DF810308DF8CF
:200FE0001E2040232C22C4218DF814308DF8252001230E228DF815308DF81C308DF82630C0
:201000008DF829208DF82D208DF83130CDF806508DF828108DF82C106A46234602AE15468D
:2010200003CDB542186059602A4603F10803F6D128681860AA889A8004AD04F10E030EACBD
:201040002A4603CAA24218605960154603F10803F6D10EB070BD00BF0000002037B5094C12
:201060000190656810F0FCFA019B074AB0FBF2F0584301906368019A5B1B9342FAD303B045
:2010800030BD00BF001000E040420F0030B587B004460D461422002101A818F075FA294684
:2010A000204601220EF03AFF11220023CDE9022301A903232046019504930EF0B7FD07B073
:2010C00030BD30B587B004460D461422002101A818F05AFA0122294620460EF01FFF0023D7
:2010E00001A92046CDE9023301950EF09FFD07B030BD00002DE9F84F254B264F93F80080D4
:2011000000263546F3B298450BD8234B187809F0F9FB1DB101200AF075F801252846BDE84F
:20112000F88F07EB43124FEA431AD17D69B301249C40E0B209F0E6FB4FF08C0B002002F08C
:2011400009FBBBF1010BF9D107EB0A0957F80A00B9F80410FFF7B5FFB9F8041057F80A001E
:201160000EF0D6FE0C4A63B2147828B12343137089F81AB00136C5E724EA030313700123FB
:201180001D4489F81A30EDB2F4E79176F2E700BF86220208045D0020E45C002008B505486D
:2011A000012280210EF0BAFE09F0D4FBBDE80840FFF7A0BF001002407FB50C4604A901E93C
:2011C0000C001646BDF80C1001910546002230460EF0A4FE2846FFF741FF304601990122EA
:2011E0000EF09CFE204604B0BDE87040FFF736BF82B06B4683E806000CCB20B905213C2077
:2012000002B0FFF7D9BF3C210520F9E773B56D4685E806000646002446FA04F095E80600B7
:2012200000F001000134FFF7E3FF082CF4D102B070BD30B585B002AB83E803000A210CCBA1
:201240000120FFF7B9FF029DBDF80C1001912846FFF737FF019928460EF05AFE0446282033
:20126000FFF7FCFE28460199FFF710FF201E18BF012005B030BD73B56E4686E80300002527
:201280002C4696E80300FFF7D4FFA84001350444082DE4B2F5D1204602B070BD30B585B03C
:2012A00002AB83E8030046210CCB4FF4FA70FFF783FF029DBDF80C1001912846FFF701FF4A
:2012C000019928460EF024FE019904462846FFF7DDFE4FF4C870FFF7C1FEB4FA84F0400928
:2012E00005B030BD84B008B50DF1080C8CE80F00DCE90001FFF7D2FFBDE80840013818BF3C
:20130000012004B0704784B007B50DF1100C8CE80F00DCE90001FFF7C1FF01281BD104AB74
:2013200093E80600CC20FFF771FF04AB93E806004420FFF76BFF04AA92E803006B4683E89F
:201340000300FFF798FF003818BF012003B05DF804EB04B070470120F8E7000008B54378F3
:20136000007800EB0320DB0980B20CD0404280B2FFF7D8F8064B0022FFF73EF9FFF734FCB5
:2013800000EE100A08BDFFF7CDF8024B0022F3E70000B0BF0000B03F73B56C4684E80600D2
:2013A000054694E80300FFF779FFE0B194E80600CC20FFF72BFF94E80600BE20FFF726FF5B
:2013C0006E1E083594E80300FFF755FF06F8010FAE42F7D194E80300FFF760FFB0FA80F0C7
:2013E000400902B070BD0120FBE737B56C4684E80600054694E80300FFF750FF10B90120B9
:2014000003B030BD94E80600CC20FFF7FFFE94E806004E20FFF7FAFE94E80600A878FFF755
:20142000F5FE94E80600E878FFF7F0FE94E806002879FFF7EBFE94E80300FFF72FFF002826
:20144000DDD094E80600CC20FFF7E0FE94E806004820FFF7DBFE142002F07CF90020CFE773
:2014600010B586B06B4683E80600002204468DF8102003A893E80600FFF78EFFA0B99DF891
:2014800010301F2B03D10923237006B010BD3F2B01D10A23F8E75F2B01D10B23F4E77F2B55
:2014A00001D10C23F0E720700120EEE730B587B06D4685E806000446002395E806000DF19E
:2014C0000B008DF80B30FFF7CBFF10B1012007B030BD9DF80B30A342F9D0092C1ED00A2C24
:2014E0001ED00B2C1ED00C2C0CBF7F231F2395E8060003A88DF81030FFF777FF0028E5D1B5
:2015000095E806000DF10B00FFF7AAFF0028DDD19DF80B30181B18BF0120D8E71F23E6E701
:201520003F23E4E75F23E2E730B593B0C3790493837903934379029303790193C378009377
:201540000DAD0C46837842781649284618F022FE95E803009DF83F308DF82E309DF8403069
:201560008DF81C309DF84130BDF83D2008908DF81D30DDF839008DF8241007AB00250A90E0
:20158000ADF82C20009308498DF825500AAB08AA20468DF82F508DF81F5018F0FBFDA5739F
:2015A00013B030BDE1CB0108FECB010870B40379C67944790A46817946EA036643F3C0156A
:2015C0002404C37844EA012481782B44457803EB012144EA060001EB054170BC0CF0CABD0B
:2015E00030B50246014400208A4200D130BD12F8015B082480EA050313F0010F4FEA50002F
:201600001CBF80F08C03D8B2631E13F0FF044FEA5505EFD1E8E7000070B52DED028B424A65
:2016200086B0516804461068127A03AB03C394E803001A7001AB83E80300B0EE408AFFF778
:201640001AFE08B9012548E094E80300FFF726FE0028F7D094E80600CC20FFF7D7FD94E827
:201660000600BE20FFF7D2FD03AE092594E80300FFF701FE013D15F0FF0506F8010BF5D157
:20168000082103A8FFF7ACFF9DF81430834244D19DF80D309DF80C00DE0900EB032080B288
:2016A00020D0404280B2FEF73DFF204B0022FEF7A3FFFFF799FA07EE900A37EE880A10EE64
:2016C000100A84ED040AFEF73FFF194B0022FEF793FFFFF769FA4042A082284606B0BDEC67
:2016E000028B70BDFEF71EFF124B0022FEF784FFFFF77AFA07EE900A37EE880A354610EEFE
:20170000100A84ED040AFEF71FFF094B0022FEF773FFFFF749FAA082DFE7074818F086FC46
:201720000A2018F09BFC8DE7A8CB01080000B0BF000030400000B03F05CC0108F0B58BB068
:2017400006AD85E80600244A0646D2F80D10D2F8090008AB03C395E80300FFF79FFD00283C
:2017600038D095E806003320FFF750FD08AF082495E80300FFF77FFD013C14F0FF0407F830
:20178000010BF5D1072108A8FFF72AFF9DF82730834206D108AB03CB3060716020460BB0F5
:2017A000F0BD04939DF8263003939DF8253002939DF8243001939DF8233000939DF8212017
:2017C0009DF822309DF82010044818F02FFC0A2018F044FC0124E1E7A8CB010827CC010807
:2017E0002DE9F04F2DED028BB24B1B7891B0012B05900C4602D1B04810F006FB059B23F08A
:201800000203012B40F0AC80DFF8C8A2DFF8C8B2254626464FF00008B446BCE80F0008AF27
:201820000FC79CE80F0087E80F0008AF97E80300FFF734FD012836D106F11B0996E8060092
:201840004846FFF70DFE96E806004846FFF708FEF37E9AF800209A4225D0FF2B06D1974817
:20186000414618F0E3FB0A2018F0F8FB4FF00A099AF80000F37E834215D096E8060009F159
:20188000FF39FFF713FE19F0FF0903D0002001F061FFEDE7F27E08F10101584618F0C6FB0E
:2018A0000A2018F0DBFB08F10108B8F1080F06F12006B1D104F580734FF0000B0693D946D1
:2018C000069B9D420AD1059B032B40F09C800025284611B0BDEC028BBDE8F08F4FF00A0A92
:2018E0004FF0020805F1100696E80F008DE80F0095E80F00FFF7F6FCAE46BEE80F00BC4663
:20190000ACE80F0096E80F008CE80F0097E80300FFF7C4FC012805D0EB7D85F816905BB93F
:201920002035CDE7A87596E80F008DE80F0095E80F00FFF7E8FC8046BAF1010AEB7D09D04D
:20194000012B03D185F8189085F81E90B8F1000FCAD1E5E7012BE3D12B76AB779B46DFE7CE
:20196000059B002B4DD109F02BFCDDF814B0DFF86CA19FED538A083401260025A4F1080350
:2019800007930223002706930DF12008A37B0BB3A4F1080EBEE80F000DF1200CACE80F0099
:2019A0009EE80F008CE80F0098E80300FFF776FC0128814641D0002323606360E37B002B31
:2019C00054D1DFF81C910A274FF00208A37B002B40F08880E37B012B00D123740136092E03
:2019E0000AF1020A04F12004C8D1059B7BB9002D3FF46DAF334818F019FB0A2018F02EFBEC
:201A000066E74FF0000B059B022BB0D00025294B1B78012B02D1284810F0E6F9002D3FF408
:201A200056AFBBF1000F3FF452AF274818F0FEFA0A2018F013FB5D464AE7079B404693E88C
:201A40000600FFF77BFEC0B13946204818F0EEFA0A2018F003FB00220698A28184ED028AB9
:201A600084F8109084F815904D460690092F0FD0069B0137002B89D1A3E760754146E31DA5
:201A800011F8012B1A70A34203F1FF33F8D1ECE7E77B012F95D131460D4818F0C7FA0A2029
:201AA00018F0DCFA0023A38184ED028A27746775BB4686E7C06500200065002065CC01081B
:201AC00000000000D8CC0108E9CC01089CCC0108B3CC01087400002081CC01083E660020F4
:201AE00030010020BAF90000FEF71CFD204B0022FEF7ACFEFFF778F800EE100A0798FFF7A5
:201B00008BFDA37B002818BF0125012B1CD199F80030D4ED027A012B0BD0B2EE027A67EE6B
:201B2000877AF1EE046A87EEA67ADFED127A77EE277AC4ED027A4FF00008013F0AD0B8F12D
:201B4000000F7FF443AF49E7E37B84ED028A002BF3D143E7E77B012F7FF440AF31460648B4
:201B600018F064FA0A2018F079FABB46277435E70000244000000042C3CC010808B50B4854
:201B80000B4A0C4BC0E9002300234FF48042C0E90233C0E90423C0E9063303620EF0FAFEBA
:201BA00018B1BDE808400AF013B908BD9C63002000540040A086010070B50E4D0E4E0446E4
:201BC000012086B028703078012808D00A98009020460EF0A1FF00232B7006B070BD002076
:201BE000CDE90423039101F0B5FDDDE904230399E9E700BF33660020845E002070B50E4D7E
:201C00000E4E0446012086B028703078012808D00A98009020460FF057F800232B7006B02C
:201C200070BD0020CDE90423039101F093FDDDE904230399E9E700BF33660020845E002092
:201C4000030903EB830300F00F0000EB4300C0B270470A23B0FBF3F3C3EB4312C3EB8202BB
:201C600000EB420040EA0310C0B2704710B5052386B0044602223E48D0210FF095F950B13B
:201C80003C4818F0D3F90A2018F0E8F9FFF776FF012006B010BD8DF810002078FFF7D9FFCF
:201CA0008DF811006078FFF7D4FF8DF81200A078FFF7CFFF8DF81300E078FFF7CAFF8DF846
:201CC00014002079FFF7C5FF8DF815006079FFF7C0FF8DF81600A079FFF7BBFF64238DF805
:201CE000170000932248082304AAD021FFF764FF08B12148C5E702A800F042F808B11F48EB
:201D0000BFE79DF80900237862789DF808108B4208BF8242A2789DF80A300CBF0120002010
:201D20009A4214BF002000F00100A2799DF80E309A4214BF002000F0010062799DF80D3088
:201D40009A4214BF002000F0010022799DF80C309A4214BF002000F00100E2789DF80B306D
:201D60009A4214BF002000F0010080F0010090E79C630020FFCC01082CCD010847CD0108A9
:201D80002DE9F043052389B0044602225D48D0210FF00AF9B0B1FFF7F1FE642001F0DAFC02
:201DA000584805230222D0210FF0FEF850B1564818F03CF90A2018F051F90122104609B0C7
:201DC000BDE8F08364254F4F2E46009601230022D0213846FFF7F0FE40B14C4818F026F975
:201DE0000A2018F03BF9FFF7C9FEE6E702AA00960723D0213846FFF701FF024608B1444895
:201E0000ECE700960123D0213846FFF7D5FE08B14048E3E704AA00960723D0213846FFF71F
:201E2000EDFE024608B13C48D8E7844602A904AB012011F8018B13F801EB0CF1010CF04563
:201E400018BF0020BCF1070FF3D1013D01D00028BBD09DF80800FFF7F3FE804620709DF8D3
:201E60000900FFF7EDFE814660709DF80A00FFF7E7FE0146A0709DF80B00FFF7E1FE07464E
:201E8000E0709DF80C00FFF7DBFE064620719DF80D00FFF7D5FE607105469DF80E00FFF785
:201EA000CFFEB9F13B0F98BF17298CBF01210021B8F13B0F88BF41F00101013F062F88BF13
:201EC00041F00101013E1E2E88BF41F00101A07119B9013D0B2D7FF671AF0023012406A8E6
:201EE0008DF818308DF819308DF81A308DF81B408DF81C408DF81D408DF81E30FFF7B6FE58
:201F000022465BE79C63002062CD01082CCD010891CD0108AFCD0108CACD01081FB56423D7
:201F20008DF80C008DF80D1000930948022303AAD021FFF741FE40B1064818F077F80A20B2
:201F400018F08CF8FFF71AFE012005B05DF804FB9C630020E8CD010830B585B0FA250C4655
:201F60008DF8080000951048012302AAD021FFF723FE50B10D4818F059F80A2018F06EF8C8
:201F8000FFF7FCFD012005B030BD07480095012303AAD021FFF732FE08B10548EBE79DF856
:201FA0000C302370EFE700BF9C630020E8CD01080CCE01082DE9F3410646084617461D4659
:201FC000FFF747FE04463846FFF743FE80462846FFF73FFE07469DF82000FFF73AFEF20737
:201FE00044BF64F07F04E4B2B30748BF68F07F08054648BF5FFA88F8700744BF67F07F074F
:20200000FFB2310744BF65F07F05EDB2F20644BF45F04005EDB2330623D421460720FFF794
:202020007DFF48B1314818F001F80A2018F016F8012002B0BDE8F0810DF107010720FFF765
:202040008BFF08B12A48EEE79DF80700041B18BF0124082641463046FFF760FF20B1254881
:20206000E1E700240B26F5E70DF107013046FFF773FF08B12048D6E79DF80730434518BF7A
:20208000601C06F1010818BFC4B239464046FFF745FF08B11948C6E70DF107014046FFF7EF
:2020A0005BFF08B11648BEE79DF80730BB4218BF601C06F1020618BFC4B229463046FFF7C7
:2020C0002DFF08B10F48AEE70DF107013046FFF743FF08B10C48A6E79DF80730AB4201D057
:2020E0000A48A0E7201E18BF0120A2E733CE010857CE01087ACE01089ECE0108C1CE0108B2
:20210000E5CE010808CF01082CCF01084FCF010837B504460D460E206946FFF71DFF40B18F
:20212000164817F083FF0A2017F098FF012003B030BD0123013C03FA04F49DF80030012DE6
:2021400006BF43EA0401C9B223EA04010E208DF80010FFF7E3FE08B10948E2E701A90E20B6
:20216000FFF7FAFE08B10748DBE79DF800209DF804309A42DBD00448D3E700BF74CF010891
:202180009ECF0108C5CF0108EBCF010837B504460D460F206946FFF7DFFE40B1174817F0D8
:2021A00045FF0A2017F05AFF012003B030BD631E9DF80020012404FA03F312EA03001AD058
:2021C00022EA03010F208DF80010FFF7A7FE08B10B48E4E701A90F20FFF7BEFE08B1094824
:2021E000DDE79DF800209DF804309A4201D12C70DBE70548D3E72870D7E700BF13D0010889
:2022000030D001084ED001086BD0010813B50C460F2001A9FFF7A0FE40B1074817F006FF77
:202220000A2017F01BFF012002B010BD9DF8043023F07F032370F7E78AD0010813B504466F
:2022400069460E20FFF788FE40B1154817F0EEFE0A2017F003FF012002B010BD9DF800106C
:20226000032C9BBF21F01C0141EAC40141F00401C9B20E208DF80010FFF750FE08B10948F5
:20228000E4E701A90E20FFF767FE08B10648DDE79DF800209DF804309A42DDD00348D5E767
:2022A000ACD00108CED00108F1D0010813D1010870B586B00CF0E4FC0446C8B93348344D3D
:2022C000324E17F0B3FE0A2017F0C8FE0CF0D8FC00284FD1304617F0A9FE0A2017F0BEFEA6
:2022E00001344FF4FA70E4B201F034FA032CEDD9284C294D002001F02DFA2378072B41D052
:202300004FF4FA7001F026FA4FF4FA7001F022FA4FF4FA7001F01EFA4FF4FA7001F01AFADD
:2023200001231E482B7017F081FE0A2017F096FE0CF006FC1A4AD4F801301360194B1A4895
:202340005B685360237A0493E3790393A37902936379019323790093E378A278617817F03C
:2023600065FE0A2017F07AFE2878431E5842584106B070BD284617F059FE0A2017F06EFED1
:202380000424ADE700232B70D2E700BF37D1010849D10108A46600207C03002059D101081B
:2023A000FB5C0020A56600206AD1010838B5214D00052B8800F57E22B3EB124F16D2020C9A
:2023C000B3EB104F4FF0000038BF2A8001F0C2F90022288811460CF003FE10B928880CF0D9
:2023E00009FD2B8801332B80022021E0FCD1124C2388B3EB123F17D200F57020020BB3EB44
:20240000103F4FF0000038BF228001F0A3F90022208811460CF046FD10B920880CF0AAFC95
:20242000238801332380DFE7DED100202880208038BD00BF940300209603002038B51C4DC3
:2024400000052B8800F57E22B3EB124F11D2B3EB104F4FEA10424FF0000038BF2A8001F0F4
:2024600079F928880CF018FF2B8801332B8002201CE0FCD10F4C2388B3EB123F12D200F5DC
:202480007020B3EB103F4FEA10324FF0000038BF228001F05FF920880CF0D4FE23880133CE
:2024A0002380E4E7E3D100202880208038BD00BFB0030020B203002030B51B4C000523883A
:2024C00000F57E22B3EB122FC1B00D4627D2B3EB102F4FEA10224FF0000038BF228001F0BA
:2024E00039F94FF480730022684621880CF03AFF00226B46104613F8011B0130A94218BF83
:202500000132B0F5807FF6D122B100232380012041B030BD2388013323800220F8E7FCD135
:2025200000202080F4E700BF7E03002038B5214C0005238800F57E22B3EB124F19D2020C09
:20254000B3EB104F4FF0000038BF228001F002F90022208811460CF043FD20B123880133AD
:202560002380022004E0144A002323801380012038BDF6D1104D2B88B3EB123F15D200F543
:202580007020020BB3EB103F4FF0000038BF2A8001F0E0F80022288811460CF083FC00283C
:2025A000E1D02B8801332B80DBE7DAD1002020802880DDE7980300209A0300202DE9F0477A
:2025C0000023C0B006031A460C464FEA005A314668460CF0C7FE04F13903002213F80119BC
:2025E000202903D11978202908BF5A70A342F5D1671EE94604F138086A463B4600254345E1
:202600002AD1002D3CD023466A4604F1380C18685968144603C4083363452246F7D11B782C
:20262000237000224FEA1A34114620460CF03AFC8246D0B100231A46314668460CF0AEFDD7
:2026400000231A46314668460CF08CFE47451BD1003D18BF012513E012F8011B13F8010F66
:2026600088421CBF0135EDB2C9E720460CF082FB5246514620460CF015FC0028DAD10125B6
:20268000284640B0BDE8F08719F8013B17F8012F9A421CBF0135EDB2D8E710B5C0B00C4662
:2026A0004FF480730103002268460CF05BFE214604F139006B460024814202D1002040B0AB
:2026C00010BD13F8012BFF2A14BF0A700C700131F2E72DE9F041C4B001AC0B7823704B78B8
:2026E00063708B78A370CB78E3700B7923714B7963718B79A371CB79E3710B7A23720005DC
:202700004B7A637200F57E258B7AA3724FEA152800231A46414604A80CF024FE04AE00234E
:20272000274632462146184611F801EB12F801CBE64518BF013003F1010318BFC0B20B2B7A
:20274000F2D1002839D094E8070004AB03C323F8022B120C1A702D0B0022114628460CF082
:20276000A1FB0446F0B100231A46414604A80CF015FD00231A4604A841460CF0F3FD002349
:20278000184617F8011B16F8012B914218BF013003F1010318BFC0B20B2BF2D1003818BF52
:2027A00001200AE028460CF0E5FA2246214628460CF078FB0028D6D1012044B0BDE8F0811F
:2027C00010B50C460105C0B001F57E2168464FF480730022090A0CF0C5FD9DF800302370A8
:2027E0009DF8013063709DF80230A3709DF80330E3709DF8043023719DF8053063719DF8BB
:202800000630A3719DF80730E3719DF8083023729DF8093063729DF80A30A372002040B055
:2028200010BD000010B5304C0005226800F580431B0A9342C0B051D900F58050B2EB102F0E
:202840004FEA10234FF0000038BF236000F082FF21684FF48073002268460CF083FD694628
:20286000002311F8012BFF2A0BD12168FE200DF8030003EB01210CF051FC0020206040B063
:2028800010BD12B3FE2A08D1FC220DF8032021681DF8030003EB0121EDE7FC2A01D1F822C8
:2028A000F3E7F82A01D1F022EFE7F02A01D1E022EBE7E02A01D1C022E7E7C02A01D18022B8
:2028C000E3E7802AE3D10022DFE70133B3F5807FC7D12368013323600220D0E7FCD100236A
:2028E00023600120CBE700BFAC03002038B5040504F58054240BA51C0022114628460CF05E
:20290000D1FA08B9280138BD01340022114620460CF0C8FA08B92001F5E70020F3E7000083
:20292000F0B5314C03050E4603F580422168120A8A42C1B0054652D903F58053B1EB132F5E
:202940004FEA13274FF0000038BF276000F002FF216800224FF4807368460CF003FD6A461B
:20296000002112F8013BFF2B0AD12368DB1B01EB0323DB00002046F82530206041B0F0BDAC
:2029800023B3FE2B194A09D1012313702368DB1B01EB0323117801EBC303EBE7FC2B01D1BB
:2029A0000223F2E7F82B01D10323EEE7F02B01D10423EAE7E02B01D10523E6E7C02B01D1B5
:2029C0000623E2E7802BE1D10723DEE70131B1F5807FC6D12368013323600220CEE7FCD165
:2029E000002323600120C9E7A40300209C03002030B587B013788DF8043053788DF80530F5
:202A000093788DF80630D3788DF8073013798DF8083053798DF8093093798DF80A30D379FF
:202A20008DF80B30137A8DF80C30537A8DF80D30937A8DF80E30D37A8DF80F30137B8DF805
:202A40001030537B8DF81130937B8DF81230D37B8DF813301324137C1F4D8DF81430614318
:202A6000537C8DF8153001EB0050937C8DF816302A6800F5804323449A422AD200F5804465
:202A8000A2424FF0000038BF2C6000F063FE29680B1B18336B4413F8140C0CF03FFB0DF12F
:202AA000030029680CF020FC2B681C1B04F118020DEB02049DF8032014F8141C914217BFF6
:202AC000002301332B60012004BF2B60022007B030BD00202860FAE7A803002037B5132468
:202AE00061432B4D01EB005000F5804329682344994218D200F58044A1424FF0000038BF37
:202B00002C6000F027FE29680DF107000CF0ECFB2B68204A9DF807101C1B013311552B6096
:202B2000022003B030BD1C4B1120002113F8014BFF2C08BF03F8011C0138F7D1154B1978C7
:202B400011705978517099789170D978D170197911715979517199799171D979D171197ADB
:202B60001172597A5172997A9172D97AD172197B1173597B5173997B9173D97BD173197C9B
:202B80001174597C51749B7C93742860C9E700BFA00300208003002082030020F0B50388C6
:202BA000D3B00DF10D028DF804301B0A8DF8053043888DF806301B0A8DF8073003798DF885
:202BC000083043798DF8093083798DF80A30C3798DF80B30037A8DF80C3000F1290100F142
:202BE000090353F8044B42F8044B8B42F9D1D0F82920CDF82D209B88ADF8313000F130039F
:202C00000DF1330450301A4652F8041B090A824204F8011BF8D10DF13B0253F8041B02F8DF
:202C2000011B8342F9D100231A4647F6F07112A80CF098FB01AD12AC0022234629461046C3
:202C400011F8017B13F8016BB74218BF013002F1010218BFC0B2412AF2D1002839D001A92F
:202C600012A816F069FC0022114640F2FF700CF019F9064600B300231A4647F6F07112A82D
:202C80000CF08CFA00231A4612A847F6F0710CF069FB0023184615F8011B14F8012B9142C2
:202CA00018BF013003F1010318BFC0B2412BF2D1003818BF01200CE040F2FF700CF05AF891
:202CC0003246314640F2FF700CF0ECF80028D2D1012053B0F0BD10B5C0B04FF4807300225B
:202CE00047F6F071044668460CF03CFB00236A46194612F8010B0133FF2808BF02F8011C8A
:202D0000412BF6D19DF801209DF8003003EB022323809DF803209DF8023003EB02236380DA
:202D20009DF8053063719DF80630A3719DF80730E3719DF80830237204F109020DF109038A
:202D40000DF1290153F8040B42F8040B8B42F9D1DDF82920C4F829209B88A4F82D3004F1DD
:202D600030030DF12F0050341A4610F8011B090242F8041B9442F8D10DF13701186811F829
:202D8000012B024443F8042B9C42F7D1002040B010BD00000248002280210DF0BFB800BF94
:202DA000000C02400248012280210DF0B7B800BF000C024010B5084C0022202120460DF05F
:202DC000ADF805200CF09EFB20460122BDE8104020210DF0A3B800BF000C024007B5002391
:202DE00009488DF80430012240210DF097F84FF0FF33012201A905480EF0C5FE9DF80400D4
:202E000003B05DF804FB00BF000C0240A864002007B500228DF80700402107480DF07EF8E5
:202E20004FF0FF3301220DF1070104480EF00DFD03B05DF804FB00BF000C0240A864002064
:202E4000F8B5012205460C460B480C4F40210DF065F804B9F8BDB4F5004F264628BF4FF49C
:202E6000004629464FF0FF33B2B238460EF0EDFC3544A41BEDE700BF000C0240A86400201E
:202E800007B5030A8DF80500022101A88DF80430FFF7D6FF03B05DF804FBF7B507462A2045
:202EA00016460D461C46FFF7B3FF04213B0A0DEB01008DF80430330A8DF806308DF805704B
:202EC0008DF80760FFF7BCFF2B20FFF7A1FF2B0A04218DF804300DEB0100230A8DF8055061
:202EE0008DF806308DF80740FFF7AAFF2C2003B0BDE8F040FFF78CBF2DE9F3411C46831850
:202F0000B3F5A07F154601EB0403C4BFC0F5A075ADB2F02BC8BFC1F1F0040F460646C8BF80
:202F2000A4B2BDF82080FFF735FF7B1E721E23442A4439469BB292B23046FFF7AEFF4FEA5C
:202F4000182310488DF80430012240218DF805800CF0E4FF0C4F94B9FFF724FF02B0BDE8A0
:202F6000F0814FF0FF33022201A938460EF06DFC013EB6B2002EF4D1013CA4B2EBE72E4649
:202F8000F8E700BF000C0240A864002030B5012285B04FF0FF3300218348844C0EF055FC60
:202FA000FFF7F8FEFFF706FF782000F0D3FB0120FFF72EFF782000F0CDFBCB20FFF728FF38
:202FC000206823790090052168468DF80430FFF737FFCF20FFF71CFFB4F80520E379ADF8B2
:202FE0000020032168468DF80230FFF729FFE820FFF70EFF2289A37AADF8002003216846A0
:203000008DF80230FFF71CFFEA20FFF701FF002502216846ADF80050FFF712FFED20FFF7F3
:20302000F7FE634B009304216846FFF709FFF720FFF7EEFE2023012168468DF80030FFF7D2
:20304000FFFEC020FFF7E4FE2123012168468DF80030FFF7F5FEC120FFF7DAFE1023012105
:2030600068468DF80030FFF7EBFEC520FFF7D0FE43F6314302216846ADF80030FFF7E0FE3E
:20308000C720FFF7C5FEC023012168468DF80030FFF7D6FE3620FFF7BBFE4823012168461E
:2030A0008DF80030FFF7CCFE3A20FFF7B1FE5523012168468DF80030FFF7C2FEB120FFF722
:2030C000A7FE4FF4D85302216846ADF80030FFF7B7FEB620FFF79CFE364B03211A889B78CC
:2030E000ADF8002068468DF80230FFF7A9FEF220FFF78EFE012168468DF80050FFF7A0FE3C
:203100002620FFF785FE012168468DF80010FFF797FEE020FFF77CFE04F10B036A46133496
:2031200018685968154603C50833A3422A46F7D1186899889B79AB712860A98068460F2173
:20314000FFF77EFEE120FFF763FE1B4B6A4603F1080518685968144603C40833AB4222469C
:20316000F7D1186899889B79A3712060A18068460F21FFF765FE1120FFF74AFE782000F0EF
:20318000E9FA2920FFF744FE3620FFF741FE2823012168468DF80030FFF752FE05B0BDE8D0
:2031A0003040FFF7FFBD00BFA8640020B9CB0108640312819BD101089FD1010882B02DE945
:2031C000F04F85B0DEB2C3F3072514460F93721E6B1E0B4402449BB292B2BDF84470BDF8B0
:2031E0004880FFF75AFEC72C71D0E72C71D0B42C71D0A82C71D0C02C71D0C12C71D0C22CB2
:2032000071D0C32C71D0C42C71D0C82C71D0C92C71D0CA2C71D0CB2C71D0CC2C71D0CD2C00
:2032200071D0CE2C71D0CF2C71D0D22C71D0D32C71D0D42C71D0D52C71D0D62C71D0D92C8C
:2032400071D0DA2C71D0DB2C71D0DC2C71D0E02C71D0E12C71D0E22C71D0E32C71D0E42C0B
:2032600071D0E82C71D0E92C71D0EA2C71D0EB2C71D0EC2C71D0ED2C71D0EE2C71D0EF2C8A
:2032800071D0F22C71D0F32C71D0F42C71D0F52C71D0F62C71D0F92C71D0FA2C71D0FB2C14
:2032A00071D0FC2C71D07F2C28BF20244FEA1823203C01936C433B0A009364004FF00009F7
:2032C000A94564D305B0BDE8F04F02B070477F24ECE78024EAE78124E8E78224E6E783244E
:2032E000E4E78424E2E78524E0E78624DEE78724DCE78824DAE78924D8E78A24D6E78B2452
:20330000D4E78C24D2E78D24D0E78E24CEE78F24CCE79024CAE79124C8E79224C6E7932471
:20332000C4E79424C2E79524C0E79624BEE79724BCE79824BAE79924B8E79A24B6E79B2491
:20334000B4E79C24B2E79D24B0E79E24AEE79F24ACE7A024AAE7A124A8E7A224A6E7A324B1
:20336000A4E7A424A2E7A524A0E7A6249EE7A7249CE7A8249AE7A92498E7AA2496E7AB24D1
:2033800094E7AC2492E7AD2490E7AE248EE7109B33F804B04FF0000A564503D809F101098D
:2033A00002348DE70BFA0AF10B044ABF009B019B8DF80C304FF0020103A84EBF8DF80D7057
:2033C0008DF80C308DF80D800AF1010AFFF738FDE2E782B02DE9FF470446BDF83C90BDF812
:2033E00040A00D9388461546DFB2C3F30726FFF7D1FC15F8012B2AB904B0BDE8F04702B08F
:20340000FFF7D0BCE319B3F5A07F0BDB08EB06031FFA83F816FA83F3EF2BEDDC202A4FF0FF
:203420000004E6D00E9B8DF834708DF8356000932046CDE9019A0D9B41463C44FFF7BEFE3B
:20344000A4B2D6E730B4B0F5A07FBDF8085005D2EF2903D8029530BCFFF74EBD30BC7047B3
:2034600007B500210090F0234FF4A0720846FFF743FD03B05DF804FBB0F5A07F13B505D289
:20348000EF2903D800930123FFF7DCFF02B010BDB0F5A07F13B506D2EF2904D800931346EE
:2034A0000122FFF7CFFF02B010BD2DE9F341B0F5A07FBDF8207004460D4690461E4620D28A
:2034C000EF291ED800970123FFF7BCFFA919424620460097012389B2FFF7B4FF334629463B
:2034E000204600970122FFF7ADFF04EB080033460122294680B2089702B0BDE8F041FFF7B9
:20350000A1BF02B0BDE8F081B0F5A07F13B5144612DAEF2910DC80B289B24B1C421C9BB22E
:2035200092B2FFF7BAFC230A022101A88DF804308DF80540FFF784FC02B010BD2DE9F74FCE
:20354000BDF8306007460C4698469146FFF722FC264408EB070BB6B24FF0000A1FFA8BFBFF
:20356000B44215D009EB4A033D4621B20AE033F8022B28B2CDE90013FFF7C6FFDDE9001360
:203580000135ADB25D45F2D10134C244A4B2E7E703B0BDE8F04FFFF705BC2DE9F74FA3EB9A
:2035A0000109A2EB000AB9F1000FB8BFC9F10009BAF1000FB8BFCAF1000AD145BDF8307016
:2035C00004460D46904603DD98460C4613460546444505DD29461D460B4621464446884677
:2035E000A8EB0406A3EB050BBBF1000FC6F3C031B2B2B8BFCBF1000B01FA86F69D42B4BFC0
:2036000001234FF0FF33009276100193FFF7C2FB444504DD03B0BDE8F04FFFF7C3BBD1452B
:20362000C7BF2146284629462046A6EB0B063A46FFF76AFFB3B236B2002E05DA019A15448B
:20364000009AD6182DB236B2013424B2E0E70000044BC90001F4FC6141EAD20203EA0020D3
:203660001043704700F8FFFF2DE9F341089E0F461D4614468046FFF78DFB2A20FFF7C8FB01
:203680001FFA88F0FFF7FCFBA0B2FFF7F9FB2B20FFF7BEFBB8B2FFF7F3FBA8B2FFF7F0FBED
:2036A0002E20FFF7B5FBA4EB0804FFF797FBEB1B0134013314FB03F39BB203EB43050F4F9E
:2036C000ADB206EB4304A64205D1FFF76BFB284602B0BDE8F0814FF0FF33032201A9384645
:2036E0000EF051FA9DF806209DF805109DF80400FFF7AEFF26F8020BE5E700BFA8640020FE
:2037000037B5FFF747FB0920FFF782FBFFF766FBFFF764FB0546FFF761FB2D0645EA0044FA
:20372000FFF75CFB0546FFF759FB044344EA05200190FFF737FB019803B030BD08B5044812
:203740000DF003FD18B1BDE8084008F041BB08BD4464002010B50446FFF7F0FF04B910BDB7
:20376000FFF7ECFF01200BF0CDFE013CF6E700000C480D4A08B542F21073C0E90023002359
:203780004FF48042C0E90233C0E90423C0E9063303620DF0FFF818B1BDE8084008F018BBBA
:2037A00008BD00BFF0630020005C004070B50E4D0E4E0446012086B028703078012808D0B8
:2037C0000A98009020460DF0A7F900232B7006B070BD0020CDE904230391FFF7BBFFDDE90C
:2037E00004230399E9E700BF845E00203366002070B50E4D0E4E0446012086B028703078FF
:20380000012808D00A98009020460DF05DFA00232B7006B070BD0020CDE904230391FFF793
:2038200099FFDDE904230399E9E700BF845E00203366002030B585B005250C468DF80C00F6
:203840008DF80D1016480095022303AAD021FFF7ADFF50B1134816F0E9FB0A2016F0FEFBFF
:20386000FFF786FF012005B030BD0D480095012303AAD021FFF79AFF08B10B48EBE70848A1
:203880000095012303AAD021FFF7B2FF08B10748E1E79DF80C30181B18BF0120E3E700BFD5
:2038A000F0630020AFD10108D3D10108F7D1010810B5084805230122D0210DF075FB08B117
:2038C000FFF756FFBDE81040024805230122D0210DF06ABBF06300202DE9F04F964B2DED3D
:2038E000028B196885B069B1944816F09FFB0A2016F0B4FB4FF0020A504605B0BDEC028B44
:20390000BDE8F08F8E4E8F4D012405231A46D02130460DF049FB824670B12146284616F0B2
:2039200085FB01340A2016F099FBFFF721FF0A2CEBD14FF0010ADFE79FED838ADFF80092F4
:20394000DFF82882DFF828B204460546064607460020FFF7FFFE3B238DF80C30052300931A
:203960007748012303AAD021FFF720FF002800F0B680764816F05AFB0A2016F06FFBFFF7BA
:20398000F7FE0134E4B2632CE2D907EE907AF8EEE77AC7EE886A07EE906AF8EEE77A87EE85
:2039A000887A07EE905AF8EEE77AC7EE888A9FED688A66EE887A17EE90BA67EE087A17EE19
:2039C000900AFCF7C1FD064658460F46FCF7BCFD68EE887A804617EE900A8946FCF7B4FD81
:2039E00002460B46FCF708FE424604460D464B4640464946FCF700FE22462B46FCF746FC6B
:203A000041EC100B18F01BFF304653EC102B3946FCF71CFF41EC100B18F066FD4D4B51EC37
:203A2000100B0022FCF7E8FD41A3D3E90023FCF70DFF494B804618688946FCF785FD024649
:203A40000B4640464946FCF71FFCFDF7CDF8324608EE100A3B4630463946FCF7CDFD224616
:203A60002B46FCF713FC41EC100B18F0E8FE55EC104B8BF00040FCF767FD22462B46FCF723
:203A8000E5FE41EC100B18F02FFD324B51EC100B0022FCF7B1FD26A3D3E90023FCF7D6FEC0
:203AA0002E4B044618680D46FCF74EFD0B46024629462046FCF7E8FBFDF796F8DFED287AFE
:203AC000284B38EE678A07EE900ABDEEC88AFDEEE77A83ED008A244BC3ED007A0CE71E23BD
:203AE0000093224A0623D0214846FFF781FE08B158463FE7B8F80030DBBA1F44B8F8023073
:203B0000DBBA1E44F0EE087AB8F80430B4EEE78ADBBAF1EE10FA1D4404D5F7EE007A38EE1A
:203B2000278A2EE7632C3FF404AF642429E700BF7A008BFCFA210940CC0300201ED20108A6
:203B4000F063002056D2010800000000AFD101080000803800806640B4030020B8030020A8
:203B60000000B442BC030020C0030020C4030020F7D10108000000002DE9F0472DED068BDD
:203B80008D4886B016F052FA0A2016F067FA8B4B196861B18A4816F049FA0A2016F05EFA2B
:203BA0000224204606B0BDEC068BBDE8F087854F854E092505231A46D02138460DF0F4F9B7
:203BC000044668B13046013D16F030FAADB20A2016F044FAFFF7CCFD002DEBD10124E0E73D
:203BE000DFED7A8ADFF8DCA1DFF808929FED788A05460646074680460020FFF7ABFD3B23DC
:203C00008DF81430052300936E48012305AAD021FFF7CCFD002800F0A0806E4816F006FAF3
:203C20000A2016F01BFAFFF7A3FD0135ADB2B5F57A7FE1D307EE908AF8EEE77A9FED669ADB
:203C400087EEA87A07EE907AF8EEE77A87EEA88A07EE906AF8EEE77A28EE098AC7EEA89A0A
:203C600067EE098AFDEEE87A17EE903A002BB8BF5B4207EE903AF8EEE77AE9EE897A17EE1C
:203C8000900AFCF761FC41EC1A0B18EE100AFCF75BFCB0EE4A1AF0EE6A1A41EC100B18F0CA
:203CA000CCFD4E4B51EC100B0022FCF7A5FC4C4B0022FCF7A1FCBDEEC88A3DA3D3E900238F
:203CC000FCF7C4FDFCF790FF18EE103A002BB8BF5B4208EE103AB8EEC88A0646A9EE898AF1
:203CE00018EE100AFCF730FC41EC190B18EE900AFCF72AFCB0EE491AF0EE691A41EC100BD1
:203D000018F09BFD354B51EC100B0022FCF774FC344B0022FCF770FC25A3D3E90023FCF70C
:203D200095FDFCF761FF304B1E60304B054618603046FCF709FC02460B462846CDE9022317
:203D4000FCF702FCDDE90223CDE90001284816F06DF90A2016F082F923E71E230093254AFC
:203D60000623D0215046FFF743FD08B1224855E7B9F80030DBBA9844B9F80230DBBA1F44D1
:203D8000B9F80430F4EEC88ADBBAF1EE10FA1E4404D5F7EE007A78EEA78A46E740F2E733E2
:203DA0009D423FF41BAF4FF47A753EE7AFF300807A008BFCFA21094088D20108CC030020F7
:203DC0001ED20108F06300209AD201080000000000004843AFD10108000080380080764000
:203DE0000000E03F0000E0BFB4030020B8030020C8D20108C4030020F7D10108F0B5284FDC
:203E0000284E85B0052500224FF4007138460CF085F83220FFF79EFC01224FF400713846C9
:203E20000CF07CF83220FFF795FC05231A46D02130460DF0B9F808B1FFF79AFC05231A46CF
:203E4000D02130460DF0B0F868B1174816F0EEF8013D0A2016F002F9FFF78AFC15F0FF0504
:203E6000D1D1012418E06B238DF80C3080238DF80D300523009303AA0223D0213046FFF7E5
:203E800095FC044608B10948E0E70BF035FB084B18602046FFF75EFC204605B0F0BD00BF43
:203EA00000040240F0630020D9D20108AFD10108CC0300201FB575238DF80C3000238DF848
:203EC0000D301A4B196841B1194816F0AFF80A2016F0C4F8022004B010BD0A241548009411
:203EE000012303AAD021FFF761FC48B1124816F09DF8204616F0B2F8FFF73AFC0120EAE78B
:203F0000052300930B48012303AAD021FFF770FC08B10A48EBE79DF80C106829DBD0084855
:203F200016F084F8204616F099F8E7E7CC0300201ED20108F063002003D3010829D30108F5
:203F400052D301082DE9F0412F4C2368054633B12E4E0BF0D1FA2368643898421CD3002362
:203F60002B4E2C4FDFF8BC8023600124FFF7A0FC08B1FFF7FDFBFFF79BFCC0B12648214686
:203F800016F054F801340A2016F068F8FFF7F0FB0A2CEBD1012035E00020FFF7DBFB21688C
:203FA000304616F043F80A2016F058F8D1E7FFF781FF014610B119482146E1E76B20FFF783
:203FC00039FC014610B121464046D9E71B20FFF731FC014610B121463846D1E71C20FFF7C2
:203FE00029FC10B121463046CAE7012D0AD10C4816F01CF80A2016F031F8FFF7BDFD003895
:2040000018BF0120BDE8F081CC0300201ED201081FD40108F1D3010881D30108A1D3010807
:204020004ED40108C4D3010807B5F02300210246009308464FF4A073FFF780FA03B05DF8CE
:2040400004FB000010B5044613F022F9124B627A1870124B12491A70A2780A70114AA07929
:2040600010700978012902D01278012A12D11A782E2A02D157221A700CE01A782D2A01D144
:204080005622F8E71A78252A01D15522F3E71A78252AFAD010BD00BF485400204554002019
:2040A000465400204754002030B5094A01F1C60314685D1AAC4206DB08551368C52B9CBFB3
:2040C0000133136030BD13F8014D5C70F0E700BF4C54002070B50128049D1C4601D0012985
:2040E0004DD14F2A16D19149086803461A460133AC5C14F0DF0F01D0C52AF7D92A44527859
:20410000002A32D0C52B30D8894A12688242FDD10B602AE0502A28D184480368002B24DD51
:20412000834A12689342FDD1EA18E95C12F8012C203A18BF012201B9013BE91805E00C7863
:20414000202C03F1FF3300D10132DE43012A4FEAD676C8BF002611F801490EB1002CEED16E
:20416000002B03DA714B00221A6070BD5A1C2B445B78002BF9D0C52AF7D80260F5E72F2AB1
:204180000ED16C4C206810B9B4232360EDE7C0B22946FFF789FFB420FFF786FF0023F4E75D
:2041A000342A0AD1634C206808B97E23EDE7C0B22946FFF779FF7E20EEE72A2A11D15B4BBB
:2041C0001968481EC528D0D8594A12689142FDD11860C1F1C80229442844BDE8704015F07E
:2041E000B9B94C2A09D1514B1868C728C0F1C70200F1010188BF0022EDE7203B5F2B00F271
:20420000D5804C4E3068002800F0CA8060281DD1412C6FD0452C6FD0492C6FD04F2C6FD075
:20422000552C6FD0612C6FD0652C6FD0692C6FD06F2C6FD0752C6FD02946FFF735FF29468C
:204240002046FFF731FF002333608EE7B42815D1412C63D0452C63D0492C63D04F2C63D04B
:20426000552C69D0612C69D0652C69D0692C69D06F2C69D0752CDFD1FA24E0E75E2815D1B0
:20428000412C63D0452C63D0492C63D04F2C63D0552C63D0612C63D0652C63D0692C63D084
:2042A0006F2C63D0752CC7D1FB24C8E77E2809D1412C5DD04F2C5DD0612C5DD06F2CBBD186
:2042C000F524BCE7A828BAD1412C57D0452C57D0492C57D04F2C57D0552C57D0612C57D001
:2042E000652C57D0692C57D06F2C57D0752CA3D1FC24A4E7C024A2E7C824A0E7CC249EE773
:20430000D2249CE7D9249AE7E02498E7E82496E7EC2494E7F22492E7F92490E7C1248EE792
:20432000C9248CE7CD248AE7D32488E74C54002050540020D8030020DA2480E7E1247EE707
:20434000E9247CE7ED247AE7F32478E7C22476E7CA2474E7CE2472E7D42470E7DB246EE78B
:20436000E2246CE7EA246AE7EE2468E7F42466E7C32464E7D52462E7E32460E7C4245EE7D0
:20438000CB245CE7CF245AE7D62458E7DC2456E7E42454E7EB2452E7EF2450E7F6244EE71D
:2043A00029462046BDE87040FFF77EBE4F2A0ED13149324A0B681268E85C28B1C52B03D87E
:2043C0009342FDD10133A3E69342FDD1CAE6502A13D12949294A0B681068002B0BDD834224
:2043E000FDD1013B94E60132AC5C002CFBD18342FDD10A60B9E60022F6E7522A0CD11E49AB
:204400001E4A0B6812681B2B03DD9342FDD11C3B7EE69342FDD1A5E6512A19D1002300E02D
:204420000133EA5C002AFBD113490A6802F11C00984208DA1B2A3FF798AE104B1B689A42F8
:20444000FDD1086091E60D4800688242FDD15FE64B2A3FF487AE4E2A7FF487AE002300E01B
:204460000133EA5C002AFBD1044A1068024A11688842FDD1136078E64C5400205054002054
:204480001F48016801BB1F4B1A6812B905221A607047052A02D11B4B0622F8E7062A01D110
:2044A0000822F4E7082A01D10922F0E7092A01D10B22ECE70B2A01D10C22E8E70C2A1ED1C3
:2044C0000122026019607047012918D10D4B1A68002AF7D0012A01D10322D8E7032A01D169
:2044E0000422D4E7042AD6D0062A01D10722CEE7072A04D1044A117000221A60026070479D
:204500002C040020280400201804002013B519234CF21864194618460094FA22FEF792FF12
:20452000192318460094FA22BE21FEF78BFF1922104600948C233221FEF784FF00948C23F1
:2045400019223221FA20FEF77DFF502319460094192240F21310FEF775FF3C2108460094A4
:2045600078231C22FEF76EFF009478231C223C216220FEF767FF009478231C223C218820E7
:20458000FEF760FF009478231C223C21AE20FEF759FF009478231C223C21D420FEF752FFDE
:2045A000002002B010BD00002DE9F047DFF86C91514AD9F80030514F52F82310504CDFF80F
:2045C00060814FF620524FF6E075002918BF1546590107EB431386B09A7D012A68D193F870
:2045E00018A0BAF1000F63D107F108028E1888587168444E04AB03C3314604A8FCF794FF04
:20460000636800933246236869218B20CDE9015AFEF7DFFED9F8003007EB43131869FBF765
:2046200093FF0B4602463849304615F0B3FDD9F800309FED367A07EB4317D7ED047A98F848
:204640000030F4EEC77AF1EE10FA11DB012B01D12C23F370CD200023CDE90153636800930A
:20466000284A23687D21FEF7B4FE06B0BDE8F087B2EE047AF4EEC77AF1EE10FA05DB012BF0
:2046800001D12C23B370D820E5E7F5EEC07AF1EE10FA05DD012B01D12C237370E320DAE736
:2046A000BAEE047AF4EEC77AF1EE10FAE7DDF1E76368174A00930026236869218B20CDE9D1
:2046C0000156FEF786FE98F8003012490D48012B114B1B7814BF2E222C22B34214BF4323E0
:2046E000462315F057FD63680093CDE901562368044A7D21E320B6E7C05F0020045D0020B6
:204700005C000020B754002073D401080000C8427AD401088BD4010830010020E003002085
:20472000AD620020F0B40D2101FB00F3164C1749174D94F804C005F803C01944EA180023D1
:204740006779A679A5784B7164788B71CB710B724B72104957709670D5701471537193717B
:20476000D3711372537201220A7081F801C08F70CE700D714C718B71CB710B724B728B72ED
:20478000F0BCC0B2FDF7A5BF71660020AD5E0020155F0020A06200202DE9F041DFF860E06D
:2047A0001549164A0D2444430EEB04031EF804404C705C7892F804C05779967995788C7063
:2047C00052789C7883F805C09F71DE711D725A724FF00008CC70DC781B7981F800800C7120
:2047E0004B7181F806C0CF710E724D728A72BDE8F041C0B2FDF76DBFA062002071660020C2
:20480000155F002030B5164B164C197801EB410301EB8301144B1A68144B53F8225085B0F9
:204820009DB1134B1348194415F0B4FC00234FF62052CDE90132636800930E4A23682D210D
:20484000B420FEF7C6FD05B030BD0B4B0948194415F0A0FC4FF6E073CDE90153EBE700BF52
:20486000C26500205C000020E0030020C05F00200BE60108B75400208FE6010830B5154B4B
:20488000154C197801EB410301EB8301134B1A68134B53F8225085B09DB1124B12481944F4
:2048A00015F078FC002302934FF620530193636800930D4A23682D21B420FEF78AFD05B0E8
:2048C00030BD0A4B0848194415F064FC02954FF6E073EBE7C26500205C000020E0030020BD
:2048E000C05F002032E60108B7540020B6E601082DE9F043DFF880801E4E87B00F46052447
:20490000002518F8013B8DF81550002B08BF20238DF814307368009320463368CDE90175A3
:2049200005AAB9210B34FEF754FDA4B240F239139C42E6D1DFF8449005254FF0000819F8D3
:20494000013B8DF81580002B08BF20238DF814302846736800930B35CDE90178336805AA6E
:20496000CD21ADB2FEF735FDA542E8D107B0BDE8F08300BF5C000020B0610020CC6100209B
:20498000494B2DE9F0411F68484D0D237B438AB0EB5C632B9FBF4FF00A0CB3FBFCFCCCEB13
:2049A0004C12CCEB820298BF03EB42034FF00D0202FB075288BF002351788CBF9C46DBB243
:2049C00063299FBF0A22B1FBF2F2C2EB4210C2EB800098BF01EB40014FF00D0000FB0750E3
:2049E00088BF002180788CBF0A46C9B263289FBF4FF00A0EB0FBFEFECEEB4E14CEEB8404FE
:204A000098BF00EB44004FF00D0404FB075488BF0020E4788CBF8646C0B2632C9FBF0A26FD
:204A2000B4FBF6F6C6EB4618C6EB880898BF04EB48044FF00D0808FB075588BF00242D7935
:204A400094BFE4B22646632D9FBF0A27B5FBF7F7C7EB4718C7EB880898BF05EB4805DFF886
:204A6000608098F800808ABF0025EDB22F46B8F1010F0CBFCDE90021CDE900C3CDE902E058
:204A800015BF0B460A490B49624605A815F082FBCDE9017508490094334605AA074815F0E6
:204AA00079FB0AB0BDE8F081E0030020155F002096D40108A5D40108B4D40108B75400206A
:204AC000AB620020354B2DE9F0411B68344E0D2202FB03668AB03379632B53D80A25717990
:204AE000B1FBF5FCCCEB4C13CCEB830301EB4301B379B3FBF5F2C2EB4210C2EB800003EBBB
:204B00004003F079B0FBF5FECEEB4E14CEEB840400EB4400347AB4FBF5F7C7EB4718C7EBB4
:204B20008808767AB6FBF5F504EB4804C5EB4518C5EB880806EB4806C9B2DBB2C0B2E4B283
:204B4000F6B2DFF8708098F80080B8F1010F0ABFCDE90023CDE900C10B46CDE902E00ABF52
:204B600010491149624605A815F014FBCDE901560E4900943B4605AA0D4815F00BFB0AB0D7
:204B8000BDE8F081002427462046A646234622462146A44626462546D3E700BFE0030020A7
:204BA000155F002096D40108A5D40108B4D40108B7540020AB6200202DE9F04F0D23434378
:204BC000574FF95C63299FBF4FF00A0CB1FBFCFCCCEB4C13CCEB830398BF01EB43014FF0DE
:204BE0000D0303FB007388BF00215B788CBF8C46C9B2632B98BF0A2204469FBFB3FBF2F216
:204C0000C2EB4210C2EB800003EB40034FF00D0000FB047088BF002380788CBF1A46DBB2E2
:204C200063289FBF4FF00A0EB0FBFEFECEEB4E15CEEB850598BF00EB45004FF00D0505FB56
:204C4000047588BF0020AD7A8CBF8646C0B2632D9FBF4FF00A08B5FBF8F8C8EB4816C8EB21
:204C6000860698BF05EB46054FF00D0606FB047688BF0025F67A94BFEDB2A846632E9FBF9E
:204C80004FF00A09B6FBF9F9C9EB491AC9EB8A0A98BF06EB4A064FF00D0A0AFB047788BF0B
:204CA00000263F7B94BFF6B2B146632F9FBF4FF00A0AB7FBFAFACAEB4A1BCAEB8B0B98BF7D
:204CC00007EB4B07DFF86CB09BF800B08FB08ABF0027FFB2BA46BBF1010F0DF1240B0ABF48
:204CE000CDE90023CDE900C10B46CDE902E00ABF0C490D496246584615F04CFA631CCDE941
:204D000005A7CDE90396CDE901850849CDF800B01A46074815F03EFA0FB0BDE8F08F00BF08
:204D2000AD5E002096D40108A5D40108C1D40108B7540020AB62002070B506460D46002079
:204D4000A84201DB012009E0345C54B92A1A22EAE2722021304414F017FC20460023735525
:204D600070BD0130ECE700002DE9F04F98464FF00B0992FBF9F909F1060385B023F00703A8
:204D8000144604AFADEB030D0A2C0DF1100B09F1FF320546D8BF00220E465846B96AB7F81C
:204DA0002CA014F0C9FBB9F1010FACBF0BEB09030BF10103ADB2B6B2A4B24FF0000203F8DF
:204DC000012C314622462846CDF800A0142306F11409FEF737FB1FFA88F81FFA89F9A21E8E
:204DE000681C002300934946434692B280B2FEF729FB3A8E144BCDF808A001925A68009257
:204E0000B11CE81C5A461B6889B280B2FEF7E1FA08F11301314453462246284689B2FEF740
:204E20002BFB2846013D5346424649462544FEF72FFB534642464946A8B2FEF729FB04370A
:204E4000BD46BDE8F08F00BF5C0000202DE9FF47704E714D3178714BDFF80492704C01EB9E
:204E6000810103EB8101284615F0B4F94CF218670C23CDE901370095C8234FF4A07214213C
:204E80000020FFF771FF3378664A03EB430102EB410209EBC3036449284615F07BF900235E
:204EA000CDE90173636800932A4623682D210520FEF78FFA0097152340F2371240210420AF
:204EC000FEF7F3FA594F42F2041300934FF49B72142341210520FEF7B5FAF97830783B79EB
:204EE000534A97F806C07D79002900F08E800139CDE9005C01EBC00102EB81024D494E480E
:204F000015F048F94CF218656368009342F2041A2368494ACDE9015A41210520FEF759FAE2
:204F20003278464B46493C4802EB420203EB420215F030F94FF0000863680093CDE90158DE
:204F40002368354A96210520FEF743FA0095152340F23712A9210420FEF7A7FACDF800A008
:204F600014234FF49B72AA210520FEF76BFA3B7800937B78BA783349334815F00BF963682A
:204F80000093CDE9015A23682F4AAB210520FEF720FA32782D49204809EBC20215F0FAF832
:204FA00063680093CDE9015823681B4A5F210520FEF70FFA3278264B26491748C2EB021247
:204FC0001A4415F0E7F863680093CDE901582368114A78210520FEF7FCF932781E4B1F4919
:204FE0000D4802EB420202EBC2021A4415F0D2F863680093CDE901582368074AD2210520EC
:20500000FEF7E7F904B0BDE8F087CDE9005C02EB401273E7C2650020B754002091DD010857
:205020005C000020D7DC0108DFD401087B62002090E80108F2D40108190400207FDD01088D
:2050400005D5010833D901083004002014D5010852DD01081ED5010801DD010875D70108A2
:20506000E9DC0108000000002DE9F04F2DED028B0C4695B0002930D1002828DD0C234CF20B
:205080001862CDE90132B24DB24A2B7803EB830302EB830300934FF4A072C82314212046BA
:2050A000FFF762FEAC4B2A78AC49AD4803EB021215F070F8AB4B02944FF6FF7201925A6811
:2050C00000921B68A64A2D210620FEF782F9204615B0BDEC028BBDE8F08F012940F08981FE
:2050E0000024DFF88C82DFF878922646D8ED047ABDEEE78AB8EEC87A77EEC77A17EE900ACE
:20510000FBF722FA90A3D3E90023FBF775FAFBF723FD0DAA079008F10801002310460133FF
:2051200011F8015B02F8015B082BF8D10DF13C0A5146FCF7F9F9671C079B8B4901938DEDF1
:20514000008A53463A4648468DF84A6015F022F898F817307E4D012B29780DF1240B40F004
:205160003381824B584603EB810115F013F84FF4FC6306937E4B03EB441404F110030FCB64
:205180008DE80F0094E80F00FCF7ACF82978002840F02381754B0BA803EB810114F0FAFFEC
:2051A000744B754A1B78127874498DED028A012B14BF2E232C23002A14BF43224622059291
:2051C000079A684CCDE90332CDE900BA0BAB3A46484614F0DFFF069B02960193636800934E
:2051E000C7EB07112D3123684A4689B20E20FEF7F0F8082F08F1200840F0E4802B78604AED
:2052000002EBC3025F4B06921868FBF79DF94FF6FF77CDE90001069A5B49514814F0BAFF86
:20522000029601976368009323684D4AB4210E20FEF7CFF82A7802EB820302EB4302534B1B
:205240001A44534B06921868FBF77EF9069ACDE900015049424814F09DFFCDE901766368BF
:20526000009323683E4AB4218C20FEF7B2F82A7849494A4B3A481B68C2EBC2020A4448494A
:2052800014F088FFCDE90176636800932368344AC3210E20FEF79DF8424B43491A68304840
:2052A00014F078FFCDE901766368009323682C4AC3218220FEF78DF83C4B1B78002B40F072
:2052C00096803B49264800254FF6FF7614F082FFCDE90165636800932368214AC321C82026
:2052E000FEF777F8334A344993680093D2E900231B4814F04FFFCDE901656368009323682A
:20530000174AD2210E20FEF764F82C4A2C49137A0593D37904939379039353790293137938
:205320000193D378009393780D48527814F032FFCDE90165636800932368094AE1210E2014
:20534000FEF747F82C46C2E6000000000088C340C265002048E80108E2E7010828D501081C
:20536000B75400206C00002046D5010884E80108045D0020AD6200203001002056D50108A8
:20538000A9E70108105E002077D50108C1E701087C5E002081D5010894E70108BC03002024
:2053A0008BD50108C003002098D501087A620020A1D501087C660020B8D50108A4660020EE
:2053C000D3D501083C4691E60C4B584603EB810114F0E0FE4FF6E073CBE6084B0BA803EB9F
:2053E000810114F0D7FE4FF478430693D8E6044968E7022918BF002469E600BF12E801082A
:20540000ACD501082DE9FF41624B634D1A78634F63493B78634CDFF8C881C2EBC20201EB80
:2054200042022846604914F0B5FE0C234CF21861CDE901314FF4A072C82314210020009562
:20544000FFF792FC5949284614F0C4FE00264FF6FF73CDE90136636800932A4623682D2181
:205460000620FDF7B6FFB8F90000FBF75BF8504B0022FBF7EBF9FBF7B7FBFBF765F8024699
:205480000B4628464B4914F085FE3B784A4A013B32F91320B8F900309A4270D102964FF478
:2054A000FC630193636800932A4623682D216620FDF78FFF3A78414B03EB421313F8093C79
:2054C000012B10D13E49344814F084FE00234FF47842CDE90132636800932F4A23682D217D
:2054E000DC20FDF776FF4FF6FF75002663680093CDE901562368334A55210620FDF769FFFD
:2055000063680093CDE9015623682F4A69210620FDF75FFF63680093CDE9015623682B4AAF
:205520007D210620FDF755FF63680093CDE901562368274A91210620FDF74BFF6368009384
:20554000CDE901562368234AA5210620FDF741FF63680093CDE9015623681F4AB9210620C7
:20556000FDF737FF63680093CDE9015623681B4ACD210620FDF72DFF04B0BDE8F08103DACB
:2055800002964FF6E0738CE794DD02964FF6205387E700BFC2650020B754002005000020E3
:2055A0001EE801085C000020FED5010808D601080000244010D601083E660020045D002005
:2055C00017D6010820D601082AD6010834D6010844D6010855D6010866D601087BD60108C4
:2055E000AC5400202DE9F04F734F744E3A78744C33687449DFF8FCB1DFF8FCA102EBC2023F
:2056000085B001EB420201336F49204614F0C2FD4CF218650C23CDE901350094C8234FF478
:20562000A07214210020FFF79FFB0023CDE90153664C3A7863686649009302EB0212236849
:205640000A4405202D21FDF7C4FEDBF80030BBB93A7802EB420102EB810231685AF82110EE
:20566000002940F09D804FF4FC63CDE9011363680093236857490A44B4202D21FDF7A9FEB4
:2056800000254CF21868CDE901853A7863685249009302EB820201EB42022368412105208D
:2056A000FDF797FECDE901853A7863684B49009302EB420201EB4202236855210520FDF706
:2056C00088FE30685AF820304FF620524FF6E079AB4218BF9146C0B2FFF752F9CDE901951B
:2056E000636800932368364A41219F20FDF771FE3078FFF7E7F9CDE901956368009323680A
:205700002F4A55219F20FDF764FECDE90185636800932368324A69210520FDF75AFECDE933
:2057200001856368009323682E4A7D210520FDF750FEFEF739FFCDE901853A7863682A4924
:205740000093C2EBC202236801EB82020520A521FDF73FFEDBF800305BBB4FF620530093CA
:2057600040F237122923B7210420FDF79EFE30681E4C5AF820104FF620534FF6E0720029DA
:205780000CBF11461946FFF7B3F82378012B04D13068FFF701F80023237005B0BDE8F08F35
:2057A0004FF6E071CDE90131636800932368104961E748F21043D2E7C2650020E003002051
:2057C000B754002059E6010895D601085C00002031E701088FE6010864E7010882E7010801
:2057E0009BD60108A6D60108DDE60108A85400200BE6010808000020C05F00202DE9FF410B
:20580000DFF890828F4DD8F8003029788E4C9A1E012A00F2A4808D4E8D4B01EB0111194441
:20582000304614F0D7FC00274FF620534FF4A072CDE901371421C82338460096FFF794FA41
:205840002978844B01EB410103EBC101304614F0C1FC4CF2186302970193636800932368F4
:20586000324650210520FDF7B4FD7B4A2B781268012A4FEAC30340F0C78078497348194419
:2058800014F0A8FC00264FF47843CDE901366368009323686D4A78210520FDF79AFD704BAB
:2058A00029786A4803EBC10114F074FC02964CF218630193636800932368644A78219B20A1
:2058C000FDF787FD674B297860481A2201FB02314CF21867002614F07DFCCDE90176636892
:2058E00000932368594AA0210520FDF772FD29785D4B5648C1EBC10103EB810114F06AFC6F
:20590000CDE90176636800932368504AB4210520FDF75FFD29784D48C1EBC10301EB830177
:20592000524B194414F056FCCDE901766368009323684F4C454AD7210520FDF74AFD2378E4
:20594000012B09D14B4B18684B4B392101FB0031C0B2FCF733FE267004B0BDE8F081012BEC
:2059600083DC464B394E01EBC10103EB4101304614F030FC00274FF62053CDE9013714212A
:205980000096C8234FF4A0723846FFF7EDF92978D8F8008001EB4101C1EBC101B8F1000F92
:2059A0000FD1374B3046194414F014FC4CF21863CDF80880019363680093236832465A2128
:2059C00050E7304B4CF218681944304614F002FC0297CDF8048063680093324623685A21C4
:2059E0000520FDF7F6FC2978274B01EB410103EBC101304614F0EEFBCDE9018763680093AC
:205A0000236832463C212DE720491048194414F0C1FB00264CF21863CDE90136636800930A
:205A200023680A4A78210520FDF7D3FC184B2978064803EBC10114F0ADFB02964FF47843C2
:205A400037E700BFC26500205C000020B7540020C2D90108D0DA0108E45F002014DC0108C8
:205A60002CDC010844DC0108F5D9010879DA0108A7540020E0030020E85F002018DB010838
:205A80004EDB01088DDB0108CCDB010849DA010861DA0108E05F00202DE9F041BA4DBB4B90
:205AA0002978BB4E01EB810101EB810198B01944304614F08FFB4CF218641F23CDE90134D0
:205AC0000096C8234FF4A07214210020FFF74CF92B78002B40F04381AE49304614F07AFBB8
:205AE0004FF4FC630022CDE90132AB4CA84A6368009323682D210520FDF76BFC2B78012B8A
:205B000040F03381A549A24814F064FB4FF4FC630022CDE901326368009323689C4A462183
:205B20000520FDF756FC2B78022B40F025819C49974814F04FFB4FF4FC630026CDE901368D
:205B400063680093924A23685F210520FDF741FC944B29788E4803EBC10114F03BFB4FF625
:205B6000E07302960193636800932368884A8E4E2D219F20FDF72DFC2B788C4A317803EBD5
:205B8000C3031A44002940F031818949804814F001FB4FF4FC630022CDE901326368009331
:205BA00023687B4A46219F20FDF713FC3378814A012B2B7803EBC3031A4440F01E817C4981
:205BC000734814F0E7FA4FF4FC630027CDE90137636800936E4A23685F219F20FDF7F9FBA6
:205BE0002978754B6A4801EB410103EB810114F0F1FA4FF6E07302970193636800936F4F24
:205C00002368634A7D210520FDF7E3FB3B78002B40F0FA806A495E4814F0DCFA4FF4FC635A
:205C20000022CDE90132636800932368584A96210E20FDF7CEFB3B78012B40F0EC80614907
:205C4000534814F0C7FA4FF4FC634FF00008CDE90138636800934E4A2368AF210E20FDF799
:205C6000B8FB2978584B4A4801EBC101194414F0B1FA4FF6E073CDF808800193636800930A
:205C8000DFF864812368424A7D219F20FDF7A1FB98F80030002B40F0C5804C493C4814F0C7
:205CA00099FA4FF4FC630022CDE90132636800932368374A96219F20FDF78BFB98F800308A
:205CC000012B40F0B6804249314814F083FA4FF4FC630022CDE901326368009323682C4AA1
:205CE0009F20AF21FDF775FB3A4B1878002840F0A7804FF478430093982216232A2104202A
:205D0000FDF7D3FB29782248C1EBC10301EB8301314B194414F05EFA4CF218630022CDE910
:205D20000132636800932368194AD2210320FDF750FB04A8FCF7CFFF33788DF815303B78FA
:205D40008DF8163098F800308DF8173004A82B788DF81830FCF722FF18B0BDE8F0811F4976
:205D6000304614F037FA2346BCE61D49084814F031FA4CF21863CBE61A49054814F02AFA46
:205D80004CF21863D9E600BFC2650020CDDD0108B7540020B4D601085C000020CCD60108ED
:205DA000E4D6010818DE0108AB620020C6DE010800D70108E1DE010830DE0108AD62002059
:205DC0000ED7010820D7010854DE010832D7010840D70108C46500206FDE0108C0D601082A
:205DE000D8D60108F2D601083001002039493A4814F0D0F94CF21863CDE63649364814F08C
:205E0000C9F94CF21863E0E63449334814F0E2F94CF2186304E732492F4814F0DBF94CF2BE
:205E2000186312E72F492C4814F0D4F94CF2186339E72D49284814F0CDF94CF2186348E7C0
:205E4000012806D14FF47843009398221623432155E7022806D14FF4784300939822162399
:205E60005C214CE7032806D14FF47843009398221623932143E7042806D14FF4784300937A
:205E800098221623AC213BE7052807D14FF4784300939B22162343219C2031E7062806D157
:205EA0004FF4784300939B2216235C21F4E7072806D14FF4784300939B2216239321EBE7F0
:205EC00008287FF41FAF4FF4784300939B221623AC21E1E707D70108B754002017D701082C
:205EE00029D7010839D7010847D701081FB50F4A0F4912780F4B104C1B68C2EB021001440D
:205F000000910E49013301EBC20220460C4914F041F900201F23CDE901300094C8234FF4B1
:205F2000A0721421FEF720FF04B010BDC2650020AADC0108E0030020B754002092DC01080A
:205F40004ED70108000000002DE9F04F044687B0002840F08780B34EB34FB44D05F02AFCBF
:205F6000B34BB44AB449304614F014F94CF2186E0C23CDE9013E4FF4A072C82314212046DE
:205F80000096FEF7F1FE3A78AC4902EB820205EB4202304614F0FEF83B78A94A03EB8303B1
:205FA00005EB43051470234615F8011B00294BD104B1137000241F23CDE90134A14D994AF4
:205FC0006B6800932B68A04EDA210120FDF701FA3A78347002EBC2039C4A1A4411462346C3
:205FE00011F8010B002836D104B1337093498D4814F0D0F8964A1378012B0BD1002313706F
:206000003278072A06D800936E221223DA21D120FDF718FA3078834A0230C0EB003300EB0D
:20602000830300EB830000241F23CDE901346B68009300F23F102B68DA2180B2FDF7C9F9FE
:20604000002007B0BDE8F08F0133DBB20A2B4FF00104A9D1ADE70133DBB2092B4FF00104C4
:20606000BED1C2E7012807D10C23AF22282140F23110FDF70DFAE3E7022807D10C234FF4F2
:20608000A072D7210020FDF7F7F9D9E7714B032893F8008040F0EE8008F10803DBB2059379
:2060A0006D4B6E4F674CDFF87C9103EB880A1C226FF0DF0312FB0833464607EB4817049319
:2060C0002D25059BB342BBDD654B1A78A6EB08039A425AD1072E48DCF0B2FEF76DFD0023DF
:2060E0004FF4FC6CCDE9013C6368009323684A4629460520FDF76DF9072E2CDC3B7F0BB9E0
:206100007B7F63B100234FF4FC60CDE90130636800932368534A29461B20FDF75AF9DAF87F
:206120000030C3B100234FF4FC6BCDE9013B6368009323684C4A29462620FDF74AF9CDF8CC
:2061400008B000230193636800932368474A29465220FDF73EF9049B15351C330136ADB27C
:206160000AF1040A20370493ABE72F4B049A1978E02313FB01233E494846194414F02AF820
:206180001B214846FEF7D8FDA9E7072E39DCF0B2FEF712FD48F210430021CDE9013163688A
:2061A000009323684A4629460520FDF712F9072ED1DC3B7F0BB97B7F63B14FF62053002256
:2061C000CDE90132636800932368264A29461B20FDF7FFF8DAF80030012BBCD14FF6205375
:2061E0004FF0000BCDE9013B6368009323681E4A29462620FDF7EDF8CDF808B04FF620534F
:20620000A0E7094B049A1978E02313FB012318494846194413F0DEFF1B214846FEF78CFDCB
:20622000B8E700BFB7540020C265002012E2010857D7010862D7010872D701087AD701086C
:20624000625400205C0000206154002057DF0108D103002007660020A05F0020045D0020B7
:20626000066600207FD7010881D7010883D7010872DF010804281CD1134B1878404407EE95
:20628000900AF8EEE77A17EE900AFAF75DF90CA3D3E90023FAF7B0F9FAF786FC0C23C1B2FA
:2062A0000093072264232A3140F23510FDF7CAF8C6E6431F58425841C3E600BFAFF3008048
:2062C0006666666666661440066600202DE9F3470A28344FDFF8DC808246054628BF4FF009
:2062E0000A0A3B78012B28D098F80030012B24D00023009340F23912142391210320FDF7A0
:20630000A1F8294B1B78022B1BD1284B1B78DBB1274B1B68072B0CBF4FF00C094FF01F0985
:206320000026B245544615DC092D03D842F20415092C25DD02B0BDE8F0870020FDF70AFA3A
:20634000CFE742F20419EBE74FF00C09E8E70020FDF700FA3B78012BF9D098F80030012B9F
:20636000F5D070010330CDF8009014231922912180B2FDF767F80136D3E70020FDF7EAF9CE
:206380003B78012BF9D098F80030012BF5D060010330009514231922912180B2FDF752F8E7
:2063A0000134C5E7CD65002036670020AE6200209CA50020845E0020F0B5A44B1B6885B00E
:2063C000002B63D0A249A34813F004FF00224FF47844CDE90124A04B5A6800921B689D4ADE
:2063E00078210320FCF7F5FF9C4A9D491378009353789C4892789B4D13F0CCFE00239A4A9B
:206400002846194612F8016B10F8014B0133A6421CBF02F8014C0121082BF3D1002932D063
:20642000924E934C3378012B00F09A812378012B00F096818F4B90491A788648854E8F4F29
:2064400002EB420302EB83028D4B1A4413F0A2FE00248048F9F7BCFE013415F8012B39463C
:20646000304413F097FE082CF3D14CF218620021CDE90121784B5A6800921B68754AB42139
:206480000320FCF7A6FF012005B0F0BD7D4D2B78002B5AD0774A632B12784BD07A496D4C8C
:2064A00002EB420201EB42022046784913F072FE2B78012B05D12046F9F78AFE744920443D
:2064C00082E7022B04D12046F9F782FE7149F6E70E2B04D844F64812DA40D6070FD41A1F28
:2064E000D2B2082A10D840F22B1121FA02F2D50740F13A815748F9F76BFE6749DFE72046E5
:20650000F9F766FE6549DAE70D2B04D15148F9F75FFE6349D3E70F2B04D14E48F9F758FE74
:206520006049CCE7102B7FF451AF4A48F9F750FE5D49C4E702EB420302EB83025B4B5C4941
:2065400044481A4413F026FE40E75A4A1278022A40F0F580584E3368002B00F0DA80574AAD
:206560001488574A127812B9002C00F0D280072B3E4D2DD13E4E2B78012B5FD03378012BFF
:206580005CD03C4B4F491A78324802EB820302EB43024D4B00251A4413F0FCFD1223DC22B6
:2065A000009578215B20FCF74DFF1F222A4B029501925A68009203201B68264A7821FCF71D
:2065C00008FFE0B20A2828BF0A20FFF77FFE0BE7274F2B78012B35D03B78012B32D000232C
:2065E000009340F23712142378210320FCF72AFF2B78012B72D03B78012B6FD033681D4A4D
:20660000032B127873D13149314B09781B68012968D0304901EBC2022F490E4813F0BAFD71
:2066200000251223DC22009578215B20FCF70AFF4FF6E072CDE90152074BBAE70020FDF7B6
:2066400089F898E70020FDF785F8C2E7C86B002085D70108B75400205C00002071660020AA
:2066600033D901084D000020AF540020CD650020845E0020C265002038D801088E820408A5
:20668000A7E90108FF6B00200BE901089FD70108A6D70108B4D70108D1D70108C5D70108EB
:2066A000E8D70108F3D70108FFD701081DE901080BD80108366700209CA50020BC830020E8
:2066C000AE62002019D80108CFE50108848D0020B48300209CE5010824D801080020FDF7A8
:2066E00039F885E7244902EBC2020A4494E7052B05D1224B22491B6802EBC202F5E7214BBC
:206700002149224802EB820203EB820213F042FD86E71F4A1F4B12784CF218611F20CDE90A
:2067200001105968009117491B6802EB820201EB820203207821FCF74CFE0A2045E7144A85
:206740001449127802EB420002EB80024FF62050CDE901304B6800930B680F490A44E8E7EA
:206760000020FCF7F7FF5DE60A2B7FF42FAE0748F9F72EFD0949A2E6F0E50108B4830020CF
:20678000B4E5010844E9010819D80108B7540020C26500205C00002080E90108DDD701080A
:2067A0002DE9F04FA24FDFF804833B789BB053B998F800303BB99F4B1B7823B99E4B1B78A2
:2067C000002B00F0EB803D7898F80020DFF8E0929A49292AD4B218BF994A4FF000031CBFF2
:2067E0001360984A0B6018BF137099F80020EDB20AB9954B1A80954B1B78012B78D1A4F175
:206800005903DBB2092B01D83B3CE4B2904B19780A4319D1462C17D111460320059204F073
:20682000F1FC8C4B8C480221196013F0FFFB0A2013F014FC059A89484FF4807109F06EFBE4
:2068400008F05AFE864B1860864E33680A2B40F04882A4F11E02D1B207297AD8824800235A
:20686000036082480360824B01201860814B1A60814B1970814B392101FB0233804A03F172
:20688000380153F8040B42F8040B8B42F9D11B787C4D13700FCD7C4C0FC495E80F0084E837
:2068A0000F007A4A7A4B0021107818705078587090789870D078D87010791871507958713B
:2068C00090799871D079D8710131107A18720829507A587202F10D0203F10D03E4D16D4B96
:2068E00031600A221A7004F021FF6B4B01223BE0542C8BD0552C89D0562C87D0572C85D0E3
:20690000582C1CD0592C81D05A2C1AD05B2C3FF47DAF5C2C17D05D2C3FF478AF5E2C14D01B
