:020000040800F2
:2000000000000220C9F30008EDE7000805E8000821E8000839E8000851E8000800000000AE
:2000200000000000000000000000000069E800086BE80008000000006DE8000885E800083A
:2000400019F4000819F4000819F4000819F4000819F4000819F4000835E9000819F40008E7
:2000600019F4000819F4000819F4000819F4000819F4000819F4000819F4000819F40008D8
:2000800019F4000819F4000859E9000819F4000819F4000819F4000819F400083BE900086C
:2000A00019F4000819F4000819F4000819F4000819F4000819F4000819F4000819F4000898
:2000C00019F4000819F4000819F4000819F4000819F4000865E9000819F4000819F4000837
:2000E0004FE9000819F4000819F4000819F4000819F4000819F4000819F4000819F400082D
:2001000019F4000819F4000819F4000819F4000819F4000819F4000819F4000871E90008EA
:2001200019F4000819F4000819F4000819F4000819F4000819F4000819F4000819F4000817
:2001400019F4000819F4000819F40008C9E9000819F4000819F4000819F4000819F4000852
:2001600019F4000819F4000819F4000819F4000819F40008D5E9000819F40008000000003B
:2001800019F4000819F40008FFFFFFFFFFFFFFFF10B5054C237833B9044B13B10448AFF39F
:2001A00000800123237010BD600300200000000048CB010808B5034B1BB103490348AFF38C
:2001C000008008BD000000006403002048CB0108034613F8012B002AFBD1181A013870479F
:2001E00001F0FF01102A2BDB10F0070F08D010F8013B013A8B422DD010F0070F42B3F6D1C5
:20020000F0B441EA012141EA014122F007047FF000070023F0E80256083C85EA010586EA71
:20022000010685FA47F5A3FA87F586FA47F6A5FA87F68EB9EED1F0BC01F0FF0102F007026C
:2002400032B110F8013B013A83EA010313B1F8D10020704701387047002D06BF35460338CF
:20026000073815F0010F07D1013015F4807F02BF013015F4C03F0130F0BC0138704700BF93
:2002800081F0004102E000BF83F0004330B54FEA41044FEA430594EA050F08BF90EA020F8D
:2002A0001FBF54EA000C55EA020C7FEA645C7FEA655C00F0E2804FEA5454D4EB5555B8BF63
:2002C0006D420CDD2C4480EA020281EA030382EA000083EA010180EA020281EA0303362D1A
:2002E00088BF30BD11F0004F4FEA01314FF4801C4CEA113102D0404261EB410113F0004F84
:200300004FEA03334CEA133302D0524263EB430394EA050F00F0A780A4F10104D5F1200EC1
:200320000DDB02FA0EFC22FA05F2801841F1000103FA0EF2801843FA05F359410EE0A5F109
:2003400020050EF1200E012A03FA0EFC28BF4CF0020C43FA05F3C01851EBE37101F0004515
:2003600007D54FF0000EDCF1000C7EEB00006EEB0101B1F5801F1BD3B1F5001F0CD349088F
:200380005FEA30004FEA3C0C04F101044FEA445212F5800F80F09A80BCF1004F08BF5FEA6E
:2003A000500C50F1000041EB045141EA050130BD5FEA4C0C404141EB0101013C28BFB1F5E7
:2003C000801FE9D291F0000F04BF01460020B1FA81F308BF2033A3F10B03B3F120020CDA82
:2003E0000C3208DD02F1140CC2F10C0201FA0CF021FA02F10CE002F11402D8BFC2F1200C96
:2004000001FA02F120FA0CFCDCBF41EA0C019040E41AA2BF01EB0451294330BD6FEA0404CF
:200420001F3C1CDA0C340EDC04F11404C4F1200220FA04F001FA02F340EA030021FA04F320
:2004400045EA030130BDC4F10C04C4F1200220FA02F001FA04F340EA0300294630BD21FA3E
:2004600004F0294630BD94F0000F83F4801306BF81F480110134013D4EE77FEA645C18BF1C
:200480007FEA655C29D094EA050F08BF90EA020F05D054EA000C04BF1946104630BD91EA56
:2004A000030F1EBF0021002030BD5FEA545C05D14000494128BF41F0004130BD14F58004B3
:2004C0003CBF01F5801130BD01F0004545F0FE4141F470014FF0000030BD7FEA645C1ABF2F
:2004E000194610467FEA655C1CBF0B46024650EA013406BF52EA033591EA030F41F400211E
:2005000030BD00BF90F0000F04BF0021704730B54FF4806404F132044FF000054FF000014A
:2005200050E700BF90F0000F04BF0021704730B54FF4806404F1320410F0004548BF404296
:200540004FF000013EE700BF42004FEAE2014FEA31014FEA02701FBF12F07F4393F07F4F10
:2005600081F06051704732F07F4208BF704793F07F4F04BF41F40021704730B54FF4607424
:2005800001F0004521F000411CE700BF50EA010208BF704730B54FF000050AE050EA010206
:2005A00008BF704730B511F0004502D5404261EB41014FF4806404F132045FEA915C3FF4F0
:2005C000D8AE4FF003025FEADC0C18BF03325FEADC0C18BF033202EBDC02C2F1200300FA3C
:2005E00003FC20FA02F001FA03FE40EA0E0021FA02F11444BDE600BF70B54FF0FF0C4CF445
:20060000E06C1CEA11541DBF1CEA135594EA0C0F95EA0C0F00F0DEF82C4481EA030621EAF1
:200620004C5123EA4C5350EA013518BF52EA033541F4801143F4801338D0A0FB02CE4FF074
:200640000005E1FB02E506F00042E0FB03E54FF00006E1FB03569CF0000F18BF4EF0010E9E
:20066000A4F1FF04B6F5007F64F5407404D25FEA4E0E6D4146EB060642EAC62141EA555161
:200680004FEAC52040EA5E504FEACE2EB4F1FD0C88BFBCF5E06F1ED8BEF1004F08BF5FEA36
:2006A000500E50F1000041EB045170BD06F0004646EA010140EA020081EA0301B4EB5C04E5
:2006C000C2BFD4EB0C0541EA045170BD41F480114FF0000E013C00F3AB8014F1360FDEBFC7
:2006E000002001F0004170BDC4F10004203C35DA0C341BDC04F11404C4F1200500FA05F347
:2007000020FA04F001FA05F240EA020001F0004221F0004110EBD37021FA04F642EB0601A1
:200720005EEA430E08BF20EAD37070BDC4F10C04C4F1200500FA04F320FA05F001FA04F24F
:2007400040EA020001F0004110EBD37041F100015EEA430E08BF20EAD37070BDC4F1200516
:2007600000FA05F24EEA020E20FA04F301FA05F243EA020321FA04F001F0004121FA04F2B9
:2007800020EA020000EBD3705EEA430E08BF20EAD37070BD94F0000F0FD101F0004640005B
:2007A00041EB010111F4801F08BF013CF7D041EA060195F0000F18BF704703F000465200BD
:2007C00043EB030313F4801F08BF013DF7D043EA0603704794EA0C0F0CEA135518BF95EA39
:2007E0000C0F0CD050EA410618BF52EA4306D1D181EA030101F000414FF0000070BD50EA3C
:20080000410606BF1046194652EA430619D094EA0C0F02D150EA013613D195EA0C0F05D178
:2008200052EA03361CBF104619460AD181EA030101F0004141F0FE4141F470014FF00000E2
:2008400070BD41F0FE4141F4780170BD70B54FF0FF0C4CF4E06C1CEA11541DBF1CEA135570
:2008600094EA0C0F95EA0C0F00F0A7F8A4EB050481EA030E52EA03354FEA013100F08880CB
:200880004FEA03334FF0805545EA131343EA12634FEA022245EA111545EA10654FEA002629
:2008A0000EF000419D4208BF964244F1FD0404F5407402D25B084FEA3202B61A65EB0305CC
:2008C0005B084FEA32024FF480104FF4002CB6EB020E75EB030E22BFB61A754640EA0C0042
:2008E0005B084FEA3202B6EB020E75EB030E22BFB61A754640EA5C005B084FEA3202B6EBA3
:20090000020E75EB030E22BFB61A754640EA9C005B084FEA3202B6EB020E75EB030E22BF51
:20092000B61A754640EADC0055EA060E18D04FEA051545EA16754FEA06164FEAC30343EA5D
:2009400052734FEAC2025FEA1C1CC0D111F4801F0BD141EA00014FF000004FF0004CB6E7B0
:2009600011F4801F04BF01430020B4F1FD0C88BFBCF5E06F3FF6AFAEB5EB030C04BFB6EB12
:20098000020C5FEA500C50F1000041EB045170BD0EF0004E4EEA113114EB5C04C2BFD4EB50
:2009A0000C0541EA045170BD41F480114FF0000E013C90E645EA060E8DE60CEA135594EA21
:2009C0000C0F08BF95EA0C0F3FF43BAF94EA0C0F0AD150EA01347FF434AF95EA0C0F7FF438
:2009E00025AF104619462CE795EA0C0F06D152EA03353FF4FDAE1046194622E750EA410659
:200A000018BF52EA43067FF4C5AE50EA41047FF40DAF52EA43057FF4EBAE12E74FF0FF3CE3
:200A200006E000BF4FF0010C02E000BF4FF0010C4DF804CD4FEA410C7FEA6C5C4FEA430C83
:200A400018BF7FEA6C5C1BD001B050EA410C0CBF52EA430C91EA030F02BF90EA020F00201C
:200A6000704710F1000F91EA030F58BF994208BF90422CBFD8176FEAE37040F00100704729
:200A80004FEA410C7FEA6C5C02D150EA013C07D14FEA430C7FEA6C5CD6D152EA033CD3D0FF
:200AA0005DF8040B704700BF8446104662468C461946634600E000BF01B5FFF7B7FF002891
:200AC00048BF10F1000F01BD4DF808EDFFF7F4FF0CBF012000205DF808FB00BF4DF808EDC1
:200AE000FFF7EAFF34BF012000205DF808FB00BF4DF808EDFFF7E0FF94BF012000205DF8D4
:200B000008FB00BF4DF808EDFFF7CEFF94BF012000205DF808FB00BF4DF808EDFFF7C4FF78
:200B200034BF012000205DF808FB00BF4FEA410C7FEA6C5C02D150EA013C0AD14FEA430C06
:200B40007FEA6C5C02D152EA033C02D14FF0000070474FF0010070474FEA410212F50012C1
:200B600015D211D56FF47873B3EB625212D94FEAC12343F0004343EA505311F0004F23FA4D
:200B800002F018BF404270474FF00000704750EA013005D111F0004008BF6FF000407047BE
:200BA0004FF00000704700BF4A0011D212F5001211D20DD56FF47873B3EB62520ED44FEABA
:200BC000C12343F0004343EA505323FA02F070474FF00000704750EA013002D14FF0FF3083
:200BE00070474FF0000070474FEA4102B2F1E04324BFB3F5001CDCF1FE5C0DD901F0004C15
:200C00004FEAC0024CEA5070B2F1004F40EB830008BF20F00100704711F0804F21D113F1EE
:200C20003872BCBF01F00040704741F480114FEA5252C2F11802C2F1200C10FA0CF320FA35
:200C400002F018BF40F001004FEAC1234FEAD32303FA0CFC40EA0C0023FA02F34FEA430382
:200C6000CCE77FEA625307D150EA01331EBF4FF0FE4040F44000704701F0004040F0FE4039
:200C800040F40000704700BF53B94AB9002908BF00281CBF4FF0FF314FF0FF3000F074B9AE
:200CA000ADF1080C6DE904CE00F006F8DDF804E0DDE9022304B070472DE9F047089D044621
:200CC0008E46002B4DD18A42944669D9B2FA82F252B101FA02F3C2F1200120FA01F10CFA16
:200CE00002FC41EA030E94404FEA1C48210CBEFBF8F61FFA8CF708FB16E341EA034306FB6B
:200D000007F199420AD91CEB030306F1FF3080F01F81994240F21C81023E63445B1AA4B27E
:200D2000B3FBF8F008FB103344EA034400FB07F7A7420AD91CEB040400F1FF3380F00A8170
:200D4000A74240F207816444023840EA0640E41B00261DB1D4400023C5E900433146BDE867
:200D6000F0878B4209D9002D00F0EF800026C5E9000130463146BDE8F087B3FA83F6002E8F
:200D80004AD18B4202D3824200F2F980841A61EB030301209E46002DE0D0C5E9004EDDE7D5
:200DA00002B9FFDEB2FA82F2002A40F09280A1EB0C014FEA1C471FFA8CFE0126200CB1FB38
:200DC000F7F307FB131140EA01410EFB03F0884208D91CEB010103F1FF3802D2884200F22C
:200DE000CB804346091AA4B2B1FBF7F007FB101144EA01440EFB00FEA64508D91CEB04049B
:200E000000F1FF3102D2A64500F2BB800846A4EB0E0440EA03409CE7C6F12007B34022FAF9
:200E200007FC4CEA030C20FA07F401FA06F31C43F9404FEA1C4900FA06F3B1FBF9F8200C6F
:200E40001FFA8CFE09FB181140EA014108FB0EF0884202FA06F20BD91CEB010108F1FF3A78
:200E600080F08880884240F28580A8F102086144091AA4B2B1FBF9F009FB101144EA01410E
:200E800000FB0EFE8E4508D91CEB010100F1FF346CD28E456AD90238614440EA0840A0FB2A
:200EA0000294A1EB0E01A142C846A64656D353D05DB1B3EB080261EB0E0101FA07F722FAB2
:200EC00006F3F1401F43C5E9007100263146BDE8F087C2F12003D8400CFA02FC21FA03F3AB
:200EE000914001434FEA1C471FFA8CFEB3FBF7F007FB10360B0C43EA064300FB0EF69E4255
:200F000004FA02F408D91CEB030300F1FF382FD29E422DD9023863449B1B89B2B3FBF7F673
:200F200007FB163341EA034106FB0EF38B4208D91CEB010106F1FF3816D28B4214D9023E2E
:200F40006144C91A46EA004638E72E46284605E70646E3E61846F8E64B45A9D2B9EB02089C
:200F600064EB0C0E0138A3E74646EAE7204694E74046D1E7D0467BE7023B614432E73046E0
:200F800009E76444023842E7704700BF70B500258EB004462422294605A8049518F0D0FA41
:200FA00042238DF800304D238DF801302A4BCDF80A501B688DF802301A0A8DF803201A0C31
:200FC0001B0E8DF804208DF80530F02236238DF80A308DF81820282318228DF810308DF8CF
:200FE0001E2040232C22C4218DF814308DF8252001230E228DF815308DF81C308DF82630C0
:201000008DF829208DF82D208DF83130CDF806508DF828108DF82C106A46234602AE15468D
:2010200003CDB542186059602A4603F10803F6D128681860AA889A8004AD04F10E030EACBD
:201040002A4603CAA24218605960154603F10803F6D10EB070BD00BF0000002037B5094C12
:201060000190656810F0D8FA019B074AB0FBF2F0584301906368019A5B1B9342FAD303B069
:2010800030BD00BF001000E040420F0030B587B004460D461422002101A818F051FA2946A8
:2010A000204601220EF016FF11220023CDE9022301A903232046019504930EF093FD07B0BB
:2010C00030BD30B587B004460D461422002101A818F036FA0122294620460EF0FBFE002320
:2010E00001A92046CDE9023301950EF07BFD07B030BD00002DE9F84F254B264F93F80080F8
:2011000000263546F3B298450BD8234B187809F0D9FB1DB101200AF055F801252846BDE88F
:20112000F88F07EB43124FEA431AD17D69B301249C40E0B209F0C6FB4FF08C0B002002F0AC
:2011400009FBBBF1010BF9D107EB0A0957F80A00B9F80410FFF7B5FFB9F8041057F80A001E
:201160000EF0B2FE0C4A63B2147828B12343137089F81AB00136C5E724EA0303137001231F
:201180001D4489F81A30EDB2F4E79176F2E700BF3E220208005D0020E05C002008B50548BD
:2011A000012280210EF096FE09F0B4FBBDE80840FFF7A0BF001002407FB50C4604A901E980
:2011C0000C001646BDF80C1001910546002230460EF080FE2846FFF741FF3046019901220E
:2011E0000EF078FE204604B0BDE87040FFF736BF82B06B4683E806000CCB20B905213C209B
:2012000002B0FFF7D9BF3C210520F9E773B56D4685E806000646002446FA04F095E80600B7
:2012200000F001000134FFF7E3FF082CF4D102B070BD30B585B002AB83E803000A210CCBA1
:201240000120FFF7B9FF029DBDF80C1001912846FFF737FF019928460EF036FE0446282057
:20126000FFF7FCFE28460199FFF710FF201E18BF012005B030BD73B56E4686E80300002527
:201280002C4696E80300FFF7D4FFA84001350444082DE4B2F5D1204602B070BD30B585B03C
:2012A00002AB83E8030046210CCB4FF4FA70FFF783FF029DBDF80C1001912846FFF701FF4A
:2012C000019928460EF000FE019904462846FFF7DDFE4FF4C870FFF7C1FEB4FA84F040094C
:2012E00005B030BD84B008B50DF1080C8CE80F00DCE90001FFF7D2FFBDE80840013818BF3C
:20130000012004B0704784B007B50DF1100C8CE80F00DCE90001FFF7C1FF01281BD104AB74
:2013200093E80600CC20FFF771FF04AB93E806004420FFF76BFF04AA92E803006B4683E89F
:201340000300FFF798FF003818BF012003B05DF804EB04B070470120F8E7000008B54378F3
:20136000007800EB0320DB0980B20CD0404280B2FFF7D8F8064B0022FFF73EF9FFF734FCB5
:2013800000EE100A08BDFFF7CDF8024B0022F3E70000B0BF0000B03F73B56C4684E80600D2
:2013A000054694E80300FFF779FFE0B194E80600CC20FFF72BFF94E80600BE20FFF726FF5B
:2013C0006E1E083594E80300FFF755FF06F8010FAE42F7D194E80300FFF760FFB0FA80F0C7
:2013E000400902B070BD0120FBE737B56C4684E80600054694E80300FFF750FF10B90120B9
:2014000003B030BD94E80600CC20FFF7FFFE94E806004E20FFF7FAFE94E80600A878FFF755
:20142000F5FE94E80600E878FFF7F0FE94E806002879FFF7EBFE94E80300FFF72FFF002826
:20144000DDD094E80600CC20FFF7E0FE94E806004820FFF7DBFE142002F07CF90020CFE773
:2014600010B586B06B4683E80600002204468DF8102003A893E80600FFF78EFFA0B99DF891
:2014800010301F2B03D10923237006B010BD3F2B01D10A23F8E75F2B01D10B23F4E77F2B55
:2014A00001D10C23F0E720700120EEE730B587B06D4685E806000446002395E806000DF19E
:2014C0000B008DF80B30FFF7CBFF10B1012007B030BD9DF80B30A342F9D0092C1ED00A2C24
:2014E0001ED00B2C1ED00C2C0CBF7F231F2395E8060003A88DF81030FFF777FF0028E5D1B5
:2015000095E806000DF10B00FFF7AAFF0028DDD19DF80B30181B18BF0120D8E71F23E6E701
:201520003F23E4E75F23E2E730B593B0C3790493837903934379029303790193C378009377
:201540000DAD0C46837842781649284618F0FEFD95E803009DF83F308DF82E309DF840308E
:201560008DF81C309DF84130BDF83D2008908DF81D30DDF839008DF8241007AB00250A90E0
:20158000ADF82C20009308498DF825500AAB08AA20468DF82F508DF81F5018F0D7FDA573C3
:2015A00013B030BD99CB0108B6CB010870B40379C67944790A46817946EA036643F3C015FA
:2015C0002404C37844EA012481782B44457803EB012144EA060001EB054170BC0CF0A6BD2F
:2015E00030B50246014400208A4200D130BD12F8015B082480EA050313F0010F4FEA50002F
:201600001CBF80F08C03D8B2631E13F0FF044FEA5505EFD1E8E7000070B52DED028B424A65
:2016200086B0516804461068127A03AB03C394E803001A7001AB83E80300B0EE408AFFF778
:201640001AFE08B9012548E094E80300FFF726FE0028F7D094E80600CC20FFF7D7FD94E827
:201660000600BE20FFF7D2FD03AE092594E80300FFF701FE013D15F0FF0506F8010BF5D157
:20168000082103A8FFF7ACFF9DF81430834244D19DF80D309DF80C00DE0900EB032080B288
:2016A00020D0404280B2FEF73DFF204B0022FEF7A3FFFFF799FA07EE900A37EE880A10EE64
:2016C000100A84ED040AFEF73FFF194B0022FEF793FFFFF769FA4042A082284606B0BDEC67
:2016E000028B70BDFEF71EFF124B0022FEF784FFFFF77AFA07EE900A37EE880A354610EEFE
:20170000100A84ED040AFEF71FFF094B0022FEF773FFFFF749FAA082DFE7074818F062FC6A
:201720000A2018F077FC8DE760CB01080000B0BF000030400000B03FBDCB0108F0B58BB01D
:2017400006AD85E80600244A0646D2F80D10D2F8090008AB03C395E80300FFF79FFD00283C
:2017600038D095E806003320FFF750FD08AF082495E80300FFF77FFD013C14F0FF0407F830
:20178000010BF5D1072108A8FFF72AFF9DF82730834206D108AB03CB3060716020460BB0F5
:2017A000F0BD04939DF8263003939DF8253002939DF8243001939DF8233000939DF8212017
:2017C0009DF822309DF82010044818F00BFC0A2018F020FC0124E1E760CB0108DFCB0108E0
:2017E0002DE9F04F2DED028BB24B1B7891B0012B05900C4602D1B04810F0E2FA059B23F0AF
:201800000203012B40F0AC80DFF8C8A2DFF8C8B2254626464FF00008B446BCE80F0008AF27
:201820000FC79CE80F0087E80F0008AF97E80300FFF734FD012836D106F11B0996E8060092
:201840004846FFF70DFE96E806004846FFF708FEF37E9AF800209A4225D0FF2B06D1974817
:20186000414618F0BFFB0A2018F0D4FB4FF00A099AF80000F37E834215D096E8060009F1A1
:20188000FF39FFF713FE19F0FF0903D0002001F061FFEDE7F27E08F10101584618F0A2FB32
:2018A0000A2018F0B7FB08F10108B8F1080F06F12006B1D104F580734FF0000B0693D946F5
:2018C000069B9D420AD1059B032B40F09C800025284611B0BDEC028BBDE8F08F4FF00A0A92
:2018E0004FF0020805F1100696E80F008DE80F0095E80F00FFF7F6FCAE46BEE80F00BC4663
:20190000ACE80F0096E80F008CE80F0097E80300FFF7C4FC012805D0EB7D85F816905BB93F
:201920002035CDE7A87596E80F008DE80F0095E80F00FFF7E8FC8046BAF1010AEB7D09D04D
:20194000012B03D185F8189085F81E90B8F1000FCAD1E5E7012BE3D12B76AB779B46DFE7CE
:20196000059B002B4DD109F00BFCDDF814B0DFF86CA19FED538A083401260025A4F1080370
:2019800007930223002706930DF12008A37B0BB3A4F1080EBEE80F000DF1200CACE80F0099
:2019A0009EE80F008CE80F0098E80300FFF776FC0128814641D0002323606360E37B002B31
:2019C00054D1DFF81C910A274FF00208A37B002B40F08880E37B012B00D123740136092E03
:2019E0000AF1020A04F12004C8D1059B7BB9002D3FF46DAF334818F0F5FA0A2018F00AFB35
:201A000066E74FF0000B059B022BB0D00025294B1B78012B02D1284810F0C2F9002D3FF42C
:201A200056AFBBF1000F3FF452AF274818F0DAFA0A2018F0EFFA5D464AE7079B404693E8D5
:201A40000600FFF77BFEC0B13946204818F0CAFA0A2018F0DFFA00220698A28184ED028A02
:201A600084F8109084F815904D460690092F0FD0069B0137002B89D1A3E760754146E31DA5
:201A800011F8012B1A70A34203F1FF33F8D1ECE7E77B012F95D131460D4818F0A3FA0A204D
:201AA00018F0B8FA0023A38184ED028A27746775BB4686E7BC650020FC6400201DCC010890
:201AC0000000000090CC0108A1CC010854CC01086BCC01087400002039CC01083A66002060
:201AE00030010020BAF90000FEF71CFD204B0022FEF7ACFEFFF778F800EE100A0798FFF7A5
:201B00008BFDA37B002818BF0125012B1CD199F80030D4ED027A012B0BD0B2EE027A67EE6B
:201B2000877AF1EE046A87EEA67ADFED127A77EE277AC4ED027A4FF00008013F0AD0B8F12D
:201B4000000F7FF443AF49E7E37B84ED028A002BF3D143E7E77B012F7FF440AF31460648B4
:201B600018F040FA0A2018F055FABB46277435E700002440000000427BCC010808B50B48E4
:201B80000B4A0C4BC0E9002300234FF48042C0E90233C0E90423C0E9063303620EF0D6FEDE
:201BA00018B1BDE808400AF0F3B808BD9863002000540040A086010070B50E4D0E4E044609
:201BC000012086B028703078012808D00A98009020460EF07DFF00232B7006B070BD00209A
:201BE000CDE90423039101F0B5FDDDE904230399E9E700BF2F660020805E002070B50E4D86
:201C00000E4E0446012086B028703078012808D00A98009020460FF033F800232B7006B050
:201C200070BD0020CDE90423039101F093FDDDE904230399E9E700BF2F660020805E00209A
:201C4000030903EB830300F00F0000EB4300C0B270470A23B0FBF3F3C3EB4312C3EB8202BB
:201C600000EB420040EA0310C0B2704710B5052386B0044602223E48D0210FF071F950B15F
:201C80003C4818F0AFF90A2018F0C4F9FFF776FF012006B010BD8DF810002078FFF7D9FF17
:201CA0008DF811006078FFF7D4FF8DF81200A078FFF7CFFF8DF81300E078FFF7CAFF8DF846
:201CC00014002079FFF7C5FF8DF815006079FFF7C0FF8DF81600A079FFF7BBFF64238DF805
:201CE000170000932248082304AAD021FFF764FF08B12148C5E702A800F042F808B11F48EB
:201D0000BFE79DF80900237862789DF808108B4208BF8242A2789DF80A300CBF0120002010
:201D20009A4214BF002000F00100A2799DF80E309A4214BF002000F0010062799DF80D3088
:201D40009A4214BF002000F0010022799DF80C309A4214BF002000F00100E2789DF80B306D
:201D60009A4214BF002000F0010080F0010090E798630020B7CC0108E4CC0108FFCC010887
:201D80002DE9F043052389B0044602225D48D0210FF0E6F8B0B1FFF7F1FE642001F0DAFC27
:201DA000584805230222D0210FF0DAF850B1564818F018F90A2018F02DF90122104609B033
:201DC000BDE8F08364254F4F2E46009601230022D0213846FFF7F0FE40B14C4818F002F999
:201DE0000A2018F017F9FFF7C9FEE6E702AA00960723D0213846FFF701FF024608B14448B9
:201E0000ECE700960123D0213846FFF7D5FE08B14048E3E704AA00960723D0213846FFF71F
:201E2000EDFE024608B13C48D8E7844602A904AB012011F8018B13F801EB0CF1010CF04563
:201E400018BF0020BCF1070FF3D1013D01D00028BBD09DF80800FFF7F3FE804620709DF8D3
:201E60000900FFF7EDFE814660709DF80A00FFF7E7FE0146A0709DF80B00FFF7E1FE07464E
:201E8000E0709DF80C00FFF7DBFE064620719DF80D00FFF7D5FE607105469DF80E00FFF785
:201EA000CFFEB9F13B0F98BF17298CBF01210021B8F13B0F88BF41F00101013F062F88BF13
:201EC00041F00101013E1E2E88BF41F00101A07119B9013D0B2D7FF671AF0023012406A8E6
:201EE0008DF818308DF819308DF81A308DF81B408DF81C408DF81D408DF81E30FFF7B6FE58
:201F000022465BE7986300201ACD0108E4CC010849CD010867CD010882CD01081FB5642344
:201F20008DF80C008DF80D1000930948022303AAD021FFF741FE40B1064818F053F80A20D6
:201F400018F068F8FFF71AFE012005B05DF804FB98630020A0CD010830B585B0FA250C46C5
:201F60008DF8080000951048012302AAD021FFF723FE50B10D4818F035F80A2018F04AF810
:201F8000FFF7FCFD012005B030BD07480095012303AAD021FFF732FE08B10548EBE79DF856
:201FA0000C302370EFE700BF98630020A0CD0108C4CD01082DE9F3410646084617461D46EE
:201FC000FFF747FE04463846FFF743FE80462846FFF73FFE07469DF82000FFF73AFEF20737
:201FE00044BF64F07F04E4B2B30748BF68F07F08054648BF5FFA88F8700744BF67F07F074F
:20200000FFB2310744BF65F07F05EDB2F20644BF45F04005EDB2330623D421460720FFF794
:202020007DFF48B1314817F0DDFF0A2017F0F2FF012002B0BDE8F0810DF107010720FFF7A1
:202040008BFF08B12A48EEE79DF80700041B18BF0124082641463046FFF760FF20B1254881
:20206000E1E700240B26F5E70DF107013046FFF773FF08B12048D6E79DF80730434518BF7A
:20208000601C06F1010818BFC4B239464046FFF745FF08B11948C6E70DF107014046FFF7EF
:2020A0005BFF08B11648BEE79DF80730BB4218BF601C06F1020618BFC4B229463046FFF7C7
:2020C0002DFF08B10F48AEE70DF107013046FFF743FF08B10C48A6E79DF80730AB4201D057
:2020E0000A48A0E7201E18BF0120A2E7EBCD01080FCE010832CE010856CE010879CE01081B
:202100009DCE0108C0CE0108E4CE010807CF010837B504460D460E206946FFF71DFF40B1B1
:20212000164817F05FFF0A2017F074FF012003B030BD0123013C03FA04F49DF80030012D2E
:2021400006BF43EA0401C9B223EA04010E208DF80010FFF7E3FE08B10948E2E701A90E20B6
:20216000FFF7FAFE08B10748DBE79DF800209DF804309A42DBD00448D3E700BF2CCF0108D9
:2021800056CF01087DCF0108A3CF010837B504460D460F206946FFF7DFFE40B1174817F0B0
:2021A00021FF0A2017F036FF012003B030BD631E9DF80020012404FA03F312EA03001AD0A0
:2021C00022EA03010F208DF80010FFF7A7FE08B10B48E4E701A90F20FFF7BEFE08B1094824
:2021E000DDE79DF800209DF804309A4201D12C70DBE70548D3E72870D7E700BFCBCF0108D2
:20220000E8CF010806D0010823D0010813B50C460F2001A9FFF7A0FE40B1074817F0E2FE75
:202220000A2017F0F7FE012002B010BD9DF8043023F07F032370F7E742D0010813B50446DC
:2022400069460E20FFF788FE40B1154817F0CAFE0A2017F0DFFE012002B010BD9DF80010B5
:20226000032C9BBF21F01C0141EAC40141F00401C9B20E208DF80010FFF750FE08B10948F5
:20228000E4E701A90E20FFF767FE08B10648DDE79DF800209DF804309A42DDD00348D5E767
:2022A00064D0010886D00108A9D00108CBD0010870B586B00CF0C0FC0446C8B93348344D82
:2022C000324E17F08FFE0A2017F0A4FE0CF0B4FC00284FD1304617F085FE0A2017F09AFE5A
:2022E00001344FF4FA70E4B201F034FA032CEDD9284C294D002001F02DFA2378072B41D052
:202300004FF4FA7001F026FA4FF4FA7001F022FA4FF4FA7001F01EFA4FF4FA7001F01AFADD
:2023200001231E482B7017F05DFE0A2017F072FE0CF0E2FB1A4AD4F801301360194B1A4802
:202340005B685360237A0493E3790393A37902936379019323790093E378A278617817F03C
:2023600041FE0A2017F056FE2878431E5842584106B070BD284617F035FE0A2017F04AFE61
:202380000424ADE700232B70D2E700BFEFD0010801D10108A06600207C03002011D10108F8
:2023A000F75C0020A166002022D1010838B5214D00052B8800F57E22B3EB124F16D2020CEA
:2023C000B3EB104F4FF0000038BF2A8001F0C2F90022288811460CF0DFFD10B928880CF0FE
:2023E000E5FC2B8801332B80022021E0FCD1124C2388B3EB123F17D200F57020020BB3EB69
:20240000103F4FF0000038BF228001F0A3F90022208811460CF022FD10B920880CF086FCDD
:20242000238801332380DFE7DED100202880208038BD00BF940300209603002038B51C4DC3
:2024400000052B8800F57E22B3EB124F11D2B3EB104F4FEA10424FF0000038BF2A8001F0F4
:2024600079F928880CF0F4FE2B8801332B8002201CE0FCD10F4C2388B3EB123F12D200F501
:202480007020B3EB103F4FEA10324FF0000038BF228001F05FF920880CF0B0FE23880133F2
:2024A0002380E4E7E3D100202880208038BD00BFB0030020B203002030B51B4C000523883A
:2024C00000F57E22B3EB122FC1B00D4627D2B3EB102F4FEA10224FF0000038BF228001F0BA
:2024E00039F94FF480730022684621880CF016FF00226B46104613F8011B0130A94218BFA7
:202500000132B0F5807FF6D122B100232380012041B030BD2388013323800220F8E7FCD135
:2025200000202080F4E700BF7E03002038B5214C0005238800F57E22B3EB124F19D2020C09
:20254000B3EB104F4FF0000038BF228001F002F90022208811460CF01FFD20B123880133D1
:202560002380022004E0144A002323801380012038BDF6D1104D2B88B3EB123F15D200F543
:202580007020020BB3EB103F4FF0000038BF2A8001F0E0F80022288811460CF05FFC002860
:2025A000E1D02B8801332B80DBE7DAD1002020802880DDE7980300209A0300202DE9F0477A
:2025C0000023C0B006031A460C464FEA005A314668460CF0A3FE04F13903002213F80119E0
:2025E000202903D11978202908BF5A70A342F5D1671EE94604F138086A463B4600254345E1
:202600002AD1002D3CD023466A4604F1380C18685968144603C4083363452246F7D11B782C
:20262000237000224FEA1A34114620460CF016FC8246D0B100231A46314668460CF08AFD1F
:2026400000231A46314668460CF068FE47451BD1003D18BF012513E012F8011B13F8010F8A
:2026600088421CBF0135EDB2C9E720460CF05EFB5246514620460CF0F1FB0028DAD10125FF
:20268000284640B0BDE8F08719F8013B17F8012F9A421CBF0135EDB2D8E710B5C0B00C4662
:2026A0004FF480730103002268460CF037FE214604F139006B460024814202D1002040B0CF
:2026C00010BD13F8012BFF2A14BF0A700C700131F2E72DE9F041C4B001AC0B7823704B78B8
:2026E00063708B78A370CB78E3700B7923714B7963718B79A371CB79E3710B7A23720005DC
:202700004B7A637200F57E258B7AA3724FEA152800231A46414604A80CF000FE04AE002372
:20272000274632462146184611F801EB12F801CBE64518BF013003F1010318BFC0B20B2B7A
:20274000F2D1002839D094E8070004AB03C323F8022B120C1A702D0B0022114628460CF082
:202760007DFB0446F0B100231A46414604A80CF0F1FC00231A4604A841460CF0CFFD0023B6
:20278000184617F8011B16F8012B914218BF013003F1010318BFC0B20B2BF2D1003818BF52
:2027A00001200AE028460CF0C1FA2246214628460CF054FB0028D6D1012044B0BDE8F08167
:2027C00010B50C460105C0B001F57E2168464FF480730022090A0CF0A1FD9DF800302370CC
:2027E0009DF8013063709DF80230A3709DF80330E3709DF8043023719DF8053063719DF8BB
:202800000630A3719DF80730E3719DF8083023729DF8093063729DF80A30A372002040B055
:2028200010BD000010B5304C0005226800F580431B0A9342C0B051D900F58050B2EB102F0E
:202840004FEA10234FF0000038BF236000F082FF21684FF48073002268460CF05FFD69464C
:20286000002311F8012BFF2A0BD12168FE200DF8030003EB01210CF02DFC0020206040B087
:2028800010BD12B3FE2A08D1FC220DF8032021681DF8030003EB0121EDE7FC2A01D1F822C8
:2028A000F3E7F82A01D1F022EFE7F02A01D1E022EBE7E02A01D1C022E7E7C02A01D18022B8
:2028C000E3E7802AE3D10022DFE70133B3F5807FC7D12368013323600220D0E7FCD100236A
:2028E00023600120CBE700BFAC03002038B5040504F58054240BA51C0022114628460CF05E
:20290000ADFA08B9280138BD01340022114620460CF0A4FA08B92001F5E70020F3E70000CB
:20292000F0B5314C03050E4603F580422168120A8A42C1B0054652D903F58053B1EB132F5E
:202940004FEA13274FF0000038BF276000F002FF216800224FF4807368460CF0DFFC6A4640
:20296000002112F8013BFF2B0AD12368DB1B01EB0323DB00002046F82530206041B0F0BDAC
:2029800023B3FE2B194A09D1012313702368DB1B01EB0323117801EBC303EBE7FC2B01D1BB
:2029A0000223F2E7F82B01D10323EEE7F02B01D10423EAE7E02B01D10523E6E7C02B01D1B5
:2029C0000623E2E7802BE1D10723DEE70131B1F5807FC6D12368013323600220CEE7FCD165
:2029E000002323600120C9E7A40300209C03002030B587B013788DF8043053788DF80530F5
:202A000093788DF80630D3788DF8073013798DF8083053798DF8093093798DF80A30D379FF
:202A20008DF80B30137A8DF80C30537A8DF80D30937A8DF80E30D37A8DF80F30137B8DF805
:202A40001030537B8DF81130937B8DF81230D37B8DF813301324137C1F4D8DF81430614318
:202A6000537C8DF8153001EB0050937C8DF816302A6800F5804323449A422AD200F5804465
:202A8000A2424FF0000038BF2C6000F063FE29680B1B18336B4413F8140C0CF01BFB0DF153
:202AA000030029680CF0FCFB2B681C1B04F118020DEB02049DF8032014F8141C914217BF1B
:202AC000002301332B60012004BF2B60022007B030BD00202860FAE7A803002037B5132468
:202AE00061432B4D01EB005000F5804329682344994218D200F58044A1424FF0000038BF37
:202B00002C6000F027FE29680DF107000CF0C8FB2B68204A9DF807101C1B013311552B60BA
:202B2000022003B030BD1C4B1120002113F8014BFF2C08BF03F8011C0138F7D1154B1978C7
:202B400011705978517099789170D978D170197911715979517199799171D979D171197ADB
:202B60001172597A5172997A9172D97AD172197B1173597B5173997B9173D97BD173197C9B
:202B80001174597C51749B7C93742860C9E700BFA00300208003002082030020F0B50388C6
:202BA000D3B00DF10D028DF804301B0A8DF8053043888DF806301B0A8DF8073003798DF885
:202BC000083043798DF8093083798DF80A30C3798DF80B30037A8DF80C3000F1290100F142
:202BE000090353F8044B42F8044B8B42F9D1D0F82920CDF82D209B88ADF8313000F130039F
:202C00000DF1330450301A4652F8041B090A824204F8011BF8D10DF13B0253F8041B02F8DF
:202C2000011B8342F9D100231A4647F6F07112A80CF074FB01AD12AC0022234629461046E7
:202C400011F8017B13F8016BB74218BF013002F1010218BFC0B2412AF2D1002839D001A92F
:202C600012A816F045FC0022114640F2FF700CF0F5F8064600B300231A4647F6F07112A876
:202C80000CF068FA00231A4612A847F6F0710CF045FB0023184615F8011B14F8012B91420A
:202CA00018BF013003F1010318BFC0B2412BF2D1003818BF01200CE040F2FF700CF036F8B5
:202CC0003246314640F2FF700CF0C8F80028D2D1012053B0F0BD10B5C0B04FF4807300227F
:202CE00047F6F071044668460CF018FB00236A46194612F8010B0133FF2808BF02F8011CAE
:202D0000412BF6D19DF801209DF8003003EB022323809DF803209DF8023003EB02236380DA
:202D20009DF8053063719DF80630A3719DF80730E3719DF80830237204F109020DF109038A
:202D40000DF1290153F8040B42F8040B8B42F9D1DDF82920C4F829209B88A4F82D3004F1DD
:202D600030030DF12F0050341A4610F8011B090242F8041B9442F8D10DF13701186811F829
:202D8000012B024443F8042B9C42F7D1002040B010BD00000248002280210DF09BB800BFB8
:202DA000000C02400248012280210DF093B800BF000C024010B5084C0022202120460DF083
:202DC00089F805200CF07AFB20460122BDE8104020210DF07FB800BF000C024007B50023FD
:202DE00009488DF80430012240210DF073F84FF0FF33012201A905480EF0A1FE9DF804001C
:202E000003B05DF804FB00BF000C0240A464002007B500228DF80700402107480DF05AF80D
:202E20004FF0FF3301220DF1070104480EF0E9FC03B05DF804FB00BF000C0240A46400208D
:202E4000F8B5012205460C460B480C4F40210DF041F804B9F8BDB4F5004F264628BF4FF4C0
:202E6000004629464FF0FF33B2B238460EF0C9FC3544A41BEDE700BF000C0240A464002046
:202E800007B5030A8DF80500022101A88DF80430FFF7D6FF03B05DF804FBF7B507462A2045
:202EA00016460D461C46FFF7B3FF04213B0A0DEB01008DF80430330A8DF806308DF805704B
:202EC0008DF80760FFF7BCFF2B20FFF7A1FF2B0A04218DF804300DEB0100230A8DF8055061
:202EE0008DF806308DF80740FFF7AAFF2C2003B0BDE8F040FFF78CBF2DE9F3411C46831850
:202F0000B3F5A07F154601EB0403C4BFC0F5A075ADB2F02BC8BFC1F1F0040F460646C8BF80
:202F2000A4B2BDF82080FFF735FF7B1E721E23442A4439469BB292B23046FFF7AEFF4FEA5C
:202F4000182310488DF80430012240218DF805800CF0C0FF0C4F94B9FFF724FF02B0BDE8C4
:202F6000F0814FF0FF33022201A938460EF049FC013EB6B2002EF4D1013CA4B2EBE72E466D
:202F8000F8E700BF000C0240A464002030B5012285B04FF0FF3300218348844C0EF031FC88
:202FA000FFF7F8FEFFF706FF782000F0D3FB0120FFF72EFF782000F0CDFBCB20FFF728FF38
:202FC000206823790090052168468DF80430FFF737FFCF20FFF71CFFB4F80520E379ADF8B2
:202FE0000020032168468DF80230FFF729FFE820FFF70EFF2289A37AADF8002003216846A0
:203000008DF80230FFF71CFFEA20FFF701FF002502216846ADF80050FFF712FFED20FFF7F3
:20302000F7FE634B009304216846FFF709FFF720FFF7EEFE2023012168468DF80030FFF7D2
:20304000FFFEC020FFF7E4FE2123012168468DF80030FFF7F5FEC120FFF7DAFE1023012105
:2030600068468DF80030FFF7EBFEC520FFF7D0FE43F6314302216846ADF80030FFF7E0FE3E
:20308000C720FFF7C5FEC023012168468DF80030FFF7D6FE3620FFF7BBFE4823012168461E
:2030A0008DF80030FFF7CCFE3A20FFF7B1FE5523012168468DF80030FFF7C2FEB120FFF722
:2030C000A7FE4FF4D85302216846ADF80030FFF7B7FEB620FFF79CFE364B03211A889B78CC
:2030E000ADF8002068468DF80230FFF7A9FEF220FFF78EFE012168468DF80050FFF7A0FE3C
:203100002620FFF785FE012168468DF80010FFF797FEE020FFF77CFE04F10B036A46133496
:2031200018685968154603C50833A3422A46F7D1186899889B79AB712860A98068460F2173
:20314000FFF77EFEE120FFF763FE1B4B6A4603F1080518685968144603C40833AB4222469C
:20316000F7D1186899889B79A3712060A18068460F21FFF765FE1120FFF74AFE782000F0EF
:20318000E9FA2920FFF744FE3620FFF741FE2823012168468DF80030FFF752FE05B0BDE8D0
:2031A0003040FFF7FFBD00BFA464002071CB01086403128153D1010857D1010882B02DE921
:2031C000F04F85B0DEB2C3F3072514460F93721E6B1E0B4402449BB292B2BDF84470BDF8B0
:2031E0004880FFF75AFEC72C71D0E72C71D0B42C71D0A82C71D0C02C71D0C12C71D0C22CB2
:2032000071D0C32C71D0C42C71D0C82C71D0C92C71D0CA2C71D0CB2C71D0CC2C71D0CD2C00
:2032200071D0CE2C71D0CF2C71D0D22C71D0D32C71D0D42C71D0D52C71D0D62C71D0D92C8C
:2032400071D0DA2C71D0DB2C71D0DC2C71D0E02C71D0E12C71D0E22C71D0E32C71D0E42C0B
:2032600071D0E82C71D0E92C71D0EA2C71D0EB2C71D0EC2C71D0ED2C71D0EE2C71D0EF2C8A
:2032800071D0F22C71D0F32C71D0F42C71D0F52C71D0F62C71D0F92C71D0FA2C71D0FB2C14
:2032A00071D0FC2C71D07F2C28BF20244FEA1823203C01936C433B0A009364004FF00009F7
:2032C000A94564D305B0BDE8F04F02B070477F24ECE78024EAE78124E8E78224E6E783244E
:2032E000E4E78424E2E78524E0E78624DEE78724DCE78824DAE78924D8E78A24D6E78B2452
:20330000D4E78C24D2E78D24D0E78E24CEE78F24CCE79024CAE79124C8E79224C6E7932471
:20332000C4E79424C2E79524C0E79624BEE79724BCE79824BAE79924B8E79A24B6E79B2491
:20334000B4E79C24B2E79D24B0E79E24AEE79F24ACE7A024AAE7A124A8E7A224A6E7A324B1
:20336000A4E7A424A2E7A524A0E7A6249EE7A7249CE7A8249AE7A92498E7AA2496E7AB24D1
:2033800094E7AC2492E7AD2490E7AE248EE7109B33F804B04FF0000A564503D809F101098D
:2033A00002348DE70BFA0AF10B044ABF009B019B8DF80C304FF0020103A84EBF8DF80D7057
:2033C0008DF80C308DF80D800AF1010AFFF738FDE2E782B02DE9FF470446BDF83C90BDF812
:2033E00040A00D9388461546DFB2C3F30726FFF7D1FC15F8012B2AB904B0BDE8F04702B08F
:20340000FFF7D0BCE319B3F5A07F0BDB08EB06031FFA83F816FA83F3EF2BEDDC202A4FF0FF
:203420000004E6D00E9B8DF834708DF8356000932046CDE9019A0D9B41463C44FFF7BEFE3B
:20344000A4B2D6E730B4B0F5A07FBDF8085005D2EF2903D8029530BCFFF74EBD30BC7047B3
:2034600007B500210090F0234FF4A0720846FFF743FD03B05DF804FBB0F5A07F13B505D289
:20348000EF2903D800930123FFF7DCFF02B010BDB0F5A07F13B506D2EF2904D800931346EE
:2034A0000122FFF7CFFF02B010BD2DE9F341B0F5A07FBDF8207004460D4690461E4620D28A
:2034C000EF291ED800970123FFF7BCFFA919424620460097012389B2FFF7B4FF334629463B
:2034E000204600970122FFF7ADFF04EB080033460122294680B2089702B0BDE8F041FFF7B9
:20350000A1BF02B0BDE8F081B0F5A07F13B5144612DAEF2910DC80B289B24B1C421C9BB22E
:2035200092B2FFF7BAFC230A022101A88DF804308DF80540FFF784FC02B010BD2DE9F74FCE
:20354000BDF8306007460C4698469146FFF722FC264408EB070BB6B24FF0000A1FFA8BFBFF
:20356000B44215D009EB4A033D4621B20AE033F8022B28B2CDE90013FFF7C6FFDDE9001360
:203580000135ADB25D45F2D10134C244A4B2E7E703B0BDE8F04FFFF705BC2DE9F74FA3EB9A
:2035A0000109A2EB000AB9F1000FB8BFC9F10009BAF1000FB8BFCAF1000AD145BDF8307016
:2035C00004460D46904603DD98460C4613460546444505DD29461D460B4621464446884677
:2035E000A8EB0406A3EB050BBBF1000FC6F3C031B2B2B8BFCBF1000B01FA86F69D42B4BFC0
:2036000001234FF0FF33009276100193FFF7C2FB444504DD03B0BDE8F04FFFF7C3BBD1452B
:20362000C7BF2146284629462046A6EB0B063A46FFF76AFFB3B236B2002E05DA019A15448B
:20364000009AD6182DB236B2013424B2E0E70000044BC90001F4FC6141EAD20203EA0020D3
:203660001043704700F8FFFF2DE9F341089E0F461D4614468046FFF78DFB2A20FFF7C8FB01
:203680001FFA88F0FFF7FCFBA0B2FFF7F9FB2B20FFF7BEFBB8B2FFF7F3FBA8B2FFF7F0FBED
:2036A0002E20FFF7B5FBA4EB0804FFF797FBEB1B0134013314FB03F39BB203EB43050F4F9E
:2036C000ADB206EB4304A64205D1FFF76BFB284602B0BDE8F0814FF0FF33032201A9384645
:2036E0000EF02DFA9DF806209DF805109DF80400FFF7AEFF26F8020BE5E700BFA464002026
:2037000037B5FFF747FB0920FFF782FBFFF766FBFFF764FB0546FFF761FB2D0645EA0044FA
:20372000FFF75CFB0546FFF759FB044344EA05200190FFF737FB019803B030BD08B5044812
:203740000DF0DFFC18B1BDE8084008F021BB08BD4064002010B50446FFF7F0FF04B910BD00
:20376000FFF7ECFF01200BF0A9FE013CF6E700000C480D4A08B542F21073C0E9002300237D
:203780004FF48042C0E90233C0E90423C0E9063303620DF0DBF818B1BDE8084008F0F8BAFF
:2037A00008BD00BFEC630020005C004070B50E4D0E4E0446012086B028703078012808D0BC
:2037C0000A98009020460DF083F900232B7006B070BD0020CDE904230391FFF7BBFFDDE930
:2037E00004230399E9E700BF805E00202F66002070B50E4D0E4E0446012086B02870307807
:20380000012808D00A98009020460DF039FA00232B7006B070BD0020CDE904230391FFF7B7
:2038200099FFDDE904230399E9E700BF805E00202F66002030B585B005250C468DF80C00FE
:203840008DF80D1016480095022303AAD021FFF7ADFF50B1134816F0C5FB0A2016F0DAFB47
:20386000FFF786FF012005B030BD0D480095012303AAD021FFF79AFF08B10B48EBE70848A1
:203880000095012303AAD021FFF7B2FF08B10748E1E79DF80C30181B18BF0120E3E700BFD5
:2038A000EC63002067D101088BD10108AFD1010810B5084805230122D0210DF051FB08B117
:2038C000FFF756FFBDE81040024805230122D0210DF046BBEC6300202DE9F04F964B2DED65
:2038E000028B196885B069B1944816F07BFB0A2016F090FB4FF0020A504605B0BDEC028B8C
:20390000BDE8F08F8E4E8F4D012405231A46D02130460DF025FB824670B12146284616F0D6
:2039200061FB01340A2016F075FBFFF721FF0A2CEBD14FF0010ADFE79FED838ADFF800923C
:20394000DFF82882DFF828B204460546064607460020FFF7FFFE3B238DF80C30052300931A
:203960007748012303AAD021FFF720FF002800F0B680764816F036FB0A2016F04BFBFFF702
:20398000F7FE0134E4B2632CE2D907EE907AF8EEE77AC7EE886A07EE906AF8EEE77A87EE85
:2039A000887A07EE905AF8EEE77AC7EE888A9FED688A66EE887A17EE90BA67EE087A17EE19
:2039C000900AFCF7C1FD064658460F46FCF7BCFD68EE887A804617EE900A8946FCF7B4FD81
:2039E00002460B46FCF708FE424604460D464B4640464946FCF700FE22462B46FCF746FC6B
:203A000041EC100B18F0F7FE304653EC102B3946FCF71CFF41EC100B18F042FD4D4B51EC80
:203A2000100B0022FCF7E8FD41A3D3E90023FCF70DFF494B804618688946FCF785FD024649
:203A40000B4640464946FCF71FFCFDF7CDF8324608EE100A3B4630463946FCF7CDFD224616
:203A60002B46FCF713FC41EC100B18F0C4FE55EC104B8BF00040FCF767FD22462B46FCF747
:203A8000E5FE41EC100B18F00BFD324B51EC100B0022FCF7B1FD26A3D3E90023FCF7D6FEE4
:203AA0002E4B044618680D46FCF74EFD0B46024629462046FCF7E8FBFDF796F8DFED287AFE
:203AC000284B38EE678A07EE900ABDEEC88AFDEEE77A83ED008A244BC3ED007A0CE71E23BD
:203AE0000093224A0623D0214846FFF781FE08B158463FE7B8F80030DBBA1F44B8F8023073
:203B0000DBBA1E44F0EE087AB8F80430B4EEE78ADBBAF1EE10FA1D4404D5F7EE007A38EE1A
:203B2000278A2EE7632C3FF404AF642429E700BF7A008BFCFA210940CC030020D6D10108EF
:203B4000EC6300200ED201080000000067D101080000803800806640B4030020B80300203C
:203B60000000B442BC030020C0030020C4030020AFD10108000000002DE9F0472DED068B25
:203B80008D4886B016F02EFA0A2016F043FA8B4B196861B18A4816F025FA0A2016F03AFABB
:203BA0000224204606B0BDEC068BBDE8F087854F854E092505231A46D02138460DF0D0F9DB
:203BC000044668B13046013D16F00CFAADB20A2016F020FAFFF7CCFD002DEBD10124E0E785
:203BE000DFED7A8ADFF8DCA1DFF808929FED788A05460646074680460020FFF7ABFD3B23DC
:203C00008DF81430052300936E48012305AAD021FFF7CCFD002800F0A0806E4816F0E2F918
:203C20000A2016F0F7F9FFF7A3FD0135ADB2B5F57A7FE1D307EE908AF8EEE77A9FED669A00
:203C400087EEA87A07EE907AF8EEE77A87EEA88A07EE906AF8EEE77A28EE098AC7EEA89A0A
:203C600067EE098AFDEEE87A17EE903A002BB8BF5B4207EE903AF8EEE77AE9EE897A17EE1C
:203C8000900AFCF761FC41EC1A0B18EE100AFCF75BFCB0EE4A1AF0EE6A1A41EC100B18F0CA
:203CA000A8FD4E4B51EC100B0022FCF7A5FC4C4B0022FCF7A1FCBDEEC88A3DA3D3E90023B3
:203CC000FCF7C4FDFCF790FF18EE103A002BB8BF5B4208EE103AB8EEC88A0646A9EE898AF1
:203CE00018EE100AFCF730FC41EC190B18EE900AFCF72AFCB0EE491AF0EE691A41EC100BD1
:203D000018F077FD354B51EC100B0022FCF774FC344B0022FCF770FC25A3D3E90023FCF730
:203D200095FDFCF761FF304B1E60304B054618603046FCF709FC02460B462846CDE9022317
:203D4000FCF702FCDDE90223CDE90001284816F049F90A2016F05EF923E71E230093254A44
:203D60000623D0215046FFF743FD08B1224855E7B9F80030DBBA9844B9F80230DBBA1F44D1
:203D8000B9F80430F4EEC88ADBBAF1EE10FA1E4404D5F7EE007A78EEA78A46E740F2E733E2
:203DA0009D423FF41BAF4FF47A753EE7AFF300807A008BFCFA21094040D20108CC0300203F
:203DC000D6D10108EC63002052D20108000000000000484367D101080000803800807640DD
:203DE0000000E03F0000E0BFB4030020B803002080D20108C4030020AFD10108F0B5284F6C
:203E0000284E85B0052500224FF4007138460CF061F83220FFF79EFC01224FF400713846ED
:203E20000CF058F83220FFF795FC05231A46D02130460DF095F808B1FFF79AFC05231A4617
:203E4000D02130460DF08CF868B1174816F0CAF8013D0A2016F0DEF8FFF78AFC15F0FF0571
:203E6000D1D1012418E06B238DF80C3080238DF80D300523009303AA0223D0213046FFF7E5
:203E800095FC044608B10948E0E70BF011FB084B18602046FFF75EFC204605B0F0BD00BF67
:203EA00000040240EC63002091D2010867D10108CC0300201FB575238DF80C3000238DF8DC
:203EC0000D301A4B196841B1194816F08BF80A2016F0A0F8022004B010BD0A241548009459
:203EE000012303AAD021FFF761FC48B1124816F079F8204616F08EF8FFF73AFC0120EAE7D3
:203F0000052300930B48012303AAD021FFF770FC08B10A48EBE79DF80C106829DBD0084855
:203F200016F060F8204616F075F8E7E7CC030020D6D10108EC630020BBD20108E1D201081C
:203F40000AD301082DE9F0412F4C2368054633B12E4E0BF0ADFA2368643898421CD30023CE
:203F60002B4E2C4FDFF8BC8023600124FFF7A0FC08B1FFF7FDFBFFF79BFCC0B12648214686
:203F800016F030F801340A2016F044F8FFF7F0FB0A2CEBD1012035E00020FFF7DBFB2168D4
:203FA000304616F01FF80A2016F034F8D1E7FFF781FF014610B119482146E1E76B20FFF7CB
:203FC00039FC014610B121464046D9E71B20FFF731FC014610B121463846D1E71C20FFF7C2
:203FE00029FC10B121463046CAE7012D0AD10C4815F0F8FF0A2016F00DF8FFF7BDFD0038D7
:2040000018BF0120BDE8F081CC030020D6D10108D7D30108A9D3010839D3010859D3010871
:2040200006D401087CD3010807B5F02300210246009308464FF4A073FFF780FA03B05DF85E
:2040400004FB000030B5094A01F1C60314685D1AAC4206DB08551368C52B9CBF01331360E2
:2040600030BD13F8014D5C70F0E700BF4854002070B51D464378012B144602D04379002B5A
:204080004DD04F2916D18B490868024613460132EC5C14F0DF0F01D0C52BF7D92B445B787F
:2040A000002B32D0C52A30D8834B1B688342FDD10A602AE0502928D17E480368002B24DDB5
:2040C0007D4A12689342FDD1EA18E95C12F8012C203A18BF012201B9013BE91805E00C78CA
:2040E000202C03F1FF3300D10132DE43012A4FEAD676C8BF002611F801490EB1002CEED1CF
:20410000002B03DA6B4B00221A6070BD5A1C2B445B78002BF9D0C52AF7D80260F5E72F2918
:2041200082781ED1654C012A236801D0867966B113B960232360E8E7D8B22946FFF782FF37
:204140006020FFF77FFF0023F4E70BB9B423F1E7D8B22946FFF776FFB420FFF773FF2660D4
:20416000D3E7342917D1554C012A236801D0867946B10BB95E23DDE7D8B22946FFF762FFC9
:204180005E20DEE70BB97E23D4E7D8B22946FFF759FF7E20E1E7012A01D0837963B12329B7
:2041A0000AD1464C206808B9A823C3E7C0B22946FFF748FFA820C4E72A2911D13D4B196805
:2041C000481EC528A1D83C4A12689142FDD11860C1F1C80229442844BDE8704015F096B9FC
:2041E0004C2909D1334B1868C728C0F1C70200F1010188BF0022EDE7A4F120035F2B00F2A5
:20420000E3802E4E3368002B00F0D880602B1ED1412C7BD0452C7BD0492C7BD04F2C7BD03D
:20422000552C7BD0612C7BD0652C7BD0692C7BD06F2C7BD0752C7BD029466020FFF702FF66
:2042400029462046FFF7FEFE002333605DE7B42B16D1412C6ED0452C6ED0492C6ED04F2C4F
:204260006ED0552C6ED0612C6ED0652C6ED0692C6ED06F2C6ED0752C6ED02946B420DDE715
:204280005E2B1DD1412C69D0452C69D0492C69D04F2C69D0552C69D0612C69D0652C69D0AB
:2042A000692C69D06F2C69D0752C69D029465E20C4E700BF485400204C540020D8030020B4
:2042C0007E2B0AD1412C5DD04F2C5DD0612C5DD06F2C5DD029467E20B0E7A82BB0D1412C31
:2042E00058D0452C58D0492C58D04F2C58D0552C58D0612C58D0652C58D0692C58D06F2C4E
:2043000058D0752C58D02946A82097E7C02497E7C82495E7CC2493E7D22491E7D9248FE7E2
:20432000E0248DE7E8248BE7EC2489E7F22487E7F92485E7C12483E7C92481E7CD247FE7FF
:20434000D3247DE7DA247BE7E12479E7E92477E7ED2475E7F32473E7FA2471E7C2246FE742
:20436000CA246DE7CE246BE7D42469E7DB2467E7E22465E7EA2463E7EE2461E7F4245FE7C0
:20438000FB245DE7C3245BE7D52459E7E32457E7F52455E7C42453E7CB2451E7CF244FE74C
:2043A000D6244DE7DC244BE7E42449E7EB2447E7EF2445E7F62443E7FC2441E72946204688
:2043C000BDE87040FFF73EBE4F290FD13149324A0B681268E85C30B1C52B04D89342FDD1C7
:2043E00001330B6091E69342FDD18BE6502912D12849294A0B681068002B0ADD8342FDD1C3
:20440000013BEEE70132AC5C002CFBD18342FDD14EE60022F7E752290CD11E491E4A0B68F7
:2044200012681B2B03DD9342FDD11C3BD9E79342FDD167E6512919D1002300E00133EA5C51
:20444000002AFBD113490A6802F11C00984208DA1B2A3FF75AAE104B1B689A42FDD108605A
:2044600053E60D4800688242FDD1BAE74B293FF449AE4E297FF449AE002300E00133EA5C17
:20448000002AFBD1044A1068024A11688842FDD113603AE6485400204C5400201F48016824
:2044A00001BB1F4B1A6812B905221A607047052A02D11B4B0622F8E7062A01D10822F4E7BB
:2044C000082A01D10922F0E7092A01D10B22ECE70B2A01D10C22E8E70C2A1ED10122026023
:2044E00019607047012918D10D4B1A68002AF7D0012A01D10322D8E7032A01D10422D4E7ED
:20450000042AD6D0062A01D10722CEE7072A04D1044A117000221A60026070472C0400200D
:20452000280400201804002013B519234CF21864194618460094FA22FEF784FF19231846B6
:204540000094FA22BE21FEF77DFF1922104600948C233221FEF776FF00948C2319223221F9
:20456000FA20FEF76FFF502319460094192240F21310FEF767FF3C210846009478231C2255
:20458000FEF760FF009478231C223C216220FEF759FF009478231C223C218820FEF752FF76
:2045A000009478231C223C21AE20FEF74BFF009478231C223C21D420FEF744FF002002B05C
:2045C00010BD00002DE9F047DFF86C91514AD9F80030514F52F82310504CDFF860814FF69B
:2045E00020524FF6E075002918BF1546590107EB431386B09A7D012A68D193F818A0BAF113
:20460000000F63D107F108028E1888587168444E04AB03C3314604A8FCF786FF63680093F6
:204620003246236869218B20CDE9015AFEF7D1FED9F8003007EB43131869FBF785FF0B46DC
:2046400002463849304615F081FDD9F800309FED367A07EB4317D7ED047A98F80030F4EE2B
:20466000C77AF1EE10FA11DB012B01D12C23F370CD200023CDE9015363680093284A2368FF
:204680007D21FEF7A6FE06B0BDE8F087B2EE047AF4EEC77AF1EE10FA05DB012B01D12C23BA
:2046A000B370D820E5E7F5EEC07AF1EE10FA05DD012B01D12C237370E320DAE7BAEE047A11
:2046C000F4EEC77AF1EE10FAE7DDF1E76368174A00930026236869218B20CDE90156FEF78B
:2046E00078FE98F8003012490D48012B114B1B7814BF2E222C22B34214BF4323462315F0AC
:2047000025FD63680093CDE901562368044A7D21E320B6E7BC5F0020005D00205C000020C1
:20472000B35400202BD401080000C84232D4010843D4010830010020E0030020A962002092
:20474000F0B40D2101FB00F3164C1749174D94F804C005F803C01944EA1800236779A679E1
:20476000A5784B7164788B71CB710B724B72104957709670D570147153719371D371137291
:20478000537201220A7081F801C08F70CE700D714C718B71CB710B724B728B72F0BCC0B278
:2047A000FDF797BF6D660020A95E0020115F00209C6200202DE9F041DFF860E01549164ACB
:2047C0000D2444430EEB04031EF804404C705C7892F804C05779967995788C7052789C7823
:2047E00083F805C09F71DE711D725A724FF00008CC70DC781B7981F800800C714B7181F8A9
:2048000006C0CF710E724D728A72BDE8F041C0B2FDF75FBF9C6200206D660020115F00205C
:2048200030B5164B164C197801EB410301EB8301144B1A68144B53F8225085B09DB1134BC1
:204840001348194415F082FC00234FF62052CDE90132636800930E4A23682D21B420FEF702
:20486000B8FD05B030BD0B4B0948194415F06EFC4FF6E073CDE90153EBE700BFBE650020F8
:204880005C000020E0030020BC5F0020C3E50108B354002047E6010830B5154B154C197819
:2048A00001EB410301EB8301134B1A68134B53F8225085B09DB1124B1248194415F046FC7F
:2048C000002302934FF620530193636800930D4A23682D21B420FEF77CFD05B030BD0A4B0D
:2048E0000848194415F032FC02954FF6E073EBE7BE6500205C000020E0030020BC5F0020DA
:20490000EAE50108B35400206EE601082DE9F043DFF880801E4E87B00F460524002518F8C5
:20492000013B8DF81550002B08BF20238DF814307368009320463368CDE9017505AAB9212F
:204940000B34FEF746FDA4B240F239139C42E6D1DFF8449005254FF0000819F8013B8DF889
:204960001580002B08BF20238DF814302846736800930B35CDE90178336805AACD21ADB2C2
:20498000FEF727FDA542E8D107B0BDE8F08300BF5C000020AC610020C8610020494B2DE934
:2049A000F0411F68484D0D237B438AB0EB5C632B9FBF4FF00A0CB3FBFCFCCCEB4C12CCEB88
:2049C000820298BF03EB42034FF00D0202FB075288BF002351788CBF9C46DBB263299FBF4E
:2049E0000A22B1FBF2F2C2EB4210C2EB800098BF01EB40014FF00D0000FB075088BF002145
:204A000080788CBF0A46C9B263289FBF4FF00A0EB0FBFEFECEEB4E14CEEB840498BF00EB03
:204A200044004FF00D0404FB075488BF0020E4788CBF8646C0B2632C9FBF0A26B4FBF6F684
:204A4000C6EB4618C6EB880898BF04EB48044FF00D0808FB075588BF00242D7994BFE4B2C7
:204A60002646632D9FBF0A27B5FBF7F7C7EB4718C7EB880898BF05EB4805DFF8608098F8DF
:204A800000808ABF0025EDB22F46B8F1010F0CBFCDE90021CDE900C3CDE902E015BF0B4683
:204AA0000A490B49624605A815F050FBCDE9017508490094334605AA074815F047FB0AB021
:204AC000BDE8F081E0030020115F00204ED401085DD401086CD40108B3540020A76200202F
:204AE000354B2DE9F0411B68344E0D2202FB03668AB03379632B53D80A257179B1FBF5FC00
:204B0000CCEB4C13CCEB830301EB4301B379B3FBF5F2C2EB4210C2EB800003EB4003F0798B
:204B2000B0FBF5FECEEB4E14CEEB840400EB4400347AB4FBF5F7C7EB4718C7EB8808767AC0
:204B4000B6FBF5F504EB4804C5EB4518C5EB880806EB4806C9B2DBB2C0B2E4B2F6B2DFF864
:204B6000708098F80080B8F1010F0ABFCDE90023CDE900C10B46CDE902E00ABF10491149FE
:204B8000624605A815F0E2FACDE901560E4900943B4605AA0D4815F0D9FA0AB0BDE8F081BA
:204BA000002427462046A646234622462146A44626462546D3E700BFE0030020115F00200D
:204BC0004ED401085DD401086CD40108B3540020A76200202DE9F04F0D234343574FF95CD1
:204BE00063299FBF4FF00A0CB1FBFCFCCCEB4C13CCEB830398BF01EB43014FF00D0303FBAB
:204C0000007388BF00215B788CBF8C46C9B2632B98BF0A2204469FBFB3FBF2F2C2EB421004
:204C2000C2EB800003EB40034FF00D0000FB047088BF002380788CBF1A46DBB263289FBFD8
:204C40004FF00A0EB0FBFEFECEEB4E15CEEB850598BF00EB45004FF00D0505FB047588BF5F
:204C60000020AD7A8CBF8646C0B2632D9FBF4FF00A08B5FBF8F8C8EB4816C8EB860698BFDE
:204C800005EB46054FF00D0606FB047688BF0025F67A94BFEDB2A846632E9FBF4FF00A090F
:204CA000B6FBF9F9C9EB491AC9EB8A0A98BF06EB4A064FF00D0A0AFB047788BF00263F7B5D
:204CC00094BFF6B2B146632F9FBF4FF00A0AB7FBFAFACAEB4A1BCAEB8B0B98BF07EB4B07F9
:204CE000DFF86CB09BF800B08FB08ABF0027FFB2BA46BBF1010F0DF1240B0ABFCDE9002393
:204D0000CDE900C10B46CDE902E00ABF0C490D496246584615F01AFA631CCDE905A7CDE9C9
:204D20000396CDE901850849CDF800B01A46074815F00CFA0FB0BDE8F08F00BFA95E002055
:204D40004ED401085DD4010879D40108B3540020A762002070B506460D460020A84201DB9E
:204D6000012009E0345C54B92A1A22EAE2722021304414F0E5FB20460023735570BD0130A0
:204D8000ECE700002DE9F04F98464FF00B0992FBF9F909F1060385B023F00703144604AFD9
:204DA000ADEB030D0A2C0DF1100B09F1FF320546D8BF00220E465846B96AB7F82CA014F039
:204DC00097FBB9F1010FACBF0BEB09030BF10103ADB2B6B2A4B24FF0000203F8012C31461D
:204DE00022462846CDF800A0142306F11409FEF729FB1FFA88F81FFA89F9A21E681C002379
:204E000000934946434692B280B2FEF71BFB3A8E144BCDF808A001925A680092B11CE81C1A
:204E20005A461B6889B280B2FEF7D3FA08F11301314453462246284689B2FEF71DFB284679
:204E4000013D5346424649462544FEF721FB534642464946A8B2FEF71BFB0437BD46BDE8F2
:204E6000F08F00BF5C0000202DE9FF47704E714D3178714BDFF80492704C01EB810103EBB6
:204E80008101284615F082F94CF218670C23CDE901370095C8234FF4A07214210020FFF7A8
:204EA00071FF3378664A03EB430102EB410209EBC3036449284615F049F90023CDE901735C
:204EC000636800932A4623682D210520FEF781FA0097152340F2371240210420FEF7E5FAF3
:204EE000594F42F2041300934FF49B72142341210520FEF7A7FAF97830783B79534A97F88F
:204F000006C07D79002900F08E800139CDE9005C01EBC00102EB81024D494E4815F016F905
:204F20004CF218656368009342F2041A2368494ACDE9015A41210520FEF74BFA3278464BDB
:204F400046493C4802EB420203EB420215F0FEF84FF0000863680093CDE901582368354A22
:204F600096210520FEF735FA0095152340F23712A9210420FEF799FACDF800A014234FF494
:204F80009B72AA210520FEF75DFA3B7800937B78BA783349334815F0D9F863680093CDE97C
:204FA000015A23682F4AAB210520FEF712FA32782D49204809EBC20215F0C8F8636800933D
:204FC000CDE9015823681B4A5F210520FEF701FA3278264B26491748C2EB02121A4415F030
:204FE000B5F863680093CDE901582368114A78210520FEF7EEF932781E4B1F490D4802EB5A
:20500000420202EBC2021A4415F0A0F863680093CDE901582368074AD2210520FEF7D9F978
:2050200004B0BDE8F087CDE9005C02EB401273E7BE650020B354002049DD01085C000020E0
:205040008FDC010897D401087762002048E80108AAD401081904002037DD0108BDD40108BB
:20506000EBD8010830040020CCD401080ADD0108D6D40108B9DC01082DD70108A1DC010893
:205080002DE9F04F2DED028B0C4695B0002930D1002828DD0C234CF21862CDE90132B24D57
:2050A000B24A2B7803EB830302EB830300934FF4A072C82314212046FFF764FEAC4B2A780B
:2050C000AC49AD4803EB021215F040F8AB4B02944FF6FF7201925A6800921B68A64A2D21BD
:2050E0000620FEF776F9204615B0BDEC028BBDE8F08F012940F089810024DFF88C82DFF85D
:2051000078922646D8ED047ABDEEE78AB8EEC87A77EEC77A17EE900AFBF716FA90A3D3E99C
:205120000023FBF769FAFBF717FD0DAA079008F1080100231046013311F8015B02F8015B39
:20514000082BF8D10DF13C0A5146FCF7EDF9671C079B8B4901938DED008A53463A46484667
:205160008DF84A6014F0F2FF98F817307E4D012B29780DF1240B40F03381824B584603EB32
:20518000810114F0E3FF4FF4FC6306937E4B03EB441404F110030FCB8DE80F0094E80F006C
:2051A000FCF7A0F82978002840F02381754B0BA803EB810114F0CAFF744B754A1B7812787C
:2051C00074498DED028A012B14BF2E232C23002A14BF432246220592079A684CCDE90332CC
:2051E000CDE900BA0BAB3A46484614F0AFFF069B0296019363680093C7EB07112D312368EB
:205200004A4689B20E20FEF7E4F8082F08F1200840F0E4802B78604A02EBC3025F4B069297
:205220001868FBF791F94FF6FF77CDE90001069A5B49514814F08AFF029601976368009308
:2052400023684D4AB4210E20FEF7C3F82A7802EB820302EB4302534B1A44534B0692186881
:20526000FBF772F9069ACDE900015049424814F06DFFCDE901766368009323683E4AB42174
:205280008C20FEF7A6F82A7849494A4B3A481B68C2EBC2020A44484914F058FFCDE9017629
:2052A000636800932368344AC3210E20FEF791F8424B43491A68304814F048FFCDE901766C
:2052C0006368009323682C4AC3218220FEF781F83C4B1B78002B40F096803B4926480025D9
:2052E0004FF6FF7614F052FFCDE90165636800932368214AC321C820FEF76BF8334A344911
:2053000093680093D2E900231B4814F01FFFCDE90165636800932368174AD2210E20FEF720
:2053200058F82C4A2C49137A0593D3790493937903935379029313790193D378009393781E
:205340000D48527814F002FFCDE90165636800932368094AE1210E20FEF73BF82C46C2E65F
:20536000000000000088C340BE65002000E801089AE70108E0D40108B35400206C00002074
:20538000FED401083CE80108005D0020A9620020300100200ED5010861E701080C5E002045
:2053A0002FD5010879E70108785E002039D501084CE70108BC03002043D50108C00300204B
:2053C00050D501087662002059D501087866002070D50108A06600208BD501083C4691E69C
:2053E0000C4B584603EB810114F0B0FE4FF6E073CBE6084B0BA803EB810114F0A7FE4FF4EB
:2054000078430693D8E6044968E7022918BF002469E600BFCAE7010864D501082DE9FF4158
:20542000624B634D1A78634F63493B78634CDFF8C881C2EBC20201EB42022846604914F0E1
:2054400085FE0C234CF21861CDE901314FF4A072C823142100200095FFF794FC594928463B
:2054600014F094FE00264FF6FF73CDE90136636800932A4623682D210620FDF7AAFFB8F9B1
:205480000000FBF74FF8504B0022FBF7DFF9FBF7ABFBFBF759F802460B4628464B4914F0D2
:2054A00055FE3B784A4A013B32F91320B8F900309A4270D102964FF4FC630193636800938E
:2054C0002A4623682D216620FDF783FF3A78414B03EB421313F8093C012B10D13E493448A6
:2054E00014F054FE00234FF47842CDE90132636800932F4A23682D21DC20FDF76AFF4FF6FF
:20550000FF75002663680093CDE901562368334A55210620FDF75DFF63680093CDE9015627
:2055200023682F4A69210620FDF753FF63680093CDE9015623682B4A7D210620FDF749FF06
:2055400063680093CDE901562368274A91210620FDF73FFF63680093CDE901562368234A77
:20556000A5210620FDF735FF63680093CDE9015623681F4AB9210620FDF72BFF636800933C
:20558000CDE9015623681B4ACD210620FDF721FF04B0BDE8F08103DA02964FF6E0738CE79C
:2055A00094DD02964FF6205387E700BFBE650020B354002005000020D6E701085C0000202C
:2055C000B6D50108C0D5010800002440C8D501083A660020005D0020CFD50108D8D50108EF
:2055E000E2D50108ECD50108FCD501080DD601081ED6010833D60108A85400202DE9F04FDB
:20560000734F744E3A78744C33687449DFF8FCB1DFF8FCA102EBC20285B001EB42020133FA
:205620006F49204614F092FD4CF218650C23CDE901350094C8234FF4A07214210020FFF7C4
:20564000A1FB0023CDE90153664C3A7863686649009302EB021223680A4405202D21FDF7CF
:20566000B8FEDBF80030BBB93A7802EB420102EB810231685AF82110002940F09D804FF4D6
:20568000FC63CDE9011363680093236857490A44B4202D21FDF79DFE00254CF21868CDE9C0
:2056A00001853A7863685249009302EB820201EB4202236841210520FDF78BFECDE901854D
:2056C0003A7863684B49009302EB420201EB4202236855210520FDF77CFE30685AF82030F7
:2056E0004FF620524FF6E079AB4218BF9146C0B2FFF754F9CDE90195636800932368364A50
:2057000041219F20FDF765FE3078FFF7E9F9CDE901956368009323682F4A55219F20FDF7BA
:2057200058FECDE90185636800932368324A69210520FDF74EFECDE901856368009323685E
:205740002E4A7D210520FDF744FEFEF73BFFCDE901853A7863682A490093C2EBC2022368EE
:2057600001EB82020520A521FDF733FEDBF800305BBB4FF62053009340F237122923B721A6
:205780000420FDF792FE30681E4C5AF820104FF620534FF6E07200290CBF11461946FFF7EE
:2057A000B5F82378012B04D13068FFF703F80023237005B0BDE8F08F4FF6E071CDE901310A
:2057C000636800932368104961E748F21043D2E7BE650020E0030020B354002011E601088C
:2057E0004DD601085C000020E9E6010847E601081CE701083AE7010853D601085ED601084E
:2058000095E60108A4540020C3E5010808000020BC5F00202DE9FF41DFF890828F4DD8F8ED
:20582000003029788E4C9A1E012A00F2A4808D4E8D4B01EB01111944304614F0A7FC002772
:205840004FF620534FF4A072CDE901371421C82338460096FFF796FA2978844B01EB4101F5
:2058600003EBC101304614F091FC4CF2186302970193636800932368324650210520FDF7A0
:20588000A8FD7B4A2B781268012A4FEAC30340F0C78078497348194414F078FC00264FF426
:2058A0007843CDE901366368009323686D4A78210520FDF78EFD704B29786A4803EBC101A5
:2058C00014F044FC02964CF218630193636800932368644A78219B20FDF77BFD674B2978F5
:2058E00060481A2201FB02314CF21867002614F04DFCCDE90176636800932368594AA021EB
:205900000520FDF766FD29785D4B5648C1EBC10103EB810114F03AFCCDE901766368009381
:205920002368504AB4210520FDF753FD29784D48C1EBC10301EB8301524B194414F026FCCE
:20594000CDE901766368009323684F4C454AD7210520FDF73EFD2378012B09D14B4B186804
:205960004B4B392101FB0031C0B2FCF727FE267004B0BDE8F081012B83DC464B394E01EB91
:20598000C10103EB4101304614F000FC00274FF62053CDE9013714210096C8234FF4A072C7
:2059A0003846FFF7EFF92978D8F8008001EB4101C1EBC101B8F1000F0FD1374B3046194411
:2059C00014F0E4FB4CF21863CDF80880019363680093236832465A2150E7304B4CF21868FE
:2059E0001944304614F0D2FB0297CDF8048063680093324623685A210520FDF7EAFC2978A5
:205A0000274B01EB410103EBC101304614F0BEFBCDE9018763680093236832463C212DE7F3
:205A200020491048194414F091FB00264CF21863CDE901366368009323680A4A78210520F1
:205A4000FDF7C7FC184B2978064803EBC10114F07DFB02964FF4784337E700BFBE6500205B
:205A60005C000020B35400207AD9010888DA0108E05F0020CCDB0108E4DB0108FCDB010805
:205A8000ADD9010831DA0108A3540020E0030020E45F0020D0DA010806DB010845DB010820
:205AA00084DB010801DA010819DA0108DC5F00202DE9F041BA4DBB4B2978BB4E01EB8101D7
:205AC00001EB810198B01944304614F05FFB4CF218641F23CDE901340096C8234FF4A07222
:205AE00014210020FFF74EF92B78002B40F04381AE49304614F04AFB4FF4FC630022CDE922
:205B00000132AB4CA84A6368009323682D210520FDF75FFC2B78012B40F03381A549A24833
:205B200014F034FB4FF4FC630022CDE901326368009323689C4A46210520FDF74AFC2B784D
:205B4000022B40F025819C49974814F01FFB4FF4FC630026CDE9013663680093924A2368E6
:205B60005F210520FDF735FC944B29788E4803EBC10114F00BFB4FF6E073029601936368BC
:205B800000932368884A8E4E2D219F20FDF721FC2B788C4A317803EBC3031A44002940F08E
:205BA00031818949804814F0D1FA4FF4FC630022CDE901326368009323687B4A46219F2049
:205BC000FDF707FC3378814A012B2B7803EBC3031A4440F01E817C49734814F0B7FA4FF430
:205BE000FC630027CDE90137636800936E4A23685F219F20FDF7EDFB2978754B6A4801EB76
:205C0000410103EB810114F0C1FA4FF6E07302970193636800936F4F2368634A7D21052037
:205C2000FDF7D7FB3B78002B40F0FA806A495E4814F0ACFA4FF4FC630022CDE9013263689B
:205C400000932368584A96210E20FDF7C2FB3B78012B40F0EC806149534814F097FA4FF456
:205C6000FC634FF00008CDE90138636800934E4A2368AF210E20FDF7ACFB2978584B4A489F
:205C800001EBC101194414F081FA4FF6E073CDF80880019363680093DFF864812368424AD0
:205CA0007D219F20FDF795FB98F80030002B40F0C5804C493C4814F069FA4FF4FC6300225F
:205CC000CDE90132636800932368374A96219F20FDF77FFB98F80030012B40F0B6804249B0
:205CE000314814F053FA4FF4FC630022CDE901326368009323682C4A9F20AF21FDF769FBE7
:205D00003A4B1878002840F0A7804FF478430093982216232A210420FDF7C7FB297822483B
:205D2000C1EBC10301EB8301314B194414F02EFA4CF218630022CDE90132636800932368D1
:205D4000194AD2210320FDF744FB04A8FCF7C3FF33788DF815303B788DF8163098F8003083
:205D60008DF8173004A82B788DF81830FCF716FF18B0BDE8F0811F49304614F007FA234609
:205D8000BCE61D49084814F001FA4CF21863CBE61A49054814F0FAF94CF21863D9E600BF64
:205DA000BE65002085DD0108B35400206CD601085C00002084D601089CD60108D0DD0108B3
:205DC000A76200207EDE0108B8D6010899DE0108E8DD0108A9620020C6D60108D8D60108C9
:205DE0000CDE0108EAD60108F8D60108C065002027DE010878D6010890D60108AAD601086E
:205E00003001002039493A4814F0A0F94CF21863CDE63649364814F099F94CF21863E0E612
:205E20003449334814F0B2F94CF2186304E732492F4814F0ABF94CF2186312E72F492C48DF
:205E400014F0A4F94CF2186339E72D49284814F09DF94CF2186348E7012806D14FF4784362
:205E6000009398221623432155E7022806D14FF478430093982216235C214CE7032806D1C5
:205E80004FF47843009398221623932143E7042806D14FF47843009398221623AC213BE72A
:205EA000052807D14FF4784300939B22162343219C2031E7062806D14FF4784300939B22CB
:205EC00016235C21F4E7072806D14FF4784300939B2216239321EBE708287FF41FAF4FF46A
:205EE000784300939B221623AC21E1E7BFD60108B3540020CFD60108E1D60108F1D60108C6
:205F0000FFD601081FB50F4A0F4912780F4B104C1B68C2EB0210014400910E49013301EB4F
:205F2000C20220460C4914F011F900201F23CDE901300094C8234FF4A0721421FEF722FF6C
:205F400004B010BDBE65002062DC0108E0030020B35400204ADC010806D7010800000000F7
:205F60002DE9F04F044687B0002840F08780B34EB34FB44D05F0FEFBB34BB44AB44930468B
:205F800014F0E4F84CF2186E0C23CDE9013E4FF4A072C823142120460096FEF7F3FE3A7830
:205FA000AC4902EB820205EB4202304614F0CEF83B78A94A03EB830305EB430514702346C8
:205FC00015F8011B00294BD104B1137000241F23CDE90134A14D994A6B6800932B68A04E12
:205FE000DA210120FDF7F5F93A78347002EBC2039C4A1A441146234611F8010B002836D153
:2060000004B1337093498D4814F0A0F8964A1378012B0BD1002313703278072A06D8009376
:206020006E221223DA21D120FDF70CFA3078834A0230C0EB003300EB830300EB830000242D
:206040001F23CDE901346B68009300F23F102B68DA2180B2FDF7BDF9002007B0BDE8F08F07
:206060000133DBB20A2B4FF00104A9D1ADE70133DBB2092B4FF00104BED1C2E7012807D166
:206080000C23AF22282140F23110FDF701FAE3E7022807D10C234FF4A072D7210020FDF7F9
:2060A000EBF9D9E7714B032893F8008040F0EE8008F10803DBB205936D4B6E4F674CDFF884
:2060C0007C9103EB880A1C226FF0DF0312FB0833464607EB481704932D25059BB342BBDD79
:2060E000654B1A78A6EB08039A425AD1072E48DCF0B2FEF76FFD00234FF4FC6CCDE9013C9E
:206100006368009323684A4629460520FDF761F9072E2CDC3B7F0BB97B7F63B100234FF4F5
:20612000FC60CDE90130636800932368534A29461B20FDF74EF9DAF80030C3B100234FF4D5
:20614000FC6BCDE9013B6368009323684C4A29462620FDF73EF9CDF808B000230193636888
:2061600000932368474A29465220FDF732F9049B15351C330136ADB20AF1040A20370493AB
:20618000ABE72F4B049A1978E02313FB01233E494846194413F0FAFF1B214846FEF7DAFD8B
:2061A000A9E7072E39DCF0B2FEF714FD48F210430021CDE901316368009323684A462946DF
:2061C0000520FDF706F9072ED1DC3B7F0BB97B7F63B14FF620530022CDE901326368009318
:2061E0002368264A29461B20FDF7F3F8DAF80030012BBCD14FF620534FF0000BCDE9013B6C
:206200006368009323681E4A29462620FDF7E1F8CDF808B04FF62053A0E7094B049A19786C
:20622000E02313FB012318494846194413F0AEFF1B214846FEF78EFDB8E700BFB35400205E
:20624000BE650020CAE101080FD701081AD701082AD7010832D701085E5400205C000020F4
:206260005D5400200FDF0108D1030020036600209C5F0020005D00200266002037D70108A2
:2062800039D701083BD701082ADF010804281CD1134B1878404407EE900AF8EEE77A17EE52
:2062A000900AFAF751F90CA3D3E90023FAF7A4F9FAF77AFC0C23C1B20093072264232A3146
:2062C00040F23510FDF7BEF8C6E6431F58425841C3E600BFAFF3008066666666666614401A
:2062E000026600202DE9F3470A28344FDFF8DC808246054628BF4FF00A0A3B78012B28D0BA
:2063000098F80030012B24D00023009340F23912142391210320FDF795F8294B1B78022BA9
:206320001BD1284B1B78DBB1274B1B68072B0CBF4FF00C094FF01F090026B245544615DC8A
:20634000092D03D842F20415092C25DD02B0BDE8F0870020FDF7FEF9CFE742F20419EBE7F6
:206360004FF00C09E8E70020FDF7F4F93B78012BF9D098F80030012BF5D070010330CDF837
:20638000009014231922912180B2FDF75BF80136D3E70020FDF7DEF93B78012BF9D098F8BC
:2063A0000030012BF5D060010330009514231922912180B2FDF746F80134C5E7C9650020DC
:2063C00032670020AA6200209CA50020805E0020F0B5A44B1B6885B0002B63D0A249A348F9
:2063E00013F0D4FE00224FF47844CDE90124A04B5A6800921B689D4A78210320FCF7E9FF8C
:206400009C4A9D491378009353789C4892789B4D13F09CFE00239A4A2846194612F8016B0A
:2064200010F8014B0133A6421CBF02F8014C0121082BF3D1002932D0924E934C3378012BF0
:2064400000F09A812378012B00F096818F4B90491A788648854E8F4F02EB420302EB8302FB
:206460008D4B1A4413F072FE00248048F9F7B0FE013415F8012B3946304413F067FE082CEC
:20648000F3D14CF218620021CDE90121784B5A6800921B68754AB4210320FCF79AFF012089
:2064A00005B0F0BD7D4D2B78002B5AD0774A632B12784BD07A496D4C02EB420201EB4202E7
:2064C0002046784913F042FE2B78012B05D12046F9F77EFE7449204482E7022B04D12046E9
:2064E000F9F776FE7149F6E70E2B04D844F64812DA40D6070FD41A1FD2B2082A10D840F215
:206500002B1121FA02F2D50740F13A815748F9F75FFE6749DFE72046F9F75AFE6549DAE7E9
:206520000D2B04D15148F9F753FE6349D3E70F2B04D14E48F9F74CFE6049CCE7102B7FF425
:2065400051AF4A48F9F744FE5D49C4E702EB420302EB83025B4B5C4944481A4413F0F6FD57
:2065600040E75A4A1278022A40F0F580584E3368002B00F0DA80574A1488574A127812B90C
:20658000002C00F0D280072B3E4D2DD13E4E2B78012B5FD03378012B5CD03C4B4F491A7894
:2065A000324802EB820302EB43024D4B00251A4413F0CCFD1223DC22009578215B20FCF707
:2065C00041FF1F222A4B029501925A68009203201B68264A7821FCF7FCFEE0B20A2828BF00
:2065E0000A20FFF77FFE0BE7274F2B78012B35D03B78012B32D00023009340F23712142379
:2066000078210320FCF71EFF2B78012B72D03B78012B6FD033681D4A032B127873D1314907
:20662000314B09781B68012968D0304901EBC2022F490E4813F08AFD00251223DC2200950A
:2066400078215B20FCF7FEFE4FF6E072CDE90152074BBAE70020FDF77DF898E70020FDF788
:2066600079F8C2E7C86B00203DD70108B35400205C0000206D660020EBD801084D000020C1
:20668000AB540020C9650020805E0020BE650020F0D70108468204085FE90108FF6B0020CD
:2066A000C3E8010857D701085ED701086CD7010889D701087DD70108A0D70108ABD7010894
:2066C000B7D70108D5E80108C3D70108326700209CA50020BC830020AA620020D1D7010864
:2066E00087E50108848D0020B483002054E50108DCD701080020FDF72DF885E7244902EBA0
:20670000C2020A4494E7052B05D1224B22491B6802EBC202F5E7214B2149224802EB82024D
:2067200003EB820213F012FD86E71F4A1F4B12784CF218611F20CDE901105968009117499C
:206740001B6802EB820201EB820203207821FCF740FE0A2045E7144A1449127802EB42001E
:2067600002EB80024FF62050CDE901304B6800930B680F490A44E8E70020FCF7EBFF5DE6A0
:206780000A2B7FF42FAE0748F9F722FD0949A2E6A8E50108B48300206CE50108FCE8010808
:2067A000D1D70108B3540020BE6500205C00002038E9010895D701082DE9F0439BB0804649
:2067C00010F042FDA74B98F8094000221A6098F80230012B054603D098F80630012B08D13C
:2067E0002E2C00F08D802D2C00F09180252C00F09080292C40F085809B4F3A780AB99B4BC8
:206800001A809B4B1B78012B40F08580A4F15903DBB2092B01D83B3CE4B2964B19780A43AD
:2068200019D1462C17D111460320059204F0CAFC914B92480221196013F0D4FB0A2013F0F8
:20684000E9FB059A8E484FF4807109F043FB08F02FFE8C4B18608C4E33680A2B40F047825D
:20686000A4F11E02D1B2072900F28B8087480023036087480360874B01201860864B1A6076
:20688000864B1970864B392101FB0233854A03F1380153F8040B42F8040B8B42F9D11B7879
:2068A000814D13700FCD814C0FC495E80F0084E80F007F4A7F4B00211078187050785870B0
:2068C00090789870D078D870107918715079587190799871D079D8710131107A1872082959
:2068E000507A587202F10D0203F10D03E4D1724B31600A221A7004F0F9FE704B01224BE051
:2069000057246F4A002313606E4A137074E75624F7E75524F5E7542C3FF47FAF552C3FF4D5
