:020000040800F2
:200000000000022079F7000861EB000881EB0008A5EB0008C9EB0008EDEB0008000000004A
:2000200000000000000000000000000011EC000813EC00080000000015EC00082DEC00088A
:20004000C9F70008C9F70008C9F70008C9F70008C9F70008C9F70008DDEC0008C9F7000857
:20006000C9F70008C9F70008C9F70008C9F70008C9F70008C9F70008C9F70008C9F7000840
:20008000C9F70008C9F7000801ED0008C9F70008C9F70008C9F70008C9F70008E3EC0008E3
:2000A000C9F70008C9F70008C9F70008C9F70008C9F70008C9F70008C9F70008C9F7000800
:2000C000C9F70008C9F70008C9F70008C9F70008C9F7000825ED0008C9F70008C9F700088E
:2000E000F7EC0008C9F70008C9F70008C9F70008C9F70008C9F70008C9F70008C9F700089D
:20010000C9F70008C9F70008C9F70008C9F70008C9F70008C9F70008C9F7000831ED000841
:20012000C9F70008C9F70008C9F70008C9F70008C9F70008C9F70008C9F70008C9F700087F
:20014000C9F70008C9F70008C9F7000889ED0008C9F70008C9F70008C9F70008C9F70008A9
:20016000C9F70008C9F70008A1ED0008A5ED0008C9F7000895ED0008C9F7000800000000A5
:20018000C9F70008C9F70008FFFFFFFFFFFFFFFF10B5054C237833B9044B13B10448AFF339
:2001A00000800123237010BD080400200000000070E5010808B5034B1BB103490348AFF3A1
:2001C000008008BD000000000C04002070E50108034613F8012B002AFBD1181A01387047B4
:2001E00001F0FF01102A2BDB10F0070F08D010F8013B013A8B422DD010F0070F42B3F6D1C5
:20020000F0B441EA012141EA014122F007047FF000070023F0E80256083C85EA010586EA71
:20022000010685FA47F5A3FA87F586FA47F6A5FA87F68EB9EED1F0BC01F0FF0102F007026C
:2002400032B110F8013B013A83EA010313B1F8D10020704701387047002D06BF35460338CF
:20026000073815F0010F07D1013015F4807F02BF013015F4C03F0130F0BC0138704700BF93
:2002800081F0004102E000BF83F0004330B54FEA41044FEA430594EA050F08BF90EA020F8D
:2002A0001FBF54EA000C55EA020C7FEA645C7FEA655C00F0E2804FEA5454D4EB5555B8BF63
:2002C0006D420CDD2C4480EA020281EA030382EA000083EA010180EA020281EA0303362D1A
:2002E00088BF30BD11F0004F4FEA01314FF4801C4CEA113102D0404261EB410113F0004F84
:200300004FEA03334CEA133302D0524263EB430394EA050F00F0A780A4F10104D5F1200EC1
:200320000DDB02FA0EFC22FA05F2801841F1000103FA0EF2801843FA05F359410EE0A5F109
:2003400020050EF1200E012A03FA0EFC28BF4CF0020C43FA05F3C01851EBE37101F0004515
:2003600007D54FF0000EDCF1000C7EEB00006EEB0101B1F5801F1BD3B1F5001F0CD349088F
:200380005FEA30004FEA3C0C04F101044FEA445212F5800F80F09A80BCF1004F08BF5FEA6E
:2003A000500C50F1000041EB045141EA050130BD5FEA4C0C404141EB0101013C28BFB1F5E7
:2003C000801FE9D291F0000F04BF01460020B1FA81F308BF2033A3F10B03B3F120020CDA82
:2003E0000C3208DD02F1140CC2F10C0201FA0CF021FA02F10CE002F11402D8BFC2F1200C96
:2004000001FA02F120FA0CFCDCBF41EA0C019040E41AA2BF01EB0451294330BD6FEA0404CF
:200420001F3C1CDA0C340EDC04F11404C4F1200220FA04F001FA02F340EA030021FA04F320
:2004400045EA030130BDC4F10C04C4F1200220FA02F001FA04F340EA0300294630BD21FA3E
:2004600004F0294630BD94F0000F83F4801306BF81F480110134013D4EE77FEA645C18BF1C
:200480007FEA655C29D094EA050F08BF90EA020F05D054EA000C04BF1946104630BD91EA56
:2004A000030F1EBF0021002030BD5FEA545C05D14000494128BF41F0004130BD14F58004B3
:2004C0003CBF01F5801130BD01F0004545F0FE4141F470014FF0000030BD7FEA645C1ABF2F
:2004E000194610467FEA655C1CBF0B46024650EA013406BF52EA033591EA030F41F400211E
:2005000030BD00BF90F0000F04BF0021704730B54FF4806404F132044FF000054FF000014A
:2005200050E700BF90F0000F04BF0021704730B54FF4806404F1320410F0004548BF404296
:200540004FF000013EE700BF42004FEAE2014FEA31014FEA02701FBF12F07F4393F07F4F10
:2005600081F06051704732F07F4208BF704793F07F4F04BF41F40021704730B54FF4607424
:2005800001F0004521F000411CE700BF50EA010208BF704730B54FF000050AE050EA010206
:2005A00008BF704730B511F0004502D5404261EB41014FF4806404F132045FEA915C3FF4F0
:2005C000D8AE4FF003025FEADC0C18BF03325FEADC0C18BF033202EBDC02C2F1200300FA3C
:2005E00003FC20FA02F001FA03FE40EA0E0021FA02F11444BDE600BF70B54FF0FF0C4CF445
:20060000E06C1CEA11541DBF1CEA135594EA0C0F95EA0C0F00F0DEF82C4481EA030621EAF1
:200620004C5123EA4C5350EA013518BF52EA033541F4801143F4801338D0A0FB02CE4FF074
:200640000005E1FB02E506F00042E0FB03E54FF00006E1FB03569CF0000F18BF4EF0010E9E
:20066000A4F1FF04B6F5007F64F5407404D25FEA4E0E6D4146EB060642EAC62141EA555161
:200680004FEAC52040EA5E504FEACE2EB4F1FD0C88BFBCF5E06F1ED8BEF1004F08BF5FEA36
:2006A000500E50F1000041EB045170BD06F0004646EA010140EA020081EA0301B4EB5C04E5
:2006C000C2BFD4EB0C0541EA045170BD41F480114FF0000E013C00F3AB8014F1360FDEBFC7
:2006E000002001F0004170BDC4F10004203C35DA0C341BDC04F11404C4F1200500FA05F347
:2007000020FA04F001FA05F240EA020001F0004221F0004110EBD37021FA04F642EB0601A1
:200720005EEA430E08BF20EAD37070BDC4F10C04C4F1200500FA04F320FA05F001FA04F24F
:2007400040EA020001F0004110EBD37041F100015EEA430E08BF20EAD37070BDC4F1200516
:2007600000FA05F24EEA020E20FA04F301FA05F243EA020321FA04F001F0004121FA04F2B9
:2007800020EA020000EBD3705EEA430E08BF20EAD37070BD94F0000F0FD101F0004640005B
:2007A00041EB010111F4801F08BF013CF7D041EA060195F0000F18BF704703F000465200BD
:2007C00043EB030313F4801F08BF013DF7D043EA0603704794EA0C0F0CEA135518BF95EA39
:2007E0000C0F0CD050EA410618BF52EA4306D1D181EA030101F000414FF0000070BD50EA3C
:20080000410606BF1046194652EA430619D094EA0C0F02D150EA013613D195EA0C0F05D178
:2008200052EA03361CBF104619460AD181EA030101F0004141F0FE4141F470014FF00000E2
:2008400070BD41F0FE4141F4780170BD70B54FF0FF0C4CF4E06C1CEA11541DBF1CEA135570
:2008600094EA0C0F95EA0C0F00F0A7F8A4EB050481EA030E52EA03354FEA013100F08880CB
:200880004FEA03334FF0805545EA131343EA12634FEA022245EA111545EA10654FEA002629
:2008A0000EF000419D4208BF964244F1FD0404F5407402D25B084FEA3202B61A65EB0305CC
:2008C0005B084FEA32024FF480104FF4002CB6EB020E75EB030E22BFB61A754640EA0C0042
:2008E0005B084FEA3202B6EB020E75EB030E22BFB61A754640EA5C005B084FEA3202B6EBA3
:20090000020E75EB030E22BFB61A754640EA9C005B084FEA3202B6EB020E75EB030E22BF51
:20092000B61A754640EADC0055EA060E18D04FEA051545EA16754FEA06164FEAC30343EA5D
:2009400052734FEAC2025FEA1C1CC0D111F4801F0BD141EA00014FF000004FF0004CB6E7B0
:2009600011F4801F04BF01430020B4F1FD0C88BFBCF5E06F3FF6AFAEB5EB030C04BFB6EB12
:20098000020C5FEA500C50F1000041EB045170BD0EF0004E4EEA113114EB5C04C2BFD4EB50
:2009A0000C0541EA045170BD41F480114FF0000E013C90E645EA060E8DE60CEA135594EA21
:2009C0000C0F08BF95EA0C0F3FF43BAF94EA0C0F0AD150EA01347FF434AF95EA0C0F7FF438
:2009E00025AF104619462CE795EA0C0F06D152EA03353FF4FDAE1046194622E750EA410659
:200A000018BF52EA43067FF4C5AE50EA41047FF40DAF52EA43057FF4EBAE12E74FF0FF3CE3
:200A200006E000BF4FF0010C02E000BF4FF0010C4DF804CD4FEA410C7FEA6C5C4FEA430C83
:200A400018BF7FEA6C5C1BD001B050EA410C0CBF52EA430C91EA030F02BF90EA020F00201C
:200A6000704710F1000F91EA030F58BF994208BF90422CBFD8176FEAE37040F00100704729
:200A80004FEA410C7FEA6C5C02D150EA013C07D14FEA430C7FEA6C5CD6D152EA033CD3D0FF
:200AA0005DF8040B704700BF8446104662468C461946634600E000BF01B5FFF7B7FF002891
:200AC00048BF10F1000F01BD4DF808EDFFF7F4FF0CBF012000205DF808FB00BF4DF808EDC1
:200AE000FFF7EAFF34BF012000205DF808FB00BF4DF808EDFFF7E0FF94BF012000205DF8D4
:200B000008FB00BF4DF808EDFFF7CEFF94BF012000205DF808FB00BF4DF808EDFFF7C4FF78
:200B200034BF012000205DF808FB00BF4FEA410C7FEA6C5C02D150EA013C0AD14FEA430C06
:200B40007FEA6C5C02D152EA033C02D14FF0000070474FF0010070474FEA410212F50012C1
:200B600015D211D56FF47873B3EB625212D94FEAC12343F0004343EA505311F0004F23FA4D
:200B800002F018BF404270474FF00000704750EA013005D111F0004008BF6FF000407047BE
:200BA0004FF00000704700BF4A0011D212F5001211D20DD56FF47873B3EB62520ED44FEABA
:200BC000C12343F0004343EA505323FA02F070474FF00000704750EA013002D14FF0FF3083
:200BE00070474FF0000070474FEA4102B2F1E04324BFB3F5001CDCF1FE5C0DD901F0004C15
:200C00004FEAC0024CEA5070B2F1004F40EB830008BF20F00100704711F0804F21D113F1EE
:200C20003872BCBF01F00040704741F480114FEA5252C2F11802C2F1200C10FA0CF320FA35
:200C400002F018BF40F001004FEAC1234FEAD32303FA0CFC40EA0C0023FA02F34FEA430382
:200C6000CCE77FEA625307D150EA01331EBF4FF0FE4040F44000704701F0004040F0FE4039
:200C800040F40000704700BF53B94AB9002908BF00281CBF4FF0FF314FF0FF3000F074B9AE
:200CA000ADF1080C6DE904CE00F006F8DDF804E0DDE9022304B070472DE9F047089D044621
:200CC0008E46002B4DD18A42944669D9B2FA82F252B101FA02F3C2F1200120FA01F10CFA16
:200CE00002FC41EA030E94404FEA1C48210CBEFBF8F61FFA8CF708FB16E341EA034306FB6B
:200D000007F199420AD91CEB030306F1FF3080F01F81994240F21C81023E63445B1AA4B27E
:200D2000B3FBF8F008FB103344EA034400FB07F7A7420AD91CEB040400F1FF3380F00A8170
:200D4000A74240F207816444023840EA0640E41B00261DB1D4400023C5E900433146BDE867
:200D6000F0878B4209D9002D00F0EF800026C5E9000130463146BDE8F087B3FA83F6002E8F
:200D80004AD18B4202D3824200F2F980841A61EB030301209E46002DE0D0C5E9004EDDE7D5
:200DA00002B9FFDEB2FA82F2002A40F09280A1EB0C014FEA1C471FFA8CFE0126200CB1FB38
:200DC000F7F307FB131140EA01410EFB03F0884208D91CEB010103F1FF3802D2884200F22C
:200DE000CB804346091AA4B2B1FBF7F007FB101144EA01440EFB00FEA64508D91CEB04049B
:200E000000F1FF3102D2A64500F2BB800846A4EB0E0440EA03409CE7C6F12007B34022FAF9
:200E200007FC4CEA030C20FA07F401FA06F31C43F9404FEA1C4900FA06F3B1FBF9F8200C6F
:200E40001FFA8CFE09FB181140EA014108FB0EF0884202FA06F20BD91CEB010108F1FF3A78
:200E600080F08880884240F28580A8F102086144091AA4B2B1FBF9F009FB101144EA01410E
:200E800000FB0EFE8E4508D91CEB010100F1FF346CD28E456AD90238614440EA0840A0FB2A
:200EA0000294A1EB0E01A142C846A64656D353D05DB1B3EB080261EB0E0101FA07F722FAB2
:200EC00006F3F1401F43C5E9007100263146BDE8F087C2F12003D8400CFA02FC21FA03F3AB
:200EE000914001434FEA1C471FFA8CFEB3FBF7F007FB10360B0C43EA064300FB0EF69E4255
:200F000004FA02F408D91CEB030300F1FF382FD29E422DD9023863449B1B89B2B3FBF7F673
:200F200007FB163341EA034106FB0EF38B4208D91CEB010106F1FF3816D28B4214D9023E2E
:200F40006144C91A46EA004638E72E46284605E70646E3E61846F8E64B45A9D2B9EB02089C
:200F600064EB0C0E0138A3E74646EAE7204694E74046D1E7D0467BE7023B614432E73046E0
:200F800009E76444023842E7704700BF70B500258EB004462422294605A8049519F0E6FF25
:200FA00042238DF800304D238DF801302A4BCDF80A501B688DF802301A0A8DF803201A0C31
:200FC0001B0E8DF804208DF80530F02236238DF80A308DF81820282318228DF810308DF8CF
:200FE0001E2040232C22C4218DF814308DF8252001230E228DF815308DF81C308DF82630C0
:201000008DF829208DF82D208DF83130CDF806508DF828108DF82C106A46234602AE15468D
:2010200003CDB542186059602A4603F10803F6D128681860AA889A8004AD04F10E030EACBD
:201040002A4603CAA24218605960154603F10803F6D10EB070BD00BF0000002037B5094C12
:201060000190656810F01EFD019B074AB0FBF2F0584301906368019A5B1B9342FAD303B020
:2010800030BD00BF001000E040420F0030B587B004460D461422002101A819F067FF29468C
:2010A000204601220FF03EF911220023CDE9022301A903232046019504930EF0BDFF07B06C
:2010C00030BD30B587B004460D461422002101A819F04CFF0122294620460FF023F90023E0
:2010E00001A92046CDE9023301950EF0A5FF07B030BD00002DE9F84F254B264F93F80080CC
:2011000000263546F3B298450BD8234B187809F0D9FD1DB101200AF023FE01252846BDE8B9
:20112000F88F07EB43124FEA431AD17D69B301249C40E0B209F0C6FD4FF08C0B002002F0AA
:2011400035FBBBF1010BF9D107EB0A0957F80A00B9F80410FFF7B5FFB9F8041057F80A00F2
:201160000FF0DAF80C4A63B2147828B12343137089F81AB00136C5E724EA030313700123FC
:201180001D4489F81A30EDB2F4E79176F2E700BF133E0208BC5D0020985D002008B5054857
:2011A000012280210FF0BEF809F0B4FDBDE80840FFF7A0BF001002407FB50C4604A901E95B
:2011C0000C001646BDF80C1001910546002230460FF0A8F82846FFF741FF304601990122EB
:2011E0000FF0A0F8204604B0BDE87040FFF736BF82B06B4683E806000CCB20B905213C2078
:2012000002B0FFF7D9BF3C210520F9E773B56D4685E806000646002446FA04F095E80600B7
:2012200000F001000134FFF7E3FF082CF4D102B070BD30B585B002AB83E803000A210CCBA1
:201240000120FFF7B9FF029DBDF80C1001912846FFF737FF019928460FF05EF80446282034
:20126000FFF7FCFE28460199FFF710FF201E18BF012005B030BD73B56E4686E80300002527
:201280002C4696E80300FFF7D4FFA84001350444082DE4B2F5D1204602B070BD30B585B03C
:2012A00002AB83E8030046210CCB4FF4FA70FFF783FF029DBDF80C1001912846FFF701FF4A
:2012C000019928460FF028F8019904462846FFF7DDFE4FF4C870FFF7C1FEB4FA84F0400929
:2012E00005B030BD84B008B50DF1080C8CE80F00DCE90001FFF7D2FFBDE80840013818BF3C
:20130000012004B0704784B007B50DF1100C8CE80F00DCE90001FFF7C1FF01281BD104AB74
:2013200093E80600CC20FFF771FF04AB93E806004420FFF76BFF04AA92E803006B4683E89F
:201340000300FFF798FF003818BF012003B05DF804EB04B070470120F8E7000008B54378F3
:20136000007800EB0320DB0980B20CD0404280B2FFF7D8F8064B0022FFF73EF9FFF734FCB5
:2013800000EE100A08BDFFF7CDF8024B0022F3E70000B0BF0000B03F73B56C4684E80600D2
:2013A000054694E80300FFF779FFE0B194E80600CC20FFF72BFF94E80600BE20FFF726FF5B
:2013C0006E1E083594E80300FFF755FF06F8010FAE42F7D194E80300FFF760FFB0FA80F0C7
:2013E000400902B070BD0120FBE737B56C4684E80600054694E80300FFF750FF10B90120B9
:2014000003B030BD94E80600CC20FFF7FFFE94E806004E20FFF7FAFE94E80600A878FFF755
:20142000F5FE94E80600E878FFF7F0FE94E806002879FFF7EBFE94E80300FFF72FFF002826
:20144000DDD094E80600CC20FFF7E0FE94E806004820FFF7DBFE142002F0A8F90020CFE747
:2014600010B586B06B4683E80600002204468DF8102003A893E80600FFF78EFFA0B99DF891
:2014800010301F2B03D10923237006B010BD3F2B01D10A23F8E75F2B01D10B23F4E77F2B55
:2014A00001D10C23F0E720700120EEE730B587B06D4685E806000446002395E806000DF19E
:2014C0000B008DF80B30FFF7CBFF10B1012007B030BD9DF80B30A342F9D0092C1ED00A2C24
:2014E0001ED00B2C1ED00C2C0CBF7F231F2395E8060003A88DF81030FFF777FF0028E5D1B5
:2015000095E806000DF10B00FFF7AAFF0028DDD19DF80B30181B18BF0120D8E71F23E6E701
:201520003F23E4E75F23E2E730B593B0C3790493837903934379029303790193C378009377
:201540000DAD0C4683784278164928461AF014FB95E803009DF83F308DF82E309DF8403078
:201560008DF81C309DF84130BDF83D2008908DF81D30DDF839008DF8241007AB00250A90E0
:20158000ADF82C20009308498DF825500AAB08AA20468DF82F508DF81F501AF0EDFAA573AE
:2015A00013B030BDC1E50108DEE5010870B40379C67944790A46817946EA036643F3C01576
:2015C0002404C37844EA012481782B44457803EB012144EA060001EB054170BC0CF0ECBFE7
:2015E00030B50246014400208A4200D130BD12F8015B082480EA050313F0010F4FEA50002F
:201600001CBF80F08C03D8B2631E13F0FF044FEA5505EFD1E8E7000070B52DED028B424A65
:2016200086B0516804461068127A03AB03C394E803001A7001AB83E80300B0EE408AFFF778
:201640001AFE08B9012548E094E80300FFF726FE0028F7D094E80600CC20FFF7D7FD94E827
:201660000600BE20FFF7D2FD03AE092594E80300FFF701FE013D15F0FF0506F8010BF5D157
:20168000082103A8FFF7ACFF9DF81430834244D19DF80D309DF80C00DE0900EB032080B288
:2016A00020D0404280B2FEF73DFF204B0022FEF7A3FFFFF799FA07EE900A37EE880A10EE64
:2016C000100A84ED040AFEF73FFF194B0022FEF793FFFFF769FA4042A082284606B0BDEC67
:2016E000028B70BDFEF71EFF124B0022FEF784FFFFF77AFA07EE900A37EE880A354610EEFE
:20170000100A84ED040AFEF71FFF094B0022FEF773FFFFF749FAA082DFE707481AF078F955
:201720000A201AF08DF98DE788E501080000B0BF000030400000B03FE5E50108F0B58BB084
:2017400006AD85E80600244A0646D2F80D10D2F8090008AB03C395E80300FFF79FFD00283C
:2017600038D095E806003320FFF750FD08AF082495E80300FFF77FFD013C14F0FF0407F830
:20178000010BF5D1072108A8FFF72AFF9DF82730834206D108AB03CB3060716020460BB0F5
:2017A000F0BD04939DF8263003939DF8253002939DF8243001939DF8233000939DF8212017
:2017C0009DF822309DF8201004481AF021F90A201AF036F90124E1E788E5010807E6010831
:2017E0002DE9F04F2DED028BB24B1B7891B0012B05900C4602D1B04810F08EFD059B23F000
:201800000203012B40F0AC80DFF8C8A2DFF8C8B2254626464FF00008B446BCE80F0008AF27
:201820000FC79CE80F0087E80F0008AF97E80300FFF734FD012836D106F11B0996E8060092
:201840004846FFF70DFE96E806004846FFF708FEF37E9AF800209A4225D0FF2B06D1974817
:2018600041461AF0D5F80A201AF0EAF84FF00A099AF80000F37E834215D096E8060009F177
:20188000FF39FFF713FE19F0FF0903D0002001F08DFFEDE7F27E08F1010158461AF0B8F8F1
:2018A0000A201AF0CDF808F10108B8F1080F06F12006B1D104F580734FF0000B0693D946E0
:2018C000069B9D420AD1059B032B40F09C800025284611B0BDEC028BBDE8F08F4FF00A0A92
:2018E0004FF0020805F1100696E80F008DE80F0095E80F00FFF7F6FCAE46BEE80F00BC4663
:20190000ACE80F0096E80F008CE80F0097E80300FFF7C4FC012805D0EB7D85F816905BB93F
:201920002035CDE7A87596E80F008DE80F0095E80F00FFF7E8FC8046BAF1010AEB7D09D04D
:20194000012B03D185F8189085F81E90B8F1000FCAD1E5E7012BE3D12B76AB779B46DFE7CE
:20196000059B002B4DD10AF0D9F9DDF814B0DFF86CA19FED538A083401260025A4F10803A4
:2019800007930223002706930DF12008A37B0BB3A4F1080EBEE80F000DF1200CACE80F0099
:2019A0009EE80F008CE80F0098E80300FFF776FC0128814641D0002323606360E37B002B31
:2019C00054D1DFF81C910A274FF00208A37B002B40F08880E37B012B00D123740136092E03
:2019E0000AF1020A04F12004C8D1059B7BB9002D3FF46DAF33481AF00BF80A201AF020F80A
:201A000066E74FF0000B059B022BB0D00025294B1B78012B02D1284810F044FC002D3FF4A7
:201A200056AFBBF1000F3FF452AF274819F0F0FF0A201AF005F85D464AE7079B404693E8A3
:201A40000600FFF77BFEC0B13946204819F0E0FF0A2019F0F5FF00220698A28184ED028ACA
:201A600084F8109084F815904D460690092F0FD0069B0137002B89D1A3E760754146E31DA5
:201A800011F8012B1A70A34203F1FF33F8D1ECE7E77B012F95D131460D4819F0B9FF0A2031
:201AA00019F0CEFF0023A38184ED028A27746775BB4686E75C6700208866002045E6010802
:201AC00000000000B8E60108C9E601087CE6010893E601089400002061E60108DA67002055
:201AE00050010020BAF90000FEF71CFD204B0022FEF7ACFEFFF778F800EE100A0798FFF785
:201B00008BFDA37B002818BF0125012B1CD199F80030D4ED027A012B0BD0B2EE027A67EE6B
:201B2000877AF1EE046A87EEA67ADFED127A77EE277AC4ED027A4FF00008013F0AD0B8F12D
:201B4000000F7FF443AF49E7E37B84ED028A002BF3D143E7E77B012F7FF440AF31460648B4
:201B600019F056FF0A2019F06BFFBB46277435E70000244000000042A3E6010808B50B486A
:201B80000B4A0C4BC0E9002300234FF48042C0E90233C0E90423C0E9063303620FF010F9A8
:201BA00018B1BDE808400AF073BB08BD2465002000540040A086010070B50E4D0E4E0446F8
:201BC000012086B028703078012808D00A98009020460FF0B7F900232B7006B070BD002065
:201BE000CDE90423039101F0E1FDDDE904230399E9E700BFCF6700203C5F002070B50E4DFC
:201C00000E4E0446012086B028703078012808D00A98009020460FF06DFA00232B7006B014
:201C200070BD0020CDE90423039101F0BFFDDDE904230399E9E700BFCF6700203C5F002010
:201C4000030903EB830300F00F0000EB4300C0B270470A23B0FBF3F3C3EB4312C3EB8202BB
:201C600000EB420040EA0310C0B2704710B5052386B0044602223E48D0210FF0ABFB50B123
:201C80003C4819F0C5FE0A2019F0DAFEFFF776FF012006B010BD8DF810002078FFF7D9FFDF
:201CA0008DF811006078FFF7D4FF8DF81200A078FFF7CFFF8DF81300E078FFF7CAFF8DF846
:201CC00014002079FFF7C5FF8DF815006079FFF7C0FF8DF81600A079FFF7BBFF64238DF805
:201CE000170000932248082304AAD021FFF764FF08B12148C5E702A800F042F808B11F48EB
:201D0000BFE79DF80900237862789DF808108B4208BF8242A2789DF80A300CBF0120002010
:201D20009A4214BF002000F00100A2799DF80E309A4214BF002000F0010062799DF80D3088
:201D40009A4214BF002000F0010022799DF80C309A4214BF002000F00100E2789DF80B306D
:201D60009A4214BF002000F0010080F0010090E724650020DFE601080CE7010827E7010831
:201D80002DE9F043052389B0044602225D48D0210FF020FBB0B1FFF7F1FE642001F006FDBD
:201DA000584805230222D0210FF014FB50B1564819F02EFE0A2019F043FE0122104609B0BE
:201DC000BDE8F08364254F4F2E46009601230022D0213846FFF7F0FE40B14C4819F018FE7D
:201DE0000A2019F02DFEFFF7C9FEE6E702AA00960723D0213846FFF701FF024608B144489D
:201E0000ECE700960123D0213846FFF7D5FE08B14048E3E704AA00960723D0213846FFF71F
:201E2000EDFE024608B13C48D8E7844602A904AB012011F8018B13F801EB0CF1010CF04563
:201E400018BF0020BCF1070FF3D1013D01D00028BBD09DF80800FFF7F3FE804620709DF8D3
:201E60000900FFF7EDFE814660709DF80A00FFF7E7FE0146A0709DF80B00FFF7E1FE07464E
:201E8000E0709DF80C00FFF7DBFE064620719DF80D00FFF7D5FE607105469DF80E00FFF785
:201EA000CFFEB9F13B0F98BF17298CBF01210021B8F13B0F88BF41F00101013F062F88BF13
:201EC00041F00101013E1E2E88BF41F00101A07119B9013D0B2D7FF671AF0023012406A8E6
:201EE0008DF818308DF819308DF81A308DF81B408DF81C408DF81D408DF81E30FFF7B6FE58
:201F000022465BE72465002042E701080CE7010871E701088FE70108AAE701081FB564236B
:201F20008DF80C008DF80D1000930948022303AAD021FFF741FE40B1064819F069FD0A20BA
:201F400019F07EFDFFF71AFE012005B05DF804FB24650020C8E7010830B585B0FA250C46D9
:201F60008DF8080000951048012302AAD021FFF723FE50B10D4819F04BFD0A2019F060FDD8
:201F8000FFF7FCFD012005B030BD07480095012303AAD021FFF732FE08B10548EBE79DF856
:201FA0000C302370EFE700BF24650020C8E70108ECE701082DE9F3410646084617461D46DC
:201FC000FFF747FE04463846FFF743FE80462846FFF73FFE07469DF82000FFF73AFEF20737
:201FE00044BF64F07F04E4B2B30748BF68F07F08054648BF5FFA88F8700744BF67F07F074F
:20200000FFB2310744BF65F07F05EDB2F20644BF45F04005EDB2330623D421460720FFF794
:202020007DFF48B1314819F0F3FC0A2019F008FD012002B0BDE8F0810DF107010720FFF776
:202040008BFF08B12A48EEE79DF80700041B18BF0124082641463046FFF760FF20B1254881
:20206000E1E700240B26F5E70DF107013046FFF773FF08B12048D6E79DF80730434518BF7A
:20208000601C06F1010818BFC4B239464046FFF745FF08B11948C6E70DF107014046FFF7EF
:2020A0005BFF08B11648BEE79DF80730BB4218BF601C06F1020618BFC4B229463046FFF7C7
:2020C0002DFF08B10F48AEE70DF107013046FFF743FF08B10C48A6E79DF80730AB4201D057
:2020E0000A48A0E7201E18BF0120A2E713E8010837E801085AE801087EE80108A1E80108D0
:20210000C5E80108E8E801080CE901082FE9010837B504460D460E206946FFF71DFF40B1A8
:20212000164819F075FC0A2019F08AFC012003B030BD0123013C03FA04F49DF80030012D04
:2021400006BF43EA0401C9B223EA04010E208DF80010FFF7E3FE08B10948E2E701A90E20B6
:20216000FFF7FAFE08B10748DBE79DF800209DF804309A42DBD00448D3E700BF54E9010897
:202180007EE90108A5E90108CBE9010837B504460D460F206946FFF7DFFE40B1174819F0E8
:2021A00037FC0A2019F04CFC012003B030BD631E9DF80020012404FA03F312EA03001AD078
:2021C00022EA03010F208DF80010FFF7A7FE08B10B48E4E701A90F20FFF7BEFE08B1094824
:2021E000DDE79DF800209DF804309A4201D12C70DBE70548D3E72870D7E700BFF3E9010890
:2022000010EA01082EEA01084BEA010813B50C460F2001A9FFF7A0FE40B1074819F0F8FB99
:202220000A2019F00DFC012002B010BD9DF8043023F07F032370F7E76AEA010813B5044684
:2022400069460E20FFF788FE40B1154819F0E0FB0A2019F0F5FB012002B010BD9DF800108B
:20226000032C9BBF21F01C0141EAC40141F00401C9B20E208DF80010FFF750FE08B10948F5
:20228000E4E701A90E20FFF767FE08B10648DDE79DF800209DF804309A42DDD00348D5E767
:2022A0008CEA0108AEEA0108D1EA0108F3EA010870B586B00CF098FE0446C8B93348344DA0
:2022C000324E19F0A5FB0A2019F0BAFB0CF08CFE00284FD1304619F09BFB0A2019F0B0FB2C
:2022E00001344FF4FA70E4B201F060FA032CEDD9284C294D002001F059FA2378072B41D0FA
:202300004FF4FA7001F052FA4FF4FA7001F04EFA4FF4FA7001F04AFA4FF4FA7001F046FA2D
:2023200001231E482B7019F073FB0A2019F088FB0CF0BAFD1A4AD4F801301360194B1A48FE
:202340005B685360237A0493E3790393A37902936379019323790093E378A278617819F03A
:2023600057FB0A2019F06CFB2878431E5842584106B070BD284619F04BFB0A2019F060FB0F
:202380000424ADE700232B70D2E700BF17EB010829EB0108406800202404002039EB0108E6
:2023A000B35D0020416800204AEB010838B5214D00052B8800F57E22B3EB124F16D2020C49
:2023C000B3EB104F4FF0000038BF2A8001F0EEF90022288811460CF0B7FF10B928880CF0F8
:2023E000BDFE2B8801332B80022021E0FCD1124C2388B3EB123F17D200F57020020BB3EB8F
:20240000103F4FF0000038BF228001F0CFF90022208811460CF0FAFE10B920880CF05EFEFE
:20242000238801332380DFE7DED100202880208038BD00BF3C0400203E04002038B51C4D71
:2024400000052B8800F57E22B3EB124F11D2B3EB104F4FEA10424FF0000038BF2A8001F0F4
:20246000A5F928880DF0CCF82B8801332B8002201CE0FCD10F4C2388B3EB123F12D200F502
:202480007020B3EB103F4FEA10324FF0000038BF228001F08BF920880DF088F823880133F3
:2024A0002380E4E7E3D100202880208038BD00BF580400205A04002030B51B4C00052388E8
:2024C00000F57E22B3EB122FC1B00D4627D2B3EB102F4FEA10224FF0000038BF228001F0BA
:2024E00065F94FF480730022684621880DF0EEF800226B46104613F8011B0130A94218BFA9
:202500000132B0F5807FF6D122B100232380012041B030BD2388013323800220F8E7FCD135
:2025200000202080F4E700BF2604002038B5214C0005238800F57E22B3EB124F19D2020C60
:20254000B3EB104F4FF0000038BF228001F02EF90022208811460CF0F7FE20B123880133CC
:202560002380022004E0144A002323801380012038BDF6D1104D2B88B3EB123F15D200F543
:202580007020020BB3EB103F4FF0000038BF2A8001F00CF90022288811460CF037FE002859
:2025A000E1D02B8801332B80DBE7DAD1002020802880DDE740040020420400202DE9F04728
:2025C0000023C0B006031A460C464FEA005A314668460DF07BF804F13903002213F801190D
:2025E000202903D11978202908BF5A70A342F5D1671EE94604F138086A463B4600254345E1
:202600002AD1002D3CD023466A4604F1380C18685968144603C4083363452246F7D11B782C
:20262000237000224FEA1A34114620460CF0EEFD8246D0B100231A46314668460CF062FF6C
:2026400000231A46314668460DF040F847451BD1003D18BF012513E012F8011B13F8010FB7
:2026600088421CBF0135EDB2C9E720460CF036FD5246514620460CF0C9FD0028DAD101254B
:20268000284640B0BDE8F08719F8013B17F8012F9A421CBF0135EDB2D8E710B5C0B00C4662
:2026A0004FF480730103002268460DF00FF8214604F139006B460024814202D1002040B0FC
:2026C00010BD13F8012BFF2A14BF0A700C700131F2E72DE9F041C4B001AC0B7823704B78B8
:2026E00063708B78A370CB78E3700B7923714B7963718B79A371CB79E3710B7A23720005DC
:202700004B7A637200F57E258B7AA3724FEA152800231A46414604A80CF0D8FF04AE002399
:20272000274632462146184611F801EB12F801CBE64518BF013003F1010318BFC0B20B2B7A
:20274000F2D1002839D094E8070004AB03C323F8022B120C1A702D0B0022114628460CF082
:2027600055FD0446F0B100231A46414604A80CF0C9FE00231A4604A841460CF0A7FF002328
:20278000184617F8011B16F8012B914218BF013003F1010318BFC0B20B2BF2D1003818BF52
:2027A00001200AE028460CF099FC2246214628460CF02CFD0028D6D1012044B0BDE8F081B3
:2027C00010B50C460105C0B001F57E2168464FF480730022090A0CF079FF9DF800302370F2
:2027E0009DF8013063709DF80230A3709DF80330E3709DF8043023719DF8053063719DF8BB
:202800000630A3719DF80730E3719DF8083023729DF8093063729DF80A30A372002040B055
:2028200010BD000010B5304C0005226800F580431B0A9342C0B051D900F58050B2EB102F0E
:202840004FEA10234FF0000038BF236000F0AEFF21684FF48073002268460CF037FF694646
:20286000002311F8012BFF2A0BD12168FE200DF8030003EB01210CF005FE0020206040B0AD
:2028800010BD12B3FE2A08D1FC220DF8032021681DF8030003EB0121EDE7FC2A01D1F822C8
:2028A000F3E7F82A01D1F022EFE7F02A01D1E022EBE7E02A01D1C022E7E7C02A01D18022B8
:2028C000E3E7802AE3D10022DFE70133B3F5807FC7D12368013323600220D0E7FCD100236A
:2028E00023600120CBE700BF5404002038B5040504F58054240BA51C0022114628460CF0B5
:2029000085FC08B9280138BD01340022114620460CF07CFC08B92001F5E70020F3E7000017
:20292000F0B5314C03050E4603F580422168120A8A42C1B0054652D903F58053B1EB132F5E
:202940004FEA13274FF0000038BF276000F02EFF216800224FF4807368460CF0B7FE6A463A
:20296000002112F8013BFF2B0AD12368DB1B01EB0323DB00002046F82530206041B0F0BDAC
:2029800023B3FE2B194A09D1012313702368DB1B01EB0323117801EBC303EBE7FC2B01D1BB
:2029A0000223F2E7F82B01D10323EEE7F02B01D10423EAE7E02B01D10523E6E7C02B01D1B5
:2029C0000623E2E7802BE1D10723DEE70131B1F5807FC6D12368013323600220CEE7FCD165
:2029E000002323600120C9E74C0400204404002030B587B013788DF8043053788DF80530A3
:202A000093788DF80630D3788DF8073013798DF8083053798DF8093093798DF80A30D379FF
:202A20008DF80B30137A8DF80C30537A8DF80D30937A8DF80E30D37A8DF80F30137B8DF805
:202A40001030537B8DF81130937B8DF81230D37B8DF813301324137C1F4D8DF81430614318
:202A6000537C8DF8153001EB0050937C8DF816302A6800F5804323449A422AD200F5804465
:202A8000A2424FF0000038BF2C6000F08FFE29680B1B18336B4413F8140C0CF0F3FC0DF14E
:202AA000030029680CF0D4FD2B681C1B04F118020DEB02049DF8032014F8141C914217BF41
:202AC000002301332B60012004BF2B60022007B030BD00202860FAE75004002037B51324BF
:202AE00061432B4D01EB005000F5804329682344994218D200F58044A1424FF0000038BF37
:202B00002C6000F053FE29680DF107000CF0A0FD2B68204A9DF807101C1B013311552B60B4
:202B2000022003B030BD1C4B1120002113F8014BFF2C08BF03F8011C0138F7D1154B1978C7
:202B400011705978517099789170D978D170197911715979517199799171D979D171197ADB
:202B60001172597A5172997A9172D97AD172197B1173597B5173997B9173D97BD173197C9B
:202B80001174597C51749B7C93742860C9E700BF48040020280400202A040020F0B50388CB
:202BA000D3B00DF109028DF800301B0A8DF8013043888DF802301B0A8DF8033003798DF899
:202BC000043043798DF8053083798DF80630C3798DF80730037A8DF8083000F1290100F156
:202BE000090353F8044B42F8044B8B42F9D1D0F82920CDF829209B88ADF82D3000F13003A7
:202C00000DF12F0500F150041A4652F8041B090AA24205F8011BF8D10DF1370253F8041BFA
:202C200002F8011BA342F9D10DF13F01583013F8012B02F00102984201F8012BF7D10023F3
:202C40001A4647F6F07112A80CF040FD12AC00226D4623466946104611F8017B13F8016B86
:202C6000B74218BF013002F1010218BFC0B2482AF2D1002839D0694612A818F04FF90022D3
:202C8000114640F2FF700CF0C1FA064600B300231A4647F6F07112A80CF034FC00231A46FC
:202CA00012A847F6F0710CF011FD0023184615F8011B14F8012B914218BF013003F10103FD
:202CC00018BFC0B2482BF2D1003818BF01200CE040F2FF700CF002FA3246314640F2FF7030
:202CE0000CF094FA0028D2D1012053B0F0BD30B5C1B04FF48073002247F6F071044668466A
:202D00000CF0E4FC00236A46194612F8010B0133FF2808BF02F8011C482BF6D19DF8012066
:202D20009DF8003003EB022323809DF803209DF8023003EB022363809DF8053063719DF870
:202D40000630A3719DF80730E3719DF80830237204F109020DF109030DF1290153F8040B1B
:202D600042F8040B8B42F9D1DDF82920C4F829209B88A4F82D3004F130020DF12F0504F1E6
:202D80005003114615F8010B000241F8040B8B42F8D10DF13700156810F8011B294442F813
:202DA000041B9342F7D10DF13F01583411F8012B02F0010203F8012B9C42F7D1002041B085
:202DC00030BD00000248002280210DF0ABBA00BF000C02400248012280210DF0A3BA00BF63
:202DE000000C024010B5084C0022202120460DF099FA052000F0DAFC20460122BDE81040AA
:202E000020210DF08FBA00BF000C024007B5002309488DF80430012240210DF083FA4FF0F8
:202E2000FF33012201A905480FF00AF99DF8040003B05DF804FB00BF000C024030660020E1
:202E400007B500228DF80700402107480DF06AFA4FF0FF3301220DF1070104480EF04EFFC6
:202E600003B05DF804FB00BF000C024030660020F8B5012205460C460B480C4F40210DF00F
:202E800051FA04B9F8BDB4F5004F264628BF4FF4004629464FF0FF33B2B238460EF02EFFB4
:202EA0003544A41BEDE700BF000C02403066002007B5030A8DF80500022101A88DF804306B
:202EC000FFF7D6FF03B05DF804FBF7B507462A2016460D461C46FFF7B3FF04213B0A0DEBC2
:202EE00001008DF80430330A8DF806308DF805708DF80760FFF7BCFF2B20FFF7A1FF2B0A73
:202F000004218DF804300DEB0100230A8DF805508DF806308DF80740FFF7AAFF2C2003B0AE
:202F2000BDE8F040FFF78CBF2DE9F3411C468318B3F5A07F154601EB0403C4BFC0F5A075D2
:202F4000ADB2F02BC8BFC1F1F0040F460646C8BFA4B2BDF82080FFF735FF7B1E721E23443D
:202F60002A4439469BB292B23046FFF7AEFF4FEA182311488DF80430012240218DF80580A6
:202F80000DF0D0F90D4FACB9FFF724FF02B0BDE8F0814FF0FF33022201A938460EF0AEFE62
:202FA000013EB6B2002EF4D13046013C00F0FEFBA4B2E8E72E46F5E7000C02403066002062
:202FC00030B5782085B000F0F1FB01224FF0FF3300218348834C0EF091FEFFF7F3FEFFF7AA
:202FE00001FF782000F0E2FB0120FFF729FF782000F0DCFBCB20FFF723FF20682379009017
:20300000052168468DF80430FFF732FFCF20FFF717FFB4F80520E379ADF80020032168463D
:203020008DF80230FFF724FFE820FFF709FF2289A37AADF80020032168468DF80230FFF7AE
:2030400017FFEA20FFF7FCFE002502216846ADF80050FFF70DFFED20FFF7F2FE624B009340
:2030600004216846FFF704FFF720FFF7E9FE2023012168468DF80030FFF7FAFEC020FFF704
:20308000DFFE2123012168468DF80030FFF7F0FEC120FFF7D5FE1023012168468DF8003044
:2030A000FFF7E6FEC520FFF7CBFE43F6314302216846ADF80030FFF7DBFEC720FFF7C0FED5
:2030C000C023012168468DF80030FFF7D1FE3620FFF7B6FE4823012168468DF80030FFF7DD
:2030E000C7FE3A20FFF7ACFE5523012168468DF80030FFF7BDFEB120FFF7A2FE4FF4D8538E
:2031000002216846ADF80030FFF7B2FEB620FFF797FE364B03211A889B78ADF80020684635
:203120008DF80230FFF7A4FEF220FFF789FE012168468DF80050FFF79BFE2620FFF780FEC3
:20314000012168468DF80010FFF792FEE020FFF777FE04F10B036A46133418685968154683
:2031600003C50833A3422A46F7D1186899889B79AB712860A98068460F21FFF779FEE12061
:20318000FFF75EFE1A4B6A4603F1080518685968144603C40833AB422246F7D1186899886C
:2031A0009B79A3712060A18068460F21FFF760FE1120FFF745FE782000F0F8FA2920FFF7F1
:2031C0003FFE3620FFF73CFE2823012168468DF80030FFF74DFE05B0BDE83040FFF7FABDA4
:2031E0003066002099E50108640312817BEB01087FEB010882B02DE9F04F85B0DEB2C3F3B4
:20320000072514460F93721E6B1E0B4402449BB292B2BDF84480BDF84890FFF756FEC72C04
:2032200071D0E72C71D0B42C71D0A82C71D0C02C71D0C12C71D0C22C71D0C32C71D0C42C19
:2032400071D0C82C71D0C92C71D0CA2C71D0CB2C71D0CC2C71D0CD2C71D0CE2C71D0CF2CAA
:2032600071D0D22C71D0D32C71D0D42C71D0D52C71D0D62C71D0D92C71D0DA2C71D0DB2C34
:2032800071D0DC2C71D0E02C71D0E12C71D0E22C71D0E32C71D0E42C71D0E82C71D0E92CAF
:2032A00071D0EA2C71D0EB2C71D0EC2C71D0ED2C71D0EE2C71D0EF2C71D0F22C71D0F32C36
:2032C00071D0F42C71D0F52C71D0F62C71D0F92C71D0FA2C71D0FB2C71D0FC2C71D07F2C3E
:2032E00028BF20244FEA1923203C01936C434FEA1823009364000027AF4264D305B0BDE87B
:20330000F04F02B070477F24ECE78024EAE78124E8E78224E6E78324E4E78424E2E78524A7
:20332000E0E78624DEE78724DCE78824DAE78924D8E78A24D6E78B24D4E78C24D2E78D2421
:20334000D0E78E24CEE78F24CCE79024CAE79124C8E79224C6E79324C4E79424C2E7952441
:20336000C0E79624BEE79724BCE79824BAE79924B8E79A24B6E79B24B4E79C24B2E79D2461
:20338000B0E79E24AEE79F24ACE7A024AAE7A124A8E7A224A6E7A324A4E7A424A2E7A52481
:2033A000A0E7A6249EE7A7249CE7A8249AE7A92498E7AA2496E7AB2494E7AC2492E7AD24A1
:2033C00090E7AE248EE7109B33F804B04FF0000A564505D8002000F0E9F9013702348BE712
:2033E0000BFA0AF213044ABF009B019B8DF80C304FF0020103A84EBF8DF80D808DF80C30E7
:203400008DF80D900AF1010AFFF732FDE0E782B02DE9FF470446BDF83C90BDF840A00D930A
:2034200088461546DFB2C3F30726FFF7CBFC15F8012B2AB904B0BDE8F04702B0FFF7CABC58
:20344000E319B3F5A07F0DDB08EB06031FFA83F816FA83F3EF2BEDDC202A18D0002000F086
:20346000A5F900240E9B8DF834708DF8356015F8012C00932046CDE9019A0D9B4146FFF7F5
:20348000B9FE3C440020A4B200F090F9CFE70024CDE730B4B0F5A07FBDF8085005D2EF29D4
:2034A00003D8029530BCFFF73FBD30BC704707B500210090F0234FF4A0720846FFF734FDCF
:2034C00003B05DF804FBB0F5A07F13B505D2EF2903D800930123FFF7DCFF02B010BDB0F5E3
:2034E000A07F13B506D2EF2904D8009313460122FFF7CFFF02B010BD2DE9F341B0F5A07FB9
:20350000BDF8207004460D4690461E4620D2EF291ED800970123FFF7BCFFA9194246204673
:203520000097012389B2FFF7B4FF33462946204600970122FFF7ADFF04EB080033460122AF
:20354000294680B2089702B0BDE8F041FFF7A1BF02B0BDE8F081B0F5A07F13B5144612DAB3
:20356000EF2910DC80B289B24B1C421C9BB292B2FFF7ABFC230A022101A88DF804308DF8B0
:203580000540FFF775FC02B010BD2DE9F74FBDF8306007460C4698469146FFF713FC26449C
:2035A00008EB070BB6B24FF0000A1FFA8BFBB44218D009EB4A033D4621B20AE033F8022BFF
:2035C00028B2CDE90013FFF7C6FFDDE900130135ADB25D45F2D10020013400F0E7F8C24490
:2035E000A4B2E4E703B0BDE8F04FFFF7F3BB2DE9F74FA3EB0109A2EB000AB9F1000FB8BFB4
:20360000C9F10009BAF1000FB8BFCAF1000AD145BDF830B004460D46904603DD98460C46C3
:2036200013460546444505DD2A461D461346224644469046A8EB0406B2B200925A1B82EA13
:20364000E271A1EBE271C6F3C03202FA86F6019176109D42B4BF01274FF0FF37FFF7B2FB6B
:20366000444504DD03B0BDE8F04FFFF7B3BBD145C7BF21462846294620465A46FFF76BFF9F
:20368000019BF61AB3B236B2002E04DA009A3D44D6182DB236B20020013400F087F824B2BB
:2036A000DEE70000044BC90001F4FC6141EAD20203EA00201043704700F8FFFF2DE9F34185
:2036C000089E0F461D4614468046FFF77BFB2A20FFF7B6FB1FFA88F0FFF7EAFBA0B2FFF75B
:2036E000E7FB2B20FFF7ACFBB8B2FFF7E1FBA8B2FFF7DEFB2E20FFF7A3FBA4EB0804FFF728
:2037000085FBEB1B0134013314FB03F39BB203EB4305104FADB206EB4304A64205D1FFF788
:2037200059FB284602B0BDE8F0814FF0FF3301A9032238460EF084FC9DF806209DF805105E
:203740009DF80400FFF7AEFF26F8020B002000F02DF8E2E73066002037B5FFF733FB092015
:20376000FFF76EFBFFF752FBFFF750FB0546FFF74DFB2D0645EA0044FFF748FB0546FFF7BD
:2037800045FB044344EA05200190FFF723FB019803B030BD08B504480DF0F4FE18B1BDE80B
:2037A000084008F075BD08BDCC65002010B50446FFF7F0FF16F096FE0A4B1B78012B03D00C
:2037C000094B1B68092B01D116F080FE04B910BDFFF7E0FF01200CF049F8013C16F082FE08
:2037E000F4E700BFD0670020E80000200C480D4A08B542F21073C0E9002300234FF48042BD
:20380000C0E90233C0E90423C0E9063303620DF0D7FA18B1BDE8084008F03ABD08BD00BFBC
:2038200078650020005C004070B50E4D0E4E0446012086B028703078012808D00A980090FF
:2038400020460DF07FFB00232B7006B070BD0020CDE904230391FFF7A9FFDDE90423039932
:20386000E9E700BF3C5F0020CF67002070B50E4D0E4E0446012086B028703078012808D0EA
:203880000A98009020460DF035FC00232B7006B070BD0020CDE904230391FFF787FFDDE9EE
:2038A00004230399E9E700BF3C5F0020CF67002030B585B005250C468DF80C008DF80D10DC
:2038C00016480095022303AAD021FFF7ADFF50B1134818F09DF80A2018F0B2F8FFF786FF40
:2038E000012005B030BD0D480095012303AAD021FFF79AFF08B10B48EBE7084800950123E3
:2039000003AAD021FFF7B2FF08B10748E1E79DF80C30181B18BF0120E3E700BF7865002010
:203920008FEB0108B3EB0108D7EB010810B5084805230122D0210DF04DFD08B1FFF756FFF6
:20394000BDE81040024805230122D0210DF042BD78650020000000002DE9F04F964B2DEDA3
:20396000028B196885B069B1944818F051F80A2018F066F84FF0020A504605B0BDEC028B61
:20398000BDE8F08F8E4E8F4D012405231A46D02130460DF01FFD824670B12146284618F058
:2039A00037F801340A2018F04BF8FFF71FFF0A2CEBD14FF0010ADFE79FED838ADFF8009216
:2039C000DFF82882DFF828B204460546064607460020FFF7EBFE3B238DF80C3005230093AE
:2039E0007748012303AAD021FFF71EFF002800F0B680764818F00CF80A2018F021F8FFF7DA
:203A0000F5FE0134E4B2632CE2D907EE907AF8EEE77AC7EE886A07EE906AF8EEE77A87EE06
:203A2000887A07EE905AF8EEE77AC7EE888A9FED688A66EE887A17EE90BA67EE087A17EE98
:203A4000900AFCF781FD064658460F46FCF77CFD68EE887A804617EE900A8946FCF774FDC0
:203A600002460B46FCF7C8FD424604460D464B4640464946FCF7C0FD22462B46FCF706FCAC
:203A800041EC100B1AF0CBFB304653EC102B3946FCF7DCFE41EC100B1AF016FA4D4B51EC9B
:203AA000100B0022FCF7A8FD41A3D3E90023FCF7CDFE494B804618688946FCF745FD02468A
:203AC0000B4640464946FCF7DFFBFDF78DF8324608EE100A3B4630463946FCF78DFD224657
:203AE0002B46FCF7D3FB41EC100B1AF098FB55EC104B8BF00040FCF727FD22462B46FCF775
:203B0000A5FE41EC100B1AF0DFF9324B51EC100B0022FCF771FD26A3D3E90023FCF796FE51
:203B20002E4B044618680D46FCF70EFD0B46024629462046FCF7A8FBFDF756F8DFED287A3D
:203B4000284B38EE678A07EE900ABDEEC88AFDEEE77A83ED008A244BC3ED007A0CE71E233C
:203B60000093224A0623D0214846FFF77FFE08B158463FE7B8F80030DBBA1F44B8F80230F4
:203B8000DBBA1E44F0EE087AB8F80430B4EEE78ADBBAF1EE10FA1D4404D5F7EE007A38EE9A
:203BA000278A2EE7632C3FF404AF642429E700BF7A008BFCFA21094074040020FEEB010884
:203BC0007865002036EC0108000000008FEB010800008038008066405C0400206004002058
:203BE0000000B44264040020680400206C040020D7EB0108000000002DE9F0472DED068B68
:203C00008D4886B017F004FF0A2017F019FF8B4B196861B18A4817F0FBFE0A2017F010FFCB
:203C20000224204606B0BDEC068BBDE8F087854F854E092505231A46D02138460DF0CAFB5E
:203C4000044668B13046013D17F0E2FEADB20A2017F0F6FEFFF7CAFD002DEBD10124E0E750
:203C6000DFED7A8ADFF8DCA1DFF808929FED788A05460646074680460020FFF797FD3B236F
:203C80008DF81430052300936E48012305AAD021FFF7CAFD002800F0A0806E4817F0B8FEBE
:203CA0000A2017F0CDFEFFF7A1FD0135ADB2B5F57A7FE1D307EE908AF8EEE77A9FED669AA6
:203CC00087EEA87A07EE907AF8EEE77A87EEA88A07EE906AF8EEE77A28EE098AC7EEA89A8A
:203CE00067EE098AFDEEE87A17EE903A002BB8BF5B4207EE903AF8EEE77AE9EE897A17EE9C
:203D0000900AFCF721FC41EC1A0B18EE100AFCF71BFCB0EE4A1AF0EE6A1A41EC100B1AF0C7
:203D20007CFA4E4B51EC100B0022FCF765FC4C4B0022FCF761FCBDEEC88A3DA3D3E90023E1
:203D4000FCF784FDFCF750FF18EE103A002BB8BF5B4208EE103AB8EEC88A0646A9EE898AF0
:203D600018EE100AFCF7F0FB41EC190B18EE900AFCF7EAFBB0EE491AF0EE691A41EC100BD2
:203D80001AF04BFA354B51EC100B0022FCF734FC344B0022FCF730FC25A3D3E90023FCF75D
:203DA00055FDFCF721FF304B1E60304B054618603046FCF7C9FB02460B462846CDE9022358
:203DC000FCF7C2FBDDE90223CDE90001284817F01FFE0A2017F034FE23E71E230093254A4D
:203DE0000623D0215046FFF741FD08B1224855E7B9F80030DBBA9844B9F80230DBBA1F4453
:203E0000B9F80430F4EEC88ADBBAF1EE10FA1E4404D5F7EE007A78EEA78A46E740F2E73361
:203E20009D423FF41BAF4FF47A753EE7AFF300807A008BFCFA21094068EC010874040020D3
:203E4000FEEB0108786500207AEC010800000000000048438FEB0108000080380080764008
:203E60000000E03F0000E0BF5C04002060040020A8EC01086C040020D7EB0108F0B5284F6C
:203E8000284E85B0052500224FF4007138460CF049FA3220FFF78AFC01224FF40071384697
:203EA0000CF040FA3220FFF781FC05231A46D02130460DF08FFA08B1FFF798FC05231A46C7
:203EC000D02130460DF086FA68B1174817F0A0FD013D0A2017F0B4FDFFF788FC15F0FF053F
:203EE000D1D1012418E06B238DF80C3080238DF80D300523009303AA0223D0213046FFF765
:203F000093FC044608B10948E0E70BF0A9FC084B18602046FFF74AFC204605B0F0BD00BF63
:203F20000004024078650020B9EC01088FEB0108740400201FB575238DF80C3000238DF8A0
:203F40000D301A4B196841B1194817F061FD0A2017F076FD022004B010BD0A241548009420
:203F6000012303AAD021FFF75FFC48B1124817F04FFD204617F064FDFFF738FC0120EAE79E
:203F8000052300930B48012303AAD021FFF76EFC08B10A48EBE79DF80C106829DBD00848D7
:203FA00017F036FD204617F04BFDE7E774040020FEEB010878650020E3EC010809ED0108E6
:203FC00032ED01082DE9F0412F4C2368054633B12E4E0BF045FC2368643898421CD3002372
:203FE0002B4E2C4FDFF8BC8023600124FFF79EFC08B1FFF7FBFBFFF799FCC0B1264821460C
:2040000017F006FD01340A2017F01AFDFFF7EEFB0A2CEBD1012035E00020FFF7C7FB2168B1
:20402000304617F0F5FC0A2017F00AFDD1E7FFF781FF014610B119482146E1E76B20FFF793
:2040400037FC014610B121464046D9E71B20FFF72FFC014610B121463846D1E71C20FFF745
:2040600027FC10B121463046CAE7012D0AD10C4817F0CEFC0A2017F0E3FCFFF7BDFD0038A8
:2040800018BF0120BDE8F08174040020FEEB0108FFED0108D1ED010861ED010881ED0108FE
:2040A0002EEE0108A4ED010807B5F02300210246009308464FF4A073FFF767FA03B05DF873
:2040C00004FB000010B51D4C2368092B17D11C4B5B7A292B13D11B4B1A68012A1A4A06D14A
:2040E000002119601170194B03221A7007E01849087801280BD1117839B100231370BDE807
:2041000010400021012007F02BBE1860F7E700230B70104913700B600F4910480B7010496E
:204120000B80104901220B604FF480710CF0FAF80A2323600C4B01221A70D4E7E800002074
:20414000ED540020C06D0020F36D00206B670020F56D0020F8A7002036640020000C0240F6
:2041600018860020EC6700204D00002030B5094A01F1C60314685D1AAC4206DB0855136814
:20418000C52B9CBF0133136030BD13F8014D5C70F0E700BF0455002070B5984A0546537AED
:2041A000167A1179D47B907892790128DBB2F6B2C9B2E4B2D2B201D0012A5CD14F2B23D0FA
:2041C00004D8062B17D0192B1BD070BD502BFCD18B4908680028F8DD8A4B1B689842FDD106
:2041E0002B182A5C13F8013C203B18BF012302B901382A1825E084482946BDE8704017F086
:20420000DBBC81492846F8E77D4A11680B46184601332C5C14F0DF0F01D0C528F7D9284459
:2042200040780028D1D0C52BCFD8764800688842FDD11360C9E71478202C00F1FF3000D1BC
:204240000133C643012B4FEAD676C8BF002612F801490EB1002CEED1002803DA684B0022EB
:204260001A60B2E7431C28444278002AADD0C52BABD80B60A9E72F2B1BD1644C012E2068E4
:2042800001D001290CD110B9602323609DE7C0B22946FFF76BFF6020FFF768FF0023F4E7D7
:2042A00008B9B423F1E7C0B22946FFF75FFFB420F2E7342B17D1554C012E206801D0012912
:2042C00008D108B95E23E0E7C0B22946FFF74EFF5E20E1E708B97E23D7E7C0B22946FFF79B
:2042E00045FF7E20D8E7012E01D001290CD1232B0AD1464C206808B9A823C6E7C0B22946B9
:20430000FFF734FFA820C7E72A2B12D13C4B1968481EC5283FF659AF3A4A12689142FDD18F
:204320001860C1F1C80229442844BDE8704016F003BE4C2B09D1324B1868C728C0F1C702DD
:2043400000F1010188BF0022EDE7A4F120025F2A00F2FE802D4E3368002B00F0F480602B4D
:2043600033D1412C00F09780452C00F09680492C00F095804F2C00F09480552C00F09380D1
:20438000612C00F09280652C00F09180692C00F090806F2C00F08F80752C00F08E802946BF
:2043A0006020FFF7E3FE29462046FFF7DFFE00233360174817F02CFB2146164817F028FBCC
:2043C000BDE870400A2017F03BBBB42B24D1412C75D0452C75D0492C75D04F2C75D0552C2A
:2043E00075D0612C75D0652C75D0692C75D06F2C75D0752C75D02946B420D2E7ED540020D3
:204400000455002008550020A06100208004002053EE01085CEE01085E2B16D1412C62D035
:20442000452C62D0492C62D04F2C62D0552C62D0612C62D0652C62D0692C62D06F2C62D0BC
:20444000752C62D029465E20ABE77E2B0AD1412C5DD04F2C5DD0612C5DD06F2C5DD0294653
:204460007E209EE7A82B9ED1412C58D0452C58D0492C58D04F2C58D0552C58D0612C58D00B
:20448000652C58D0692C58D06F2C58D0752C58D02946A82085E7C02485E7C82483E7CC24E1
:2044A00081E7D2247FE7D9247DE7E0247BE7E82479E7EC2477E7F22475E7F92473E7C124C9
:2044C00071E7C9246FE7CD246DE7D3246BE7DA2469E7E12467E7E92465E7ED2463E7F32447
:2044E00061E7FA245FE7C2245DE7CA245BE7CE2459E7D42457E7DB2455E7E22453E7EA24C5
:2045000051E7EE244FE7F4244DE7FB244BE7C32449E7D52447E7E32445E7F52443E7C424E2
:2045200041E7CB243FE7CF243DE7D6243BE7DC2439E7E42437E7EB2435E7EF2433E7F62453
:2045400031E7FC242FE729462046FFF70FFE30E74F2B0ED13149324A0B681268E85C28B1C5
:20456000C52B03D89342FDD1013382E69342FDD174E6502B13D12949294A0B681068002BDA
:204580000BDD8342FDD1013B73E60132AC5C002CFBD18342FDD10A6017E60022F6E7522B62
:2045A0000CD11E491E4A0B6812681B2B03DD9342FDD11C3B5DE69342FDD14FE6512B19D1C1
:2045C000002300E00133EA5C002AFBD113490A6802F11C00984208DA1B2A3FF7F6AD104B56
:2045E0001B689A42FDD10860EFE50D4800688242FDD13EE64B2B3FF431AE4E2B7FF4E5ADD9
:20460000002300E00133EA5C002AFBD1044A1068024A11688842FDD10BE600BF04550020DB
:20462000085500201F48016801BB1F4B1A6812B905221A607047052A02D11B4B0622F8E7F3
:20464000062A01D10822F4E7082A01D10922F0E7092A01D10B22ECE70B2A01D10C22E8E744
:204660000C2A1ED10122026019607047012918D10D4B1A68002AF7D0012A01D10322D8E7A1
:20468000032A01D10422D4E7042AD6D0062A01D10722CEE7072A04D1044A117000221A6015
:2046A00002607047D4040020D0040020C004002013B519234CF21864194618460094FA22E6
:2046C000FEF7E7FE192318460094FA22BE21FEF7E0FE1922104600948C233221FEF7D9FE11
:2046E00000948C2319223221FA20FEF7D2FE502319460094192240F21310FEF7CAFE3C21FA
:204700000846009478231C22FEF7C3FE009478231C223C216220FEF7BCFE009478231C22C0
:204720003C218820FEF7B5FE009478231C223C21AE20FEF7AEFE009478231C223C21D420D5
:20474000FEF7A7FE002002B010BD00002DE9F047DFF86C91514AD9F80030514F52F8231046
:20476000504CDFF860814FF620524FF6E075002918BF1546590107EB431386B09A7D012A1F
:2047800068D193F818A0BAF1000F63D107F108028E1888587168444E04AB03C3314604A824
:2047A000FCF7C2FE636800933246236869218B20CDE9015AFEF72BFED9F8003007EB431338
:2047C0001869FBF7C1FE0B4602463849304617F0D3F9D9F800309FED367A07EB4317D7EDF7
:2047E000047A98F80030F4EEC77AF1EE10FA11DB012B01D12C23F370CD200023CDE90153B9
:2048000063680093284A23687D21FEF700FE06B0BDE8F087B2EE047AF4EEC77AF1EE10FAB0
:2048200005DB012B01D12C23B370D820E5E7F5EEC07AF1EE10FA05DD012B01D12C2373704C
:20484000E320DAE7BAEE047AF4EEC77AF1EE10FAE7DDF1E76368174A0093002623686921CC
:204860008B20CDE90156FEF7D2FD98F8003012490D48012B114B1B7814BF2E222C22B342CB
:2048800014BF4323462317F077F963680093CDE901562368044A7D21E320B6E7B05F00204E
:2048A000BC5D00205C0000206F5500206CEE01080000C84273EE010884EE0108500100209C
:2048C0008804002035640020F0B40D2101FB00F3164C1749174D94F804C005F803C019441F
:2048E000EA1800236779A679A5784B7164788B71CB710B724B72104957709670D57014717D
:2049000053719371D3711372537201220A7081F801C08F70CE700D714C718B71CB710B723D
:204920004B728B72F0BCC0B2FDF7D3BE0D6800203063002098630020286400202DE9F041C4
:20494000DFF860E01549164A0D2444430EEB04031EF804404C705C7892F804C057799679B3
:2049600095788C7052789C7883F805C09F71DE711D725A724FF00008CC70DC781B7981F872
:2049800000800C714B7181F806C0CF710E724D728A72BDE8F041C0B2FDF79BBE2864002063
:2049A0000D6800209863002030B5164B164C197801EB410301EB8301144B1A68144B53F8E3
:2049C000225085B09DB1134B1348194417F0D4F800234FF62052CDE90132636800930E4A80
:2049E00023682D21B420FEF712FD05B030BD0B4B0948194417F0C0F84FF6E073CDE90153FF
:204A0000EBE700BF5E6700205C00002088040020B05F0020330102086F550020B7010208E5
:204A200030B5154B154C197801EB410301EB8301134B1A68134B53F8225085B09DB1124BC4
:204A40001248194417F098F8002302934FF620530193636800930D4A23682D21B420FEF7AD
:204A6000D6FC05B030BD0A4B0848194417F084F802954FF6E073EBE75E6700205C000020DB
:204A800088040020B05F00205A0102086F550020DE0102082DE9F043DFF880801E4E87B046
:204AA0000F460524002518F8013B8DF81550002B08BF20238DF814307368009320463368B0
:204AC000CDE9017505AAB9210B34FEF7A0FCA4B240F239139C42E6D1DFF8449005254FF0D4
:204AE000000819F8013B8DF81580002B08BF20238DF814302846736800930B35CDE90178FE
:204B0000336805AACD21ADB2FEF781FCA542E8D107B0BDE8F08300BF5C00002068620020F8
:204B200084620020494B2DE9F0411F68484D0D237B438AB0EB5C632B9FBF4FF00A0CB3FB1A
:204B4000FCFCCCEB4C12CCEB820298BF03EB42034FF00D0202FB075288BF002351788CBF61
:204B60009C46DBB263299FBF0A22B1FBF2F2C2EB4210C2EB800098BF01EB40014FF00D0024
:204B800000FB075088BF002180788CBF0A46C9B263289FBF4FF00A0EB0FBFEFECEEB4E144B
:204BA000CEEB840498BF00EB44004FF00D0404FB075488BF0020E4788CBF8646C0B2632CA9
:204BC0009FBF0A26B4FBF6F6C6EB4618C6EB880898BF04EB48044FF00D0808FB075588BFD0
:204BE00000242D7994BFE4B22646632D9FBF0A27B5FBF7F7C7EB4718C7EB880898BF05EB3F
:204C00004805DFF8608098F800808ABF0025EDB22F46B8F1010F0CBFCDE90021CDE900C32A
:204C2000CDE902E015BF0B460A490B49624605A816F0A2FFCDE9017508490094334605AADB
:204C4000074816F099FF0AB0BDE8F08188040020986300208FEE01089EEE0108ADEE010811
:204C60006F55002033640020354B2DE9F0411B68344E0D2202FB03668AB03379632B53D899
:204C80000A257179B1FBF5FCCCEB4C13CCEB830301EB4301B379B3FBF5F2C2EB4210C2EB6E
:204CA000800003EB4003F079B0FBF5FECEEB4E14CEEB840400EB4400347AB4FBF5F7C7EBB6
:204CC0004718C7EB8808767AB6FBF5F504EB4804C5EB4518C5EB880806EB4806C9B2DBB2D9
:204CE000C0B2E4B2F6B2DFF8708098F80080B8F1010F0ABFCDE90023CDE900C10B46CDE954
:204D000002E00ABF10491149624605A816F034FFCDE901560E4900943B4605AA0D4816F024
:204D20002BFF0AB0BDE8F081002427462046A646234622462146A44626462546D3E700BF24
:204D400088040020986300208FEE01089EEE0108ADEE01086F550020336400202DE9F04FDD
:204D60000D234343574FF95C63299FBF4FF00A0CB1FBFCFCCCEB4C13CCEB830398BF01EB09
:204D800043014FF00D0303FB007388BF00215B788CBF8C46C9B2632B98BF0A2204469FBF83
:204DA000B3FBF2F2C2EB4210C2EB800003EB40034FF00D0000FB047088BF002380788CBF9C
:204DC0001A46DBB263289FBF4FF00A0EB0FBFEFECEEB4E15CEEB850598BF00EB45004FF0DA
:204DE0000D0505FB047588BF0020AD7A8CBF8646C0B2632D9FBF4FF00A08B5FBF8F8C8EB7F
:204E00004816C8EB860698BF05EB46054FF00D0606FB047688BF0025F67A94BFEDB2A846DA
:204E2000632E9FBF4FF00A09B6FBF9F9C9EB491AC9EB8A0A98BF06EB4A064FF00D0A0AFB3C
:204E4000047788BF00263F7B94BFF6B2B146632F9FBF4FF00A0AB7FBFAFACAEB4A1BCAEB06
:204E60008B0B98BF07EB4B07DFF86CB09BF800B08FB08ABF0027FFB2BA46BBF1010F0DF1B1
:204E8000240B0ABFCDE90023CDE900C10B46CDE902E00ABF0C490D496246584616F06CFEB7
:204EA000631CCDE905A7CDE90396CDE901850849CDF800B01A46074816F05EFE0FB0BDE84B
:204EC000F08F00BF306300208FEE01089EEE0108BAEE01086F5500203364002070B5064609
:204EE0000D460020A84201DB012009E0345C54B92A1A22EAE2722021304416F037F82046DE
:204F00000023735570BD0130ECE700002DE9F04F98464FF00B0992FBF9F909F1060385B038
:204F200023F00703144604AFADEB030D0A2C0DF1100B09F1FF320546D8BF00220E4658462F
:204F4000B96AB7F82CA015F0E9FFB9F1010FACBF0BEB09030BF10103ADB2B6B2A4B24FF043
:204F6000000203F8012C314622462846CDF800A0142306F11409FEF78CFA1FFA88F81FFADD
:204F800089F9A21E681C002300934946434692B280B2FEF77EFA3A8E144BCDF808A0019273
:204FA0005A680092B11CE81C5A461B6889B280B2FEF72DFA08F1130131445346224628462F
:204FC00089B2FEF780FA2846013D5346424649462544FEF784FA534642464946A8B2FEF7F0
:204FE0007EFA0437BD46BDE8F08F00BF5C0000202DE9FF47744E754A3178754B754C01EBA9
:20500000810102EB8101184616F0D6FD2278012A0ED10C224CF21861CDE901210090C8238C
:205020004FF4A07214210020FFF770FF002323703378DFF8E491684A6548684C684F03EBFC
:20504000430102EB410209EBC303664916F094FD4CF218650023CDE901536368009323680B
:205060005B4A2D210520FEF7D2F90095152340F2371240210420FEF73FFA42F2041300937F
:205080004FF49B72142341210520FEF702FAF97830783B79544A97F806C07D79002900F042
:2050A0008E800139CDE9005C01EBC00102EB81024CF2186542F2041A4C494D4816F05CFDE3
:2050C000CDE9015A636800932368494A41210520FEF79DF93278474B47493D4802EB4202AF
:2050E0004FF0000803EB420216F046FDCDE90158636800932368364A96210520FEF787F925
:205100000095152340F23712A9210420FEF7F4F9CDF800A014234FF49B72AA210520FEF7A6
:20512000B8F93B78BA78009334497B78344816F023FDCDE9015A636800932368304AAB21F4
:205140000520FEF764F932782E49214809EBC20216F012FDCDE901586368009323681C4A23
:205160005F210520FEF753F93278274B27491848C2EB02121A4416F0FFFCCDE90158636863
:2051800000932368124A78210520FEF740F932781F4B20490E4802EB420202EBC2021A4496
:2051A00016F0EAFCCDE90158636800932368084AD2210520FEF72BF904B0BDE8F087CDE902
:2051C000005C02EB401273E75E670020B8F801086F5500204D000020FEF701085C00002071
:2051E00003640020D8EE0108B8030208EBEE0108C1040020A6F80108FEEE0108A5F3010890
:20520000D80400200DEF010879F8010817EF010828F801087CF1010810F801080000000054
:205220002DE9F04F2DED028B0C4695B0002930D1002828DD0C234CF21862CDE90132B24DB5
:20524000B24A2B7803EB830302EB830300934FF4A072C82314212046FFF758FEAC4B2A7875
:20526000AC49AD4803EB021216F086FCAB4B02944FF6FF7201925A6800921B68A64A2D21D0
:205280000620FEF7C4F8204615B0BDEC028BBDE8F08F012940F089810024DFF88C82DFF86E
:2052A00078922646D8ED047ABDEEE78AB8EEC87A77EEC77A17EE900AFBF746F990A3D3E9CC
:2052C0000023FBF799F9FBF747FC0DAA079008F1080100231046013311F8015B02F8015B3A
:2052E000082BF8D10DF13C0A5146FCF71DF9671C079B8B4901938DED008A53463A46484696
:205300008DF84A6016F038FC98F817307E4D012B29780DF1240B40F03381824B584603EB4B
:20532000810116F029FC4FF4FC6306937E4B03EB441404F110030FCB8DE80F0094E80F0085
:20534000FBF7D0FF2978002840F02381754B0BA803EB810116F010FC744B754A1B7812785F
:2053600074498DED028A012B14BF2E232C23002A14BF432246220592079A684CCDE903322A
:20538000CDE900BA0BAB3A46484616F0F5FB069B0296019363680093C7EB07112D31236805
:2053A0004A4689B20E20FEF732F8082F08F1200840F0E4802B78604A02EBC3025F4B0692A8
:2053C0001868FBF7C1F84FF6FF77CDE90001069A5B49514816F0D0FB0296019763680093F4
:2053E00023684D4AB4210E20FEF711F82A7802EB820302EB4302534B1A44534B0692186892
:20540000FBF7A2F8069ACDE900015049424816F0B3FBCDE901766368009323683E4AB4215F
:205420008C20FDF7F4FF2A7849494A4B3A481B68C2EBC2020A44484916F09EFBCDE90176EF
:20544000636800932368344AC3210E20FDF7DFFF424B43491A68304816F08EFBCDE9017632
:205460006368009323682C4AC3218220FDF7CFFF3C4B1B78002B40F096803B4926480025E3
:205480004FF6FF7616F098FBCDE90165636800932368214AC321C820FDF7B9FF334A3449D7
:2054A00093680093D2E900231B4816F065FBCDE90165636800932368174AD2210E20FDF73C
:2054C000A6FF2C4A2C49137A0593D3790493937903935379029313790193D3780093937828
:2054E0000D48527816F048FBCDE90165636800932368094AE1210E20FDF789FF2C46C2E626
:20550000000000000088C3405E670020700302080A03020821EF01086F5500206C000020FE
:205520003FEF0108AC030208BC5D002035640020500100204FEF0108D1020208C85E0020AE
:2055400070EF0108E9020208345F00207AEF0108BC0202086404002084EF01086804002071
:2055600091EF0108026400209AEF010818680020B1EF010840680020CCEF01083C4691E6BC
:205580000C4B584603EB810116F0F6FA4FF6E073CBE6084B0BA803EB810116F0EDFA4FF4C1
:2055A00078430693D8E6044968E7022918BF002469E600BF3A030208A5EF01082DE9FF41CF
:2055C000624B634D1A78634F63493B78634CDFF8C881C2EBC20201EB42022846604916F03E
:2055E000CBFA0C234CF21861CDE901314FF4A072C823142100200095FFF788FC5949284664
:2056000016F0DAFA00264FF6FF73CDE90136636800932A4623682D210620FDF7F8FEB8F97E
:205620000000FAF77FFF504B0022FBF70FF9FBF7DBFAFAF789FF02460B4628464B4916F063
:205640009BFA3B784A4A013B32F91320B8F900309A4270D102964FF4FC63019363680093AA
:205660002A4623682D216620FDF7D1FE3A78414B03EB421313F8093C012B10D13E493448B7
:2056800016F09AFA00234FF47842CDE90132636800932F4A23682D21DC20FDF7B8FE4FF6CC
:2056A000FF75002663680093CDE901562368334A55210620FDF7ABFE63680093CDE9015639
:2056C00023682F4A69210620FDF7A1FE63680093CDE9015623682B4A7D210620FDF797FECB
:2056E00063680093CDE901562368274A91210620FDF78DFE63680093CDE901562368234A89
:20570000A5210620FDF783FE63680093CDE9015623681F4AB9210620FDF779FE6368009300
:20572000CDE9015623681B4ACD210620FDF76FFE04B0BDE8F08103DA02964FF6E0738CE7AD
:2057400094DD02964FF6205387E700BF5E6700206F55002005000020460302085C0000209E
:2057600005F001080FF001080000244017F00108DA670020BC5D00201EF0010827F00108DE
:2057800031F001083BF001084BF001085CF001086DF0010882F00108645500202DE9F04F03
:2057A0007E4C7F4D2378012B85B009D128687D4B392101FB0031C0B2FCF700FF0023237084
:2057C000794B7A4F1A78012A1BD13A78784E794900241C702B6802EBC20201EB4202013301
:2057E0007549304616F0C8F90C234CF21860CDE901300096C8234FF4A07214212046FFF77B
:2058000085FB4CF218630021CDE901316B4C3A7863686B490093DFF8CCB12368DFF8C8A1AC
:2058200002EB02120A4405202D21FDF7F0FDDBF80030BBB93A7802EB420102EB810229686B
:205840005AF82110002940F09D804FF4FC63CDE901136368009323685A490A44B4202D21E7
:20586000FDF7D5FD00264CF21868CDE901863A7863685549009302EB820201EB4202236867
:2058800041210520FDF7C3FDCDE901863A7863684E49009302EB420201EB42022368552187
:2058A0000520FDF7B4FD28685AF820304FF620524FF6E079B34218BF9146C0B2FFF732F961
:2058C000CDE90196636800932368394A41219F20FDF79DFD2878FFF7C7F9CDE901966368F2
:2058E00000932368324A55219F20FDF790FDCDE90186636800932368354A69210520FDF710
:2059000086FDCDE90186636800932368314A7D210520FDF77CFDFEF719FFCDE901863A7837
:2059200063682D490093C2EBC202236801EB82020520A521FDF76BFDDBF800305BBB4FF682
:205940002053009340F237122923B7210420FDF7D3FD2868214C5AF820104FF620534FF63E
:20596000E07200290CBF11461946FFF793F82378012B04D12868FEF7E1FF0023237005B03E
:20598000BDE8F08F4FF6E071CDE90131636800932368134961E748F21043D2E75F550020BE
:2059A00088040020D85F00204D0000205E6700206F550020810102089CF001085C00002011
:2059C00059020208B70102088C020208AA020208A2F00108ADF0010805020208605500202B
:2059E0003301020808000020B05F00202DE9FF41DFF82883D8F80030042B54D1AE4BAF4AF4
:205A00001B68D65C002E42D1AD4FAE4C3978AE4BAE4DC1EBC10103EB8101204616F0CCF8E7
:205A20004FF620534FF4A072CDE900431421C82330460296FFF76AFA3978A54B01EB410109
:205A4000C1EBC1011944204616F0B6F84CF218684FF47843CDE901836B68009322462B680A
:205A600078210520FDF7D3FC39789A4B01EB01111944204616F0A0F8CDE901866B6800930D
:205A80002B682246D7210520FDF7C1FC05E0924B01221A60914B03221A70914B01221A70CA
:205AA00004B0BDE8F081864D884C29789A1E012A00F29080834E8B4B01EB01111944304677
:205AC00016F07AF800274FF620534FF4A072CDE901371421C82338460096FFF717FA297850
:205AE000814B01EB410103EBC101304616F064F84CF21863029701936368009323683246DD
:205B000050210520FDF783FC784A2B781268012A4FEAC30340F0B38075496A48194416F03D
:205B20004BF800264FF47843CDE90136636800932368644A78210520FDF769FC6D4B29780A
:205B4000604803EBC10116F017F802964CF2186301936368009323685A4A78219B20FDF71E
:205B600056FC654B297857481A2201FB02314CF21866002716F020F8CDE9016763680093FB
:205B8000504A2368A0210520FDF741FC29785B4B4C48C1EBC10103EB810116F00DF8CDE94F
:205BA000016763680093474A2368B4210520FDF72EFC29784348C1EBC10301EB8301504B44
:205BC000194415F0F9FFCDE901676368009323683C4A57E7012B97DC4A4B3A4E01EBC10136
:205BE00003EB4101304615F0E7FF00274FF62053CDE9013714210096C8234FF4A0723846BE
:205C0000FFF784F92978D8F8008001EB4101C1EBC101B8F1000F0FD13B4B3046194415F08E
:205C2000CBFF4CF21863CDF80880019363680093236832465A2164E7344B4CF2186819443F
:205C4000304615F0B9FF0297CDF8048063680093324623685A210520FDF7D9FB29782C4B4E
:205C600001EB410103EBC101304615F0A5FFCDE9018763680093236832463C2141E7254995
:205C80001048194415F078FF00264CF21863CDE901366368009323680A4A78210520FDF718
:205CA000B6FB1D4B2978074803EBC10115F064FF02964FF478434BE788040020655F00206B
:205CC0005E6700206F55002031F501085C00002085F50108C4F50108E80000206B67002011
:205CE0004D00002023F40108F7F50108D45F00203BF7010853F701086BF7010856F4010883
:205D0000DAF401083FF6010875F60108B4F60108F3F60108AAF40108C2F40108D05F0020A0
:205D20002DE9F043BF4DC04B2978C04A01EB810101EB8101114418469BB015F03DFFBC4A37
:205D40001178012903460DD1002010704CF218611F22CDE9012100934FF4A072C8231421F1
:205D6000FFF7D4F82B78002B40F0B281B149AE4815F022FF4FF4FC63AF4C0022CDE9013272
:205D800063680093A84A23682D210520FDF73FFB2B78012B40F0A381A849A34815F00CFF78
:205DA0004FF4FC630022CDE90132636800939E4A236846210520FDF72AFB2B78022B40F0C0
:205DC00095819F49984815F0F7FE4FF4FC630026CDE901366368944A00935F212368994F07
:205DE0000520FDF714FB984B29788F4803EBC10115F0E2FE4FF6E073019363688A4A00932D
:205E00002D21236802969F20FDF701FB2B788F4A397803EBC3031A44002940F06E818C4906
:205E2000814815F0A9FE4FF4FC630022CDE9013263687D4A0093462123689F20FDF7E7FA95
:205E40003B78844A012B2B7803EBC3031A4440F05B817F49744815F08FFE4FF4FC630026F6
:205E6000CDE901366368704A00935F212368DFF804929F20FDF7CBFA2978774B6A4801EB2C
:205E8000410103EB810115F097FE4FF6E073019363680093644A236802967D210520FDF7A4
:205EA000B6FA99F80030002B40F035816B495E4815F082FE4FF4FC630022CDE90132636809
:205EC0000093594A236896210E20FDF7A0FA99F80030012B40F026816149534815F06CFE16
:205EE0004FF4FC630026CDE9013663684E4A0093AF212368DFF880810E20FDF788FA29787F
:205F0000584B494801EBC101194415F055FE4FF6E073019363680093434A236802967D2112
:205F20009F20FDF774FA98F80030002B40F001814D493D4815F040FE4FF4FC630022CDE9CB
:205F4000013263680093384A236896219F20FDF75EFA98F80030012B40F0F280434932484D
:205F600015F02AFE4FF4FC630026CDE9013663682D4A0093AF2123689F20FDF748FA1623E1
:205F800098222A2104200096FDF7B6FA16239822432104200096FDF7AFFA162398225C2180
:205FA00004200096FDF7A8FA16239822932104200096FDF7A1FA16239822AC210420009627
:205FC000FDF79AFA16239B2243219C200096FDF793FA16239B225C219C200096FDF78CFACD
:205FE00016239B2293219C200096FDF785FA16239C2000969B22AC21FDF77EFA1C4B1878BA
:20600000002840F0A4804FF478430093982216232A210420FDF770FA29780348C1EBC10357
:206020002CE000BF5E6700206F550020F4F801084D000020BBF001085C000020D3F001086E
:20604000EBF00108336400203FF90108EDF9010807F1010808FA010857F9010815F1010801
:2060600027F101087BF9010839F1010847F1010860670020356400205001002001EB83018D
:20608000584B194415F098FD4CF218630022CDE901326368544A0093D22123680320FDF711
:2060A000B6F904A8FCF723FE3B788DF8153099F800308DF8163098F800308DF8173004A830
:2060C0002B788DF81830FCF769FD1BB0BDE8F0834649454815F070FD4CF218634CE644490E
:2060E000414815F069FD4CF218635BE641493E4815F062FD4CF2186369E63F493A4815F027
:206100003BFD4CF2186390E63B49374815F034FD4CF21863A3E63949334815F04DFD4CF213
:206120001863C9E63649304815F046FD4CF21863D8E634492C4815F03FFD4CF21863FDE6B1
:206140003149294815F038FD4CF218630CE7012806D14FF47843009398221623432158E747
:20616000022806D14FF478430093982216235C214FE7032806D14FF4784300939822162361
:20618000932146E7042806D14FF47843009398221623AC213EE7052807D14FF4784300930F
:2061A0009B22162343219C2034E7062806D14FF4784300939B2216235C21F4E7072806D1C4
:2061C0004FF4784300939B2216239321EBE708287FF422AF4FF4784300939B221623AC21EA
:2061E000E1E700BF96F901086F550020C7F00108DFF00108F9F001080EF101081EF10108F2
:2062000030F1010840F101084EF101081FB50F4A0F4912780F4B104C1B68C2EB0210014486
:2062200000910E49013301EBC20220460C4915F0A3FC00201F23CDE901300094C8234FF428
:20624000A0721421FEF762FE04B010BD5E670020D1F70108880400206F550020B9F7010822
:2062600055F10108000000002DE9F04F044687B0002840F09B800122114696480AF052F8EA
:20628000954B1A78012A40F08880944E1C7005F03BFF934B934A9449944F954D304615F0B4
:2062A0006BFC4CF2186E0C23CDE9013E4FF4A072C823142120460096FEF728FE3A788D497B
:2062C00002EB820205EB4202304615F055FC3B78894A03EB830305EB43051470234615F821
:2062E000011B00294BD104B1137000241F23CDE90134824D794A6B6800932B68804EDA2160
:206300000120FDF784F83A78347002EBC2037D4A1A441146234611F8010B002836D104B106
:20632000337074496D4815F027FC774A1378012B0BD1002313703278072A06D800936E224A
:206340001223DA21D120FDF7A4F83078634A0230C0EB003300EB830300EB830000241F23E2
:20636000CDE901346B68009300F23F102B68DA2180B2FDF74CF8002007B0BDE8F08F013364
:20638000DBB20A2B4FF00104A9D1ADE70133DBB2092B4FF00104BED1C2E70094C8230722D0
:2063A0002A2140F23510FDF774F8E4E7012807D10C23AF22282140F23110FDF790F8DAE7F6
:2063C000022807D10C234FF4A072D7210020FDF77AF8D0E74D4B032893F8008040F0F28092
:2063E00008F10803DBB20593494B4A4F434CDFF8EC9003EB880A1C226FF0DF0312FB08331E
:20640000464607EB481704932D25059BB342B2DD414B1A78A6EB08039A4240F08780072E90
:2064200048DCF0B2FEF79AFC00234FF4FC6CCDE9013C6368009323684A4629460520FCF74A
:20644000E6FF072E2CDC3B7F0BB97B7F63B100234FF4FC60CDE901306368009323682F4A83
:2064600029461B20FCF7D3FFDAF80030C3B100234FF4FC6BCDE9013B636800932368284A1D
:2064800029462620FCF7C3FFCDF808B000230193636800932368234A29465220FCF7B7FF7E
:2064A000049B15351C330136ADB20AF1040A20370493AAE70D4B049A1978E02313FB0123CA
:2064C00019494846194415F077FB1B214846FEF705FDA9E7001002404D0000206F55002004
:2064E0005EF1010869F1010879F101085E6700203AFD010881F101081A5500205C000020C3
:20650000195500207FFA010879040020A3670020905F0020BC5D0020A267002086F10108B3
:2065200088F101088AF101089AFA0108072E39DCF0B2FEF713FC48F210430021CDE9013132
:206540006368009323684A4629460520FCF75FFF072EA5DC3B7F0BB97B7F63B14FF62053E3
:206560000022CDE901326368009323682A4A29461B20FCF74CFFDAF80030012B90D14FF6F7
:2065800020534FF0000BCDE9013B636800932368224A29462620FCF73AFFCDF808B04FF654
:2065A000205374E71E4B049A1978E02313FB01231C494846194415F0FFFA1B214846FEF733
:2065C0008DFCB8E7042818D1174B1878404407EE900AF8EEE77A17EE900AF9F7B5FF0CA340
:2065E000D3E90023FAF708F8FAF7DEFA0C23C1B20093072264232A31D3E605287FF4BBAE00
:206600000A480022012109F08DFE0120B4E600BF666666666666144086F1010888F101082C
:206620005E6700209AFA0108A2670020001002402DE9F3470A28344FDFF8DC808246054612
:2066400028BF4FF00A0A3B78012B28D098F80030012B24D00023009340F23912142391212D
:206660000320FCF716FF294B1B78022B1BD1284B1B78DBB1274B1B68072B0CBF4FF00C09F7
:206680004FF01F090026B245544615DC092D03D842F20415092C25DD02B0BDE8F087002068
:2066A000FDF784F8CFE742F20419EBE74FF00C09E8E70020FDF77AF83B78012BF9D098F8B0
:2066C0000030012BF5D070010330CDF8009014231922912180B2FCF7DCFE0136D3E700206C
:2066E000FDF764F83B78012BF9D098F80030012BF5D060010330009514231922912180B272
:20670000FCF7C7FE0134C5E7696700201A69002036640020F8A700203C5F0020F0B5A44B85
:206720001B6885B0002B63D0A249A34815F044FA00224FF47844CDE90124A04B5A680092EF
:206740001B689D4A78210320FCF761FE9C4A9D491378009353789C4892789B4D15F00CFA2B
:2067600000239A4A2846194612F8016B10F8014B0133A6421CBF02F8014C0121082BF3D124
:20678000002932D0924E934C3378012B00F09A812378012B00F096818F4B90491A7886484C
:2067A000854E8F4F02EB420302EB83028D4B1A4415F0E2F900248048F9F70AFD013415F849
:2067C000012B3946304415F0D7F9082CF3D14CF218620021CDE90121784B5A6800921B6882
:2067E000754AB4210320FCF712FE012005B0F0BD7D4D2B78002B5AD0774A632B12784BD0A6
:206800007A496D4C02EB420201EB42022046784915F0B2F92B78012B05D12046F9F7D8FCF5
:206820007449204482E7022B04D12046F9F7D0FC7149F6E70E2B04D844F64812DA40D60773
:206840000FD41A1FD2B2082A10D840F22B1121FA02F2D50740F13A815748F9F7B9FC674945
:20686000DFE72046F9F7B4FC6549DAE70D2B04D15148F9F7ADFC6349D3E70F2B04D14E4893
:20688000F9F7A6FC6049CCE7102B7FF451AF4A48F9F79EFC5D49C4E702EB420302EB83024B
:2068A0005B4B5C4944481A4415F066F940E75A4A1278022A40F0F580584E3368002B00F0BD
:2068C000DA80574A1488574A127812B9002C00F0D280072B3E4D2DD13E4E2B78012B5FD078
:2068E0003378012B5CD03C4B4F491A78324802EB820302EB43024D4B00251A4415F03CF971
:206900001223DC22009578215B20FCF7C2FD1F222A4B029501925A68009203201B68264A9F
