:020000040800F2
:2000000000000220690D0108510101087101010895010108B9010108DD0101080000000020
:20002000000000000000000000000000010201080302010800000000050201081D0201086E
:20004000B90D0108B90D0108B90D0108B90D0108B90D0108B90D0108CD020108B90D01081F
:20006000B90D0108B90D0108B90D0108B90D0108B90D0108B90D0108B90D0108B90D010808
:20008000B90D0108B90D0108F1020108B90D0108B90D0108B90D0108B90D0108D3020108AC
:2000A000B90D0108B90D0108B90D0108B90D0108B90D0108B90D0108B90D0108B90D0108C8
:2000C000B90D0108B90D0108B90D0108B90D0108B90D010815030108B90D0108B90D010856
:2000E000E7020108B90D0108B90D0108B90D0108B90D0108B90D0108B90D0108B90D010865
:20010000B90D0108B90D0108B90D0108B90D0108B90D0108B90D0108B90D01082103010809
:20012000B90D0108B90D0108B90D0108B90D0108B90D0108B90D0108B90D0108B90D010847
:20014000B90D0108B90D0108B90D010879030108B90D0108B90D0108B90D0108B90D010871
:20016000B90D0108B90D01089103010895030108B90D010885030108B90D01080000000074
:20018000B90D0108B90D0108FFFFFFFFFFFFFFFF10B5054C237833B9044B13B10448AFF32B
:2001A00000800123237010BD080400200000000008FC010808B5034B1BB103490348AFF3F2
:2001C000008008BD000000000C04002008FC0108034613F8012B002AFBD1181A0138704705
:2001E00001F0FF01102A2BDB10F0070F08D010F8013B013A8B422DD010F0070F42B3F6D1C5
:20020000F0B441EA012141EA014122F007047FF000070023F0E80256083C85EA010586EA71
:20022000010685FA47F5A3FA87F586FA47F6A5FA87F68EB9EED1F0BC01F0FF0102F007026C
:2002400032B110F8013B013A83EA010313B1F8D10020704701387047002D06BF35460338CF
:20026000073815F0010F07D1013015F4807F02BF013015F4C03F0130F0BC0138704700BF93
:2002800081F0004102E000BF83F0004330B54FEA41044FEA430594EA050F08BF90EA020F8D
:2002A0001FBF54EA000C55EA020C7FEA645C7FEA655C00F0E2804FEA5454D4EB5555B8BF63
:2002C0006D420CDD2C4480EA020281EA030382EA000083EA010180EA020281EA0303362D1A
:2002E00088BF30BD11F0004F4FEA01314FF4801C4CEA113102D0404261EB410113F0004F84
:200300004FEA03334CEA133302D0524263EB430394EA050F00F0A780A4F10104D5F1200EC1
:200320000DDB02FA0EFC22FA05F2801841F1000103FA0EF2801843FA05F359410EE0A5F109
:2003400020050EF1200E012A03FA0EFC28BF4CF0020C43FA05F3C01851EBE37101F0004515
:2003600007D54FF0000EDCF1000C7EEB00006EEB0101B1F5801F1BD3B1F5001F0CD349088F
:200380005FEA30004FEA3C0C04F101044FEA445212F5800F80F09A80BCF1004F08BF5FEA6E
:2003A000500C50F1000041EB045141EA050130BD5FEA4C0C404141EB0101013C28BFB1F5E7
:2003C000801FE9D291F0000F04BF01460020B1FA81F308BF2033A3F10B03B3F120020CDA82
:2003E0000C3208DD02F1140CC2F10C0201FA0CF021FA02F10CE002F11402D8BFC2F1200C96
:2004000001FA02F120FA0CFCDCBF41EA0C019040E41AA2BF01EB0451294330BD6FEA0404CF
:200420001F3C1CDA0C340EDC04F11404C4F1200220FA04F001FA02F340EA030021FA04F320
:2004400045EA030130BDC4F10C04C4F1200220FA02F001FA04F340EA0300294630BD21FA3E
:2004600004F0294630BD94F0000F83F4801306BF81F480110134013D4EE77FEA645C18BF1C
:200480007FEA655C29D094EA050F08BF90EA020F05D054EA000C04BF1946104630BD91EA56
:2004A000030F1EBF0021002030BD5FEA545C05D14000494128BF41F0004130BD14F58004B3
:2004C0003CBF01F5801130BD01F0004545F0FE4141F470014FF0000030BD7FEA645C1ABF2F
:2004E000194610467FEA655C1CBF0B46024650EA013406BF52EA033591EA030F41F400211E
:2005000030BD00BF90F0000F04BF0021704730B54FF4806404F132044FF000054FF000014A
:2005200050E700BF90F0000F04BF0021704730B54FF4806404F1320410F0004548BF404296
:200540004FF000013EE700BF42004FEAE2014FEA31014FEA02701FBF12F07F4393F07F4F10
:2005600081F06051704732F07F4208BF704793F07F4F04BF41F40021704730B54FF4607424
:2005800001F0004521F000411CE700BF50EA010208BF704730B54FF000050AE050EA010206
:2005A00008BF704730B511F0004502D5404261EB41014FF4806404F132045FEA915C3FF4F0
:2005C000D8AE4FF003025FEADC0C18BF03325FEADC0C18BF033202EBDC02C2F1200300FA3C
:2005E00003FC20FA02F001FA03FE40EA0E0021FA02F11444BDE600BF70B54FF0FF0C4CF445
:20060000E06C1CEA11541DBF1CEA135594EA0C0F95EA0C0F00F0DEF82C4481EA030621EAF1
:200620004C5123EA4C5350EA013518BF52EA033541F4801143F4801338D0A0FB02CE4FF074
:200640000005E1FB02E506F00042E0FB03E54FF00006E1FB03569CF0000F18BF4EF0010E9E
:20066000A4F1FF04B6F5007F64F5407404D25FEA4E0E6D4146EB060642EAC62141EA555161
:200680004FEAC52040EA5E504FEACE2EB4F1FD0C88BFBCF5E06F1ED8BEF1004F08BF5FEA36
:2006A000500E50F1000041EB045170BD06F0004646EA010140EA020081EA0301B4EB5C04E5
:2006C000C2BFD4EB0C0541EA045170BD41F480114FF0000E013C00F3AB8014F1360FDEBFC7
:2006E000002001F0004170BDC4F10004203C35DA0C341BDC04F11404C4F1200500FA05F347
:2007000020FA04F001FA05F240EA020001F0004221F0004110EBD37021FA04F642EB0601A1
:200720005EEA430E08BF20EAD37070BDC4F10C04C4F1200500FA04F320FA05F001FA04F24F
:2007400040EA020001F0004110EBD37041F100015EEA430E08BF20EAD37070BDC4F1200516
:2007600000FA05F24EEA020E20FA04F301FA05F243EA020321FA04F001F0004121FA04F2B9
:2007800020EA020000EBD3705EEA430E08BF20EAD37070BD94F0000F0FD101F0004640005B
:2007A00041EB010111F4801F08BF013CF7D041EA060195F0000F18BF704703F000465200BD
:2007C00043EB030313F4801F08BF013DF7D043EA0603704794EA0C0F0CEA135518BF95EA39
:2007E0000C0F0CD050EA410618BF52EA4306D1D181EA030101F000414FF0000070BD50EA3C
:20080000410606BF1046194652EA430619D094EA0C0F02D150EA013613D195EA0C0F05D178
:2008200052EA03361CBF104619460AD181EA030101F0004141F0FE4141F470014FF00000E2
:2008400070BD41F0FE4141F4780170BD70B54FF0FF0C4CF4E06C1CEA11541DBF1CEA135570
:2008600094EA0C0F95EA0C0F00F0A7F8A4EB050481EA030E52EA03354FEA013100F08880CB
:200880004FEA03334FF0805545EA131343EA12634FEA022245EA111545EA10654FEA002629
:2008A0000EF000419D4208BF964244F1FD0404F5407402D25B084FEA3202B61A65EB0305CC
:2008C0005B084FEA32024FF480104FF4002CB6EB020E75EB030E22BFB61A754640EA0C0042
:2008E0005B084FEA3202B6EB020E75EB030E22BFB61A754640EA5C005B084FEA3202B6EBA3
:20090000020E75EB030E22BFB61A754640EA9C005B084FEA3202B6EB020E75EB030E22BF51
:20092000B61A754640EADC0055EA060E18D04FEA051545EA16754FEA06164FEAC30343EA5D
:2009400052734FEAC2025FEA1C1CC0D111F4801F0BD141EA00014FF000004FF0004CB6E7B0
:2009600011F4801F04BF01430020B4F1FD0C88BFBCF5E06F3FF6AFAEB5EB030C04BFB6EB12
:20098000020C5FEA500C50F1000041EB045170BD0EF0004E4EEA113114EB5C04C2BFD4EB50
:2009A0000C0541EA045170BD41F480114FF0000E013C90E645EA060E8DE60CEA135594EA21
:2009C0000C0F08BF95EA0C0F3FF43BAF94EA0C0F0AD150EA01347FF434AF95EA0C0F7FF438
:2009E00025AF104619462CE795EA0C0F06D152EA03353FF4FDAE1046194622E750EA410659
:200A000018BF52EA43067FF4C5AE50EA41047FF40DAF52EA43057FF4EBAE12E74FF0FF3CE3
:200A200006E000BF4FF0010C02E000BF4FF0010C4DF804CD4FEA410C7FEA6C5C4FEA430C83
:200A400018BF7FEA6C5C1BD001B050EA410C0CBF52EA430C91EA030F02BF90EA020F00201C
:200A6000704710F1000F91EA030F58BF994208BF90422CBFD8176FEAE37040F00100704729
:200A80004FEA410C7FEA6C5C02D150EA013C07D14FEA430C7FEA6C5CD6D152EA033CD3D0FF
:200AA0005DF8040B704700BF8446104662468C461946634600E000BF01B5FFF7B7FF002891
:200AC00048BF10F1000F01BD4DF808EDFFF7F4FF0CBF012000205DF808FB00BF4DF808EDC1
:200AE000FFF7EAFF34BF012000205DF808FB00BF4DF808EDFFF7E0FF94BF012000205DF8D4
:200B000008FB00BF4DF808EDFFF7CEFF94BF012000205DF808FB00BF4DF808EDFFF7C4FF78
:200B200034BF012000205DF808FB00BF4FEA410C7FEA6C5C02D150EA013C0AD14FEA430C06
:200B40007FEA6C5C02D152EA033C02D14FF0000070474FF0010070474FEA410212F50012C1
:200B600015D211D56FF47873B3EB625212D94FEAC12343F0004343EA505311F0004F23FA4D
:200B800002F018BF404270474FF00000704750EA013005D111F0004008BF6FF000407047BE
:200BA0004FF00000704700BF4A0011D212F5001211D20DD56FF47873B3EB62520ED44FEABA
:200BC000C12343F0004343EA505323FA02F070474FF00000704750EA013002D14FF0FF3083
:200BE00070474FF0000070474FEA4102B2F1E04324BFB3F5001CDCF1FE5C0DD901F0004C15
:200C00004FEAC0024CEA5070B2F1004F40EB830008BF20F00100704711F0804F21D113F1EE
:200C20003872BCBF01F00040704741F480114FEA5252C2F11802C2F1200C10FA0CF320FA35
:200C400002F018BF40F001004FEAC1234FEAD32303FA0CFC40EA0C0023FA02F34FEA430382
:200C6000CCE77FEA625307D150EA01331EBF4FF0FE4040F44000704701F0004040F0FE4039
:200C800040F40000704700BF53B94AB9002908BF00281CBF4FF0FF314FF0FF3000F074B9AE
:200CA000ADF1080C6DE904CE00F006F8DDF804E0DDE9022304B070472DE9F047089D044621
:200CC0008E46002B4DD18A42944669D9B2FA82F252B101FA02F3C2F1200120FA01F10CFA16
:200CE00002FC41EA030E94404FEA1C48210CBEFBF8F61FFA8CF708FB16E341EA034306FB6B
:200D000007F199420AD91CEB030306F1FF3080F01F81994240F21C81023E63445B1AA4B27E
:200D2000B3FBF8F008FB103344EA034400FB07F7A7420AD91CEB040400F1FF3380F00A8170
:200D4000A74240F207816444023840EA0640E41B00261DB1D4400023C5E900433146BDE867
:200D6000F0878B4209D9002D00F0EF800026C5E9000130463146BDE8F087B3FA83F6002E8F
:200D80004AD18B4202D3824200F2F980841A61EB030301209E46002DE0D0C5E9004EDDE7D5
:200DA00002B9FFDEB2FA82F2002A40F09280A1EB0C014FEA1C471FFA8CFE0126200CB1FB38
:200DC000F7F307FB131140EA01410EFB03F0884208D91CEB010103F1FF3802D2884200F22C
:200DE000CB804346091AA4B2B1FBF7F007FB101144EA01440EFB00FEA64508D91CEB04049B
:200E000000F1FF3102D2A64500F2BB800846A4EB0E0440EA03409CE7C6F12007B34022FAF9
:200E200007FC4CEA030C20FA07F401FA06F31C43F9404FEA1C4900FA06F3B1FBF9F8200C6F
:200E40001FFA8CFE09FB181140EA014108FB0EF0884202FA06F20BD91CEB010108F1FF3A78
:200E600080F08880884240F28580A8F102086144091AA4B2B1FBF9F009FB101144EA01410E
:200E800000FB0EFE8E4508D91CEB010100F1FF346CD28E456AD90238614440EA0840A0FB2A
:200EA0000294A1EB0E01A142C846A64656D353D05DB1B3EB080261EB0E0101FA07F722FAB2
:200EC00006F3F1401F43C5E9007100263146BDE8F087C2F12003D8400CFA02FC21FA03F3AB
:200EE000914001434FEA1C471FFA8CFEB3FBF7F007FB10360B0C43EA064300FB0EF69E4255
:200F000004FA02F408D91CEB030300F1FF382FD29E422DD9023863449B1B89B2B3FBF7F673
:200F200007FB163341EA034106FB0EF38B4208D91CEB010106F1FF3816D28B4214D9023E2E
:200F40006144C91A46EA004638E72E46284605E70646E3E61846F8E64B45A9D2B9EB02089C
:200F600064EB0C0E0138A3E74646EAE7204694E74046D1E7D0467BE7023B614432E73046E0
:200F800009E76444023842E7704700BF70B500258EB004462422294605A804951BF030FBDD
:200FA00042238DF800304D238DF801302A4BCDF80A501B688DF802301A0A8DF803201A0C31
:200FC0001B0E8DF804208DF80530F02236238DF80A308DF81820282318228DF810308DF8CF
:200FE0001E2040232C22C4218DF814308DF8252001230E228DF815308DF81C308DF82630C0
:201000008DF829208DF82D208DF83130CDF806508DF828108DF82C106A46234602AE15468D
:2010200003CDB542186059602A4603F10803F6D128681860AA889A8004AD04F10E030EACBD
:201040002A4603CAA24218605960154603F10803F6D10EB070BD00BF0000002037B5094C12
:201060000190656812F016F8019B074AB0FBF2F0584301906368019A5B1B9342FAD303B02B
:2010800030BD00BF001000E040420F0030B587B004460D461422002101A81BF0B1FA294645
:2010A0002046012210F036FC11220023CDE9022301A9032320460195049310F0B5FA07B07B
:2010C00030BD30B587B004460D461422002101A81BF096FA01222946204610F01BFC00239D
:2010E00001A92046CDE90233019510F09DFA07B030BD00002DE9F84F254B264F93F80080D7
:2011000000263546F3B298450BD8234B187808F0A7FF1DB101200AF059FD01252846BDE8B5
:20112000F88F07EB43124FEA431AD17D69B301249C40E0B208F094FF4FF08C0B002002F0DB
:20114000F3FCBBF1010BF9D107EB0A0957F80A00B9F80410FFF7B5FFB9F8041057F80A0033
:2011600010F0D2FB0C4A63B2147828B12343137089F81AB00136C5E724EA03031370012300
:201180001D4489F81A30EDB2F4E79176F2E700BFD2580208D45D0020A45D002008B505485A
:2011A0000122802110F0B6FB08F082FFBDE80840FFF7A0BF001002407FB50C4604A901E990
:2011C0000C001646BDF80C10019105460022304610F0A0FB2846FFF741FF304601990122EF
:2011E00010F098FB204604B0BDE87040FFF736BF82B06B4683E806000CCB20B905213C207C
:2012000002B0FFF7D9BF3C210520F9E773B56D4685E806000646002446FA04F095E80600B7
:2012200000F001000134FFF7E3FF082CF4D102B070BD30B585B002AB83E803000A210CCBA1
:201240000120FFF7B9FF029DBDF80C1001912846FFF737FF0199284610F056FB0446282038
:20126000FFF7FCFE28460199FFF710FF201E18BF012005B030BD73B56E4686E80300002527
:201280002C4696E80300FFF7D4FFA84001350444082DE4B2F5D1204602B070BD30B585B03C
:2012A00002AB83E8030046210CCB4FF4FA70FFF783FF029DBDF80C1001912846FFF701FF4A
:2012C0000199284610F020FB019904462846FFF7DDFE4FF4C870FFF7C1FEB4FA84F040092D
:2012E00005B030BD84B008B50DF1080C8CE80F00DCE90001FFF7D2FFBDE80840013818BF3C
:20130000012004B0704784B007B50DF1100C8CE80F00DCE90001FFF7C1FF01281BD104AB74
:2013200093E80600CC20FFF771FF04AB93E806004420FFF76BFF04AA92E803006B4683E89F
:201340000300FFF798FF003818BF012003B05DF804EB04B070470120F8E7000008B54378F3
:20136000007800EB0320DB0980B20CD0404280B2FFF7D8F8064B0022FFF73EF9FFF734FCB5
:2013800000EE100A08BDFFF7CDF8024B0022F3E70000B0BF0000B03F73B56C4684E80600D2
:2013A000054694E80300FFF779FFE0B194E80600CC20FFF72BFF94E80600BE20FFF726FF5B
:2013C0006E1E083594E80300FFF755FF06F8010FAE42F7D194E80300FFF760FFB0FA80F0C7
:2013E000400902B070BD0120FBE737B56C4684E80600054694E80300FFF750FF10B90120B9
:2014000003B030BD94E80600CC20FFF7FFFE94E806004E20FFF7FAFE94E80600A878FFF755
:20142000F5FE94E80600E878FFF7F0FE94E806002879FFF7EBFE94E80300FFF72FFF002826
:20144000DDD094E80600CC20FFF7E0FE94E806004820FFF7DBFE142002F066FB0020CFE787
:2014600010B586B06B4683E80600002204468DF8102003A893E80600FFF78EFFA0B99DF891
:2014800010301F2B03D10923237006B010BD3F2B01D10A23F8E75F2B01D10B23F4E77F2B55
:2014A00001D10C23F0E720700120EEE730B587B06D4685E806000446002395E806000DF19E
:2014C0000B008DF80B30FFF7CBFF10B1012007B030BD9DF80B30A342F9D0092C1ED00A2C24
:2014E0001ED00B2C1ED00C2C0CBF7F231F2395E8060003A88DF81030FFF777FF0028E5D1B5
:2015000095E806000DF10B00FFF7AAFF0028DDD19DF80B30181B18BF0120D8E71F23E6E701
:201520003F23E4E75F23E2E730B593B0C3790493837903934379029303790193C378009377
:201540000DAD0C4683784278164928461BF05EFE95E803009DF83F308DF82E309DF840302A
:201560008DF81C309DF84130BDF83D2008908DF81D30DDF839008DF8241007AB00250A90E0
:20158000ADF82C20009308498DF825500AAB08AA20468DF82F508DF81F501BF037FEA5735F
:2015A00013B030BD59FC010876FC010870B40379C67944790A46817946EA036643F3C01518
:2015C0002404C37844EA012481782B44457803EB012144EA060001EB054170BC0CF026BEAE
:2015E00030B50246014400208A4200D130BD12F8015B082480EA050313F0010F4FEA50002F
:201600001CBF80F08C03D8B2631E13F0FF044FEA5505EFD1E8E7000070B52DED028B424A65
:2016200086B0516804461068127A03AB03C394E803001A7001AB83E80300B0EE408AFFF778
:201640001AFE08B9012548E094E80300FFF726FE0028F7D094E80600CC20FFF7D7FD94E827
:201660000600BE20FFF7D2FD03AE092594E80300FFF701FE013D15F0FF0506F8010BF5D157
:20168000082103A8FFF7ACFF9DF81430834244D19DF80D309DF80C00DE0900EB032080B288
:2016A00020D0404280B2FEF73DFF204B0022FEF7A3FFFFF799FA07EE900A37EE880A10EE64
:2016C000100A84ED040AFEF73FFF194B0022FEF793FFFFF769FA4042A082284606B0BDEC67
:2016E000028B70BDFEF71EFF124B0022FEF784FFFFF77AFA07EE900A37EE880A354610EEFE
:20170000100A84ED040AFEF71FFF094B0022FEF773FFFFF749FAA082DFE707481BF0C2FC07
:201720000A201BF0D7FC8DE720FC01080000B0BF000030400000B03F7DFC0108F0B58BB0D8
:2017400006AD85E80600244A0646D2F80D10D2F8090008AB03C395E80300FFF79FFD00283C
:2017600038D095E806003320FFF750FD08AF082495E80300FFF77FFD013C14F0FF0407F830
:20178000010BF5D1072108A8FFF72AFF9DF82730834206D108AB03CB3060716020460BB0F5
:2017A000F0BD04939DF8263003939DF8253002939DF8243001939DF8233000939DF8212017
:2017C0009DF822309DF8201004481BF06BFC0A201BF080FC0124E1E720FC01089FFC010838
:2017E0002DE9F04F2DED028BB24B1B7891B0012B05900C4602D1B04812F086F8059B23F00B
:201800000203012B40F0AC80DFF8C8A2DFF8C8B2254626464FF00008B446BCE80F0008AF27
:201820000FC79CE80F0087E80F0008AF97E80300FFF734FD012836D106F11B0996E8060092
:201840004846FFF70DFE96E806004846FFF708FEF37E9AF800209A4225D0FF2B06D1974817
:2018600041461BF01FFC0A201BF034FC4FF00A099AF80000F37E834215D096E8060009F1D9
:20188000FF39FFF713FE19F0FF0903D0002002F04BF9EDE7F27E08F1010158461BF002FCE9
:2018A0000A201BF017FC08F10108B8F1080F06F12006B1D104F580734FF0000B0693D94691
:2018C000069B9D420AD1059B032B40F09C800025284611B0BDEC028BBDE8F08F4FF00A0A92
:2018E0004FF0020805F1100696E80F008DE80F0095E80F00FFF7F6FCAE46BEE80F00BC4663
:20190000ACE80F0096E80F008CE80F0097E80300FFF7C4FC012805D0EB7D85F816905BB93F
:201920002035CDE7A87596E80F008DE80F0095E80F00FFF7E8FC8046BAF1010AEB7D09D04D
:20194000012B03D185F8189085F81E90B8F1000FCAD1E5E7012BE3D12B76AB779B46DFE7CE
:20196000059B002B4DD10AF0DBFBDDF814B0DFF86CA19FED538A083401260025A4F10803A0
:2019800007930223002706930DF12008A37B0BB3A4F1080EBEE80F000DF1200CACE80F0099
:2019A0009EE80F008CE80F0098E80300FFF776FC0128814641D0002323606360E37B002B31
:2019C00054D1DFF81C910A274FF00208A37B002B40F08880E37B012B00D123740136092E03
:2019E0000AF1020A04F12004C8D1059B7BB9002D3FF46DAF33481BF055FB0A201BF06AFB6E
:201A000066E74FF0000B059B022BB0D00025294B1B78012B02D1284811F03CFF002D3FF4AB
:201A200056AFBBF1000F3FF452AF27481BF03AFB0A201BF04FFB5D464AE7079B404693E80D
:201A40000600FFF77BFEC0B1394620481BF02AFB0A201BF03FFB00220698A28184ED028A3A
:201A600084F8109084F815904D460690092F0FD0069B0137002B89D1A3E760754146E31DA5
:201A800011F8012B1A70A34203F1FF33F8D1ECE7E77B012F95D131460D481BF003FB0A20E9
:201AA0001BF018FB0023A38184ED028A27746775BB4686E74867002074660020DDFC010834
:201AC0000000000050FD010861FD010814FD01082BFD010870000020F9FC0108CE6700201B
:201AE0002C010020BAF90000FEF71CFD204B0022FEF7ACFEFFF778F800EE100A0798FFF7A9
:201B00008BFDA37B002818BF0125012B1CD199F80030D4ED027A012B0BD0B2EE027A67EE6B
:201B2000877AF1EE046A87EEA67ADFED127A77EE277AC4ED027A4FF00008013F0AD0B8F12D
:201B4000000F7FF443AF49E7E37B84ED028A002BF3D143E7E77B012F7FF440AF31460648B4
:201B60001BF0A0FA0A201BF0B5FABB46277435E700002440000000423BFD01082DE9F04FE8
:201B80002DED028BB94B1B788FB0012B82460491144602D1B64811F0B7FE049B23F00203A7
:201BA000012B40F0918004EB4A152F460FCF06AE0FC697E80F000DF1180886E80F0098E8E5
:201BC0000300FFF76BFB012833D105F11B0695E80600A84F3046FFF743FC95E80600304644
:201BE000FFF73EFCEB7E3A789A4222D0FF2B06D1A14851461BF056FA0A201BF06BFA0A2626
:201C00003878EB7E834214D095E80600013EFFF74DFC16F0FF0603D0002001F085FFEFE7B8
:201C2000EA7E96480AF101011BF03CFA0A201BF051FA02234FF00A09059305F110064FF046
:201C4000000B96E80F008DE80F0095E80F00FFF749FBAC46BCE80F0047460FC796E80F000D
:201C600087E80F0098E80300FFF718FB01280ED0EB7D85F816B0A3B90027049B032B67D120
:201C8000002528460FB0BDEC028BBDE8F08FA87596E80F008DE80F0095E80F00FFF733FBBA
:201CA0000590B9F10109EF7D09D0012F03D185F818B085F81EB0059B002BC2D1DCE7012FB1
:201CC000DAD12F76AF77D8E7049B002B3FD10AF027FA049F9FED6A8A002604EB4A144FF005
:201CE000020935460DF11808A37D0BB3A646BEE80F000DF1180CACE80F009EE80F008CE8F3
:201D00000F0098E80300FFF7C9FA0128834636D00023A360E360E37D002B48D1DFF880918B
:201D20009FED578A0A264FF00208A37D002B64D1E37D012B00D12376049B6BB9002D9FD0E8
:201D400050481BF0AFF90A201BF0C4F999E70027049B022BBED00025444B1B78012B02D1FF
:201D6000434811F097FD002D8AD0002F88D046481BF098F90A201BF0ADF93D4681E794E8C9
:201D800006004046FFF7DAFCC0B131463F481BF089F90A201BF09EF90023A38284ED048ADC
:201DA00084F818B084F81DB048465D468146092E10D00136B9F1000F96D1AFE7607742463B
:201DC00004F10F03E11D12F801CB03F801C98B42F9D1EBE7E67D012EA0D10AF101012C4886
:201DE0001BF060F90A201BF075F90023A3820023236126766677374690E739F91A00FEF73F
:201E000091FB244B0022FEF721FDFEF7EDFE00EE100A2046FFF700FCA37D002818BF01250D
:201E2000012B1CD11C4BD4ED047A1B78012B0BD0B2EE027A67EE877AF1EE046A87EEA67AF5
:201E4000DFED167A77EE277AC4ED047A4FF00008013E27D0B8F1000F7FF467AF6CE7E37D80
:201E600084ED048A002BF3D166E700BF486700207466002070000020DDFC0108F9FC01082F
:201E80000000000050FD010861FD010814FD01082BFD0108000024402C0100200000004247
:201EA000CE670020E67D012E7FF446AF0AF1010104481BF0F7F80A201BF00CF9374626763D
:201EC0003AE700BF3BFD010808B50B480B4A0C4BC0E9002300234FF48042C0E90233C0E9AA
:201EE0000423C0E90633036210F062FA18B1BDE808400AF0E7B808BD1065002000540040DB
:201F0000A086010070B50E4D0E4E0446012086B028703078012808D00A980090204610F044
:201F200009FB00232B7006B070BD0020CDE90423039101F0F9FDDDE904230399E9E700BF6C
:201F4000C3670020085F002070B50E4D0E4E0446012086B028703078012808D00A980090C0
:201F6000204610F0BFFB00232B7006B070BD0020CDE90423039101F0D7FDDDE904230399C1
:201F8000E9E700BFC3670020085F0020030903EB830300F00F0000EB4300C0B270470A23DE
:201FA000B0FBF3F3C3EB4312C3EB820200EB420040EA0310C0B2704710B5052386B004465B
:201FC00002223E48D02110F0FDFC50B13C481BF069F80A201BF07EF8FFF776FF012006B08F
:201FE00010BD8DF810002078FFF7D9FF8DF811006078FFF7D4FF8DF81200A078FFF7CFFF6F
:202000008DF81300E078FFF7CAFF8DF814002079FFF7C5FF8DF815006079FFF7C0FF8DF878
:202020001600A079FFF7BBFF64238DF8170000932248082304AAD021FFF764FF08B121485C
:20204000C5E702A800F042F808B11F48BFE79DF80900237862789DF808108B4208BF824222
:20206000A2789DF80A300CBF012000209A4214BF002000F00100A2799DF80E309A4214BF0E
:20208000002000F0010062799DF80D309A4214BF002000F0010022799DF80C309A4214BFA7
:2020A000002000F00100E2789DF80B309A4214BF002000F0010080F0010090E710650020A8
:2020C00077FD0108A4FD0108BFFD01082DE9F043052389B0044602225D48D02110F072FCF8
:2020E000B0B1FFF7F1FE642001F01EFD584805230222D02110F066FC50B156481AF0D2FF51
:202100000A201AF0E7FF0122104609B0BDE8F08364254F4F2E46009601230022D021384675
:20212000FFF7F0FE40B14C481AF0BCFF0A201AF0D1FFFFF7C9FEE6E702AA00960723D02186
:202140003846FFF701FF024608B14448ECE700960123D0213846FFF7D5FE08B14048E3E7AE
:2021600004AA00960723D0213846FFF7EDFE024608B13C48D8E7844602A904AB012011F80F
:20218000018B13F801EB0CF1010CF04518BF0020BCF1070FF3D1013D01D00028BBD09DF8A8
:2021A0000800FFF7F3FE804620709DF80900FFF7EDFE814660709DF80A00FFF7E7FE014603
:2021C000A0709DF80B00FFF7E1FE0746E0709DF80C00FFF7DBFE064620719DF80D00FFF7F8
:2021E000D5FE607105469DF80E00FFF7CFFEB9F13B0F98BF17298CBF01210021B8F13B0F7E
:2022000088BF41F00101013F062F88BF41F00101013E1E2E88BF41F00101A07119B9013D2F
:202220000B2D7FF671AF0023012406A88DF818308DF819308DF81A308DF81B408DF81C40B0
:202240008DF81D408DF81E30FFF7B6FE22465BE710650020DAFD0108A4FD010809FE010846
:2022600027FE010842FE01081FB564238DF80C008DF80D1000930948022303AAD021FFF7BC
:2022800041FE40B106481AF00DFF0A201AF022FFFFF71AFE012005B05DF804FB1065002088
:2022A00060FE010830B585B0FA250C468DF8080000951048012302AAD021FFF723FE50B1D9
:2022C0000D481AF0EFFE0A201AF004FFFFF7FCFD012005B030BD07480095012303AAD02123
:2022E000FFF732FE08B10548EBE79DF80C302370EFE700BF1065002060FE010884FE010860
:202300002DE9F3410646084617461D46FFF747FE04463846FFF743FE80462846FFF73FFE78
:2023200007469DF82000FFF73AFEF20744BF64F07F04E4B2B30748BF68F07F08054648BF12
:202340005FFA88F8700744BF67F07F07FFB2310744BF65F07F05EDB2F20644BF45F0400574
:20236000EDB2330623D421460720FFF77DFF48B131481AF097FE0A201AF0ACFE012002B0CC
:20238000BDE8F0810DF107010720FFF78BFF08B12A48EEE79DF80700041B18BF0124082695
:2023A00041463046FFF760FF20B12548E1E700240B26F5E70DF107013046FFF773FF08B1F7
:2023C0002048D6E79DF80730434518BF601C06F1010818BFC4B239464046FFF745FF08B1EC
:2023E0001948C6E70DF107014046FFF75BFF08B11648BEE79DF80730BB4218BF601C06F124
:20240000020618BFC4B229463046FFF72DFF08B10F48AEE70DF107013046FFF743FF08B14E
:202420000C48A6E79DF80730AB4201D00A48A0E7201E18BF0120A2E7ABFE0108CFFE010811
:20244000F2FE010816FF010839FF01085DFF010880FF0108A4FF0108C7FF010837B5044686
:202460000D460E206946FFF71DFF40B116481AF019FE0A201AF02EFE012003B030BD012365
:20248000013C03FA04F49DF80030012D06BF43EA0401C9B223EA04010E208DF80010FFF7DA
:2024A000E3FE08B10948E2E701A90E20FFF7FAFE08B10748DBE79DF800209DF804309A427E
:2024C000DBD00448D3E700BFECFF0108160002083D0002086300020837B504460D460F200C
:2024E0006946FFF7DFFE40B117481AF0DBFD0A201AF0F0FD012003B030BD631E9DF8002010
:20250000012404FA03F312EA03001AD022EA03010F208DF80010FFF7A7FE08B10B48E4E773
:2025200001A90F20FFF7BEFE08B10948DDE79DF800209DF804309A4201D12C70DBE705486B
:20254000D3E72870D7E700BF8B000208A8000208C6000208E300020813B50C460F2001A9B5
:20256000FFF7A0FE40B107481AF09CFD0A201AF0B1FD012002B010BD9DF8043023F07F0304
:202580002370F7E70201020813B5044669460E20FFF788FE40B115481AF084FD0A201AF045
:2025A00099FD012002B010BD9DF80010032C9BBF21F01C0141EAC40141F00401C9B20E20BA
:2025C0008DF80010FFF750FE08B10948E4E701A90E20FFF767FE08B10648DDE79DF800209A
:2025E0009DF804309A42DDD00348D5E72401020846010208690102088B01020870B586B09D
:202600000DF0EAFF0446C8B93348344D324E1AF049FD0A201AF05EFD0DF0DEFF00284FD18C
:2026200030461AF03FFD0A201AF054FD01344FF4FA70E4B201F078FA032CEDD9284C294D9F
:20264000002001F071FA2378072B41D04FF4FA7001F06AFA4FF4FA7001F066FA4FF4FA7073
:2026600001F062FA4FF4FA7001F05EFA01231E482B701AF017FD0A201AF02CFD0DF00CFF6F
:202680001A4AD4F801301360194B1A485B685360237A0493E3790393A379029363790193E3
:2026A00023790093E378A27861781AF0FBFC0A201AF010FD2878431E5842584106B070BD44
:2026C00028461AF0EFFC0A201AF004FD0424ADE700232B70D2E700BFAF010208C1010208EA
:2026E0004468002024040020D1010208CB5D002045680020E201020838B5214D00052B88D5
:2027000000F57E22B3EB124F16D2020CB3EB104F4FF0000038BF2A8001F006FA002228888F
:2027200011460EF009F910B928880EF00FF82B8801332B80022021E0FCD1124C2388B3EB9B
:20274000123F17D200F57020020BB3EB103F4FF0000038BF228001F0E7F9002220881146F6
:202760000EF04CF810B920880DF0B0FF238801332380DFE7DED100202880208038BD00BFE7
:202780003C0400203E04002038B51C4D00052B8800F57E22B3EB124F11D2B3EB104F4FEABC
:2027A00010424FF0000038BF2A8001F0BDF928880EF01EFA2B8801332B8002201CE0FCD1FD
:2027C0000F4C2388B3EB123F12D200F57020B3EB103F4FEA10324FF0000038BF228001F06A
:2027E000A3F920880EF0DAF9238801332380E4E7E3D100202880208038BD00BF580400202B
:202800005A04002030B51B4C0005238800F57E22B3EB122FC1B00D4627D2B3EB102F4FEAF7
:2028200010224FF0000038BF228001F07DF94FF480730022684621880EF040FA00226B466D
:20284000104613F8011B0130A94218BF0132B0F5807FF6D122B100232380012041B030BDD2
:202860002388013323800220F8E7FCD100202080F4E700BF2604002038B5214C000523885A
:2028800000F57E22B3EB124F19D2020CB3EB104F4FF0000038BF228001F046F900222088DC
:2028A00011460EF049F820B1238801332380022004E0144A002323801380012038BDF6D195
:2028C000104D2B88B3EB123F15D200F57020020BB3EB103F4FF0000038BF2A8001F024F9A5
:2028E0000022288811460DF089FF0028E1D02B8801332B80DBE7DAD1002020802880DDE726
:2029000040040020420400202DE9F0470023C0B006031A460C464FEA005A314668460EF09C
:20292000CDF904F13903002213F80119202903D11978202908BF5A70A342F5D1671EE94672
:2029400004F138086A463B46002543452AD1002D3CD023466A4604F1380C18685968144643
:2029600003C4083363452246F7D11B78237000224FEA1A34114620460DF040FF8246D0B16C
:2029800000231A46314668460EF0B4F800231A46314668460EF092F947451BD1003D18BF28
:2029A000012513E012F8011B13F8010F88421CBF0135EDB2C9E720460DF088FE524651467B
:2029C00020460DF01BFF0028DAD10125284640B0BDE8F08719F8013B17F8012F9A421CBFC4
:2029E0000135EDB2D8E710B5C0B00C464FF480730103002268460EF061F9214604F13900C5
:202A00006B460024814202D1002040B010BD13F8012BFF2A14BF0A700C700131F2E72DE924
:202A2000F041C4B001AC0B7823704B7863708B78A370CB78E3700B7923714B7963718B7938
:202A4000A371CB79E3710B7A237200054B7A637200F57E258B7AA3724FEA152800231A4666
:202A6000414604A80EF02AF904AE0023274632462146184611F801EB12F801CBE64518BFB6
:202A8000013003F1010318BFC0B20B2BF2D1002839D094E8070004AB03C323F8022B120C3C
:202AA0001A702D0B0022114628460DF0A7FE0446F0B100231A46414604A80EF01BF80023F6
:202AC0001A4604A841460EF0F9F80023184617F8011B16F8012B914218BF013003F10103BB
:202AE00018BFC0B20B2BF2D1003818BF01200AE028460DF0EBFD2246214628460DF07EFE71
:202B00000028D6D1012044B0BDE8F08110B50C460105C0B001F57E2168464FF48073002293
:202B2000090A0EF0CBF89DF8003023709DF8013063709DF80230A3709DF80330E3709DF846
:202B4000043023719DF8053063719DF80630A3719DF80730E3719DF8083023729DF80930E0
:202B600063729DF80A30A372002040B010BD000010B5304C0005226800F580431B0A93423D
:202B8000C0B051D900F58050B2EB102F4FEA10234FF0000038BF236000F0C6FF21684FF454
:202BA0008073002268460EF089F86946002311F8012BFF2A0BD12168FE200DF8030003EB2A
:202BC00001210DF057FF0020206040B010BD12B3FE2A08D1FC220DF8032021681DF8030076
:202BE00003EB0121EDE7FC2A01D1F822F3E7F82A01D1F022EFE7F02A01D1E022EBE7E02A5F
:202C000001D1C022E7E7C02A01D18022E3E7802AE3D10022DFE70133B3F5807FC7D12368C6
:202C2000013323600220D0E7FCD1002323600120CBE700BF5404002038B5040504F58054C4
:202C4000240BA51C0022114628460DF0D7FD08B9280138BD01340022114620460DF0CEFD11
:202C600008B92001F5E70020F3E70000F0B5314C03050E4603F580422168120A8A42C1B082
:202C8000054652D903F58053B1EB132F4FEA13274FF0000038BF276000F046FF2168002205
:202CA0004FF4807368460EF009F86A46002112F8013BFF2B0AD12368DB1B01EB0323DB00A7
:202CC000002046F82530206041B0F0BD23B3FE2B194A09D1012313702368DB1B01EB0323AD
:202CE000117801EBC303EBE7FC2B01D10223F2E7F82B01D10323EEE7F02B01D10423EAE7FB
:202D0000E02B01D10523E6E7C02B01D10623E2E7802BE1D10723DEE70131B1F5807FC6D178
:202D20002368013323600220CEE7FCD1002323600120C9E74C0400204404002030B587B042
:202D400013788DF8043053788DF8053093788DF80630D3788DF8073013798DF808305379C8
:202D60008DF8093093798DF80A30D3798DF80B30137A8DF80C30537A8DF80D30937A8DF84F
:202D80000E30D37A8DF80F30137B8DF81030537B8DF81130937B8DF81230D37B8DF8133012
:202DA0001324137C1F4D8DF814306143537C8DF8153001EB0050937C8DF816302A6800F53E
:202DC000804323449A422AD200F58044A2424FF0000038BF2C6000F0A7FE29680B1B1833FB
:202DE0006B4413F8140C0DF045FE0DF1030029680DF026FF2B681C1B04F118020DEB02042E
:202E00009DF8032014F8141C914217BF002301332B60012004BF2B60022007B030BD0020DE
:202E20002860FAE75004002037B5132461432B4D01EB005000F5804329682344994218D2C5
:202E400000F58044A1424FF0000038BF2C6000F06BFE29680DF107000DF0F2FE2B68204A3B
:202E60009DF807101C1B013311552B60022003B030BD1C4B1120002113F8014BFF2C08BF86
:202E800003F8011C0138F7D1154B197811705978517099789170D978D1701979117159798B
:202EA000517199799171D979D171197A1172597A5172997A9172D97AD172197B1173597B64
:202EC0005173997B9173D97BD173197C1174597C51749B7C93742860C9E700BF4804002049
:202EE000280400202A040020F0B50388D7B00DF10D028DF804301B0A8DF8053043888DF88C
:202F000006301B0A8DF8073003798DF8083043798DF8093083798DF80A30C3798DF80B3030
:202F2000037A8DF80C3000F1290100F1090353F8044B42F8044B8B42F9D1D0F82920CDF8AB
:202F40002D209B88ADF8313000F130030DF1330500F150041A4652F8041B090AA24205F89F
:202F6000011BF8D10DF13B0253F8041B02F8011BA342F9D10DF1430400F1580213F8011B4B
:202F800001F001019A4204F8011BF7D113460DF14B01603013F8012B02F00102984201F850
:202FA000012BF7D100231A4647F6F07116A80DF085FE01AD16AC002223462946104611F8F5
:202FC000017B13F8016BB74218BF013002F1010218BFC0B2512AF2D1002839D001A916A8E7
:202FE00019F0E6FA0022114640F2FF700DF006FC064600B300231A4647F6F07116A80DF0F4
:2030000079FD00231A4616A847F6F0710DF056FE0023184615F8011B14F8012B914218BF7E
:20302000013003F1010318BFC0B2512BF2D1003818BF01200CE040F2FF700DF047FB32466B
:20304000314640F2FF700DF0D9FB0028D2D1012057B0F0BD30B5C1B04FF48073002247F6FC
:20306000F071044668460DF029FE00236A46194612F8010B0133FF2808BF02F8011C512BD6
:20308000F6D19DF801209DF8003003EB022323809DF803209DF8023003EB022363809DF82E
:2030A000053063719DF80630A3719DF80730E3719DF80830237204F109020DF109030DF19E
:2030C000290153F8040B42F8040B8B42F9D1DDF82920C4F829209B88A4F82D3004F1300226
:2030E0000DF12F0504F15003114615F8010B000241F8040B8B42F8D10DF13700156810F84C
:20310000011B294442F8041B9342F7D10DF13F0004F1580210F8011B01F0010103F8011B76
:203120009A42F7D10DF147011346603411F8012B02F0010203F8012B9C42F7D1002041B0B0
:2031400030BD00000248002280210EF0E3BB00BF000C02400248012280210EF0DBBB00BF6B
:20316000000C024010B5084C0022202120460EF0D1FB052000F0D8FC20460122BDE81040EE
:2031800020210EF0C7BB00BF000C024007B5002309488DF80430012240210EF0BBFB4FF001
:2031A000FF33012201A9054810F042FA9DF8040003B05DF804FB00BF000C02401C66002038
:2031C00007B500228DF80700402107480EF0A2FB4FF0FF3301220DF10701044810F086F8D6
:2031E00003B05DF804FB00BF000C02401C660020F8B5012205460C460B480C4F40210EF09F
:2032000089FB04B9F8BDB4F5004F264628BF4FF4004629464FF0FF33B2B2384610F066F8C4
:203220003544A41BEDE700BF000C02401C66002007B5030A8DF80500022101A88DF80430FB
:20324000FFF7D6FF03B05DF804FBF7B507462A2016460D461C46FFF7B3FF04213B0A0DEB3E
:2032600001008DF80430330A8DF806308DF805708DF80760FFF7BCFF2B20FFF7A1FF2B0AEF
:2032800004218DF804300DEB0100230A8DF805508DF806308DF80740FFF7AAFF2C2003B02B
:2032A000BDE8F040FFF78CBF2DE9F0411C468318B3F5A07F154601EB0403C4BFC0F5A07552
:2032C000ADB2F02BC8BFC1F1F00406460F46C8BFA4B2BDF81880FFF735FF721E7B1E2344C2
:2032E0002A449BB2304692B23946FFF7AEFF0122104840210EF00EFB0F4B1A684FEA182601
:203300005FFA88F89CB9BDE8F041FFF723BF167391688807FCD582F80C8091688907FCD58F
:20332000013B9BB2002BF2D1013CA4B2EAE72B46F8E700BF000C02401C66002030B5782036
:2033400085B000F0F1FB01224FF0FF3300218348834C0FF0CBFFFFF7F5FEFFF703FF7820CB
:2033600000F0E2FB0120FFF72BFF782000F0DCFBCB20FFF725FF2068237900900521684653
:203380008DF80430FFF734FFCF20FFF719FFB4F80520E379ADF80020032168468DF80230D3
:2033A000FFF726FFE820FFF70BFF2289A37AADF80020032168468DF80230FFF719FFEA20BC
:2033C000FFF7FEFE002502216846ADF80050FFF70FFFED20FFF7F4FE624B00930421684604
:2033E000FFF706FFF720FFF7EBFE2023012168468DF80030FFF7FCFEC020FFF7E1FE21232B
:20340000012168468DF80030FFF7F2FEC120FFF7D7FE1023012168468DF80030FFF7E8FE01
:20342000C520FFF7CDFE43F6314302216846ADF80030FFF7DDFEC720FFF7C2FEC023012120
:2034400068468DF80030FFF7D3FE3620FFF7B8FE4823012168468DF80030FFF7C9FE3A2039
:20346000FFF7AEFE5523012168468DF80030FFF7BFFEB120FFF7A4FE4FF4D8530221684652
:20348000ADF80030FFF7B4FEB620FFF799FE364B03211A889B78ADF8002068468DF80230C8
:2034A000FFF7A6FEF220FFF78BFE012168468DF80050FFF79DFE2620FFF782FE012168461F
:2034C0008DF80010FFF794FEE020FFF779FE04F10B036A46133418685968154603C50833C9
:2034E000A3422A46F7D1186899889B79AB712860A98068460F21FFF77BFEE120FFF760FE8B
:203500001A4B6A4603F1080518685968144603C40833AB422246F7D1186899889B79A37112
:203520002060A18068460F21FFF762FE1120FFF747FE782000F0F8FA2920FFF741FE3620FC
:20354000FFF73EFE2823012168468DF80030FFF74FFE05B0BDE83040FFF7FCBD1C6600200B
:2035600031FC010864031281130202081702020882B02DE9F04F85B0DEB2C3F30725144651
:203580000F93721E6B1E0B4402449BB292B2BDF84480BDF84890FFF758FEC72C71D0E72CB1
:2035A00071D0B42C71D0A82C71D0C02C71D0C12C71D0C22C71D0C32C71D0C42C71D0C82CB5
:2035C00071D0C92C71D0CA2C71D0CB2C71D0CC2C71D0CD2C71D0CE2C71D0CF2C71D0D22C1D
:2035E00071D0D32C71D0D42C71D0D52C71D0D62C71D0D92C71D0DA2C71D0DB2C71D0DC2CA7
:2036000071D0E02C71D0E12C71D0E22C71D0E32C71D0E42C71D0E82C71D0E92C71D0EA2C1D
:2036200071D0EB2C71D0EC2C71D0ED2C71D0EE2C71D0EF2C71D0F22C71D0F32C71D0F42CA8
:2036400071D0F52C71D0F62C71D0F92C71D0FA2C71D0FB2C71D0FC2C71D07F2C28BF2024F0
:203660004FEA1923203C01936C434FEA1823009364000027AF4264D305B0BDE8F04F02B031
:2036800070477F24ECE78024EAE78124E8E78224E6E78324E4E78424E2E78524E0E78624A4
:2036A000DEE78724DCE78824DAE78924D8E78A24D6E78B24D4E78C24D2E78D24D0E78E24A6
:2036C000CEE78F24CCE79024CAE79124C8E79224C6E79324C4E79424C2E79524C0E79624C6
:2036E000BEE79724BCE79824BAE79924B8E79A24B6E79B24B4E79C24B2E79D24B0E79E24E6
:20370000AEE79F24ACE7A024AAE7A124A8E7A224A6E7A324A4E7A424A2E7A524A0E7A62405
:203720009EE7A7249CE7A8249AE7A92498E7AA2496E7AB2494E7AC2492E7AD2490E7AE2425
:203740008EE7109B33F804B04FF0000A564505D8002000F0E9F9013702348BE70BFA0AF2D6
:2037600013044ABF009B019B8DF80C304FF0020103A84EBF8DF80D808DF80C308DF80D9042
:203780000AF1010AFFF734FDE0E782B02DE9FF470446BDF83C90BDF840A00D93884615467E
:2037A000DFB2C3F30726FFF7CDFC15F8012B2AB904B0BDE8F04702B0FFF7CCBCE319B3F556
:2037C000A07F0DDB08EB06031FFA83F816FA83F3EF2BEDDC202A18D0002000F0A5F90024E5
:2037E0000E9B8DF834708DF8356015F8012C00932046CDE9019A0D9B4146FFF7B9FE3C44FD
:203800000020A4B200F090F9CFE70024CDE730B4B0F5A07FBDF8085005D2EF2903D8029515
:2038200030BCFFF741BD30BC704707B500210090F0234FF4A0720846FFF736FD03B05DF8B1
:2038400004FBB0F5A07F13B505D2EF2903D800930123FFF7DCFF02B010BDB0F5A07F13B580
:2038600006D2EF2904D8009313460122FFF7CFFF02B010BD2DE9F341B0F5A07FBDF82070D7
:2038800004460D4690461E4620D2EF291ED800970123FFF7BCFFA91942462046009701237A
:2038A00089B2FFF7B4FF33462946204600970122FFF7ADFF04EB080033460122294680B246
:2038C000089702B0BDE8F041FFF7A1BF02B0BDE8F081B0F5A07F13B5144612DAEF2910DCCD
:2038E00080B289B24B1C421C9BB292B2FFF7ADFC230A022101A88DF804308DF80540FFF7F4
:2039000077FC02B010BD2DE9F74FBDF8306007460C4698469146FFF715FC264408EB070B4A
:20392000B6B24FF0000A1FFA8BFBB44218D009EB4A033D4621B20AE033F8022B28B2CDE9F0
:203940000013FFF7C6FFDDE900130135ADB25D45F2D10020013400F0E7F8C244A4B2E4E77B
:2039600003B0BDE8F04FFFF7F5BB2DE9F74FA3EB0109A2EB000AB9F1000FB8BFC9F100098C
:20398000BAF1000FB8BFCAF1000AD145BDF830B004460D46904603DD98460C46134605465F
:2039A000444505DD2A461D461346224644469046A8EB0406B2B200925A1B82EAE271A1EB55
:2039C000E271C6F3C03202FA86F6019176109D42B4BF01274FF0FF37FFF7B4FB444504DD5B
:2039E00003B0BDE8F04FFFF7B5BBD145C7BF21462846294620465A46FFF76BFF019BF61AD8
:203A0000B3B236B2002E04DA009A3D44D6182DB236B20020013400F087F824B2DEE700001E
:203A2000044BC90001F4FC6141EAD20203EA00201043704700F8FFFF2DE9F341089E0F46CB
:203A40001D4614468046FFF77DFB2A20FFF7B8FB1FFA88F0FFF7ECFBA0B2FFF7E9FB2B209D
:203A6000FFF7AEFBB8B2FFF7E3FBA8B2FFF7E0FB2E20FFF7A5FBA4EB0804FFF787FBEB1B41
:203A80000134013314FB03F39BB203EB4305104FADB206EB4304A64205D1FFF75BFB2846C7
:203AA00002B0BDE8F0814FF0FF3301A9032238460FF0BEFD9DF806209DF805109DF80400C8
:203AC000FFF7AEFF26F8020B002000F02DF8E2E71C66002037B5FFF735FB0920FFF770FBDC
:203AE000FFF754FBFFF752FB0546FFF74FFB2D0645EA0044FFF74AFB0546FFF747FB044308
:203B000044EA05200190FFF725FB019803B030BD08B504480FF02EF818B1BDE8084008F096
:203B2000D1BA08BDB865002010B50446FFF7F0FF18F030F80B4B1B78012B03D00A4B1B6814
:203B4000092B01D118F01AF81CB9BDE8104008F049B8FFF7DDFF01200DF080F9013C18F0D4
:203B600019F8F1E7C4670020C400002008B50B480B4A0C4BC0E9002300234FF48042C0E9D4
:203B80000233C0E90423C0E9063303620EF010FC18B1BDE8084008F095BA08BD6465002024
:203BA000005C0040801A060070B50E4D0E4E0446012086B028703078012808D00A980090D9
:203BC00020460EF0B7FC00232B7006B070BD0020CDE904230391FFF7A7FFDDE90423039977
:203BE000E9E700BF085F0020C367002070B50E4D0E4E0446012086B028703078012808D0A7
:203C00000A98009020460EF06DFD00232B7006B070BD0020CDE904230391FFF785FFDDE932
:203C200004230399E9E700BF085F0020C367002030B585B005250C468DF80C008DF80D1098
:203C400016480095022303AAD021FFF7ADFF50B1134819F027FA0A2019F03CFAFFF786FFA2
:203C6000012005B030BD0D480095012303AAD021FFF79AFF08B10B48EBE70848009501235F
:203C800003AAD021FFF7B2FF08B10748E1E79DF80C30181B18BF0120E3E700BF64650020A1
:203CA000270202084B0202086F02020810B5084805230122D0210EF085FE08B1FFF756FF29
:203CC000BDE81040024805230122D0210EF07ABE64650020000000002DE9F04F964B2DEDFA
:203CE000028B196885B069B1944819F0DBF90A2019F0F0F94FF0020A504605B0BDEC028BC6
:203D0000BDE8F08F8E4E8F4D012405231A46D02130460EF057FE824670B12146284619F099
:203D2000C1F901340A2019F0D5F9FFF71FFF0A2CEBD14FF0010ADFE79FED838ADFF800927B
:203D4000DFF82882DFF828B204460546064607460020FFF7E9FE3B238DF80C30052300932C
:203D60007748012303AAD021FFF71EFF002800F0B680764819F096F90A2019F0ABF9FFF73E
:203D8000F5FE0134E4B2632CE2D907EE907AF8EEE77AC7EE886A07EE906AF8EEE77A87EE83
:203DA000887A07EE905AF8EEE77AC7EE888A9FED688A66EE887A17EE90BA67EE087A17EE15
:203DC000900AFCF7C1FB064658460F46FCF7BCFB68EE887A804617EE900A8946FCF7B4FB83
:203DE00002460B46FCF708FC424604460D464B4640464946FCF700FC22462B46FCF746FA6D
:203E000041EC100B1BF057FD304653EC102B3946FCF71CFD41EC100B1BF0A2FB4D4B51ECBB
:203E2000100B0022FCF7E8FB41A3D3E90023FCF70DFD494B804618688946FCF785FB02464B
:203E40000B4640464946FCF71FFAFCF7CDFE324608EE100A3B4630463946FCF7CDFB224611
:203E60002B46FCF713FA41EC100B1BF024FD55EC104B8BF00040FCF767FB22462B46FCF7E5
:203E8000E5FC41EC100B1BF06BFB324B51EC100B0022FCF7B1FB26A3D3E90023FCF7D6FC85
:203EA0002E4B044618680D46FCF74EFB0B46024629462046FCF7E8F9FCF796FEDFED287AF9
:203EC000284B38EE678A07EE900ABDEEC88AFDEEE77A83ED008A244BC3ED007A0CE71E23B9
:203EE0000093224A0623D0214846FFF77FFE08B158463FE7B8F80030DBBA1F44B8F8023071
:203F0000DBBA1E44F0EE087AB8F80430B4EEE78ADBBAF1EE10FA1D4404D5F7EE007A38EE16
:203F2000278A2EE7632C3FF404AF642429E700BF7A008BFCFA210940740400209602020850
:203F400064650020CE020208000000002702020800008038008066405C0400206004002089
:203F60000000B44264040020680400206C0400206F020208000000002DE9F0472DED068B34
:203F80008D4886B019F08EF80A2019F0A3F88B4B196861B18A4819F085F80A2019F09AF833
:203FA0000224204606B0BDEC068BBDE8F087854F854E092505231A46D02138460EF002FDA0
:203FC000044668B13046013D19F06CF8ADB20A2019F080F8FFF7CAFD002DEBD10124E0E7C1
:203FE000DFED7A8ADFF8DCA1DFF808929FED788A05460646074680460020FFF795FD3B23EE
:204000008DF81430052300936E48012305AAD021FFF7CAFD002800F0A0806E4819F042F8B4
:204020000A2019F057F8FFF7A1FD0135ADB2B5F57A7FE1D307EE908AF8EEE77A9FED669A9C
:2040400087EEA87A07EE907AF8EEE77A87EEA88A07EE906AF8EEE77A28EE098AC7EEA89A06
:2040600067EE098AFDEEE87A17EE903A002BB8BF5B4207EE903AF8EEE77AE9EE897A17EE18
:20408000900AFCF761FA41EC1A0B18EE100AFCF75BFAB0EE4A1AF0EE6A1A41EC100B1BF0C7
:2040A00008FC4E4B51EC100B0022FCF7A5FA4C4B0022FCF7A1FABDEEC88A3DA3D3E9002354
:2040C000FCF7C4FBFCF790FD18EE103A002BB8BF5B4208EE103AB8EEC88A0646A9EE898AF1
:2040E00018EE100AFCF730FA41EC190B18EE900AFCF72AFAB0EE491AF0EE691A41EC100BD1
:204100001BF0D7FB354B51EC100B0022FCF774FA344B0022FCF770FA25A3D3E90023FCF7CF
:2041200095FBFCF761FD304B1E60304B054618603046FCF709FA02460B462846CDE9022319
:20414000FCF702FADDE90223CDE90001284818F0A9FF0A2018F0BEFF23E71E230093254A72
:204160000623D0215046FFF741FD08B1224855E7B9F80030DBBA9844B9F80230DBBA1F44CF
:20418000B9F80430F4EEC88ADBBAF1EE10FA1E4404D5F7EE007A78EEA78A46E740F2E733DE
:2041A0009D423FF41BAF4FF47A753EE7AFF300807A008BFCFA2109400003020874040020A0
:2041C000960202086465002012030208000000000000484327020208000080380080764089
:2041E0000000E03F0000E0BF5C04002060040020400302086C0400206F020208F0B5284F89
:20420000284E85B0052500224FF4007138460DF081FB3220FFF788FC01224FF400713846DB
:204220000DF078FB3220FFF77FFC05231A46D02130460EF0C7FB08B1FFF798FC05231A46D1
:20424000D02130460EF0BEFB68B1174818F02AFF013D0A2018F03EFFFFF788FC15F0FF0567
:20426000D1D1012418E06B238DF80C3080238DF80D300523009303AA0223D0213046FFF7E1
:2042800093FC044608B10948E0E70CF0E1FD084B18602046FFF748FC204605B0F0BD00BFA8
:2042A00000040240646500205103020827020208740400201FB575238DF80C3000238DF8D1
:2042C0000D301A4B196841B1194818F0EBFE0A2018F000FF022004B010BD0A241548009484
:2042E000012303AAD021FFF75FFC48B1124818F0D9FE204618F0EEFEFFF738FC0120EAE703
:20430000052300930B48012303AAD021FFF76EFC08B10A48EBE79DF80C106829DBD0084853
:2043200018F0C0FE204618F0D5FEE7E77404002096020208646500207B030208A10302084F
:20434000CA0302082DE9F0412F4C2368054633B12E4E0CF07DFD2368643898421CD3002305
:204360002B4E2C4FDFF8BC8023600124FFF79EFC08B1FFF7FBFBFFF799FCC0B12648214688
:2043800018F090FE01340A2018F0A4FEFFF7EEFB0A2CEBD1012035E00020FFF7C5FB216818
:2043A000304618F07FFE0A2018F094FED1E7FFF781FF014610B119482146E1E76B20FFF7F7
:2043C00037FC014610B121464046D9E71B20FFF72FFC014610B121463846D1E71C20FFF7C2
:2043E00027FC10B121463046CAE7012D0AD10C4818F058FE0A2018F06DFEFFF7BDFD00380B
:2044000018BF0120BDE8F08174040020960202089704020869040208F9030208190402080B
:20442000C60402083C04020807B5F02300210246009308464FF4A073FFF765FA03B05DF892
:2044400004FB000073B5714DEB7B2BB96B7A1BB92B790BB92B7ACBB16D4B00221A706D4BCF
:204460001E78012E14D16C4A6C4B14781A7814430ED11E700CF0ECFC694B31461860032099
:2044800007F0A4FBEC736C722C712C7202B070BD6A7A6449292AD4B218BF634A4FF00003FF
:2044A0001CBF1360614A0B6018BF1370604B1A780AB9604B1A80AB7C012B31D1A4F15903B3
:2044C000092B01D83B3CE4B25B4B19780A4319D1462C17D111460320019207F077FB574BE2
:2044E00057480221196018F0DDFD0A2018F0F2FD019A54484FF480710DF00CFA0CF0A8FC70
:20450000514B1860514E33680E2B47D8DFE803F0686B6E4674777A46655F44625C71590079
:20452000A4F154030F2BCFD801A151F823F000BF71450008C944000875450008C944000847
:20454000794500087D450008814500088145000885450008C9440008894500088D45000898
:204560008D4500088D45000891450008954500083824A9E72D24A7E72824A5E74D24A3E729
:204580005124A1E750249FE74F249DE752249BE7492499E74C2497E709F0A6FE462C0AD071
:2045A0003368082B04D0062B1EBF294B03221A70284B00221A600023EB736B722B712B7282
:2045C00064E70AF0EFF8E9E70AF06AF9E6E70AF0E1F9E3E70AF09CFAE0E70AF04FFBDDE7B8
:2045E0000AF0E8FBDAE70AF06BFDD7E70AF028FED4E70AF0E1FED1E70AF0F8FECEE70BF0F1
:20460000D1F9CBE70BF016FAC8E700BFF154002099670020DE630020DF630020E0630020FA
:20462000E4630020145F0020C86D0020FB6D00202264002020860020C5670020EC67002078
:20464000EB040208000C0240C8670020C4000020576700201855002030B5094A01F1C60382
:2046600014685D1AAC4206DB08551368C52B9CBF0133136030BD13F8014D5C70F0E700BF06
:204680000855002070B5984A0546537A167A1179D47B907892790128DBB2F6B2C9B2E4B293
:2046A000D2B201D0012A5CD14F2B23D004D8062B17D0192B1BD070BD502BFCD18B49086804
:2046C0000028F8DD8A4B1B689842FDD12B182A5C13F8013C203B18BF012302B901382A1840
:2046E00025E084482946BDE8704018F0AFBD81492846F8E77D4A11680B46184601332C5CEF
:2047000014F0DF0F01D0C528F7D9284440780028D1D0C52BCFD8764800688842FDD1136064
:20472000C9E71478202C00F1FF3000D10133C643012B4FEAD676C8BF002612F801490EB152
:20474000002CEED1002803DA684B00221A60B2E7431C28444278002AADD0C52BABD80B6077
:20476000A9E72F2B1BD1644C012E206801D001290CD110B9602323609DE7C0B22946FFF7FA
:204780006BFF6020FFF768FF0023F4E708B9B423F1E7C0B22946FFF75FFFB420F2E7342B23
:2047A00017D1554C012E206801D0012908D108B95E23E0E7C0B22946FFF74EFF5E20E1E772
:2047C00008B97E23D7E7C0B22946FFF745FF7E20D8E7012E01D001290CD1232B0AD1464C7F
:2047E000206808B9A823C6E7C0B22946FFF734FFA820C7E72A2B12D13C4B1968481EC528E5
:204800003FF659AF3A4A12689142FDD11860C1F1C80229442844BDE8704017F0D7BE4C2B87
:2048200009D1324B1868C728C0F1C70200F1010188BF0022EDE7A4F120025F2A00F2FE8058
:204840002D4E3368002B00F0F480602B33D1412C00F09780452C00F09680492C00F09580BF
:204860004F2C00F09480552C00F09380612C00F09280652C00F09180692C00F090806F2CE4
:2048800000F08F80752C00F08E8029466020FFF7E3FE29462046FFF7DFFE002333601748F7
:2048A00018F000FC2146164818F0FCFBBDE870400A2018F00FBCB42B24D1412C75D0452CE7
:2048C00075D0492C75D04F2C75D0552C75D0612C75D0652C75D0692C75D06F2C75D0752C50
:2048E00075D02946B420D2E7F1540020085500200C5500207C61002080040020F404020871
:20490000FD0402085E2B16D1412C62D0452C62D0492C62D04F2C62D0552C62D0612C62D014
:20492000652C62D0692C62D06F2C62D0752C62D029465E20ABE77E2B0AD1412C5DD04F2C35
:204940005DD0612C5DD06F2C5DD029467E209EE7A82B9ED1412C58D0452C58D0492C58D009
:204960004F2C58D0552C58D0612C58D0652C58D0692C58D06F2C58D0752C58D02946A820FD
:2049800085E7C02485E7C82483E7CC2481E7D2247FE7D9247DE7E0247BE7E82479E7EC240E
:2049A00077E7F22475E7F92473E7C12471E7C9246FE7CD246DE7D3246BE7DA2469E7E1244F
:2049C00067E7E92465E7ED2463E7F32461E7FA245FE7C2245DE7CA245BE7CE2459E7D4248E
:2049E00057E7DB2455E7E22453E7EA2451E7EE244FE7F4244DE7FB244BE7C32449E7D524C3
:204A000047E7E32445E7F52443E7C42441E7CB243FE7CF243DE7D6243BE7DC2439E7E42472
:204A200037E7EB2435E7EF2433E7F62431E7FC242FE729462046FFF70FFE30E74F2B0ED150
:204A40003149324A0B681268E85C28B1C52B03D89342FDD1013382E69342FDD174E6502BD4
:204A600013D12949294A0B681068002B0BDD8342FDD1013B73E60132AC5C002CFBD183424F
:204A8000FDD10A6017E60022F6E7522B0CD11E491E4A0B6812681B2B03DD9342FDD11C3BAC
:204AA0005DE69342FDD14FE6512B19D1002300E00133EA5C002AFBD113490A6802F11C0025
:204AC000984208DA1B2A3FF7F6AD104B1B689A42FDD10860EFE50D4800688242FDD13EE6C5
:204AE0004B2B3FF431AE4E2B7FF4E5AD002300E00133EA5C002AFBD1044A1068024A1168B2
:204B00008842FDD10BE600BF085500200C5500201F48016801BB1F4B1A6812B905221A606B
:204B20007047052A02D11B4B0622F8E7062A01D10822F4E7082A01D10922F0E7092A01D13D
:204B40000B22ECE70B2A01D10C22E8E70C2A1ED10122026019607047012918D10D4B1A688A
:204B6000002AF7D0012A01D10322D8E7032A01D10422D4E7042AD6D0062A01D10722CEE7CF
:204B8000072A04D1044A117000221A6002607047D8040020D4040020C404002013B51923AB
:204BA0004CF21864194618460094FA22FEF72FFE192318460094FA22BE21FEF728FE19222D
:204BC000104600948C233221FEF721FE00948C2319223221FA20FEF71AFE50231946009477
:204BE000192240F21310FEF712FE3C210846009478231C22FEF70BFE009478231C223C2140
:204C00006220FEF704FE009478231C223C218820FEF7FDFD009478231C223C21AE20FEF72D
:204C2000F6FD009478231C223C21D420FEF7EFFD002002B010BD00002DE9F047DFF86C9122
:204C4000514AD9F80030514F52F82310504CDFF860814FF620524FF6E075002918BF15469B
:204C6000590107EB431386B09A7D012A68D193F818A0BAF1000F63D107F108028E18885828
:204C80007168444E04AB03C3314604A8FCF74CFC636800933246236869218B20CDE9015A2F
:204CA000FEF773FDD9F8003007EB43131869FBF74BFC0B4602463849304618F0A7FAD9F882
:204CC00000309FED367A07EB4317D7ED047A98F80030F4EEC77AF1EE10FA11DB012B01D124
:204CE0002C23F370CD200023CDE9015363680093284A23687D21FEF748FD06B0BDE8F087E3
:204D0000B2EE047AF4EEC77AF1EE10FA05DB012B01D12C23B370D820E5E7F5EEC07AF1EE59
:204D200010FA05DD012B01D12C237370E320DAE7BAEE047AF4EEC77AF1EE10FAE7DDF1E7C5
:204D40006368174A00930026236869218B20CDE90156FEF71AFD98F8003012490D48012BF9
:204D6000114B1B7814BF2E222C22B34214BF4323462318F04BFA63680093CDE901562368F9
:204D8000044A7D21E320B6E78C5F0020D45D0020380000207C5500200D0502080000C842BC
:204DA00014050208250502082C0100208C04002021640020F0B40D2101FB00F3164C174977
:204DC000174D94F804C005F803C01944EA1800236779A679A5784B7164788B71CB710B7274
:204DE0004B72104957709670D570147153719371D3711372537201220A7081F801C08F70DA
:204E0000CE700D714C718B71CB710B724B728B72F0BCC0B2FDF703BE096800200C630020B7
:204E200074630020146400202DE9F041DFF860E01549164A0D2444430EEB04031EF80440B5
:204E40004C705C7892F804C05779967995788C7052789C7883F805C09F71DE711D725A72B4
:204E60004FF00008CC70DC781B7981F800800C714B7181F806C0CF710E724D728A72BDE836
:204E8000F041C0B2FDF7CBBD14640020096800207463002030B5164B164C197801EB41036A
:204EA00001EB8301144B1A68144B53F8225085B09DB1134B1348194418F0A8F900234FF6DB
:204EC0002052CDE90132636800930E4A23682D21B420FEF75AFC05B030BD0B4B0948194423
:204EE00018F094F94FF6E073CDE90153EBE700BF4A670020380000208C0400208C5F002006
:204F00006A1A02087C550020EE1A020830B5154B154C197801EB410301EB8301134B1A6849
:204F2000134B53F8225085B09DB1124B1248194418F06CF9002302934FF620530193636883
:204F400000930D4A23682D21B420FEF71EFC05B030BD0A4B0848194418F058F902954FF6D2
:204F6000E073EBE74A670020380000208C0400208C5F0020911A02087C550020151B020848
:204F80002DE9F043DFF880801E4E87B00F460524002518F8013B8DF81550002B08BF202340
:204FA0008DF814307368009320463368CDE9017505AAB9210B34FEF7E8FBA4B240F2391319
:204FC0009C42E6D1DFF8449005254FF0000819F8013B8DF81580002B08BF20238DF81430BB
:204FE0002846736800930B35CDE90178336805AACD21ADB2FEF7C9FBA542E8D107B0BDE81A
:20500000F08300BF380000204462002060620020494B2DE9F0411F68484D0D237B438AB03F
:20502000EB5C632B9FBF4FF00A0CB3FBFCFCCCEB4C12CCEB820298BF03EB42034FF00D021A
:2050400002FB075288BF002351788CBF9C46DBB263299FBF0A22B1FBF2F2C2EB4210C2EBBB
:20506000800098BF01EB40014FF00D0000FB075088BF002180788CBF0A46C9B263289FBF2F
:205080004FF00A0EB0FBFEFECEEB4E14CEEB840498BF00EB44004FF00D0404FB075488BF3F
:2050A0000020E4788CBF8646C0B2632C9FBF0A26B4FBF6F6C6EB4618C6EB880898BF04EB9D
:2050C00048044FF00D0808FB075588BF00242D7994BFE4B22646632D9FBF0A27B5FBF7F7AE
:2050E000C7EB4718C7EB880898BF05EB4805DFF8608098F800808ABF0025EDB22F46B8F1D7
:20510000010F0CBFCDE90021CDE900C3CDE902E015BF0B460A490B49624605A818F076F835
:20512000CDE9017508490094334605AA074818F06DF80AB0BDE8F0818C0400207463002003
:20514000300502083F0502084E0502087C5500201F640020354B2DE9F0411B68344E0D22D6
:2051600002FB03668AB03379632B53D80A257179B1FBF5FCCCEB4C13CCEB830301EB4301F1
:20518000B379B3FBF5F2C2EB4210C2EB800003EB4003F079B0FBF5FECEEB4E14CEEB84048E
:2051A00000EB4400347AB4FBF5F7C7EB4718C7EB8808767AB6FBF5F504EB4804C5EB451851
:2051C000C5EB880806EB4806C9B2DBB2C0B2E4B2F6B2DFF8708098F80080B8F1010F0ABF3F
:2051E000CDE90023CDE900C10B46CDE902E00ABF10491149624605A818F008F8CDE9015690
:205200000E4900943B4605AA0D4817F0FFFF0AB0BDE8F081002427462046A6462346224695
:205220002146A44626462546D3E700BF8C04002074630020300502083F0502084E0502083C
:205240007C5500201F6400201FB50D4B0D4C1A780D4B0E4903EB0212204617F0D7FF4FF46C
:20526000FC620021CDE90121094B5A6800921B6822465F210320FEF788FA04B010BD00BFEA
:205280004A6700207C550020F80F02085B050208380000201FB50D4B0D4C19780D4A0E4BB3
:2052A00002EB01121B680D49204617F0AFFF1F220021CDE901210A4B5A6800921B6822462C
:2052C0005F210320FEF761FA04B010BD4A6700207C5500202810020800640020660502085D
:2052E00038000020F0B5234F234C3A78234B244D244985B003EB0212204617F087FF002682
:205300004FF47843CDE901366B68009322462B685F210320FEF739FA39781B4B01EB8101F1
:2053200003EB8101204617F091FF4FF6205301936B68009322462B68029691210320FEF7F1
:2053400024FA397801EB410301EB83010F4B2046194417F07BFF4CF2186301936B6800938D
:2053600002962B682246C3210320FEF70EFA05B0F0BD00BF4A6700207C5500202810020871
:20538000380000207F0502085810020894100208F0B5194F194C3A78194B1A4D1A49C2EB08
:2053A000C20285B003EB4202204617F02FFF00264FF4FC63CDE901366B68009322462B6811
:2053C0005F210320FEF7E1F9397801EB410301EB83010E4B2046194417F038FF4CF21863F7
:2053E00001936B68009302962B682246C3210320FEF7CBF905B0F0BD4A6700207C5500203C
:205400005F0F02083800002095050208890F02081FB50E4B0E4C1A780E4B0F49C2EBC2023B
:2054200003EB4202204617F0F1FE4FF4FC620021CDE90121094B5A6800921B6822465F2131
:205440000320FEF7A2F904B010BD00BF4A6700207C550020B00F02089505020838000020D2
:205460001FB50E4B0E4C1A780E490F4B02EB820201EB42021B680D49204617F0C7FE1F2275
:205480000021CDE901210A4B5A6800921B6822465F210320FEF779F904B010BD4A67002023
:2054A0007C550020DA0F020800640020A3050208380000202DE9F04F0D234343574FF95C74
:2054C00063299FBF4FF00A0CB1FBFCFCCCEB4C13CCEB830398BF01EB43014FF00D0303FBC2
:2054E000007388BF00215B788CBF8C46C9B2632B98BF0A2204469FBFB3FBF2F2C2EB42101C
:20550000C2EB800003EB40034FF00D0000FB047088BF002380788CBF1A46DBB263289FBFEF
:205520004FF00A0EB0FBFEFECEEB4E15CEEB850598BF00EB45004FF00D0505FB047588BF76
:205540000020AD7A8CBF8646C0B2632D9FBF4FF00A08B5FBF8F8C8EB4816C8EB860698BFF5
:2055600005EB46054FF00D0606FB047688BF0025F67A94BFEDB2A846632E9FBF4FF00A0926
:20558000B6FBF9F9C9EB491AC9EB8A0A98BF06EB4A064FF00D0A0AFB047788BF00263F7B74
:2055A00094BFF6B2B146632F9FBF4FF00A0AB7FBFAFACAEB4A1BCAEB8B0B98BF07EB4B0710
:2055C000DFF86CB09BF800B08FB08ABF0027FFB2BA46BBF1010F0DF1240B0ABFCDE90023AA
:2055E000CDE900C10B46CDE902E00ABF0C490D496246584617F00AFE631CCDE905A7CDE9EB
:205600000396CDE901850849CDF800B01A46074817F0FCFD0FB0BDE8F08F00BF0C6300200F
:20562000300502083F050208B70502087C5500201F64002070B506460D460020A84201DBD9
:20564000012009E0345C54B92A1A22EAE2722021304416F0D5FF20460023735570BD0130C1
:20566000ECE700002DE9F04F98464FF00B0992FBF9F909F1060385B023F00703144604AFF0
:20568000ADEB030D0A2C0DF1100B09F1FF320546D8BF00220E465846B96AB7F82CA016F04E
:2056A00087FFB9F1010FACBF0BEB09030BF10103ADB2B6B2A4B24FF0000203F8012C314640
:2056C00022462846CDF800A0142306F11409FEF79EF81FFA88F81FFA89F9A21E681C00231E
:2056E00000934946434692B280B2FEF790F83A8E144BCDF808A001925A680092B11CE81CC0
:205700005A461B6889B280B2FEF73FF808F11301314453462246284689B2FEF792F82846B4
:20572000013D5346424649462544FEF796F8534642464946A8B2FEF790F80437BD46BDE825
:20574000F08F00BF380000202DE9FF47744E754A3178754B754C01EB810102EB8101184671
:2057600017F074FD2278012A0ED10C224CF21861CDE901210090C8234FF4A072142100202B
:20578000FFF770FF002323703378DFF8E491684A6548684C684F03EB430102EB410209EBD7
:2057A000C303664917F032FD4CF218650023CDE901536368009323685B4A2D210520FDF761
:2057C000E4FF0095152340F2371240210420FEF751F842F2041300934FF49B721423412114
:2057E0000520FEF714F8F97830783B79544A97F806C07D79002900F08E800139CDE9005C5A
:2058000001EBC00102EB81024CF2186542F2041A4C494D4817F0FAFCCDE9015A63680093C8
:205820002368494A41210520FDF7AFFF3278474B47493D4802EB42024FF0000803EB420226
:2058400017F0E4FCCDE90158636800932368364A96210520FDF799FF0095152340F2371239
:20586000A9210420FEF706F8CDF800A014234FF49B72AA210520FDF7CAFF3B78BA78009336
:2058800034497B78344817F0C1FCCDE9015A636800932368304AAB210520FDF776FF3278E0
:2058A0002E49214809EBC20217F0B0FCCDE901586368009323681C4A5F210520FDF765FF42
:2058C0003278274B27491848C2EB02121A4417F09DFCCDE90158636800932368124A782130
:2058E0000520FDF752FF32781F4B20490E4802EB420202EBC2021A4417F088FCCDE9015891
:20590000636800932368084AD2210520FDF73DFF04B0BDE8F087CDE9005C02EB401273E789
:205920004A670020751102087C55002027000020BB10020838000020E8630020D505020852
:20594000EF1C0208E8050208C504002063110208FB050208760A0208DC0400200A06020826
:205960003611020814060208E510020898080208CD100208000000002DE9F04F2DED028B26
:205980000C4695B000293DD1002828DD0C234CF21862CDE90132154D154A2B7803EB830364
:2059A00002EB830300934FF4A072C82314212046FFF758FE0F4B2A780F49104803EB02120C
:2059C00017F024FC0E4B02944FF6FF7201925A6800921B68094A2D210620FDF7D6FE20469C
:2059E00015B0BDEC028BBDE8F08F00BF4A670020A71C0208411C02081E0602087C550020A5
:205A000048000020012940F0C381BB4BBB4FDFF81493069300252C46D7ED047ABDEEE78A64
:205A2000B8EEC87A77EEC77A17EE900AFAF78CFDAFA3D3E90023FAF7DFFDFBF78DF80DAA93
:205A4000079007F1080100231046013311F8016B02F8016B082BF8D1069B13F9016B069378
:205A60000DF13C084146002E40F03181FBF75CFD8DF84A60079BA2490193013543468DED79
:205A8000008A2A46484617F0C1FBFB7D9D4E012B31780DF1240B40F01F819B4B584603EB14
:205AA000810117F0B3FB4FF4FC6ABA7D3378012A4FEA830340F05C8193490BA8194417F03A
:205AC000A5FB924B924A1B78127892498DED028A012B14BF2E232C23002A14BF4322462206
:205AE0000592079ACDE900B8CDE9033248460BAB2A4617F08BFBCDE901A4DFF87082C5EB00
:205B00000511D8F8043000932D31D8F800304A4689B20E20FDF739FE082D07F120077FF48F
:205B20007BAF33787C4A02EBC3027C4B06921868FAF70AFD4FF6FF75CDE90001069A784970
:205B4000784817F063FB01950294D8F804300093D8F80030734AB4210E20FDF716FE3278EB
:205B600002EB820302EB43026F4B1A446F4B06921868FAF7E9FC069ACDE900016C49694804
:205B800017F044FBCDE90154D8F804300093D8F80030644AB4218C20FDF7F7FD32786549AE
:205BA000654B60481B68C2EBC2020A44634917F02DFBCDE90154D8F804300093D8F80030CE
:205BC000584AC3210E20FDF7E0FD5D4B5D491A68544817F01BFBCDE90154D8F80430009315
:205BE000D8F800304F4AC3218220FDF7CEFD56494C4817F02BFBCDE90154D8F804300093C5
:205C0000D8F80030474AC321C820FDF7BEFD4F4B1D78002D40F0B4804D49424817F016FB80
:205C200002954FF4FC630193D8F804300093D8F800303C4AC32140F21310FDF7A6FD454A1B
:205C4000454993680093D2E9002300244FF6FF75344817F0DBFACDE90154D8F80430009373
:205C6000D8F800302F4AD2210E20FDF78EFD3B4A3B49137A0593D37904939379039353798C
:205C8000029313790193D378009393782548527817F0BCFACDE90154D8F804300093D8F800
:205CA0000030204AE1210E20FDF76FFD2D491D4817F0CCFA4FF6E07302940193D8F804304C
:205CC0000093D8F80030174AE121D92085E604F015FC8DF84C40CDE6234B584603EB810125
:205CE00017F094FA4FF6E07ADFE600BFAFF30080000000000088C340DE670020D45D002089
:205D00003C0602084A670020E31C0208216400202C0100204C060208081C0208E05E002083
:205D20006D0602087C550020201C0208005F002077060208F31B0208640400208106020878
:205D4000680400208E06020897060208DE6300207A57020814680020A60602084468002018
:205D6000C1060208EC060208711C02084800002009490BA8194417F049FA4FF4784AA0E620
:205D80000649074817F062FA02944FF478434AE7022918BF002422E6711C0208A2060208C6
:205DA0007C550020F0B57F4B7F4D1A787F49804F804E3B78804CC2EBC20285B001EB42026B
:205DC00028467E4917F022FA0C234CF21861CDE901314FF4A072C823142100200095FFF77D
:205DE00041FC7749284617F031FA3378002B40F0C48002934FF6FF732A460193714D6368E3
:205E000000932D2123680620FDF7BFFCB5F90000FAF788FB6C4B0022FAF718FDFAF7E4FE6D
:205E2000FAF792FB0B46024668495F4817F0EEF93378002B40F0AF803A786549013A31F90B
:205E40001210B5F90020914240F09C804FF4FC620292019363680093534A23682D21662010
:205E6000FDF793FC3A785B4B03EB421313F8093C012B10D158494C4817F0E8F900234FF424
:205E80007842CDE9013263680093474A23682D21DC20FDF77AFC5149434817F0D7F933788A
:205EA000414A012B4FF0000302930CBF4FF6FF7348F2104301936368009341212368062040
:205EC000FDF763FC464B1B78002B69D14549364817F0BCF93378012B0CBF4FF61F0248F2DC
:205EE00010420023CDE90132636800932E4A236841216620FDF749FC48F210450026636842
:205F00000093CDE901562368374A69210620FDF73CFC63680093CDE901562368334A7D21E8
:205F20000620FDF732FC63680093CDE9015623682F4A91210620FDF728FC63680093CDE9A6
:205F4000015623682B4AA5210620FDF71EFC63680093CDE901562368274AB9210620FDF795
:205F600014FC63680093CDE901562368234ACD210620FDF70AFC05B0F0BD0023029348F24C
:205F8000104339E702DA4FF6E07261E77FF76AAF4FF620525CE748F210430293002358E7C6
:205FA000174994E74A6700207C5500207D1C0208050000201C55002038000020FA06020889
:205FC000040702086A550020000024400C070208CE670020D45D0020130702081C07020855
:205FE0006C5500202207020831070208400702085807020870070208870702089D070208CA
:206000002A0702082DE9F04F7E4C7F4D2378012B85B009D128687D4B392101FB0031C0B233
:20602000FCF772FC00232370794B7A4F1A78012A1BD13A78784E794900241C702B6802EBA9
:20604000C20201EB420201337549304617F0DEF80C234CF21860CDE901300096C8234FF477
:20606000A07214212046FFF7FDFA4CF218630021CDE901316B4C3A7863686B490093DFF872
:20608000CCB12368DFF8C8A102EB02120A4405202D21FDF77AFBDBF80030BBB93A7802EB77
:2060A000420102EB810229685AF82110002940F09D804FF4FC63CDE901136368009323684E
:2060C0005A490A44B4202D21FDF75FFB00264CF21868CDE901863A7863685549009302EBA3
:2060E000820201EB4202236841210520FDF74DFBCDE901863A7863684E49009302EB420289
:2061000001EB4202236855210520FDF73EFB28685AF820304FF620524FF6E079B34218BFA9
:206120009146C0B2FEF774FFCDE90196636800932368394A41219F20FDF727FB2878FFF728
:2061400009F8CDE90196636800932368324A55219F20FDF71AFBCDE9018663680093236828
:20616000354A69210520FDF710FBCDE90186636800932368314A7D210520FDF706FBFEF7A4
:206180005BFDCDE901863A7863682D490093C2EBC202236801EB82020520A521FDF7F5FAAA
:2061A000DBF800305BBB4FF62053009340F237122923B7210420FDF75DFB2868214C5AF81D
:2061C00020104FF620534FF6E07200290CBF11461946FEF7D5FE2378012B04D12868FEF7AD
:2061E00023FE0023237005B0BDE8F08F4FF6E071CDE90131636800932368134961E748F2AA
:206200001043D2E7665500208C040020B45F0020270000204A6700207C550020B81A0208CF
:20622000B807020838000020901B0208EE1A0208C31B0208E11B0208BE070208C9070208DF
:206240003C1B0208675500206A1A0208080000208C5F00202DE9FF41DFF82883D8F8003068
:20626000042B54D1AE4BAF4A1B68D65C002E42D1AD4FAE4C3978AE4BAE4DC1EBC10103EBEB
:206280008101204616F0E2FF4FF620534FF4A072CDE900431421C82330460296FFF7E2F92A
:2062A0003978A54B01EB4101C1EBC1011944204616F0CCFF4CF218684FF47843CDE9018317
:2062C0006B68009322462B6878210520FDF75DFA39789A4B01EB01111944204616F0B6FF42
:2062E000CDE901866B6800932B682246D7210520FDF74BFA05E0924B01221A60914B03224A
:206300001A70914B01221A7004B0BDE8F081864D884C29789A1E012A00F29080834E8B4BCC
:2063200001EB01111944304616F090FF00274FF620534FF4A072CDE901371421C823384637
:206340000096FFF78FF92978814B01EB410103EBC101304616F07AFF4CF218630297019303
:20636000636800932368324650210520FDF70DFA784A2B781268012A4FEAC30340F0B380BF
:2063800075496A48194416F061FF00264FF47843CDE90136636800932368644A7821052064
:2063A000FDF7F3F96D4B2978604803EBC10116F02DFF02964CF2186301936368009323684C
:2063C0005A4A78219B20FDF7E0F9654B297857481A2201FB02314CF21866002716F036FF7F
:2063E000CDE9016763680093504A2368A0210520FDF7CBF929785B4B4C48C1EBC10103EB27
:20640000810116F023FFCDE9016763680093474A2368B4210520FDF7B8F929784348C1EBC3
:20642000C10301EB8301504B194416F00FFFCDE901676368009323683C4A57E7012B97DCB2
:206440004A4B3A4E01EBC10103EB4101304616F0FDFE00274FF62053CDE901371421009632
:20646000C8234FF4A0723846FFF7FCF82978D8F8008001EB4101C1EBC101B8F1000F0FD14F
:206480003B4B3046194416F0E1FE4CF21863CDF80880019363680093236832465A2164E7FD
:2064A000344B4CF218681944304616F0CFFE0297CDF8048063680093324623685A21052016
:2064C000FDF763F929782C4B01EB410103EBC101304616F0BBFECDE901876368009323681A
:2064E00032463C2141E725491048194416F08EFE00264CF21863CDE9013663680093236835
:206500000A4A78210520FDF740F91D4B2978074803EBC10116F07AFE02964FF478434BE7EE
:206520008C040020445F00204A6700207C550020920C020838000020E60C0208250D0208EE
:20654000C40000205767002027000020840B0208580D0208B05F00209C0E0208B40E02087B
:20656000CC0E0208B70B02083B0C0208A00D0208D60D0208150E0208540E02080B0C0208BC
:20658000230C0208AC5F00202DE9F043BF4DC04B2978C04A01EB810101EB810111441846FD
:2065A0009DB016F053FEBC4A1178012903460DD1002010704CF218611F22CDE90121009354
:2065C0004FF4A072C8231421FFF74CF82B78002B40F0B281B149AE4816F038FE4FF4FC630D
:2065E000AF4C0022CDE9013263680093A84A23682D210520FDF7C9F82B78012B40F0A3816F
:20660000A849A34816F022FE4FF4FC630022CDE90132636800939E4A236846210520FDF77A
:20662000B4F82B78022B40F095819F49984816F00DFE4FF4FC630026CDE901366368944A61
:2066400000935F212368994F0520FDF79EF8984B29788F4803EBC10116F0F8FD4FF6E07367
:20666000019363688A4A00932D21236802969F20FDF78BF82B788F4A397803EBC3031A446E
:20668000002940F06E818C49814816F0BFFD4FF4FC630022CDE9013263687D4A0093462119
:2066A00023689F20FDF771F83B78844A012B2B7803EBC3031A4440F05B817F49744816F03B
:2066C000A5FD4FF4FC630026CDE901366368704A00935F212368DFF804929F20FDF755F8D3
:2066E0002978774B6A4801EB410103EB810116F0ADFD4FF6E073019363680093644A236874
:2067000002967D210520FDF740F899F80030002B40F035816B495E4816F098FD4FF4FC6389
:206720000022CDE9013263680093594A236896210E20FDF72AF899F80030012B40F0268103
:206740006149534816F082FD4FF4FC630026CDE9013663684E4A0093AF212368DFF8808191
:206760000E20FDF712F82978584B494801EBC101194416F06BFD4FF6E07301936368009315
:20678000434A236802967D219F20FCF7FEFF98F80030002B40F001814D493D4816F056FDEB
:2067A0004FF4FC630022CDE9013263680093384A236896219F20FCF7E8FF98F80030012B85
:2067C00040F0F2804349324816F040FD4FF4FC630026CDE9013663682D4A0093AF212368E9
:2067E0009F20FCF7D2FF162398222A2104200096FDF740F816239822432104200096FDF7ED
:2068000039F8162398225C2104200096FDF732F816239822932104200096FDF72BF816234E
:206820009822AC2104200096FDF724F816239B2243219C200096FDF71DF816239B225C21DF
:206840009C200096FDF716F816239B2293219C200096FDF70FF816239C2000969B22AC21D8
:20686000FDF708F81C4B1878002840F0A4804FF478430093982216232A210420FCF7FAFFD2
:2068800029780348C1EBC1032CE000BF4A6700207C550020B111020827000020D707020814
:2068A00038000020EF070208070802081F640020FC110208AA12020823080208C5120208D1
:2068C0001412020831080208430802083812020855080208630802084C6700202164002048
:2068E0002C01002001EB8301584B194416F0AEFC4CF218630022CDE901326368544A00936B
:20690000D22123680320FCF740FF04A8FCF7A2FB3B788DF8153099F800308DF8163098F8CF
