:020000040800F2
:200000000000022035120108FD0501081D0601084906010875060108A106010800000000AB
:20002000000000000000000000000000CD060108CF06010800000000D1060108E90601082E
:20004000851201088512010885120108851201088512010885120108990701088512010897
:20006000851201088512010885120108851201088512010885120108851201088512010880
:200080008512010885120108BD070108851201088512010885120108851201089F07010824
:2000A000851201088512010885120108851201088512010885120108851201088512010840
:2000C0008512010885120108851201088512010885120108E10701088512010885120108CF
:2000E000B307010885120108851201088512010885120108851201088512010885120108DD
:2001000085120108851201088512010885120108851201088512010885120108ED07010882
:200120008512010885120108851201088512010885120108851201088512010885120108BF
:200140008512010885120108851201084508010885120108851201088512010885120108E9
:2001600085120108851201085D0801086108010885120108510801088512010800000000BD
:200180008512010885120108FFFFFFFFFFFFFFFF10B5054C237833B9044B13B10448AFF389
:2001A00000800123237010BD1004002000000000B80F020808B5034B1BB103490348AFF326
:2001C000008008BD0000000014040020B80F0208034613F8012B002AFBD1181A0138704739
:2001E00001F0FF01102A2BDB10F0070F08D010F8013B013A8B422DD010F0070F42B3F6D1C5
:20020000F0B441EA012141EA014122F007047FF000070023F0E80256083C85EA010586EA71
:20022000010685FA47F5A3FA87F586FA47F6A5FA87F68EB9EED1F0BC01F0FF0102F007026C
:2002400032B110F8013B013A83EA010313B1F8D10020704701387047002D06BF35460338CF
:20026000073815F0010F07D1013015F4807F02BF013015F4C03F0130F0BC0138704700BF93
:2002800081F0004102E000BF83F0004330B54FEA41044FEA430594EA050F08BF90EA020F8D
:2002A0001FBF54EA000C55EA020C7FEA645C7FEA655C00F0E2804FEA5454D4EB5555B8BF63
:2002C0006D420CDD2C4480EA020281EA030382EA000083EA010180EA020281EA0303362D1A
:2002E00088BF30BD11F0004F4FEA01314FF4801C4CEA113102D0404261EB410113F0004F84
:200300004FEA03334CEA133302D0524263EB430394EA050F00F0A780A4F10104D5F1200EC1
:200320000DDB02FA0EFC22FA05F2801841F1000103FA0EF2801843FA05F359410EE0A5F109
:2003400020050EF1200E012A03FA0EFC28BF4CF0020C43FA05F3C01851EBE37101F0004515
:2003600007D54FF0000EDCF1000C7EEB00006EEB0101B1F5801F1BD3B1F5001F0CD349088F
:200380005FEA30004FEA3C0C04F101044FEA445212F5800F80F09A80BCF1004F08BF5FEA6E
:2003A000500C50F1000041EB045141EA050130BD5FEA4C0C404141EB0101013C28BFB1F5E7
:2003C000801FE9D291F0000F04BF01460020B1FA81F308BF2033A3F10B03B3F120020CDA82
:2003E0000C3208DD02F1140CC2F10C0201FA0CF021FA02F10CE002F11402D8BFC2F1200C96
:2004000001FA02F120FA0CFCDCBF41EA0C019040E41AA2BF01EB0451294330BD6FEA0404CF
:200420001F3C1CDA0C340EDC04F11404C4F1200220FA04F001FA02F340EA030021FA04F320
:2004400045EA030130BDC4F10C04C4F1200220FA02F001FA04F340EA0300294630BD21FA3E
:2004600004F0294630BD94F0000F83F4801306BF81F480110134013D4EE77FEA645C18BF1C
:200480007FEA655C29D094EA050F08BF90EA020F05D054EA000C04BF1946104630BD91EA56
:2004A000030F1EBF0021002030BD5FEA545C05D14000494128BF41F0004130BD14F58004B3
:2004C0003CBF01F5801130BD01F0004545F0FE4141F470014FF0000030BD7FEA645C1ABF2F
:2004E000194610467FEA655C1CBF0B46024650EA013406BF52EA033591EA030F41F400211E
:2005000030BD00BF90F0000F04BF0021704730B54FF4806404F132044FF000054FF000014A
:2005200050E700BF90F0000F04BF0021704730B54FF4806404F1320410F0004548BF404296
:200540004FF000013EE700BF42004FEAE2014FEA31014FEA02701FBF12F07F4393F07F4F10
:2005600081F06051704732F07F4208BF704793F07F4F04BF41F40021704730B54FF4607424
:2005800001F0004521F000411CE700BF50EA010208BF704730B54FF000050AE050EA010206
:2005A00008BF704730B511F0004502D5404261EB41014FF4806404F132045FEA915C3FF4F0
:2005C000D8AE4FF003025FEADC0C18BF03325FEADC0C18BF033202EBDC02C2F1200300FA3C
:2005E00003FC20FA02F001FA03FE40EA0E0021FA02F11444BDE600BF70B54FF0FF0C4CF445
:20060000E06C1CEA11541DBF1CEA135594EA0C0F95EA0C0F00F0DEF82C4481EA030621EAF1
:200620004C5123EA4C5350EA013518BF52EA033541F4801143F4801338D0A0FB02CE4FF074
:200640000005E1FB02E506F00042E0FB03E54FF00006E1FB03569CF0000F18BF4EF0010E9E
:20066000A4F1FF04B6F5007F64F5407404D25FEA4E0E6D4146EB060642EAC62141EA555161
:200680004FEAC52040EA5E504FEACE2EB4F1FD0C88BFBCF5E06F1ED8BEF1004F08BF5FEA36
:2006A000500E50F1000041EB045170BD06F0004646EA010140EA020081EA0301B4EB5C04E5
:2006C000C2BFD4EB0C0541EA045170BD41F480114FF0000E013C00F3AB8014F1360FDEBFC7
:2006E000002001F0004170BDC4F10004203C35DA0C341BDC04F11404C4F1200500FA05F347
:2007000020FA04F001FA05F240EA020001F0004221F0004110EBD37021FA04F642EB0601A1
:200720005EEA430E08BF20EAD37070BDC4F10C04C4F1200500FA04F320FA05F001FA04F24F
:2007400040EA020001F0004110EBD37041F100015EEA430E08BF20EAD37070BDC4F1200516
:2007600000FA05F24EEA020E20FA04F301FA05F243EA020321FA04F001F0004121FA04F2B9
:2007800020EA020000EBD3705EEA430E08BF20EAD37070BD94F0000F0FD101F0004640005B
:2007A00041EB010111F4801F08BF013CF7D041EA060195F0000F18BF704703F000465200BD
:2007C00043EB030313F4801F08BF013DF7D043EA0603704794EA0C0F0CEA135518BF95EA39
:2007E0000C0F0CD050EA410618BF52EA4306D1D181EA030101F000414FF0000070BD50EA3C
:20080000410606BF1046194652EA430619D094EA0C0F02D150EA013613D195EA0C0F05D178
:2008200052EA03361CBF104619460AD181EA030101F0004141F0FE4141F470014FF00000E2
:2008400070BD41F0FE4141F4780170BD70B54FF0FF0C4CF4E06C1CEA11541DBF1CEA135570
:2008600094EA0C0F95EA0C0F00F0A7F8A4EB050481EA030E52EA03354FEA013100F08880CB
:200880004FEA03334FF0805545EA131343EA12634FEA022245EA111545EA10654FEA002629
:2008A0000EF000419D4208BF964244F1FD0404F5407402D25B084FEA3202B61A65EB0305CC
:2008C0005B084FEA32024FF480104FF4002CB6EB020E75EB030E22BFB61A754640EA0C0042
:2008E0005B084FEA3202B6EB020E75EB030E22BFB61A754640EA5C005B084FEA3202B6EBA3
:20090000020E75EB030E22BFB61A754640EA9C005B084FEA3202B6EB020E75EB030E22BF51
:20092000B61A754640EADC0055EA060E18D04FEA051545EA16754FEA06164FEAC30343EA5D
:2009400052734FEAC2025FEA1C1CC0D111F4801F0BD141EA00014FF000004FF0004CB6E7B0
:2009600011F4801F04BF01430020B4F1FD0C88BFBCF5E06F3FF6AFAEB5EB030C04BFB6EB12
:20098000020C5FEA500C50F1000041EB045170BD0EF0004E4EEA113114EB5C04C2BFD4EB50
:2009A0000C0541EA045170BD41F480114FF0000E013C90E645EA060E8DE60CEA135594EA21
:2009C0000C0F08BF95EA0C0F3FF43BAF94EA0C0F0AD150EA01347FF434AF95EA0C0F7FF438
:2009E00025AF104619462CE795EA0C0F06D152EA03353FF4FDAE1046194622E750EA410659
:200A000018BF52EA43067FF4C5AE50EA41047FF40DAF52EA43057FF4EBAE12E74FF0FF3CE3
:200A200006E000BF4FF0010C02E000BF4FF0010C4DF804CD4FEA410C7FEA6C5C4FEA430C83
:200A400018BF7FEA6C5C1BD001B050EA410C0CBF52EA430C91EA030F02BF90EA020F00201C
:200A6000704710F1000F91EA030F58BF994208BF90422CBFD8176FEAE37040F00100704729
:200A80004FEA410C7FEA6C5C02D150EA013C07D14FEA430C7FEA6C5CD6D152EA033CD3D0FF
:200AA0005DF8040B704700BF8446104662468C461946634600E000BF01B5FFF7B7FF002891
:200AC00048BF10F1000F01BD4DF808EDFFF7F4FF0CBF012000205DF808FB00BF4DF808EDC1
:200AE000FFF7EAFF34BF012000205DF808FB00BF4DF808EDFFF7E0FF94BF012000205DF8D4
:200B000008FB00BF4DF808EDFFF7CEFF94BF012000205DF808FB00BF4DF808EDFFF7C4FF78
:200B200034BF012000205DF808FB00BF4FEA410C7FEA6C5C02D150EA013C0AD14FEA430C06
:200B40007FEA6C5C02D152EA033C02D14FF0000070474FF0010070474FEA410212F50012C1
:200B600015D211D56FF47873B3EB625212D94FEAC12343F0004343EA505311F0004F23FA4D
:200B800002F018BF404270474FF00000704750EA013005D111F0004008BF6FF000407047BE
:200BA0004FF00000704700BF4A0011D212F5001211D20DD56FF47873B3EB62520ED44FEABA
:200BC000C12343F0004343EA505323FA02F070474FF00000704750EA013002D14FF0FF3083
:200BE00070474FF0000070474FEA4102B2F1E04324BFB3F5001CDCF1FE5C0DD901F0004C15
:200C00004FEAC0024CEA5070B2F1004F40EB830008BF20F00100704711F0804F21D113F1EE
:200C20003872BCBF01F00040704741F480114FEA5252C2F11802C2F1200C10FA0CF320FA35
:200C400002F018BF40F001004FEAC1234FEAD32303FA0CFC40EA0C0023FA02F34FEA430382
:200C6000CCE77FEA625307D150EA01331EBF4FF0FE4040F44000704701F0004040F0FE4039
:200C800040F40000704700BF53B94AB9002908BF00281CBF4FF0FF314FF0FF3000F074B9AE
:200CA000ADF1080C6DE904CE00F006F8DDF804E0DDE9022304B070472DE9F047089D044621
:200CC0008E46002B4DD18A42944669D9B2FA82F252B101FA02F3C2F1200120FA01F10CFA16
:200CE00002FC41EA030E94404FEA1C48210CBEFBF8F61FFA8CF708FB16E341EA034306FB6B
:200D000007F199420AD91CEB030306F1FF3080F01F81994240F21C81023E63445B1AA4B27E
:200D2000B3FBF8F008FB103344EA034400FB07F7A7420AD91CEB040400F1FF3380F00A8170
:200D4000A74240F207816444023840EA0640E41B00261DB1D4400023C5E900433146BDE867
:200D6000F0878B4209D9002D00F0EF800026C5E9000130463146BDE8F087B3FA83F6002E8F
:200D80004AD18B4202D3824200F2F980841A61EB030301209E46002DE0D0C5E9004EDDE7D5
:200DA00002B9FFDEB2FA82F2002A40F09280A1EB0C014FEA1C471FFA8CFE0126200CB1FB38
:200DC000F7F307FB131140EA01410EFB03F0884208D91CEB010103F1FF3802D2884200F22C
:200DE000CB804346091AA4B2B1FBF7F007FB101144EA01440EFB00FEA64508D91CEB04049B
:200E000000F1FF3102D2A64500F2BB800846A4EB0E0440EA03409CE7C6F12007B34022FAF9
:200E200007FC4CEA030C20FA07F401FA06F31C43F9404FEA1C4900FA06F3B1FBF9F8200C6F
:200E40001FFA8CFE09FB181140EA014108FB0EF0884202FA06F20BD91CEB010108F1FF3A78
:200E600080F08880884240F28580A8F102086144091AA4B2B1FBF9F009FB101144EA01410E
:200E800000FB0EFE8E4508D91CEB010100F1FF346CD28E456AD90238614440EA0840A0FB2A
:200EA0000294A1EB0E01A142C846A64656D353D05DB1B3EB080261EB0E0101FA07F722FAB2
:200EC00006F3F1401F43C5E9007100263146BDE8F087C2F12003D8400CFA02FC21FA03F3AB
:200EE000914001434FEA1C471FFA8CFEB3FBF7F007FB10360B0C43EA064300FB0EF69E4255
:200F000004FA02F408D91CEB030300F1FF382FD29E422DD9023863449B1B89B2B3FBF7F673
:200F200007FB163341EA034106FB0EF38B4208D91CEB010106F1FF3816D28B4214D9023E2E
:200F40006144C91A46EA004638E72E46284605E70646E3E61846F8E64B45A9D2B9EB02089C
:200F600064EB0C0E0138A3E74646EAE7204694E74046D1E7D0467BE7023B614432E73046E0
:200F800009E76444023842E7704700BF70B500258EB004462422294605A804951CF008FD02
:200FA00042238DF800304D238DF801302A4BCDF80A501B688DF802301A0A8DF803201A0C31
:200FC0001B0E8DF804208DF80530F02236238DF80A308DF81820282318228DF810308DF8CF
:200FE0001E2040232C22C4218DF814308DF8252001230E228DF815308DF81C308DF82630C0
:201000008DF829208DF82D208DF83130CDF806508DF828108DF82C106A46234602AE15468D
:2010200003CDB542186059602A4603F10803F6D128681860AA889A8004AD04F10E030EACBD
:201040002A4603CAA24218605960154603F10803F6D10EB070BD00BF0000002037B5094C12
:201060000190656812F07CFA019B074AB0FBF2F0584301906368019A5B1B9342FAD303B0C3
:2010800030BD00BF001000E040420F0030B587B004460D461422002101A81CF089FC29466A
:2010A0002046012210F09CFE11220023CDE9022301A9032320460195049310F01BFD07B0AA
:2010C00030BD30B587B004460D461422002101A81CF06EFC01222946204610F081FE00235A
:2010E00001A92046CDE90233019510F003FD07B030BD00002DE9F84F254B264F93F800806E
:2011000000263546F3B298450BD8234B187809F05BF91DB101200AF00FFF01252846BDE84E
:20112000F88F07EB43124FEA431AD17D69B301249C40E0B209F048F94FF08C0B002002F02C
:20114000F3FCBBF1010BF9D107EB0A0957F80A00B9F80410FFF7B5FFB9F8041057F80A0033
:2011600010F038FE0C4A63B2147828B12343137089F81AB00136C5E724EA03031370012397
:201180001D4489F81A30EDB2F4E79176F2E700BF1A6E0208E05D0020B05D002008B50548E4
:2011A0000122802110F01CFE09F036F9BDE80840FFF7A0BF001002407FB50C4604A901E978
:2011C0000C001646BDF80C10019105460022304610F006FE2846FFF741FF30460199012286
:2011E00010F0FEFD204604B0BDE87040FFF736BF82B06B4683E806000CCB20B905213C2014
:2012000002B0FFF7D9BF3C210520F9E773B56D4685E806000646002446FA04F095E80600B7
:2012200000F001000134FFF7E3FF082CF4D102B070BD30B585B002AB83E803000A210CCBA1
:201240000120FFF7B9FF029DBDF80C1001912846FFF737FF0199284610F0BCFD04462820D0
:20126000FFF7FCFE28460199FFF710FF201E18BF012005B030BD73B56E4686E80300002527
:201280002C4696E80300FFF7D4FFA84001350444082DE4B2F5D1204602B070BD30B585B03C
:2012A00002AB83E8030046210CCB4FF4FA70FFF783FF029DBDF80C1001912846FFF701FF4A
:2012C0000199284610F086FD019904462846FFF7DDFE4FF4C870FFF7C1FEB4FA84F04009C5
:2012E00005B030BD84B008B50DF1080C8CE80F00DCE90001FFF7D2FFBDE80840013818BF3C
:20130000012004B0704784B007B50DF1100C8CE80F00DCE90001FFF7C1FF01281BD104AB74
:2013200093E80600CC20FFF771FF04AB93E806004420FFF76BFF04AA92E803006B4683E89F
:201340000300FFF798FF003818BF012003B05DF804EB04B070470120F8E7000008B54378F3
:20136000007800EB0320DB0980B20CD0404280B2FFF7D8F8064B0022FFF73EF9FFF734FCB5
:2013800000EE100A08BDFFF7CDF8024B0022F3E70000B0BF0000B03F73B56C4684E80600D2
:2013A000054694E80300FFF779FFE0B194E80600CC20FFF72BFF94E80600BE20FFF726FF5B
:2013C0006E1E083594E80300FFF755FF06F8010FAE42F7D194E80300FFF760FFB0FA80F0C7
:2013E000400902B070BD0120FBE737B56C4684E80600054694E80300FFF750FF10B90120B9
:2014000003B030BD94E80600CC20FFF7FFFE94E806004E20FFF7FAFE94E80600A878FFF755
:20142000F5FE94E80600E878FFF7F0FE94E806002879FFF7EBFE94E80300FFF72FFF002826
:20144000DDD094E80600CC20FFF7E0FE94E806004820FFF7DBFE142002F066FB0020CFE787
:2014600010B586B06B4683E80600002204468DF8102003A893E80600FFF78EFFA0B99DF891
:2014800010301F2B03D10923237006B010BD3F2B01D10A23F8E75F2B01D10B23F4E77F2B55
:2014A00001D10C23F0E720700120EEE730B587B06D4685E806000446002395E806000DF19E
:2014C0000B008DF80B30FFF7CBFF10B1012007B030BD9DF80B30A342F9D0092C1ED00A2C24
:2014E0001ED00B2C1ED00C2C0CBF7F231F2395E8060003A88DF81030FFF777FF0028E5D1B5
:2015000095E806000DF10B00FFF7AAFF0028DDD19DF80B30181B18BF0120D8E71F23E6E701
:201520003F23E4E75F23E2E730B593B0C3790493837903934379029303790193C378009377
:201540000DAD0C4683784278164928461DF036F895E803009DF83F308DF82E309DF8403056
:201560008DF81C309DF84130BDF83D2008908DF81D30DDF839008DF8241007AB00250A90E0
:20158000ADF82C20009308498DF825500AAB08AA20468DF82F508DF81F501DF00FF8A5738B
:2015A00013B030BD091002082610020870B40379C67944790A46817946EA036643F3C0158E
:2015C0002404C37844EA012481782B44457803EB012144EA060001EB054170BC0CF0DEBFF5
:2015E00030B50246014400208A4200D130BD12F8015B082480EA050313F0010F4FEA50002F
:201600001CBF80F08C03D8B2631E13F0FF044FEA5505EFD1E8E7000070B52DED028B424A65
:2016200086B0516804461068127A03AB03C394E803001A7001AB83E80300B0EE408AFFF778
:201640001AFE08B9012548E094E80300FFF726FE0028F7D094E80600CC20FFF7D7FD94E827
:201660000600BE20FFF7D2FD03AE092594E80300FFF701FE013D15F0FF0506F8010BF5D157
:20168000082103A8FFF7ACFF9DF81430834244D19DF80D309DF80C00DE0900EB032080B288
:2016A00020D0404280B2FEF73DFF204B0022FEF7A3FFFFF799FA07EE900A37EE880A10EE64
:2016C000100A84ED040AFEF73FFF194B0022FEF793FFFFF769FA4042A082284606B0BDEC67
:2016E000028B70BDFEF71EFF124B0022FEF784FFFFF77AFA07EE900A37EE880A354610EEFE
:20170000100A84ED040AFEF71FFF094B0022FEF773FFFFF749FAA082DFE707481CF09AFE2C
:201720000A201CF0AFFE8DE7D00F02080000B0BF000030400000B03F2D100208F0B58BB074
:2017400006AD85E80600244A0646D2F80D10D2F8090008AB03C395E80300FFF79FFD00283C
:2017600038D095E806003320FFF750FD08AF082495E80300FFF77FFD013C14F0FF0407F830
:20178000010BF5D1072108A8FFF72AFF9DF82730834206D108AB03CB3060716020460BB0F5
:2017A000F0BD04939DF8263003939DF8253002939DF8243001939DF8233000939DF8212017
:2017C0009DF822309DF8201004481CF043FE0A201CF058FE0124E1E7D00F02084F100208F9
:2017E0002DE9F04F2DED028BB24B1B7891B0012B05900C4602D1B04812F0ECFA059B23F0A3
:201800000203012B40F0AC80DFF8C8A2DFF8C8B2254626464FF00008B446BCE80F0008AF27
:201820000FC79CE80F0087E80F0008AF97E80300FFF734FD012836D106F11B0996E8060092
:201840004846FFF70DFE96E806004846FFF708FEF37E9AF800209A4225D0FF2B06D1974817
:2018600041461CF0F7FD0A201CF00CFE4FF00A099AF80000F37E834215D096E8060009F124
:20188000FF39FFF713FE19F0FF0903D0002002F04BF9EDE7F27E08F1010158461CF0DAFD0F
:2018A0000A201CF0EFFD08F10108B8F1080F06F12006B1D104F580734FF0000B0693D946B7
:2018C000069B9D420AD1059B032B40F09C800025284611B0BDEC028BBDE8F08F4FF00A0A92
:2018E0004FF0020805F1100696E80F008DE80F0095E80F00FFF7F6FCAE46BEE80F00BC4663
:20190000ACE80F0096E80F008CE80F0097E80300FFF7C4FC012805D0EB7D85F816905BB93F
:201920002035CDE7A87596E80F008DE80F0095E80F00FFF7E8FC8046BAF1010AEB7D09D04D
:20194000012B03D185F8189085F81E90B8F1000FCAD1E5E7012BE3D12B76AB779B46DFE7CE
:20196000059B002B4DD10AF093FDDDF814B0DFF86CA19FED538A083401260025A4F10803E6
:2019800007930223002706930DF12008A37B0BB3A4F1080EBEE80F000DF1200CACE80F0099
:2019A0009EE80F008CE80F0098E80300FFF776FC0128814641D0002323606360E37B002B31
:2019C00054D1DFF81C910A274FF00208A37B002B40F08880E37B012B00D123740136092E03
:2019E0000AF1020A04F12004C8D1059B7BB9002D3FF46DAF33481CF02DFD0A201CF042FDB8
:201A000066E74FF0000B059B022BB0D00025294B1B78012B02D1284812F0A2F9002D3FF44A
:201A200056AFBBF1000F3FF452AF27481CF012FD0A201CF027FD5D464AE7079B404693E857
:201A40000600FFF77BFEC0B1394620481CF002FD0A201CF017FD00220698A28184ED028A84
:201A600084F8109084F815904D460690092F0FD0069B0137002B89D1A3E760754146E31DA5
:201A800011F8012B1A70A34203F1FF33F8D1ECE7E77B012F95D131460D481CF0DBFC0A200F
:201AA0001CF0F0FC0023A38184ED028A27746775BB4686E75C670020886600208D1002086D
:201AC000000000000011020811110208C4100208DB10020874000020A9100208E26700202C
:201AE00030010020BAF90000FEF71CFD204B0022FEF7ACFEFFF778F800EE100A0798FFF7A5
:201B00008BFDA37B002818BF0125012B1CD199F80030D4ED027A012B0BD0B2EE027A67EE6B
:201B2000877AF1EE046A87EEA67ADFED127A77EE277AC4ED027A4FF00008013F0AD0B8F12D
:201B4000000F7FF443AF49E7E37B84ED028A002BF3D143E7E77B012F7FF440AF31460648B4
:201B60001CF078FC0A201CF08DFCBB46277435E70000244000000042EB1002082DE9F04F6E
:201B80002DED028BB94B1B788FB0012B82460491144602D1B64812F01DF9049B23F0020345
:201BA000012B40F0918004EB4A152F460FCF06AE0FC697E80F000DF1180886E80F0098E8E5
:201BC0000300FFF76BFB012833D105F11B0695E80600A84F3046FFF743FC95E80600304644
:201BE000FFF73EFCEB7E3A789A4222D0FF2B06D1A14851461CF02EFC0A201CF043FC0A2670
:201C00003878EB7E834214D095E80600013EFFF74DFC16F0FF0603D0002001F085FFEFE7B8
:201C2000EA7E96480AF101011CF014FC0A201CF029FC02234FF00A09059305F110064FF090
:201C4000000B96E80F008DE80F0095E80F00FFF749FBAC46BCE80F0047460FC796E80F000D
:201C600087E80F0098E80300FFF718FB01280ED0EB7D85F816B0A3B90027049B032B67D120
:201C8000002528460FB0BDEC028BBDE8F08FA87596E80F008DE80F0095E80F00FFF733FBBA
:201CA0000590B9F10109EF7D09D0012F03D185F818B085F81EB0059B002BC2D1DCE7012FB1
:201CC000DAD12F76AF77D8E7049B002B3FD10AF0DFFB049F9FED6A8A002604EB4A144FF04C
:201CE000020935460DF11808A37D0BB3A646BEE80F000DF1180CACE80F009EE80F008CE8F3
:201D00000F0098E80300FFF7C9FA0128834636D00023A360E360E37D002B48D1DFF880918B
:201D20009FED578A0A264FF00208A37D002B64D1E37D012B00D12376049B6BB9002D9FD0E8
:201D400050481CF087FB0A201CF09CFB99E70027049B022BBED00025444B1B78012B02D149
:201D6000434811F0FDFF002D8AD0002F88D046481CF070FB0A201CF085FB3D4681E794E8AB
:201D800006004046FFF7DAFCC0B131463F481CF061FB0A201CF076FB0023A38284ED048A26
:201DA00084F818B084F81DB048465D468146092E10D00136B9F1000F96D1AFE7607742463B
:201DC00004F10F03E11D12F801CB03F801C98B42F9D1EBE7E67D012EA0D10AF101012C4886
:201DE0001CF038FB0A201CF04DFB0023A3820023236126766677374690E739F91A00FEF789
:201E000091FB244B0022FEF721FDFEF7EDFE00EE100A2046FFF700FCA37D002818BF01250D
:201E2000012B1CD11C4BD4ED047A1B78012B0BD0B2EE027A67EE877AF1EE046A87EEA67AF5
:201E4000DFED167A77EE277AC4ED047A4FF00008013E27D0B8F1000F7FF467AF6CE7E37D80
:201E600084ED048A002BF3D166E700BF5C67002088660020740000208D100208A910020879
:201E8000000000000011020811110208C4100208DB10020800002440300100200000004231
:201EA000E2670020E67D012E7FF446AF0AF1010104481CF0CFFA0A201CF0E4FA3746267674
:201EC0003AE700BFEB10020808B50B480B4A0C4BC0E9002300234FF48042C0E90233C0E9E6
:201EE0000423C0E90633036210F0C8FC18B1BDE808400AF09FBA08BD2465002000540040A5
:201F0000A086010070B50E4D0E4E0446012086B028703078012808D00A980090204610F044
:201F20006FFD00232B7006B070BD0020CDE90423039101F0F9FDDDE904230399E9E700BF04
:201F4000D7670020145F002070B50E4D0E4E0446012086B028703078012808D00A980090A0
:201F6000204610F025FE00232B7006B070BD0020CDE90423039101F0D7FDDDE90423039958
:201F8000E9E700BFD7670020145F0020030903EB830300F00F0000EB4300C0B270470A23BE
:201FA000B0FBF3F3C3EB4312C3EB820200EB420040EA0310C0B2704710B5052386B004465B
:201FC00002223E48D02110F063FF50B13C481CF041FA0A201CF056FAFFF776FF012006B070
:201FE00010BD8DF810002078FFF7D9FF8DF811006078FFF7D4FF8DF81200A078FFF7CFFF6F
:202000008DF81300E078FFF7CAFF8DF814002079FFF7C5FF8DF815006079FFF7C0FF8DF878
:202020001600A079FFF7BBFF64238DF8170000932248082304AAD021FFF764FF08B121485C
:20204000C5E702A800F042F808B11F48BFE79DF80900237862789DF808108B4208BF824222
:20206000A2789DF80A300CBF012000209A4214BF002000F00100A2799DF80E309A4214BF0E
:20208000002000F0010062799DF80D309A4214BF002000F0010022799DF80C309A4214BFA7
:2020A000002000F00100E2789DF80B309A4214BF002000F0010080F0010090E72465002094
:2020C00027110208541102086F1102082DE9F043052389B0044602225D48D02110F0D8FE41
:2020E000B0B1FFF7F1FE642001F01EFD584805230222D02110F0CCFE50B156481CF0AAF915
:202100000A201CF0BFF90122104609B0BDE8F08364254F4F2E46009601230022D0213846A1
:20212000FFF7F0FE40B14C481CF094F90A201CF0A9F9FFF7C9FEE6E702AA00960723D021DE
:202140003846FFF701FF024608B14448ECE700960123D0213846FFF7D5FE08B14048E3E7AE
:2021600004AA00960723D0213846FFF7EDFE024608B13C48D8E7844602A904AB012011F80F
:20218000018B13F801EB0CF1010CF04518BF0020BCF1070FF3D1013D01D00028BBD09DF8A8
:2021A0000800FFF7F3FE804620709DF80900FFF7EDFE814660709DF80A00FFF7E7FE014603
:2021C000A0709DF80B00FFF7E1FE0746E0709DF80C00FFF7DBFE064620719DF80D00FFF7F8
:2021E000D5FE607105469DF80E00FFF7CFFEB9F13B0F98BF17298CBF01210021B8F13B0F7E
:2022000088BF41F00101013F062F88BF41F00101013E1E2E88BF41F00101A07119B9013D2F
:202220000B2D7FF671AF0023012406A88DF818308DF819308DF81A308DF81B408DF81C40B0
:202240008DF81D408DF81E30FFF7B6FE22465BE7246500208A11020854110208B9110208E4
:20226000D7110208F21102081FB564238DF80C008DF80D1000930948022303AAD021FFF734
:2022800041FE40B106481CF0E5F80A201CF0FAF8FFF71AFE012005B05DF804FB24650020CE
:2022A0001012020830B585B0FA250C468DF8080000951048012302AAD021FFF723FE50B114
:2022C0000D481CF0C7F80A201CF0DCF8FFF7FCFD012005B030BD07480095012303AAD0217C
:2022E000FFF732FE08B10548EBE79DF80C302370EFE700BF246500201012020834120208C2
:202300002DE9F3410646084617461D46FFF747FE04463846FFF743FE80462846FFF73FFE78
:2023200007469DF82000FFF73AFEF20744BF64F07F04E4B2B30748BF68F07F08054648BF12
:202340005FFA88F8700744BF67F07F07FFB2310744BF65F07F05EDB2F20644BF45F0400574
:20236000EDB2330623D421460720FFF77DFF48B131481CF06FF80A201CF084F8012002B024
:20238000BDE8F0810DF107010720FFF78BFF08B12A48EEE79DF80700041B18BF0124082695
:2023A00041463046FFF760FF20B12548E1E700240B26F5E70DF107013046FFF773FF08B1F7
:2023C0002048D6E79DF80730434518BF601C06F1010818BFC4B239464046FFF745FF08B1EC
:2023E0001948C6E70DF107014046FFF75BFF08B11648BEE79DF80730BB4218BF601C06F124
:20240000020618BFC4B229463046FFF72DFF08B10F48AEE70DF107013046FFF743FF08B14E
:202420000C48A6E79DF80730AB4201D00A48A0E7201E18BF0120A2E75B1202087F12020887
:20244000A2120208C6120208E91202080D13020830130208541302087713020837B5044625
:202460000D460E206946FFF71DFF40B116481BF0F1FF0A201CF006F8012003B030BD0123B7
:20248000013C03FA04F49DF80030012D06BF43EA0401C9B223EA04010E208DF80010FFF7DA
:2024A000E3FE08B10948E2E701A90E20FFF7FAFE08B10748DBE79DF800209DF804309A427E
:2024C000DBD00448D3E700BF9C130208C6130208ED1302081314020837B504460D460F20FD
:2024E0006946FFF7DFFE40B117481BF0B3FF0A201BF0C8FF012003B030BD631E9DF800205A
:20250000012404FA03F312EA03001AD022EA03010F208DF80010FFF7A7FE08B10B48E4E773
:2025200001A90F20FFF7BEFE08B10948DDE79DF800209DF804309A4201D12C70DBE705486B
:20254000D3E72870D7E700BF3B14020858140208761402089314020813B50C460F2001A9A5
:20256000FFF7A0FE40B107481BF074FF0A201BF089FF012002B010BD9DF8043023F07F034E
:202580002370F7E7B214020813B5044669460E20FFF788FE40B115481BF05CFF0A201BF0A6
:2025A00071FF012002B010BD9DF80010032C9BBF21F01C0141EAC40141F00401C9B20E20E0
:2025C0008DF80010FFF750FE08B10948E4E701A90E20FFF767FE08B10648DDE79DF800209A
:2025E0009DF804309A42DDD00348D5E7D4140208F6140208191502083B15020870B586B08F
:202600000EF050FA0446C8B93348344D324E1BF021FF0A201BF036FF0EF044FA00284FD112
:2026200030461BF017FF0A201BF02CFF01344FF4FA70E4B201F078FA032CEDD9284C294DE9
:20264000002001F071FA2378072B41D04FF4FA7001F06AFA4FF4FA7001F066FA4FF4FA7073
:2026600001F062FA4FF4FA7001F05EFA01231E482B701BF0EFFE0A201BF004FF0EF072F959
:202680001A4AD4F801301360194B1A485B685360237A0493E3790393A379029363790193E3
:2026A00023790093E378A27861781BF0D3FE0A201BF0E8FE2878431E5842584106B070BD8F
:2026C00028461BF0C7FE0A201BF0DCFE0424ADE700232B70D2E700BF5F15020871150208AD
:2026E000586800202C04002081150208D75D0020596800209215020838B5214D00052B8811
:2027000000F57E22B3EB124F16D2020CB3EB104F4FF0000038BF2A8001F006FA002228888F
:2027200011460EF06FFB10B928880EF075FA2B8801332B80022021E0FCD1124C2388B3EBCB
:20274000123F17D200F57020020BB3EB103F4FF0000038BF228001F0E7F9002220881146F6
:202760000EF0B2FA10B920880EF016FA238801332380DFE7DED100202880208038BD00BF1D
:20278000440400204604002038B51C4D00052B8800F57E22B3EB124F11D2B3EB104F4FEAAC
:2027A00010424FF0000038BF2A8001F0BDF928880EF084FC2B8801332B8002201CE0FCD195
:2027C0000F4C2388B3EB123F12D200F57020B3EB103F4FEA10324FF0000038BF228001F06A
:2027E000A3F920880EF040FC238801332380E4E7E3D100202880208038BD00BF60040020BA
:202800006204002030B51B4C0005238800F57E22B3EB122FC1B00D4627D2B3EB102F4FEAEF
:2028200010224FF0000038BF228001F07DF94FF480730022684621880EF0A6FC00226B4605
:20284000104613F8011B0130A94218BF0132B0F5807FF6D122B100232380012041B030BDD2
:202860002388013323800220F8E7FCD100202080F4E700BF2E04002038B5214C0005238852
:2028800000F57E22B3EB124F19D2020CB3EB104F4FF0000038BF228001F046F900222088DC
:2028A00011460EF0AFFA20B1238801332380022004E0144A002323801380012038BDF6D12D
:2028C000104D2B88B3EB123F15D200F57020020BB3EB103F4FF0000038BF2A8001F024F9A5
:2028E0000022288811460EF0EFF90028E1D02B8801332B80DBE7DAD1002020802880DDE7C5
:20290000480400204A0400202DE9F0470023C0B006031A460C464FEA005A314668460EF08C
:2029200033FC04F13903002213F80119202903D11978202908BF5A70A342F5D1671EE94609
:2029400004F138086A463B46002543452AD1002D3CD023466A4604F1380C18685968144643
:2029600003C4083363452246F7D11B78237000224FEA1A34114620460EF0A6F98246D0B10B
:2029800000231A46314668460EF01AFB00231A46314668460EF0F8FB47451BD1003D18BF57
:2029A000012513E012F8011B13F8010F88421CBF0135EDB2C9E720460EF0EEF8524651461A
:2029C00020460EF081F90028DAD10125284640B0BDE8F08719F8013B17F8012F9A421CBF63
:2029E0000135EDB2D8E710B5C0B00C464FF480730103002268460EF0C7FB214604F139005D
:202A00006B460024814202D1002040B010BD13F8012BFF2A14BF0A700C700131F2E72DE924
:202A2000F041C4B001AC0B7823704B7863708B78A370CB78E3700B7923714B7963718B7938
:202A4000A371CB79E3710B7A237200054B7A637200F57E258B7AA3724FEA152800231A4666
:202A6000414604A80EF090FB04AE0023274632462146184611F801EB12F801CBE64518BF4E
:202A8000013003F1010318BFC0B20B2BF2D1002839D094E8070004AB03C323F8022B120C3C
:202AA0001A702D0B0022114628460EF00DF90446F0B100231A46414604A80EF081FA00232C
:202AC0001A4604A841460EF05FFB0023184617F8011B16F8012B914218BF013003F1010352
:202AE00018BFC0B20B2BF2D1003818BF01200AE028460EF051F82246214628460EF0E4F8AE
:202B00000028D6D1012044B0BDE8F08110B50C460105C0B001F57E2168464FF48073002293
:202B2000090A0EF031FB9DF8003023709DF8013063709DF80230A3709DF80330E3709DF8DD
:202B4000043023719DF8053063719DF80630A3719DF80730E3719DF8083023729DF80930E0
:202B600063729DF80A30A372002040B010BD000010B5304C0005226800F580431B0A93423D
:202B8000C0B051D900F58050B2EB102F4FEA10234FF0000038BF236000F0C6FF21684FF454
:202BA0008073002268460EF0EFFA6946002311F8012BFF2A0BD12168FE200DF8030003EBC2
:202BC00001210EF0BDF90020206040B010BD12B3FE2A08D1FC220DF8032021681DF8030015
:202BE00003EB0121EDE7FC2A01D1F822F3E7F82A01D1F022EFE7F02A01D1E022EBE7E02A5F
:202C000001D1C022E7E7C02A01D18022E3E7802AE3D10022DFE70133B3F5807FC7D12368C6
:202C2000013323600220D0E7FCD1002323600120CBE700BF5C04002038B5040504F58054BC
:202C4000240BA51C0022114628460EF03DF808B9280138BD01340022114620460EF034F84D
:202C600008B92001F5E70020F3E70000F0B5314C03050E4603F580422168120A8A42C1B082
:202C8000054652D903F58053B1EB132F4FEA13274FF0000038BF276000F046FF2168002205
:202CA0004FF4807368460EF06FFA6A46002112F8013BFF2B0AD12368DB1B01EB0323DB003F
:202CC000002046F82530206041B0F0BD23B3FE2B194A09D1012313702368DB1B01EB0323AD
:202CE000117801EBC303EBE7FC2B01D10223F2E7F82B01D10323EEE7F02B01D10423EAE7FB
:202D0000E02B01D10523E6E7C02B01D10623E2E7802BE1D10723DEE70131B1F5807FC6D178
:202D20002368013323600220CEE7FCD1002323600120C9E7540400204C04002030B587B032
:202D400013788DF8043053788DF8053093788DF80630D3788DF8073013798DF808305379C8
:202D60008DF8093093798DF80A30D3798DF80B30137A8DF80C30537A8DF80D30937A8DF84F
:202D80000E30D37A8DF80F30137B8DF81030537B8DF81130937B8DF81230D37B8DF8133012
:202DA0001324137C1F4D8DF814306143537C8DF8153001EB0050937C8DF816302A6800F53E
:202DC000804323449A422AD200F58044A2424FF0000038BF2C6000F0A7FE29680B1B1833FB
:202DE0006B4413F8140C0EF0ABF80DF1030029680EF08CF92B681C1B04F118020DEB02046C
:202E00009DF8032014F8141C914217BF002301332B60012004BF2B60022007B030BD0020DE
:202E20002860FAE75804002037B5132461432B4D01EB005000F5804329682344994218D2BD
:202E400000F58044A1424FF0000038BF2C6000F06BFE29680DF107000EF058F92B68204AD9
:202E60009DF807101C1B013311552B60022003B030BD1C4B1120002113F8014BFF2C08BF86
:202E800003F8011C0138F7D1154B197811705978517099789170D978D1701979117159798B
:202EA000517199799171D979D171197A1172597A5172997A9172D97AD172197B1173597B64
:202EC0005173997B9173D97BD173197C1174597C51749B7C93742860C9E700BF5004002041
:202EE0003004002032040020F0B50388D7B00DF10D028DF804301B0A8DF8053043888DF87C
:202F000006301B0A8DF8073003798DF8083043798DF8093083798DF80A30C3798DF80B3030
:202F2000037A8DF80C3000F1290100F1090353F8044B42F8044B8B42F9D1D0F82920CDF8AB
:202F40002D209B88ADF8313000F130030DF1330500F150041A4652F8041B090AA24205F89F
:202F6000011BF8D10DF13B0253F8041B02F8011BA342F9D10DF1430400F1580213F8011B4B
:202F800001F001019A4204F8011BF7D113460DF14B01603013F8012B02F00102984201F850
:202FA000012BF7D100231A4647F6F07116A80EF0EBF801AD16AC002223462946104611F894
:202FC000017B13F8016BB74218BF013002F1010218BFC0B2512AF2D1002839D001A916A8E7
:202FE0001AF0BEFC0022114640F2FF700DF06CFE064600B300231A4647F6F07116A80DF0B1
:20300000DFFF00231A4616A847F6F0710EF0BCF80023184615F8011B14F8012B914218BFB5
:20302000013003F1010318BFC0B2512BF2D1003818BF01200CE040F2FF700DF0ADFD324603
:20304000314640F2FF700DF03FFE0028D2D1012057B0F0BD30B5C1B04FF48073002247F693
:20306000F071044668460EF08FF800236A46194612F8010B0133FF2808BF02F8011C512B75
:20308000F6D19DF801209DF8003003EB022323809DF803209DF8023003EB022363809DF82E
:2030A000053063719DF80630A3719DF80730E3719DF80830237204F109020DF109030DF19E
:2030C000290153F8040B42F8040B8B42F9D1DDF82920C4F829209B88A4F82D3004F1300226
:2030E0000DF12F0504F15003114615F8010B000241F8040B8B42F8D10DF13700156810F84C
:20310000011B294442F8041B9342F7D10DF13F0004F1580210F8011B01F0010103F8011B76
:203120009A42F7D10DF147011346603411F8012B02F0010203F8012B9C42F7D1002041B0B0
:2031400030BD00000248002280210EF049BE00BF000C02400248012280210EF041BE00BF99
:20316000000C024010B5084C0022202120460EF037FE052000F0D8FC20460122BDE8104085
:2031800020210EF02DBE00BF000C024007B5002309488DF80430012240210EF021FE4FF02F
:2031A000FF33012201A9054810F0A8FC9DF8040003B05DF804FB00BF000C024030660020BC
:2031C00007B500228DF80700402107480EF008FE4FF0FF3301220DF10701044810F0ECFA05
:2031E00003B05DF804FB00BF000C024030660020F8B5012205460C460B480C4F40210EF08B
:20320000EFFD04B9F8BDB4F5004F264628BF4FF4004629464FF0FF33B2B2384610F0CCFAF4
:203220003544A41BEDE700BF000C02403066002007B5030A8DF80500022101A88DF80430E7
:20324000FFF7D6FF03B05DF804FBF7B507462A2016460D461C46FFF7B3FF04213B0A0DEB3E
:2032600001008DF80430330A8DF806308DF805708DF80760FFF7BCFF2B20FFF7A1FF2B0AEF
:2032800004218DF804300DEB0100230A8DF805508DF806308DF80740FFF7AAFF2C2003B02B
:2032A000BDE8F040FFF78CBF2DE9F0411C468318B3F5A07F154601EB0403C4BFC0F5A07552
:2032C000ADB2F02BC8BFC1F1F00406460F46C8BFA4B2BDF81880FFF735FF721E7B1E2344C2
:2032E0002A449BB2304692B23946FFF7AEFF0122104840210EF074FD0F4B1A684FEA182699
:203300005FFA88F89CB9BDE8F041FFF723BF167391688807FCD582F80C8091688907FCD58F
:20332000013B9BB2002BF2D1013CA4B2EAE72B46F8E700BF000C02403066002030B5782022
:2033400085B000F0F1FB01224FF0FF3300218348834C10F031FAFFF7F5FEFFF703FF782069
:2033600000F0E2FB0120FFF72BFF782000F0DCFBCB20FFF725FF2068237900900521684653
:203380008DF80430FFF734FFCF20FFF719FFB4F80520E379ADF80020032168468DF80230D3
:2033A000FFF726FFE820FFF70BFF2289A37AADF80020032168468DF80230FFF719FFEA20BC
:2033C000FFF7FEFE002502216846ADF80050FFF70FFFED20FFF7F4FE624B00930421684604
:2033E000FFF706FFF720FFF7EBFE2023012168468DF80030FFF7FCFEC020FFF7E1FE21232B
:20340000012168468DF80030FFF7F2FEC120FFF7D7FE1023012168468DF80030FFF7E8FE01
:20342000C520FFF7CDFE43F6314302216846ADF80030FFF7DDFEC720FFF7C2FEC023012120
:2034400068468DF80030FFF7D3FE3620FFF7B8FE4823012168468DF80030FFF7C9FE3A2039
:20346000FFF7AEFE5523012168468DF80030FFF7BFFEB120FFF7A4FE4FF4D8530221684652
:20348000ADF80030FFF7B4FEB620FFF799FE364B03211A889B78ADF8002068468DF80230C8
:2034A000FFF7A6FEF220FFF78BFE012168468DF80050FFF79DFE2620FFF782FE012168461F
:2034C0008DF80010FFF794FEE020FFF779FE04F10B036A46133418685968154603C50833C9
:2034E000A3422A46F7D1186899889B79AB712860A98068460F21FFF77BFEE120FFF760FE8B
:203500001A4B6A4603F1080518685968144603C40833AB422246F7D1186899889B79A37112
:203520002060A18068460F21FFF762FE1120FFF747FE782000F0F8FA2920FFF741FE3620FC
:20354000FFF73EFE2823012168468DF80030FFF74FFE05B0BDE83040FFF7FCBD30660020F7
:20356000E10F020864031281C3150208C715020882B02DE9F04F85B0DEB2C3F30725144607
:203580000F93721E6B1E0B4402449BB292B2BDF84480BDF84890FFF758FEC72C71D0E72CB1
:2035A00071D0B42C71D0A82C71D0C02C71D0C12C71D0C22C71D0C32C71D0C42C71D0C82CB5
:2035C00071D0C92C71D0CA2C71D0CB2C71D0CC2C71D0CD2C71D0CE2C71D0CF2C71D0D22C1D
:2035E00071D0D32C71D0D42C71D0D52C71D0D62C71D0D92C71D0DA2C71D0DB2C71D0DC2CA7
:2036000071D0E02C71D0E12C71D0E22C71D0E32C71D0E42C71D0E82C71D0E92C71D0EA2C1D
:2036200071D0EB2C71D0EC2C71D0ED2C71D0EE2C71D0EF2C71D0F22C71D0F32C71D0F42CA8
:2036400071D0F52C71D0F62C71D0F92C71D0FA2C71D0FB2C71D0FC2C71D07F2C28BF2024F0
:203660004FEA1923203C01936C434FEA1823009364000027AF4264D305B0BDE8F04F02B031
:2036800070477F24ECE78024EAE78124E8E78224E6E78324E4E78424E2E78524E0E78624A4
:2036A000DEE78724DCE78824DAE78924D8E78A24D6E78B24D4E78C24D2E78D24D0E78E24A6
:2036C000CEE78F24CCE79024CAE79124C8E79224C6E79324C4E79424C2E79524C0E79624C6
:2036E000BEE79724BCE79824BAE79924B8E79A24B6E79B24B4E79C24B2E79D24B0E79E24E6
:20370000AEE79F24ACE7A024AAE7A124A8E7A224A6E7A324A4E7A424A2E7A524A0E7A62405
:203720009EE7A7249CE7A8249AE7A92498E7AA2496E7AB2494E7AC2492E7AD2490E7AE2425
:203740008EE7109B33F804B04FF0000A564505D8002000F0E9F9013702348BE70BFA0AF2D6
:2037600013044ABF009B019B8DF80C304FF0020103A84EBF8DF80D808DF80C308DF80D9042
:203780000AF1010AFFF734FDE0E782B02DE9FF470446BDF83C90BDF840A00D93884615467E
:2037A000DFB2C3F30726FFF7CDFC15F8012B2AB904B0BDE8F04702B0FFF7CCBCE319B3F556
:2037C000A07F0DDB08EB06031FFA83F816FA83F3EF2BEDDC202A18D0002000F0A5F90024E5
:2037E0000E9B8DF834708DF8356015F8012C00932046CDE9019A0D9B4146FFF7B9FE3C44FD
:203800000020A4B200F090F9CFE70024CDE730B4B0F5A07FBDF8085005D2EF2903D8029515
:2038200030BCFFF741BD30BC704707B500210090F0234FF4A0720846FFF736FD03B05DF8B1
:2038400004FBB0F5A07F13B505D2EF2903D800930123FFF7DCFF02B010BDB0F5A07F13B580
:2038600006D2EF2904D8009313460122FFF7CFFF02B010BD2DE9F341B0F5A07FBDF82070D7
:2038800004460D4690461E4620D2EF291ED800970123FFF7BCFFA91942462046009701237A
:2038A00089B2FFF7B4FF33462946204600970122FFF7ADFF04EB080033460122294680B246
:2038C000089702B0BDE8F041FFF7A1BF02B0BDE8F081B0F5A07F13B5144612DAEF2910DCCD
:2038E00080B289B24B1C421C9BB292B2FFF7ADFC230A022101A88DF804308DF80540FFF7F4
:2039000077FC02B010BD2DE9F74FBDF8306007460C4698469146FFF715FC264408EB070B4A
:20392000B6B24FF0000A1FFA8BFBB44218D009EB4A033D4621B20AE033F8022B28B2CDE9F0
:203940000013FFF7C6FFDDE900130135ADB25D45F2D10020013400F0E7F8C244A4B2E4E77B
:2039600003B0BDE8F04FFFF7F5BB2DE9F74FA3EB0109A2EB000AB9F1000FB8BFC9F100098C
:20398000BAF1000FB8BFCAF1000AD145BDF830B004460D46904603DD98460C46134605465F
:2039A000444505DD2A461D461346224644469046A8EB0406B2B200925A1B82EAE271A1EB55
:2039C000E271C6F3C03202FA86F6019176109D42B4BF01274FF0FF37FFF7B4FB444504DD5B
:2039E00003B0BDE8F04FFFF7B5BBD145C7BF21462846294620465A46FFF76BFF019BF61AD8
:203A0000B3B236B2002E04DA009A3D44D6182DB236B20020013400F087F824B2DEE700001E
:203A2000044BC90001F4FC6141EAD20203EA00201043704700F8FFFF2DE9F341089E0F46CB
:203A40001D4614468046FFF77DFB2A20FFF7B8FB1FFA88F0FFF7ECFBA0B2FFF7E9FB2B209D
:203A6000FFF7AEFBB8B2FFF7E3FBA8B2FFF7E0FB2E20FFF7A5FBA4EB0804FFF787FBEB1B41
:203A80000134013314FB03F39BB203EB4305104FADB206EB4304A64205D1FFF75BFB2846C7
:203AA00002B0BDE8F0814FF0FF3301A90322384610F024F89DF806209DF805109DF8040066
:203AC000FFF7AEFF26F8020B002000F02DF8E2E73066002037B5FFF735FB0920FFF770FBC8
:203AE000FFF754FBFFF752FB0546FFF74FFB2D0645EA0044FFF74AFB0546FFF747FB044308
:203B000044EA05200190FFF725FB019803B030BD08B504480FF094FA18B1BDE8084008F02E
:203B200089BC08BDCC65002010B50446FFF7F0FF19F09CF90C4B1B78012B04D00B4B1B68D5
:203B4000093B012B01D819F085F91CB9BDE8104008F0FEB9FFF7DCFF01200DF0E5FB013C10
:203B600019F084F9F1E700BFD8670020C800002008B50B480B4A0C4BC0E9002300234FF4F3
:203B80008042C0E90233C0E90423C0E9063303620EF074FE18B1BDE8084008F04BBC08BD84
:203BA00078650020005C0040801A060070B50E4D0E4E0446012086B028703078012808D00E
:203BC0000A98009020460EF01BFF00232B7006B070BD0020CDE904230391FFF7A5FFDDE9A3
:203BE00004230399E9E700BF145F0020D767002070B50E4D0E4E0446012086B028703078C5
:203C0000012808D00A98009020460EF0D1FF00232B7006B070BD0020CDE904230391FFF715
:203C200083FFDDE904230399E9E700BF145F0020D767002030B585B005250C468DF80C00D2
:203C40008DF80D1016480095022303AAD021FFF7ADFF50B113481AF0FDFB0A201AF012FCCA
:203C6000FFF786FF012005B030BD0D480095012303AAD021FFF79AFF08B10B48EBE708489D
:203C80000095012303AAD021FFF7B2FF08B10748E1E79DF80C30181B18BF0120E3E700BFD1
:203CA00078650020D7150208FB1502081F16020810B5084805230122D0210FF0E9F808B1CE
:203CC000FFF756FFBDE81040024805230122D0210FF0DEB8786500202DE9F04F964B2DED3C
:203CE000028B196885B069B194481AF0B3FB0A201AF0C8FB4FF0020A504605B0BDEC028B10
:203D0000BDE8F08F8E4E8F4D012405231A46D02130460FF0BDF8824670B1214628461AF037
:203D200099FB01340A201AF0ADFBFFF721FF0A2CEBD14FF0010ADFE79FED838ADFF80092C4
:203D4000DFF82882DFF828B204460546064607460020FFF7E9FE3B238DF80C30052300932C
:203D60007748012303AAD021FFF720FF002800F0B68076481AF06EFB0A201AF083FBFFF786
:203D8000F7FE0134E4B2632CE2D907EE907AF8EEE77AC7EE886A07EE906AF8EEE77A87EE81
:203DA000887A07EE905AF8EEE77AC7EE888A9FED688A66EE887A17EE90BA67EE087A17EE15
:203DC000900AFCF7C1FB064658460F46FCF7BCFB68EE887A804617EE900A8946FCF7B4FB83
:203DE00002460B46FCF708FC424604460D464B4640464946FCF700FC22462B46FCF746FA6D
:203E000041EC100B1CF02FFF304653EC102B3946FCF71CFD41EC100B1CF07AFD4D4B51EC05
:203E2000100B0022FCF7E8FB41A3D3E90023FCF70DFD494B804618688946FCF785FB02464B
:203E40000B4640464946FCF71FFAFCF7CDFE324608EE100A3B4630463946FCF7CDFB224611
:203E60002B46FCF713FA41EC100B1CF0FCFE55EC104B8BF00040FCF767FB22462B46FCF70B
:203E8000E5FC41EC100B1CF043FD324B51EC100B0022FCF7B1FB26A3D3E90023FCF7D6FCAA
:203EA0002E4B044618680D46FCF74EFB0B46024629462046FCF7E8F9FCF796FEDFED287AF9
:203EC000284B38EE678A07EE900ABDEEC88AFDEEE77A83ED008A244BC3ED007A0CE71E23B9
:203EE0000093224A0623D0214846FFF781FE08B158463FE7B8F80030DBBA1F44B8F802306F
:203F0000DBBA1E44F0EE087AB8F80430B4EEE78ADBBAF1EE10FA1D4404D5F7EE007A38EE16
:203F2000278A2EE7632C3FF404AF642429E700BF7A008BFCFA2109407C0400204616020884
:203F4000786500207E16020800000000D715020800008038008066406404002068040020DE
:203F60000000B4426C04002070040020740400201F160208000000002DE9F0472DED068B58
:203F80008D4886B01AF066FA0A201AF07BFA8B4B196861B18A481AF05DFA0A201AF072FAC7
:203FA0000224204606B0BDEC068BBDE8F087854F854E092505231A46D02138460EF068FF38
:203FC000044668B13046013D1AF044FAADB20A201AF058FAFFF7CCFD002DEBD10124E0E709
:203FE000DFED7A8ADFF8DCA1DFF808929FED788A05460646074680460020FFF795FD3B23EE
:204000008DF81430052300936E48012305AAD021FFF7CCFD002800F0A0806E481AF01AFAD7
:204020000A201AF02FFAFFF7A3FD0135ADB2B5F57A7FE1D307EE908AF8EEE77A9FED669ABF
:2040400087EEA87A07EE907AF8EEE77A87EEA88A07EE906AF8EEE77A28EE098AC7EEA89A06
:2040600067EE098AFDEEE87A17EE903A002BB8BF5B4207EE903AF8EEE77AE9EE897A17EE18
:20408000900AFCF761FA41EC1A0B18EE100AFCF75BFAB0EE4A1AF0EE6A1A41EC100B1CF0C6
:2040A000E0FD4E4B51EC100B0022FCF7A5FA4C4B0022FCF7A1FABDEEC88A3DA3D3E900237B
:2040C000FCF7C4FBFCF790FD18EE103A002BB8BF5B4208EE103AB8EEC88A0646A9EE898AF1
:2040E00018EE100AFCF730FA41EC190B18EE900AFCF72AFAB0EE491AF0EE691A41EC100BD1
:204100001CF0AFFD354B51EC100B0022FCF774FA344B0022FCF770FA25A3D3E90023FCF7F4
:2041200095FBFCF761FD304B1E60304B054618603046FCF709FA02460B462846CDE9022319
:20414000FCF702FADDE90223CDE9000128481AF081F90A201AF096F923E71E230093254ACA
:204160000623D0215046FFF743FD08B1224855E7B9F80030DBBA9844B9F80230DBBA1F44CD
:20418000B9F80430F4EEC88ADBBAF1EE10FA1E4404D5F7EE007A78EEA78A46E740F2E733DE
:2041A0009D423FF41BAF4FF47A753EE7AFF300807A008BFCFA210940B01602087C040020D5
:2041C0004616020878650020C21602080000000000004843D715020800008038008076402B
:2041E0000000E03F0000E0BF6404002068040020F0160208740400201F160208F0B5284FEA
:20420000284E85B0052500224FF4007138460DF0E7FD3220FFF788FC01224FF40071384673
:204220000DF0DEFD3220FFF77FFC05231A46D02130460EF02DFE08B1FFF79AFC05231A46FE
:20424000D02130460EF024FE68B117481AF002F9013D0A201AF016F9FFF78AFC15F0FF0554
:20426000D1D1012418E06B238DF80C3080238DF80D300523009303AA0223D0213046FFF7E1
:2042800095FC044608B10948E0E70DF047F8084B18602046FFF748FC204605B0F0BD00BF44
:2042A000000402407865002001170208D71502087C0400201FB575238DF80C3000238DF82E
:2042C0000D301A4B196841B119481AF0C3F80A201AF0D8F8022004B010BD0A2415480094DD
:2042E000012303AAD021FFF761FC48B112481AF0B1F820461AF0C6F8FFF73AFC0120EAE757
:20430000052300930B48012303AAD021FFF770FC08B10A48EBE79DF80C106829DBD0084851
:204320001AF098F820461AF0ADF8E7E77C04002046160208786500202B170208511702083F
:204340007A1702082DE9F0412F4C2368054633B12E4E0CF0E3FF2368643898421CD30023D9
:204360002B4E2C4FDFF8BC8023600124FFF7A0FC08B1FFF7FDFBFFF79BFCC0B12648214682
:204380001AF068F801340A201AF07CF8FFF7F0FB0A2CEBD1012035E00020FFF7C5FB21686E
:2043A00030461AF057F80A201AF06CF8D1E7FFF781FF014610B119482146E1E76B20FFF74F
:2043C00039FC014610B121464046D9E71B20FFF731FC014610B121463846D1E71C20FFF7BE
:2043E00029FC10B121463046CAE7012D0AD10C481AF030F80A201AF045F8FFF7BDFD003861
:2044000018BF0120BDE8F0817C040020461602084718020819180208A9170208C917020830
:2044200076180208EC17020807B5F02300210246009308464FF4A073FFF765FA03B05DF80B
:2044400004FB000073B5724DEB7B2BB96B7A1BB92B790BB92B7ACBB16E4B00221A706E4BCC
:204460001E78012E14D16D4A6D4B14781A7814430ED11E700CF052FF6A4B3146186003202D
:2044800007F05AFDEC736C722C712C7202B070BD6A7A6549292AD4B218BF644A4FF0000345
:2044A0001CBF1360624A0B6018BF1370614B1A780AB9614B1A70AB7C012B31D1A4F15903C0
:2044C000092B01D83B3CE4B25C4B19780A4319D1462C17D111460320019207F02DFD584B28
:2044E00058480221196019F0B5FF0A2019F0CAFF019A55484FF480710DF072FC0CF00EFFE7
:20450000524B1860524E33680F2B47D8DFE803F06B6E7146777A7D46685F6244655C7459F9
:20452000A4F154030F2BCFD801A151F823F000BF71450008C944000875450008C944000847
:20454000794500087D450008814500088145000885450008C9440008894500088D45000898
:204560008D4500088D45000891450008954500083824A9E72D24A7E72824A5E74D24A3E729
:204580005124A1E750249FE74F249DE752249BE7492499E74C2497E70AF05EF8462C0AD0BE
:2045A0003368082B04D0062B1EBF2A4B03221A70294B00221A600023EB736B722B712B7280
:2045C00064E70AF0A5FAE9E70AF020FBE6E70AF097FBE3E70AF034FCE0E70AF0EFFCDDE755
:2045E0000AF0A2FDDAE70AF03BFED7E70AF0BEFFD4E70BF07BF8D1E70BF034F9CEE70BF000
:204600004BF9CBE70BF024FCC8E70BF069FCC5E7F9540020AD670020F2630020F363002042
:20462000F4630020F8630020205F0020D86D00200B6E00203664002034860020D9670020F7
:20464000006800209B180208000C0240DC670020C80000206B6700202055002030B5094ABD
:2046600001F1C60314685D1AAC4206DB08551368C52B9CBF0133136030BD13F8014D5C70E1
:20468000F0E700BF1055002070B5984A0546537A167A1179D47B907892790128DBB2F6B206
:2046A000C9B2E4B2D2B201D0012A5CD14F2B23D004D8062B17D0192B1BD070BD502BFCD137
:2046C0008B4908680028F8DD8A4B1B689842FDD12B182A5C13F8013C203B18BF012302B977
:2046E00001382A1825E084482946BDE8704019F085BF81492846F8E77D4A11680B46184657
:2047000001332C5C14F0DF0F01D0C528F7D9284440780028D1D0C52BCFD8764800688842E9
:20472000FDD11360C9E71478202C00F1FF3000D10133C643012B4FEAD676C8BF002612F81A
:2047400001490EB1002CEED1002803DA684B00221A60B2E7431C28444278002AADD0C52B5C
:20476000ABD80B60A9E72F2B1BD1644C012E206801D001290CD110B9602323609DE7C0B271
:204780002946FFF76BFF6020FFF768FF0023F4E708B9B423F1E7C0B22946FFF75FFFB420F6
:2047A000F2E7342B17D1554C012E206801D0012908D108B95E23E0E7C0B22946FFF74EFF80
:2047C0005E20E1E708B97E23D7E7C0B22946FFF745FF7E20D8E7012E01D001290CD1232BA6
:2047E0000AD1464C206808B9A823C6E7C0B22946FFF734FFA820C7E72A2B12D13C4B1968CB
:20480000481EC5283FF659AF3A4A12689142FDD11860C1F1C80229442844BDE8704019F03E
:20482000ADB84C2B09D1324B1868C728C0F1C70200F1010188BF0022EDE7A4F120025F2AEC
:2048400000F2FE802D4E3368002B00F0F480602B33D1412C00F09780452C00F09680492C54
:2048600000F095804F2C00F09480552C00F09380612C00F09280652C00F09180692C00F08A
:2048800090806F2C00F08F80752C00F08E8029466020FFF7E3FE29462046FFF7DFFE00233E
:2048A0003360174819F0D6FD2146164819F0D2FDBDE870400A2019F0E5BDB42B24D1412C22
:2048C00075D0452C75D0492C75D04F2C75D0552C75D0612C75D0652C75D0692C75D06F2C80
:2048E00075D0752C75D02946B420D2E7F95400201055002014550020906100208804002059
:20490000A4180208AD1802085E2B16D1412C62D0452C62D0492C62D04F2C62D0552C62D049
:20492000612C62D0652C62D0692C62D06F2C62D0752C62D029465E20ABE77E2B0AD1412C1E
:204940005DD04F2C5DD0612C5DD06F2C5DD029467E209EE7A82B9ED1412C58D0452C58D0FE
:20496000492C58D04F2C58D0552C58D0612C58D0652C58D0692C58D06F2C58D0752C58D097
:204980002946A82085E7C02485E7C82483E7CC2481E7D2247FE7D9247DE7E0247BE7E82447
:2049A00079E7EC2477E7F22475E7F92473E7C12471E7C9246FE7CD246DE7D3246BE7DA2434
:2049C00069E7E12467E7E92465E7ED2463E7F32461E7FA245FE7C2245DE7CA245BE7CE2471
:2049E00059E7D42457E7DB2455E7E22453E7EA2451E7EE244FE7F4244DE7FB244BE7C324B4
:204A000049E7D52447E7E32445E7F52443E7C42441E7CB243FE7CF243DE7D6243BE7DC2471
:204A200039E7E42437E7EB2435E7EF2433E7F62431E7FC242FE729462046FFF70FFE30E781
:204A40004F2B0ED13149324A0B681268E85C28B1C52B03D89342FDD1013382E69342FDD150
:204A600074E6502B13D12949294A0B681068002B0BDD8342FDD1013B73E60132AC5C002C0B
:204A8000FBD18342FDD10A6017E60022F6E7522B0CD11E491E4A0B6812681B2B03DD934240
:204AA000FDD11C3B5DE69342FDD14FE6512B19D1002300E00133EA5C002AFBD113490A680F
:204AC00002F11C00984208DA1B2A3FF7F6AD104B1B689A42FDD10860EFE50D4800688242A8
:204AE000FDD13EE64B2B3FF431AE4E2B7FF4E5AD002300E00133EA5C002AFBD1044A106885
:204B0000024A11688842FDD10BE600BF10550020145500201F48016801BB1F4B1A6812B937
:204B200005221A607047052A02D11B4B0622F8E7062A01D10822F4E7082A01D10922F0E7A1
:204B4000092A01D10B22ECE70B2A01D10C22E8E70C2A1ED10122026019607047012918D15F
:204B60000D4B1A68002AF7D0012A01D10322D8E7032A01D10422D4E7042AD6D0062A01D1D3
:204B80000722CEE7072A04D1044A117000221A6002607047E0040020DC040020CC040020B9
:204BA00013B519234CF21864194618460094FA22FEF72DFE192318460094FA22BE21FEF78C
:204BC00026FE1922104600948C233221FEF71FFE00948C2319223221FA20FEF718FE50230F
:204BE00019460094192240F21310FEF710FE3C210846009478231C22FEF709FE00947823EC
:204C00001C223C216220FEF702FE009478231C223C218820FEF7FBFD009478231C223C2159
:204C2000AE20FEF7F4FD009478231C223C21D420FEF7EDFD002002B010BD00002DE9F04737
:204C4000DFF88491574AD9F80030574E52F82310564C574FDFF874814FF620524FF6E0753F
:204C6000002918BF1546590106EB431386B09A7D012A74D193F818A0BAF1000F6FD106F147
:204C8000080201EB020C8858DCF8041004AB03C3484904A8FCF748FC6368464A0093CDE9BB
:204CA000015A236869218B20FEF76FFD3B78414F002BD9F8003006EB431318BF4FF0430A5F
:204CC000186908BF4FF0460AFBF73EFCCDF800A00B4602463849384619F070FCD9F800305E
:204CE0009FED367A06EB4316D6ED047A98F80030F4EEC77AF1EE10FA11DB012B01D12C23E8
:204D0000FB70CD200023CDE9015363680093294A23687D21FEF739FD06B0BDE8F087B2EE77
:204D2000047AF4EEC77AF1EE10FA05DB012B01D12C23BB70D820E5E7F5EEC07AF1EE10FAC7
:204D400005DD012B01D12C237B70E320DAE7BAEE047AF4EEC77AF1EE10FAE7DDF1E76368DC
:204D6000174A00930026236869218B20CDE90156FEF70BFD98F8003012490E48012B3B78FF
:204D800014BF2E222C22B34214BF4323462319F015FC63680093CDE901562368054A7D210E
:204DA000E320B7E7A05F0020E05D00203C0000203001002084550020BD1802080000C84247
:204DC000C5180208D61802089404002035640020F0B40D2101FB00F3164C1749174D94F810
:204DE00004C005F803C01944EA1800236779A679A5784B7164788B71CB710B724B7210492E
:204E000057709670D570147153719371D3711372537201220A7081F801C08F70CE700D7113
:204E20004C718B71CB710B724B728B72F0BCC0B2FDF7F5BD1D68002020630020886300202F
:204E4000286400202DE9F041DFF860E01549164A0D2444430EEB04031EF804404C705C78E8
:204E600092F804C05779967995788C7052789C7883F805C09F71DE711D725A724FF00008DD
:204E8000CC70DC781B7981F800800C714B7181F806C0CF710E724D728A72BDE8F041C0B2BA
:204EA000FDF7BDBD286400201D6800208863002030B5164B164C197801EB410301EB83014F
:204EC000144B1A68144B53F8225085B09DB1134B1348194419F072FB00234FF62052CDE936
:204EE0000132636800930E4A23682D21B420FEF74CFC05B030BD0B4B0948194419F05EFBD7
:204F00004FF6E073CDE90153EBE700BF5E6700203C00002094040020A05F0020812E02088D
:204F200084550020052F020830B5154B154C197801EB410301EB8301134B1A68134B53F8DA
:204F4000225085B09DB1124B1248194419F036FB002302934FF620530193636800930D4A55
:204F600023682D21B420FEF710FC05B030BD0A4B0848194419F022FB02954FF6E073EBE7B8
:204F80005E6700203C00002094040020A05F0020A82E0208845500202C2F02082DE9F04372
:204FA000DFF880801E4E87B00F460524002518F8013B8DF81550002B08BF20238DF81430A0
:204FC0007368009320463368CDE9017505AAB9210B34FEF7DAFBA4B240F239139C42E6D13B
:204FE000DFF8449005254FF0000819F8013B8DF81580002B08BF20238DF8143028467368E7
:2050000000930B35CDE90178336805AACD21ADB2FEF7BBFBA542E8D107B0BDE8F08300BF1E
:205020003C0000205862002074620020494B2DE9F0411F68484D0D237B438AB0EB5C632B50
:205040009FBF4FF00A0CB3FBFCFCCCEB4C12CCEB820298BF03EB42034FF00D0202FB075279
:2050600088BF002351788CBF9C46DBB263299FBF0A22B1FBF2F2C2EB4210C2EB800098BF1A
:2050800001EB40014FF00D0000FB075088BF002180788CBF0A46C9B263289FBF4FF00A0E8F
:2050A000B0FBFEFECEEB4E14CEEB840498BF00EB44004FF00D0404FB075488BF0020E478FA
:2050C0008CBF8646C0B2632C9FBF0A26B4FBF6F6C6EB4618C6EB880898BF04EB48044FF06E
:2050E0000D0808FB075588BF00242D7994BFE4B22646632D9FBF0A27B5FBF7F7C7EB471808
:20510000C7EB880898BF05EB4805DFF8608098F800808ABF0025EDB22F46B8F1010F0CBFEC
:20512000CDE90021CDE900C3CDE902E015BF0B460A490B49624605A819F040FACDE90175F7
:2051400008490094334605AA074819F037FA0AB0BDE8F0819404002088630020E118020823
:20516000F0180208FF1802088455002033640020354B2DE9F0411B68344E0D2202FB0366EB
:205180008AB03379632B53D80A257179B1FBF5FCCCEB4C13CCEB830301EB4301B379B3FB5D
:2051A000F5F2C2EB4210C2EB800003EB4003F079B0FBF5FECEEB4E14CEEB840400EB440019
:2051C000347AB4FBF5F7C7EB4718C7EB8808767AB6FBF5F504EB4804C5EB4518C5EB880820
:2051E00006EB4806C9B2DBB2C0B2E4B2F6B2DFF8708098F80080B8F1010F0ABFCDE9002386
:20520000CDE900C10B46CDE902E00ABF10491149624605A819F0D2F9CDE901560E49009491
:205220003B4605AA0D4819F0C9F90AB0BDE8F081002427462046A646234622462146A44649
:2052400026462546D3E700BF9404002088630020E1180208F0180208FF180208845500200C
:20526000336400201FB50D4B0D4C1A780D4B0E4903EB0212204619F0A1F94FF4FC620021E4
:20528000CDE90121094B5A6800921B6822465F210320FEF77AFA04B010BD00BF5E67002072
:2052A00084550020C42302080C1902083C0000201FB50D4B0D4C19780D4A0E4B02EB0112B3
:2052C0001B680D49204619F079F91F220021CDE901210A4B5A6800921B6822465F210320A3
:2052E000FEF753FA04B010BD5E67002084550020F423020814640020171902083C000020BE
:20530000F0B5234F234C3A78234B244D244985B003EB0212204619F051F900264FF47843F5
:20532000CDE901366B68009322462B685F210320FEF72BFA39781B4B01EB810103EB81016D
:20534000204619F05BF94FF6205301936B68009322462B68029691210320FEF716FA3978BA
:2053600001EB410301EB83010F4B2046194419F045F94CF2186301936B68009302962B684B
:205380002246C3210320FEF700FA05B0F0BD00BF5E67002084550020F42302083C00002033
:2053A000301902082424020860240208F0B5194F194C3A78194B1A4D1A49C2EBC20285B0C2
:2053C00003EB4202204619F0F9F800264FF4FC63CDE901366B68009322462B685F21032082
:2053E000FEF7D3F9397801EB410301EB83010E4B2046194419F002F94CF2186301936B685B
:20540000009302962B682246C3210320FEF7BDF905B0F0BD5E670020845500202B2302081C
:205420003C00002046190208552302081FB50E4B0E4C1A780E4B0F49C2EBC20203EB4202B8
:20544000204619F0BBF84FF4FC620021CDE90121094B5A6800921B6822465F210320FEF765
:2054600094F904B010BD00BF5E670020845500207C230208461902083C0000201FB50E4BE6
:205480000E4C1A780E490F4B02EB820201EB42021B680D49204619F091F81F220021CDE9E5
:2054A00001210A4B5A6800921B6822465F210320FEF76BF904B010BD5E67002084550020DB
:2054C000A623020814640020541902083C0000202DE9F04F0D234343574FF95C63299FBF9E
:2054E0004FF00A0CB1FBFCFCCCEB4C13CCEB830398BF01EB43014FF00D0303FB007388BFD2
:2055000000215B788CBF8C46C9B2632B98BF0A2204469FBFB3FBF2F2C2EB4210C2EB800088
:2055200003EB40034FF00D0000FB047088BF002380788CBF1A46DBB263289FBF4FF00A0EA5
:20554000B0FBFEFECEEB4E15CEEB850598BF00EB45004FF00D0505FB047588BF0020AD7A66
:205560008CBF8646C0B2632D9FBF4FF00A08B5FBF8F8C8EB4816C8EB860698BF05EB4605E1
:205580004FF00D0606FB047688BF0025F67A94BFEDB2A846632E9FBF4FF00A09B6FBF9F99E
:2055A000C9EB491AC9EB8A0A98BF06EB4A064FF00D0A0AFB047788BF00263F7B94BFF6B2FC
:2055C000B146632F9FBF4FF00A0AB7FBFAFACAEB4A1BCAEB8B0B98BF07EB4B07DFF86CB0F8
:2055E0009BF800B08FB08ABF0027FFB2BA46BBF1010F0DF1240B0ABFCDE90023CDE900C106
:205600000B46CDE902E00ABF0C490D496246584618F0D4FF631CCDE905A7CDE90396CDE926
:2056200001850849CDF800B01A46074818F0C6FF0FB0BDE8F08F00BF20630020E11802085A
:20564000F018020868190208845500203364002070B506460D460020A84201DB012009E049
:20566000345C54B92A1A22EAE2722021304418F09FF920460023735570BD0130ECE7000012
:205680002DE9F04F98464FF00B0992FBF9F909F1060385B023F00703144604AFADEB030DFB
:2056A0000A2C0DF1100B09F1FF320546D8BF00220E465846B96AB7F82CA018F051F9B9F1E0
:2056C000010FACBF0BEB09030BF10103ADB2B6B2A4B24FF0000203F8012C3146224628467A
:2056E000CDF800A0142306F11409FEF790F81FFA88F81FFA89F9A21E681C002300934946C0
:20570000434692B280B2FEF782F83A8E144BCDF808A001925A680092B11CE81C5A461B68AC
:2057200089B280B2FEF731F808F11301314453462246284689B2FEF784F82846013D5346FC
:20574000424649462544FEF788F8534642464946A8B2FEF782F80437BD46BDE8F08F00BFBA
:205760003C0000202DE9FF47744E754A3178754B754C01EB810102EB8101184618F03EFF46
:205780002278012A0ED10C224CF21861CDE901210090C8234FF4A07214210020FFF770FF1E
:2057A000002323703378DFF8E491684A6548684C684F03EB430102EB410209EBC3036649A7
:2057C00018F0FCFE4CF218650023CDE901536368009323685B4A2D210520FDF7D6FF009580
:2057E000152340F2371240210420FEF743F842F2041300934FF49B72142341210520FEF760
:2058000006F8F97830783B79544A97F806C07D79002900F08E800139CDE9005C01EBC001B4
:2058200002EB81024CF2186542F2041A4C494D4818F0C4FECDE9015A636800932368494A6A
:2058400041210520FDF7A1FF3278474B47493D4802EB42024FF0000803EB420218F0AEFE7E
:20586000CDE90158636800932368364A96210520FDF78BFF0095152340F23712A921042020
:20588000FDF7F8FFCDF800A014234FF49B72AA210520FDF7BCFF3B78BA78009334497B78AA
:2058A000344818F08BFECDE9015A636800932368304AAB210520FDF768FF32782E49214891
:2058C00009EBC20218F07AFECDE901586368009323681C4A5F210520FDF757FF3278274B27
:2058E00027491848C2EB02121A4418F067FECDE90158636800932368124A78210520FDF746
:2059000044FF32781F4B20490E4802EB420202EBC2021A4418F052FECDE90158636800936C
:205920002368084AD2210520FDF72FFF04B0BDE8F087CDE9005C02EB401273E75E670020F0
:20594000412502088455002027000020872402083C000020FC63002086190208063102081D
:2059600099190208CD0400202F250208AC190208421E0208E4040020BB19020802250208CC
:20598000C5190208B1240208491C0208992402082DE9F04F2DED028B0C4695B000293DD140
:2059A000002828DD0C234CF21862CDE90132154D154A2B7803EB830302EB830300934FF4C9
:2059C000A072C82314212046FFF75AFE0F4B2A780F49104803EB021218F0F0FD0E4B02944F
:2059E0004FF6FF7201925A6800921B68094A2D210620FDF7CAFE204615B0BDEC028BBDE8FE
:205A0000F08F00BF5E670020BE30020858300208CF190208845500204C000020012940F028
:205A2000C381BB4BBB4FDFF81493069300252C46D7ED047ABDEEE78AB8EEC87A77EEC77A78
:205A400017EE900AFAF780FDAFA3D3E90023FAF7D3FDFBF781F80DAA079007F1080100236A
:205A60001046013311F8016B02F8016B082BF8D1069B13F9016B06930DF13C084146002E1C
:205A800040F03181FBF750FD8DF84A60079BA2490193013543468DED008A2A46484618F0CC
:205AA0008DFDFB7D9D4E012B31780DF1240B40F01F819B4B584603EB810118F07FFD4FF46C
:205AC000FC6ABA7D3378012A4FEA830340F05C8193490BA8194418F071FD924B924A1B78D9
:205AE000127892498DED028A012B14BF2E232C23002A14BF432246220592079ACDE900B82C
:205B0000CDE9033248460BAB2A4618F057FDCDE901A4DFF87082C5EB0511D8F80430009309
:205B20002D31D8F800304A4689B20E20FDF72DFE082D07F120077FF47BAF33787C4A02EBA0
:205B4000C3027C4B06921868FAF7FEFC4FF6FF75CDE90001069A7849784818F02FFD01955B
:205B60000294D8F804300093D8F80030734AB4210E20FDF70AFE327802EB820302EB4302EE
:205B80006F4B1A446F4B06921868FAF7DDFC069ACDE900016C49694818F010FDCDE9015474
:205BA000D8F804300093D8F80030644AB4218C20FDF7EBFD32786549654B60481B68C2EB63
:205BC000C2020A44634918F0F9FCCDE90154D8F804300093D8F80030584AC3210E20FDF7C0
:205BE000D4FD5D4B5D491A68544818F0E7FCCDE90154D8F804300093D8F800304F4AC3215E
:205C00008220FDF7C2FD56494C4818F0F7FCCDE90154D8F804300093D8F80030474AC321EA
:205C2000C820FDF7B2FD4F4B1D78002D40F0B4804D49424818F0E2FC02954FF4FC63019346
:205C4000D8F804300093D8F800303C4AC32140F21310FDF79AFD454A454993680093D2E9FD
:205C6000002300244FF6FF75344818F0A7FCCDE90154D8F804300093D8F800302F4AD221EF
:205C80000E20FDF782FD3B4A3B49137A0593D3790493937903935379029313790193D378E4
:205CA000009393782548527818F088FCCDE90154D8F804300093D8F80030204AE1210E2047
:205CC000FDF763FD2D491D4818F098FC4FF6E07302940193D8F804300093D8F80030174A3F
:205CE000E121D92085E604F0BDFD8DF84C40CDE6234B584603EB810118F060FC4FF6E07A4D
:205D0000DFE600BFAFF30080000000000088C340F2670020E05D0020ED1902085E67002087
:205D2000FA3002083564002030010020FD1902081F300208EC5E00201E1A02088455002007
:205D4000373002080C5F0020281A02080A3002086C040020321A0208700400203F1A0208DA
:205D6000481A0208F2630020C26C020828680020571A020858680020721A02089D1A0208A8
:205D8000883002084C00002009490BA8194418F015FC4FF4784AA0E60649074818F02EFCFF
:205DA00002944FF478434AE7022918BF002422E688300208531A020884550020F0B57F4B4F
:205DC0007F4D1A787F49804F804E3B78804CC2EBC20285B001EB420228467E4918F0EEFB85
:205DE0000C234CF21861CDE901314FF4A072C823142100200095FFF743FC7749284618F040
:205E0000FDFB3378002B40F0C48002934FF6FF732A460193714D636800932D2123680620D5
:205E2000FDF7B3FCB5F90000FAF77CFB6C4B0022FAF70CFDFAF7D8FEFAF786FB0B46024604
:205E400068495F4818F0BAFB3378002B40F0AF803A786549013A31F91210B5F90020914270
:205E600040F09C804FF4FC620292019363680093534A23682D216620FDF787FC3A785B4BE4
:205E800003EB421313F8093C012B10D158494C4818F0B4FB00234FF47842CDE901326368A2
:205EA0000093474A23682D21DC20FDF76EFC5149434818F0A3FB3378414A012B4FF000031C
:205EC00002930CBF4FF6FF7348F21043019363680093412123680620FDF757FC464B1B78AE
:205EE000002B69D14549364818F088FB3378012B0CBF4FF61F0248F210420023CDE9013206
:205F0000636800932E4A236841216620FDF73DFC48F21045002663680093CDE90156236860
:205F2000374A69210620FDF730FC63680093CDE901562368334A7D210620FDF726FC6368F8
:205F40000093CDE9015623682F4A91210620FDF71CFC63680093CDE9015623682B4AA52188
:205F60000620FDF712FC63680093CDE901562368274AB9210620FDF708FC63680093CDE986
:205F800001562368234ACD210620FDF7FEFB05B0F0BD0023029348F2104339E702DA4FF6C9
:205FA000E07261E77FF76AAF4FF620525CE748F210430293002358E7174994E75E6700207A
:205FC000845500209430020805000020245500203C000020AB1A0208B51A02087255002051
:205FE00000002440BD1A0208E2670020E05D0020C41A0208CD1A020874550020D31A0208DD
:20600000E21A0208F11A0208091B0208211B0208381B02084E1B0208DB1A02082DE9F04FCD
:206020007E4C7F4D2378012B85B009D128687D4B392101FB0031C0B2FCF766FC0023237098
:20604000794B7A4F1A78012A1BD13A78784E794900241C702B6802EBC20201EB4202013378
:206060007549304618F0AAFA0C234CF21860CDE901300096C8234FF4A07214212046FFF70D
:20608000FFFA4CF218630021CDE901316B4C3A7863686B490093DFF8CCB12368DFF8C8A1AB
:2060A00002EB02120A4405202D21FDF76EFBDBF80030BBB93A7802EB420102EB8102296867
:2060C0005AF82110002940F09D804FF4FC63CDE901136368009323685A490A44B4202D215F
:2060E000FDF753FB00264CF21868CDE901863A7863685549009302EB820201EB4202236863
:2061000041210520FDF741FBCDE901863A7863684E49009302EB420201EB42022368552182
:206120000520FDF732FB28685AF820304FF620524FF6E079B34218BF9146C0B2FEF776FF13
:20614000CDE90196636800932368394A41219F20FDF71BFB2878FFF70BF8CDE901966368AA
:2061600000932368324A55219F20FDF70EFBCDE90186636800932368354A69210520FDF70B
:2061800004FBCDE90186636800932368314A7D210520FDF7FAFAFEF751FDCDE901863A7882
:2061A00063682D490093C2EBC202236801EB82020520A521FDF7E9FADBF800305BBB4FF67F
:2061C0002053009340F237122923B7210420FDF751FB2868214C5AF820104FF620534FF63A
:2061E000E07200290CBF11461946FEF7D7FE2378012B04D12868FEF725FE0023237005B02A
:20620000BDE8F08F4FF6E071CDE90131636800932368134961E748F21043D2E76E55002026
:2062200094040020C85F0020270000205E67002084550020CF2E0208691B02083C00002049
:20624000A72F0208052F0208DA2F0208F82F02086F1B02087A1B0208532F02086F55002039
:20626000812E020808000020A05F00202DE9FF41DFF82883D8F80030042B54D1AE4BAF4A00
:206280001B68D65C002E42D1AD4FAE4C3978AE4BAE4DC1EBC10103EB8101204618F0AEF97A
:2062A0004FF620534FF4A072CDE900431421C82330460296FFF7E4F93978A54B01EB410108
:2062C000C1EBC1011944204618F098F94CF218684FF47843CDE901836B68009322462B689D
:2062E00078210520FDF751FA39789A4B01EB01111944204618F082F9CDE901866B68009324
:206300002B682246D7210520FDF73FFA05E0924B01221A60914B03221A70914B01221A70C5
:2063200004B0BDE8F081864D884C29789A1E012A00F29080834E8B4B01EB011119443046EE
:2063400018F05CF900274FF620534FF4A072CDE901371421C82338460096FFF791F9297869
:20636000814B01EB410103EBC101304618F046F94CF218630297019363680093236832466F
:2063800050210520FDF701FA784A2B781268012A4FEAC30340F0B38075496A48194418F037
:2063A0002DF900264FF47843CDE90136636800932368644A78210520FDF7E7F96D4B297824
:2063C000604803EBC10118F0F9F802964CF2186301936368009323685A4A78219B20FDF7B2
:2063E000D4F9654B297857481A2201FB02314CF21866002718F002F9CDE901676368009313
:20640000504A2368A0210520FDF7BFF929785B4B4C48C1EBC10103EB810118F0EFF8CDE967
:20642000016763680093474A2368B4210520FDF7ACF929784348C1EBC10301EB8301504B40
:20644000194418F0DBF8CDE901676368009323683C4A57E7012B97DC4A4B3A4E01EBC101CF
:2064600003EB4101304618F0C9F800274FF62053CDE9013714210096C8234FF4A072384657
:20648000FFF7FEF82978D8F8008001EB4101C1EBC101B8F1000F0FD13B4B3046194418F08A
:2064A000ADF84CF21863CDF80880019363680093236832465A2164E7344B4CF218681944DC
:2064C000304618F09BF80297CDF8048063680093324623685A210520FDF757F929782C4B6C
:2064E00001EB410103EBC101304618F087F8CDE9018763680093236832463C2141E725492F
:206500001048194418F05AF800264CF21863CDE901366368009323680A4A78210520FDF7B1
:2065200034F91D4B2978074803EBC10118F046F802964FF478434BE794040020585F002089
:206540005E670020845500205E2002083C000020B2200208F1200208C80000206B670020A8
:2065600027000020501F020824210208C45F0020682202088022020898220208831F020819
:20658000072002086C210208A2210208E121020820220208D71F0208EF1F0208C05F0020B7
:2065A0002DE9F043BF4DC04B2978C04A01EB810101EB8101114418469DB018F01FF8BC4ACF
:2065C0001178012903460DD1002010704CF218611F22CDE9012100934FF4A072C823142169
:2065E000FFF74EF82B78002B40F0B281B149AE4818F004F84FF4FC63AF4C0022CDE9013292
:2066000063680093A84A23682D210520FDF7BDF82B78012B40F0A381A849A34817F0EEFF90
:206620004FF4FC630022CDE90132636800939E4A236846210520FDF7A8F82B78022B40F0BC
:2066400095819F49984817F0D9FF4FF4FC630026CDE901366368944A00935F212368994F99
:206660000520FDF792F8984B29788F4803EBC10117F0C4FF4FF6E073019363688A4A009344
:206680002D21236802969F20FDF77FF82B788F4A397803EBC3031A44002940F06E818C4903
:2066A000814817F08BFF4FF4FC630022CDE9013263687D4A0093462123689F20FDF765F8AC
:2066C0003B78844A012B2B7803EBC3031A4440F05B817F49744817F071FF4FF4FC63002689
:2066E000CDE901366368704A00935F212368DFF804929F20FDF749F82978774B6A4801EB28
:20670000410103EB810117F079FF4FF6E073019363680093644A236802967D210520FDF736
:2067200034F899F80030002B40F035816B495E4817F064FF4FF4FC630022CDE9013263681F
:206740000093594A236896210E20FDF71EF899F80030012B40F026816149534817F04EFF2C
:206760004FF4FC630026CDE9013663684E4A0093AF212368DFF880810E20FDF706F829787A
:20678000584B494801EBC101194417F037FF4FF6E073019363680093434A236802967D21A5
:2067A0009F20FCF7F2FF98F80030002B40F001814D493D4817F022FF4FF4FC630022CDE9DC
:2067C000013263680093384A236896219F20FCF7DCFF98F80030012B40F0F2804349324843
:2067E00017F00CFF4FF4FC630026CDE9013663682D4A0093AF2123689F20FCF7C6FF1623F2
:2068000098222A2104200096FDF734F816239822432104200096FDF72DF8162398225C21FF
:2068200004200096FDF726F816239822932104200096FDF71FF816239822AC2104200096A6
:20684000FDF718F816239B2243219C200096FDF711F816239B225C219C200096FDF70AF8D0
:2068600016239B2293219C200096FDF703F816239C2000969B22AC21FCF7FCFF1C4B187833
:20688000002840F0A4804FF478430093982216232A210420FCF7EEFF29780348C1EBC1034D
:2068A0002CE000BF5E670020845500207D25020827000020881B02083C000020A01B02086E
:2068C000B81B020833640020C825020876260208D41B020891260208E0250208E21B0208B7
:2068E000F41B020804260208061C0208141C020860670020356400203001002001EB830184
:20690000584B194417F07AFE4CF218630022CDE901326368544A0093D22123680320FCF7A4
