:020000040800F2
:200000000000022069FA000851EE000871EE000895EE0008B9EE0008DDEE00080000000098
:2000200000000000000000000000000001EF000803EF00080000000005EF00081DEF0008BE
:20004000B9FA0008B9FA0008B9FA0008B9FA0008B9FA0008B9FA0008CDEF0008B9FA0008BF
:20006000B9FA0008B9FA0008B9FA0008B9FA0008B9FA0008B9FA0008B9FA0008B9FA0008A8
:20008000B9FA0008B9FA0008F1EF0008B9FA0008B9FA0008B9FA0008B9FA0008D3EF00084C
:2000A000B9FA0008B9FA0008B9FA0008B9FA0008B9FA0008B9FA0008B9FA0008B9FA000868
:2000C000B9FA0008B9FA0008B9FA0008B9FA0008B9FA000815F00008B9FA0008B9FA0008F6
:2000E000E7EF0008B9FA0008B9FA0008B9FA0008B9FA0008B9FA0008B9FA0008B9FA000805
:20010000B9FA0008B9FA0008B9FA0008B9FA0008B9FA0008B9FA0008B9FA000821F00008A9
:20012000B9FA0008B9FA0008B9FA0008B9FA0008B9FA0008B9FA0008B9FA0008B9FA0008E7
:20014000B9FA0008B9FA0008B9FA000879F00008B9FA0008B9FA0008B9FA0008B9FA000811
:20016000B9FA0008B9FA000891F0000895F00008B9FA000885F00008B9FA00080000000000
:20018000B9FA0008B9FA0008FFFFFFFFFFFFFFFF10B5054C237833B9044B13B10448AFF353
:2001A00000800123237010BD0804002000000000F8E7010808B5034B1BB103490348AFF317
:2001C000008008BD000000000C040020F8E70108034613F8012B002AFBD1181A013870472A
:2001E00001F0FF01102A2BDB10F0070F08D010F8013B013A8B422DD010F0070F42B3F6D1C5
:20020000F0B441EA012141EA014122F007047FF000070023F0E80256083C85EA010586EA71
:20022000010685FA47F5A3FA87F586FA47F6A5FA87F68EB9EED1F0BC01F0FF0102F007026C
:2002400032B110F8013B013A83EA010313B1F8D10020704701387047002D06BF35460338CF
:20026000073815F0010F07D1013015F4807F02BF013015F4C03F0130F0BC0138704700BF93
:2002800081F0004102E000BF83F0004330B54FEA41044FEA430594EA050F08BF90EA020F8D
:2002A0001FBF54EA000C55EA020C7FEA645C7FEA655C00F0E2804FEA5454D4EB5555B8BF63
:2002C0006D420CDD2C4480EA020281EA030382EA000083EA010180EA020281EA0303362D1A
:2002E00088BF30BD11F0004F4FEA01314FF4801C4CEA113102D0404261EB410113F0004F84
:200300004FEA03334CEA133302D0524263EB430394EA050F00F0A780A4F10104D5F1200EC1
:200320000DDB02FA0EFC22FA05F2801841F1000103FA0EF2801843FA05F359410EE0A5F109
:2003400020050EF1200E012A03FA0EFC28BF4CF0020C43FA05F3C01851EBE37101F0004515
:2003600007D54FF0000EDCF1000C7EEB00006EEB0101B1F5801F1BD3B1F5001F0CD349088F
:200380005FEA30004FEA3C0C04F101044FEA445212F5800F80F09A80BCF1004F08BF5FEA6E
:2003A000500C50F1000041EB045141EA050130BD5FEA4C0C404141EB0101013C28BFB1F5E7
:2003C000801FE9D291F0000F04BF01460020B1FA81F308BF2033A3F10B03B3F120020CDA82
:2003E0000C3208DD02F1140CC2F10C0201FA0CF021FA02F10CE002F11402D8BFC2F1200C96
:2004000001FA02F120FA0CFCDCBF41EA0C019040E41AA2BF01EB0451294330BD6FEA0404CF
:200420001F3C1CDA0C340EDC04F11404C4F1200220FA04F001FA02F340EA030021FA04F320
:2004400045EA030130BDC4F10C04C4F1200220FA02F001FA04F340EA0300294630BD21FA3E
:2004600004F0294630BD94F0000F83F4801306BF81F480110134013D4EE77FEA645C18BF1C
:200480007FEA655C29D094EA050F08BF90EA020F05D054EA000C04BF1946104630BD91EA56
:2004A000030F1EBF0021002030BD5FEA545C05D14000494128BF41F0004130BD14F58004B3
:2004C0003CBF01F5801130BD01F0004545F0FE4141F470014FF0000030BD7FEA645C1ABF2F
:2004E000194610467FEA655C1CBF0B46024650EA013406BF52EA033591EA030F41F400211E
:2005000030BD00BF90F0000F04BF0021704730B54FF4806404F132044FF000054FF000014A
:2005200050E700BF90F0000F04BF0021704730B54FF4806404F1320410F0004548BF404296
:200540004FF000013EE700BF42004FEAE2014FEA31014FEA02701FBF12F07F4393F07F4F10
:2005600081F06051704732F07F4208BF704793F07F4F04BF41F40021704730B54FF4607424
:2005800001F0004521F000411CE700BF50EA010208BF704730B54FF000050AE050EA010206
:2005A00008BF704730B511F0004502D5404261EB41014FF4806404F132045FEA915C3FF4F0
:2005C000D8AE4FF003025FEADC0C18BF03325FEADC0C18BF033202EBDC02C2F1200300FA3C
:2005E00003FC20FA02F001FA03FE40EA0E0021FA02F11444BDE600BF70B54FF0FF0C4CF445
:20060000E06C1CEA11541DBF1CEA135594EA0C0F95EA0C0F00F0DEF82C4481EA030621EAF1
:200620004C5123EA4C5350EA013518BF52EA033541F4801143F4801338D0A0FB02CE4FF074
:200640000005E1FB02E506F00042E0FB03E54FF00006E1FB03569CF0000F18BF4EF0010E9E
:20066000A4F1FF04B6F5007F64F5407404D25FEA4E0E6D4146EB060642EAC62141EA555161
:200680004FEAC52040EA5E504FEACE2EB4F1FD0C88BFBCF5E06F1ED8BEF1004F08BF5FEA36
:2006A000500E50F1000041EB045170BD06F0004646EA010140EA020081EA0301B4EB5C04E5
:2006C000C2BFD4EB0C0541EA045170BD41F480114FF0000E013C00F3AB8014F1360FDEBFC7
:2006E000002001F0004170BDC4F10004203C35DA0C341BDC04F11404C4F1200500FA05F347
:2007000020FA04F001FA05F240EA020001F0004221F0004110EBD37021FA04F642EB0601A1
:200720005EEA430E08BF20EAD37070BDC4F10C04C4F1200500FA04F320FA05F001FA04F24F
:2007400040EA020001F0004110EBD37041F100015EEA430E08BF20EAD37070BDC4F1200516
:2007600000FA05F24EEA020E20FA04F301FA05F243EA020321FA04F001F0004121FA04F2B9
:2007800020EA020000EBD3705EEA430E08BF20EAD37070BD94F0000F0FD101F0004640005B
:2007A00041EB010111F4801F08BF013CF7D041EA060195F0000F18BF704703F000465200BD
:2007C00043EB030313F4801F08BF013DF7D043EA0603704794EA0C0F0CEA135518BF95EA39
:2007E0000C0F0CD050EA410618BF52EA4306D1D181EA030101F000414FF0000070BD50EA3C
:20080000410606BF1046194652EA430619D094EA0C0F02D150EA013613D195EA0C0F05D178
:2008200052EA03361CBF104619460AD181EA030101F0004141F0FE4141F470014FF00000E2
:2008400070BD41F0FE4141F4780170BD70B54FF0FF0C4CF4E06C1CEA11541DBF1CEA135570
:2008600094EA0C0F95EA0C0F00F0A7F8A4EB050481EA030E52EA03354FEA013100F08880CB
:200880004FEA03334FF0805545EA131343EA12634FEA022245EA111545EA10654FEA002629
:2008A0000EF000419D4208BF964244F1FD0404F5407402D25B084FEA3202B61A65EB0305CC
:2008C0005B084FEA32024FF480104FF4002CB6EB020E75EB030E22BFB61A754640EA0C0042
:2008E0005B084FEA3202B6EB020E75EB030E22BFB61A754640EA5C005B084FEA3202B6EBA3
:20090000020E75EB030E22BFB61A754640EA9C005B084FEA3202B6EB020E75EB030E22BF51
:20092000B61A754640EADC0055EA060E18D04FEA051545EA16754FEA06164FEAC30343EA5D
:2009400052734FEAC2025FEA1C1CC0D111F4801F0BD141EA00014FF000004FF0004CB6E7B0
:2009600011F4801F04BF01430020B4F1FD0C88BFBCF5E06F3FF6AFAEB5EB030C04BFB6EB12
:20098000020C5FEA500C50F1000041EB045170BD0EF0004E4EEA113114EB5C04C2BFD4EB50
:2009A0000C0541EA045170BD41F480114FF0000E013C90E645EA060E8DE60CEA135594EA21
:2009C0000C0F08BF95EA0C0F3FF43BAF94EA0C0F0AD150EA01347FF434AF95EA0C0F7FF438
:2009E00025AF104619462CE795EA0C0F06D152EA03353FF4FDAE1046194622E750EA410659
:200A000018BF52EA43067FF4C5AE50EA41047FF40DAF52EA43057FF4EBAE12E74FF0FF3CE3
:200A200006E000BF4FF0010C02E000BF4FF0010C4DF804CD4FEA410C7FEA6C5C4FEA430C83
:200A400018BF7FEA6C5C1BD001B050EA410C0CBF52EA430C91EA030F02BF90EA020F00201C
:200A6000704710F1000F91EA030F58BF994208BF90422CBFD8176FEAE37040F00100704729
:200A80004FEA410C7FEA6C5C02D150EA013C07D14FEA430C7FEA6C5CD6D152EA033CD3D0FF
:200AA0005DF8040B704700BF8446104662468C461946634600E000BF01B5FFF7B7FF002891
:200AC00048BF10F1000F01BD4DF808EDFFF7F4FF0CBF012000205DF808FB00BF4DF808EDC1
:200AE000FFF7EAFF34BF012000205DF808FB00BF4DF808EDFFF7E0FF94BF012000205DF8D4
:200B000008FB00BF4DF808EDFFF7CEFF94BF012000205DF808FB00BF4DF808EDFFF7C4FF78
:200B200034BF012000205DF808FB00BF4FEA410C7FEA6C5C02D150EA013C0AD14FEA430C06
:200B40007FEA6C5C02D152EA033C02D14FF0000070474FF0010070474FEA410212F50012C1
:200B600015D211D56FF47873B3EB625212D94FEAC12343F0004343EA505311F0004F23FA4D
:200B800002F018BF404270474FF00000704750EA013005D111F0004008BF6FF000407047BE
:200BA0004FF00000704700BF4A0011D212F5001211D20DD56FF47873B3EB62520ED44FEABA
:200BC000C12343F0004343EA505323FA02F070474FF00000704750EA013002D14FF0FF3083
:200BE00070474FF0000070474FEA4102B2F1E04324BFB3F5001CDCF1FE5C0DD901F0004C15
:200C00004FEAC0024CEA5070B2F1004F40EB830008BF20F00100704711F0804F21D113F1EE
:200C20003872BCBF01F00040704741F480114FEA5252C2F11802C2F1200C10FA0CF320FA35
:200C400002F018BF40F001004FEAC1234FEAD32303FA0CFC40EA0C0023FA02F34FEA430382
:200C6000CCE77FEA625307D150EA01331EBF4FF0FE4040F44000704701F0004040F0FE4039
:200C800040F40000704700BF53B94AB9002908BF00281CBF4FF0FF314FF0FF3000F074B9AE
:200CA000ADF1080C6DE904CE00F006F8DDF804E0DDE9022304B070472DE9F047089D044621
:200CC0008E46002B4DD18A42944669D9B2FA82F252B101FA02F3C2F1200120FA01F10CFA16
:200CE00002FC41EA030E94404FEA1C48210CBEFBF8F61FFA8CF708FB16E341EA034306FB6B
:200D000007F199420AD91CEB030306F1FF3080F01F81994240F21C81023E63445B1AA4B27E
:200D2000B3FBF8F008FB103344EA034400FB07F7A7420AD91CEB040400F1FF3380F00A8170
:200D4000A74240F207816444023840EA0640E41B00261DB1D4400023C5E900433146BDE867
:200D6000F0878B4209D9002D00F0EF800026C5E9000130463146BDE8F087B3FA83F6002E8F
:200D80004AD18B4202D3824200F2F980841A61EB030301209E46002DE0D0C5E9004EDDE7D5
:200DA00002B9FFDEB2FA82F2002A40F09280A1EB0C014FEA1C471FFA8CFE0126200CB1FB38
:200DC000F7F307FB131140EA01410EFB03F0884208D91CEB010103F1FF3802D2884200F22C
:200DE000CB804346091AA4B2B1FBF7F007FB101144EA01440EFB00FEA64508D91CEB04049B
:200E000000F1FF3102D2A64500F2BB800846A4EB0E0440EA03409CE7C6F12007B34022FAF9
:200E200007FC4CEA030C20FA07F401FA06F31C43F9404FEA1C4900FA06F3B1FBF9F8200C6F
:200E40001FFA8CFE09FB181140EA014108FB0EF0884202FA06F20BD91CEB010108F1FF3A78
:200E600080F08880884240F28580A8F102086144091AA4B2B1FBF9F009FB101144EA01410E
:200E800000FB0EFE8E4508D91CEB010100F1FF346CD28E456AD90238614440EA0840A0FB2A
:200EA0000294A1EB0E01A142C846A64656D353D05DB1B3EB080261EB0E0101FA07F722FAB2
:200EC00006F3F1401F43C5E9007100263146BDE8F087C2F12003D8400CFA02FC21FA03F3AB
:200EE000914001434FEA1C471FFA8CFEB3FBF7F007FB10360B0C43EA064300FB0EF69E4255
:200F000004FA02F408D91CEB030300F1FF382FD29E422DD9023863449B1B89B2B3FBF7F673
:200F200007FB163341EA034106FB0EF38B4208D91CEB010106F1FF3816D28B4214D9023E2E
:200F40006144C91A46EA004638E72E46284605E70646E3E61846F8E64B45A9D2B9EB02089C
:200F600064EB0C0E0138A3E74646EAE7204694E74046D1E7D0467BE7023B614432E73046E0
:200F800009E76444023842E7704700BF70B500258EB004462422294605A804951AF02AF9E6
:200FA00042238DF800304D238DF801302A4BCDF80A501B688DF802301A0A8DF803201A0C31
:200FC0001B0E8DF804208DF80530F02236238DF80A308DF81820282318228DF810308DF8CF
:200FE0001E2040232C22C4218DF814308DF8252001230E228DF815308DF81C308DF82630C0
:201000008DF829208DF82D208DF83130CDF806508DF828108DF82C106A46234602AE15468D
:2010200003CDB542186059602A4603F10803F6D128681860AA889A8004AD04F10E030EACBD
:201040002A4603CAA24218605960154603F10803F6D10EB070BD00BF0000002037B5094C12
:201060000190656810F096FE019B074AB0FBF2F0584301906368019A5B1B9342FAD303B0A7
:2010800030BD00BF001000E040420F0030B587B004460D461422002101A81AF0ABF829464E
:2010A000204601220FF0B6FA11220023CDE9022301A903232046019504930FF035F907B080
:2010C00030BD30B587B004460D461422002101A81AF090F80122294620460FF09BFA002329
:2010E00001A92046CDE9023301950FF01DF907B030BD00002DE9F84F254B264F93F8008059
:2011000000263546F3B298450BD8234B187808F0C5FA1DB1012009F04FFA01252846BDE8AA
:20112000F88F07EB43124FEA431AD17D69B301249C40E0B208F0B2FA4FF08C0B002002F0C2
:2011400033FBBBF1010BF9D107EB0A0957F80A00B9F80410FFF7B5FFB9F8041057F80A00F4
:201160000FF052FA0C4A63B2147828B12343137089F81AB00136C5E724EA03031370012382
:201180001D4489F81A30EDB2F4E79176F2E700BFE83F0208C05D00209C5D002008B5054879
:2011A000012280210FF036FA08F0A0FABDE80840FFF7A0BF001002407FB50C4604A901E9F9
:2011C0000C001646BDF80C1001910546002230460FF020FA2846FFF741FF30460199012271
:2011E0000FF018FA204604B0BDE87040FFF736BF82B06B4683E806000CCB20B905213C20FE
:2012000002B0FFF7D9BF3C210520F9E773B56D4685E806000646002446FA04F095E80600B7
:2012200000F001000134FFF7E3FF082CF4D102B070BD30B585B002AB83E803000A210CCBA1
:201240000120FFF7B9FF029DBDF80C1001912846FFF737FF019928460FF0D6F904462820BB
:20126000FFF7FCFE28460199FFF710FF201E18BF012005B030BD73B56E4686E80300002527
:201280002C4696E80300FFF7D4FFA84001350444082DE4B2F5D1204602B070BD30B585B03C
:2012A00002AB83E8030046210CCB4FF4FA70FFF783FF029DBDF80C1001912846FFF701FF4A
:2012C000019928460FF0A0F9019904462846FFF7DDFE4FF4C870FFF7C1FEB4FA84F04009B0
:2012E00005B030BD84B008B50DF1080C8CE80F00DCE90001FFF7D2FFBDE80840013818BF3C
:20130000012004B0704784B007B50DF1100C8CE80F00DCE90001FFF7C1FF01281BD104AB74
:2013200093E80600CC20FFF771FF04AB93E806004420FFF76BFF04AA92E803006B4683E89F
:201340000300FFF798FF003818BF012003B05DF804EB04B070470120F8E7000008B54378F3
:20136000007800EB0320DB0980B20CD0404280B2FFF7D8F8064B0022FFF73EF9FFF734FCB5
:2013800000EE100A08BDFFF7CDF8024B0022F3E70000B0BF0000B03F73B56C4684E80600D2
:2013A000054694E80300FFF779FFE0B194E80600CC20FFF72BFF94E80600BE20FFF726FF5B
:2013C0006E1E083594E80300FFF755FF06F8010FAE42F7D194E80300FFF760FFB0FA80F0C7
:2013E000400902B070BD0120FBE737B56C4684E80600054694E80300FFF750FF10B90120B9
:2014000003B030BD94E80600CC20FFF7FFFE94E806004E20FFF7FAFE94E80600A878FFF755
:20142000F5FE94E80600E878FFF7F0FE94E806002879FFF7EBFE94E80300FFF72FFF002826
:20144000DDD094E80600CC20FFF7E0FE94E806004820FFF7DBFE142002F0A6F90020CFE749
:2014600010B586B06B4683E80600002204468DF8102003A893E80600FFF78EFFA0B99DF891
:2014800010301F2B03D10923237006B010BD3F2B01D10A23F8E75F2B01D10B23F4E77F2B55
:2014A00001D10C23F0E720700120EEE730B587B06D4685E806000446002395E806000DF19E
:2014C0000B008DF80B30FFF7CBFF10B1012007B030BD9DF80B30A342F9D0092C1ED00A2C24
:2014E0001ED00B2C1ED00C2C0CBF7F231F2395E8060003A88DF81030FFF777FF0028E5D1B5
:2015000095E806000DF10B00FFF7AAFF0028DDD19DF80B30181B18BF0120D8E71F23E6E701
:201520003F23E4E75F23E2E730B593B0C3790493837903934379029303790193C378009377
:201540000DAD0C4683784278164928461AF058FC95E803009DF83F308DF82E309DF8403033
:201560008DF81C309DF84130BDF83D2008908DF81D30DDF839008DF8241007AB00250A90E0
:20158000ADF82C20009308498DF825500AAB08AA20468DF82F508DF81F501AF031FCA57368
:2015A00013B030BD49E8010866E8010870B40379C67944790A46817946EA036643F3C01560
:2015C0002404C37844EA012481782B44457803EB012144EA060001EB054170BC0BF0FCBDDA
:2015E00030B50246014400208A4200D130BD12F8015B082480EA050313F0010F4FEA50002F
:201600001CBF80F08C03D8B2631E13F0FF044FEA5505EFD1E8E7000070B52DED028B424A65
:2016200086B0516804461068127A03AB03C394E803001A7001AB83E80300B0EE408AFFF778
:201640001AFE08B9012548E094E80300FFF726FE0028F7D094E80600CC20FFF7D7FD94E827
:201660000600BE20FFF7D2FD03AE092594E80300FFF701FE013D15F0FF0506F8010BF5D157
:20168000082103A8FFF7ACFF9DF81430834244D19DF80D309DF80C00DE0900EB032080B288
:2016A00020D0404280B2FEF73DFF204B0022FEF7A3FFFFF799FA07EE900A37EE880A10EE64
:2016C000100A84ED040AFEF73FFF194B0022FEF793FFFFF769FA4042A082284606B0BDEC67
:2016E000028B70BDFEF71EFF124B0022FEF784FFFFF77AFA07EE900A37EE880A354610EEFE
:20170000100A84ED040AFEF71FFF094B0022FEF773FFFFF749FAA082DFE707481AF0BCFA10
:201720000A201AF0D1FA8DE710E801080000B0BF000030400000B03F6DE80108F0B58BB029
:2017400006AD85E80600244A0646D2F80D10D2F8090008AB03C395E80300FFF79FFD00283C
:2017600038D095E806003320FFF750FD08AF082495E80300FFF77FFD013C14F0FF0407F830
:20178000010BF5D1072108A8FFF72AFF9DF82730834206D108AB03CB3060716020460BB0F5
:2017A000F0BD04939DF8263003939DF8253002939DF8243001939DF8233000939DF8212017
:2017C0009DF822309DF8201004481AF065FA0A201AF07AFA0124E1E710E801088FE8010892
:2017E0002DE9F04F2DED028BB24B1B7891B0012B05900C4602D1B04810F006FF059B23F086
:201800000203012B40F0AC80DFF8C8A2DFF8C8B2254626464FF00008B446BCE80F0008AF27
:201820000FC79CE80F0087E80F0008AF97E80300FFF734FD012836D106F11B0996E8060092
:201840004846FFF70DFE96E806004846FFF708FEF37E9AF800209A4225D0FF2B06D1974817
:2018600041461AF019FA0A201AF02EFA4FF00A099AF80000F37E834215D096E8060009F1EB
:20188000FF39FFF713FE19F0FF0903D0002001F08BFFEDE7F27E08F1010158461AF0FCF9AE
:2018A0000A201AF011FA08F10108B8F1080F06F12006B1D104F580734FF0000B0693D9469A
:2018C000069B9D420AD1059B032B40F09C800025284611B0BDEC028BBDE8F08F4FF00A0A92
:2018E0004FF0020805F1100696E80F008DE80F0095E80F00FFF7F6FCAE46BEE80F00BC4663
:20190000ACE80F0096E80F008CE80F0097E80300FFF7C4FC012805D0EB7D85F816905BB93F
:201920002035CDE7A87596E80F008DE80F0095E80F00FFF7E8FC8046BAF1010AEB7D09D04D
:20194000012B03D185F8189085F81E90B8F1000FCAD1E5E7012BE3D12B76AB779B46DFE7CE
:20196000059B002B4DD108F005FEDDF814B0DFF86CA19FED538A083401260025A4F1080375
:2019800007930223002706930DF12008A37B0BB3A4F1080EBEE80F000DF1200CACE80F0099
:2019A0009EE80F008CE80F0098E80300FFF776FC0128814641D0002323606360E37B002B31
:2019C00054D1DFF81C910A274FF00208A37B002B40F08880E37B012B00D123740136092E03
:2019E0000AF1020A04F12004C8D1059B7BB9002D3FF46DAF33481AF04FF90A201AF064F980
:201A000066E74FF0000B059B022BB0D00025294B1B78012B02D1284810F0BCFD002D3FF42E
:201A200056AFBBF1000F3FF452AF27481AF034F90A201AF049F95D464AE7079B404693E81F
:201A40000600FFF77BFEC0B1394620481AF024F90A201AF039F900220698A28184ED028A4C
:201A600084F8109084F815904D460690092F0FD0069B0137002B89D1A3E760754146E31DA5
:201A800011F8012B1A70A34203F1FF33F8D1ECE7E77B012F95D131460D481AF0FDF80A20F3
:201AA0001AF012F90023A38184ED028A27746775BB4686E778670020A4660020CDE8010801
:201AC0000000000040E9010851E9010804E901081BE901086C000020E9E80108F6670020AB
:201AE00028010020BAF90000FEF71CFD204B0022FEF7ACFEFFF778F800EE100A0798FFF7AD
:201B00008BFDA37B002818BF0125012B1CD199F80030D4ED027A012B0BD0B2EE027A67EE6B
:201B2000877AF1EE046A87EEA67ADFED127A77EE277AC4ED027A4FF00008013F0AD0B8F12D
:201B4000000F7FF443AF49E7E37B84ED028A002BF3D143E7E77B012F7FF440AF31460648B4
:201B60001AF09AF80A201AF0AFF8BB46277435E700002440000000422BE9010808B50B4863
:201B80000B4A0C4BC0E9002300234FF48042C0E90233C0E90423C0E9063303620FF088FA2F
:201BA00018B1BDE8084009F0EFB808BD4065002000540040A086010070B50E4D0E4E044664
:201BC000012086B028703078012808D00A98009020460FF02FFB00232B7006B070BD0020EB
:201BE000CDE90423039101F0DFFDDDE904230399E9E700BFEB670020405F002070B50E4DDE
:201C00000E4E0446012086B028703078012808D00A98009020460FF0E5FB00232B7006B09B
:201C200070BD0020CDE90423039101F0BDFDDDE904230399E9E700BFEB670020405F0020F2
:201C4000030903EB830300F00F0000EB4300C0B270470A23B0FBF3F3C3EB4312C3EB8202BB
:201C600000EB420040EA0310C0B2704710B5052386B0044602223E48D0210FF023FD50B1A9
:201C80003C481AF009F80A201AF01EF8FFF776FF012006B010BD8DF810002078FFF7D9FF61
:201CA0008DF811006078FFF7D4FF8DF81200A078FFF7CFFF8DF81300E078FFF7CAFF8DF846
:201CC00014002079FFF7C5FF8DF815006079FFF7C0FF8DF81600A079FFF7BBFF64238DF805
:201CE000170000932248082304AAD021FFF764FF08B12148C5E702A800F042F808B11F48EB
:201D0000BFE79DF80900237862789DF808108B4208BF8242A2789DF80A300CBF0120002010
:201D20009A4214BF002000F00100A2799DF80E309A4214BF002000F0010062799DF80D3088
:201D40009A4214BF002000F0010022799DF80C309A4214BF002000F00100E2789DF80B306D
:201D60009A4214BF002000F0010080F0010090E74065002067E9010894E90108AFE9010876
:201D80002DE9F043052389B0044602225D48D0210FF098FCB0B1FFF7F1FE642001F004FD46
:201DA000584805230222D0210FF08CFC50B1564819F072FF0A2019F087FF0122104609B0BB
:201DC000BDE8F08364254F4F2E46009601230022D0213846FFF7F0FE40B14C4819F05CFF38
:201DE0000A2019F071FFFFF7C9FEE6E702AA00960723D0213846FFF701FF024608B1444858
:201E0000ECE700960123D0213846FFF7D5FE08B14048E3E704AA00960723D0213846FFF71F
:201E2000EDFE024608B13C48D8E7844602A904AB012011F8018B13F801EB0CF1010CF04563
:201E400018BF0020BCF1070FF3D1013D01D00028BBD09DF80800FFF7F3FE804620709DF8D3
:201E60000900FFF7EDFE814660709DF80A00FFF7E7FE0146A0709DF80B00FFF7E1FE07464E
:201E8000E0709DF80C00FFF7DBFE064620719DF80D00FFF7D5FE607105469DF80E00FFF785
:201EA000CFFEB9F13B0F98BF17298CBF01210021B8F13B0F88BF41F00101013F062F88BF13
:201EC00041F00101013E1E2E88BF41F00101A07119B9013D0B2D7FF671AF0023012406A8E6
:201EE0008DF818308DF819308DF81A308DF81B408DF81C408DF81D408DF81E30FFF7B6FE58
:201F000022465BE740650020CAE9010894E90108F9E9010817EA010832EA01081FB564239B
:201F20008DF80C008DF80D1000930948022303AAD021FFF741FE40B1064819F0ADFE0A2075
:201F400019F0C2FEFFF71AFE012005B05DF804FB4065002050EA010830B585B0FA250C46ED
:201F60008DF8080000951048012302AAD021FFF723FE50B10D4819F08FFE0A2019F0A4FE4E
:201F8000FFF7FCFD012005B030BD07480095012303AAD021FFF732FE08B10548EBE79DF856
:201FA0000C302370EFE700BF4065002050EA010874EA01082DE9F3410646084617461D46AA
:201FC000FFF747FE04463846FFF743FE80462846FFF73FFE07469DF82000FFF73AFEF20737
:201FE00044BF64F07F04E4B2B30748BF68F07F08054648BF5FFA88F8700744BF67F07F074F
:20200000FFB2310744BF65F07F05EDB2F20644BF45F04005EDB2330623D421460720FFF794
:202020007DFF48B1314819F037FE0A2019F04CFE012002B0BDE8F0810DF107010720FFF7EB
:202040008BFF08B12A48EEE79DF80700041B18BF0124082641463046FFF760FF20B1254881
:20206000E1E700240B26F5E70DF107013046FFF773FF08B12048D6E79DF80730434518BF7A
:20208000601C06F1010818BFC4B239464046FFF745FF08B11948C6E70DF107014046FFF7EF
:2020A0005BFF08B11648BEE79DF80730BB4218BF601C06F1020618BFC4B229463046FFF7C7
:2020C0002DFF08B10F48AEE70DF107013046FFF743FF08B10C48A6E79DF80730AB4201D057
:2020E0000A48A0E7201E18BF0120A2E79BEA0108BFEA0108E2EA010806EB010829EB01081C
:202100004DEB010870EB010894EB0108B7EB010837B504460D460E206946FFF71DFF40B17E
:20212000164819F0B9FD0A2019F0CEFD012003B030BD0123013C03FA04F49DF80030012D7A
:2021400006BF43EA0401C9B223EA04010E208DF80010FFF7E3FE08B10948E2E701A90E20B6
:20216000FFF7FAFE08B10748DBE79DF800209DF804309A42DBD00448D3E700BFDCEB01080D
:2021800006EC01082DEC010853EC010837B504460D460F206946FFF7DFFE40B1174819F047
:2021A0007BFD0A2019F090FD012003B030BD631E9DF80020012404FA03F312EA03001AD0EE
:2021C00022EA03010F208DF80010FFF7A7FE08B10B48E4E701A90F20FFF7BEFE08B1094824
:2021E000DDE79DF800209DF804309A4201D12C70DBE70548D3E72870D7E700BF7BEC010805
:2022000098EC0108B6EC0108D3EC010813B50C460F2001A9FFF7A0FE40B1074819F03CFDB5
:202220000A2019F051FD012002B010BD9DF8043023F07F032370F7E7F2EC010813B50446B5
:2022400069460E20FFF788FE40B1154819F024FD0A2019F039FD012002B010BD9DF80010FF
:20226000032C9BBF21F01C0141EAC40141F00401C9B20E208DF80010FFF750FE08B10948F5
:20228000E4E701A90E20FFF767FE08B10648DDE79DF800209DF804309A42DDD00348D5E767
:2022A00014ED010836ED010859ED01087BED010870B586B00DF010F80446C8B93348344D01
:2022C000324E19F0E9FC0A2019F0FEFC0DF004F800284FD1304619F0DFFC0A2019F0F4FCA5
:2022E00001344FF4FA70E4B201F05EFA032CEDD9284C294D002001F057FA2378072B41D0FE
:202300004FF4FA7001F050FA4FF4FA7001F04CFA4FF4FA7001F048FA4FF4FA7001F044FA35
:2023200001231E482B7019F0B7FC0A2019F0CCFC0CF032FF1A4AD4F801301360194B1A48FA
:202340005B685360237A0493E3790393A37902936379019323790093E378A278617819F03A
:202360009BFC0A2019F0B0FC2878431E5842584106B070BD284619F08FFC0A2019F0A4FCFB
:202380000424ADE700232B70D2E700BF9FED0108B1ED01086468002024040020C1ED010824
:2023A000B75D002065680020D2ED010838B5214D00052B8800F57E22B3EB124F16D2020C97
:2023C000B3EB104F4FF0000038BF2A8001F0ECF90022288811460DF02FF910B928880DF086
:2023E00035F82B8801332B80022021E0FCD1124C2388B3EB123F17D200F57020020BB3EB1D
:20240000103F4FF0000038BF228001F0CDF90022208811460DF072F810B920880CF0D6FF14
:20242000238801332380DFE7DED100202880208038BD00BF3C0400203E04002038B51C4D71
:2024400000052B8800F57E22B3EB124F11D2B3EB104F4FEA10424FF0000038BF2A8001F0F4
:20246000A3F928880DF044FA2B8801332B8002201CE0FCD10F4C2388B3EB123F12D200F58A
:202480007020B3EB103F4FEA10324FF0000038BF228001F089F920880DF000FA238801337B
:2024A0002380E4E7E3D100202880208038BD00BF580400205A04002030B51B4C00052388E8
:2024C00000F57E22B3EB122FC1B00D4627D2B3EB102F4FEA10224FF0000038BF228001F0BA
:2024E00063F94FF480730022684621880DF066FA00226B46104613F8011B0130A94218BF31
:202500000132B0F5807FF6D122B100232380012041B030BD2388013323800220F8E7FCD135
:2025200000202080F4E700BF2604002038B5214C0005238800F57E22B3EB124F19D2020C60
:20254000B3EB104F4FF0000038BF228001F02CF90022208811460DF06FF820B1238801335B
:202560002380022004E0144A002323801380012038BDF6D1104D2B88B3EB123F15D200F543
:202580007020020BB3EB103F4FF0000038BF2A8001F00AF90022288811460CF0AFFF0028E2
:2025A000E1D02B8801332B80DBE7DAD1002020802880DDE740040020420400202DE9F04728
:2025C0000023C0B006031A460C464FEA005A314668460DF0F3F904F13903002213F8011994
:2025E000202903D11978202908BF5A70A342F5D1671EE94604F138086A463B4600254345E1
:202600002AD1002D3CD023466A4604F1380C18685968144603C4083363452246F7D11B782C
:20262000237000224FEA1A34114620460CF066FF8246D0B100231A46314668460DF0DAF880
:2026400000231A46314668460DF0B8F947451BD1003D18BF012513E012F8011B13F8010F3E
:2026600088421CBF0135EDB2C9E720460CF0AEFE5246514620460CF041FF0028DAD1012558
:20268000284640B0BDE8F08719F8013B17F8012F9A421CBF0135EDB2D8E710B5C0B00C4662
:2026A0004FF480730103002268460DF087F9214604F139006B460024814202D1002040B083
:2026C00010BD13F8012BFF2A14BF0A700C700131F2E72DE9F041C4B001AC0B7823704B78B8
:2026E00063708B78A370CB78E3700B7923714B7963718B79A371CB79E3710B7A23720005DC
:202700004B7A637200F57E258B7AA3724FEA152800231A46414604A80DF050F904AE002326
:20272000274632462146184611F801EB12F801CBE64518BF013003F1010318BFC0B20B2B7A
:20274000F2D1002839D094E8070004AB03C323F8022B120C1A702D0B0022114628460CF082
:20276000CDFE0446F0B100231A46414604A80DF041F800231A4604A841460DF01FF90023C9
:20278000184617F8011B16F8012B914218BF013003F1010318BFC0B20B2BF2D1003818BF52
:2027A00001200AE028460CF011FE2246214628460CF0A4FE0028D6D1012044B0BDE8F081C0
:2027C00010B50C460105C0B001F57E2168464FF480730022090A0DF0F1F89DF80030237080
:2027E0009DF8013063709DF80230A3709DF80330E3709DF8043023719DF8053063719DF8BB
:202800000630A3719DF80730E3719DF8083023729DF8093063729DF80A30A372002040B055
:2028200010BD000010B5304C0005226800F580431B0A9342C0B051D900F58050B2EB102F0E
:202840004FEA10234FF0000038BF236000F0ACFF21684FF48073002268460DF0AFF86946D6
:20286000002311F8012BFF2A0BD12168FE200DF8030003EB01210CF07DFF0020206040B034
:2028800010BD12B3FE2A08D1FC220DF8032021681DF8030003EB0121EDE7FC2A01D1F822C8
:2028A000F3E7F82A01D1F022EFE7F02A01D1E022EBE7E02A01D1C022E7E7C02A01D18022B8
:2028C000E3E7802AE3D10022DFE70133B3F5807FC7D12368013323600220D0E7FCD100236A
:2028E00023600120CBE700BF5404002038B5040504F58054240BA51C0022114628460CF0B5
:20290000FDFD08B9280138BD01340022114620460CF0F4FD08B92001F5E70020F3E7000025
:20292000F0B5314C03050E4603F580422168120A8A42C1B0054652D903F58053B1EB132F5E
:202940004FEA13274FF0000038BF276000F02CFF216800224FF4807368460DF02FF86A46C9
:20296000002112F8013BFF2B0AD12368DB1B01EB0323DB00002046F82530206041B0F0BDAC
:2029800023B3FE2B194A09D1012313702368DB1B01EB0323117801EBC303EBE7FC2B01D1BB
:2029A0000223F2E7F82B01D10323EEE7F02B01D10423EAE7E02B01D10523E6E7C02B01D1B5
:2029C0000623E2E7802BE1D10723DEE70131B1F5807FC6D12368013323600220CEE7FCD165
:2029E000002323600120C9E74C0400204404002030B587B013788DF8043053788DF80530A3
:202A000093788DF80630D3788DF8073013798DF8083053798DF8093093798DF80A30D379FF
:202A20008DF80B30137A8DF80C30537A8DF80D30937A8DF80E30D37A8DF80F30137B8DF805
:202A40001030537B8DF81130937B8DF81230D37B8DF813301324137C1F4D8DF81430614318
:202A6000537C8DF8153001EB0050937C8DF816302A6800F5804323449A422AD200F5804465
:202A8000A2424FF0000038BF2C6000F08DFE29680B1B18336B4413F8140C0CF06BFE0DF1D6
:202AA000030029680CF04CFF2B681C1B04F118020DEB02049DF8032014F8141C914217BFC7
:202AC000002301332B60012004BF2B60022007B030BD00202860FAE75004002037B51324BF
:202AE00061432B4D01EB005000F5804329682344994218D200F58044A1424FF0000038BF37
:202B00002C6000F051FE29680DF107000CF018FF2B68204A9DF807101C1B013311552B603C
:202B2000022003B030BD1C4B1120002113F8014BFF2C08BF03F8011C0138F7D1154B1978C7
:202B400011705978517099789170D978D170197911715979517199799171D979D171197ADB
:202B60001172597A5172997A9172D97AD172197B1173597B5173997B9173D97BD173197C9B
:202B80001174597C51749B7C93742860C9E700BF48040020280400202A040020F0B50388CB
:202BA000D3B00DF109028DF800301B0A8DF8013043888DF802301B0A8DF8033003798DF899
:202BC000043043798DF8053083798DF80630C3798DF80730037A8DF8083000F1290100F156
:202BE000090353F8044B42F8044B8B42F9D1D0F82920CDF829209B88ADF82D3000F13003A7
:202C00000DF12F0500F150041A4652F8041B090AA24205F8011BF8D10DF1370253F8041BFA
:202C200002F8011BA342F9D10DF13F01583013F8012B02F00102984201F8012BF7D10023F3
:202C40001A4647F6F07112A80CF0B8FE12AC00226D4623466946104611F8017B13F8016B0D
:202C6000B74218BF013002F1010218BFC0B2482AF2D1002839D0694612A818F093FA00228E
:202C8000114640F2FF700CF039FC064600B300231A4647F6F07112A80CF0ACFD00231A4609
:202CA00012A847F6F0710CF089FE0023184615F8011B14F8012B914218BF013003F1010384
:202CC00018BFC0B2482BF2D1003818BF01200CE040F2FF700CF07AFB3246314640F2FF70B7
:202CE0000CF00CFC0028D2D1012053B0F0BD30B5C1B04FF48073002247F6F07104466846F0
:202D00000CF05CFE00236A46194612F8010B0133FF2808BF02F8011C482BF6D19DF80120EC
:202D20009DF8003003EB022323809DF803209DF8023003EB022363809DF8053063719DF870
:202D40000630A3719DF80730E3719DF80830237204F109020DF109030DF1290153F8040B1B
:202D600042F8040B8B42F9D1DDF82920C4F829209B88A4F82D3004F130020DF12F0504F1E6
:202D80005003114615F8010B000241F8040B8B42F8D10DF13700156810F8011B294442F813
:202DA000041B9342F7D10DF13F01583411F8012B02F0010203F8012B9C42F7D1002041B085
:202DC00030BD00000248002280210DF023BC00BF000C02400248012280210DF01BBC00BF6F
:202DE000000C024010B5084C0022202120460DF011FC052000F0D8FC20460122BDE8104032
:202E000020210DF007BC00BF000C024007B5002309488DF80430012240210DF0FBFB4FF005
:202E2000FF33012201A905480FF082FA9DF8040003B05DF804FB00BF000C02404C6600204C
:202E400007B500228DF80700402107480DF0E2FB4FF0FF3301220DF1070104480FF0C6F8DB
:202E600003B05DF804FB00BF000C02404C660020F8B5012205460C460B480C4F40210DF0F3
:202E8000C9FB04B9F8BDB4F5004F264628BF4FF4004629464FF0FF33B2B238460FF0A6F8C9
:202EA0003544A41BEDE700BF000C02404C66002007B5030A8DF80500022101A88DF804304F
:202EC000FFF7D6FF03B05DF804FBF7B507462A2016460D461C46FFF7B3FF04213B0A0DEBC2
:202EE00001008DF80430330A8DF806308DF805708DF80760FFF7BCFF2B20FFF7A1FF2B0A73
:202F000004218DF804300DEB0100230A8DF805508DF806308DF80740FFF7AAFF2C2003B0AE
:202F2000BDE8F040FFF78CBF2DE9F0411C468318B3F5A07F154601EB0403C4BFC0F5A075D5
:202F4000ADB2F02BC8BFC1F1F00406460F46C8BFA4B2BDF81880FFF735FF721E7B1E234445
:202F60002A449BB2304692B23946FFF7AEFF0122104840210DF04EFB0F4B1A684FEA182645
:202F80005FFA88F89CB9BDE8F041FFF723BF167391688807FCD582F80C8091688907FCD513
:202FA000013B9BB2002BF2D1013CA4B2EAE72B46F8E700BF000C02404C66002030B578208A
:202FC00085B000F0F1FB01224FF0FF3300218348834C0FF00BF8FFF7F5FEFFF703FF782016
:202FE00000F0E2FB0120FFF72BFF782000F0DCFBCB20FFF725FF20682379009005216846D7
:203000008DF80430FFF734FFCF20FFF719FFB4F80520E379ADF80020032168468DF8023056
:20302000FFF726FFE820FFF70BFF2289A37AADF80020032168468DF80230FFF719FFEA203F
:20304000FFF7FEFE002502216846ADF80050FFF70FFFED20FFF7F4FE624B00930421684687
:20306000FFF706FFF720FFF7EBFE2023012168468DF80030FFF7FCFEC020FFF7E1FE2123AE
:20308000012168468DF80030FFF7F2FEC120FFF7D7FE1023012168468DF80030FFF7E8FE85
:2030A000C520FFF7CDFE43F6314302216846ADF80030FFF7DDFEC720FFF7C2FEC0230121A4
:2030C00068468DF80030FFF7D3FE3620FFF7B8FE4823012168468DF80030FFF7C9FE3A20BD
:2030E000FFF7AEFE5523012168468DF80030FFF7BFFEB120FFF7A4FE4FF4D85302216846D6
:20310000ADF80030FFF7B4FEB620FFF799FE364B03211A889B78ADF8002068468DF802304B
:20312000FFF7A6FEF220FFF78BFE012168468DF80050FFF79DFE2620FFF782FE01216846A2
:203140008DF80010FFF794FEE020FFF779FE04F10B036A46133418685968154603C508334C
:20316000A3422A46F7D1186899889B79AB712860A98068460F21FFF77BFEE120FFF760FE0E
:203180001A4B6A4603F1080518685968144603C40833AB422246F7D1186899889B79A37196
:2031A0002060A18068460F21FFF762FE1120FFF747FE782000F0F8FA2920FFF741FE362080
:2031C000FFF73EFE2823012168468DF80030FFF74FFE05B0BDE83040FFF7FCBD4C6600205F
:2031E00021E801086403128103EE010807EE010882B02DE9F04F85B0DEB2C3F30725144643
:203200000F93721E6B1E0B4402449BB292B2BDF84480BDF84890FFF758FEC72C71D0E72C34
:2032200071D0B42C71D0A82C71D0C02C71D0C12C71D0C22C71D0C32C71D0C42C71D0C82C38
:2032400071D0C92C71D0CA2C71D0CB2C71D0CC2C71D0CD2C71D0CE2C71D0CF2C71D0D22CA0
:2032600071D0D32C71D0D42C71D0D52C71D0D62C71D0D92C71D0DA2C71D0DB2C71D0DC2C2A
:2032800071D0E02C71D0E12C71D0E22C71D0E32C71D0E42C71D0E82C71D0E92C71D0EA2CA1
:2032A00071D0EB2C71D0EC2C71D0ED2C71D0EE2C71D0EF2C71D0F22C71D0F32C71D0F42C2C
:2032C00071D0F52C71D0F62C71D0F92C71D0FA2C71D0FB2C71D0FC2C71D07F2C28BF202474
:2032E0004FEA1923203C01936C434FEA1823009364000027AF4264D305B0BDE8F04F02B0B5
:2033000070477F24ECE78024EAE78124E8E78224E6E78324E4E78424E2E78524E0E7862427
:20332000DEE78724DCE78824DAE78924D8E78A24D6E78B24D4E78C24D2E78D24D0E78E2429
:20334000CEE78F24CCE79024CAE79124C8E79224C6E79324C4E79424C2E79524C0E7962449
:20336000BEE79724BCE79824BAE79924B8E79A24B6E79B24B4E79C24B2E79D24B0E79E2469
:20338000AEE79F24ACE7A024AAE7A124A8E7A224A6E7A324A4E7A424A2E7A524A0E7A62489
:2033A0009EE7A7249CE7A8249AE7A92498E7AA2496E7AB2494E7AC2492E7AD2490E7AE24A9
:2033C0008EE7109B33F804B04FF0000A564505D8002000F0E9F9013702348BE70BFA0AF25A
:2033E00013044ABF009B019B8DF80C304FF0020103A84EBF8DF80D808DF80C308DF80D90C6
:203400000AF1010AFFF734FDE0E782B02DE9FF470446BDF83C90BDF840A00D938846154601
:20342000DFB2C3F30726FFF7CDFC15F8012B2AB904B0BDE8F04702B0FFF7CCBCE319B3F5D9
:20344000A07F0DDB08EB06031FFA83F816FA83F3EF2BEDDC202A18D0002000F0A5F9002468
:203460000E9B8DF834708DF8356015F8012C00932046CDE9019A0D9B4146FFF7B9FE3C4480
:203480000020A4B200F090F9CFE70024CDE730B4B0F5A07FBDF8085005D2EF2903D8029599
:2034A00030BCFFF741BD30BC704707B500210090F0234FF4A0720846FFF736FD03B05DF835
:2034C00004FBB0F5A07F13B505D2EF2903D800930123FFF7DCFF02B010BDB0F5A07F13B504
:2034E00006D2EF2904D8009313460122FFF7CFFF02B010BD2DE9F341B0F5A07FBDF820705B
:2035000004460D4690461E4620D2EF291ED800970123FFF7BCFFA9194246204600970123FD
:2035200089B2FFF7B4FF33462946204600970122FFF7ADFF04EB080033460122294680B2C9
:20354000089702B0BDE8F041FFF7A1BF02B0BDE8F081B0F5A07F13B5144612DAEF2910DC50
:2035600080B289B24B1C421C9BB292B2FFF7ADFC230A022101A88DF804308DF80540FFF777
:2035800077FC02B010BD2DE9F74FBDF8306007460C4698469146FFF715FC264408EB070BCE
:2035A000B6B24FF0000A1FFA8BFBB44218D009EB4A033D4621B20AE033F8022B28B2CDE974
:2035C0000013FFF7C6FFDDE900130135ADB25D45F2D10020013400F0E7F8C244A4B2E4E7FF
:2035E00003B0BDE8F04FFFF7F5BB2DE9F74FA3EB0109A2EB000AB9F1000FB8BFC9F1000910
:20360000BAF1000FB8BFCAF1000AD145BDF830B004460D46904603DD98460C4613460546E2
:20362000444505DD2A461D461346224644469046A8EB0406B2B200925A1B82EAE271A1EBD8
:20364000E271C6F3C03202FA86F6019176109D42B4BF01274FF0FF37FFF7B4FB444504DDDE
:2036600003B0BDE8F04FFFF7B5BBD145C7BF21462846294620465A46FFF76BFF019BF61A5B
:20368000B3B236B2002E04DA009A3D44D6182DB236B20020013400F087F824B2DEE70000A2
:2036A000044BC90001F4FC6141EAD20203EA00201043704700F8FFFF2DE9F341089E0F464F
:2036C0001D4614468046FFF77DFB2A20FFF7B8FB1FFA88F0FFF7ECFBA0B2FFF7E9FB2B2021
:2036E000FFF7AEFBB8B2FFF7E3FBA8B2FFF7E0FB2E20FFF7A5FBA4EB0804FFF787FBEB1BC5
:203700000134013314FB03F39BB203EB4305104FADB206EB4304A64205D1FFF75BFB28464A
:2037200002B0BDE8F0814FF0FF3301A9032238460EF0FEFD9DF806209DF805109DF804000C
:20374000FFF7AEFF26F8020B002000F02DF8E2E74C66002037B5FFF735FB0920FFF770FB2F
:20376000FFF754FBFFF752FB0546FFF74FFB2D0645EA0044FFF74AFB0546FFF747FB04438B
:2037800044EA05200190FFF725FB019803B030BD08B504480EF06EF818B1BDE8084007F0DC
:2037A000F3BA08BDE865002010B50446FFF7F0FF17F01CF80B4B1B78012B03D00A4B1B685B
:2037C000092B01D117F006F81CB9BDE8104007F009B8FFF7DDFF01200CF0C0F9013C17F070
:2037E00005F8F1E7EC670020C00000200C480D4A08B542F21073C0E9002300234FF480428E
:20380000C0E90233C0E90423C0E9063303620DF04FFC18B1BDE8084007F0B6BA08BD00BFCA
:2038200094650020005C004070B50E4D0E4E0446012086B028703078012808D00A980090E3
:2038400020460DF0F7FC00232B7006B070BD0020CDE904230391FFF7A7FFDDE904230399BB
:20386000E9E700BF405F0020EB67002070B50E4D0E4E0446012086B028703078012808D0CA
:203880000A98009020460DF0ADFD00232B7006B070BD0020CDE904230391FFF785FFDDE977
:2038A00004230399E9E700BF405F0020EB67002030B585B005250C468DF80C008DF80D10BC
:2038C00016480095022303AAD021FFF7ADFF50B1134818F0E1F90A2018F0F6F9FFF786FFB6
:2038E000012005B030BD0D480095012303AAD021FFF79AFF08B10B48EBE7084800950123E3
:2039000003AAD021FFF7B2FF08B10748E1E79DF80C30181B18BF0120E3E700BF94650020F4
:2039200017EE01083BEE01085FEE010810B5084805230122D0210DF0C5FE08B1FFF756FFDC
:20394000BDE81040024805230122D0210DF0BABE94650020000000002DE9F04F964B2DED0E
:20396000028B196885B069B1944818F095F90A2018F0AAF94FF0020A504605B0BDEC028BD7
:20398000BDE8F08F8E4E8F4D012405231A46D02130460DF097FE824670B12146284618F0DF
:2039A0007BF901340A2018F08FF9FFF71FFF0A2CEBD14FF0010ADFE79FED838ADFF800928C
:2039C000DFF82882DFF828B204460546064607460020FFF7E9FE3B238DF80C3005230093B0
:2039E0007748012303AAD021FFF71EFF002800F0B680764818F050F90A2018F065F9FFF750
:203A0000F5FE0134E4B2632CE2D907EE907AF8EEE77AC7EE886A07EE906AF8EEE77A87EE06
:203A2000887A07EE905AF8EEE77AC7EE888A9FED688A66EE887A17EE90BA67EE087A17EE98
:203A4000900AFCF781FD064658460F46FCF77CFD68EE887A804617EE900A8946FCF774FDC0
:203A600002460B46FCF7C8FD424604460D464B4640464946FCF7C0FD22462B46FCF706FCAC
:203A800041EC100B1AF00FFD304653EC102B3946FCF7DCFE41EC100B1AF05AFB4D4B51EC10
:203AA000100B0022FCF7A8FD41A3D3E90023FCF7CDFE494B804618688946FCF745FD02468A
:203AC0000B4640464946FCF7DFFBFDF78DF8324608EE100A3B4630463946FCF78DFD224657
:203AE0002B46FCF7D3FB41EC100B1AF0DCFC55EC104B8BF00040FCF727FD22462B46FCF730
:203B0000A5FE41EC100B1AF023FB324B51EC100B0022FCF771FD26A3D3E90023FCF796FE0B
:203B20002E4B044618680D46FCF70EFD0B46024629462046FCF7A8FBFDF756F8DFED287A3D
:203B4000284B38EE678A07EE900ABDEEC88AFDEEE77A83ED008A244BC3ED007A0CE71E233C
:203B60000093224A0623D0214846FFF77FFE08B158463FE7B8F80030DBBA1F44B8F80230F4
:203B8000DBBA1E44F0EE087AB8F80430B4EEE78ADBBAF1EE10FA1D4404D5F7EE007A38EE9A
:203BA000278A2EE7632C3FF404AF642429E700BF7A008BFCFA2109407404002086EE0108F9
:203BC00094650020BEEE01080000000017EE010800008038008066405C0400206004002027
:203BE0000000B44264040020680400206C0400205FEE0108000000002DE9F0472DED068BDD
:203C00008D4886B018F048F80A2018F05DF88B4B196861B18A4818F03FF80A2018F054F8D2
:203C20000224204606B0BDEC068BBDE8F087854F854E092505231A46D02138460DF042FDE4
:203C4000044668B13046013D18F026F8ADB20A2018F03AF8FFF7CAFD002DEBD10124E0E7D2
:203C6000DFED7A8ADFF8DCA1DFF808929FED788A05460646074680460020FFF795FD3B2371
:203C80008DF81430052300936E48012305AAD021FFF7CAFD002800F0A0806E4817F0FCFF79
:203CA0000A2018F011F8FFF7A1FD0135ADB2B5F57A7FE1D307EE908AF8EEE77A9FED669A67
:203CC00087EEA87A07EE907AF8EEE77A87EEA88A07EE906AF8EEE77A28EE098AC7EEA89A8A
:203CE00067EE098AFDEEE87A17EE903A002BB8BF5B4207EE903AF8EEE77AE9EE897A17EE9C
:203D0000900AFCF721FC41EC1A0B18EE100AFCF71BFCB0EE4A1AF0EE6A1A41EC100B1AF0C7
:203D2000C0FB4E4B51EC100B0022FCF765FC4C4B0022FCF761FCBDEEC88A3DA3D3E900239C
:203D4000FCF784FDFCF750FF18EE103A002BB8BF5B4208EE103AB8EEC88A0646A9EE898AF0
:203D600018EE100AFCF7F0FB41EC190B18EE900AFCF7EAFBB0EE491AF0EE691A41EC100BD2
:203D80001AF08FFB354B51EC100B0022FCF734FC344B0022FCF730FC25A3D3E90023FCF718
:203DA00055FDFCF721FF304B1E60304B054618603046FCF7C9FB02460B462846CDE9022358
:203DC000FCF7C2FBDDE90223CDE90001284817F063FF0A2017F078FF23E71E230093254AC3
:203DE0000623D0215046FFF741FD08B1224855E7B9F80030DBBA9844B9F80230DBBA1F4453
:203E0000B9F80430F4EEC88ADBBAF1EE10FA1E4404D5F7EE007A78EEA78A46E740F2E73361
:203E20009D423FF41BAF4FF47A753EE7AFF300807A008BFCFA210940F0EE01087404002049
:203E400086EE01089465002002EF0108000000000000484317EE010800008038008076404B
:203E60000000E03F0000E0BF5C0400206004002030EF01086C0400205FEE0108F0B5284F56
:203E8000284E85B0052500224FF4007138460CF0C1FB3220FFF788FC01224FF40071384620
:203EA0000CF0B8FB3220FFF77FFC05231A46D02130460DF007FC08B1FFF798FC05231A46D6
:203EC000D02130460DF0FEFB68B1174817F0E4FE013D0A2017F0F8FEFFF788FC15F0FF053C
:203EE000D1D1012418E06B238DF80C3080238DF80D300523009303AA0223D0213046FFF765
:203F000093FC044608B10948E0E70BF021FE084B18602046FFF748FC204605B0F0BD00BFEB
:203F2000000402409465002041EF010817EE0108740400201FB575238DF80C3000238DF86E
:203F40000D301A4B196841B1194817F0A5FE0A2017F0BAFE022004B010BD0A241548009496
:203F6000012303AAD021FFF75FFC48B1124817F093FE204617F0A8FEFFF738FC0120EAE714
:203F8000052300930B48012303AAD021FFF76EFC08B10A48EBE79DF80C106829DBD00848D7
:203FA00017F07AFE204617F08FFEE7E77404002086EE0108946500206BEF010891EF0108A0
:203FC000BAEF01082DE9F0412F4C2368054633B12E4E0BF0BDFD2368643898421CD300236F
:203FE0002B4E2C4FDFF8BC8023600124FFF79EFC08B1FFF7FBFBFFF799FCC0B1264821460C
:2040000017F04AFE01340A2017F05EFEFFF7EEFB0A2CEBD1012035E00020FFF7C5FB216829
:20402000304617F039FE0A2017F04EFED1E7FFF781FF014610B119482146E1E76B20FFF708
:2040400037FC014610B121464046D9E71B20FFF72FFC014610B121463846D1E71C20FFF745
:2040600027FC10B121463046CAE7012D0AD10C4817F012FE0A2017F027FEFFF7BDFD00381C
:2040800018BF0120BDE8F0817404002086EE010887F0010859F00108E9EF010809F0010848
:2040A000B6F001082CF0010807B5F02300210246009308464FF4A073FFF765FA03B05DF860
:2040C00004FB000010B51D4C2368092B17D11C4B5B7A292B13D11B4B1A68012A1A4A06D14A
:2040E000002119601170194B03221A7007E01849087801280BD1117839B10023137000218B
:20410000BDE81040084606F057BA1860F7E700230B70104913700B600F4910480B70104996
:204120000B80104901220B604FF480710CF072FA0A2323600C4B01221A70D4E7C000002022
:20414000ED540020E86D00201B6E0020876700201D6E002020A8002052640020000C02401B
:20416000408600200868002027000020F7B5794DEB7B2BB96B7A1BB92B790BB92B7AB3B19C
:20418000754B1E78012E14D1744A754B14781A7814430ED11E700BF0DBFC724B31461860D7
:2041A000032006F009FAEC736C722C712C7203B0F0BDEE7B6A7A6C49292AD4B218BF6B4AA4
:2041C0004FF000031CBF1360694A0B6018BF1370684B1A78F6B20AB9674B1A80AB7C012B88
:2041E00031D1A4F15903092B01D83B3CE4B2634B19780A4319D1462C17D1114603200192D5
:2042000006F0DAF95E4B5F480221196017F044FD0A2017F059FD019A5B484FF480710CF0AC
:20422000F9F90BF095FC594B1860594F3B680E2B47D8DFE803F06F74784680858A466A6146
:2042400043655D7C5900A4F154030F2BCFD801A151F823F095420008EF41000899420008BF
:20426000EF4100089D420008A1420008A5420008A5420008A9420008EF410008AD42000834
:20428000B1420008B1420008B1420008B5420008B94200083824AAE72D24A8E72824A6E785
:2042A0004D24A4E75124A2E75024A0E74F249EE752249CE749249AE74C2498E7204608F0DD
:2042C000E9FF462C0AD03B68082B04D0062B1EBF304B03221A70304B00221A600023EB7330
:2042E0006B722B712B7262E7204609F025FAE8E7204609F099FAE4E7204609F00BFBE0E729
:204300003146204609F080FBDBE73146204609F02BFCD6E73146204609F0BEFCD1E7204622
:2043200009F0CAFDCDE7204609F09CFEC9E7204609F03EFFC5E73146204609F04DFFC0E74F
:20434000314620460AF01CFABBE7314620460AF04DFAB6E7ED54002016640020176400207D
:20436000186400201C6400204C5F0020E86D00201B6E00205264002040860020ED670020E8
:204380000C680020DBF00108000C0240F0670020C0000020876700201455002030B5094A41
:2043A00001F1C60314685D1AAC4206DB08551368C52B9CBF0133136030BD13F8014D5C70A4
:2043C000F0E700BF0455002070B5984A0546537A167A1179D47B907892790128DBB2F6B2D5
:2043E000C9B2E4B2D2B201D0012A5CD14F2B23D004D8062B17D0192B1BD070BD502BFCD1FA
:204400008B4908680028F8DD8A4B1B689842FDD12B182A5C13F8013C203B18BF012302B939
:2044200001382A1825E084482946BDE8704017F007BD81492846F8E77D4A11680B4618469B
:2044400001332C5C14F0DF0F01D0C528F7D9284440780028D1D0C52BCFD8764800688842AC
:20446000FDD11360C9E71478202C00F1FF3000D10133C643012B4FEAD676C8BF002612F8DD
:2044800001490EB1002CEED1002803DA684B00221A60B2E7431C28444278002AADD0C52B1F
:2044A000ABD80B60A9E72F2B1BD1644C012E206801D001290CD110B9602323609DE7C0B234
:2044C0002946FFF76BFF6020FFF768FF0023F4E708B9B423F1E7C0B22946FFF75FFFB420B9
:2044E000F2E7342B17D1554C012E206801D0012908D108B95E23E0E7C0B22946FFF74EFF43
:204500005E20E1E708B97E23D7E7C0B22946FFF745FF7E20D8E7012E01D001290CD1232B68
:204520000AD1464C206808B9A823C6E7C0B22946FFF734FFA820C7E72A2B12D13C4B19688D
:20454000481EC5283FF659AF3A4A12689142FDD11860C1F1C80229442844BDE8704016F004
:204560002FBE4C2B09D1324B1868C728C0F1C70200F1010188BF0022EDE7A4F120025F2A27
:2045800000F2FE802D4E3368002B00F0F480602B33D1412C00F09780452C00F09680492C17
:2045A00000F095804F2C00F09480552C00F09380612C00F09280652C00F09180692C00F04D
:2045C00090806F2C00F08F80752C00F08E8029466020FFF7E3FE29462046FFF7DFFE002301
:2045E0003360174817F058FB2146164817F054FBBDE870400A2017F067BBB42B24D1412C6B
:2046000075D0452C75D0492C75D04F2C75D0552C75D0612C75D0652C75D0692C75D06F2C42
:2046200075D0752C75D02946B420D2E7ED5400200455002008550020B46100208004002023
:20464000E4F00108EDF001085E2B16D1412C62D0452C62D0492C62D04F2C62D0552C62D0DE
:20466000612C62D0652C62D0692C62D06F2C62D0752C62D029465E20ABE77E2B0AD1412CE1
:204680005DD04F2C5DD0612C5DD06F2C5DD029467E209EE7A82B9ED1412C58D0452C58D0C1
:2046A000492C58D04F2C58D0552C58D0612C58D0652C58D0692C58D06F2C58D0752C58D05A
:2046C0002946A82085E7C02485E7C82483E7CC2481E7D2247FE7D9247DE7E0247BE7E8240A
:2046E00079E7EC2477E7F22475E7F92473E7C12471E7C9246FE7CD246DE7D3246BE7DA24F7
:2047000069E7E12467E7E92465E7ED2463E7F32461E7FA245FE7C2245DE7CA245BE7CE2433
:2047200059E7D42457E7DB2455E7E22453E7EA2451E7EE244FE7F4244DE7FB244BE7C32476
:2047400049E7D52447E7E32445E7F52443E7C42441E7CB243FE7CF243DE7D6243BE7DC2434
:2047600039E7E42437E7EB2435E7EF2433E7F62431E7FC242FE729462046FFF70FFE30E744
:204780004F2B0ED13149324A0B681268E85C28B1C52B03D89342FDD1013382E69342FDD113
:2047A00074E6502B13D12949294A0B681068002B0BDD8342FDD1013B73E60132AC5C002CCE
:2047C000FBD18342FDD10A6017E60022F6E7522B0CD11E491E4A0B6812681B2B03DD934203
:2047E000FDD11C3B5DE69342FDD14FE6512B19D1002300E00133EA5C002AFBD113490A68D2
:2048000002F11C00984208DA1B2A3FF7F6AD104B1B689A42FDD10860EFE50D48006882426A
:20482000FDD13EE64B2B3FF431AE4E2B7FF4E5AD002300E00133EA5C002AFBD1044A106847
:20484000024A11688842FDD10BE600BF04550020085500201F48016801BB1F4B1A6812B912
:2048600005221A607047052A02D11B4B0622F8E7062A01D10822F4E7082A01D10922F0E764
:20488000092A01D10B22ECE70B2A01D10C22E8E70C2A1ED10122026019607047012918D122
:2048A0000D4B1A68002AF7D0012A01D10322D8E7032A01D10422D4E7042AD6D0062A01D196
:2048C0000722CEE7072A04D1044A117000221A6002607047D4040020D0040020C0040020A0
:2048E00013B519234CF21864194618460094FA22FEF7CDFD192318460094FA22BE21FEF7B0
:20490000C6FD1922104600948C233221FEF7BFFD00948C2319223221FA20FEF7B8FD5023F4
:2049200019460094192240F21310FEF7B0FD3C210846009478231C22FEF7A9FD0094782370
:204940001C223C216220FEF7A2FD009478231C223C218820FEF79BFD009478231C223C21DD
:20496000AE20FEF794FD009478231C223C21D420FEF78DFD002002B010BD00002DE9F047BA
:20498000DFF86C91514AD9F80030514F52F82310504CDFF860814FF620524FF6E0750029BC
:2049A00018BF1546590107EB431386B09A7D012A68D193F818A0BAF1000F63D107F108023F
:2049C0008E1888587168444E04AB03C3314604A8FCF7AAFD636800933246236869218B201E
:2049E000CDE9015AFEF711FDD9F8003007EB43131869FBF7A9FD0B4602463849304617F0AA
:204A0000FFF9D9F800309FED367A07EB4317D7ED047A98F80030F4EEC77AF1EE10FA11DB1B
:204A2000012B01D12C23F370CD200023CDE9015363680093284A23687D21FEF7E6FC06B026
:204A4000BDE8F087B2EE047AF4EEC77AF1EE10FA05DB012B01D12C23B370D820E5E7F5EE19
:204A6000C07AF1EE10FA05DD012B01D12C237370E320DAE7BAEE047AF4EEC77AF1EE10FA0B
:204A8000E7DDF1E76368174A00930026236869218B20CDE90156FEF7B8FC98F80030124904
:204AA0000D48012B114B1B7814BF2E222C22B34214BF4323462317F0A3F963680093CDE9C7
:204AC00001562368044A7D21E320B6E7C45F0020C05D00203400002074550020FDF00108B5
:204AE0000000C84204F1010815F10108280100208804002051640020F0B40D2101FB00F314
:204B0000164C1749174D94F804C005F803C01944EA1800236779A679A5784B7164788B712D
:204B2000CB710B724B72104957709670D570147153719371D3711372537201220A7081F8A3
:204B400001C08F70CE700D714C718B71CB710B724B728B72F0BCC0B2FDF7BBBD2968002072
:204B600044630020AC630020446400202DE9F041DFF860E01549164A0D2444430EEB0403A3
:204B80001EF804404C705C7892F804C05779967995788C7052789C7883F805C09F71DE7178
:204BA0001D725A724FF00008CC70DC781B7981F800800C714B7181F806C0CF710E724D723F
:204BC0008A72BDE8F041C0B2FDF783BD4464002029680020AC63002030B5164B164C19787C
:204BE00001EB410301EB8301144B1A68144B53F8225085B09DB1134B1348194417F000F97F
:204C000000234FF62052CDE90132636800930E4A23682D21B420FEF7F8FB05B030BD0B4B8E
:204C20000948194417F0ECF84FF6E073CDE90153EBE700BF7A6700203400002088040020A7
:204C4000C45F0020E9020208745500206D03020830B5154B154C197801EB410301EB8301E2
:204C6000134B1A68134B53F8225085B09DB1124B1248194417F0C4F8002302934FF620536F
:204C80000193636800930D4A23682D21B420FEF7BCFB05B030BD0A4B0848194417F0B0F81F
:204CA00002954FF6E073EBE77A6700203400002088040020C45F00201003020874550020A9
:204CC000940302082DE9F043DFF880801E4E87B00F460524002518F8013B8DF81550002B6C
:204CE00008BF20238DF814307368009320463368CDE9017505AAB9210B34FEF786FBA4B2B2
:204D000040F239139C42E6D1DFF8449005254FF0000819F8013B8DF81580002B08BF2023C8
:204D20008DF814302846736800930B35CDE90178336805AACD21ADB2FEF767FBA542E8D1D1
:204D400007B0BDE8F08300BF340000207C62002098620020494B2DE9F0411F68484D0D2332
:204D60007B438AB0EB5C632B9FBF4FF00A0CB3FBFCFCCCEB4C12CCEB820298BF03EB420333
:204D80004FF00D0202FB075288BF002351788CBF9C46DBB263299FBF0A22B1FBF2F2C2EB2F
:204DA0004210C2EB800098BF01EB40014FF00D0000FB075088BF002180788CBF0A46C9B2DC
:204DC00063289FBF4FF00A0EB0FBFEFECEEB4E14CEEB840498BF00EB44004FF00D0404FBBB
:204DE000075488BF0020E4788CBF8646C0B2632C9FBF0A26B4FBF6F6C6EB4618C6EB880804
:204E000098BF04EB48044FF00D0808FB075588BF00242D7994BFE4B22646632D9FBF0A27C8
:204E2000B5FBF7F7C7EB4718C7EB880898BF05EB4805DFF8608098F800808ABF0025EDB219
:204E40002F46B8F1010F0CBFCDE90021CDE900C3CDE902E015BF0B460A490B49624605A850
:204E600016F0CEFFCDE9017508490094334605AA074816F0C5FF0AB0BDE8F0818804002091
:204E8000AC63002020F101082FF101083EF10108745500204F640020354B2DE9F0411B6862
:204EA000344E0D2202FB03668AB03379632B53D80A257179B1FBF5FCCCEB4C13CCEB830333
:204EC00001EB4301B379B3FBF5F2C2EB4210C2EB800003EB4003F079B0FBF5FECEEB4E1462
:204EE000CEEB840400EB4400347AB4FBF5F7C7EB4718C7EB8808767AB6FBF5F504EB4804E0
:204F0000C5EB4518C5EB880806EB4806C9B2DBB2C0B2E4B2F6B2DFF8708098F80080B8F1CD
:204F2000010F0ABFCDE90023CDE900C10B46CDE902E00ABF10491149624605A816F060FF29
:204F4000CDE901560E4900943B4605AA0D4816F057FF0AB0BDE8F081002427462046A646C5
:204F6000234622462146A44626462546D3E700BF88040020AC63002020F101082FF10108A1
:204F80003EF10108745500204F6400202DE9F04F0D234343574FF95C63299FBF4FF00A0CD8
:204FA000B1FBFCFCCCEB4C13CCEB830398BF01EB43014FF00D0303FB007388BF00215B7878
:204FC0008CBF8C46C9B2632B98BF0A2204469FBFB3FBF2F2C2EB4210C2EB800003EB400391
:204FE0004FF00D0000FB047088BF002380788CBF1A46DBB263289FBF4FF00A0EB0FBFEFE75
:20500000CEEB4E15CEEB850598BF00EB45004FF00D0505FB047588BF0020AD7A8CBF86463B
:20502000C0B2632D9FBF4FF00A08B5FBF8F8C8EB4816C8EB860698BF05EB46054FF00D06EB
:2050400006FB047688BF0025F67A94BFEDB2A846632E9FBF4FF00A09B6FBF9F9C9EB491A1E
:20506000C9EB8A0A98BF06EB4A064FF00D0A0AFB047788BF00263F7B94BFF6B2B146632FCF
:205080009FBF4FF00A0AB7FBFAFACAEB4A1BCAEB8B0B98BF07EB4B07DFF86CB09BF800B083
:2050A0008FB08ABF0027FFB2BA46BBF1010F0DF1240B0ABFCDE90023CDE900C10B46CDE987
:2050C00002E00ABF0C490D496246584616F098FE631CCDE905A7CDE90396CDE901850849DB
:2050E000CDF800B01A46074816F08AFE0FB0BDE8F08F00BF4463002020F101082FF1010852
:205100004BF10108745500204F64002070B506460D460020A84201DB012009E0345C54B93D
:205120002A1A22EAE2722021304416F063F820460023735570BD0130ECE700002DE9F04FDE
:2051400098464FF00B0992FBF9F909F1060385B023F00703144604AFADEB030D0A2C0DF161
:20516000100B09F1FF320546D8BF00220E465846B96AB7F82CA016F015F8B9F1010FACBF1D
:205180000BEB09030BF10103ADB2B6B2A4B24FF0000203F8012C314622462846CDF800A0D5
:2051A000142306F11409FEF772F91FFA88F81FFA89F9A21E681C002300934946434692B2BA
:2051C00080B2FEF764F93A8E144BCDF808A001925A680092B11CE81C5A461B6889B280B26F
:2051E000FEF713F908F11301314453462246284689B2FEF766F92846013D534642464946D2
:205200002544FEF76AF9534642464946A8B2FEF764F90437BD46BDE8F08F00BF34000020FC
:205220002DE9FF47744E754A3178754B754C01EB810102EB8101184616F002FE2278012A61
:205240000ED10C224CF21861CDE901210090C8234FF4A07214210020FFF770FF0023237072
:205260003378DFF8E491684A6548684C684F03EB430102EB410209EBC303664916F0C0FDDF
:205280004CF218650023CDE901536368009323685B4A2D210520FEF7B8F80095152340F281
:2052A000371240210420FEF725F942F2041300934FF49B72142341210520FEF7E8F8F978DB
:2052C00030783B79544A97F806C07D79002900F08E800139CDE9005C01EBC00102EB8102F9
:2052E0004CF2186542F2041A4C494D4816F088FDCDE9015A636800932368494A41210520D8
:20530000FEF783F83278474B47493D4802EB42024FF0000803EB420216F072FDCDE901589E
:20532000636800932368364A96210520FEF76DF80095152340F23712A9210420FEF7DAF8D1
:20534000CDF800A014234FF49B72AA210520FEF79EF83B78BA78009334497B78344816F07C
:205360004FFDCDE9015A636800932368304AAB210520FEF74AF832782E49214809EBC20203
:2053800016F03EFDCDE901586368009323681C4A5F210520FEF739F83278274B27491848B7
:2053A000C2EB02121A4416F02BFDCDE90158636800932368124A78210520FEF726F83278D1
:2053C0001F4B20490E4802EB420202EBC2021A4416F016FDCDE90158636800932368084A01
:2053E000D2210520FEF711F804B0BDE8F087CDE9005C02EB401273E77A6700206FFA0108A9
:205400007455002027000020B5F90108340000202064002069F101086E0502087CF1010857
:20542000C10400205DFA01088FF101085CF50108D80400209EF1010830FA0108A8F10108DB
:20544000DFF9010805F40108C7F90108000000002DE9F04F2DED028B0C4695B000293DD1D6
:20546000002828DD0C234CF21862CDE90132154D154A2B7803EB830302EB830300934FF40E
:20548000A072C82314212046FFF758FE0F4B2A780F49104803EB021216F0B2FC0E4B0294D7
:2054A0004FF6FF7201925A6800921B68094A2D210620FDF7AAFF204615B0BDEC028BBDE862
:2054C000F08F00BF7A67002026050208C0040208B2F101087455002044000020012940F037
:2054E00071810024DFF8F482DFF810932546D8ED047ABDEEE78AB8EEC87A77EEC77A17EE72
:20550000900AFBF721F8D0A3D3E90023FBF774F8FBF722FB0DAA079008F10801002310465E
:20552000013311F8016B02F8016B082BF8D10DF13C0A5146FBF7F8FF671C079BA4490193F6
:205540008DED008A53463A4648468DF84A5016F057FC98F817309F4E012B31780DF1240B62
:2055600040F015819C4B584603EB810116F048FC4FF4FC630693994B03EB441404F11003B9
:205580000FCB8DE80F0094E80F00FBF7ABFE3178002840F00581904B0BA803EB810116F0FC
:2055A0002FFC8F4B8F4A1B7812788F498DED028A012B14BF2E232C23002A14BF43224622A9
:2055C0000592079A894CCDE90332CDE900BA0BAB3A46484616F014FC069B029501936368F2
:2055E0000093C7EB07112D3123684A4689B20E20FDF70BFF082F08F1200840F0C6803378F5
:205600007B4A02EBC3027B4B06921868FAF79CFF4FF6FF77CDE90001069A7749774816F012
:20562000EFFB02950197636800932368734AB4210E20FDF7EAFE327802EB820302EB43027E
:205640006F4B1A446F4B06921868FAF77DFF069ACDE900016C49694816F0D2FBCDE9017537
:20566000636800932368654AB4218C20FDF7CDFE32786649664B61481B68C2EBC2020A445D
:20568000644916F0BDFBCDE901756368009323685A4AC3210E20FDF7B8FE5F4B5F491A6856
:2056A000564816F0ADFBCDE90175636800932368524AC3218220FDF7A8FE59494F4816F08E
:2056C000BFFBCDE901756368009323684B4AC321C820FDF79AFE534B1E78002E6AD15249D6
:2056E000464816F0ADFB02964FF4FC630193636800932368414AC32140F21310FDF785FE7C
:205700004A4A4B49936800930025D2E900234FF6FF763A4816F074FBCDE9016563680093A5
:205720002368364AD2210E20FDF76FFE414A4249137A0593D37904939379039353790293BB
:2057400013790193D378009393782C48527816F057FBCDE90165636800932368274AE12132
:205760000E20FDF752FE3549244816F069FB4FF6E073029501936368009323681F4AE1214C
:20578000D920FDF742FE2C4695E63C46AFE62C4B584603EB810116F033FB4FF6E073E9E6B8
:2057A000274B0BA803EB810116F02AFB4FF478430693F6E62349114816F042FB02954FF4D4
:2057C000784393E7022918BF002474E6AFF30080D0F101087A67002062050208C05D002079
:2057E0005164002028010020E0F101084400002087040208CC5E002001F201087455002089
:205800009F040208385F00200BF20108720402086404002015F201086804002022F201085D
:205820002BF2010816640020C53C0208346800203AF201086468002055F2010880F20108F5
:20584000F004020836F20108000000000088C3402DE9FF41624B634D1A78634F63493B7838
:20586000634CDFF8C881C2EBC20201EB42022846604916F0C5FA0C234CF21861CDE901310E
:205880004FF4A072C823142100200095FFF756FC5949284616F0D4FA00264FF6FF73CDE91F
:2058A0000136636800932A4623682D210620FDF7ACFDB8F90000FAF735FE504B0022FAF7C4
:2058C000C5FFFBF791F9FAF73FFE02460B4628464B4916F095FA3B784A4A013B32F9132049
:2058E000B8F900309A4270D102964FF4FC630193636800932A4623682D216620FDF785FD39
:205900003A78414B03EB421313F8093C012B10D13E49344816F094FA00234FF47842CDE93C
:205920000132636800932F4A23682D21DC20FDF76CFD4FF6FF75002663680093CDE90156E1
:205940002368334A55210620FDF75FFD63680093CDE9015623682F4A69210620FDF755FDEE
:2059600063680093CDE9015623682B4A7D210620FDF74BFD63680093CDE901562368274A55
:2059800091210620FDF741FD63680093CDE901562368234AA5210620FDF737FD6368009328
:2059A000CDE9015623681F4AB9210620FDF72DFD63680093CDE9015623681B4ACD21062059
:2059C000FDF723FD04B0BDE8F08103DA02964FF6E0738CE794DD02964FF6205387E700BF7B
:2059E0007A6700207455002005000020FC040208340000208EF2010898F2010800002440BA
:205A0000A0F20108F6670020C05D0020A7F20108B0F20108BAF20108C4F20108D4F20108A1
:205A2000E5F20108F6F201080BF30108625500202DE9F04F7E4C7F4D2378012B85B009D1F6
:205A400028687D4B392101FB0031C0B2FCF7B6FD00232370794B7A4F1A78012A1BD13A78B1
:205A6000784E794900241C702B6802EBC20201EB420201337549304616F0C2F90C234CF2E4
:205A80001860CDE901300096C8234FF4A07214212046FFF753FB4CF218630021CDE9013130
:205AA0006B4C3A7863686B490093DFF8CCB12368DFF8C8A102EB02120A4405202D21FDF796
:205AC000A4FCDBF80030BBB93A7802EB420102EB810229685AF82110002940F09D804FF490
:205AE000FC63CDE901136368009323685A490A44B4202D21FDF789FC00264CF21868CDE96E
:205B000001863A7863685549009302EB820201EB4202236841210520FDF777FCCDE90186F9
:205B20003A7863684E49009302EB420201EB4202236855210520FDF768FC28685AF82030AD
:205B40004FF620524FF6E079B34218BF9146C0B2FFF700F9CDE90196636800932368394A33
:205B600041219F20FDF751FC2878FFF795F9CDE90196636800932368324A55219F20FDF7C4
:205B800044FCCDE90186636800932368354A69210520FDF73AFCCDE9018663680093236821
:205BA000314A7D210520FDF730FCFEF7E7FECDE901863A7863682D490093C2EBC2022368EE
:205BC00001EB82020520A521FDF71FFCDBF800305BBB4FF62053009340F237122923B72158
:205BE0000420FDF787FC2868214C5AF820104FF620534FF6E07200290CBF11461946FFF79C
:205C000061F82378012B04D12868FEF7AFFF0023237005B0BDE8F08F4FF6E071CDE901314F
:205C2000636800932368134961E748F21043D2E75E55002088040020EC5F00202700002060
:205C40007A670020745500203703020825F30108340000200F0402086D03020842040208BA
:205C6000600402082BF3010836F30108BB0302085F550020E902020808000020C45F002061
:205C80002DE9FF41DFF82883D8F80030042B54D1AE4BAF4A1B68D65C002E42D1AD4FAE4CFA
:205CA0003978AE4BAE4DC1EBC10103EB8101204616F0C6F84FF620534FF4A072CDE9004331
:205CC0001421C82330460296FFF738FA3978A54B01EB4101C1EBC1011944204616F0B0F8C0
:205CE0004CF218684FF47843CDE901836B68009322462B6878210520FDF787FB39789A4B83
:205D000001EB01111944204616F09AF8CDE901866B6800932B682246D7210520FDF775FB0B
:205D200005E0924B01221A60914B03221A70914B01221A7004B0BDE8F081864D884C2978DE
:205D40009A1E012A00F29080834E8B4B01EB01111944304616F074F800274FF620534FF452
:205D6000A072CDE901371421C82338460096FFF7E5F92978814B01EB410103EBC10130465A
:205D800016F05EF84CF2186302970193636800932368324650210520FDF737FB784A2B783F
:205DA0001268012A4FEAC30340F0B38075496A48194416F045F800264FF47843CDE90136BB
:205DC000636800932368644A78210520FDF71DFB6D4B2978604803EBC10116F011F802960A
:205DE0004CF2186301936368009323685A4A78219B20FDF70AFB654B297857481A2201FB54
:205E000002314CF21866002716F01AF8CDE9016763680093504A2368A0210520FDF7F5FAEA
:205E200029785B4B4C48C1EBC10103EB810116F007F8CDE9016763680093474A2368B42137
:205E40000520FDF7E2FA29784348C1EBC10301EB8301504B194415F0F3FFCDE90167636869
:205E6000009323683C4A57E7012B97DC4A4B3A4E01EBC10103EB4101304615F0E1FF002724
:205E80004FF62053CDE9013714210096C8234FF4A0723846FFF752F92978D8F8008001EBB5
:205EA0004101C1EBC101B8F1000F0FD13B4B3046194415F0C5FF4CF21863CDF808800193DE
:205EC00063680093236832465A2164E7344B4CF218681944304615F0B3FF0297CDF80480F2
:205EE00063680093324623685A210520FDF78DFA29782C4B01EB410103EBC101304615F0B5
:205F00009FFFCDE9018763680093236832463C2141E725491048194415F072FF00264CF2C2
:205F20001863CDE901366368009323680A4A78210520FDF76AFA1D4B2978074803EBC1019E
:205F400015F05EFF02964FF478434BE7880400207C5F00207A67002074550020E8F601089F
:205F6000340000203CF701087BF70108C00000208767002027000020DAF50108AEF701085B
:205F8000E85F0020F2F801080AF9010822F901080DF6010891F60108F6F701082CF80108B8
:205FA0006BF80108AAF8010861F6010879F60108E45F00202DE9F043BF4DC04B2978C04A84
:205FC00001EB810101EB8101114418469BB015F037FFBC4A1178012903460DD1002010702C
:205FE0004CF218611F22CDE9012100934FF4A072C8231421FFF7A2F82B78002B40F0B28108
:20600000B149AE4815F01CFF4FF4FC63AF4C0022CDE9013263680093A84A23682D2105207A
:20602000FDF7F3F92B78012B40F0A381A849A34815F006FF4FF4FC630022CDE901326368FF
:2060400000939E4A236846210520FDF7DEF92B78022B40F095819F49984815F0F1FE4FF4CE
:20606000FC630026CDE901366368944A00935F212368994F0520FDF7C8F9984B29788F484A
:2060800003EBC10115F0DCFE4FF6E073019363688A4A00932D21236802969F20FDF7B5F941
:2060A0002B788F4A397803EBC3031A44002940F06E818C49814815F0A3FE4FF4FC63002251
:2060C000CDE9013263687D4A0093462123689F20FDF79BF93B78844A012B2B7803EBC30375
:2060E0001A4440F05B817F49744815F089FE4FF4FC630026CDE901366368704A00935F21D9
:206100002368DFF804929F20FDF77FF92978774B6A4801EB410103EB810115F091FE4FF6D0
:20612000E073019363680093644A236802967D210520FDF76AF999F80030002B40F035815D
:206140006B495E4815F07CFE4FF4FC630022CDE9013263680093594A236896210E20FDF754
:2061600054F999F80030012B40F026816149534815F066FE4FF4FC630026CDE901366368E0
:206180004E4A0093AF212368DFF880810E20FDF73CF92978584B494801EBC101194415F065
:2061A0004FFE4FF6E073019363680093434A236802967D219F20FDF728F998F80030002BFB
:2061C00040F001814D493D4815F03AFE4FF4FC630022CDE9013263680093384A23689621E6
:2061E0009F20FDF712F998F80030012B40F0F2804349324815F024FE4FF4FC630026CDE9A8
:20620000013663682D4A0093AF2123689F20FDF7FCF8162398222A2104200096FDF76AF921
:2062200016239822432104200096FDF763F9162398225C2104200096FDF75CF91623982297
:20624000932104200096FDF755F916239822AC2104200096FDF74EF916239B2243219C20C3
:206260000096FDF747F916239B225C219C200096FDF740F916239B2293219C200096FDF772
:2062800039F916239C2000969B22AC21FDF732F91C4B1878002840F0A4804FF47843009394
:2062A000982216232A210420FDF724F929780348C1EBC1032CE000BF7A670020745500205A
:2062C000ABFA01082700002044F30108340000205CF3010874F301084F640020F6FA0108A1
:2062E000A4FB010890F30108BFFB01080EFB01089EF30108B0F3010832FB0108C2F301085B
:20630000D0F301087C670020516400202801002001EB8301584B194415F092FD4CF21863D3
:206320000022CDE901326368544A0093D22123680320FDF76AF804A8FCF7D9FC3B788DF8B3
:20634000153099F800308DF8163098F800308DF8173004A82B788DF81830FCF71FFC1BB0EB
:20636000BDE8F0834649454815F06AFD4CF218634CE64449414815F063FD4CF218635BE61D
:2063800041493E4815F05CFD4CF2186369E63F493A4815F035FD4CF2186390E63B49374814
:2063A00015F02EFD4CF21863A3E63949334815F047FD4CF21863C9E63649304815F040FD84
:2063C0004CF21863D8E634492C4815F039FD4CF21863FDE63149294815F032FD4CF21863A6
:2063E0000CE7012806D14FF47843009398221623432158E7022806D14FF478430093982237
:2064000016235C214FE7032806D14FF47843009398221623932146E7042806D14FF4784328
:20642000009398221623AC213EE7052807D14FF4784300939B22162343219C2034E70628EF
:2064400006D14FF4784300939B2216235C21F4E7072806D14FF4784300939B221623932145
:20646000EBE708287FF422AF4FF4784300939B221623AC21E1E700BF4DFB010874550020C1
:2064800050F3010868F3010882F3010897F30108A7F30108B9F30108C9F30108D7F301084B
:2064A0001FB50F4A0F4912780F4B104C1B68C2EB0210014400910E49013301EBC20220465E
:2064C0000C4915F09DFC00201F23CDE901300094C8234FF4A0721421FEF730FE04B010BDD3
:2064E0007A67002088F90108880400207455002070F90108DEF301082DE9F04F044687B05A
:20650000002840F0938001221146B1480AF082F8B04B1A78012A01D0002475E0AE4E1C709F
:2065200004F06EFBAD4BAE4AAE49AF4FAF4D304615F066FC0C234CF21862CDE9013214213B
:20654000C8234FF4A07220460096FEF7F7FD3A78A74902EB820205EB4202304615F050FC08
:206560003B78A44A03EB830305EB43051470234615F8011B00294BD104B1137000241F23D5
:20658000CDE901349C4D944A6B6800932B689B4EDA210120FCF739FF3A78347002EBC20318
:2065A000974A1A441146234611F8010B002836D104B133708E49884815F022FC914A137810
:2065C000012B0BD1002313703278072A06D800936E221223DA21D120FCF759FF30787E4A55
:2065E0000230C0EB003300EB830300EB830000241F23CDE901346B68009300F23F102B6821
:20660000DA2180B2FCF701FF204607B0BDE8F08F0133DBB20A2B4FF00104A9D1ADE701339D
:20662000DBB2092B4FF00104BED1C2E7012807D10C23AF22282140F23110FCF74EFF6BE7CE
:20664000022807D10C234FF4A072D7210020FCF738FF61E76C4B032893F8008040F0F48099
:2066600008F10803DBB20593684B694F624CDFF8689103EB880A1C226FF0DF0312FB0833C1
:20668000464607EB481704932D25059BB3427FF743AF604B1A78A6EB08039A425AD1072E22
:2066A00048DCF0B2FEF772FC00234FF4FC6BCDE9013B6368009323684A4629460520FCF7F2
:2066C000A4FE072E2CDC3B7F0BB97B7F63B100234FF4FC6ECDE9013E6368009323684E4A09
:2066E00029461B20FCF791FEDAF80030C3B100234FF4FC6BCDE9013B636800932368474ABF
:2067000029462620FCF781FECDF808B000230193636800932368424A29465220FCF775FE62
:20672000049B15351C330136ADB20AF1040A20370493AAE72C4B049A1978E02313FB012328
:2067400038494846194415F07BFB1B214846FEF7DDFCA9E7072E67DCF0B2FEF717FC48F2CE
:2067600010434FF0000CCDE9013C6368009323684A4629460520FCF748FE072ED0DC3B7FA7
:206780000BB97B7F63B14FF620530020CDE90130636800932368204A29461B20FCF735FE45
:2067A000DAF80030012BBBD14FF620534FF0000BCDE9013B636800932368184A294626202B
:2067C000FCF723FECDF808B04FF620539FE700BF001002402700002074550020E7F30108C6
:2067E000F2F3010802F401087A670020F0FE01080AF401081B550020340000201A5500203A
:2068000035FC010879040020BF670020A45F0020C05D0020BE6700200FF4010811F401089C
:2068200013F4010850FC0108354B049A1978E02313FB012333494846194415F001FB1B216B
:206840004846FEF763FC8AE7042831D12E4B1878404407EE900AF8EEE77A002417EE900A91
:20686000F9F772FE24A3D3E90023F9F7C5FEFAF79BF9C5B22B46009407222A2140F2351073
:20688000FCF705FEC5F1470305F18F0100949BB2072240F23510FCF7FAFD0C230093072226
:2068A000642305F12A0140F23510FCF7F0FDABE605281BD1154B1B78012B11D1144B1B783C
:2068C00073B94FF6E0724FF47841CDE90121114B5A6800921B68104A73212820FCF795FD33
:2068E0000E480022012109F095FE15E6831F5C425C4189E6AFF30080666666666666144051
:206900007A67002050FC0108BE67002016640020176400203C00002015F4010800100240E7
