:020000040800F2
:200000000000022051E1000835D300084DD3000869D3000881D3000899D300080000000038
:20002000000000000000000000000000B1D30008B3D3000800000000B5D30008CDD300086E
:20004000A1E10008A1E10008A1E10008A1E10008A1E10008A1E10008A1E10008A1E1000850
:20006000A1E10008A1E10008A1E10008A1E10008A1E10008A1E10008A1E10008A1E1000830
:20008000A1E10008A1E1000865D40008A1E10008A1E10008A1E10008A1E100085DD40008AA
:2000A000A1E10008A1E10008A1E10008A1E10008A1E10008A1E10008A1E10008A1E10008F0
:2000C000A1E10008A1E10008A1E10008A1E10008A1E1000871D40008A1E10008A1E100080D
:2000E000A1E10008A1E10008A1E10008A1E10008A1E10008A1E10008A1E10008A1E10008B0
:20010000A1E10008A1E10008A1E10008A1E10008A1E10008A1E10008A1E100087DD40008C0
:20012000A1E10008A1E10008A1E10008A1E10008A1E10008A1E10008A1E10008A1E100086F
:20014000A1E10008A1E10008A1E10008C9D40008A1E10008A1E10008A1E10008A1E1000834
:20016000A1E10008A1E10008A1E10008A1E10008A1E10008D5D40008A1E100080000000092
:20018000A1E10008A1E10008FFFFFFFFFFFFFFFF10B5054C237833B9044B13B10448AFF3B5
:2001A00000800123237010BD6003002000000000B4B2010808B5034B1BB103490348AFF339
:2001C000008008BD0000000064030020B4B20108034613F8012B002AFBD1181A013870474C
:2001E00001F0FF01102A2BDB10F0070F08D010F8013B013A8B422DD010F0070F42B3F6D1C5
:20020000F0B441EA012141EA014122F007047FF000070023F0E80256083C85EA010586EA71
:20022000010685FA47F5A3FA87F586FA47F6A5FA87F68EB9EED1F0BC01F0FF0102F007026C
:2002400032B110F8013B013A83EA010313B1F8D10020704701387047002D06BF35460338CF
:20026000073815F0010F07D1013015F4807F02BF013015F4C03F0130F0BC0138704700BF93
:2002800081F0004102E000BF83F0004330B54FEA41044FEA430594EA050F08BF90EA020F8D
:2002A0001FBF54EA000C55EA020C7FEA645C7FEA655C00F0E2804FEA5454D4EB5555B8BF63
:2002C0006D420CDD2C4480EA020281EA030382EA000083EA010180EA020281EA0303362D1A
:2002E00088BF30BD11F0004F4FEA01314FF4801C4CEA113102D0404261EB410113F0004F84
:200300004FEA03334CEA133302D0524263EB430394EA050F00F0A780A4F10104D5F1200EC1
:200320000DDB02FA0EFC22FA05F2801841F1000103FA0EF2801843FA05F359410EE0A5F109
:2003400020050EF1200E012A03FA0EFC28BF4CF0020C43FA05F3C01851EBE37101F0004515
:2003600007D54FF0000EDCF1000C7EEB00006EEB0101B1F5801F1BD3B1F5001F0CD349088F
:200380005FEA30004FEA3C0C04F101044FEA445212F5800F80F09A80BCF1004F08BF5FEA6E
:2003A000500C50F1000041EB045141EA050130BD5FEA4C0C404141EB0101013C28BFB1F5E7
:2003C000801FE9D291F0000F04BF01460020B1FA81F308BF2033A3F10B03B3F120020CDA82
:2003E0000C3208DD02F1140CC2F10C0201FA0CF021FA02F10CE002F11402D8BFC2F1200C96
:2004000001FA02F120FA0CFCDCBF41EA0C019040E41AA2BF01EB0451294330BD6FEA0404CF
:200420001F3C1CDA0C340EDC04F11404C4F1200220FA04F001FA02F340EA030021FA04F320
:2004400045EA030130BDC4F10C04C4F1200220FA02F001FA04F340EA0300294630BD21FA3E
:2004600004F0294630BD94F0000F83F4801306BF81F480110134013D4EE77FEA645C18BF1C
:200480007FEA655C29D094EA050F08BF90EA020F05D054EA000C04BF1946104630BD91EA56
:2004A000030F1EBF0021002030BD5FEA545C05D14000494128BF41F0004130BD14F58004B3
:2004C0003CBF01F5801130BD01F0004545F0FE4141F470014FF0000030BD7FEA645C1ABF2F
:2004E000194610467FEA655C1CBF0B46024650EA013406BF52EA033591EA030F41F400211E
:2005000030BD00BF90F0000F04BF0021704730B54FF4806404F132044FF000054FF000014A
:2005200050E700BF90F0000F04BF0021704730B54FF4806404F1320410F0004548BF404296
:200540004FF000013EE700BF42004FEAE2014FEA31014FEA02701FBF12F07F4393F07F4F10
:2005600081F06051704732F07F4208BF704793F07F4F04BF41F40021704730B54FF4607424
:2005800001F0004521F000411CE700BF50EA010208BF704730B54FF000050AE050EA010206
:2005A00008BF704730B511F0004502D5404261EB41014FF4806404F132045FEA915C3FF4F0
:2005C000D8AE4FF003025FEADC0C18BF03325FEADC0C18BF033202EBDC02C2F1200300FA3C
:2005E00003FC20FA02F001FA03FE40EA0E0021FA02F11444BDE600BF70B54FF0FF0C4CF445
:20060000E06C1CEA11541DBF1CEA135594EA0C0F95EA0C0F00F0DEF82C4481EA030621EAF1
:200620004C5123EA4C5350EA013518BF52EA033541F4801143F4801338D0A0FB02CE4FF074
:200640000005E1FB02E506F00042E0FB03E54FF00006E1FB03569CF0000F18BF4EF0010E9E
:20066000A4F1FF04B6F5007F64F5407404D25FEA4E0E6D4146EB060642EAC62141EA555161
:200680004FEAC52040EA5E504FEACE2EB4F1FD0C88BFBCF5E06F1ED8BEF1004F08BF5FEA36
:2006A000500E50F1000041EB045170BD06F0004646EA010140EA020081EA0301B4EB5C04E5
:2006C000C2BFD4EB0C0541EA045170BD41F480114FF0000E013C00F3AB8014F1360FDEBFC7
:2006E000002001F0004170BDC4F10004203C35DA0C341BDC04F11404C4F1200500FA05F347
:2007000020FA04F001FA05F240EA020001F0004221F0004110EBD37021FA04F642EB0601A1
:200720005EEA430E08BF20EAD37070BDC4F10C04C4F1200500FA04F320FA05F001FA04F24F
:2007400040EA020001F0004110EBD37041F100015EEA430E08BF20EAD37070BDC4F1200516
:2007600000FA05F24EEA020E20FA04F301FA05F243EA020321FA04F001F0004121FA04F2B9
:2007800020EA020000EBD3705EEA430E08BF20EAD37070BD94F0000F0FD101F0004640005B
:2007A00041EB010111F4801F08BF013CF7D041EA060195F0000F18BF704703F000465200BD
:2007C00043EB030313F4801F08BF013DF7D043EA0603704794EA0C0F0CEA135518BF95EA39
:2007E0000C0F0CD050EA410618BF52EA4306D1D181EA030101F000414FF0000070BD50EA3C
:20080000410606BF1046194652EA430619D094EA0C0F02D150EA013613D195EA0C0F05D178
:2008200052EA03361CBF104619460AD181EA030101F0004141F0FE4141F470014FF00000E2
:2008400070BD41F0FE4141F4780170BD70B54FF0FF0C4CF4E06C1CEA11541DBF1CEA135570
:2008600094EA0C0F95EA0C0F00F0A7F8A4EB050481EA030E52EA03354FEA013100F08880CB
:200880004FEA03334FF0805545EA131343EA12634FEA022245EA111545EA10654FEA002629
:2008A0000EF000419D4208BF964244F1FD0404F5407402D25B084FEA3202B61A65EB0305CC
:2008C0005B084FEA32024FF480104FF4002CB6EB020E75EB030E22BFB61A754640EA0C0042
:2008E0005B084FEA3202B6EB020E75EB030E22BFB61A754640EA5C005B084FEA3202B6EBA3
:20090000020E75EB030E22BFB61A754640EA9C005B084FEA3202B6EB020E75EB030E22BF51
:20092000B61A754640EADC0055EA060E18D04FEA051545EA16754FEA06164FEAC30343EA5D
:2009400052734FEAC2025FEA1C1CC0D111F4801F0BD141EA00014FF000004FF0004CB6E7B0
:2009600011F4801F04BF01430020B4F1FD0C88BFBCF5E06F3FF6AFAEB5EB030C04BFB6EB12
:20098000020C5FEA500C50F1000041EB045170BD0EF0004E4EEA113114EB5C04C2BFD4EB50
:2009A0000C0541EA045170BD41F480114FF0000E013C90E645EA060E8DE60CEA135594EA21
:2009C0000C0F08BF95EA0C0F3FF43BAF94EA0C0F0AD150EA01347FF434AF95EA0C0F7FF438
:2009E00025AF104619462CE795EA0C0F06D152EA03353FF4FDAE1046194622E750EA410659
:200A000018BF52EA43067FF4C5AE50EA41047FF40DAF52EA43057FF4EBAE12E74FF0FF3CE3
:200A200006E000BF4FF0010C02E000BF4FF0010C4DF804CD4FEA410C7FEA6C5C4FEA430C83
:200A400018BF7FEA6C5C1BD001B050EA410C0CBF52EA430C91EA030F02BF90EA020F00201C
:200A6000704710F1000F91EA030F58BF994208BF90422CBFD8176FEAE37040F00100704729
:200A80004FEA410C7FEA6C5C02D150EA013C07D14FEA430C7FEA6C5CD6D152EA033CD3D0FF
:200AA0005DF8040B704700BF8446104662468C461946634600E000BF01B5FFF7B7FF002891
:200AC00048BF10F1000F01BD4DF808EDFFF7F4FF0CBF012000205DF808FB00BF4DF808EDC1
:200AE000FFF7EAFF34BF012000205DF808FB00BF4DF808EDFFF7E0FF94BF012000205DF8D4
:200B000008FB00BF4DF808EDFFF7CEFF94BF012000205DF808FB00BF4DF808EDFFF7C4FF78
:200B200034BF012000205DF808FB00BF4FEA410C7FEA6C5C02D150EA013C0AD14FEA430C06
:200B40007FEA6C5C02D152EA033C02D14FF0000070474FF0010070474FEA410212F50012C1
:200B600015D211D56FF47873B3EB625212D94FEAC12343F0004343EA505311F0004F23FA4D
:200B800002F018BF404270474FF00000704750EA013005D111F0004008BF6FF000407047BE
:200BA0004FF00000704700BF4A0011D212F5001211D20DD56FF47873B3EB62520ED44FEABA
:200BC000C12343F0004343EA505323FA02F070474FF00000704750EA013002D14FF0FF3083
:200BE00070474FF0000070474FEA4102B2F1E04324BFB3F5001CDCF1FE5C0DD901F0004C15
:200C00004FEAC0024CEA5070B2F1004F40EB830008BF20F00100704711F0804F21D113F1EE
:200C20003872BCBF01F00040704741F480114FEA5252C2F11802C2F1200C10FA0CF320FA35
:200C400002F018BF40F001004FEAC1234FEAD32303FA0CFC40EA0C0023FA02F34FEA430382
:200C6000CCE77FEA625307D150EA01331EBF4FF0FE4040F44000704701F0004040F0FE4039
:200C800040F40000704700BF53B94AB9002908BF00281CBF4FF0FF314FF0FF3000F06EB9B4
:200CA000ADF1080C6DE904CE00F006F8DDF804E0DDE9022304B070472DE9F047089D044621
:200CC0008C46002B40F083808A42174647D9B2FA82F242B1C2F1200024FA00F091409740FF
:200CE00040EA010C94404FEA1748230CBCFBF8F61FFA87FE08FB16C143EA014306FB0EF194
:200D0000994209D9FB1806F1FF3080F01981994240F21681023E3B445B1AA4B2B3FBF8F00F
:200D200008FB103344EA034400FB0EFEA64509D93C1900F1FF3380F00581A64540F2028116
:200D400002383C4440EA0640A4EB0E0400261DB1D4400023C5E900433146BDE8F08702B95E
:200D6000FFDEB2FA82F2002A50D1CB1B4FEA174E1FFA87F80126B3FBFEFC210C0EFB1C33BB
:200D800041EA034108FB0CF38B4207D979180CF1FF3002D28B4200F2E9808446C91AA3B27A
:200DA000B1FBFEF00EFB101143EA014408FB00F8A04507D93C1900F1FF3302D2A04500F21A
:200DC000D9801846A4EB080440EA0C40BFE78B4209D9002D00F0B1800026C5E9000130465D
:200DE0003146BDE8F087B3FA83F6002E4AD18B4202D3824200F2B880841A61EB0301012052
:200E00008C46002DA8D0C5E9004CA5E7C2F1200320FA03F6974001FA02F04FEA174ED94071
:200E20003043030CB1FBFEF61FFA87F80EFB161143EA014306FB08F1994204FA02F409D9AC
:200E4000FB1806F1FF3C80F08D80994240F28A80023E3B445B1A81B2B3FBFEF00EFB10336A
:200E600041EA034100FB08F38B4207D9791800F1FF3C73D28B4271D902383944CB1A40EA81
:200E8000064678E7C6F1200C03FA06F422FA0CF31C4320FA0CF701FA06F34FEA144E21FA8C
:200EA0000CF11F433B0CB1FBFEF91FFA84F80EFB191143EA014109FB08FA8A4502FA06F2E9
:200EC00000FA06F308D9611809F1FF3048D28A4546D9A9F102092144A1EB0A01BFB2B1FBD6
:200EE000FEF00EFB101147EA014700FB08F8B84507D9E71900F1FF312ED2B8452CD902382C
:200F0000274440EA0940A7EB0807A0FB02894F45C64649461AD317D05DB1B3EB0E0267EB1B
:200F2000010707FA0CFCF2404CEA0202F740C5E9002700263146BDE8F0872E4628460BE79B
:200F40000646E9E61846FDE64345E5D2B8EB020E69EB04010138DFE70846D2E760468DE7CA
:200F60008146B9E7664675E730464AE7ACF1020C394413E702383C4424E700BF704700BF3F
:200F800010B51F498EB044F64252ADF800200A680988ADF802100023110C120ECDE901334F
:200FA0008DF804108DF8052028214FF4A072CDE90412144AADF80C30F024CDE906424FF4F0
:200FC000963C40F6C462CDE909C20B924FF48072CDE90C2308936A46431E00F10D0112F8F6
:200FE000014B03F8014F8B42F9D104AA353012F8011B03F8011F8342F9D10EB010BD00BF96
:20100000000000200100180037B5094C019065680FF0C2F9019B074AB0FBF2F043430193AA
:201020006368019A5B1B9342FAD303B030BD00BF001000E040420F0030B587B004460D4699
:201040001422002101A816F04DFE0122294620460DF00AFE002301A92046CDE9023301958E
:201060000DF088FC07B030BD30B587B004460D461422002101A816F035FE29462046012261
:201080000DF0F2FD11220023CDE9022301A903232046019504930DF06DFC07B030BD0000C6
:2010A0002DE9F84F274BDFF8A48093F8009000273D465FFA87FBD9450BD8234B187808F0CF
:2010C00083FD1DB1012009F04FFA01252846BDE8F88F1C2303FB0B83DA7D8AB3012404FA1D
:2010E0000BF4E0B208F070FD4FF08C0A002002F079FBBAF1010AF9D11C2606FB0BF608EBE8
:20110000060B58F80600BBF80410FFF795FFBBF8041058F806000DF0A1FD0B4B64B21A7861
:2011200028B114431C708BF81AA00137C1E722EA04041C7001231D448BF81A30EDB2F4E76A
:201140009A76F2E7D5080208600400200065002008B50548012280210DF086FD08F05CFD17
:20116000BDE80840FFF79CBF001002407FB50C4604A901E90C00029EBDF80C100191054668
:20118000002230460DF070FD2846FFF73DFF3046019901220DF068FD204604B0BDE87040A9
:2011A000FFF732BF82B06B4683E806000CCB20B905213C2002B0FFF7D9BF3C210520F9E720
:2011C00073B56D4685E806000646002446FA04F095E8060000F001000134FFF7E3FF082C68
:2011E000F4D102B070BD73B56B4683E80300BDF804600CCB05460A210120FFF7B7FF31465A
:201200002846FFF719FF314628460DF027FD04462820FFF7F9FE28463146FFF725FF201E90
:2012200018BF012002B070BD73B56E4686E8030000252C4696E80300FFF7D5FFA84001358A
:201240000444082DE4B2F5D1204602B070BD73B56B4683E80300BDF804600CCB0546462187
:201260004FF4FA70FFF782FF31462846FFF7E4FE314628460DF0F2FC314604462846FFF798
:20128000F3FE4FF4C870FFF7BFFEB4FA84F0400902B070BD84B008B50DF1080C8CE80F005F
:2012A000DCE90001FFF7D3FFBDE80840013818BF012004B0704784B007B50DF1100C8CE899
:2012C0000F00DCE90001FFF7C2FF01281BD104AB93E80600CC20FFF773FF04AB93E80600B9
:2012E0004420FFF76DFF04AA92E803006B4683E80300FFF799FF003818BF012003B05DF818
:2013000004EB04B070470120F8E7000008B54378007800EB0320DB0980B20CD0404280B2CF
:20132000FFF700F9064B0022FFF766F9FFF75CFC00EE100A08BDFFF7F5F8024B0022F3E7AF
:201340000000B0BF0000B03F73B56C4684E80600054694E80300FFF77AFFE0B194E8060097
:20136000CC20FFF72DFF94E80600BE20FFF728FF6E1E083594E80300FFF756FF06F8010F41
:20138000AE42F7D194E80300FFF761FFB0FA80F0400902B070BD0120FBE737B56C4684E871
:2013A0000600054694E80300FFF751FF10B9012003B030BD94E80600CC20FFF701FF94E8AD
:2013C00006004E20FFF7FCFE94E80600A878FFF7F7FE94E80600E878FFF7F2FE94E80600D2
:2013E0002879FFF7EDFE94E80300FFF730FF0028DDD094E80600CC20FFF7E2FE94E806002C
:201400004820FFF7DDFE14200CF01CFF0020CFE710B586B06B4683E80600002204468DF864
:20142000102003A893E80600FFF78EFFA0B99DF810301F2B03D10923237006B010BD3F2BD5
:2014400001D10A23F8E75F2B01D10B23F4E77F2B01D10C23F0E720700120EEE730B587B025
:201460006D4685E806000446002395E806000DF10B008DF80B30FFF7CBFF40B11A4817F073
:201480004DF90A2017F062F9012007B030BD9DF80B30A342F9D0092C11D00A2C11D00B2CD3
:2014A00011D00C2C0CBF7F231F2395E8060003A88DF81030FFF771FF38B10C48DFE71F23C6
:2014C000F3E73F23F1E75F23EFE795E806000DF10B00FFF79DFF0028D0D19DF80B30181BB6
:2014E00018BF0120D1E700BF09B3010825B3010830B593B0C37904938379039343790293F9
:2015000003790193C37800930DAD837842780C462846134917F0B6F99DF838300D9A8DF883
:2015200024300AA9002308928DF8253005220B46A85C01F8010B01320C2AF9D10022BDF882
:2015400040108DF82F208DF81F2007AAADF81C100092044908AA204617F094F913B030BDE6
:201560005BBA010843B301082DE9F04FDFF8D0B08DB006468846044601277B1E98454FF024
:20158000000307DC18361C2298454EDC00200DB0BDE8F08F23764FF0050A04F1100595E863
:2015A00007008DE8070094E80F00FFF773FEA646BEE80F000DF1140CACE80F0095E80700D0
:2015C0008CE80700DDE90501FFF741FE012881460DD195E807008DE8070094E80F00FFF740
:2015E0006AFEF8B984F8169001371C34C5E71248394617F093F80A2017F0A8F80023A37505
:20160000E37D002BF0D0BAF1010AC8D1E37D012BEAD123763946584617F080F80A2017F083
:2016200095F8E1E705483946E3E702FB03F1705C0128ACD00133A7E74AB3010870B3010869
:20164000A6B3010830B50246014400208A4200D130BD12F8015B082480EA050313F0010FF5
:201660004FEA50001CBF80F08C03D8B2631E13F0FF044FEA5505EFD1E8E7000070B5304A35
:2016800086B0516804461068127A03AB03C394E803001A7001AB83E80300FFF7C5FD08B9FD
:2016A000012538E094E80300FFF7D1FD0028F7D094E80600CC20FFF783FD94E80600BE2076
:2016C000FFF77EFD03AE092594E80300FFF7ACFD013D15F0FF0506F8010BF5D1082103A8B1
:2016E000FFF7B0FF9DF81430834222D19DF80D309DF80C0000EB032080B2DE09A0820DD01B
:20170000404280B2FEF70EFF0E4B0022FEF774FFFFF76AFA2061284606B070BDFEF702FF0E
:20172000094B0022FEF768FFFFF75EFA35462061F1E7064816F0F2FF0A2017F007F8AFE7AA
:20174000D0B201080000B0BF0000B03FDEB301082DE9F0418AB006AD85E80600264A0646A3
:201760005168106808AB03C395E80300FFF76FFD00283ED095E806003320FFF721FD08AF06
:20178000B846082495E80300FFF74EFD013C14F0FF0408F8010BF5D1072108A8FFF752FF29
:2017A0009DF8273083420BD1731EF01D17F8012B03F8012F8342F9D120460AB0BDE8F081D3
:2017C00004939DF8263003939DF8253002939DF8243001939DF8233000939DF821209DF80F
:2017E00022309DF82010054816F098FF0A2016F0ADFF0124E0E700BFD9B2010800B4010810
:201800002DE9F04F2DED028B8FB08B460490C4480FF080F9049B23F00203012B7CD100264E
:201820005C4635460DF11C09237E012B06F101066DD04FF0000A4FF0020804F1100797E843
:2018400007008DE8070094E80F00FFF723FDA646BEE80F000DF11C0CACE80F0097E8070074
:201860008CE8070099E80300FFF7F1FC012812D1A07597E807008DE8070094E80F00FFF7E2
:201880001AFD8046BAF1090F18D00AF1010AB8F1000FD2D10BE03146A24816F03FFF0A20A5
:2018A00016F054FF0023A375E37D002BEAD1BAF1010F1CDD9C485246314613E0E77D012F20
:2018C00040F01C8131469948277616F027FF0A2016F03CFF3D469649484616F0F3FF9548EA
:2018E0004A46314616F01AFF0A2016F02FFF082E04F11C0498D1049B032B64D1002528461B
:201900000FB0BDEC028BBDE8F08F8B49E4E731468A4816F003FFE7E7049B002B52D108F00B
:2019200001FE049D9FED868A5C4601270026237E012B36D0E31D4FF000084FF0020B0DF117
:201940001C090593A37D43B3A646BEE80F000DF11C0CACE80F009EE807008CE8070099E8C1
:201960000300FFF774FC012882463ED0002323726372A372E37223736373A373E373E37DD0
:20198000002B42D1DFED6F8ADFF8DCA14FF00A084FF00209A37D002B59D1E37D012B00D183
:2019A00023760137092F04F11C04C0D1049B73B9002EA3D0644816F0B1FE0A2016F0C6FEB7
:2019C00035469CE70025049B022BABD0002654480FF090F8002E91D0002D8FD05B4816F090
:2019E0009DFE0A2016F0B2FE89E794E806004846FFF7AEFE90B14146554816F08FFE0A2028
:201A000016F0A4FE564658468346B8F1090F10D008F10108BBF1000F94D1B3E74A4604F139
:201A20000F0312F8011B03F8011905999942F8D1EAE794F81780B8F1010FA3D139464548EA
:201A400016F06CFE0A2016F081FE45469AE72046FFF714FEA37D002818BF0126012B36D174
:201A6000D4ED047AF4EEE87AF1EE10FA06DAB1EE047AF4EE477AF1EE10FA15D817EE900AE5
:201A8000FEF762FD009702460B46504616F046FE0A2016F05BFE0126B8F101081DD0B9F1E9
:201AA000000F7FF477AF7CE72B4B1B78012B09D0F2EE026A67EEA67AC7EE876ADFED277A39
:201AC00076EEA77AC4ED047A4FF00009E4E7E37D84ED048A002BDFD163E794F81780B8F1EF
:201AE000010F7FF45EAF39461D4816F017FE0A2016F02CFE454684F8188052E7B8F1000F6D
:201B00003FF4D8AEB8F1030F3FF4E5AEB8F1010F3FF4FBAEB8F1020F7FF4E1AE1149DBE61F
:201B2000C06600204AB301089FB401083EB40108F1B4010869B401088C040208D7B4010800
:201B4000000000000000A0427BB501088CB50108F9B4010810B501082C010020000000420D
:201B600066B5010864B4010820B501082DE9F04F2DED028B9FED6D8ADFED6D8A8DB0064677
:201B8000894600F110044FF00008C1450BDC002318361C22994500F3C18000200DB0BDECF6
:201BA000028BBDE8F08F237A012BA4F1100551D0A379002B4ED0E379002B4BD04FF0000A90
:201BC0004FF0020B05F1100797E807008DE8070095E80F00FFF75EFBAE46BEE80F000DF128
:201BE000140CACE80F0097E8070005AF8CE8070097E80300FFF72BFB012816D195E806003C
:201C00003846FFF7A5FD48BBA4F1080317F8012B03F8012B9C42F9D12846FFF72FFD08F178
:201C2000010758B3434839461AE0002304F8083C04F8073C04F8063C04F8053C04F8043C34
:201C400004F8033C04F8023C04F8013CE37984ED008A53B908F101081C3496E7364851468F
:201C600016F05CFD0A2016F071FDBAF1090F37D00AF1010ABBF1000FA4D1EBE7D4ED007A5A
:201C8000F4EEE87AF1EE10FA09DAF1EE046AF4EEE67AF1EE10FA94BF012300230FD817EE36
:201CA000900AFEF751FC009702460B46234816F035FD0A2016F04AFD84ED008AD5E7627A6B
:201CC000012A0BD0B2EE027A67EE877A87EEA67ADFED1B7A77EE277AC4ED007A9B46C4E7D9
:201CE00008F10101174816F019FD0A2016F02EFD01232372002304F8083C04F8073C04F8BC
:201D0000063C04F8053C04F8043C04F8033C04F8023C04F8013C84ED008A9BE702FB03F1EC
:201D2000705C01283FF43AAF013333E7000000000000A042A2B50108F9B4010820B501086E
:201D400000000042C4B5010808B50B480B4A0C4BC0E9002300234FF48042C0E90233C0E988
:201D60000423C0E9063303620DF0B2FC18B1BDE8084008F04BBF08BD746100200054004044
:201D8000A086010070B50E4C0E4E0546012086B020703078012808D00A98009028460DF0C9
:201DA00059FD0023237006B070BD0020CDE90423039101F017FDDDE904230399E9E700BF86
:201DC0006F0500208804002070B50E4C0E4E0546012086B020703078012808D00A980090DB
:201DE00028460DF00FFE0023237006B070BD0020CDE90423039101F0F5FCDDE904230399D6
:201E0000E9E700BF6F05002088040020030903EB830300F00F0000EB4300C0B270470A23F0
:201E2000B0FBF3F3C3EB4312C3EB820200EB420040EA0310C0B2704710B5052386B00446DC
:201E400002223E48D0210DF04DFF50B13C4816F065FC0A2016F07AFCFFF776FF012006B0CA
:201E600010BD8DF810002078FFF7D9FF8DF811006078FFF7D4FF8DF81200A078FFF7CFFFF0
:201E80008DF81300E078FFF7CAFF8DF814002079FFF7C5FF8DF815006079FFF7C0FF8DF8FA
:201EA0001600A079FFF7BBFF64238DF8170000932248082304AAD021FFF764FF08B12148DE
:201EC000C5E702A800F042F808B11F48BFE723789DF808009DF809206178834208BF91428E
:201EE000A2789DF80A000CBF01230023824214BF002303F00103A2799DF80E00824214BF11
:201F0000002303F0010362799DF80D00824214BF002303F0010322799DF80C00824214BFA6
:201F2000002303F00103E2789DF80B00824214BF002003F0010080F0010090E77461002005
:201F4000DDB501080AB6010825B601082DE9F043052389B0054602225148D0210DF0C2FED9
:201F600060B1504816F0DAFB0A2016F0EFFBFFF7EBFE0124204609B0BDE8F0836426DFF827
:201F800020813746009701230022D0214046FFF7F9FE08B14448E5E702AA00970723D02173
:201FA0004046FFF711FF024608B14048DAE700970123D0214046FFF7E5FE08B13C48D1E74B
:201FC0000097072304AAD0214046FFF7FDFE044608B13848C6E702AA04AB012112F801EB87
:201FE00013F801CB0130E64518BF00210728F5D1013E01D00029C5D09DF80800FFF706FF5B
:20200000814628709DF80900FFF700FF014668709DF80A00FFF7FAFE0246A8709DF80B0022
:20202000FFF7F4FE8046E8709DF80C00FFF7EEFE074628719DF80D00FFF7E8FE687106468E
:202040009DF80E00FFF7E2FE3B2998BF172A8CBF01210021B9F13B0F94BF0B4641F00103B0
:2020600008F1FF32062A94BF1A4643F00102013F1E2F88BF42F00102A8711AB9013E0B2EB0
:202080007FF678AF4FF08073069340F20113ADF81C3006A800238DF81E30FFF7CDFE68E7EE
:2020A0007461002040B601080AB601086FB601088DB60108A8B601081FB564238DF80C0096
:2020C0008DF80D1000930948022303AAD021FFF759FE40B1064816F021FB0A2016F036FBA8
:2020E000FFF732FE012005B05DF804FB74610020C6B6010830B585B064250C468DF8080094
:2021000000951048012302AAD021FFF73BFE50B10D4816F003FB0A2016F018FBFFF714FE3D
:20212000012005B030BD07480095012303AAD021FFF74AFE08B10548EBE79DF80C302370BC
:20214000EFE700BF74610020C6B60108EAB601082DE9F3410646084617461D46FFF75FFED0
:2021600004463846FFF75BFE80462846FFF757FE07469DF82000FFF752FEF20744BF64F031
:202180007F04E4B2B30748BF68F07F08054648BF5FFA88F8700744BF67F07F07FFB231071B
:2021A00044BF65F07F05EDB2F20644BF45F04005EDB2330623D421460720FFF77DFF48B167
:2021C000314816F0ABFA0A2016F0C0FA012002B0BDE8F0810DF107010720FFF78BFF08B1A2
:2021E0002A48EEE79DF80700041B18BF0124082641463046FFF760FF20B12548E1E7002437
:202200000B26F5E70DF107013046FFF773FF08B12048D6E79DF80730434518BF601C06F151
:20222000010818BFC4B239464046FFF745FF08B11948C6E70DF107014046FFF75BFF08B1AD
:202240001648BEE79DF80730BB4218BF601C06F1020618BFC4B229463046FFF72DFF08B153
:202260000F48AEE70DF107013046FFF743FF08B10C48A6E79DF80730AB4201D00A48A0E7C1
:20228000201E18BF0120A2E711B7010835B7010858B701087CB701089FB70108C3B7010883
:2022A000E6B701080AB801082DB8010837B504460D460E206946FFF71DFF40B1164816F0F2
:2022C0002DFA0A2016F042FA012003B030BD0123013C03FA04F49DF80030012D06BF43EA6F
:2022E0000401C9B223EA04010E208DF80010FFF7E3FE08B10948E2E701A90E20FFF7FAFE19
:2023000008B10748DBE79DF800209DF804309A42DBD00448D3E700BF52B801087CB80108D9
:20232000A3B80108C9B8010837B504460D460F206946FFF7DFFE40B1174816F0EFF90A200D
:2023400016F004FA012003B030BD631E9DF80020012404FA03F312EA03001AD022EA030170
:202360000F208DF80010FFF7A7FE08B10B48E4E701A90F20FFF7BEFE08B10948DDE79DF839
:2023800000209DF804309A4201D12C70DBE70548D3E72870D7E700BFF1B801080EB90108AA
:2023A0002CB9010849B9010813B50C460F2001A9FFF7A0FE40B1074816F0B0F90A2016F07E
:2023C000C5F9012002B010BD9DF8043023F07F032370F7E768B9010813B5044669460E20B7
:2023E000FFF788FE40B1154816F098F90A2016F0ADF9012002B010BD9DF80010032C9DBFD6
:2024000021F01C0141EAC400C1B241F004010E208DF80010FFF750FE08B10948E4E701A970
:202420000E20FFF767FE08B10648DDE79DF800209DF804309A42DDD00348D5E78AB90108EE
:20244000ACB90108CFB90108F1B9010870B586B00BF072F90446C8B93248334D314E16F0BF
:202460005DF90A2016F072F90BF066F900284DD1304616F053F90A2016F068F901344FF4FA
:20248000FA70E4B201F0AEF9032CEDD9274C284D002001F0A7F92378072B3FD04FF4FA708D
:2024A00001F0A0F94FF4FA7001F09CF94FF4FA7001F098F94FF4FA7001F094F901231D487C
:2024C0002B7016F02BF90A2016F040F90BF094F8194A0123E15C02F8011B0133092BF9D13B
:2024E000237A0493E3790393A37902936379019323790093E378A2786178104816F00EF9B3
:202500000A2006B0BDE8704016F020B9284616F005F90A2016F01AF90424AFE700232B7076
:20252000D4E700BF15BA010827BA0108046700207C03002037BA01088064002048BA01082C
:20254000214A38B50005138800F57E25B3EB154F144616D2020CB3EB104F4FF0000038BF66
:20256000228001F03FF90022208811460BF098FA10B920880BF09CF923880133238002203D
:2025800021E0FCD1114B1988B1EB153F1C4616D200F57020B1EB103F4FEA10334FF000000B
:2025A00038BF238001F01EF90022208811460BF0D7F90028E0D120880BF038F9DCE7DED16E
:2025C00000201080188038BD94030020960300201A4A38B50005138800F57E25B3EB154FC3
:2025E000144610D2020CB3EB104F4FF0000038BF228001F0F7F820880BF0B6FB23880133A9
:202600002380022019E0FCD10D4B1988B1EB153F1C460ED200F57020030BB1EB103F4FF047
:20262000000038BF238001F0DDF820880BF070FBE4E7E6D100201080188038BDB00300209A
:20264000B203002030B51B4B00051A880D4600F57E21B2EB112FC1B01C4627D2B2EB102F47
:202660004FEA10234FF0000038BF238001F0BAF84FF480730022684621880BF0DDFB0022CE
:202680006B46104613F8011B0130A94218BF0132B0F5807FF6D122B100232380012041B0D0
:2026A00030BD2388013323800220F8E7FCD100201880F4E77E030020234A38B500051388AF
:2026C00000F57E25B3EB154F144619D2020CB3EB104F4FF0000038BF228001F083F80022AA
:2026E000208811460BF0DCF920B1238801332380022004E0154A002323801380012038BDE4
:20270000F6D1124B1988B1EB153F1D4616D200F57020B1EB103F4FEA10334FF0000038BF97
:202720002B8001F05FF80022288811460BF018F90028DFD02B8801332B80D9E7D8D100207F
:2027400010801880DBE700BF980300209A0300202DE9F0470023C0B006030C461A46314646
:202760004FEA005868460BF067FB04F139030021187820281A4603F1FF3303D11878202861
:2027800008BF5970A342F3D15D1EEA4602F137032F466A4600249F421FD1BCB36A462B467E
:2027A000BB4223D100224FEA1838114640460BF0D7F88146F8B100231A46314668460BF0C3
:2027C0004FFA00231A46314668460BF035FBBD4220D1003C18BF012418E012F8011B17F888
:2027E000010F88421CBF0134E4B2D4E713F8011F02F8011BD4E740460BF018F84A464946F2
:2028000040460BF0ADF80028D5D10124204640B0BDE8F0871AF8013B15F8012F9A421CBFEB
:202820000134E4B2D3E710B5C0B04FF4807300220C46010368460BF0FFFA00236A4618465D
:2028400012F8011BFF2914BFE154E0540133392BF6D1002040B010BD2DE9F041C4B00B7874
:202860008DF804304B788DF805308B788DF80630CB788DF807300B798DF808304B798DF8DB
:2028800009308B798DF80A30CB798DF80B300B7A8DF80C3004054B7A8DF80D3004F57E24C7
:2028A0008B7A8DF80E30270A00231A46394604A80BF0C2FA01AD04AE002331462A461846F2
:2028C00012F801EB11F801CBE64518BF013003F1010318BFC0B20B2BF2D100283BD004A9E0
:2028E00001AB0022013213F8010B01F8010B0B2AF8D10022240B114620460BF031F88046C5
:20290000F0B100231A46394604A80BF0A9F900231A4604A839460BF08FFA0023184615F80B
:20292000011B16F8012B914218BF013003F1010318BFC0B20B2BF2D1003818BF01200AE012
:2029400020460AF073FF4246414620460BF008F80028D6D1012044B0BDE8F08110B50C4624
:202960000105C0B001F57E2168464FF480730022090A0BF061FA9DF8003023709DF80130BF
:2029800063709DF80230A3709DF80330E3709DF8043023719DF8053063719DF80630A37195
:2029A0009DF80730E3719DF8083023729DF8093063729DF80A30A372002040B010BD000031
:2029C00010B5304B0005196800F58042120A8A42C0B01C4651D900F58050B1EB102F4FEABD
:2029E00010234FF0000038BF236000F0FBFE21684FF48073002268460BF01EFA694600238E
:202A000011F8012BFF2A0BD12168FE200DF8030003EB01210BF0E4F80020206040B010BD89
:202A200012B3FE2A08D1FC220DF8032021681DF8030003EB0121EDE7FC2A01D1F822F3E719
:202A4000F82A01D1F022EFE7F02A01D1E022EBE7E02A01D1C022E7E7C02A01D18022E3E726
:202A6000802AE3D10022DFE70133B3F5807FC7D12368013323600220D0E7FCD100221A6019
:202A80000120CBE7AC03002038B5040504F58054240BA51C0022114628460AF061FF08B9DF
:202AA000280138BD01340022114620460AF058FF08B92001F5E70020F3E70000F0B5324ABA
:202AC000030505460E46106803F58041090A8142C1B0144652D903F58053B0EB132F4FEA71
:202AE00013274FF0000038BF176000F07BFE216800224FF4807368460BF09EF96A46002194
:202B000012F8013BFF2B0AD12368DB1B01EB0323DB00002046F82530206041B0F0BD23B355
:202B2000FE2B1A4A09D1012313702368DB1B01EB0323117801EBC303EBE7FC2B01D10223C9
:202B4000F2E7F82B01D10323EEE7F02B01D10423EAE7E02B01D10523E6E7C02B01D106230F
:202B6000E2E7802BE1D10723DEE70131B1F5807FC6D12368013323600220CEE7FCD10023C9
:202B800013600120C9E700BFA40300209C03002030B5132387B0594313788DF804305378AF
:202BA0008DF8053093788DF80630D3788DF8073013798DF8083053798DF8093093798DF82A
:202BC0000A30D3798DF80B30137A8DF80C30537A8DF80D30937A8DF80E30D37A8DF80F30F1
:202BE000137B8DF81030537B8DF81130937B8DF81230D37B8DF81330137C8DF81430537CDC
:202C00008DF81530937C8DF816301B4B01EB005000F580421968133291421D4628D200F5CC
:202C20008044A1424FF0000038BF1C6000F0DAFD296806AA0B1B134413F8140C0AF0D0FFC2
:202C40000DF1030029680BF0B9F82B6806AA1C1B14449DF8032014F8141C914217BF0023A4
:202C600001332B60012004BF2B60022007B030BD00201860FAE700BFA8030020132337B53B
:202C800059432B4D01EB005000F5804329681333994218D200F58044A1424FF0000038BFBE
:202CA0002C6000F09FFD29680DF107000BF086F82B68204A9DF807101C1B013311552B60E8
:202CC000022003B030BD1C4B1120002113F8014BFF2C08BF03F8011C0138F7D1154B197826
:202CE00011705978517099789170D978D170197911715979517199799171D979D171197A3A
:202D00001172597A5172997A9172D97AD172197B1173597B5173997B9173D97BD173197CF9
:202D20001174597C51749B7C93742860C9E700BFA00300208003002082030020F0B5CDB032
:202D400003788DF8043043788DF8053083788DF80630C3788DF8073002AA031D00F124013B
:202D600013F8014B02F8014B8B42F9D10AAA2A3013F8011B02F8011B8342F9D100231A46C2
:202D800047F6F0710CA80BF057F801AD0CAC002321462A46184612F8017B11F8016BB742E5
:202DA00018BF013003F1010318BFC0B22C2BF2D100283FD00CA901AB0022013213F8010BAC
:202DC00001F8010B2C2AF8D10022114640F2FF700AF0C6FD064600B300231A4647F6F071D8
:202DE0000CA80AF03DFF00231A460CA847F6F0710BF022F80023184615F8011B14F8012B1D
:202E0000914218BF013003F1010318BFC0B22C2BF2D1003818BF01200CE040F2FF700AF0C5
:202E200005FD3246314640F2FF700AF099FD0028D2D101204DB0F0BD10B5C0B04FF480736F
:202E4000002247F6F071044668460AF0F5FF6A462C23002112F8010BFF2808BF02F8011C91
:202E6000013BF7D19DF8003023709DF8013063709DF80230A3709DF80330E37001AA231D7D
:202E800004F1240112F8010B03F8010B8B42F9D109AA2A3412F8011B03F8011BA342F9D167
:202EA000002040B010BD00000248002280210BF0DBBE00BF000C02400248012280210BF07E
:202EC000D3BE00BF000C024010B5084C0022202120460BF0C9FE05200BF0B4F9204601225A
:202EE000BDE8104020210BF0BFBE00BF000C024007B500238DF8043001224FF0FF3301A941
:202F000003480DF0D1FC9DF8040003B05DF804FB5C62002007B500228DF807004021074804
:202F20000BF0A2FE4FF0FF3301220DF1070104480DF027FB03B05DF804FB00BF000C0240DD
:202F40005C620020F8B5012205460C460B480C4F40210BF089FE04B9F8BDB4F5004F2646BF
:202F600028BF4FF4004629464FF0FF33B2B238460DF007FB3544A41BEDE700BF000C024007
:202F80005C62002007B540BAADF80400022101A8FFF7D8FF03B05DF804FBF7B507462A2011
:202FA00016461C460D46FFF7B5FF04210DEB01007FBA76BAADF80470ADF80660FFF7C2FFF4
:202FC0002B20FFF7A7FF04210DEB01006DBA64BAADF80450ADF80640FFF7B4FF2C20FFF7D8
:202FE00099FF03B0F0BD0000F7B51C468318B3F5A07F154601EB0403C4BFC0F5A075ADB26F
:20300000F02BC8BFC1F1F0040F460646C8BFA4B2FFF74AFF7B1E721E23442A4439469BB2E1
:2030200092B23046FFF7B9FFBDF820300E480F4F5BBA01224021ADF804300BF015FE8CB9AA
:20304000FFF73AFF03B0F0BD4FF0FF33022201A938460DF096FA013EB6B2002EF4D1013CC0
:20306000A4B2ECE72E46F8E7000C02405C62002030B5012285B04FF0FF3300218348844C3E
:203080000DF07FFAFFF710FFFFF71EFF782000F0A9FB0120FFF73EFF782000F0A3FBCB2011
:2030A000FFF738FF206823790090052168468DF80430FFF747FFCF20FFF72CFF23460321C9
:2030C00033F8052FADF800209B788DF802306846FFF738FFE820FFF71DFF34F8082FADF805
:2030E0000020A3788DF8023003216846FFF72AFFEA20FFF70FFF002402216846ADF8004005
:20310000FFF720FFED20FFF705FF624B009304216846FFF717FFF720FFF7FCFE2023012108
:2031200068468DF80030FFF70DFFC020FFF7F2FE2323012168468DF80030FFF703FFC120C0
:20314000FFF7E8FE1023012168468DF80030FFF7F9FEC520FFF7DEFE42F63E0302216846ED
:20316000ADF80030FFF7EEFEC720FFF7D3FE8623012168468DF80030FFF7E4FE3620FFF798
:20318000C9FE4823012168468DF80030FFF7DAFE3A20FFF7BFFE5523012168468DF80030A0
:2031A000FFF7D0FEB120FFF7B5FE4FF4C05302216846ADF80030FFF7C5FEB620FFF7AAFEA8
:2031C000354B03211A889B78ADF8002068468DF80230FFF7B7FEF220FFF79CFE012168464F
:2031E0008DF80040FFF7AEFE2620FFF793FE012168468DF80010FFF7A5FEE020FFF78AFE1F
:20320000264B6A4603F1080518685968144603C40833AB422246F7D1186899889B79A37109
:203220002060A18068460F21FFF78CFEE120FFF771FE1B4B6A4603F1080518685968144677
:2032400003C40833AB422246F7D1186899889B79A3712060A18068460F21FFF773FE11206F
:20326000FFF758FE782000F0BDFA2920FFF752FE3620FFF74FFE2823012168468DF80030CB
:20328000FFF760FEFFF718FE05B030BD5C620020E1B201086403128178BA01087CBA01083E
:2032A000ECB2010882B02DE9F74FDEB2C3F3072514460D93721E6B1E0B4402449BB292B22E
:2032C000BDF83C80FFF769FEC72C70D0E72C70D0B42C70D0A82C70D0C02C70D0C12C70D00D
:2032E000C22C70D0C32C70D0C42C70D0C82C70D0C92C70D0CA2C70D0CB2C70D0CC2C70D033
:20330000CD2C70D0CE2C70D0CF2C70D0D22C70D0D32C70D0D42C70D0D52C70D0D62C70D0BF
:20332000D92C70D0DA2C70D0DB2C70D0DC2C70D0E02C70D0E12C70D0E22C70D0E32C70D03D
:20334000E42C70D0E82C70D0E92C70D0EA2C70D0EB2C70D0EC2C70D0ED2C70D0EE2C70D0BC
:20336000EF2C70D0F22C70D0F32C70D0F42C70D0F52C70D0F62C70D0F92C70D0FA2C70D047
:20338000FB2C70D0FC2C70D07F2C28BF2024BDF840A0203C6C4364004FF000099AFA9AFA14
:2033A000A94564D303B0BDE8F04F02B070477F24EDE78024EBE78124E9E78224E7E783246B
:2033C000E5E78424E3E78524E1E78624DFE78724DDE78824DBE78924D9E78A24D7E78B2469
:2033E000D5E78C24D3E78D24D1E78E24CFE78F24CDE79024CBE79124C9E79224C7E7932489
:20340000C5E79424C3E79524C1E79624BFE79724BDE79824BBE79924B9E79A24B7E79B24A8
:20342000B5E79C24B3E79D24B1E79E24AFE79F24ADE7A024ABE7A124A9E7A224A7E7A324C8
:20344000A5E7A424A3E7A524A1E7A6249FE7A7249DE7A8249BE7A92499E7AA2497E7AB24E8
:2034600095E7AC2493E7AD2491E7AE248FE70E9B33F804B00027BE4203D809F10109023431
:203480008EE70BFA07F31B0409D598FA98F3ADF80430022101A8FFF755FD0137EBE7ADF802
:2034A00004A0F6E782B02DE9FF470446BDF83C90BDF840A00D9388461546DFB2C3F3072660
:2034C000FFF7F2FC15F8012B2AB904B0BDE8F04702B0FFF7F1BCE319B3F5A07F0BDB08EB6B
:2034E00006031FFA83F816FA83F3EF2BEDDC202A4FF00004E6D00E9B8DF834708DF8356097
:2035000000932046CDE9019A0D9B41463C44FFF7C9FEA4B2D6E730B4B0F5A07FBDF808502D
:2035200005D2EF2903D8029530BCFFF75DBD30BC704707B500210090F0234FF4A072084668
:20354000FFF752FD03B05DF804FBB0F5A07F13B505D2EF2903D800930123FFF7DCFF02B08F
:2035600010BDB0F5A07F13B506D2EF2904D8009313460122FFF7CFFF02B010BD2DE9F3418A
:20358000B0F5A07FBDF8207004460D4690461E4620D2EF291ED800970123FFF7BCFFA9191D
:2035A000424620460097012389B2FFF7B4FF33462946204600970122FFF7ADFF04EB0800DD
:2035C00033460122294680B2089702B0BDE8F041FFF7A1BF02B0BDE8F081B0F5A07F13B5DD
:2035E000144610DAEF290EDC80B289B24B1C421C9BB292B2FFF7D1FC64BA022101A8ADF870
:203600000440FFF79FFC02B010BD2DE9F74FBDF8306007460C4698469146FFF745FC2644C0
:2036200008EB070BB6B24FF0000A1FFA8BFBB44215D009EB4A033D4621B20AE033F8022B81
:2036400028B2CDE90013FFF7C8FFDDE900130135ADB25D45F2D10134C244A4B2E7E703B025
:20366000BDE8F04FFFF728BC2DE9F74FA3EB0109A2EB000AB9F1000FB8BFC9F10009BAF163
:20368000000FB8BFCAF1000AD145BDF8307004460D46904603DD98460C46134605464445C4
:2036A00005DD29461D460B46214644468846A8EB0406A3EB050BBBF1000FC6F3C031B2B242
:2036C000B8BFCBF1000B01FA86F69D42B4BF01234FF0FF33009276100193FFF7E5FB444543
:2036E00004DD03B0BDE8F04FFFF7E6BBD145C7BF2146284629462046A6EB0B063A46FFF75D
:203700006CFFB3B236B2002E05DA019A1544009AD6182DB236B2013424B2E0E7044BC900B7
:2037200001F4FC6141EAD20203EA00201043704700F8FFFF2DE9F341089E1D460F46144629
:203740008046FFF7B1FB2A20FFF7E4FB1FFA88F0FFF718FCA0B2FFF715FC2B20FFF7DAFBD8
:20376000B8B2FFF70FFCA8B2FFF70CFC2E20FFF7D1FBFFF7BDFBE91BA4EB0800441C4B1C66
:2037800014FB03F39BB203EB43050F4FADB206EB4304A64205D1FFF78FFB284602B0BDE8A9
:2037A000F0814FF0FF33032201A938460DF07CF89DF806209DF805109DF80400FFF7AEFFC8
:2037C00026F8020BE5E700BF5C62002008B504480CF059FB18B1BDE8084007F017BA08BDB9
:2037E000C861002010B50446FFF7F0FF013C00D210BDFFF7EBFF01200AF024FDF6E70000B7
:203800000C480D4A08B542F21073C0E9002300234FF48042C0E90233C0E90423C0E9063305
:2038200003620BF055FF18B1BDE8084007F0EEB908BD00BFD05E0020005C004070B50E4C93
:203840000E4E0546012086B020703078012808D00A98009028460BF0FDFF0023237006B02E
:2038600070BD0020CDE904230391FFF7BBFFDDE904230399E9E700BF880400206F05002082
:2038800070B50E4C0E4E0546012086B020703078012808D00A98009028460CF0B3F8002308
:2038A000237006B070BD0020CDE904230391FFF799FFDDE904230399E9E700BF88040020AF
:2038C0006F05002030B585B005250C468DF80C008DF80D1016480095022303AAD021FFF7DF
:2038E000ADFF50B1134814F019FF0A2014F02EFFFFF786FF012005B030BD0D4800950123FD
:2039000003AAD021FFF79AFF08B10B48EBE708480095012303AAD021FFF7B2FF08B1074846
:20392000E1E79DF80C30181B18BF0120E3E700BFD05E00208BBA0108AFBA0108D3BA010896
:2039400010B5084805230122D0210CF0CBF908B1FFF756FFBDE81040024805230122D021D7
:203960000CF0C0B9D05E00202DE9F04F984B2DED028B196885B069B1964814F0CFFE0A20FC
:2039800014F0E4FE4FF0020A504605B0BDEC028BBDE8F08F904E914D012405231A46D021F7
:2039A00030460CF09FF9824670B12146284614F0B5FE01340A2014F0C9FEFFF721FF0A2C12
:2039C000EBD14FF0010ADFE79FED858ADFF80892844DDFF834B204460646074680460020B8
:2039E000FFF700FF3B238DF80C30052300937A48012303AAD021FFF721FF002800F0B68010
:203A0000794814F08BFE0A2014F0A0FEFFF7F8FE0134E4B2632CE2D907EE908AF8EEE77A35
:203A2000C7EE886A07EE907AF8EEE77A87EE887A07EE906AF8EEE77AC7EE888A9FED6B8AA4
:203A400066EE887A17EE90BA67EE087A17EE900AFCF77AFD064658460F46FCF775FD68EEE7
:203A6000887A804617EE900A8946FCF76DFD02460B46FCF7C1FD424604460D464B4640462D
:203A80004946FCF7B9FD22462B46FCF7FFFB41EC100B17F05DFA304653EC102B3946FCF720
:203AA000D5FE41EC100B17F0A7F8514B51EC100B0022FCF7A1FD44A3D3E90023FCF7C6FE21
:203AC0004C4B804618688946FCF73EFD02460B4640464946FCF7D8FBFDF786F8324608EEB8
:203AE000100A3B4630463946FCF786FD22462B46FCF7CCFB41EC100B17F02AFA55EC104B1E
:203B00008BF00040FCF720FD22462B46FCF79EFE41EC100B17F070F8354B51EC100B0022C1
:203B2000FCF76AFD28A3D3E90023FCF78FFE324B044618680D46FCF707FD0B460246294668
:203B40002046FCF7A1FBFDF74FF8DFED2C7A2C4B38EE678A07EE900ABDEEC88AFDEEE77A5D
:203B600083ED008A274BC3ED007A0DE71E2300931C4A0623D0214846FFF782FE08B158460C
:203B80003FE72A786B7843EA022308FA83F8AA78EB7843EA022307FA83F72A796B79F0EEF4
:203BA000087AB4EEE78A43EA0223F1EE10FA06FA83F604D5F7EE007A38EE278A28E7632C0F
:203BC0003FF4FFAE642423E77A008BFCFA210940C4030020FABA0108D05E002032BB010826
:203BE00000000000500600208BBA01080000803800806640B4030020B80300200000B4427B
:203C0000BC030020C0030020D3BA0108000000002DE9F0472DED068B8F4886B014F07EFDC8
:203C20000A2014F093FD8D4B196861B18C4814F075FD0A2014F08AFD0224204606B0BDEC71
:203C4000068BBDE8F087874F874E092505231A46D02138460CF046F8044668B13046013D96
:203C600014F05CFDADB20A2014F070FDFFF7C8FD002DEBD10124E0E7DFED7C8ADFF8E4A12F
:203C80007B4E9FED7C8A05460746804681460020FFF7A8FD3B238DF814300523009371484E
:203CA000012305AAD021FFF7C9FD002800F0A080714814F033FD0A2014F048FDFFF7A0FD59
:203CC0000135ADB2B5F57A7FE1D307EE909AF8EEE77A9FED6A9A87EEA87A07EE908AF8EE76
:203CE000E77A87EEA88A07EE907AF8EEE77A28EE098AC7EEA89A67EE098AFDEEE87A17EE9C
:203D0000903A002BB8BF5B4207EE903AF8EEE77AE9EE897A17EE900AFCF716FC41EC1A0BC4
:203D200018EE100AFCF710FCB0EE4A1AF0EE6A1A41EC100B17F009F9514B51EC100B002299
:203D4000FCF75AFC4F4B0022FCF756FCBDEEC88A3FA3D3E90023FCF779FDFCF745FF18EEB5
:203D6000103A002BB8BF5B4208EE103AB8EEC88A0646A9EE898A18EE100AFCF7E5FB41EC6C
:203D8000190B18EE900AFCF7DFFBB0EE491AF0EE691A41EC100B17F0D8F8394B51EC100B35
:203DA0000022FCF729FC384B0022FCF725FC28A3D3E90023FCF74AFDFCF716FF334B1E6028
:203DC000334B054618603046FCF7BEFB02460B462846CDE90223FCF7B7FBDDE90223CDE958
:203DE00000012C4814F09AFC0A2014F0AFFC24E71E2300931E4A0623D0215046FFF740FDB1
:203E000008B1254855E73278737843EA022309FA83F9B278F37843EA022308FA83F83279CB
:203E20007379F4EEC88A43EA0223F1EE10FA07FA83F704D5F7EE007A78EEA78A40E740F284
:203E4000E7339D423FF416AF4FF47A7538E700BF7A008BFCFA21094064BB0108C4030020ED
:203E6000FABA0108D05E002076BB01080000000050060020000048438BBA010800008038F6
:203E8000008076400000E03F0000E0BFB4030020B8030020A4BB0108D3BA0108F0B5274F63
:203EA000274E85B0052500224FF4007138460AF0DBFE3220FFF796FC01224FF400713846D8
:203EC0000AF0D2FE3220FFF78DFC05231A46D02130460BF007FF08B1FFF792FC05231A4692
:203EE000D02130460BF0FEFE68B1164814F016FC013D0A2014F02AFCFFF782FC15F0FF05C8
:203F0000D1D1012416E048F26B03ADF80C300523009303AA0223D0213046FFF78FFC04469C
:203F200008B10948E2E70AF087F9084B18602046FFF758FC204605B0F0BD00BF00040240EC
:203F4000D05E0020B5BB01088BBA0108C40300201FB57523ADF80C301A4B196841B11A48DE
:203F600014F0DCFB0A2014F0F1FB022004B010BD0A2416480094012303AAD021FFF75EFC77
:203F800048B1134814F0CAFB204614F0DFFBFFF737FC0120EAE7052300930C48012303AAC5
:203FA000D021FFF76DFC08B10A48EBE79DF80C106829DBD0084814F0B1FB204614F0C6FBBC
:203FC000E7E700BFC4030020FABA0108D05E0020DFBB010805BC01082EBC01082DE9F041BB
:203FE0002F4C2368054633B12E4E0AF025F92368643898421CD300232B4E2C4FDFF8BC80DE
:2040000023600124FFF79CFC08B1FFF7F9FBFFF797FCC0B12648214614F080FB01340A201A
:2040200014F094FBFFF7ECFB0A2CEBD1012035E00020FFF7D7FB2168304614F06FFB0A2069
:2040400014F084FBD1E7FFF783FF014610B119482146E1E76B20FFF735FC014610B12146F4
:204060004046D9E71B20FFF72DFC014610B121463846D1E71C20FFF725FC10B1214630460A
:20408000CAE7012D0AD10C4814F048FB0A2014F05DFBFFF7BDFD003818BF0120BDE8F0814F
:2040A000C4030020FABA0108FBBC0108CDBC01085DBC01087DBC01082ABD0108A0BC010851
:2040C00007B5F02300210246009308464FF4A073FFF79BFA03B05DF804FB000030B5094AA7
:2040E00001F1C60314685D1AAC4206DB08551368C52B9CBF0133136030BD13F8014D5C7067
:20410000F0E700BF1804002070B50D4619464378012B144602D04379002B4CD04F2D15D17E
:20412000A2480468224613460132CD5C15F0DF0F01D0C52BF7D919444B7833B1C52A04D8B9
:204140009B4B1B68A342FDD1026070BD502DFCD1964C2368002BF8DD954A12689342FDD101
:20416000CA18C85C12F8012C203A18BF012200B9013BC81805E00578202D03F1FF3300D133
:204180000132DE43012A4FEAD676C8BF002610F801590EB1002DEED1002B03DA834B002269
:2041A0001A60D2E719445A1C4B78002BCDD0C52ACBD82260C9E72F2D82781ED17D4C012A71
:2041C0002368264601D085795DB113B960233360BBE7D8B2FFF782FF6020FFF77FFF00236F
:2041E000F5E713B9B4232360AFE7D8B2FFF776FFB420FFF773FF2560A7E7342D16D16D4CE2
:20420000012A2368264601D085793DB10BB95E23DDE7D8B2FFF762FF5E20DEE70BB97E232D
:20422000E1E7D8B2FFF75AFF7E20E2E7012A01D0837973B1232D0CD15E4C206808B9A8236F
:20424000D1E7C0B2FFF74AFFA820FFF747FF0023C9E72A2D14D1554B1A68501EC5283FF630
:2042600074AF534C2468A242FDD10A441860C83191423FF46AAF12F8013B02F8023CF7E704
:204280004C2D0AD1494B1B680B445A1AC62A3FF65CAF5A7803F8012BF7E7A4F120035F2BA7
:2042A00000F2DB80434D2B68002B00F0D180602B1CD1412C6ED0452C6ED0492C6ED04F2C22
:2042C0006ED0552C6ED0612C6ED0652C74D0692C74D06F2C74D0752C74D06020FFF7FEFE32
:2042E0002046FFF7FBFE00232B602EE7B42B15D1412C69D0452C69D0492C69D04F2C69D02F
:20430000552C69D0612C69D0652C69D0692C69D06F2C69D0752C69D0B420DFE75E2B15D1CE
:20432000412C65D0452C65D0492C65D04F2C65D0552C65D0612C65D0652C65D0692C65D0D3
:204340006F2C65D0752C65D05E20C7E77E2B09D1412C61D04F2C61D0612C61D06F2C61D034
:204360007E20BBE7A82BBBD1412C5DD0452C5DD0492C5DD04F2C5DD0552C5DD0612C5DD0B4
:20438000652C5DD0692C5DD06F2C5DD0752C5DD0A820A3E7C024A3E7C824A1E7CC249FE75D
:2043A000D2249DE7D9249BE7E02499E7180400201C040020C8030020E82491E7EC248FE70F
:2043C000F2248DE7F9248BE7C12489E7C92487E7CD2485E7D32483E7DA2481E7E1247FE785
:2043E000E9247DE7ED247BE7F32479E7FA2477E7C22475E7CA2473E7CE2471E7D4246FE7C4
:20440000DB246DE7E2246BE7EA2469E7EE2467E7F42465E7FB2463E7C32461E7D5245FE7F8
:20442000E3245DE7F5245BE7C42459E7CB2457E7CF2455E7D62453E7DC2451E7E4244FE7A8
:20444000EB244DE7EF244BE7F62449E7FC2447E72046BDE87040FFF741BE4F2D0FD1324AB4
:20446000324813680068C95C31B1C52B04D88342FDD10133136068E68342FDD18EE6502D00
:2044800013D1294A294813680468002B0BDDA342FDD1013BEEE701300D5C002DFBD1A3421E
:2044A000FDD1106051E60020F6E7522D0CD11E4A1E49136809681B2B03DD8B42FDD11C3B5B
:2044C000D8E78B42FDD169E6512D19D1002200E001328B5C002BFBD1134B196801F11C00CB
:2044E000904208DA1B293FF730AE104A12689142FDD1186029E60D4800688142FDD14FE631
:204500004B2D3FF44BAE4E2D7FF41FAE002200E001328B5C002BFBD1044B1868024B19688C
:204520008842FDD13CE600BF180400201C04002013B519234CF21864194618460094FA225B
:20454000FEF7E9FF192318460094FA22BE21FEF7E2FF1922104600948C233221FEF7DBFF89
:2045600000948C2319223221FA20FEF7D4FF502319460094192240F21310FEF7CCFF3C2175
:204580000846009478231C22FEF7C5FF009478231C223C216220FEF7BEFF009478231C223C
:2045A0003C218820FEF7B7FF009478231C223C21AE20FEF7B0FF009478231C223C21D42051
:2045C000FEF7A9FF002002B010BD00002DE9F043544F554B3A68554E53F822104FF6E074B8
:2045E0004FF62053002918BF1C461C235343F21887B0917D01296FD1127E002A6CD10833E1
:2046000004AA33444FF00809104613F8011B02F8011BB9F10109F8D1DFF82481444D414681
:20462000FCF766FF6B6800934246CDE901492B6869218B20FEF736FF3B684FF01C0909FB37
:2046400003631869FBF780FF02460B464046394914F018F93B689FED387A09FB0366D6ED3B
:20466000047A364BF4EEC77AF1EE10FA1B78424612DB012B02D12C2388F80330CD20002316
:20468000CDE901436B6800932D4A2B687D21FEF709FF07B0BDE8F083B2EE047AF4EEC77A05
:2046A000F1EE10FA05DB012B01D12C239370D820E5E7F5EEC07AF1EE10FA05DD012B01D137
:2046C0002C235370E320DAE7BAEE047AF4EEC77AF1EE10FAE7DDF1E7154D1A4A6B6800930A
:2046E00000262B6869218B20CDE90146FEF7DAFE124B15491B781248012B144B1B7814BF69
:204700002E222C22B34214BF4323462314F0BAF86B680093CDE901462B68094A7D21E320C4
:20472000B5E700BFD0030020D0040020006500205C0000204FBD01080000C84219050020D9
:20474000BB2E002056BD010867BD01082C010020F0B40D2101FB00F3164C1749174D94F847
:2047600004C005F803C01944EA1800236779A679A5784B7164788B71CB710B724B721049B4
:2047800057709670D570147153719371D3711372537201220A7081F801C08F70CE700D719A
:2047A0004C718B71CB710B724B728B72F0BCC0B2FEF752B8F8640020B4620020F461002089
:2047C000006600202DE9F041DFF860E01549164A0D2444430EEB04031EF804404C705C7895
:2047E00092F804C05779967995788C7052789C7883F805C09F71DE711D725A724FF0000864
:20480000CC70DC781B7981F800800C714B7181F806C0CF710E724D728A72BDE8F041C0B240
:20482000FEF71AB800660020F8640020F461002030B5164B164C197801EB410301EB830161
:20484000144B1A68144B53F8225085B09DB1134B1348194414F016F800234FF62052CDE920
:204860000132636800930E4A23682D21B420FEF719FE05B030BD0B4B0948194414F002F8F2
:204880004FF6E073CDE90153EBE700BF230500205C000020D0030020D004002050CD010814
:2048A000BB2E0020D4CD010830B5154B154C197801EB410301EB8301134B1A68134B53F8E5
:2048C000225085B09DB1124B1248194413F0DAFF002302934FF620530193636800930D4A3A
:2048E00023682D21B420FEF7DDFD05B030BD0A4B0848194413F0C6FF02954FF6E073EBE7CF
:20490000230500205C000020D0030020D004002077CD0108BB2E0020FBCD01082DE9F0437C
:20492000204DDFF8849087B00E4605244FF000082F4619F8013B8DF81580CDE90168002BFE
:2049400008BF20238DF814306B6800932B68204605AAB9210B34FEF7A5FDA4B240F23913F2
:204960009C42E6D1DFF8449005254FF0000819F8013B8DF81580CDE90168002B08BF2023CB
:204980008DF814307B68009328460B353B6805AACD21ADB2FEF786FDA542E8D107B0BDE817
:2049A000F08300BF5C000020B8630020D4630020494B2DE9F0411D68484F0D236B438AB0A8
:2049C000FB5C632B9FBF4FF00A0CB3FBFCFCCCEB4C12CCEB820298BF03EB42034FF00D0271
:2049E00002FB057288BF002351788CBF9C46DBB263299FBF0A22B1FBF2F2C2EB4210C2EB04
:204A0000800098BF01EB40014FF00D0000FB057088BF002180788CBF0A46C9B263289FBF77
:204A20004FF00A0EB0FBFEFECEEB4E14CEEB840498BF00EB44004FF00D0404FB057488BF87
:204A40000020E4788CBF8646C0B2632C9FBF0A26B4FBF6F6C6EB4618C6EB880898BF04EB03
:204A600048044FF00D0808FB057588BF00242D7994BFE4B22646632D9FBF0A27B5FBF7F7F6
:204A8000C7EB4718C7EB880898BF05EB4805DFF8608098F800808ABF0025EDB22F46B8F13D
:204AA000010F0CBFCDE90021CDE900C3CDE902E015BF0B460A490B49624605A813F0E2FE2F
:204AC000CDE9017508490094334605AA074813F0D9FE0AB0BDE8F081D0030020F46100203C
:204AE00072BD010881BD010890BD0108BB2E002018050020354B2DE9F0411E68344B0D22A0
:204B000002FB06368AB03379632B53D80A257179B1FBF5FCCCEB4C13CCEB830301EB430184
:204B2000B379B3FBF5F2C2EB4210C2EB800003EB4003F079B0FBF5FECEEB4E14CEEB8404F4
:204B400000EB4400347AB4FBF5F7C7EB4718C7EB8808767AB6FBF5F504EB4804C5EB4518B7
:204B6000C5EB880806EB4806C9B2DBB2C0B2E4B2F6B2DFF8708098F80080B8F1010F0ABFA5
:204B8000CDE90023CDE900C10B46CDE902E00ABF10491149624605A813F074FECDE9015689
:204BA0000E4900943B4605AA0D4813F06BFE0AB0BDE8F081002427462046A6462346224695
:204BC0002146A44626462546D3E700BFD0030020F461002072BD010881BD010890BD0108F7
:204BE000BB2E0020180500202DE9F04F0D234343574FF95C63299FBF4FF00A0CB1FBFCFC86
:204C0000CCEB4C13CCEB830398BF01EB43014FF00D0303FB007388BF00215B788CBF8C46A2
:204C2000C9B2632B98BF0A2204469FBFB3FBF2F2C2EB4210C2EB800003EB40034FF00D0005
:204C400000FB047088BF002380788CBF1A46DBB263289FBF4FF00A0EB0FBFEFECEEB4E1548
:204C6000CEEB850598BF00EB45004FF00D0505FB047588BF0020AD7A8CBF8646C0B2632DF9
:204C80009FBF4FF00A08B5FBF8F8C8EB4816C8EB860698BF05EB46054FF00D0606FB047616
:204CA00088BF0025F67A94BFEDB2A846632E9FBF4FF00A09B6FBF9F9C9EB491AC9EB8A0AF5
:204CC00098BF06EB4A064FF00D0A0AFB047788BF00263F7B94BFF6B2B146632F9FBF4FF01E
:204CE0000A0AB7FBFAFACAEB4A1BCAEB8B0B98BF07EB4B07DFF86CB09BF800B08FB08ABF3C
:204D00000027FFB2BA46BBF1010F0DF1240B0ABFCDE90023CDE900C10B46CDE902E00ABF07
:204D20000C490D496246584613F0ACFD631CCDE905A7CDE90396CDE901850849CDF800B0A4
:204D40001A46074813F09EFD0FB0BDE8F08F00BFB462002072BD010881BD01089DBD01084C
:204D6000BB2E00201805002030B500238B4204DB012300224254184630BDC25C32B9C4182D
:204D80002025CB1A934203DC0023F2E70133EDE704F8015B0132F5E72DE9F04F85B0984662
:204DA00004AF0B2392FBF3F39C1D24F00704ADEB040DBD6AB7F82CA05E1E0DF1100B0024C3
:204DC000B4424DDB012BACBF5B440BF101034FF000048EB295B203F8014C84B22A46314650
:204DE0002046CDF800A0142306F11409FEF793FB1FFA88F81FFA89F9AA1E601C00230093EC
:204E00004946434692B280B2FEF785FB3A8E174BCDF808A001925A680092B11CE01C5A46A8
:204E20001B6889B280B2FEF73DFB08F11301314453462A46204689B2FEF787FB2046013C0F
:204E40005346424649462C44FEF78BFB534642464946A0B2FEF785FB0437BD46BDE8F08FDE
:204E600015F804C00BF804C00134A9E75C0000202DE9F04F694F6A4D39786A4BDFF8C8810F
:204E8000DFF8C89101EB810187B003EB8101284613F018FD4CF218660C23CDE901364FF42C
:204EA000A072C823142100200095FFF775FF3A785D4B5E4902EB420203EB420200242846AB
:204EC00013F0E0FCCDE90164D8F80430584E0093D8F800302A462D210520FEF7E3FAF2787C
:204EE0003B785449013A02EBC302B37901937379009301EB820233794F49284613F0C2FC53
:204F000023464A4629464446013311F8010B02F8010B0D2BF8D133780093DFF8348173789A
:204F2000B27846493E4813F0ADFC42460023013315F8011B02F8011B082BF8D14CF21863B3
:204F4000009340F2371215234021042042F20416FEF714FB009614234FF49B724121052090
:204F6000FEF7D9FA05254FF0000BB2464CF2186619F8013BCDF808A001968DF8143063685C
:204F8000009328460B3523688DF815B005AA4121ADB2FEF787FA942DE8D13A78284B294904
:204FA0001F4802EB420203EB420213F06BFCCDE9016B636800932368194A96210520FEF77E
:204FC00071FA152340F23712A92104200096FEF7D5FACDF800A014234FF49B72AA2105208F
:204FE000FEF799FA05254FF0000942F2041718F8013B8DF81430CDE9016763680093284669
:205000000B3523688DF8159005AAAB21ADB2FEF749FA5D2DEBD107B0BDE8F08F2305002020
:20502000BB2E0020F0C40108CCC40108BBBD01086C660020ABCF0108CFBD010837C1010885
:20504000DEC40108E2BD01085C00002086060020C05E0020000000002DE9F04F2DED028B9B
:205060000C4695B0002930D1002828DD0C234CF21862CDE90132B64DB64A2B7803EB830358
:2050800002EB830300934FF4A072C82314212046FFF782FEB04B2A78B049B14803EB021228
:2050A00013F0F0FBAF4B02944FF6FF7201925A6800921B68AA4A2D210620FEF7F3F92046A3
:2050C00015B0BDEC028BBDE8F08F012940F08A81A54FDFF8F0A2DFF888820024D7ED047AA8
:2050E000BDEEE78AB8EEC87A77EEC77A17EE900AFBF72AFA94A3D3E90023FBF77DFAFBF7E0
:205100002BFD0DAA834607F1080100231046013311F8015B02F8015B082BF8D10FA9661C48
:20512000FCF7E6F90FAB5146CDF804B08DED008A3246404613F0A6FBFB7D854D012B297816
:2051400040F0F780894B09A803EB810113F09AFB4FF4FC69844A1C2303FB042404F1100338
:2051600093E807008DE8070094E80F00FCF792F82978002840F028817C4B0BA803EB81019D
:2051800013F080FB7A4B7B4A1B7812788DED028A012B14BF2E232C23CDE9033B0FAB019303
:2051A00009AB00930BAB002A40F017817249324640464FF0000B13F065FBCDE9019B694C93
:2051C000C6EB0611636800932D312368424689B20E20FEF767F9082E07F11C0740F0A780D2
:2051E0002B78664A02EBC302654B07921868FBF7ABF94FF6FF76CDE90001079A61495848EF
:2052000013F040FBCDF808B00196636800932368534AB4210E20FEF745F92A7802EB82036C
:2052200002EB4302584B1A44584B07921868FBF78BF9079ACDE900015549494813F022FB62
:20524000CDE9016B636800932368454AB4218C20FEF728F92A784F494F4B41481B68C2EB90
:20526000C2020A444D4913F00DFBCDE9016B6368009323683A4AC3210E20FEF713F9484B46
:2052800048491A68364813F0FDFACDE9016B636800932368324AC3218220FEF703F9424BF8
:2052A0001B78002B40F09C8040492D4800254FF6FF7613F007FBCDE90165636800932368FD
:2052C000274AC321C820FEF7EDF8394A394993680093D2E90023224813F0D4FACDE90165EF
:2052E0006368009323681E4AD2210E20FEF7DAF8314A3249137A0593D379049393790393D5
:205300005379029313790193D378009393781448527813F0B7FACDE9016563680093236844
:205320000F4AE1210E20FEF7BDF82C46C7E63446D4E6234B09A803EB810113F0A3FA4FF673
:20534000E07907E7AFF30080000000000088C3402305002063CF010827CF0108F1BD010820
:20536000BB2E00206C000020006500209FCF0108190500202C0100201FBE0108EECE010866
:205380007C0400205FBE010806CF01088004002069BE0108D9CE0108BC03002073BE0108CC
:2053A000C003002080BE0108FA04002089BE01081C630020A0BE010804670020BBBE010842
:2053C00057CF01080FBE0108084B0BA803EB810113F058FA4FF47849D4E605493246E7E6AC
:2053E000044962E7022918BF002468E657CF01083FBE010894BE01082DE9F04F6E4D6F4E46
:205400002A786F4C33686F49DFF8E8A102EBC20287B001EB420201336B49204613F032FAE7
:205420004CF218670C23CDE901370094C8234FF4A07214210020FFF7AFFC0023CDE901737B
:20544000624C2A7863686249009302EB02120A4423682D210520FEF725F85E4A05921368DA
:20546000BBB92A7802EB420102EB810231685AF82110002940F093804FF4FC63CDE9011382
:2054800063680093236854490A44B4202D21FEF709F800274CF21868CDE901872A78636890
:2054A0004E49009302EB820201EB4202236841210520FDF7F7FFCDE901872A7863684849E9
:2054C000009302EB420201EB4202236855210520FDF7E8FF30685AF820304FF6205B4FF698
:2054E000E079BB4218BFD946C0B2FFF761FACDE90197636800932368314A41219F20FDF7D6
:20550000D1FF3078FFF7F6FACDE901976368009323682B4A55219F20FDF7C4FFCDE9018757
:205520006368009323682F4A69210520FDF7BAFFCDE901876368009323682B4A7D2105204E
:20554000FDF7B0FFFFF742F8CDE901872A78636826490093C2EBC202236801EB820205203A
:20556000A521FDF79FFF059B1B680BBBCDF800B0292340F23712B7210420FDF7FFFF306828
:205580005AF820104FF6E0724FF6205300290CBF1146194607B0BDE8F04FFFF7BFB94FF642
:2055A000E071CDE9013163680093236810496BE748F210430093DBE723050020D003002001
:2055C000BB2E00209ECD0108E6BE01085C00002076CE010808000020D4CD0108A9CE010886
:2055E000C7CE0108ECBE0108F7BE010822CE010850CD0108D00400202DE9FF41DFF8688272
:20560000884DD8F800302978874C9A1E012A00F29680864E864B01EB01111944304613F0DD
:2056200051F900274FF620534FF4A072CDE901371421C82338460096FFF7AEFB29787D4BC2
:2056400001EB410103EBC101304613F03BF94CF21863019363680093236802973246502107
:205660000520FDF71FFF744A2B781268012A4FEAC30340F0B98071496C48194413F022F99C
:2056800000264FF47843CDE901366368674A0093782123680520FDF705FF694B29786348A9
:2056A00003EBC10113F0EEF802964CF218630193636800935D4A236878219B20FDF7F2FEA4
:2056C0002978604B59481A2201FB023113F0FAF84CF218666368554A009300272368CDE95C
:2056E0000167A0210520FDF7DDFE2978564B4F48C1EBC10103EB810113F0E4F863684B4A97
:205700000093CDE901672368B4210520FDF7CAFE29784648C1EBC10301EB83014B4B194495
:2057200013F0D0F863680093CDE9016723683F4AD7210520FDF7B6FE04B0BDE8F081012B53
:2057400091DC434B394E01EBC10103EB4101304613F0B8F800274FF62053CDE901371421BE
:205760000096C8234FF4A0723846FFF715FB2978D8F8008001EB4101C1EBC101B8F1000F8A
:205780000FD1344B3046194413F09CF84CF21863019363680093CDF80880236832465A21CA
:2057A0005EE72D4B3046194413F08CF84CF21868636800933246236802975A210520CDF8B5
:2057C0000480FDF76FFE2978244B01EB410103EBC101304613F076F863680093CDE9018773
:2057E000236832463C213BE71D491048194413F049F800264CF21863CDE9013663680B4ADC
:205800000093782123680520FDF74CFE154B2978064803EBC10113F035F802964FF47843A9
:2058200045E700BF230500205C000020BB2E0020B7C10108C5C20108F404002009C40108B1
:2058400021C4010839C40108EAC101086EC201080DC3010843C3010882C30108C1C30108A4
:205860003EC2010856C20108F00400207FB5B84DB84B2978B84E01EB810101EB81011944CE
:20588000304613F01FF84CF218641F23CDE901340096C8234FF4A07214210020FFF77CFAFA
:2058A0002B78002B40F02A81AC49304613F00AF84FF4FC630022CDE90132A94CA64A636872
:2058C000009323682D210520FDF7ECFD2B78012B40F01A81A349A04812F0F4FF4FF4FC6355
:2058E0000022CDE901326368009323689A4A46210520FDF7D7FD2B78022B40F00C819A490C
:20590000954812F0DFFF4FF4FC630026CDE9013663680093904A23685F210520FDF7C2FDFA
:20592000924B29788C4803EBC10112F0CBFF4FF6E07302960193636800932368864A8C4E42
:205940002D219F20FDF7AEFD2B788A4A317803EBC3031A44002940F0E58087497E4812F013
:2059600091FF4FF4FC630022CDE90132636800932368794A46219F20FDF794FD33787F4A1F
:20598000012B2B7803EBC3031A4440F0D2807A49714812F077FF4FF4FC630026CDE90136FB
:2059A000636800936C4A23685F219F20FDF77AFD2978734B684801EB410103EB810112F0EF
:2059C00081FF4FF6E07302960193636800936D4E614A23687D210520FDF764FD3278002A48
:2059E00040F0AE8068495C4812F06CFF4FF4FC630022CDE90132636800932368564A96219A
:205A00000E20FDF74FFD3378012B40F0D7805F49514812F057FF4FF4FC630026CDE901366C
:205A2000636800934C4A2368AF210E20FDF73AFD2978574B484801EBC101194412F042FF9D
:205A40004FF6E0730296019363680093514E424A23687D219F20FDF725FD3278002A40F0F7
:205A6000B4804D493C4812F02DFF4FF4FC630022CDE90132636800932368374A96219F201D
:205A8000FDF710FD3378012B40F0A6804349324812F018FF4FF4FC630022CDE90132636841
:205AA000009323682C4A9F20AF21FDF7FBFC3C4B1878002840F097804FF478430093982207
:205AC00016232A210420FDF759FD29782248C1EBC10301EB8301334B194412F0F3FE4CF2DD
:205AE00018630022CDE901326368009323681A4AD2210320FDF7D6FC04B070BD2A4930462D
:205B000012F0E0FE2346D5E62849134812F0DAFE4CF21863E4E626490F4812F0D3FE4CF281
:205B20001863F2E623490C4812F0ACFE4CF2186319E72049084812F0A5FE4CF218632CE7C3
:205B40001D49054812F0BEFE4CF2186350E700BF230500202CC50108BB2E002005BF01080D
:205B60005C0000201DBF010835BF010877C501081805002025C6010851BF010840C6010829
:205B80008FC50108190500205FBF010871BF0108B3C501082C01002083BF010891BF010898
:205BA00025050020CEC5010811BF010829BF010843BF010858BF010868BF01082F493048EA
:205BC00012F080FE4CF2186327E72E492C4812F079FE4CF218634AE72B49294812F072FED9
:205BE0004CF2186358E7012806D14FF47843009398221623432165E7022806D14FF478437A
:205C00000093982216235C215CE7032806D14FF47843009398221623932153E7042806D1C7
:205C20004FF47843009398221623AC214BE7052807D14FF4784300939B22162343219C2035
:205C400041E7062806D14FF4784300939B2216235C21F4E7072806D14FF4784300939B22E4
:205C600016239321EBE708287FF42FAF4FF4784300939B221623AC21E1E700BF7ABF0108C7
:205C8000BB2E00208ABF010898BF01081FB50F4A0F4912780F4B104C1B68C2EB02100144FD
:205CA00000910E49013301EBC20220460C4912F0E9FD00201F23CDE901300094C8234FF46A
:205CC000A0721421FFF768F804B010BD230500209FC40108D0030020BB2E002087C40108A2
:205CE0009FBF0108000000002DE9F04F044687B0002855D19C4D9D4F9D4E04F081FD9D4BFF
:205D00009D4A9E49284612F0BDFD0C234CF21862CDE901321421C8234FF4A072204600954B
:205D2000FFF73AF83A78964B964902EB820203EB4202284612F0A6FD1F23029401937368CC
:205D4000009333682A46DA210120FDF7ABFB3A7802EBC2038C4A1A44134613F8011B11B115
:205D60000134092CF9D1023486497F4812F08AFDC4EB043004EB800004EB800404F23F1090
:205D80001F230024CDE90134736800933368764ADA2180B2FDF786FB002007B0BDE8F08F4C
:205DA000012807D10C23AF22282140F23110FDF7D8FBF1E7022807D10C234FF4A072D72109
:205DC0000020FDF7C2FBE7E7704B032C187840F0A18000F10808DFF8C8B1654D624F5FFA4C
:205DE00088F804460026A045D6DD9BF80030B3424FEA460949D1072C33DCE0B2FEF7F4FE06
:205E0000B144C9EBC90909F12D014FF4FC6A4FF00009CDE9019A6B68009389B22B680591D3
:205E20003A460520FDF73EFB072C17DC584B059953F8243093B1CDE9019A6B6800932B68FC
:205E4000544A2620FDF72EFBCDE9019A6B6800932B68514A05995220FDF724FB01360134CD
:205E6000C1E7424B1A78E0216FF0DF0311FB02311C2303FB041349493846194412F022FDF8
:205E80001B213846FEF770FFBAE7072C2EDCE0B2FEF7AAFEB144C9EBC90909F12D0148F2FA
:205EA00010434FF00009CDE901396B68009389B22B6805913A460520FDF7F4FA072CCDDC2A
:205EC000334B059953F82430012BC7D14FF6205ACDF80890CDF804A06B6800932B682D4A4E
:205EE0002620FDF7DFFACDE901A9AFE71F4B1A78E0216FF0DF0311FB02311C2303FB0413C8
:205F000026493846194412F0DDFC1B213846FEF72BFFBFE7042C1CD1214B1C78204407EE67
:205F2000900AF8EEE77A17EE900AFAF70DFB0CA3D3E90023FAF760FBFAF736FE0C23C1B247
:205F40000093072264232A3140F23510FDF7E3FA22E7631F584258411FE700BFAFF30080B6
:205F60006666666666661440BB2E0020230500205C000020A8BF0108B3BF0108C3BF010826
:205F800072C90108CBBF0108B7C601084B050020B0040020D0BF0108D2BF0108D2C601088D
:205FA0004A0500202DE9F347344C354F0A288246054628BF4FF00A0AA1462378012B27D0FA
:205FC0003B78012B24D00023009340F23912142391210320FDF79FFA2A4B1B78022B1BD101
:205FE000294B1B78DBB1294B1B68072B0CBF4FF00C084FF01F080026B245544615DC092D83
:2060000003D842F20415092C25DD02B0BDE8F0870020FDF7E7FBD0E742F20418EBE74FF045
:206020000C08E8E70020FDF7DDFB99F80030012BF8D03B78012BF5D070010330CDF800804F
:2060400014231922912180B2FDF765FA0136D3E70020FDF7C7FB99F80030012BF8D03B7868
:20606000012BF5D060010330009514231922912180B2FDF750FA0134C5E700BF2D05002080
:2060800088040020EE0500201A05002040060020F0B5AF4B1B6885B0002B63D0AD49AE48FB
:2060A00012F010FC00224FF47844CDE90124AB4B5A6800921B68A84A78210320FDF7F2F97C
:2060C000A74AA849137800935378A7489278A64D12F0D8FB0023A54A2846194612F8016BDF
:2060E00010F8014B0133A6421CBF02F8014C0121082BF3D1002932D09D4E9E4C3378012B1E
:2061000000F07F812378012B00F07B819A4B9B491A789148904E9A4F02EB420302EB83023D
:20612000984B1A4412F0AEFB00248B48FAF750F8013415F8012B3946304412F0A3FB082C0E
:20614000F3D14CF218620021CDE90121834B5A6800921B68804AB4210320FDF7A3F90120B2
:2061600005B0F0BD884D2B78002B4AD0824A632B12783BD0784C854902EB420201EB42021E
:206180002046834912F07EFB2B78012B254605D12046FAF71DF87F49204481E7022B05D13F
:2061A0006D48FAF715F87C49284479E7032B04D12046FAF70DF87949EEE7042BF0D05A1F3D
:2061C000012A04D82046FAF703F87549E4E7072B04D12046F9F7FCFF7249DDE7082B7FF460
:2061E00061AF5D48F9F7F4FF6F49DDE702EB420302EB83026D4B6E4957481A4412F042FB3C
:2062000050E76C4A1278022A40F0EA806A4F3B68002B00F08780694A1488694A12780AB974
:20622000002C7FD0072B534E514D33D12B78012B29D03378012B26D04F4B62491A78464874
:2062400002EB820302EB43025F4B00251A4412F019FB1223DC22009578215B20FDF75BF933
:206260001F223E4B029501925A68009203201B68394A7821FDF716F9E0B20A2828BF0A203C
:20628000FFF790FE1CE70020FDF7ACFACEE70020FDF7A8FA2B78012BF9D03378012BF6D01D
:2062A0000023009340F23712142378210320FDF732F92B78012B1ED03378012B1BD03B6879
:2062C0002D4A032B12781AD1404B41491B6801EBC2024049204812F0D5FA00251223DC2242
:2062E000009578215B20FDF716F94FF6E072CDE901521A4BB8E70020FDF774FAD9E7052BDC
:2063000006D1324B34491B6802EBC2020A44E0E7324B2C49104802EB820203EB820212F034
:20632000B1FADAE7144A0D4B12784CF218611F20CDE901105968009128491B6802EB82023D
:2063400001EB820203207821FDF7ACF80A2097E7F0050020D4BF0108BB2E00205C0000209B
:20636000F864002037C101084D000020580600202D050020880400202305002068C001083E
:20638000596A0408C2D00108FD05002026D00108EEBF0108F5BF010801C001080CC0010860
:2063A00018C0010823C001082FC0010838D001083BC00108EE050020400600202C06002038
:2063C0001A05002049C001082FCD010824060020FCCC010854C0010814CD01085FD001080D
:2063E0000A4A0B49127802EB420002EB80024FF62050CDE901304B6800930B6805490A44DC
:20640000A0E70020FDF7EEF978E600BF230500205C0000209BD001082DE9F04307468FB0D0
:206420000FF098FEBB787C7A012B064602D0BB79012B08D12E2C00F092802D2C00F0968060
:20644000252C00F09580292C40F08A80B34B1A7898460AB9B24B1A80B24B1B78012B40F0A3
:206460008980A4F15903DBB2092B01D83B3CE4B2AD4B1B781A4318D1462C16D1032001929B
:2064800004F072F8A94BAA480221196012F046F90A2012F05BF9019AA6484FF4807108F0A6
:2064A000E3FB07F0C9FEA44B1860A44A1368092B154640F04C82A4F11E02D1B2072900F289
:2064C0008F809F48002303609E4803609E48012404609E4802609E4801709E49392000FBAE
:2064E00002129D4912F8010B01F8010B0133392BF8D19A499A4A0023013351F8040B42F876
:20650000040B082BF8D1974A974B0021107818705078587090789870D078D870107918713A
:206520005079587190799871D079D8710131107A18720829507A587202F10D0203F10D0314
:20654000E4D18A4B09221A7007232B6004F014F9874B01221A70874B03221A7054E3572494
:20656000854A00231360854A13706FE75624F7E75524F5E7542C3FF47BAF552C3FF478AFA9
:20658000562C3FF475AF572C3FF472AF582C1DD0592C3FF46DAF5A2C1AD05B2C3FF468AFC5
:2065A0005C2C17D05D2C3FF463AF5E2C14D05F2C3FF45EAF602C11D0612C3FF459AF622CA2
:2065C0003FF456AF632C08BF4C2451E728244FE751244DE750244BE74F2449E7522447E76D
:2065E000172C09D1614B09221A7007232B6004F0C3F85F4B0422ADE7062C01D00A2C40D10B
:20660000564A00231046194650F8044B0133082B2144F9D111BB5A4B4FF478421A804CF28F
:2066200008425A804FF620529A804FF6E072DA804FF4FC621A8140F2FF725A8140F27F42C7
:206640009A814FF61F02DA81484B09221A7007232B6004F091F8464B00227BE74849494CA9
:20666000002352F8040B012808BF34F8130003F1010318BF42F20410082B21F8020BF0D13E
:20668000E2E7162C09D1394B09221A7007232B6004F072F8364B05225CE7082C09D1334B52
:2066A00009221A7007232B6004F066F8304B082250E7132C0DD12D4B09221A7007232B6043
:2066C00004F05AF82A4B0A221A7004F06FF82E4BC2E7192C12D1254A137007232B6004F009
:2066E0004BF82A482A4A08230021013B00F8011B02F8011BF9D11E4B0B222BE70F2C4DD1F4
:206700001A4B09221A7007232B6004F035F8214B1A78214B1A70164B0D221BE71A050020C4
:206720002C0600208101002071050020800500206CC00108000C024074050020C40000202A
:20674000180400201C04002008000020D0030020D8030020245F0020B8630020B0040020F5
:20676000D0040020B4620020F4610020C9000020C80000202F050020F0050020FD0500201E
:206780000E0000205CC601084D0500203A050020310400202305002024050020292C0FD1B4
:2067A000AC4A09231370AC4A2B601370AB4AAC4B11781B7811B9033B1370CCE6A74B4BE7C7
:2067C000522C10D1A74A13780BB1013BF4E7A34A1378002BF9D1A34B07221A70A04B1B787F
:2067E000033B9E4AE8E74F2CF5D0502C03D19D4A00231370F5E7512C0FD19A4A1378062BAE
:2068000001D80133D8E7964A944912780B78033A9342ECDA01330B709DE64B2CCED04E2C49
:20682000DCD0282C02D0582C7FF495AE8B4B1C788C4B1B781C44E4B2072C41D8854B09223B
:206840001A7007232B6003F097FF834B864901221A7000230B6085490B6085490A60854A58
:206860001460854A1470C4EBC40204EBC204834A1444834A14F8011B02F8011B0133392B5F
:20688000F8D1804A804B0021107818705078587090789870D078D870107918715079587195
:2068A00090799871D079D8710131107A18720829507A587202F10D0203F10D03E4D14AE63E
:2068C0000C2C3FF48FAE092C1FD1704A00231046194650F8044B0133082B2144F9D1002903
:2068E0003FF499AE6A496B4C002352F8040B012808BF34F8130003F1010318BF42F20410F2
:20690000082B21F8020BF0D19EE60B2C3FF4BBAE082C3FF4C4AE0A2C3FF4CDAE0D2C12D12D
