:020000040800F2
:2000000000000220B1EA0008B1DE0008C9DE0008E5DE0008FDDE000815DF0008000000002B
:200020000000000000000000000000002DDF00082FDF00080000000031DF000849DF00084E
:2000400001EB000801EB000801EB000801EB000801EB000801EB0008F9DF000801EB000814
:2000600001EB000801EB000801EB000801EB000801EB000801EB000801EB000801EB0008E0
:2000800001EB000801EB00081DE0000801EB000801EB000801EB000801EB0008FFDF0008BD
:2000A00001EB000801EB000801EB000801EB000801EB000801EB000801EB000801EB0008A0
:2000C00001EB000801EB000801EB000801EB000801EB000829E0000801EB000801EB000863
:2000E00013E0000801EB000801EB000801EB000801EB000801EB000801EB000801EB000859
:2001000001EB000801EB000801EB000801EB000801EB000801EB000801EB000835E0000816
:2001200001EB000801EB000801EB000801EB000801EB000801EB000801EB000801EB00081F
:2001400001EB000801EB000801EB00088DE0000801EB000801EB000801EB000801EB00087E
:2001600001EB000801EB000801EB000801EB000801EB000899E0000801EB00080000000046
:2001800001EB000801EB0008FFFFFFFFFFFFFFFF10B5054C237833B9044B13B10448AFF3E1
:2001A00000800123237010BD6003002000000000DCBB010808B5034B1BB103490348AFF308
:2001C000008008BD0000000064030020DCBB0108034613F8012B002AFBD1181A013870471B
:2001E00001F0FF01102A2BDB10F0070F08D010F8013B013A8B422DD010F0070F42B3F6D1C5
:20020000F0B441EA012141EA014122F007047FF000070023F0E80256083C85EA010586EA71
:20022000010685FA47F5A3FA87F586FA47F6A5FA87F68EB9EED1F0BC01F0FF0102F007026C
:2002400032B110F8013B013A83EA010313B1F8D10020704701387047002D06BF35460338CF
:20026000073815F0010F07D1013015F4807F02BF013015F4C03F0130F0BC0138704700BF93
:2002800081F0004102E000BF83F0004330B54FEA41044FEA430594EA050F08BF90EA020F8D
:2002A0001FBF54EA000C55EA020C7FEA645C7FEA655C00F0E2804FEA5454D4EB5555B8BF63
:2002C0006D420CDD2C4480EA020281EA030382EA000083EA010180EA020281EA0303362D1A
:2002E00088BF30BD11F0004F4FEA01314FF4801C4CEA113102D0404261EB410113F0004F84
:200300004FEA03334CEA133302D0524263EB430394EA050F00F0A780A4F10104D5F1200EC1
:200320000DDB02FA0EFC22FA05F2801841F1000103FA0EF2801843FA05F359410EE0A5F109
:2003400020050EF1200E012A03FA0EFC28BF4CF0020C43FA05F3C01851EBE37101F0004515
:2003600007D54FF0000EDCF1000C7EEB00006EEB0101B1F5801F1BD3B1F5001F0CD349088F
:200380005FEA30004FEA3C0C04F101044FEA445212F5800F80F09A80BCF1004F08BF5FEA6E
:2003A000500C50F1000041EB045141EA050130BD5FEA4C0C404141EB0101013C28BFB1F5E7
:2003C000801FE9D291F0000F04BF01460020B1FA81F308BF2033A3F10B03B3F120020CDA82
:2003E0000C3208DD02F1140CC2F10C0201FA0CF021FA02F10CE002F11402D8BFC2F1200C96
:2004000001FA02F120FA0CFCDCBF41EA0C019040E41AA2BF01EB0451294330BD6FEA0404CF
:200420001F3C1CDA0C340EDC04F11404C4F1200220FA04F001FA02F340EA030021FA04F320
:2004400045EA030130BDC4F10C04C4F1200220FA02F001FA04F340EA0300294630BD21FA3E
:2004600004F0294630BD94F0000F83F4801306BF81F480110134013D4EE77FEA645C18BF1C
:200480007FEA655C29D094EA050F08BF90EA020F05D054EA000C04BF1946104630BD91EA56
:2004A000030F1EBF0021002030BD5FEA545C05D14000494128BF41F0004130BD14F58004B3
:2004C0003CBF01F5801130BD01F0004545F0FE4141F470014FF0000030BD7FEA645C1ABF2F
:2004E000194610467FEA655C1CBF0B46024650EA013406BF52EA033591EA030F41F400211E
:2005000030BD00BF90F0000F04BF0021704730B54FF4806404F132044FF000054FF000014A
:2005200050E700BF90F0000F04BF0021704730B54FF4806404F1320410F0004548BF404296
:200540004FF000013EE700BF42004FEAE2014FEA31014FEA02701FBF12F07F4393F07F4F10
:2005600081F06051704732F07F4208BF704793F07F4F04BF41F40021704730B54FF4607424
:2005800001F0004521F000411CE700BF50EA010208BF704730B54FF000050AE050EA010206
:2005A00008BF704730B511F0004502D5404261EB41014FF4806404F132045FEA915C3FF4F0
:2005C000D8AE4FF003025FEADC0C18BF03325FEADC0C18BF033202EBDC02C2F1200300FA3C
:2005E00003FC20FA02F001FA03FE40EA0E0021FA02F11444BDE600BF70B54FF0FF0C4CF445
:20060000E06C1CEA11541DBF1CEA135594EA0C0F95EA0C0F00F0DEF82C4481EA030621EAF1
:200620004C5123EA4C5350EA013518BF52EA033541F4801143F4801338D0A0FB02CE4FF074
:200640000005E1FB02E506F00042E0FB03E54FF00006E1FB03569CF0000F18BF4EF0010E9E
:20066000A4F1FF04B6F5007F64F5407404D25FEA4E0E6D4146EB060642EAC62141EA555161
:200680004FEAC52040EA5E504FEACE2EB4F1FD0C88BFBCF5E06F1ED8BEF1004F08BF5FEA36
:2006A000500E50F1000041EB045170BD06F0004646EA010140EA020081EA0301B4EB5C04E5
:2006C000C2BFD4EB0C0541EA045170BD41F480114FF0000E013C00F3AB8014F1360FDEBFC7
:2006E000002001F0004170BDC4F10004203C35DA0C341BDC04F11404C4F1200500FA05F347
:2007000020FA04F001FA05F240EA020001F0004221F0004110EBD37021FA04F642EB0601A1
:200720005EEA430E08BF20EAD37070BDC4F10C04C4F1200500FA04F320FA05F001FA04F24F
:2007400040EA020001F0004110EBD37041F100015EEA430E08BF20EAD37070BDC4F1200516
:2007600000FA05F24EEA020E20FA04F301FA05F243EA020321FA04F001F0004121FA04F2B9
:2007800020EA020000EBD3705EEA430E08BF20EAD37070BD94F0000F0FD101F0004640005B
:2007A00041EB010111F4801F08BF013CF7D041EA060195F0000F18BF704703F000465200BD
:2007C00043EB030313F4801F08BF013DF7D043EA0603704794EA0C0F0CEA135518BF95EA39
:2007E0000C0F0CD050EA410618BF52EA4306D1D181EA030101F000414FF0000070BD50EA3C
:20080000410606BF1046194652EA430619D094EA0C0F02D150EA013613D195EA0C0F05D178
:2008200052EA03361CBF104619460AD181EA030101F0004141F0FE4141F470014FF00000E2
:2008400070BD41F0FE4141F4780170BD70B54FF0FF0C4CF4E06C1CEA11541DBF1CEA135570
:2008600094EA0C0F95EA0C0F00F0A7F8A4EB050481EA030E52EA03354FEA013100F08880CB
:200880004FEA03334FF0805545EA131343EA12634FEA022245EA111545EA10654FEA002629
:2008A0000EF000419D4208BF964244F1FD0404F5407402D25B084FEA3202B61A65EB0305CC
:2008C0005B084FEA32024FF480104FF4002CB6EB020E75EB030E22BFB61A754640EA0C0042
:2008E0005B084FEA3202B6EB020E75EB030E22BFB61A754640EA5C005B084FEA3202B6EBA3
:20090000020E75EB030E22BFB61A754640EA9C005B084FEA3202B6EB020E75EB030E22BF51
:20092000B61A754640EADC0055EA060E18D04FEA051545EA16754FEA06164FEAC30343EA5D
:2009400052734FEAC2025FEA1C1CC0D111F4801F0BD141EA00014FF000004FF0004CB6E7B0
:2009600011F4801F04BF01430020B4F1FD0C88BFBCF5E06F3FF6AFAEB5EB030C04BFB6EB12
:20098000020C5FEA500C50F1000041EB045170BD0EF0004E4EEA113114EB5C04C2BFD4EB50
:2009A0000C0541EA045170BD41F480114FF0000E013C90E645EA060E8DE60CEA135594EA21
:2009C0000C0F08BF95EA0C0F3FF43BAF94EA0C0F0AD150EA01347FF434AF95EA0C0F7FF438
:2009E00025AF104619462CE795EA0C0F06D152EA03353FF4FDAE1046194622E750EA410659
:200A000018BF52EA43067FF4C5AE50EA41047FF40DAF52EA43057FF4EBAE12E74FF0FF3CE3
:200A200006E000BF4FF0010C02E000BF4FF0010C4DF804CD4FEA410C7FEA6C5C4FEA430C83
:200A400018BF7FEA6C5C1BD001B050EA410C0CBF52EA430C91EA030F02BF90EA020F00201C
:200A6000704710F1000F91EA030F58BF994208BF90422CBFD8176FEAE37040F00100704729
:200A80004FEA410C7FEA6C5C02D150EA013C07D14FEA430C7FEA6C5CD6D152EA033CD3D0FF
:200AA0005DF8040B704700BF8446104662468C461946634600E000BF01B5FFF7B7FF002891
:200AC00048BF10F1000F01BD4DF808EDFFF7F4FF0CBF012000205DF808FB00BF4DF808EDC1
:200AE000FFF7EAFF34BF012000205DF808FB00BF4DF808EDFFF7E0FF94BF012000205DF8D4
:200B000008FB00BF4DF808EDFFF7CEFF94BF012000205DF808FB00BF4DF808EDFFF7C4FF78
:200B200034BF012000205DF808FB00BF4FEA410C7FEA6C5C02D150EA013C0AD14FEA430C06
:200B40007FEA6C5C02D152EA033C02D14FF0000070474FF0010070474FEA410212F50012C1
:200B600015D211D56FF47873B3EB625212D94FEAC12343F0004343EA505311F0004F23FA4D
:200B800002F018BF404270474FF00000704750EA013005D111F0004008BF6FF000407047BE
:200BA0004FF00000704700BF4A0011D212F5001211D20DD56FF47873B3EB62520ED44FEABA
:200BC000C12343F0004343EA505323FA02F070474FF00000704750EA013002D14FF0FF3083
:200BE00070474FF0000070474FEA4102B2F1E04324BFB3F5001CDCF1FE5C0DD901F0004C15
:200C00004FEAC0024CEA5070B2F1004F40EB830008BF20F00100704711F0804F21D113F1EE
:200C20003872BCBF01F00040704741F480114FEA5252C2F11802C2F1200C10FA0CF320FA35
:200C400002F018BF40F001004FEAC1234FEAD32303FA0CFC40EA0C0023FA02F34FEA430382
:200C6000CCE77FEA625307D150EA01331EBF4FF0FE4040F44000704701F0004040F0FE4039
:200C800040F40000704700BF53B94AB9002908BF00281CBF4FF0FF314FF0FF3000F06EB9B4
:200CA000ADF1080C6DE904CE00F006F8DDF804E0DDE9022304B070472DE9F047089D044621
:200CC0008C46002B40F083808A42174647D9B2FA82F242B1C2F1200024FA00F091409740FF
:200CE00040EA010C94404FEA1748230CBCFBF8F61FFA87FE08FB16C143EA014306FB0EF194
:200D0000994209D9FB1806F1FF3080F01981994240F21681023E3B445B1AA4B2B3FBF8F00F
:200D200008FB103344EA034400FB0EFEA64509D93C1900F1FF3380F00581A64540F2028116
:200D400002383C4440EA0640A4EB0E0400261DB1D4400023C5E900433146BDE8F08702B95E
:200D6000FFDEB2FA82F2002A50D1CB1B4FEA174E1FFA87F80126B3FBFEFC210C0EFB1C33BB
:200D800041EA034108FB0CF38B4207D979180CF1FF3002D28B4200F2E9808446C91AA3B27A
:200DA000B1FBFEF00EFB101143EA014408FB00F8A04507D93C1900F1FF3302D2A04500F21A
:200DC000D9801846A4EB080440EA0C40BFE78B4209D9002D00F0B1800026C5E9000130465D
:200DE0003146BDE8F087B3FA83F6002E4AD18B4202D3824200F2B880841A61EB0301012052
:200E00008C46002DA8D0C5E9004CA5E7C2F1200320FA03F6974001FA02F04FEA174ED94071
:200E20003043030CB1FBFEF61FFA87F80EFB161143EA014306FB08F1994204FA02F409D9AC
:200E4000FB1806F1FF3C80F08D80994240F28A80023E3B445B1A81B2B3FBFEF00EFB10336A
:200E600041EA034100FB08F38B4207D9791800F1FF3C73D28B4271D902383944CB1A40EA81
:200E8000064678E7C6F1200C03FA06F422FA0CF31C4320FA0CF701FA06F34FEA144E21FA8C
:200EA0000CF11F433B0CB1FBFEF91FFA84F80EFB191143EA014109FB08FA8A4502FA06F2E9
:200EC00000FA06F308D9611809F1FF3048D28A4546D9A9F102092144A1EB0A01BFB2B1FBD6
:200EE000FEF00EFB101147EA014700FB08F8B84507D9E71900F1FF312ED2B8452CD902382C
:200F0000274440EA0940A7EB0807A0FB02894F45C64649461AD317D05DB1B3EB0E0267EB1B
:200F2000010707FA0CFCF2404CEA0202F740C5E9002700263146BDE8F0872E4628460BE79B
:200F40000646E9E61846FDE64345E5D2B8EB020E69EB04010138DFE70846D2E760468DE7CA
:200F60008146B9E7664675E730464AE7ACF1020C394413E702383C4424E700BF704700BF3F
:200F800010B5204A8EB044F64253ADF8003013681288ADF802201A0C8DF804204FF45812E8
:200FA000282102924FF4A072CDE90412164AF0241B0ECDE906424FF4963C40F6C462CDE971
:200FC00009C28DF805300B9200234FF48072CDE90C23ADF80630ADF80C3008936946421E4C
:200FE00000F10D0311F8014B02F8014F9342F9D104AA353012F8011B03F8011F9842F9D1BA
:201000000EB010BD000000200100180037B5094C019065680FF06AFE019B074AB0FBF2F08C
:20102000434301936368019A5B1B9342FAD303B030BD00BF001000E040420F0030B587B01C
:2010400004460D461422002101A817F0DFFA0122294620460EF0B8FA002301A92046CDE982
:20106000023301950EF036F907B030BD30B587B004460D461422002101A817F0C7FA2946E4
:20108000204601220EF0A0FA11220023CDE9022301A903232046019504930EF01BF907B0D2
:2010A00030BD00002DE9F84F254B264F93F8008000263546F3B298450BD8234B187809F0F9
:2010C0001DF81DB1012009F09DFC01252846BDE8F88F07EB43124FEA431AD17D69B301244E
:2010E0009C40E0B209F00AF84FF08C0B002002F02BFABBF1010BF9D107EB0A0957F80A009A
:20110000B9F80410FFF79AFFB9F8041057F80A000EF054FA0C4A63B2147828B12343137058
:2011200089F81AB00136C5E724EA0303137001231D4489F81A30EDB2F4E79176F2E700BF81
:2011400094110208206500206C04002008B50548012280210EF038FA08F0F8FFBDE80840D1
:20116000FFF7A0BF001002407FB50C4604A901E90C00029EBDF80C100191054600223046B9
:201180000EF022FA2846FFF741FF3046019901220EF01AFA204604B0BDE87040FFF736BFF2
:2011A00082B06B4683E806000CCB20B905213C2002B0FFF7D9BF3C210520F9E773B56D462C
:2011C00085E806000646002446FA04F095E8060000F001000134FFF7E3FF082CF4D102B0CC
:2011E00070BD73B56B4683E80300BDF804600CCB05460A210120FFF7B7FF31462846FFF76D
:201200001DFF314628460EF0D9F904462820FFF7FDFE28463146FFF729FF201E18BF012041
:2012200002B070BD73B56E4686E8030000252C4696E80300FFF7D5FFA84001350444082D05
:20124000E4B2F5D1204602B070BD73B56B4683E80300BDF804600CCB054646214FF4FA7057
:20126000FFF782FF31462846FFF7E8FE314628460EF0A4F9314604462846FFF7F7FE4FF459
:20128000C870FFF7C3FEB4FA84F0400902B070BD84B008B50DF1080C8CE80F00DCE90001C9
:2012A000FFF7D3FFBDE80840013818BF012004B0704784B007B50DF1100C8CE80F00DCE98B
:2012C0000001FFF7C2FF01281BD104AB93E80600CC20FFF773FF04AB93E806004420FFF733
:2012E0006DFF04AA92E803006B4683E80300FFF799FF003818BF012003B05DF804EB04B0CF
:2013000070470120F8E7000008B54378007800EB0320DB0980B20CD0404280B2FFF702F981
:20132000064B0022FFF768F9FFF75EFC00EE100A08BDFFF7F7F8024B0022F3E70000B0BF29
:201340000000B03F73B56C4684E80600054694E80300FFF77AFFE0B194E80600CC20FFF724
:201360002DFF94E80600BE20FFF728FF6E1E083594E80300FFF756FF06F8010FAE42F7D16B
:2013800094E80300FFF761FFB0FA80F0400902B070BD0120FBE737B56C4684E806000546D8
:2013A00094E80300FFF751FF10B9012003B030BD94E80600CC20FFF701FF94E806004E208A
:2013C000FFF7FCFE94E80600A878FFF7F7FE94E80600E878FFF7F2FE94E806002879FFF7AF
:2013E000EDFE94E80300FFF730FF0028DDD094E80600CC20FFF7E2FE94E806004820FFF765
:20140000DDFE142002F0A0F80020CFE710B586B06B4683E80600002204468DF8102003A874
:2014200093E80600FFF78EFFA0B99DF810301F2B03D10923237006B010BD3F2B01D10A23B1
:20144000F8E75F2B01D10B23F4E77F2B01D10C23F0E720700120EEE730B587B06D4685E804
:2014600006000446002395E806000DF10B008DF80B30FFF7CBFF10B1012007B030BD9DF8D2
:201480000B30A342F9D0092C1ED00A2C1ED00B2C1ED00C2C0CBF7F231F2395E8060003A8E2
:2014A0008DF81030FFF777FF0028E5D195E806000DF10B00FFF7AAFF0028DDD19DF80B304C
:2014C000181B18BF0120D8E71F23E6E73F23E4E75F23E2E730B593B0C3790493837903930E
:2014E0004379029303790193C37800930DAD837842780C462846134917F058FE9DF83830D8
:201500000D9A8DF824300AA9002308928DF8253005220B46A85C01F8010B01320C2AF9D14D
:201520000022BDF840108DF82F208DF81F2007AAADF81C100092044908AA204617F036FE38
:2015400013B030BD31BC01084EBC010830B50246014400208A4200D130BD12F8015B082424
:2015600080EA050313F0010F4FEA50001CBF80F08C03D8B2631E13F0FF044FEA5505EFD11F
:20158000E8E7000070B5304A86B0516804461068127A03AB03C394E803001A7001AB83E80C
:2015A0000300FFF73FFE08B9012538E094E80300FFF74BFE0028F7D094E80600CC20FFF7E5
:2015C000FDFD94E80600BE20FFF7F8FD03AE092594E80300FFF726FE013D15F0FF0506F809
:2015E000010BF5D1082103A8FFF7B0FF9DF81430834222D19DF80D309DF80C0000EB03208E
:2016000080B2DE09A0820DD0404280B2FEF78AFF0E4B0022FEF7F0FFFFF7E6FA206128465C
:2016200006B070BDFEF77EFF094B0022FEF7E4FFFFF7DAFA35462061F1E7064817F002FD15
:201640000A2017F017FDAFE7F8BB01080000B0BF0000B03F55BC01082DE9F0418AB006AD47
:2016600085E80600264A06465168106808AB03C395E80300FFF7E9FD00283ED095E806007C
:201680003320FFF79BFD08AFB846082495E80300FFF7C8FD013C14F0FF0408F8010BF5D137
:2016A000072108A8FFF752FF9DF8273083420BD1731EF01D17F8012B03F8012F8342F9D1EB
:2016C00020460AB0BDE8F08104939DF8263003939DF8253002939DF8243001939DF82330D8
:2016E00000939DF821209DF822309DF82010054817F0A8FC0A2017F0BDFC0124E0E700BF48
:2017000001BC010877BC01082DE9F04F2DED028BC84B1B788FB0012B04900C4602D1C648F3
:201720000FF0A2FE049B23F00203012B40F0AC80DFF824A3DFF824B3254626464FF0000861
:20174000B446BCE80F0006AF0FC79CE80F0087E80F0006AF97E80300FFF777FD012836D16F
:2017600006F11B0996E806004846FFF74FFE96E806004846FFF74AFEF37E9AF800209A42AA
:2017800025D0FF2B06D1AD48414617F05BFC0A2017F070FC4FF00A099AF80000F37E8342C2
:2017A00015D096E8060009F1FF39FFF755FE19F0FF0903D0002001F0C7FEEDE7F27E08F14E
:2017C0000101584617F03EFC0A2017F053FC08F10108B8F1080F06F12006B1D104F580735B
:2017E0004FF000080593C246059BAB420AD1049B032B40F09E80002528460FB0BDEC028BF7
:20180000BDE8F08F4FF00A0B4FF0020905F1100696E80F008DE80F0095E80F00FFF738FD32
:20182000AE46BEE80F00BC46ACE80F0096E80F008CE80F0097E80300FFF707FD012805D0D0
:20184000EB7D85F816A05BB92035CDE7A87596E80F008DE80F0095E80F00FFF72AFD814632
:20186000BBF1010BEB7D09D0012B03D185F818A085F81EA0B9F1000FCAD1E5E7012BE3D1FF
:201880002B76AB779846DFE7049B002B4FD109F097F8DDF810809FED6A8A002604F1070B5D
:2018A00035460223002705930DF11809A37DEBB1A646BEE80F000DF1180CACE80F009EE802
:2018C0000F008CE80F0099E80300FFF7BEFC0128824648D0002323726372A372E3722373AC
:2018E0006373A373E373E37D002B54D1DFF870A1DFED548A0A274FF00209A37D002B6ED15F
:20190000E37D012B00D123760136082E04F120040BF1200BC5D1049B7BB9002D3FF46BAF41
:20192000494817F08FFB0A2017F0A4FB64E74FF00008049B022BAED000253E4B1B78012B6C
:2019400002D13D480FF080FD002D3FF454AFB8F1000F3FF450AF3D4817F074FB0A2017F03A
:2019600089FB454648E794E806004846FFF774FEC0B13946364817F065FB0A2017F07AFB36
:2019800000220598A28284ED048A84F818A084F81DA055460590092F0FD0059B0137002BAE
:2019A00084D1A3E760774A4604F10F0312F8011B03F801199B45F9D1ECE7E77D012F95D128
:2019C000711C244817F03EFB0A2017F053FB0023A38284ED048A27766777B84686E72046BC
:2019E000FFF7D0FDA37D002818BF0125012B1AD19AF80030D4ED047A012B09D0B2EE027AA6
:201A000067EE877AF1EE046A87EEA67A77EE287AC4ED047A4FF00009013F23D0B9F1000F24
:201A20007FF46BAF70E7E37D84ED048A002BF3D16AE700BF3D05002060670020B5BC0108A1
:201A4000000000000000004228BD010839BD0108ECBC010803BD010874000020D1BC0108B3
:201A60002C010020E77D012F7FF44EAF711C044817F0E8FA0A2017F0FDFAB846277643E766
:201A800013BD010808B50B480B4A0C4BC0E9002300234FF48042C0E90233C0E90423C0E966
:201AA000063303620EF0BEFA18B1BDE8084009F0F7BC08BD9461002000540040A0860100DB
:201AC00070B50E4C0E4E0546012086B020703078012808D00A98009028460EF065FB00232F
:201AE000237006B070BD0020CDE90423039101F02BFDDDE904230399E9E700BF8C050020FD
:201B0000A004002070B50E4C0E4E0546012086B020703078012808D00A98009028460EF0AD
:201B20001BFC0023237006B070BD0020CDE90423039101F009FDDDE904230399E9E700BF55
:201B40008C050020A0040020030903EB830300F00F0000EB4300C0B270470A23B0FBF3F37C
:201B6000C3EB4312C3EB820200EB420040EA0310C0B2704710B5052386B0044602223E4886
:201B8000D0210EF059FD50B13C4817F05BFA0A2017F070FAFFF776FF012006B010BD8DF8F0
:201BA00010002078FFF7D9FF8DF811006078FFF7D4FF8DF81200A078FFF7CFFF8DF813006D
:201BC000E078FFF7CAFF8DF814002079FFF7C5FF8DF815006079FFF7C0FF8DF81600A07926
:201BE000FFF7BBFF64238DF8170000932248082304AAD021FFF764FF08B12148C5E702A87A
:201C000000F042F808B11F48BFE723789DF808009DF809206178834208BF9142A2789DF8F7
:201C20000A000CBF01230023824214BF002303F00103A2799DF80E00824214BF002303F06C
:201C4000010362799DF80D00824214BF002303F0010322799DF80C00824214BF002303F069
:201C60000103E2789DF80B00824214BF002003F0010080F0010090E7946100204FBD0108A9
:201C80007CBD010897BD01082DE9F043052389B0054602225A48D0210EF0CEFCB0B1FFF7DA
:201CA000F1FE642001F050FC554805230222D0210EF0C2FC50B1534817F0C4F90A2017F04D
:201CC000D9F90124204609B0BDE8F0836426DFF830813746009701230022D0214046FFF7FD
:201CE000EFFE40B1484817F0ADF90A2017F0C2F9FFF7C8FEE5E702AA00970723D021404671
:201D0000FFF700FF024608B14048ECE700970123D0214046FFF7D4FE08B13D48E3E70097D9
:201D2000072304AAD0214046FFF7ECFE044608B13848D8E702AA04AB012112F801EB13F8B4
:201D400001CB0130E64518BF00210728F5D1013E01D00029BED09DF80800FFF7F5FE81465A
:201D600028709DF80900FFF7EFFE014668709DF80A00FFF7E9FE0246A8709DF80B00FFF7B9
:201D8000E3FE8046E8709DF80C00FFF7DDFE074628719DF80D00FFF7D7FE687106469DF8C5
:201DA0000E00FFF7D1FE3B2998BF172A8CBF01210021B9F13B0F94BF0B4641F0010308F100
:201DC000FF32062A94BF1A4643F00102013F1E2F88BF42F00102A8711AB9013E0B2E7FF6D7
:201DE00071AF4FF08073069340F20113ADF81C3006A800238DF81E30FFF7BCFE61E700BF66
:201E000094610020B2BD01087CBD0108E1BD0108FFBD01081ABE01081FB564238DF80C00BA
:201E20008DF80D1000930948022303AAD021FFF747FE40B1064817F005F90A2017F01AF996
:201E4000FFF720FE012005B05DF804FB9461002038BE010830B585B0FA250C468DF8080018
:201E600000951048012302AAD021FFF729FE50B10D4817F0E7F80A2017F0FCF8FFF702FE40
:201E8000012005B030BD07480095012303AAD021FFF738FE08B10548EBE79DF80C30237071
:201EA000EFE700BF9461002038BE01085CBE01082DE9F3410646084617461D46FFF74DFE71
:201EC00004463846FFF749FE80462846FFF745FE07469DF82000FFF740FEF20744BF64F00A
:201EE0007F04E4B2B30748BF68F07F08054648BF5FFA88F8700744BF67F07F07FFB23107BE
:201F000044BF65F07F05EDB2F20644BF45F04005EDB2330623D421460720FFF77DFF48B109
:201F2000314817F08FF80A2017F0A4F8012002B0BDE8F0810DF107010720FFF78BFF08B17E
:201F40002A48EEE79DF80700041B18BF0124082641463046FFF760FF20B12548E1E70024D9
:201F60000B26F5E70DF107013046FFF773FF08B12048D6E79DF80730434518BF601C06F1F4
:201F8000010818BFC4B239464046FFF745FF08B11948C6E70DF107014046FFF75BFF08B150
:201FA0001648BEE79DF80730BB4218BF601C06F1020618BFC4B229463046FFF72DFF08B1F6
:201FC0000F48AEE70DF107013046FFF743FF08B10C48A6E79DF80730AB4201D00A48A0E764
:201FE000201E18BF0120A2E783BE0108A7BE0108CABE0108EEBE010811BF010835BF01084E
:2020000058BF01087CBF01089FBF010837B504460D460E206946FFF71DFF40B1164817F027
:2020200011F80A2017F026F8012003B030BD0123013C03FA04F49DF80030012D06BF43EA4C
:202040000401C9B223EA04010E208DF80010FFF7E3FE08B10948E2E701A90E20FFF7FAFEBB
:2020600008B10748DBE79DF800209DF804309A42DBD00448D3E700BFC4BF0108EEBF01088A
:2020800015C001083BC0010837B504460D460F206946FFF7DFFE40B1174816F0D3FF0A20D2
:2020A00016F0E8FF012003B030BD631E9DF80020012404FA03F312EA03001AD022EA03012A
:2020C0000F208DF80010FFF7A7FE08B10B48E4E701A90F20FFF7BEFE08B10948DDE79DF8DC
:2020E00000209DF804309A4201D12C70DBE70548D3E72870D7E700BF63C0010880C001085A
:202100009EC00108BBC0010813B50C460F2001A9FFF7A0FE40B1074816F094FF0A2016F044
:20212000A9FF012002B010BD9DF8043023F07F032370F7E7DAC0010813B5044669460E20F6
:20214000FFF788FE40B1154816F07CFF0A2016F091FF012002B010BD9DF80010032C9DBFA4
:2021600021F01C0141EAC400C1B241F004010E208DF80010FFF750FE08B10948E4E701A913
:202180000E20FFF767FE08B10648DDE79DF800209DF804309A42DDD00348D5E7FCC0010818
:2021A0001EC1010841C1010863C1010870B586B00CF0A4F80446C8B93348344D324E16F0BF
:2021C00041FF0A2016F056FF0CF098F8002850D1304616F037FF0A2016F04CFF01344FF4C0
:2021E000FA70E4B201F0B0F9032CEDD9284C294D002001F0A9F92378072B42D04FF4FA7027
:2022000001F0A2F94FF4FA7001F09EF94FF4FA7001F09AF94FF4FA7001F096F901231E4815
:202220002B7016F00FFF0A2016F024FF0BF0C6FF1A4A0123E15C02F8011B0133092BF9D1CF
:20224000237A0493E3790393A37902936379019323790093E378A2786178114816F0F2FE6B
:202260000A2016F007FF2878431E5842584106B070BD284616F0E6FE0A2016F0FBFE042468
:20228000ACE700232B70D1E787C1010899C10108A46700207C030020A9C10108A064002020
:2022A000BAC10108214A38B50005138800F57E25B3EB154F144616D2020CB3EB104F4FF07C
:2022C000000038BF228001F03FF90022208811460CF0C8F910B920880CF0CCF8238801334E
:2022E0002380022021E0FCD1114B1988B1EB153F1C4616D200F57020B1EB103F4FEA103328
:202300004FF0000038BF238001F01EF90022208811460CF007F90028E0D120880CF068F8E2
:20232000DCE7DED100201080188038BD94030020960300201A4A38B50005138800F57E25F5
:20234000B3EB154F144610D2020CB3EB104F4FF0000038BF228001F0F7F820880CF0E6FAF8
:20236000238801332380022019E0FCD10D4B1988B1EB153F1C460ED200F57020030BB1EB99
:20238000103F4FF0000038BF238001F0DDF820880CF0A0FAE4E7E6D100201080188038BD52
:2023A000B0030020B203002030B51B4B00051A880D4600F57E21B2EB112FC1B01C4627D2F3
:2023C000B2EB102F4FEA10234FF0000038BF238001F0BAF84FF480730022684621880CF08E
:2023E0000DFB00226B46104613F8011B0130A94218BF0132B0F5807FF6D122B1002323805B
:20240000012041B030BD2388013323800220F8E7FCD100201880F4E77E030020234A38B5DF
:202420000005138800F57E25B3EB154F144619D2020CB3EB104F4FF0000038BF228001F049
:2024400083F80022208811460CF00CF920B1238801332380022004E0154A002323801380CE
:20246000012038BDF6D1124B1988B1EB153F1D4616D200F57020B1EB103F4FEA10334FF01B
:20248000000038BF2B8001F05FF80022288811460CF048F80028DFD02B8801332B80D9E7C4
:2024A000D8D1002010801880DBE700BF980300209A0300202DE9F0470023C0B006030C46F7
:2024C0001A4631464FEA005868460CF097FA04F139030021187820281A4603F1FF3303D1D5
:2024E0001878202808BF5970A342F3D15D1EEA4602F137032F466A4600249F421FD1BCB36A
:202500006A462B46BB4223D100224FEA1838114640460CF007F88146F8B100231A463146BC
:2025200068460CF07FF900231A46314668460CF065FABD4220D1003C18BF012418E012F84C
:20254000011B17F8010F88421CBF0134E4B2D4E713F8011F02F8011BD4E740460BF048FF51
:202560004A46494640460BF0DDFF0028D5D10124204640B0BDE8F0871AF8013B15F8012FEF
:202580009A421CBF0134E4B2D3E710B5C0B04FF4807300220C46010368460CF02FFA002326
:2025A0006A46184612F8011BFF2914BFE154E0540133392BF6D1002040B010BD2DE9F04100
:2025C000C4B00B788DF804304B788DF805308B788DF80630CB788DF807300B798DF80830D0
:2025E0004B798DF809308B798DF80A30CB798DF80B300B7A8DF80C3004054B7A8DF80D30BC
:2026000004F57E248B7A8DF80E30270A00231A46394604A80CF0F2F901AD04AE0023314697
:202620002A46184612F801EB11F801CBE64518BF013003F1010318BFC0B20B2BF2D100286C
:202640003BD004A901AB0022013213F8010B01F8010B0B2AF8D10022240B114620460BF09E
:2026600061FF8046F0B100231A46394604A80CF0D9F800231A4604A839460CF0BFF9002393
:20268000184615F8011B16F8012B914218BF013003F1010318BFC0B20B2BF2D1003818BF55
:2026A00001200AE020460BF0A3FE4246414620460BF038FF0028D6D1012044B0BDE8F0816C
:2026C00010B50C460105C0B001F57E2168464FF480730022090A0CF091F99DF800302370E1
:2026E0009DF8013063709DF80230A3709DF80330E3709DF8043023719DF8053063719DF8BC
:202700000630A3719DF80730E3719DF8083023729DF8093063729DF80A30A372002040B056
:2027200010BD000010B5304B0005196800F58042120A8A42C0B01C4651D900F58050B1EB0A
:20274000102F4FEA10234FF0000038BF236000F0FBFE21684FF48073002268460CF04EF95A
:202760006946002311F8012BFF2A0BD12168FE200DF8030003EB01210CF014F800202060E6
:2027800040B010BD12B3FE2A08D1FC220DF8032021681DF8030003EB0121EDE7FC2A01D1F3
:2027A000F822F3E7F82A01D1F022EFE7F02A01D1E022EBE7E02A01D1C022E7E7C02A01D141
:2027C0008022E3E7802AE3D10022DFE70133B3F5807FC7D12368013323600220D0E7FCD1EC
:2027E00000221A600120CBE7AC03002038B5040504F58054240BA51C0022114628460BF006
:2028000091FE08B9280138BD01340022114620460BF088FE08B92001F5E70020F3E70000FD
:20282000F0B5324A030505460E46106803F58041090A8142C1B0144652D903F58053B0EB6D
:20284000132F4FEA13274FF0000038BF176000F07BFE216800224FF4807368460CF0CEF85C
:202860006A46002112F8013BFF2B0AD12368DB1B01EB0323DB00002046F82530206041B0AA
:20288000F0BD23B3FE2B1A4A09D1012313702368DB1B01EB0323117801EBC303EBE7FC2BE0
:2028A00001D10223F2E7F82B01D10323EEE7F02B01D10423EAE7E02B01D10523E6E7C02BB6
:2028C00001D10623E2E7802BE1D10723DEE70131B1F5807FC6D12368013323600220CEE761
:2028E000FCD1002313600120C9E700BFA40300209C03002030B5132387B0594313788DF861
:20290000043053788DF8053093788DF80630D3788DF8073013798DF8083053798DF809305E
:2029200093798DF80A30D3798DF80B30137A8DF80C30537A8DF80D30937A8DF80E30D37AC6
:202940008DF80F30137B8DF81030537B8DF81130937B8DF81230D37B8DF81330137C8DF8CD
:202960001430537C8DF81530937C8DF816301B4B01EB005000F580421968133291421D464B
:2029800028D200F58044A1424FF0000038BF1C6000F0DAFD296806AA0B1B134413F8140C3F
:2029A0000BF000FF0DF1030029680BF0E9FF2B6806AA1C1B14449DF8032014F8141C91420F
:2029C00017BF002301332B60012004BF2B60022007B030BD00201860FAE700BFA803002007
:2029E000132337B559432B4D01EB005000F5804329681333994218D200F58044A1424FF036
:202A0000000038BF2C6000F09FFD29680DF107000BF0B6FF2B68204A9DF807101C1B01334D
:202A200011552B60022003B030BD1C4B1120002113F8014BFF2C08BF03F8011C0138F7D1C8
:202A4000154B197811705978517099789170D978D170197911715979517199799171D979C0
:202A6000D171197A1172597A5172997A9172D97AD172197B1173597B5173997B9173D97BA0
:202A8000D173197C1174597C51749B7C93742860C9E700BFA003002080030020820300201E
:202AA000F0B5CDB003788DF8043043788DF8053083788DF80630C3788DF8073002AA031DD2
:202AC00000F1240113F8014B02F8014B8B42F9D10AAA2A3013F8011B02F8011B8342F9D1D2
:202AE00000231A4647F6F0710CA80BF087FF01AD0CAC002321462A46184612F8017B11F833
:202B0000016BB74218BF013003F1010318BFC0B22C2BF2D100283FD00CA901AB0022013200
:202B200013F8010B01F8010B2C2AF8D10022114640F2FF700BF0F6FC064600B300231A46D1
:202B400047F6F0710CA80BF06DFE00231A460CA847F6F0710BF052FF0023184615F8011BF2
:202B600014F8012B914218BF013003F1010318BFC0B22C2BF2D1003818BF01200CE040F299
:202B8000FF700BF035FC3246314640F2FF700BF0C9FC0028D2D101204DB0F0BD10B5C0B07F
:202BA0004FF48073002247F6F071044668460BF025FF6A462C23002112F8010BFF2808BFE4
:202BC00002F8011C013BF7D19DF8003023709DF8013063709DF80230A3709DF80330E370F4
:202BE00001AA231D04F1240112F8010B03F8010B8B42F9D109AA2A3412F8011B03F8011BCE
:202C0000A342F9D1002040B010BD00000248002280210CF0D9BC00BF000C02400248012210
:202C200080210CF0D1BC00BF000C024010B5084C0022202120460CF0C7FC05200BF0B2FFEB
:202C400020460122BDE8104020210CF0BDBC00BF000C024007B500238DF8043001224FF039
:202C6000FF3301A903480EF0C9FA9DF8040003B05DF804FB7C62002007B500228DF8070064
:202C8000402107480CF0A0FC4FF0FF3301220DF1070104480EF01FF903B05DF804FB00BF2A
:202CA000000C02407C620020F8B5012205460C460B480C4F40210CF087FC04B9F8BDB4F5B2
:202CC000004F264628BF4FF4004629464FF0FF33B2B238460EF0FFF83544A41BEDE700BF47
:202CE000000C02407C62002007B540BAADF80400022101A8FFF7D8FF03B05DF804FBF7B5DD
:202D000007462A2016461C460D46FFF7B5FF04210DEB01007FBA76BAADF80470ADF80660B6
:202D2000FFF7C2FF2B20FFF7A7FF04210DEB01006DBA64BAADF80450ADF80640FFF7B4FF05
:202D40002C20FFF799FF03B0F0BD0000F7B51C468318B3F5A07F154601EB0403C4BFC0F543
:202D6000A075ADB2F02BC8BFC1F1F0040F460646C8BFA4B2FFF74AFF7B1E721E23442A44DC
:202D800039469BB292B23046FFF7B9FFBDF820300E480F4F5BBA01224021ADF804300CF0D8
:202DA00013FC8CB9FFF73AFF03B0F0BD4FF0FF33022201A938460EF08EF8013EB6B2002E1A
:202DC000F4D1013CA4B2ECE72E46F8E7000C02407C62002030B5012285B04FF0FF3300215A
:202DE0008348844C0EF077F8FFF710FFFFF71EFF782000F0A9FB0120FFF73EFF782000F0AB
:202E0000A3FBCB20FFF738FF206823790090052168468DF80430FFF747FFCF20FFF72CFF6F
:202E20002346032133F8052FADF800209B788DF802306846FFF738FFE820FFF71DFF34F8F6
:202E4000082FADF80020A3788DF8023003216846FFF72AFFEA20FFF70FFF002402216846B0
:202E6000ADF80040FFF720FFED20FFF705FF624B009304216846FFF717FFF720FFF7FCFE2B
:202E80002023012168468DF80030FFF70DFFC020FFF7F2FE2323012168468DF80030FFF7E1
:202EA00003FFC120FFF7E8FE1023012168468DF80030FFF7F9FEC520FFF7DEFE42F63E037E
:202EC00002216846ADF80030FFF7EEFEC720FFF7D3FE8623012168468DF80030FFF7E4FEB6
:202EE0003620FFF7C9FE4823012168468DF80030FFF7DAFE3A20FFF7BFFE552301216846AC
:202F00008DF80030FFF7D0FEB120FFF7B5FE4FF4C05302216846ADF80030FFF7C5FEB62033
:202F2000FFF7AAFE354B03211A889B78ADF8002068468DF80230FFF7B7FEF220FFF79CFE23
:202F4000012168468DF80040FFF7AEFE2620FFF793FE012168468DF80010FFF7A5FEE0206F
:202F6000FFF78AFE264B6A4603F1080518685968144603C40833AB422246F7D11868998856
:202F80009B79A3712060A18068460F21FFF78CFEE120FFF771FE1B4B6A4603F1080518680D
:202FA0005968144603C40833AB422246F7D1186899889B79A3712060A18068460F21FFF799
:202FC00073FE1120FFF758FE782000F0BDFA2920FFF752FE3620FFF74FFE28230121684681
:202FE0008DF80030FFF760FEFFF718FE05B030BD7C62002009BC010864031281EBC101089F
:20300000EFC1010814BC010882B02DE9F74FDEB2C3F3072514460D93721E6B1E0B44024476
:203020009BB292B2BDF83C80FFF769FEC72C70D0E72C70D0B42C70D0A82C70D0C02C70D04B
:20304000C12C70D0C22C70D0C32C70D0C42C70D0C82C70D0C92C70D0CA2C70D0CB2C70D0E0
:20306000CC2C70D0CD2C70D0CE2C70D0CF2C70D0D22C70D0D32C70D0D42C70D0D52C70D06C
:20308000D62C70D0D92C70D0DA2C70D0DB2C70D0DC2C70D0E02C70D0E12C70D0E22C70D0ED
:2030A000E32C70D0E42C70D0E82C70D0E92C70D0EA2C70D0EB2C70D0EC2C70D0ED2C70D06A
:2030C000EE2C70D0EF2C70D0F22C70D0F32C70D0F42C70D0F52C70D0F62C70D0F92C70D0F6
:2030E000FA2C70D0FB2C70D0FC2C70D07F2C28BF2024BDF840A0203C6C4364004FF0000979
:203100009AFA9AFAA94564D303B0BDE8F04F02B070477F24EDE78024EBE78124E9E782245A
:20312000E7E78324E5E78424E3E78524E1E78624DFE78724DDE78824DBE78924D9E78A2403
:20314000D7E78B24D5E78C24D3E78D24D1E78E24CFE78F24CDE79024CBE79124C9E7922423
:20316000C7E79324C5E79424C3E79524C1E79624BFE79724BDE79824BBE79924B9E79A2443
:20318000B7E79B24B5E79C24B3E79D24B1E79E24AFE79F24ADE7A024ABE7A124A9E7A22463
:2031A000A7E7A324A5E7A424A3E7A524A1E7A6249FE7A7249DE7A8249BE7A92499E7AA2483
:2031C00097E7AB2495E7AC2493E7AD2491E7AE248FE70E9B33F804B00027BE4203D809F1C7
:2031E000010902348EE70BFA07F31B0409D598FA98F3ADF80430022101A8FFF755FD0137DC
:20320000EBE7ADF804A0F6E782B02DE9FF470446BDF83C90BDF840A00D9388461546DFB26E
:20322000C3F30726FFF7F2FC15F8012B2AB904B0BDE8F04702B0FFF7F1BCE319B3F5A07F03
:203240000BDB08EB06031FFA83F816FA83F3EF2BEDDC202A4FF00004E6D00E9B8DF834707A
:203260008DF8356000932046CDE9019A0D9B41463C44FFF7C9FEA4B2D6E730B4B0F5A07FC3
:20328000BDF8085005D2EF2903D8029530BCFFF75DBD30BC704707B500210090F0234FF45E
:2032A000A0720846FFF752FD03B05DF804FBB0F5A07F13B505D2EF2903D800930123FFF75F
:2032C000DCFF02B010BDB0F5A07F13B506D2EF2904D8009313460122FFF7CFFF02B010BDEA
:2032E0002DE9F341B0F5A07FBDF8207004460D4690461E4620D2EF291ED800970123FFF7F3
:20330000BCFFA919424620460097012389B2FFF7B4FF33462946204600970122FFF7ADFFF9
:2033200004EB080033460122294680B2089702B0BDE8F041FFF7A1BF02B0BDE8F081B0F56F
:20334000A07F13B5144610DAEF290EDC80B289B24B1C421C9BB292B2FFF7D1FC64BA022179
:2033600001A8ADF80440FFF79FFC02B010BD2DE9F74FBDF8306007460C4698469146FFF7C0
:2033800045FC264408EB070BB6B24FF0000A1FFA8BFBB44215D009EB4A033D4621B20AE0D1
:2033A00033F8022B28B2CDE90013FFF7C8FFDDE900130135ADB25D45F2D10134C244A4B2F1
:2033C000E7E703B0BDE8F04FFFF728BC2DE9F74FA3EB0109A2EB000AB9F1000FB8BFC9F139
:2033E0000009BAF1000FB8BFCAF1000AD145BDF8307004460D46904603DD98460C46134687
:203400000546444505DD29461D460B46214644468846A8EB0406A3EB050BBBF1000FC6F365
:20342000C031B2B2B8BFCBF1000B01FA86F69D42B4BF01234FF0FF33009276100193FFF7F9
:20344000E5FB444504DD03B0BDE8F04FFFF7E6BBD145C7BF2146284629462046A6EB0B060C
:203460003A46FFF76CFFB3B236B2002E05DA019A1544009AD6182DB236B2013424B2E0E7FC
:20348000044BC90001F4FC6141EAD20203EA00201043704700F8FFFF2DE9F341089E1D4663
:2034A0000F4614468046FFF7B1FB2A20FFF7E4FB1FFA88F0FFF718FCA0B2FFF715FC2B2097
:2034C000FFF7DAFBB8B2FFF70FFCA8B2FFF70CFC2E20FFF7D1FBFFF7BDFBE91BA4EB080005
:2034E000441C4B1C14FB03F39BB203EB43050F4FADB206EB4304A64205D1FFF78FFB2846DC
:2035000002B0BDE8F0814FF0FF33032201A938460DF074FE9DF806209DF805109DF80400B8
:20352000FFF7AEFF26F8020BE5E700BF7C62002008B504480DF051F918B1BDE8084007F037
:20354000AFBF08BDE861002010B50446FFF7F0FF013C00D210BDFFF7EBFF01200BF022FBE6
:20356000F6E700000C480D4A08B542F21073C0E9002300234FF48042C0E90233C0E90423AD
:20358000C0E9063303620CF04DFD18B1BDE8084007F086BF08BD00BFF05E0020005C00401E
:2035A00070B50E4C0E4E0546012086B020703078012808D00A98009028460CF0F5FD0023A4
:2035C000237006B070BD0020CDE904230391FFF7BBFFDDE904230399E9E700BFA004002058
:2035E0008C05002070B50E4C0E4E0546012086B020703078012808D00A98009028460CF0C8
:20360000ABFE0023237006B070BD0020CDE904230391FFF799FFDDE904230399E9E700BF31
:20362000A00400208C05002030B585B005250C468DF80C008DF80D1016480095022303AA87
:20364000D021FFF7ADFF50B1134815F0FBFC0A2015F010FDFFF786FF012005B030BD0D48B0
:203660000095012303AAD021FFF79AFF08B10B48EBE708480095012303AAD021FFF7B2FF38
:2036800008B10748E1E79DF80C30181B18BF0120E3E700BFF05E0020FEC1010822C20108B2
:2036A00046C2010810B5084805230122D0210CF0C3FF08B1FFF756FFBDE81040024805237F
:2036C0000122D0210CF0B8BFF05E0020000000002DE9F04F984B2DED028B196885B069B146
:2036E000964815F0AFFC0A2015F0C4FC4FF0020A504605B0BDEC028BBDE8F08F904E914DA1
:20370000012405231A46D02130460CF095FF824670B12146284615F095FC01340A2015F04D
:20372000A9FCFFF71FFF0A2CEBD14FF0010ADFE79FED858ADFF80892844DDFF834B20446EA
:203740000646074680460020FFF7FEFE3B238DF80C30052300937A48012303AAD021FFF7A4
:203760001FFF002800F0B680794815F06BFC0A2015F080FCFFF7F6FE0134E4B2632CE2D906
:2037800007EE908AF8EEE77AC7EE886A07EE907AF8EEE77A87EE887A07EE906AF8EEE77A39
:2037A000C7EE888A9FED6B8A66EE887A17EE90BA67EE087A17EE900AFCF7C6FE0646584605
:2037C0000F46FCF7C1FE68EE887A804617EE900A8946FCF7B9FE02460B46FCF70DFF42468C
:2037E00004460D464B4640464946FCF705FF22462B46FCF74BFD41EC100B18F03DF8304680
:2038000053EC102B3946FDF721F841EC100B17F087FE514B51EC100B0022FCF7EDFE44A3F3
:20382000D3E90023FDF712F84C4B804618688946FCF78AFE02460B4640464946FCF724FDC2
:20384000FDF7D2F9324608EE100A3B4630463946FCF7D2FE22462B46FCF718FD41EC100BBF
:2038600018F00AF855EC104B8BF00040FCF76CFE22462B46FCF7EAFF41EC100B17F050FE38
:20388000354B51EC100B0022FCF7B6FE28A3D3E90023FCF7DBFF324B044618680D46FCF783
:2038A00053FE0B46024629462046FCF7EDFCFDF79BF9DFED2C7A2C4B38EE678A07EE900A56
:2038C000BDEEC88AFDEEE77A83ED008A274BC3ED007A0DE71E2300931C4A0623D021484633
:2038E000FFF780FE08B158463FE72A786B7843EA022308FA83F8AA78EB7843EA022307FAAB
:2039000083F72A796B79F0EE087AB4EEE78A43EA0223F1EE10FA06FA83F604D5F7EE007A47
:2039200038EE278A28E7632C3FF4FFAE642423E77A008BFCFA210940C40300206DC201081C
:20394000F05E0020A5C201080000000070060020FEC101080000803800806640B403002076
:20396000B80300200000B442BC030020C003002046C20108000000002DE9F0472DED068BAB
:203980008F4886B015F05EFB0A2015F073FB8D4B196861B18C4815F055FB0A2015F06AFBF7
:2039A0000224204606B0BDEC068BBDE8F087874F874E092505231A46D02138460CF03CFE69
:2039C000044668B13046013D15F03CFBADB20A2015F050FBFFF7C6FD002DEBD10124E0E72D
:2039E000DFED7C8ADFF8E4A17B4E9FED7C8A05460746804681460020FFF7A6FD3B238DF87D
:203A00001430052300937148012305AAD021FFF7C7FD002800F0A080714815F013FB0A2042
:203A200015F028FBFFF79EFD0135ADB2B5F57A7FE1D307EE909AF8EEE77A9FED6A9A87EE76
:203A4000A87A07EE908AF8EEE77A87EEA88A07EE907AF8EEE77A28EE098AC7EEA89A67EE0C
:203A6000098AFDEEE87A17EE903A002BB8BF5B4207EE903AF8EEE77AE9EE897A17EE900AD9
:203A8000FCF762FD41EC1A0B18EE100AFCF75CFDB0EE4A1AF0EE6A1A41EC100B17F0E9FE7C
:203AA000514B51EC100B0022FCF7A6FD4F4B0022FCF7A2FDBDEEC88A3FA3D3E90023FCF75B
:203AC000C5FEFDF791F818EE103A002BB8BF5B4208EE103AB8EEC88A0646A9EE898A18EEE3
:203AE000100AFCF731FD41EC190B18EE900AFCF72BFDB0EE491AF0EE691A41EC100B17F0CE
:203B0000B8FE394B51EC100B0022FCF775FD384B0022FCF771FD28A3D3E90023FCF796FE55
:203B2000FDF762F8334B1E60334B054618603046FCF70AFD02460B462846CDE90223FCF7B5
:203B400003FDDDE90223CDE900012C4815F07AFA0A2015F08FFA24E71E2300931E4A0623AE
:203B6000D0215046FFF73EFD08B1254855E73278737843EA022309FA83F9B278F37843EA03
:203B8000022308FA83F832797379F4EEC88A43EA0223F1EE10FA07FA83F704D5F7EE007ACA
:203BA00078EEA78A40E740F2E7339D423FF416AF4FF47A7538E700BF7A008BFCFA210940AF
:203BC000D7C20108C40300206DC20108F05E0020E9C20108000000007006002000004843E1
:203BE000FEC1010800008038008076400000E03F0000E0BFB4030020B803002017C30108BC
:203C000046C20108F0B5274F274E85B0052500224FF4007138460BF0D7FC3220FFF794FCAA
:203C200001224FF4007138460BF0CEFC3220FFF78BFC05231A46D02130460CF0FDFC08B1FE
:203C4000FFF790FC05231A46D02130460CF0F4FC68B1164815F0F6F9013D0A2015F00AFA2B
:203C6000FFF780FC15F0FF05D1D1012416E048F26B03ADF80C300523009303AA0223D02105
:203C80003046FFF78DFC044608B10948E2E70AF083FF084B18602046FFF756FC204605B002
:203CA000F0BD00BF00040240F05E002028C30108FEC10108C40300201FB57523ADF80C30F4
:203CC0001A4B196841B11A4815F0BCF90A2015F0D1F9022004B010BD0A2416480094012310
:203CE00003AAD021FFF75CFC48B1134815F0AAF9204615F0BFF9FFF735FC0120EAE7052378
:203D000000930C48012303AAD021FFF76BFC08B10A48EBE79DF80C106829DBD0084815F07E
:203D200091F9204615F0A6F9E7E700BFC40300206DC20108F05E002052C3010878C3010873
:203D4000A1C301082DE9F0412F4C2368054633B12E4E0AF021FF2368643898421CD30023D1
:203D60002B4E2C4FDFF8BC8023600124FFF79AFC08B1FFF7F7FBFFF795FCC0B1264821469A
:203D800015F060F901340A2015F074F9FFF7EAFB0A2CEBD1012035E00020FFF7D5FB216882
:203DA000304615F04FF90A2015F064F9D1E7FFF783FF014610B119482146E1E76B20FFF76B
:203DC00033FC014610B121464046D9E71B20FFF72BFC014610B121463846D1E71C20FFF7D0
:203DE00023FC10B121463046CAE7012D0AD10C4815F028F90A2015F03DF9FFF7BDFD003885
:203E000018BF0120BDE8F081C40300206DC201086EC4010840C40108D0C30108F0C30108D5
:203E20009DC4010813C4010807B5F02300210246009308464FF4A073FFF799FA03B05DF838
:203E400004FB000030B5094A01F1C60314685D1AAC4206DB08551368C52B9CBF01331360E4
:203E600030BD13F8014D5C70F0E700BF2404002070B50D4619464378012B144602D04379AC
:203E8000002B4CD04F2D15D1A2480468224613460132CD5C15F0DF0F01D0C52BF7D9194425
:203EA0004B7833B1C52A04D89B4B1B68A342FDD1026070BD502DFCD1964C2368002BF8DD2E
:203EC000954A12689342FDD1CA18C85C12F8012C203A18BF012200B9013BC81805E005781E
:203EE000202D03F1FF3300D10132DE43012A4FEAD676C8BF002610F801590EB1002DEED1C0
:203F0000002B03DA834B00221A60D2E719445A1C4B78002BCDD0C52ACBD82260C9E72F2DF8
:203F200082781ED17D4C012A2368264601D085795DB113B960233360BBE7D8B2FFF782FF4B
:203F40006020FFF77FFF0023F5E713B9B4232360AFE7D8B2FFF776FFB420FFF773FF2560FC
:203F6000A7E7342D16D16D4C012A2368264601D085793DB10BB95E23DDE7D8B2FFF762FFE9
:203F80005E20DEE70BB97E23E1E7D8B2FFF75AFF7E20E2E7012A01D0837973B1232D0CD128
:203FA0005E4C206808B9A823D1E7C0B2FFF74AFFA820FFF747FF0023C9E72A2D14D1554B27
:203FC0001A68501EC5283FF674AF534C2468A242FDD10A441860C83191423FF46AAF12F8E7
:203FE000013B02F8023CF7E74C2D0AD1494B1B680B445A1AC62A3FF65CAF5A7803F8012B18
:20400000F7E7A4F120035F2B00F2DB80434D2B68002B00F0D180602B1CD1412C6ED0452C10
:204020006ED0492C6ED04F2C6ED0552C6ED0612C6ED0652C74D0692C74D06F2C74D0752C1E
:2040400074D06020FFF7FEFE2046FFF7FBFE00232B602EE7B42B15D1412C69D0452C69D07D
:20406000492C69D04F2C69D0552C69D0612C69D0652C69D0692C69D06F2C69D0752C69D018
:20408000B420DFE75E2B15D1412C65D0452C65D0492C65D04F2C65D0552C65D0612C65D0FD
:2040A000652C65D0692C65D06F2C65D0752C65D05E20C7E77E2B09D1412C61D04F2C61D0D1
:2040C000612C61D06F2C61D07E20BBE7A82BBBD1412C5DD0452C5DD0492C5DD04F2C5DD035
:2040E000552C5DD0612C5DD0652C5DD0692C5DD06F2C5DD0752C5DD0A820A3E7C024A3E782
:20410000C824A1E7CC249FE7D2249DE7D9249BE7E02499E72404002028040020D0030020B1
:20412000E82491E7EC248FE7F2248DE7F9248BE7C12489E7C92487E7CD2485E7D32483E7EE
:20414000DA2481E7E1247FE7E9247DE7ED247BE7F32479E7FA2477E7C22475E7CA2473E72D
:20416000CE2471E7D4246FE7DB246DE7E2246BE7EA2469E7EE2467E7F42465E7FB2463E771
:20418000C32461E7D5245FE7E3245DE7F5245BE7C42459E7CB2457E7CF2455E7D62453E753
:2041A000DC2451E7E4244FE7EB244DE7EF244BE7F62449E7FC2447E72046BDE87040FFF7B8
:2041C00041BE4F2D0FD1324A324813680068C95C31B1C52B04D88342FDD10133136068E650
:2041E0008342FDD18EE6502D13D1294A294813680468002B0BDDA342FDD1013BEEE7013084
:204200000D5C002DFBD1A342FDD1106051E60020F6E7522D0CD11E4A1E49136809681B2B88
:2042200003DD8B42FDD11C3BD8E78B42FDD169E6512D19D1002200E001328B5C002BFBD188
:20424000134B196801F11C00904208DA1B293FF730AE104A12689142FDD1186029E60D4814
:2042600000688142FDD14FE64B2D3FF44BAE4E2D7FF41FAE002200E001328B5C002BFBD19E
:20428000044B1868024B19688842FDD13CE600BF24040020280400201F48016801BB1F4B7E
:2042A0001A6812B905221A607047052A02D11B4B0622F8E7062A01D10822F4E7082A01D1DF
:2042C0000922F0E7092A01D10B22ECE70B2A01D10C22E8E70C2A1ED10122026019607047F9
:2042E000012918D10D4B1A68002AF7D0012A01D10322D8E7032A01D10422D4E7042AD6D04B
:20430000062A01D10722CEE7072A04D1044A117000221A60026070471804002014040020BF
:204320001004002013B519234CF21864194618460094FA22FEF7A1FF192318460094FA223F
:20434000BE21FEF79AFF1922104600948C233221FEF793FF00948C2319223221FA20FEF762
:204360008CFF502319460094192240F21310FEF784FF3C210846009478231C22FEF77DFFBB
:20438000009478231C223C216220FEF776FF009478231C223C218820FEF76FFF0094782363
:2043A0001C223C21AE20FEF768FF009478231C223C21D420FEF761FF002002B010BD000086
:2043C0002DE9F043534F544B3A68544C53F822104FF6E0754FF62053002918BF1D4653018B
:2043E00004EB421287B0917D01296DD1127E002A6AD1083304AA23444FF00809104613F8D7
:20440000011B02F8011BB9F10109F8D1DFF82081434E4146FDF75EF8CDE901597368009395
:204420004246336869218B20FEF7EEFE3B6804EB43131869FCF788F802460B4640463949C6
:2044400014F0B4FE3B689FED387A04EB4314D4ED047A364BF4EEC77AF1EE10FA1B78424698
:2044600012DB012B02D12C2388F80330CD200023CDE901537368009333682D4A7D21FEF721
:20448000C3FE07B0BDE8F083B2EE047AF4EEC77AF1EE10FA05DB012B01D12C239370D8203A
:2044A000E5E7F5EEC07AF1EE10FA05DD012B01D12C235370E320DAE7BAEE047AF4EEC77A2B
:2044C000F1EE10FAE7DDF1E70026CDE90156144C184A63680093236869218B20FEF794FEBD
:2044E000124B15491B781248012B144B1B7814BF2E222C22B34214BF4323462314F056FE96
:20450000CDE90156636800932368094A7D21E320B5E700BFD8030020EC04002020650020A6
:204520005C000020C2C401080000C84235050020DB2E0020C9C40108DAC401082C01002059
:20454000F0B40D2101FB00F3164C1749174D94F804C005F803C01944EA1800236779A679E3
:20456000A5784B7164788B71CB710B724B72104957709670D570147153719371D371137293
:20458000537201220A7081F801C08F70CE700D714C718B71CB710B724B728B72F0BCC0B27A
:2045A000FEF70CB818650020D462002014620020406600202DE9F041DFF860E01549164AD7
:2045C0000D2444430EEB04031EF804404C705C7892F804C05779967995788C7052789C7825
:2045E00083F805C09F71DE711D725A724FF00008CC70DC781B7981F800800C714B7181F8AB
:2046000006C0CF710E724D728A72BDE8F041C0B2FDF7D4BF40660020186500201462002091
:2046200030B5164B164C197801EB410301EB8301144B1A68144B53F8225085B09DB1134BC3
:204640001348194414F0B2FD00234FF62052CDE90132636800930E4A23682D21B420FEF7D4
:20466000D3FD05B030BD0B4B0948194414F09EFD4FF6E073CDE90153EBE700BF3F0500208E
:204680005C000020D8030020EC0400207CD50108DB2E002000D6010830B5154B154C1978FA
:2046A00001EB410301EB8301134B1A68134B53F8225085B09DB1124B1248194414F076FD51
:2046C000002302934FF620530193636800930D4A23682D21B420FEF797FD05B030BD0A4BF4
:2046E0000848194414F062FD02954FF6E073EBE73F0500205C000020D8030020EC040020BE
:20470000A3D50108DB2E002027D601082DE9F043204DDFF8849087B00E4605244FF000084D
:204720002F4619F8013B8DF81580CDE90168002B08BF20238DF814306B6800932B68204621
:2047400005AAB9210B34FEF75FFDA4B240F239139C42E6D1DFF8449005254FF0000819F8AA
:20476000013B8DF81580CDE90168002B08BF20238DF814307B68009328460B353B6805AA50
:20478000CD21ADB2FEF740FDA542E8D107B0BDE8F08300BF5C000020D8630020F46300201E
:2047A000494B2DE9F0411D68484F0D236B438AB0FB5C632B9FBF4FF00A0CB3FBFCFCCCEBF5
:2047C0004C12CCEB820298BF03EB42034FF00D0202FB057288BF002351788CBF9C46DBB207
:2047E00063299FBF0A22B1FBF2F2C2EB4210C2EB800098BF01EB40014FF00D0000FB0570A7
:2048000088BF002180788CBF0A46C9B263289FBF4FF00A0EB0FBFEFECEEB4E14CEEB8404DF
:2048200098BF00EB44004FF00D0404FB057488BF0020E4788CBF8646C0B2632C9FBF0A26C1
:20484000B4FBF6F6C6EB4618C6EB880898BF04EB48044FF00D0808FB057588BF00242D79F9
:2048600094BFE4B22646632D9FBF0A27B5FBF7F7C7EB4718C7EB880898BF05EB4805DFF868
:20488000608098F800808ABF0025EDB22F46B8F1010F0CBFCDE90021CDE900C3CDE902E03A
:2048A00015BF0B460A490B49624605A814F07EFCCDE9017508490094334605AA074814F0CD
:2048C00075FC0AB0BDE8F081D803002014620020E5C40108F4C4010803C50108DB2E002099
:2048E00034050020354B2DE9F0411E68344B0D2202FB06368AB03379632B53D80A25717973
:20490000B1FBF5FCCCEB4C13CCEB830301EB4301B379B3FBF5F2C2EB4210C2EB800003EB9C
:204920004003F079B0FBF5FECEEB4E14CEEB840400EB4400347AB4FBF5F7C7EB4718C7EB96
:204940008808767AB6FBF5F504EB4804C5EB4518C5EB880806EB4806C9B2DBB2C0B2E4B265
:20496000F6B2DFF8708098F80080B8F1010F0ABFCDE90023CDE900C10B46CDE902E00ABF34
:2049800010491149624605A814F010FCCDE901560E4900943B4605AA0D4814F007FC0AB0C1
:2049A000BDE8F081002427462046A646234622462146A44626462546D3E700BFD803002091
:2049C00014620020E5C40108F4C4010803C50108DB2E0020340500202DE9F04F0D23434370
:2049E000574FF95C63299FBF4FF00A0CB1FBFCFCCCEB4C13CCEB830398BF01EB43014FF0C0
:204A00000D0303FB007388BF00215B788CBF8C46C9B2632B98BF0A2204469FBFB3FBF2F2F7
:204A2000C2EB4210C2EB800003EB40034FF00D0000FB047088BF002380788CBF1A46DBB2C4
:204A400063289FBF4FF00A0EB0FBFEFECEEB4E15CEEB850598BF00EB45004FF00D0505FB38
:204A6000047588BF0020AD7A8CBF8646C0B2632D9FBF4FF00A08B5FBF8F8C8EB4816C8EB03
:204A8000860698BF05EB46054FF00D0606FB047688BF0025F67A94BFEDB2A846632E9FBF80
:204AA0004FF00A09B6FBF9F9C9EB491AC9EB8A0A98BF06EB4A064FF00D0A0AFB047788BFED
:204AC00000263F7B94BFF6B2B146632F9FBF4FF00A0AB7FBFAFACAEB4A1BCAEB8B0B98BF5F
:204AE00007EB4B07DFF86CB09BF800B08FB08ABF0027FFB2BA46BBF1010F0DF1240B0ABF2A
:204B0000CDE90023CDE900C10B46CDE902E00ABF0C490D496246584614F048FB631CCDE926
:204B200005A7CDE90396CDE901850849CDF800B01A46074814F03AFB0FB0BDE8F08F00BFEE
:204B4000D4620020E5C40108F4C4010810C50108DB2E00203405002030B500238B4204DB78
:204B6000012300224254184630BDC25C32B9C4182025CB1A934203DC0023F2E70133EDE747
:204B800004F8015B0132F5E72DE9F04F85B0984604AF0B2392FBF3F39C1D24F00704ADEB82
:204BA000040DBD6AB7F82CA05E1E0DF1100B0024B4424DDB012BACBF5B440BF101034FF0F6
:204BC00000048EB295B203F8014C84B22A4631462046CDF800A0142306F11409FEF74DFB92
:204BE0001FFA88F81FFA89F9AA1E601C002300934946434692B280B2FEF73FFB3A8E174BA0
:204C0000CDF808A001925A680092B11CE01C5A461B6889B280B2FEF7F7FA08F1130131447F
:204C200053462A46204689B2FEF741FB2046013C5346424649462C44FEF745FB5346424680
:204C40004946A0B2FEF73FFB0437BD46BDE8F08F15F804C00BF804C00134A9E75C00002009
:204C60002DE9FF47704D714E2978714BDFF80492704C01EB810103EB8101304614F0B6FACE
:204C80004CF218670C23CDE901370096C8234FF4A07214210020FFF777FF2B78664A03EB62
:204CA000430102EB410209EBC3036449304614F07DFA0023CDE9017363680093324623687A
:204CC0005F4E2D210520FEF79FFA0097152340F2371240210420FEF703FB42F20413009386
:204CE0004FF49B72142341210520FEF7C6FAF17828783379534A96F806C07779002900F042
:204D00008E800139CDE9007C01EBC00102EB81024D494E4814F04AFA4CF21867636800936D
:204D200042F2041A2368494ACDE9017A41210520FEF76AFA2A78464B46493C4802EB42027B
:204D400003EB420214F032FA4FF0000863680093CDE901782368354A96210520FEF754FAF4
:204D60000097152340F23712A9210420FEF7B8FACDF800A014234FF49B72AA210520FEF783
:204D80007CFA337800937378B2783349334814F00DFA63680093CDE9017A23682F4AAB21E9
:204DA0000520FEF731FA2A782D49204809EBC20214F0FCF963680093CDE9017823681B4A00
:204DC0005F210520FEF720FA2A78264B26491748C2EB02121A4414F0E9F963680093CDE925
:204DE00001782368114A78210520FEF70DFA2A781E4B1F490D4802EB420202EBC2021A4492
:204E000014F0D4F963680093CDE901782368074AD2210520FEF7F8F904B0BDE8F087CDE9D4
:204E2000007C02EB401273E73F050020DB2E00201DCD01085C00002063CC01082EC501082D
:204E4000AC660020D7D7010841C50108A60600200BCD010854C50108BFC80108E05E00209D
:204E600063C50108DECC01086DC501088DCC01082DC7010875CC01082DE9F04F2DED028B6E
:204E80000C4695B0002930D1002828DD0C234CF21862CDE90132B44DB44A2B7803EB83033E
:204EA00002EB830300934FF4A072C82314212046FFF76AFEAE4B2A78AE49AF4803EB021228
:204EC00014F074F9AD4B02944FF6FF7201925A6800921B68A84A2D210620FEF795F9204664
:204EE00015B0BDEC028BBDE8F08F012940F08B810024DFF89482DFF880922646D8ED047A84
:204F0000BDEEE78AB8EEC87A77EEC77A17EE900AFBF71AFB92A3D3E90023FBF76DFBFBF7E1
:204F20001BFE0DAA079008F1080100231046013311F8015B02F8015B082BF8D10DF13C0A60
:204F40005146FCF7C7FA671C079B8D4901938DED008A53463A4648468DF84A6014F026F97A
:204F600098F81730804D012B29780DF1240B40F03581844B584603EB810114F017F94FF479
:204F8000FC630693804B03EB441404F110030FCB8DE80F0094E80F00FCF77AF929780028E8
:204FA00040F02581774B0BA803EB810114F0FEF8764B774A1B78127876498DED028A012BAC
:204FC00014BF2E232C23002A14BF432246220592079A6A4CCDE90332CDE900BA0BAB3A4615
:204FE000484614F0E3F8069B0296019363680093C7EB07112D3123684A4689B20E20FEF778
:2050000003F9082F08F1200840F0A6802B78624A02EBC302614B06921868FBF795FA4FF65B
:20502000FF77CDE90001069A5D49534814F0BEF8029601976368009323684F4AB4210E20F3
:20504000FEF7E2F82A7802EB820302EB4302554B1A44554B06921868FBF776FA069ACDE9CD
:2050600000015249444814F0A1F8CDE90176636800932368404AB4218C20FEF7C5F82A78F6
:205080004B494C4B3C481B68C2EBC2020A444A4914F08CF8CDE90176636800932368364A6E
:2050A000C3210E20FEF7B0F8444B45491A68324814F07CF8CDE901766368009323682E4A22
:2050C000C3218220FEF7A0F83E4B1B78002B40F098803D49284800254FF6FF7614F086F8D7
:2050E000CDE90165636800932368234AC321C820FEF78AF8354A364993680093D2E9002391
:205100001D4814F053F8CDE90165636800932368194AD2210E20FEF777F82E4A2E49137A72
:205120000593D3790493937903935379029313790193D378009393780F48527814F036F895
:20514000CDE901656368009323680B4AE1210E20FEF75AF82C46C2E63C46CFE6AFF300800B
:20516000000000000088C3403F0500208FD7010853D7010877C50108DB2E00206C000020A4
:2051800095C50108CBD7010820650020350500202C010020A5C501081AD701089004002094
:2051A000C6C5010832D7010898040020D0C5010805D70108BC030020DAC50108C0030020A0
:2051C000E7C5010816050020F0C501083C63002007C60108A467002022C601080C4B58467B
:2051E00003EB810113F0E2FF4FF6E073C9E6084B0BA803EB810113F0D9FF4FF4784306932C
:20520000D6E6044966E7022918BF002467E600BF83D70108FBC501082DE9F04F6E4D6F4E0D
:205220002A786F4C33686F49DFF8E8A102EBC20287B001EB420201336B49204613F0B6FF40
:205240004CF218670C23CDE901370094C8234FF4A07214210020FFF797FC0023CDE9017375
:20526000624C2A7863686249009302EB02120A4423682D210520FDF7C7FF5E4A0592136814
:20528000BBB92A7802EB420102EB810231685AF82110002940F093804FF4FC63CDE9011364
:2052A00063680093236854490A44B4202D21FDF7ABFF00274CF21868CDE901872A786368CA
:2052C0004E49009302EB820201EB4202236841210520FDF799FFCDE901872A786368484929
:2052E000009302EB420201EB4202236855210520FDF78AFF30685AF820304FF6205B4FF6D8
:20530000E079BB4218BFD946C0B2FFF749FACDE90197636800932368314A41219F20FDF7CF
:2053200073FF3078FFF7DEFACDE901976368009323682B4A55219F20FDF766FFCDE901870D
:205340006368009323682F4A69210520FDF75CFFCDE901876368009323682B4A7D2105208E
:20536000FDF752FFFFF72CF8CDE901872A78636826490093C2EBC202236801EB8202052090
:20538000A521FDF741FF059B1B680BBBCDF800B0292340F23712B7210420FDF7A1FF3068C6
:2053A0005AF820104FF6E0724FF6205300290CBF1146194607B0BDE8F04FFFF7A7B94FF63C
:2053C000E071CDE9013163680093236810496BE748F210430093DBE73F050020D8030020BF
:2053E000DB2E0020CAD501084DC601085C000020A2D601080800002000D60108D5D6010808
:20540000F3D6010853C601085EC601084ED601087CD50108EC0400202DE9FF41DFF86882BD
:20542000884DD8F800302978874C9A1E012A00F29680864E864B01EB01111944304613F0BF
:20544000D5FE00274FF620534FF4A072CDE901371421C82338460096FFF796FB29787D4B33
:2054600001EB410103EBC101304613F0BFFE4CF21863019363680093236802973246502160
:205480000520FDF7C1FE744A2B781268012A4FEAC30340F0B98071496C48194413F0A6FE54
:2054A00000264FF47843CDE901366368674A0093782123680520FDF7A7FE694B29786348EA
:2054C00003EBC10113F072FE02964CF218630193636800935D4A236878219B20FDF794FE5A
:2054E0002978604B59481A2201FB023113F07EFE4CF218666368554A009300272368CDE9B4
:205500000167A0210520FDF77FFE2978564B4F48C1EBC10103EB810113F068FE63684B4A4C
:205520000093CDE901672368B4210520FDF76CFE29784648C1EBC10301EB83014B4B1944D5
:2055400013F054FE63680093CDE9016723683F4AD7210520FDF758FE04B0BDE8F081012B09
:2055600091DC434B394E01EBC10103EB4101304613F03CFE00274FF62053CDE90137142116
:205580000096C8234FF4A0723846FFF7FDFA2978D8F8008001EB4101C1EBC101B8F1000F85
:2055A0000FD1344B3046194413F020FE4CF21863019363680093CDF80880236832465A2122
:2055C0005EE72D4B3046194413F010FE4CF21868636800933246236802975A210520CDF80D
:2055E0000480FDF711FE2978244B01EB410103EBC101304613F0FAFD63680093CDE901872A
:20560000236832463C213BE71D491048194413F0CDFD00264CF21863CDE9013663680B4A34
:205620000093782123680520FDF7EEFD154B2978064803EBC10113F0B9FD02964FF4784361
:2056400045E700BF3F0500205C000020DB2E00204EC901085CCA010810050020A0CB01085E
:20566000B8CB0108D0CB010881C9010805CA0108A4CA0108DACA010819CB010858CB010892
:20568000D5C90108EDC901080C0500207FB5B84DB84B2978B84E01EB810101EB8101194457
:2056A000304613F0A3FD4CF218641F23CDE901340096C8234FF4A07214210020FFF764FA6B
:2056C0002B78002B40F02A81AC49304613F08EFD4FF4FC630022CDE90132A94CA64A6368CB
:2056E000009323682D210520FDF78EFD2B78012B40F01A81A349A04813F078FD4FF4FC6312
:205700000022CDE901326368009323689A4A46210520FDF779FD2B78022B40F00C819A494B
:20572000954813F063FD4FF4FC630026CDE9013663680093904A23685F210520FDF764FDB7
:20574000924B29788C4803EBC10113F04FFD4FF6E07302960193636800932368864A8C4EA1
:205760002D219F20FDF750FD2B788A4A317803EBC3031A44002940F0E58087497E4813F052
:2057800015FD4FF4FC630022CDE90132636800932368794A46219F20FDF736FD33787F4ADD
:2057A000012B2B7803EBC3031A4440F0D2807A49714813F0FBFC4FF4FC630026CDE901365B
:2057C000636800936C4A23685F219F20FDF71CFD2978734B684801EB410103EB810113F02E
:2057E00005FD4FF6E07302960193636800936D4E614A23687D210520FDF706FD3278002A06
:2058000040F0AE8068495C4813F0F0FC4FF4FC630022CDE90132636800932368564A9621F9
:205820000E20FDF7F1FC3378012B40F0D7805F49514813F0DBFC4FF4FC630026CDE901362B
:20584000636800934C4A2368AF210E20FDF7DCFC2978574B484801EBC101194413F0C6FC5C
:205860004FF6E0730296019363680093514E424A23687D219F20FDF7C7FC3278002A40F038
:20588000B4804D493C4813F0B1FC4FF4FC630022CDE90132636800932368374A96219F207D
:2058A000FDF7B2FC3378012B40F0A6804349324813F09CFC4FF4FC630022CDE90132636800
:2058C000009323682C4A9F20AF21FDF79DFC3C4B1878002840F097804FF478430093982247
:2058E00016232A210420FDF7FBFC29782248C1EBC10301EB8301334B194413F077FC4CF29B
:2059000018630022CDE901326368009323681A4AD2210320FDF778FC04B070BD2A4930466C
:2059200013F064FC2346D5E62849134813F05EFC4CF21863E4E626490F4813F057FC4CF2DA
:205940001863F2E623490C4813F030FC4CF2186319E72049084813F029FC4CF218632CE79F
:205960001D49054813F042FC4CF2186350E700BF3F05002059CD0108DB2E00206CC601088D
:205980005C00002084C601089CC60108A4CD01083405002052CE0108B8C601086DCE010806
:2059A000BCCD010835050020C6C60108D8C60108E0CD01082C010020EAC60108F8C601083C
:2059C00041050020FBCD010878C6010890C60108AAC60108BFC60108CFC601082F49304855
:2059E00013F004FC4CF2186327E72E492C4813F0FDFB4CF218634AE72B49294813F0F6FB34
:205A00004CF2186358E7012806D14FF47843009398221623432165E7022806D14FF478435B
:205A20000093982216235C215CE7032806D14FF47843009398221623932153E7042806D1A9
:205A40004FF47843009398221623AC214BE7052807D14FF4784300939B22162343219C2017
:205A600041E7062806D14FF4784300939B2216235C21F4E7072806D14FF4784300939B22C6
:205A800016239321EBE708287FF42FAF4FF4784300939B221623AC21E1E700BFE1C601083B
:205AA000DB2E0020F1C60108FFC601081FB50F4A0F4912780F4B104C1B68C2EB02100144E3
:205AC00000910E49013301EBC20220460C4913F06DFB00201F23CDE901300094C8234FF4C9
:205AE000A0721421FFF750F804B010BD3F05002036CC0108D8030020DB2E00201ECC01081A
:205B000006C70108000000002DE9F04F054687B0002840F08880B24FB24CB34E05F0AEF9DC
:205B2000B24BB34AB349384613F040FB4CF218680C23CDE901384FF4A072C82314212846F4
:205B40000097FFF721F82278AB4902EB820206EB4202384613F02AFB2378A84A03EB8303C4
:205B600006EB430615702B4616F8011B00294CD105B1137000261F23CDE90136A04D984A28
:205B80006B6800932B689F4FDA210120FDF73CFB22783E7002EBC2039B4A1A4410463146CD
:205BA000334610F8016B002E36D101B13B7092498B4813F0FBFA954A1378012B0BD100232B
:205BC00013703A78072A06D800936E221223DA21D120FDF752FB3878814A0230C0EB003371
:205BE00000EB830300EB830000241F23CDE901346B68009300F23F102B68DA2180B2FDF71A
:205C000003FB002007B0BDE8F08F0133DBB20A2B4FF00105A8D1ACE70133DBB2092B4FF010
:205C20000101BED1C2E7012807D10C23AF22282140F23110FDF747FBE3E7022807D10C233C
:205C40004FF4A072D7210020FDF731FBD9E7704B03281C7840F0EC806E4E694DDFF8808197
:205C600004F108035FFA83FB06EB44160027A345C7DD694B1B78BB424FEA470962D1072C1C
:205C80004CDCE0B2FEF7A8FE00234FF4FC6ECDE9013EB9446B680093C9EBC90909F12D01D9
:205CA00089B22B68059142460520FDF7ADFA072C30DC337F05990BB9737F6BB100234FF471
:205CC000FC6CCDE9013C6B6800932B68534A05911B20FDF799FA0599514B53F82430CBB126
:205CE0004FF4FC6ACDF808A04FF00009CDF804906B6800932B684B4A05912620FDF784FA11
:205D0000CDE9019A6B6800932B68474A05995220FDF77AFA013701342036A8E7314B1A78D0
:205D2000E0216FF0DF0311FB02311C2303FB04133E494046194413F059FA1B214046FEF717
:205D40000BFFA1E7072C36DCE0B2FEF745FE48F210430020CDE90130B9446B680093C9EBF7
:205D6000C90909F12D0189B22B68059142460520FDF74AFA072CCDDC337F05990BB9737FFE
:205D80006BB14FF620530022CDE901326B6800932B68224A05911B20FDF736FA0599204BC1
:205DA00053F82430012BB5D14FF0000ACDF808A04FF620599AE70B4B1A78E0216FF0DF0373
:205DC00011FB02311C2303FB041318494046194413F00CFA1B214046FEF7BEFEB7E700BF13
:205DE000DB2E00203F0500209ED101080FC701081AC701082AC7010832C70108390400207C
:205E00005C00002038040020E3CE0108C903002067050020206500206605002037C7010841
:205E2000CC04002039C701083BC70108FECE010804281CD1124B1878204407EE900AF8EEAA
:205E4000E77A17EE900AFAF77FFB0BA3D3E90023FAF7D2FBFAF7A8FE0C23C1B20093072297
:205E600064232A3140F23510FDF707FAC9E6431F58425841C6E600BF66666666666614406D
:205E8000660500202DE9F347344C354F0A288246054628BF4FF00A0AA1462378012B27D0FF
:205EA0003B78012B24D00023009340F23912142391210320FDF7E1F92A4B1B78022B1BD1E1
:205EC000294B1B78DBB1294B1B68072B0CBF4FF00C084FF01F080026B245544615DC092DA4
:205EE00003D842F20415092C25DD02B0BDE8F0870020FDF729FBD0E742F20418EBE74FF025
:205F00000C08E8E70020FDF71FFB99F80030012BF8D03B78012BF5D070010330CDF800802E
:205F200014231922912180B2FDF7A7F90136D3E70020FDF709FB99F80030012BF8D03B7806
:205F4000012BF5D060010330009514231922912180B2FDF792F90134C5E700BF4905002044
:205F6000A00400200E0600203605002060060020F0B5AE4B1B6885B0002B63D0AC49AD48AA
:205F800013F034F900224FF47844CDE90124AA4B5A6800921B68A74A78210320FDF734F93B
:205FA000A64AA749137800935378A6489278A54D13F0FCF80023A44A2846194612F8016BE3
:205FC00010F8014B0133A6421CBF02F8014C0121082BF3D1002932D09C4E9D4C3378012B41
:205FE00000F095812378012B00F09181994B9A491A7890488F4E994F02EB420302EB830238
:20600000974B1A4413F0D2F800248A48FAF7E0F8013415F8012B3946304413F0C7F8082C5D
:20602000F3D14CF218620021CDE90121824B5A6800921B687F4AB4210320FDF7E5F8012094
:2060400005B0F0BD874D2B78002B5CD0814A632B12784DD0774C844902EB420201EB42021F
:206060002046824913F0A2F82B78012B254605D12046FAF7ADF87E49204481E7022B04D1B1
:206080002046FAF7A5F87B49F6E70E2B04D844F64812DA40D70710D41A1FD2B2082A11D80E
:2060A00040F22B1121FA02F2D60740F134816148FAF78EF87049284462E72046FAF788F83B
:2060C0006E49D9E70D2B04D15A48FAF781F86C49F1E70F2B04D15748FAF77AF86949EAE70F
:2060E000102B7FF44FAF5348FAF772F86649E2E702EB420302EB8302644B65494D481A4492
:2061000013F054F83EE7634A1278022A40F0EE80614F3B68002B00F0D380604A1488604A59
:20612000127812B9002C00F0CB80072B484E474D33D12B78012B29D03378012B26D0454B1E
:2061400058491A783B4802EB820302EB4302564B00251A4413F02AF81223DC22009578213B
:206160005B20FDF78AF81F22334B029501925A68009203201B682F4A7821FDF745F8E0B276
:206180000A2828BF0A20FFF77DFE09E70020FDF7DBF9CEE70020FDF7D7F92B78012BF9D042
:2061A0003378012BF6D00023009340F23712142378210320FDF761F82B78012B1ED0337869
:2061C000012B1BD03B68234A032B12781AD1374B37491B6801EBC2023649164812F0E6FFFC
:2061E00000251223DC22009578215B20FDF745F84FF6E072CDE901520F4BB8E70020FDF7C0
:20620000A3F9D9E7052B06D1284B2B491B6802EBC2020A44E0E7294B2249064802EB82024D
:2062200003EB820212F0C2FFDAE700BF100600203DC70108DB2E00205C0000201865002024
:20624000BFC801084D0000207806002049050020A00400203F050020F0C70108567104087A
:20626000EED801081E06002052D8010857C701085EC701086CC7010889C701087DC70108A1
:20628000A0C70108ABC70108B7C7010864D80108C3C701080E060020600600204C06002088
:2062A00036050020D1C701085BD501084406002028D50108DCC7010840D501088BD8010803
:2062C000194A1A4B12784CF218611F20CDE901105968009116491B6802EB820201EB82029A
:2062E00003207821FCF790FF0A204CE70E4A0F49127802EB420002EB80024FF62050CDE9C0
:2063000001304B6800930B680A490A44E8E70020FDF71AF962E60A2B7FF434AE0648F9F7EC
:2063200057FF0649C7E600BF3F0500205C0000208BD80108C7D80108DB2E002095C70108CA
:206340002DE9F0438FB0074610F09CFBB74B7C7A00221A60BB78012B064602D0BB79012B60
:2063600008D12E2C00F093802D2C00F09780252C00F09680292C40F08B80AD4B1A78984638
:206380000AB9AC4B1A80AC4B1B78012B40F08A80A4F15903DBB2092B01D83B3CE4B2A74B2F
:2063A00019780A4319D1462C17D111460320019204F028FBA24BA3480221196012F042FEE1
:2063C0000A2012F057FE019A9F484FF4807109F0FBF808F0E1FB9D4B18609D4A1368092BD0
:2063E000154640F04A82A4F11E02D1B2072900F28F80984800230360974803609748012431
:20640000046097480260974801709749392000FB0212964912F8010B01F8010B0133392BAD
:20642000F8D19349934A0023013351F8040B42F8040B082BF8D1904A904B00211078187000
:206440005078587090789870D078D870107918715079587190799871D079D8710131107A08
:2064600018720829507A587202F10D0203F10D03E4D1834B09221A7007232B6004F0BAFC30
:20648000804B01221A70804B03221A706FE357247E4A002313607E4A13706EE75624F7E7E7
:2064A0005524F5E7542C3FF47AAF552C3FF477AF562C3FF474AF572C3FF471AF582C1DD0B2
:2064C000592C3FF46CAF5A2C1AD05B2C3FF467AF5C2C17D05D2C3FF462AF5E2C14D05F2C74
:2064E0003FF45DAF602C11D0612C3FF458AF622C3FF455AF632C08BF4C2450E728244EE7E6
:2065000051244CE750244AE74F2448E7522446E7172C09D15A4B09221A7007232B6004F0C9
:2065200069FC584B0422ADE7062C01D00A2C40D14F4A00231046194650F8044B0133082BE0
:206540002144F9D111BB534B4FF478421A804CF208425A804FF620529A804FF6E072DA80E7
:206560004FF4FC621A8140F2FF725A8140F27F429A814FF61F02DA81414B09221A70072327
:206580002B6004F037FC3F4B00227BE74149424C002352F8040B012808BF34F8130003F184
:2065A000010318BF42F20410082B21F8020BF0D1E2E7162C09D1324B09221A7007232B60D2
:2065C00004F018FC2F4B05225CE7082C09D12C4B09221A7007232B6004F00CFC294B082246
:2065E00050E7132C0DD1264B09221A7007232B6004F000FC234B0A221A7004F015FC274BE1
:20660000C2E7192C50D11E4A137007232B6004F0F1FB2348234A08230021013B00F8011B77
:2066200002F8011BF9D1174B0B222BE7AC040020360500204C060020810100208E050020E7
:206640009C050020F4C70108000C024090050020C400002024040020280400200800002012
:20666000D8030020E0030020445F0020D8630020CC040020EC040020D46200201462002012
:20668000C9000020C80000204B050020100600201E0600200E00002088CE01086905002024
:2066A00056050020400400200F2C0DD1A44B09221A7007232B6004F09DFBA24B1A78A24B91
:2066C0001A70A24B0D22DDE6292C0FD19C4A092313709E4A2B6013709D4A9E4B11781B78A5
:2066E00011B9033B1370CEE6994B4DE7522C10D1994A13780BB1013BF4E7954A1378002B0E
:20670000F9D1954B07221A70924B1B78033B904AE8E74F2CF5D0502C03D18F4A00231370B6
:20672000F5E7512C0FD18C4A1378062B01D80133D8E7884A864912780B78033A9342ECDA3C
:2067400001330B709FE64B2CCED04E2CDCD0282C02D0582C7FF497AE7D4B1C787E4B1B78B0
:206760001C44E4B2072C41D8754B09221A7007232B6004F03FFB754B784901221A7000232E
:206780000B6077490B6077490A60774A1460774A1470C4EBC40204EBC204754A1444754ABF
:2067A00014F8011B02F8011B0133392BF8D1724A724B0021107818705078587090789870F0
:2067C000D078D870107918715079587190799871D079D8710131107A18720829507A5872D6
:2067E00002F10D0203F10D03E4D14CE60C2C3FF491AE092C1FD1624A00231046194650F811
:20680000044B0133082B2144F9D100293FF49BAE5C495D4C002352F8040B012808BF34F808
:20682000130003F1010318BF42F20410082B21F8020BF0D1A0E60B2C3FF4BDAE082C3FF452
:20684000C6AE0A2C3FF4CFAE0D2C12D13C4B09221A7007232B6004F0CDFA00234B484C4ACA
:2068600019460133082B00F8011B02F8011BF8D1D9E60E2C7FF407AE18E70D2B40F09480C3
:20688000512C0BD1434A1378072B9ABF0133DBB200231370404B03221A706CE1522C08D1B7
:2068A0003C4A13781BB1013BDBB21370F2E70823FBE7292C06D1092313602149234A0B70AC
:2068C0001370E7E7282C01D0582CE3D1314BDFF874801B78314E324F324C022B15D888F818
:2068E000003003A8FCF75AF93B788DF80C3033788DF80D3023788DF80E3003A898F80030CD
:206900008DF80F30FCF7CCF8BDE5032B02D100233370E6E7042B01D10123F9E7052B02D1BE
