:020000040800F2
:20000000000002202DE3000861D7000879D7000895D70008ADD70008C5D70008000000006A
:20002000000000000000000000000000DDD70008DFD7000800000000E1D70008F9D70008AE
:200040007DE300087DE300087DE300087DE300087DE300087DE3000889D800087DE300085F
:200060007DE300087DE300087DE300087DE300087DE300087DE300087DE300087DE3000840
:200080007DE300087DE3000899D800087DE300087DE300087DE300087DE300087DE300080F
:2000A0007DE300087DE300087DE300087DE300087DE300087DE300087DE300087DE3000800
:2000C0007DE300087DE300087DE300087DE300087DE30008A5D800087DE300087DE30008C3
:2000E0008FD800087DE300087DE300087DE300087DE300087DE300087DE300087DE30008B9
:200100007DE300087DE300087DE300087DE300087DE300087DE300087DE30008B1D8000876
:200120007DE300087DE300087DE300087DE300087DE300087DE300087DE300087DE300087F
:200140007DE300087DE300087DE3000809D900087DE300087DE300087DE300087DE30008DD
:200160007DE300087DE300087DE300087DE300087DE3000815D900087DE300080000000019
:200180007DE300087DE30008FFFFFFFFFFFFFFFF10B5054C237833B9044B13B10448AFF3F9
:2001A00000800123237010BD600300200000000074B4010808B5034B1BB103490348AFF377
:2001C000008008BD000000006403002074B40108034613F8012B002AFBD1181A013870478A
:2001E00001F0FF01102A2BDB10F0070F08D010F8013B013A8B422DD010F0070F42B3F6D1C5
:20020000F0B441EA012141EA014122F007047FF000070023F0E80256083C85EA010586EA71
:20022000010685FA47F5A3FA87F586FA47F6A5FA87F68EB9EED1F0BC01F0FF0102F007026C
:2002400032B110F8013B013A83EA010313B1F8D10020704701387047002D06BF35460338CF
:20026000073815F0010F07D1013015F4807F02BF013015F4C03F0130F0BC0138704700BF93
:2002800081F0004102E000BF83F0004330B54FEA41044FEA430594EA050F08BF90EA020F8D
:2002A0001FBF54EA000C55EA020C7FEA645C7FEA655C00F0E2804FEA5454D4EB5555B8BF63
:2002C0006D420CDD2C4480EA020281EA030382EA000083EA010180EA020281EA0303362D1A
:2002E00088BF30BD11F0004F4FEA01314FF4801C4CEA113102D0404261EB410113F0004F84
:200300004FEA03334CEA133302D0524263EB430394EA050F00F0A780A4F10104D5F1200EC1
:200320000DDB02FA0EFC22FA05F2801841F1000103FA0EF2801843FA05F359410EE0A5F109
:2003400020050EF1200E012A03FA0EFC28BF4CF0020C43FA05F3C01851EBE37101F0004515
:2003600007D54FF0000EDCF1000C7EEB00006EEB0101B1F5801F1BD3B1F5001F0CD349088F
:200380005FEA30004FEA3C0C04F101044FEA445212F5800F80F09A80BCF1004F08BF5FEA6E
:2003A000500C50F1000041EB045141EA050130BD5FEA4C0C404141EB0101013C28BFB1F5E7
:2003C000801FE9D291F0000F04BF01460020B1FA81F308BF2033A3F10B03B3F120020CDA82
:2003E0000C3208DD02F1140CC2F10C0201FA0CF021FA02F10CE002F11402D8BFC2F1200C96
:2004000001FA02F120FA0CFCDCBF41EA0C019040E41AA2BF01EB0451294330BD6FEA0404CF
:200420001F3C1CDA0C340EDC04F11404C4F1200220FA04F001FA02F340EA030021FA04F320
:2004400045EA030130BDC4F10C04C4F1200220FA02F001FA04F340EA0300294630BD21FA3E
:2004600004F0294630BD94F0000F83F4801306BF81F480110134013D4EE77FEA645C18BF1C
:200480007FEA655C29D094EA050F08BF90EA020F05D054EA000C04BF1946104630BD91EA56
:2004A000030F1EBF0021002030BD5FEA545C05D14000494128BF41F0004130BD14F58004B3
:2004C0003CBF01F5801130BD01F0004545F0FE4141F470014FF0000030BD7FEA645C1ABF2F
:2004E000194610467FEA655C1CBF0B46024650EA013406BF52EA033591EA030F41F400211E
:2005000030BD00BF90F0000F04BF0021704730B54FF4806404F132044FF000054FF000014A
:2005200050E700BF90F0000F04BF0021704730B54FF4806404F1320410F0004548BF404296
:200540004FF000013EE700BF42004FEAE2014FEA31014FEA02701FBF12F07F4393F07F4F10
:2005600081F06051704732F07F4208BF704793F07F4F04BF41F40021704730B54FF4607424
:2005800001F0004521F000411CE700BF50EA010208BF704730B54FF000050AE050EA010206
:2005A00008BF704730B511F0004502D5404261EB41014FF4806404F132045FEA915C3FF4F0
:2005C000D8AE4FF003025FEADC0C18BF03325FEADC0C18BF033202EBDC02C2F1200300FA3C
:2005E00003FC20FA02F001FA03FE40EA0E0021FA02F11444BDE600BF70B54FF0FF0C4CF445
:20060000E06C1CEA11541DBF1CEA135594EA0C0F95EA0C0F00F0DEF82C4481EA030621EAF1
:200620004C5123EA4C5350EA013518BF52EA033541F4801143F4801338D0A0FB02CE4FF074
:200640000005E1FB02E506F00042E0FB03E54FF00006E1FB03569CF0000F18BF4EF0010E9E
:20066000A4F1FF04B6F5007F64F5407404D25FEA4E0E6D4146EB060642EAC62141EA555161
:200680004FEAC52040EA5E504FEACE2EB4F1FD0C88BFBCF5E06F1ED8BEF1004F08BF5FEA36
:2006A000500E50F1000041EB045170BD06F0004646EA010140EA020081EA0301B4EB5C04E5
:2006C000C2BFD4EB0C0541EA045170BD41F480114FF0000E013C00F3AB8014F1360FDEBFC7
:2006E000002001F0004170BDC4F10004203C35DA0C341BDC04F11404C4F1200500FA05F347
:2007000020FA04F001FA05F240EA020001F0004221F0004110EBD37021FA04F642EB0601A1
:200720005EEA430E08BF20EAD37070BDC4F10C04C4F1200500FA04F320FA05F001FA04F24F
:2007400040EA020001F0004110EBD37041F100015EEA430E08BF20EAD37070BDC4F1200516
:2007600000FA05F24EEA020E20FA04F301FA05F243EA020321FA04F001F0004121FA04F2B9
:2007800020EA020000EBD3705EEA430E08BF20EAD37070BD94F0000F0FD101F0004640005B
:2007A00041EB010111F4801F08BF013CF7D041EA060195F0000F18BF704703F000465200BD
:2007C00043EB030313F4801F08BF013DF7D043EA0603704794EA0C0F0CEA135518BF95EA39
:2007E0000C0F0CD050EA410618BF52EA4306D1D181EA030101F000414FF0000070BD50EA3C
:20080000410606BF1046194652EA430619D094EA0C0F02D150EA013613D195EA0C0F05D178
:2008200052EA03361CBF104619460AD181EA030101F0004141F0FE4141F470014FF00000E2
:2008400070BD41F0FE4141F4780170BD70B54FF0FF0C4CF4E06C1CEA11541DBF1CEA135570
:2008600094EA0C0F95EA0C0F00F0A7F8A4EB050481EA030E52EA03354FEA013100F08880CB
:200880004FEA03334FF0805545EA131343EA12634FEA022245EA111545EA10654FEA002629
:2008A0000EF000419D4208BF964244F1FD0404F5407402D25B084FEA3202B61A65EB0305CC
:2008C0005B084FEA32024FF480104FF4002CB6EB020E75EB030E22BFB61A754640EA0C0042
:2008E0005B084FEA3202B6EB020E75EB030E22BFB61A754640EA5C005B084FEA3202B6EBA3
:20090000020E75EB030E22BFB61A754640EA9C005B084FEA3202B6EB020E75EB030E22BF51
:20092000B61A754640EADC0055EA060E18D04FEA051545EA16754FEA06164FEAC30343EA5D
:2009400052734FEAC2025FEA1C1CC0D111F4801F0BD141EA00014FF000004FF0004CB6E7B0
:2009600011F4801F04BF01430020B4F1FD0C88BFBCF5E06F3FF6AFAEB5EB030C04BFB6EB12
:20098000020C5FEA500C50F1000041EB045170BD0EF0004E4EEA113114EB5C04C2BFD4EB50
:2009A0000C0541EA045170BD41F480114FF0000E013C90E645EA060E8DE60CEA135594EA21
:2009C0000C0F08BF95EA0C0F3FF43BAF94EA0C0F0AD150EA01347FF434AF95EA0C0F7FF438
:2009E00025AF104619462CE795EA0C0F06D152EA03353FF4FDAE1046194622E750EA410659
:200A000018BF52EA43067FF4C5AE50EA41047FF40DAF52EA43057FF4EBAE12E74FF0FF3CE3
:200A200006E000BF4FF0010C02E000BF4FF0010C4DF804CD4FEA410C7FEA6C5C4FEA430C83
:200A400018BF7FEA6C5C1BD001B050EA410C0CBF52EA430C91EA030F02BF90EA020F00201C
:200A6000704710F1000F91EA030F58BF994208BF90422CBFD8176FEAE37040F00100704729
:200A80004FEA410C7FEA6C5C02D150EA013C07D14FEA430C7FEA6C5CD6D152EA033CD3D0FF
:200AA0005DF8040B704700BF8446104662468C461946634600E000BF01B5FFF7B7FF002891
:200AC00048BF10F1000F01BD4DF808EDFFF7F4FF0CBF012000205DF808FB00BF4DF808EDC1
:200AE000FFF7EAFF34BF012000205DF808FB00BF4DF808EDFFF7E0FF94BF012000205DF8D4
:200B000008FB00BF4DF808EDFFF7CEFF94BF012000205DF808FB00BF4DF808EDFFF7C4FF78
:200B200034BF012000205DF808FB00BF4FEA410C7FEA6C5C02D150EA013C0AD14FEA430C06
:200B40007FEA6C5C02D152EA033C02D14FF0000070474FF0010070474FEA410212F50012C1
:200B600015D211D56FF47873B3EB625212D94FEAC12343F0004343EA505311F0004F23FA4D
:200B800002F018BF404270474FF00000704750EA013005D111F0004008BF6FF000407047BE
:200BA0004FF00000704700BF4A0011D212F5001211D20DD56FF47873B3EB62520ED44FEABA
:200BC000C12343F0004343EA505323FA02F070474FF00000704750EA013002D14FF0FF3083
:200BE00070474FF0000070474FEA4102B2F1E04324BFB3F5001CDCF1FE5C0DD901F0004C15
:200C00004FEAC0024CEA5070B2F1004F40EB830008BF20F00100704711F0804F21D113F1EE
:200C20003872BCBF01F00040704741F480114FEA5252C2F11802C2F1200C10FA0CF320FA35
:200C400002F018BF40F001004FEAC1234FEAD32303FA0CFC40EA0C0023FA02F34FEA430382
:200C6000CCE77FEA625307D150EA01331EBF4FF0FE4040F44000704701F0004040F0FE4039
:200C800040F40000704700BF53B94AB9002908BF00281CBF4FF0FF314FF0FF3000F06EB9B4
:200CA000ADF1080C6DE904CE00F006F8DDF804E0DDE9022304B070472DE9F047089D044621
:200CC0008C46002B40F083808A42174647D9B2FA82F242B1C2F1200024FA00F091409740FF
:200CE00040EA010C94404FEA1748230CBCFBF8F61FFA87FE08FB16C143EA014306FB0EF194
:200D0000994209D9FB1806F1FF3080F01981994240F21681023E3B445B1AA4B2B3FBF8F00F
:200D200008FB103344EA034400FB0EFEA64509D93C1900F1FF3380F00581A64540F2028116
:200D400002383C4440EA0640A4EB0E0400261DB1D4400023C5E900433146BDE8F08702B95E
:200D6000FFDEB2FA82F2002A50D1CB1B4FEA174E1FFA87F80126B3FBFEFC210C0EFB1C33BB
:200D800041EA034108FB0CF38B4207D979180CF1FF3002D28B4200F2E9808446C91AA3B27A
:200DA000B1FBFEF00EFB101143EA014408FB00F8A04507D93C1900F1FF3302D2A04500F21A
:200DC000D9801846A4EB080440EA0C40BFE78B4209D9002D00F0B1800026C5E9000130465D
:200DE0003146BDE8F087B3FA83F6002E4AD18B4202D3824200F2B880841A61EB0301012052
:200E00008C46002DA8D0C5E9004CA5E7C2F1200320FA03F6974001FA02F04FEA174ED94071
:200E20003043030CB1FBFEF61FFA87F80EFB161143EA014306FB08F1994204FA02F409D9AC
:200E4000FB1806F1FF3C80F08D80994240F28A80023E3B445B1A81B2B3FBFEF00EFB10336A
:200E600041EA034100FB08F38B4207D9791800F1FF3C73D28B4271D902383944CB1A40EA81
:200E8000064678E7C6F1200C03FA06F422FA0CF31C4320FA0CF701FA06F34FEA144E21FA8C
:200EA0000CF11F433B0CB1FBFEF91FFA84F80EFB191143EA014109FB08FA8A4502FA06F2E9
:200EC00000FA06F308D9611809F1FF3048D28A4546D9A9F102092144A1EB0A01BFB2B1FBD6
:200EE000FEF00EFB101147EA014700FB08F8B84507D9E71900F1FF312ED2B8452CD902382C
:200F0000274440EA0940A7EB0807A0FB02894F45C64649461AD317D05DB1B3EB0E0267EB1B
:200F2000010707FA0CFCF2404CEA0202F740C5E9002700263146BDE8F0872E4628460BE79B
:200F40000646E9E61846FDE64345E5D2B8EB020E69EB04010138DFE70846D2E760468DE7CA
:200F60008146B9E7664675E730464AE7ACF1020C394413E702383C4424E700BF704700BF3F
:200F800010B51F498EB044F64252ADF800200A680988ADF802100023110C120ECDE901334F
:200FA0008DF804108DF8052028214FF4A072CDE90412144AADF80C30F024CDE906424FF4F0
:200FC000963C40F6C462CDE909C20B924FF48072CDE90C2308936A46431E00F10D0112F8F6
:200FE000014B03F8014F8B42F9D104AA353012F8011B03F8011F8342F9D10EB010BD00BF96
:20100000000000200100180037B5094C019065680FF0AAFA019B074AB0FBF2F043430193C1
:201020006368019A5B1B9342FAD303B030BD00BF001000E040420F0030B587B004460D4699
:201040001422002101A816F02FFF0122294620460DF0F8FE002301A92046CDE902330195BD
:201060000DF076FD07B030BD30B587B004460D461422002101A816F017FF2946204601228F
:201080000DF0E0FE11220023CDE9022301A903232046019504930DF05BFD07B030BD0000E8
:2010A0002DE9F84F274BDFF8A48093F8009000273D465FFA87FBD9450BD8234B187808F0CF
:2010C000E5FE1DB1012009F04DFB01252846BDE8F88F1C2303FB0B83DA7D8AB3012404FABB
:2010E0000BF4E0B208F0D2FE4FF08C0A002002F06DFBBAF1010AF9D11C2606FB0BF608EB91
:20110000060B58F80600BBF80410FFF795FFBBF8041058F806000DF08FFE0B4B64B21A7872
:2011200028B114431C708BF81AA00137C1E722EA04041C7001231D448BF81A30EDB2F4E76A
:201140009A76F2E7730A0208600400200865002008B50548012280210DF074FE08F0BEFE1D
:20116000BDE80840FFF79CBF001002407FB50C4604A901E90C00029EBDF80C100191054668
:20118000002230460DF05EFE2846FFF73DFF3046019901220DF056FE204604B0BDE87040CB
:2011A000FFF732BF82B06B4683E806000CCB20B905213C2002B0FFF7D9BF3C210520F9E720
:2011C00073B56D4685E806000646002446FA04F095E8060000F001000134FFF7E3FF082C68
:2011E000F4D102B070BD73B56B4683E80300BDF804600CCB05460A210120FFF7B7FF31465A
:201200002846FFF719FF314628460DF015FE04462820FFF7F9FE28463146FFF725FF201EA1
:2012200018BF012002B070BD73B56E4686E8030000252C4696E80300FFF7D5FFA84001358A
:201240000444082DE4B2F5D1204602B070BD73B56B4683E80300BDF804600CCB0546462187
:201260004FF4FA70FFF782FF31462846FFF7E4FE314628460DF0E0FD314604462846FFF7A9
:20128000F3FE4FF4C870FFF7BFFEB4FA84F0400902B070BD84B008B50DF1080C8CE80F005F
:2012A000DCE90001FFF7D3FFBDE80840013818BF012004B0704784B007B50DF1100C8CE899
:2012C0000F00DCE90001FFF7C2FF01281BD104AB93E80600CC20FFF773FF04AB93E80600B9
:2012E0004420FFF76DFF04AA92E803006B4683E80300FFF799FF003818BF012003B05DF818
:2013000004EB04B070470120F8E7000008B54378007800EB0320DB0980B20CD0404280B2CF
:20132000FFF700F9064B0022FFF766F9FFF75CFC00EE100A08BDFFF7F5F8024B0022F3E7AF
:201340000000B0BF0000B03F73B56C4684E80600054694E80300FFF77AFFE0B194E8060097
:20136000CC20FFF72DFF94E80600BE20FFF728FF6E1E083594E80300FFF756FF06F8010F41
:20138000AE42F7D194E80300FFF761FFB0FA80F0400902B070BD0120FBE737B56C4684E871
:2013A0000600054694E80300FFF751FF10B9012003B030BD94E80600CC20FFF701FF94E8AD
:2013C00006004E20FFF7FCFE94E80600A878FFF7F7FE94E80600E878FFF7F2FE94E80600D2
:2013E0002879FFF7EDFE94E80300FFF730FF0028DDD094E80600CC20FFF7E2FE94E806002C
:201400004820FFF7DDFE14200DF00AF80020CFE710B586B06B4683E80600002204468DF87C
:20142000102003A893E80600FFF78EFFA0B99DF810301F2B03D10923237006B010BD3F2BD5
:2014400001D10A23F8E75F2B01D10B23F4E77F2B01D10C23F0E720700120EEE730B587B025
:201460006D4685E806000446002395E806000DF10B008DF80B30FFF7CBFF40B11A4817F073
:201480002FFA0A2017F044FA012007B030BD9DF80B30A342F9D0092C11D00A2C11D00B2C0D
:2014A00011D00C2C0CBF7F231F2395E8060003A88DF81030FFF771FF38B10C48DFE71F23C6
:2014C000F3E73F23F1E75F23EFE795E806000DF10B00FFF79DFF0028D0D19DF80B30181BB6
:2014E00018BF0120D1E700BFC9B40108E5B4010830B593B0C3790493837903934379029377
:2015000003790193C37800930DAD837842780C462846134917F098FA9DF838300D9A8DF8A0
:2015200024300AA9002308928DF8253005220B46A85C01F8010B01320C2AF9D10022BDF882
:2015400040108DF82F208DF81F2007AAADF81C100092044908AA204617F076FA13B030BD03
:2015600001BC010803B501082DE9F04FDFF8D0B08DB006468846044601277B1E98454FF0BA
:20158000000307DC18361C2298454EDC00200DB0BDE8F08F23764FF0050A04F1100595E863
:2015A00007008DE8070094E80F00FFF773FEA646BEE80F000DF1140CACE80F0095E80700D0
:2015C0008CE80700DDE90501FFF741FE012881460DD195E807008DE8070094E80F00FFF740
:2015E0006AFEF8B984F8169001371C34C5E71248394617F075F90A2017F08AF90023A3753F
:20160000E37D002BF0D0BAF1010AC8D1E37D012BEAD123763946584617F062F90A2017F0A0
:2016200077F9E1E705483946E3E702FB03F1705C0128ACD00133A7E70AB5010830B5010802
:2016400066B5010830B50246014400208A4200D130BD12F8015B082480EA050313F0010F33
:201660004FEA50001CBF80F08C03D8B2631E13F0FF044FEA5505EFD1E8E7000070B5304A35
:2016800086B0516804461068127A03AB03C394E803001A7001AB83E80300FFF7C5FD08B9FD
:2016A000012538E094E80300FFF7D1FD0028F7D094E80600CC20FFF783FD94E80600BE2076
:2016C000FFF77EFD03AE092594E80300FFF7ACFD013D15F0FF0506F8010BF5D1082103A8B1
:2016E000FFF7B0FF9DF81430834222D19DF80D309DF80C0000EB032080B2DE09A0820DD01B
:20170000404280B2FEF70EFF0E4B0022FEF774FFFFF76AFA2061284606B070BDFEF702FF0E
:20172000094B0022FEF768FFFFF75EFA35462061F1E7064817F0D4F80A2017F0E9F8AFE7EC
:2017400090B401080000B0BF0000B03F9EB501082DE9F0418AB006AD85E80600264A06461F
:201760005168106808AB03C395E80300FFF76FFD00283ED095E806003320FFF721FD08AF06
:20178000B846082495E80300FFF74EFD013C14F0FF0408F8010BF5D1072108A8FFF752FF29
:2017A0009DF8273083420BD1731EF01D17F8012B03F8012F8342F9D120460AB0BDE8F081D3
:2017C00004939DF8263003939DF8253002939DF8243001939DF8233000939DF821209DF80F
:2017E00022309DF82010054817F07AF80A2017F08FF80124E0E700BF99B40108C0B50108D5
:201800002DE9F04F2DED028B8FB00C460490BF480FF068FA049B23F00206012E75D12546A5
:2018200000270DF11C0A4FF0000B4FF0020905F1100898E807008DE8070095E80F00FFF736
:2018400029FDAE46BEE80F000DF11C0CACE80F0098E807008CE807009AE80300FFF7F7FC80
:20186000012812D1A87598E807008DE8070095E80F00FFF720FD8146BBF1090F18D00BF12E
:20188000010BB9F1000FD2D10BE03146A04817F027F80A2017F03CF80023AB75EB7D002B35
:2018A000EAD1BBF1010F1FDD9A485A46314616E095F81780B8F1010F40F0168131469648CD
:2018C00085F8188017F00CF80A2017F021F847469249504617F0D8F891485246314616F0DB
:2018E000FFFF0A2017F014F80136092E05F11C0599D1049B032B5DD1002738460FB0BDECB6
:20190000028BBDE8F08F8749E3E7049B002B50D108F006FF049F9FED848A04F1070B012629
:2019200000254FF000084FF0020A0DF11C09A37DEBB1A646BEE80F000DF11C0CACE80F00A7
:201940009EE807008CE8070099E80300FFF77FFC0128059040D0002323726372A372E372C5
:2019600023736373A373E373E37D002B44D1DFED6F8ADFF8DCA14FF00A084FF00209A37D1B
:20198000002B5AD1E37D012B00D123760136092E04F11C040BF11C0BC3D1049B73B9002DC9
:2019A000AAD0634816F09CFF0A2016F0B1FF2F46A3E70027049B022BADD0002553480FF053
:2019C00081F9002D98D0002F96D05A4816F088FF0A2016F09DFF90E794E806004846FFF7EB
:2019E000B7FE90B14146544816F07AFF0A2016F08FFF059D50468246B8F1090F0FD008F1F8
:201A00000108BAF1000F92D1B1E74A4604F10F0312F8011B03F801195B45F9D1EBE794F86E
:201A20001780B8F1010FA2D13146444816F058FF0A2016F06DFF474699E72046FFF71EFE62
:201A4000A37D002818BF0125012B36D1D4ED047AF4EEE87AF1EE10FA06DAB1EE047AF4EEC3
:201A6000477AF1EE10FA15D817EE900AFEF76CFD009602460B46504616F032FF0A2016F0A6
:201A800047FF0125B8F101081DD0B9F1000F7FF476AF7BE72A4B1B78012B09D0F2EE026A2F
:201AA00067EEA67AC7EE876ADFED267A76EEA77AC4ED047A4FF00009E4E7E37D84ED048A79
:201AC000002BDFD162E794F81780B8F1010F7FF45DAF31461C4816F003FF0A2016F018FF5D
:201AE000474684F8188051E7B9F1000F3FF4DCAEB9F1030F3FF4ECAEB9F1010F3FF403AF6F
:201B0000B9F1020F7FF4E8AE1049E2E6C86600200AB5010867B60108FEB5010824B6010805
:201B200031B601081F060208000000000000A04221B7010832B701089FB60108B6B60108FE
:201B40002C010020000000420CB701082CB60108C6B601082DE9F04F2DED028B9FED6D8A3B
:201B6000DFED6D8A8DB00646894600F110044FF00008C1450BDC002318361C22994500F391
:201B8000C18000200DB0BDEC028BBDE8F08F237A012BA4F1100551D0A379002B4ED0E37978
:201BA000002B4BD04FF0000A4FF0020B05F1100797E807008DE8070095E80F00FFF76AFB54
:201BC000AE46BEE80F000DF1140CACE80F0097E8070005AF8CE8070097E80300FFF737FB3C
:201BE000012816D195E806003846FFF7B1FD48BBA4F1080317F8012B03F8012B9C42F9D183
:201C00002846FFF73BFD08F1010758B3434839461AE0002304F8083C04F8073C04F8063C38
:201C200004F8053C04F8043C04F8033C04F8023C04F8013CE37984ED008A53B908F1010818
:201C40001C3496E73648514616F04AFE0A2016F05FFEBAF1090F37D00AF1010ABBF1000F3C
:201C6000A4D1EBE7D4ED007AF4EEE87AF1EE10FA09DAF1EE046AF4EEE67AF1EE10FA94BF07
:201C8000012300230FD817EE900AFEF75DFC009702460B46234816F023FE0A2016F038FE01
:201CA00084ED008AD5E7627A012A0BD0B2EE027A67EE877A87EEA67ADFED1B7A77EE277A1D
:201CC000C4ED007A9B46C4E708F10101174816F007FE0A2016F01CFE01232372002304F8C6
:201CE000083C04F8073C04F8063C04F8053C04F8043C04F8033C04F8023C04F8013C84ED8B
:201D0000008A9BE702FB03F1705C01283FF43AAF013333E7000000000000A04248B701087D
:201D20009FB60108C6B60108000000426AB7010808B50B480B4A0C4BC0E9002300234FF466
:201D40008042C0E90233C0E90423C0E9063303620DF0A6FD18B1BDE8084009F0C3B808BD3D
:201D60007C61002000540040A086010070B50E4C0E4E0546012086B020703078012808D0F5
:201D80000A98009028460DF04DFE0023237006B070BD0020CDE90423039101F017FDDDE966
:201DA00004230399E9E700BF740500208804002070B50E4C0E4E0546012086B020703078D7
:201DC000012808D00A98009028460DF003FF0023237006B070BD0020CDE90423039101F048
:201DE000F5FCDDE904230399E9E700BF7405002088040020030903EB830300F00F0000EB2B
:201E00004300C0B270470A23B0FBF3F3C3EB4312C3EB820200EB420040EA0310C0B27047D0
:201E200010B5052386B0044602223E48D0210EF041F850B13C4816F053FD0A2016F068FDF3
:201E4000FFF776FF012006B010BD8DF810002078FFF7D9FF8DF811006078FFF7D4FF8DF8BC
:201E60001200A078FFF7CFFF8DF81300E078FFF7CAFF8DF814002079FFF7C5FF8DF815003F
:201E80006079FFF7C0FF8DF81600A079FFF7BBFF64238DF8170000932248082304AAD02166
:201EA000FFF764FF08B12148C5E702A800F042F808B11F48BFE723789DF808009DF809206B
:201EC0006178834208BF9142A2789DF80A000CBF01230023824214BF002303F00103A27933
:201EE0009DF80E00824214BF002303F0010362799DF80D00824214BF002303F001032279C5
:201F00009DF80C00824214BF002303F00103E2789DF80B00824214BF002003F0010080F05A
:201F2000010090E77C61002083B70108B0B70108CBB701082DE9F043052389B005460222D5
:201F40005148D0210DF0B6FF60B1504816F0C8FC0A2016F0DDFCFFF7EBFE0124204609B0A6
:201F6000BDE8F0836426DFF820813746009701230022D0214046FFF7F9FE08B14448E5E778
:201F800002AA00970723D0214046FFF711FF024608B14048DAE700970123D0214046FFF7E5
:201FA000E5FE08B13C48D1E70097072304AAD0214046FFF7FDFE044608B13848C6E702AA96
:201FC00004AB012112F801EB13F801CB0130E64518BF00210728F5D1013E01D00029C5D04C
:201FE0009DF80800FFF706FF814628709DF80900FFF700FF014668709DF80A00FFF7FAFEAB
:202000000246A8709DF80B00FFF7F4FE8046E8709DF80C00FFF7EEFE074628719DF80D00AF
:20202000FFF7E8FE687106469DF80E00FFF7E2FE3B2998BF172A8CBF01210021B9F13B0FA8
:2020400094BF0B4641F0010308F1FF32062A94BF1A4643F00102013F1E2F88BF42F001025B
:20206000A8711AB9013E0B2E7FF678AF4FF08073069340F20113ADF81C3006A800238DF808
:202080001E30FFF7CDFE68E77C610020E6B70108B0B7010815B8010833B801084EB80108F6
:2020A0001FB564238DF80C008DF80D1000930948022303AAD021FFF759FE40B1064816F059
:2020C0000FFC0A2016F024FCFFF732FE012005B05DF804FB7C6100206CB8010830B585B011
:2020E00064250C468DF8080000951048012302AAD021FFF73BFE50B10D4816F0F1FB0A2029
:2021000016F006FCFFF714FE012005B030BD07480095012303AAD021FFF74AFE08B1054802
:20212000EBE79DF80C302370EFE700BF7C6100206CB8010890B801082DE9F3410646084675
:2021400017461D46FFF75FFE04463846FFF75BFE80462846FFF757FE07469DF82000FFF7DE
:2021600052FEF20744BF64F07F04E4B2B30748BF68F07F08054648BF5FFA88F8700744BF61
:2021800067F07F07FFB2310744BF65F07F05EDB2F20644BF45F04005EDB2330623D4214653
:2021A0000720FFF77DFF48B1314816F099FB0A2016F0AEFB012002B0BDE8F0810DF10701B2
:2021C0000720FFF78BFF08B12A48EEE79DF80700041B18BF0124082641463046FFF760FF21
:2021E00020B12548E1E700240B26F5E70DF107013046FFF773FF08B12048D6E79DF807301A
:20220000434518BF601C06F1010818BFC4B239464046FFF745FF08B11948C6E70DF107018A
:202220004046FFF75BFF08B11648BEE79DF80730BB4218BF601C06F1020618BFC4B2294635
:202240003046FFF72DFF08B10F48AEE70DF107013046FFF743FF08B10C48A6E79DF8073027
:20226000AB4201D00A48A0E7201E18BF0120A2E7B7B80108DBB80108FEB8010822B9010851
:2022800045B9010869B901088CB90108B0B90108D3B9010837B504460D460E206946FFF75B
:2022A0001DFF40B1164816F01BFB0A2016F030FB012003B030BD0123013C03FA04F49DF890
:2022C0000030012D06BF43EA0401C9B223EA04010E208DF80010FFF7E3FE08B10948E2E7AF
:2022E00001A90E20FFF7FAFE08B10748DBE79DF800209DF804309A42DBD00448D3E700BF84
:20230000F8B9010822BA010849BA01086FBA010837B504460D460F206946FFF7DFFE40B1B5
:20232000174816F0DDFA0A2016F0F2FA012003B030BD631E9DF80020012404FA03F312EA39
:2023400003001AD022EA03010F208DF80010FFF7A7FE08B10B48E4E701A90F20FFF7BEFEBF
:2023600008B10948DDE79DF800209DF804309A4201D12C70DBE70548D3E72870D7E700BFE9
:2023800097BA0108B4BA0108D2BA0108EFBA010813B50C460F2001A9FFF7A0FE40B107485E
:2023A00016F09EFA0A2016F0B3FA012002B010BD9DF8043023F07F032370F7E70EBB010861
:2023C00013B5044669460E20FFF788FE40B1154816F086FA0A2016F09BFA012002B010BD59
:2023E0009DF80010032C9DBF21F01C0141EAC400C1B241F004010E208DF80010FFF750FEE0
:2024000008B10948E4E701A90E20FFF767FE08B10648DDE79DF800209DF804309A42DDD0E2
:202420000348D5E730BB010852BB010875BB010897BB010870B586B00BF09EFB0446C8B93D
:202440003248334D314E16F04BFA0A2016F060FA0BF092FB00284DD1304616F041FA0A207F
:2024600016F056FA01344FF4FA70E4B201F0AEF9032CEDD9274C284D002001F0A7F92378CD
:20248000072B3FD04FF4FA7001F0A0F94FF4FA7001F09CF94FF4FA7001F098F94FF4FA70B5
:2024A00001F094F901231D482B7016F019FA0A2016F02EFA0BF0C0FA194A0123E15C02F896
:2024C000011B0133092BF9D1237A0493E3790393A37902936379019323790093E378A278C3
:2024E0006178104816F0FCF90A2006B0BDE8704016F00EBA284616F0F3F90A2016F008FA1B
:202500000424AFE700232B70D4E700BFBBBB0108CDBB01080C6700207C030020DDBB0108E2
:2025200088640020EEBB0108214A38B50005138800F57E25B3EB154F144616D2020CB3EB5D
:20254000104F4FF0000038BF228001F03FF90022208811460BF0C4FC10B920880BF0C8FB10
:20256000238801332380022021E0FCD1114B1988B1EB153F1C4616D200F57020B1EB103F42
:202580004FEA10334FF0000038BF238001F01EF90022208811460BF003FC0028E0D1208842
:2025A0000BF064FBDCE7DED100201080188038BD94030020960300201A4A38B500051388B1
:2025C00000F57E25B3EB154F144610D2020CB3EB104F4FF0000038BF228001F0F7F82088BA
:2025E0000BF0E2FD238801332380022019E0FCD10D4B1988B1EB153F1C460ED200F57020E7
:20260000030BB1EB103F4FF0000038BF238001F0DDF820880BF09CFDE4E7E6D100201080B4
:20262000188038BDB0030020B203002030B51B4B00051A880D4600F57E21B2EB112FC1B03E
:202640001C4627D2B2EB102F4FEA10234FF0000038BF238001F0BAF84FF480730022684655
:2026600021880BF009FE00226B46104613F8011B0130A94218BF0132B0F5807FF6D122B1FB
:2026800000232380012041B030BD2388013323800220F8E7FCD100201880F4E77E030020F1
:2026A000234A38B50005138800F57E25B3EB154F144619D2020CB3EB104F4FF0000038BF00
:2026C000228001F083F80022208811460BF008FC20B1238801332380022004E0154A0023F1
:2026E00023801380012038BDF6D1124B1988B1EB153F1D4616D200F57020B1EB103F4FEAE5
:2027000010334FF0000038BF2B8001F05FF80022288811460BF044FB0028DFD02B8801332C
:202720002B80D9E7D8D1002010801880DBE700BF980300209A0300202DE9F0470023C0B064
:2027400006030C461A4631464FEA005868460BF093FD04F139030021187820281A4603F1FF
:20276000FF3303D11878202808BF5970A342F3D15D1EEA4602F137032F466A4600249F4240
:202780001FD1BCB36A462B46BB4223D100224FEA1838114640460BF003FB8146F8B10023B4
:2027A0001A46314668460BF07BFC00231A46314668460BF061FDBD4220D1003C18BF0124F9
:2027C00018E012F8011B17F8010F88421CBF0134E4B2D4E713F8011F02F8011BD4E740460F
:2027E0000BF044FA4A46494640460BF0D9FA0028D5D10124204640B0BDE8F0871AF8013B7A
:2028000015F8012F9A421CBF0134E4B2D3E710B5C0B04FF4807300220C46010368460BF0B3
:202820002BFD00236A46184612F8011BFF2914BFE154E0540133392BF6D1002040B010BD79
:202840002DE9F041C4B00B788DF804304B788DF805308B788DF80630CB788DF807300B79C3
:202860008DF808304B798DF809308B798DF80A30CB798DF80B300B7A8DF80C3004054B7A3E
:202880008DF80D3004F57E248B7A8DF80E30270A00231A46394604A80BF0EEFC01AD04AEEF
:2028A000002331462A46184612F801EB11F801CBE64518BF013003F1010318BFC0B20B2B3B
:2028C000F2D100283BD004A901AB0022013213F8010B01F8010B0B2AF8D10022240B114692
:2028E00020460BF05DFA8046F0B100231A46394604A80BF0D5FB00231A4604A839460BF097
:20290000BBFC0023184615F8011B16F8012B914218BF013003F1010318BFC0B20B2BF2D107
:20292000003818BF01200AE020460BF09FF94246414620460BF034FA0028D6D1012044B002
:20294000BDE8F08110B50C460105C0B001F57E2168464FF480730022090A0BF08DFC9DF80D
:20296000003023709DF8013063709DF80230A3709DF80330E3709DF8043023719DF80530DF
:2029800063719DF80630A3719DF80730E3719DF8083023729DF8093063729DF80A30A3727B
:2029A000002040B010BD000010B5304B0005196800F58042120A8A42C0B01C4651D900F5E4
:2029C0008050B1EB102F4FEA10234FF0000038BF236000F0FBFE21684FF4807300226846AF
:2029E0000BF04AFC6946002311F8012BFF2A0BD12168FE200DF8030003EB01210BF010FBC5
:202A00000020206040B010BD12B3FE2A08D1FC220DF8032021681DF8030003EB0121EDE7C8
:202A2000FC2A01D1F822F3E7F82A01D1F022EFE7F02A01D1E022EBE7E02A01D1C022E7E782
:202A4000C02A01D18022E3E7802AE3D10022DFE70133B3F5807FC7D1236801332360022031
:202A6000D0E7FCD100221A600120CBE7AC03002038B5040504F58054240BA51C0022114668
:202A800028460BF08DF908B9280138BD01340022114620460BF084F908B92001F5E70020FE
:202AA000F3E70000F0B5324A030505460E46106803F58041090A8142C1B0144652D903F57F
:202AC0008053B0EB132F4FEA13274FF0000038BF176000F07BFE216800224FF4807368462E
:202AE0000BF0CAFB6A46002112F8013BFF2B0AD12368DB1B01EB0323DB00002046F82530D9
:202B0000206041B0F0BD23B3FE2B1A4A09D1012313702368DB1B01EB0323117801EBC303E5
:202B2000EBE7FC2B01D10223F2E7F82B01D10323EEE7F02B01D10423EAE7E02B01D10523F2
:202B4000E6E7C02B01D10623E2E7802BE1D10723DEE70131B1F5807FC6D1236801332360FD
:202B60000220CEE7FCD1002313600120C9E700BFA40300209C03002030B5132387B0594317
:202B800013788DF8043053788DF8053093788DF80630D3788DF8073013798DF8083053798A
:202BA0008DF8093093798DF80A30D3798DF80B30137A8DF80C30537A8DF80D30937A8DF811
:202BC0000E30D37A8DF80F30137B8DF81030537B8DF81130937B8DF81230D37B8DF81330D4
:202BE000137C8DF81430537C8DF81530937C8DF816301B4B01EB005000F5804219681332EB
:202C000091421D4628D200F58044A1424FF0000038BF1C6000F0DAFD296806AA0B1B1344B1
:202C200013F8140C0BF0FCF90DF1030029680BF0E5FA2B6806AA1C1B14449DF8032014F877
:202C4000141C914217BF002301332B60012004BF2B60022007B030BD00201860FAE700BF4C
:202C6000A8030020132337B559432B4D01EB005000F5804329681333994218D200F580440A
:202C8000A1424FF0000038BF2C6000F09FFD29680DF107000BF0B2FA2B68204A9DF807101D
:202CA0001C1B013311552B60022003B030BD1C4B1120002113F8014BFF2C08BF03F8011CDC
:202CC0000138F7D1154B197811705978517099789170D978D1701979117159795171997991
:202CE0009171D979D171197A1172597A5172997A9172D97AD172197B1173597B5173997B22
:202D00009173D97BD173197C1174597C51749B7C93742860C9E700BFA003002080030020E8
:202D200082030020F0B5CDB003788DF8043043788DF8053083788DF80630C3788DF8073076
:202D400002AA031D00F1240113F8014B02F8014B8B42F9D10AAA2A3013F8011B02F8011B12
:202D60008342F9D100231A4647F6F0710CA80BF083FA01AD0CAC002321462A46184612F8AF
:202D8000017B11F8016BB74218BF013003F1010318BFC0B22C2BF2D100283FD00CA901AB4E
:202DA0000022013213F8010B01F8010B2C2AF8D10022114640F2FF700AF0F2FF064600B37F
:202DC00000231A4647F6F0710CA80BF069F900231A460CA847F6F0710BF04EFA0023184628
:202DE00015F8011B14F8012B914218BF013003F1010318BFC0B22C2BF2D1003818BF01200C
:202E00000CE040F2FF700AF031FF3246314640F2FF700AF0C5FF0028D2D101204DB0F0BD17
:202E200010B5C0B04FF48073002247F6F071044668460BF021FA6A462C23002112F8010B23
:202E4000FF2808BF02F8011C013BF7D19DF8003023709DF8013063709DF80230A3709DF809
:202E60000330E37001AA231D04F1240112F8010B03F8010B8B42F9D109AA2A3412F8011BDC
:202E800003F8011BA342F9D1002040B010BD00000248002280210BF0D5BF00BF000C0240E6
:202EA0000248012280210BF0CDBF00BF000C024010B5084C0022202120460BF0C3FF0520AC
:202EC0000BF0AEFA20460122BDE8104020210BF0B9BF00BF000C024007B500238DF8043078
:202EE00001224FF0FF3301A903480DF0C5FD9DF8040003B05DF804FB6462002007B5002226
:202F00008DF80700402107480BF09CFF4FF0FF3301220DF1070104480DF01BFC03B05DF8DD
:202F200004FB00BF000C024064620020F8B5012205460C460B480C4F40210BF083FF04B9E9
:202F4000F8BDB4F5004F264628BF4FF4004629464FF0FF33B2B238460DF0FBFB3544A41BFB
:202F6000EDE700BF000C02406462002007B540BAADF80400022101A8FFF7D8FF03B05DF88A
:202F800004FBF7B507462A2016461C460D46FFF7B5FF04210DEB01007FBA76BAADF8047094
:202FA000ADF80660FFF7C2FF2B20FFF7A7FF04210DEB01006DBA64BAADF80450ADF8064021
:202FC000FFF7B4FF2C20FFF799FF03B0F0BD0000F7B51C468318B3F5A07F154601EB040350
:202FE000C4BFC0F5A075ADB2F02BC8BFC1F1F0040F460646C8BFA4B2FFF74AFF7B1E721EF7
:2030000023442A4439469BB292B23046FFF7B9FFBDF820300E480F4F5BBA01224021ADF8B0
:2030200004300BF00FFF8CB9FFF73AFF03B0F0BD4FF0FF33022201A938460DF08AFB013E01
:20304000B6B2002EF4D1013CA4B2ECE72E46F8E7000C02406462002030B5012285B04FF0AC
:20306000FF3300218348844C0DF073FBFFF710FFFFF71EFF782000F0A9FB0120FFF73EFF5F
:20308000782000F0A3FBCB20FFF738FF206823790090052168468DF80430FFF747FFCF2086
:2030A000FFF72CFF2346032133F8052FADF800209B788DF802306846FFF738FFE820FFF79B
:2030C0001DFF34F8082FADF80020A3788DF8023003216846FFF72AFFEA20FFF70FFF0024B7
:2030E00002216846ADF80040FFF720FFED20FFF705FF624B009304216846FFF717FFF720C8
:20310000FFF7FCFE2023012168468DF80030FFF70DFFC020FFF7F2FE2323012168468DF894
:203120000030FFF703FFC120FFF7E8FE1023012168468DF80030FFF7F9FEC520FFF7DEFE4E
:2031400042F63E0302216846ADF80030FFF7EEFEC720FFF7D3FE8623012168468DF8003092
:20316000FFF7E4FE3620FFF7C9FE4823012168468DF80030FFF7DAFE3A20FFF7BFFE552321
:20318000012168468DF80030FFF7D0FEB120FFF7B5FE4FF4C05302216846ADF80030FFF77A
:2031A000C5FEB620FFF7AAFE354B03211A889B78ADF8002068468DF80230FFF7B7FEF22098
:2031C000FFF79CFE012168468DF80040FFF7AEFE2620FFF793FE012168468DF80010FFF700
:2031E000A5FEE020FFF78AFE264B6A4603F1080518685968144603C40833AB422246F7D1D2
:20320000186899889B79A3712060A18068460F21FFF78CFEE120FFF771FE1B4B6A4603F176
:20322000080518685968144603C40833AB422246F7D1186899889B79A3712060A1806846AF
:203240000F21FFF773FE1120FFF758FE782000F0BDFA2920FFF752FE3620FFF74FFE2823A8
:20326000012168468DF80030FFF760FEFFF718FE05B030BD64620020A1B401086403128189
:203280001EBC010822BC0108ACB4010882B02DE9F74FDEB2C3F3072514460D93721E6B1EE8
:2032A0000B4402449BB292B2BDF83C80FFF769FEC72C70D0E72C70D0B42C70D0A82C70D060
:2032C000C02C70D0C12C70D0C22C70D0C32C70D0C42C70D0C82C70D0C92C70D0CA2C70D069
:2032E000CB2C70D0CC2C70D0CD2C70D0CE2C70D0CF2C70D0D22C70D0D32C70D0D42C70D0F4
:20330000D52C70D0D62C70D0D92C70D0DA2C70D0DB2C70D0DC2C70D0E02C70D0E12C70D077
:20332000E22C70D0E32C70D0E42C70D0E82C70D0E92C70D0EA2C70D0EB2C70D0EC2C70D0F2
:20334000ED2C70D0EE2C70D0EF2C70D0F22C70D0F32C70D0F42C70D0F52C70D0F62C70D07F
:20336000F92C70D0FA2C70D0FB2C70D0FC2C70D07F2C28BF2024BDF840A0203C6C436400D9
:203380004FF000099AFA9AFAA94564D303B0BDE8F04F02B070477F24EDE78024EBE7812406
:2033A000E9E78224E7E78324E5E78424E3E78524E1E78624DFE78724DDE78824DBE7892479
:2033C000D9E78A24D7E78B24D5E78C24D3E78D24D1E78E24CFE78F24CDE79024CBE7912499
:2033E000C9E79224C7E79324C5E79424C3E79524C1E79624BFE79724BDE79824BBE79924B9
:20340000B9E79A24B7E79B24B5E79C24B3E79D24B1E79E24AFE79F24ADE7A024ABE7A124D8
:20342000A9E7A224A7E7A324A5E7A424A3E7A524A1E7A6249FE7A7249DE7A8249BE7A924F8
:2034400099E7AA2497E7AB2495E7AC2493E7AD2491E7AE248FE70E9B33F804B00027BE42CB
:2034600003D809F1010902348EE70BFA07F31B0409D598FA98F3ADF80430022101A8FFF70E
:2034800055FD0137EBE7ADF804A0F6E782B02DE9FF470446BDF83C90BDF840A00D9388464E
:2034A0001546DFB2C3F30726FFF7F2FC15F8012B2AB904B0BDE8F04702B0FFF7F1BCE3195C
:2034C000B3F5A07F0BDB08EB06031FFA83F816FA83F3EF2BEDDC202A4FF00004E6D00E9B5A
:2034E0008DF834708DF8356000932046CDE9019A0D9B41463C44FFF7C9FEA4B2D6E730B4DC
:20350000B0F5A07FBDF8085005D2EF2903D8029530BCFFF75DBD30BC704707B5002100906D
:20352000F0234FF4A0720846FFF752FD03B05DF804FBB0F5A07F13B505D2EF2903D80093A0
:203540000123FFF7DCFF02B010BDB0F5A07F13B506D2EF2904D8009313460122FFF7CFFFCC
:2035600002B010BD2DE9F341B0F5A07FBDF8207004460D4690461E4620D2EF291ED800970B
:203580000123FFF7BCFFA919424620460097012389B2FFF7B4FF33462946204600970122FF
:2035A000FFF7ADFF04EB080033460122294680B2089702B0BDE8F041FFF7A1BF02B0BDE861
:2035C000F081B0F5A07F13B5144610DAEF290EDC80B289B24B1C421C9BB292B2FFF7D1FC22
:2035E00064BA022101A8ADF80440FFF79FFC02B010BD2DE9F74FBDF8306007460C469846CA
:203600009146FFF745FC264408EB070BB6B24FF0000A1FFA8BFBB44215D009EB4A033D463E
:2036200021B20AE033F8022B28B2CDE90013FFF7C8FFDDE900130135ADB25D45F2D101340D
:20364000C244A4B2E7E703B0BDE8F04FFFF728BC2DE9F74FA3EB0109A2EB000AB9F1000F8B
:20366000B8BFC9F10009BAF1000FB8BFCAF1000AD145BDF8307004460D46904603DD98467E
:203680000C4613460546444505DD29461D460B46214644468846A8EB0406A3EB050BBBF100
:2036A000000FC6F3C031B2B2B8BFCBF1000B01FA86F69D42B4BF01234FF0FF330092761039
:2036C0000193FFF7E5FB444504DD03B0BDE8F04FFFF7E6BBD145C7BF2146284629462046A2
:2036E000A6EB0B063A46FFF76CFFB3B236B2002E05DA019A1544009AD6182DB236B2013475
:2037000024B2E0E7044BC90001F4FC6141EAD20203EA00201043704700F8FFFF2DE9F3414C
:20372000089E1D460F4614468046FFF7B1FB2A20FFF7E4FB1FFA88F0FFF718FCA0B2FFF767
:2037400015FC2B20FFF7DAFBB8B2FFF70FFCA8B2FFF70CFC2E20FFF7D1FBFFF7BDFBE91BBD
:20376000A4EB0800441C4B1C14FB03F39BB203EB43050F4FADB206EB4304A64205D1FFF7BA
:203780008FFB284602B0BDE8F0814FF0FF33032201A938460DF070F99DF806209DF80510E0
:2037A0009DF80400FFF7AEFF26F8020BE5E700BF6462002008B504480CF04DFC18B1BDE875
:2037C000084007F08FBB08BDD061002010B50446FFF7F0FF013C00D210BDFFF7EBFF012079
:2037E0000AF01EFEF6E700000C480D4A08B542F21073C0E9002300234FF48042C0E90233E5
:20380000C0E90423C0E9063303620CF049F818B1BDE8084007F066BB08BD00BFD85E0020AC
:20382000005C004070B50E4C0E4E0546012086B020703078012808D00A98009028460CF09A
:20384000F1F80023237006B070BD0020CDE904230391FFF7BBFFDDE904230399E9E700BF8D
:20386000880400207405002070B50E4C0E4E0546012086B020703078012808D00A9800901B
:2038800028460CF0A7F90023237006B070BD0020CDE904230391FFF799FFDDE904230399DD
:2038A000E9E700BF880400207405002030B585B005250C468DF80C008DF80D101648009578
:2038C000022303AAD021FFF7ADFF50B1134815F007F80A2015F01CF8FFF786FF012005B08F
:2038E00030BD0D480095012303AAD021FFF79AFF08B10B48EBE708480095012303AAD0211B
:20390000FFF7B2FF08B10748E1E79DF80C30181B18BF0120E3E700BFD85E002031BC01085F
:2039200055BC010879BC010810B5084805230122D0210CF0BFFA08B1FFF756FFBDE8104030
:20394000024805230122D0210CF0B4BAD85E00202DE9F04F984B2DED028B196885B069B172
:20396000964814F0BDFF0A2014F0D2FF4FF0020A504605B0BDEC028BBDE8F08F904E914DFE
:20398000012405231A46D02130460CF093FA824670B12146284614F0A3FF01340A2014F0C3
:2039A000B7FFFFF721FF0A2CEBD14FF0010ADFE79FED858ADFF80892844DDFF834B2044655
:2039C0000646074680460020FFF700FF3B238DF80C30052300937A48012303AAD021FFF71F
:2039E00021FF002800F0B680794814F079FF0A2014F08EFFFFF7F8FE0134E4B2632CE2D960
:203A000007EE908AF8EEE77AC7EE886A07EE907AF8EEE77A87EE887A07EE906AF8EEE77AB6
:203A2000C7EE888A9FED6B8A66EE887A17EE90BA67EE087A17EE900AFCF786FD06465846C3
:203A40000F46FCF781FD68EE887A804617EE900A8946FCF779FD02460B46FCF7CDFD4246CD
:203A600004460D464B4640464946FCF7C5FD22462B46FCF70BFC41EC100B17F049FB304672
:203A800053EC102B3946FCF7E1FE41EC100B17F093F9514B51EC100B0022FCF7ADFD44A3E6
:203AA000D3E90023FCF7D2FE4C4B804618688946FCF74AFD02460B4640464946FCF7E4FBFE
:203AC000FDF792F8324608EE100A3B4630463946FCF792FD22462B46FCF7D8FB41EC100B01
:203AE00017F016FB55EC104B8BF00040FCF72CFD22462B46FCF7AAFE41EC100B17F05CF923
:203B0000354B51EC100B0022FCF776FD28A3D3E90023FCF79BFE324B044618680D46FCF782
:203B200013FD0B46024629462046FCF7ADFBFDF75BF8DFED2C7A2C4B38EE678A07EE900A96
:203B4000BDEEC88AFDEEE77A83ED008A274BC3ED007A0DE71E2300931C4A0623D0214846B0
:203B6000FFF782FE08B158463FE72A786B7843EA022308FA83F8AA78EB7843EA022307FA26
:203B800083F72A796B79F0EE087AB4EEE78A43EA0223F1EE10FA06FA83F604D5F7EE007AC5
:203BA00038EE278A28E7632C3FF4FFAE642423E77A008BFCFA210940C4030020A0BC01086D
:203BC000D85E0020D8BC0108000000005806002031BC01080000803800806640B4030020C9
:203BE000B80300200000B442BC030020C003002079BC0108000000002DE9F0472DED068BFC
:203C00008F4886B014F06CFE0A2014F081FE8D4B196861B18C4814F063FE0A2014F078FE34
:203C20000224204606B0BDEC068BBDE8F087874F874E092505231A46D02138460CF03AF9ED
:203C4000044668B13046013D14F04AFEADB20A2014F05EFEFFF7C8FD002DEBD10124E0E788
:203C6000DFED7C8ADFF8E4A17B4E9FED7C8A05460746804681460020FFF7A8FD3B238DF8F8
:203C80001430052300937148012305AAD021FFF7C9FD002800F0A080714814F021FE0A20AE
:203CA00014F036FEFFF7A0FD0135ADB2B5F57A7FE1D307EE909AF8EEE77A9FED6A9A87EEE2
:203CC000A87A07EE908AF8EEE77A87EEA88A07EE907AF8EEE77A28EE098AC7EEA89A67EE8A
:203CE000098AFDEEE87A17EE903A002BB8BF5B4207EE903AF8EEE77AE9EE897A17EE900A57
:203D0000FCF722FC41EC1A0B18EE100AFCF71CFCB0EE4A1AF0EE6A1A41EC100B17F0F5F974
:203D2000514B51EC100B0022FCF766FC4F4B0022FCF762FCBDEEC88A3FA3D3E90023FCF75A
:203D400085FDFCF751FF18EE103A002BB8BF5B4208EE103AB8EEC88A0646A9EE898A18EEDB
:203D6000100AFCF7F1FB41EC190B18EE900AFCF7EBFBB0EE491AF0EE691A41EC100B17F0CF
:203D8000C4F9394B51EC100B0022FCF735FC384B0022FCF731FC28A3D3E90023FCF756FD8F
:203DA000FCF722FF334B1E60334B054618603046FCF7CAFB02460B462846CDE90223FCF7AF
:203DC000C3FBDDE90223CDE900012C4814F088FD0A2014F09DFD24E71E2300931E4A06234E
:203DE000D0215046FFF740FD08B1254855E73278737843EA022309FA83F9B278F37843EA7F
:203E0000022308FA83F832797379F4EEC88A43EA0223F1EE10FA07FA83F704D5F7EE007A47
:203E200078EEA78A40E740F2E7339D423FF416AF4FF47A7538E700BF7A008BFCFA2109402C
:203E40000ABD0108C4030020A0BC0108D85E00201CBD010800000000580600200000484305
:203E600031BC010800008038008076400000E03F0000E0BFB4030020B80300204ABD0108DE
:203E800079BC0108F0B5274F274E85B0052500224FF4007138460AF0D5FF3220FFF796FCF9
:203EA00001224FF4007138460AF0CCFF3220FFF78DFC05231A46D02130460BF0FBFF08B17A
:203EC000FFF792FC05231A46D02130460BF0F2FF68B1164814F004FD013D0A2014F018FD86
:203EE000FFF782FC15F0FF05D1D1012416E048F26B03ADF80C300523009303AA0223D02181
:203F00003046FFF78FFC044608B10948E2E70AF081FA084B18602046FFF758FC204605B082
:203F2000F0BD00BF00040240D85E00205BBD010831BC0108C40300201FB57523ADF80C302E
:203F40001A4B196841B11A4814F0CAFC0A2014F0DFFC022004B010BD0A241648009401236D
:203F600003AAD021FFF75EFC48B1134814F0B8FC204614F0CDFCFFF737FC0120EAE70523D1
:203F800000930C48012303AAD021FFF76DFC08B10A48EBE79DF80C106829DBD0084814F0FB
:203FA0009FFC204614F0B4FCE7E700BFC4030020A0BC0108D85E002085BD0108ABBD010861
:203FC000D4BD01082DE9F0412F4C2368054633B12E4E0AF01FFA2368643898421CD3002329
:203FE0002B4E2C4FDFF8BC8023600124FFF79CFC08B1FFF7F9FBFFF797FCC0B12648214612
:2040000014F06EFC01340A2014F082FCFFF7ECFB0A2CEBD1012035E00020FFF7D7FB2168DB
:20402000304614F05DFC0A2014F072FCD1E7FFF783FF014610B119482146E1E76B20FFF7C8
:2040400035FC014610B121464046D9E71B20FFF72DFC014610B121463846D1E71C20FFF749
:2040600025FC10B121463046CAE7012D0AD10C4814F036FC0A2014F04BFCFFF7BDFD0038E0
:2040800018BF0120BDE8F081C4030020A0BC0108A1BE010873BE010803BE010823BE010870
:2040A000D0BE010846BE010807B5F02300210246009308464FF4A073FFF79BFA03B05DF85A
:2040C00004FB000030B5094A01F1C60314685D1AAC4206DB08551368C52B9CBF0133136062
:2040E00030BD13F8014D5C70F0E700BF1804002070B50D4619464378012B144602D0437936
:20410000002B4CD04F2D15D1A2480468224613460132CD5C15F0DF0F01D0C52BF7D91944A2
:204120004B7833B1C52A04D89B4B1B68A342FDD1026070BD502DFCD1964C2368002BF8DDAB
:20414000954A12689342FDD1CA18C85C12F8012C203A18BF012200B9013BC81805E005789B
:20416000202D03F1FF3300D10132DE43012A4FEAD676C8BF002610F801590EB1002DEED13D
:20418000002B03DA834B00221A60D2E719445A1C4B78002BCDD0C52ACBD82260C9E72F2D76
:2041A00082781ED17D4C012A2368264601D085795DB113B960233360BBE7D8B2FFF782FFC9
:2041C0006020FFF77FFF0023F5E713B9B4232360AFE7D8B2FFF776FFB420FFF773FF25607A
:2041E000A7E7342D16D16D4C012A2368264601D085793DB10BB95E23DDE7D8B2FFF762FF67
:204200005E20DEE70BB97E23E1E7D8B2FFF75AFF7E20E2E7012A01D0837973B1232D0CD1A5
:204220005E4C206808B9A823D1E7C0B2FFF74AFFA820FFF747FF0023C9E72A2D14D1554BA4
:204240001A68501EC5283FF674AF534C2468A242FDD10A441860C83191423FF46AAF12F864
:20426000013B02F8023CF7E74C2D0AD1494B1B680B445A1AC62A3FF65CAF5A7803F8012B95
:20428000F7E7A4F120035F2B00F2DB80434D2B68002B00F0D180602B1CD1412C6ED0452C8E
:2042A0006ED0492C6ED04F2C6ED0552C6ED0612C6ED0652C74D0692C74D06F2C74D0752C9C
:2042C00074D06020FFF7FEFE2046FFF7FBFE00232B602EE7B42B15D1412C69D0452C69D0FB
:2042E000492C69D04F2C69D0552C69D0612C69D0652C69D0692C69D06F2C69D0752C69D096
:20430000B420DFE75E2B15D1412C65D0452C65D0492C65D04F2C65D0552C65D0612C65D07A
:20432000652C65D0692C65D06F2C65D0752C65D05E20C7E77E2B09D1412C61D04F2C61D04E
:20434000612C61D06F2C61D07E20BBE7A82BBBD1412C5DD0452C5DD0492C5DD04F2C5DD0B2
:20436000552C5DD0612C5DD0652C5DD0692C5DD06F2C5DD0752C5DD0A820A3E7C024A3E7FF
:20438000C824A1E7CC249FE7D2249DE7D9249BE7E02499E7180400201C040020C80300204F
:2043A000E82491E7EC248FE7F2248DE7F9248BE7C12489E7C92487E7CD2485E7D32483E76C
:2043C000DA2481E7E1247FE7E9247DE7ED247BE7F32479E7FA2477E7C22475E7CA2473E7AB
:2043E000CE2471E7D4246FE7DB246DE7E2246BE7EA2469E7EE2467E7F42465E7FB2463E7EF
:20440000C32461E7D5245FE7E3245DE7F5245BE7C42459E7CB2457E7CF2455E7D62453E7D0
:20442000DC2451E7E4244FE7EB244DE7EF244BE7F62449E7FC2447E72046BDE87040FFF735
:2044400041BE4F2D0FD1324A324813680068C95C31B1C52B04D88342FDD10133136068E6CD
:204460008342FDD18EE6502D13D1294A294813680468002B0BDDA342FDD1013BEEE7013001
:204480000D5C002DFBD1A342FDD1106051E60020F6E7522D0CD11E4A1E49136809681B2B06
:2044A00003DD8B42FDD11C3BD8E78B42FDD169E6512D19D1002200E001328B5C002BFBD106
:2044C000134B196801F11C00904208DA1B293FF730AE104A12689142FDD1186029E60D4892
:2044E00000688142FDD14FE64B2D3FF44BAE4E2D7FF41FAE002200E001328B5C002BFBD11C
:20450000044B1868024B19688842FDD13CE600BF180400201C04002013B519234CF218644B
:20452000194618460094FA22FEF7E9FF192318460094FA22BE21FEF7E2FF1922104600940D
:204540008C233221FEF7DBFF00948C2319223221FA20FEF7D4FF502319460094192240F204
:204560001310FEF7CCFF3C210846009478231C22FEF7C5FF009478231C223C216220FEF746
:20458000BEFF009478231C223C218820FEF7B7FF009478231C223C21AE20FEF7B0FF009471
:2045A00078231C223C21D420FEF7A9FF002002B010BD00002DE9F043544F554B3A68554EC4
:2045C00053F822104FF6E0744FF62053002918BF1C461C235343F21887B0917D01296FD11D
:2045E000127E002A6CD1083304AA33444FF00809104613F8011B02F8011BB9F10109F8D104
:20460000DFF82481444D4146FCF772FF6B6800934246CDE901492B6869218B20FEF736FFC2
:204620003B684FF01C0909FB03631869FBF78CFF02460B464046394914F006FA3B689FED37
:20464000387A09FB0366D6ED047A364BF4EEC77AF1EE10FA1B78424612DB012B02D12C2317
:2046600088F80330CD200023CDE901436B6800932D4A2B687D21FEF709FF07B0BDE8F083A3
:20468000B2EE047AF4EEC77AF1EE10FA05DB012B01D12C239370D820E5E7F5EEC07AF1EE00
:2046A00010FA05DD012B01D12C235370E320DAE7BAEE047AF4EEC77AF1EE10FAE7DDF1E76C
:2046C000154D1A4A6B68009300262B6869218B20CDE90146FEF7DAFE124B15491B7812484E
:2046E000012B144B1B7814BF2E222C22B34214BF4323462314F0A8F96B680093CDE901468C
:204700002B68094A7D21E320B5E700BFD0030020D4040020086500205C000020F5BE010807
:204720000000C8421D050020C32E0020FCBE01080DBF01082C010020F0B40D2101FB00F376
:20474000164C1749174D94F804C005F803C01944EA1800236779A679A5784B7164788B71F1
:20476000CB710B724B72104957709670D570147153719371D3711372537201220A7081F867
:2047800001C08F70CE700D714C718B71CB710B724B728B72F0BCC0B2FEF752B800650020CF
:2047A000BC620020FC610020086600202DE9F041DFF860E01549164A0D2444430EEB0403DC
:2047C0001EF804404C705C7892F804C05779967995788C7052789C7883F805C09F71DE713C
:2047E0001D725A724FF00008CC70DC781B7981F800800C714B7181F806C0CF710E724D7203
:204800008A72BDE8F041C0B2FEF71AB80866002000650020FC61002030B5164B164C1978C4
:2048200001EB410301EB8301144B1A68144B53F8225085B09DB1134B1348194414F004F941
:2048400000234FF62052CDE90132636800930E4A23682D21B420FEF719FE05B030BD0B4B2E
:204860000948194414F0F0F84FF6E073CDE90153EBE700BF270500205C000020D0030020B0
:20488000D4040020B8CF0108C32E00203CD0010830B5154B154C197801EB410301EB830193
:2048A000134B1A68134B53F8225085B09DB1124B1248194414F0C8F8002302934FF6205332
:2048C0000193636800930D4A23682D21B420FEF7DDFD05B030BD0A4B0848194414F0B4F8BF
:2048E00002954FF6E073EBE7270500205C000020D0030020D4040020DFCF0108C32E00203C
:2049000063D001082DE9F043204DDFF8849087B00E4605244FF000082F4619F8013B8DF878
:204920001580CDE90168002B08BF20238DF814306B6800932B68204605AAB9210B34FEF7A9
:20494000A5FDA4B240F239139C42E6D1DFF8449005254FF0000819F8013B8DF81580CDE913
:204960000168002B08BF20238DF814307B68009328460B353B6805AACD21ADB2FEF786FD95
:20498000A542E8D107B0BDE8F08300BF5C000020C0630020DC630020494B2DE9F0411D686B
:2049A000484F0D236B438AB0FB5C632B9FBF4FF00A0CB3FBFCFCCCEB4C12CCEB820298BF63
:2049C00003EB42034FF00D0202FB057288BF002351788CBF9C46DBB263299FBF0A22B1FB33
:2049E000F2F2C2EB4210C2EB800098BF01EB40014FF00D0000FB057088BF002180788CBFBC
:204A00000A46C9B263289FBF4FF00A0EB0FBFEFECEEB4E14CEEB840498BF00EB44004FF0C3
:204A20000D0404FB057488BF0020E4788CBF8646C0B2632C9FBF0A26B4FBF6F6C6EB4618DA
:204A4000C6EB880898BF04EB48044FF00D0808FB057588BF00242D7994BFE4B22646632DBC
:204A60009FBF0A27B5FBF7F7C7EB4718C7EB880898BF05EB4805DFF8608098F800808ABF12
:204A80000025EDB22F46B8F1010F0CBFCDE90021CDE900C3CDE902E015BF0B460A490B49A5
:204AA000624605A813F0D0FFCDE9017508490094334605AA074813F0C7FF0AB0BDE8F081AE
:204AC000D0030020FC61002018BF010827BF010836BF0108C32E00201C050020354B2DE9B1
:204AE000F0411E68344B0D2202FB06368AB03379632B53D80A257179B1FBF5FCCCEB4C13AD
:204B0000CCEB830301EB4301B379B3FBF5F2C2EB4210C2EB800003EB4003F079B0FBF5FE03
:204B2000CEEB4E14CEEB840400EB4400347AB4FBF5F7C7EB4718C7EB8808767AB6FBF5F5C3
:204B400004EB4804C5EB4518C5EB880806EB4806C9B2DBB2C0B2E4B2F6B2DFF8708098F87F
:204B60000080B8F1010F0ABFCDE90023CDE900C10B46CDE902E00ABF10491149624605A829
:204B800013F062FFCDE901560E4900943B4605AA0D4813F059FF0AB0BDE8F0810024274678
:204BA0002046A646234622462146A44626462546D3E700BFD0030020FC61002018BF0108E1
:204BC00027BF010836BF0108C32E00201C0500202DE9F04F0D234343574FF95C63299FBFA6
:204BE0004FF00A0CB1FBFCFCCCEB4C13CCEB830398BF01EB43014FF00D0303FB007388BFDB
:204C000000215B788CBF8C46C9B2632B98BF0A2204469FBFB3FBF2F2C2EB4210C2EB800091
:204C200003EB40034FF00D0000FB047088BF002380788CBF1A46DBB263289FBF4FF00A0EAE
:204C4000B0FBFEFECEEB4E15CEEB850598BF00EB45004FF00D0505FB047588BF0020AD7A6F
:204C60008CBF8646C0B2632D9FBF4FF00A08B5FBF8F8C8EB4816C8EB860698BF05EB4605EA
:204C80004FF00D0606FB047688BF0025F67A94BFEDB2A846632E9FBF4FF00A09B6FBF9F9A7
:204CA000C9EB491AC9EB8A0A98BF06EB4A064FF00D0A0AFB047788BF00263F7B94BFF6B205
:204CC000B146632F9FBF4FF00A0AB7FBFAFACAEB4A1BCAEB8B0B98BF07EB4B07DFF86CB001
:204CE0009BF800B08FB08ABF0027FFB2BA46BBF1010F0DF1240B0ABFCDE90023CDE900C10F
:204D00000B46CDE902E00ABF0C490D496246584613F09AFE631CCDE905A7CDE90396CDE96F
:204D200001850849CDF800B01A46074813F08CFE0FB0BDE8F08F00BFBC62002018BF01082B
:204D400027BF010843BF0108C32E00201C05002030B500238B4204DB012300224254184619
:204D600030BDC25C32B9C4182025CB1A934203DC0023F2E70133EDE704F8015B0132F5E718
:204D80002DE9F04F85B0984604AF0B2392FBF3F39C1D24F00704ADEB040DBD6AB7F82CA034
:204DA0005E1E0DF1100B0024B4424DDB012BACBF5B440BF101034FF000048EB295B203F821
:204DC000014C84B22A4631462046CDF800A0142306F11409FEF793FB1FFA88F81FFA89F99C
:204DE000AA1E601C002300934946434692B280B2FEF785FB3A8E174BCDF808A001925A68CA
:204E00000092B11CE01C5A461B6889B280B2FEF73DFB08F11301314453462A46204689B24E
:204E2000FEF787FB2046013C5346424649462C44FEF78BFB534642464946A0B2FEF785FB46
:204E40000437BD46BDE8F08F15F804C00BF804C00134A9E75C0000202DE9FF47704D714E3F
:204E60002978714BDFF80492704C01EB810103EB8101304613F008FE4CF218670C23CDE9AD
:204E800001370096C8234FF4A07214210020FFF777FF2B78664A03EB430102EB410209EB9A
:204EA000C3036449304613F0CFFD0023CDE9017363680093324623685F4E2D210520FEF777
:204EC000E5FA0097152340F2371240210420FEF749FB42F2041300934FF49B721423412124
:204EE0000520FEF70CFBF17828783379534A96F806C07779002900F08E800139CDE9007C68
:204F000001EBC00102EB81024D494E4813F09CFD4CF218676368009342F2041A2368494A21
:204F2000CDE9017A41210520FEF7B0FA2A78464B46493C4802EB420203EB420213F084FDED
:204F40004FF0000863680093CDE901782368354A96210520FEF79AFA0097152340F23712C4
:204F6000A9210420FEF7FEFACDF800A014234FF49B72AA210520FEF7C2FA337800937378A0
:204F8000B2783349334813F05FFD63680093CDE9017A23682F4AAB210520FEF777FA2A7805
:204FA0002D49204809EBC20213F04EFD63680093CDE9017823681B4A5F210520FEF766FA96
:204FC0002A78264B26491748C2EB02121A4413F03BFD63680093CDE901782368114A78218A
:204FE0000520FEF753FA2A781E4B1F490D4802EB420202EBC2021A4413F026FD63680093BE
:20500000CDE901782368074AD2210520FEF73EFA04B0BDE8F087CDE9007C02EB401273E7A5
:2050200027050020C32E002059C701085C0000209FC6010861BF01087466002013D20108EF
:2050400074BF01088E06002047C7010887BF01080FC30108C85E002096BF01081AC7010891
:20506000A0BF0108C9C601087FC10108B1C601082DE9F04F2DED028B0C4695B0002930D1AA
:20508000002828DD0C234CF21862CDE90132B64DB64A2B7803EB830302EB830300934FF4B0
:2050A000A072C82314212046FFF76AFEB04B2A78B049B14803EB021213F0C6FCAF4B029414
:2050C0004FF6FF7201925A6800921B68AA4A2D210620FEF7DBF9204615B0BDEC028BBDE879
:2050E000F08F012940F08A81A54FDFF8F0A2DFF888820024D7ED047ABDEEE78AB8EEC87A24
:2051000077EEC77A17EE900AFBF71EFA94A3D3E90023FBF771FAFBF71FFD0DAA834607F147
:20512000080100231046013311F8015B02F8015B082BF8D10FA9661CFCF7DAF90FAB5146B1
:20514000CDF804B08DED008A3246404613F07CFCFB7D854D012B297840F0F780894B09A816
:2051600003EB810113F070FC4FF4FC69844A1C2303FB042404F1100393E807008DE807006F
:2051800094E80F00FCF786F82978002840F028817C4B0BA803EB810113F056FC7A4B7B4AA8
:2051A0001B7812788DED028A012B14BF2E232C23CDE9033B0FAB019309AB00930BAB002AC4
:2051C00040F017817249324640464FF0000B13F03BFCCDE9019B694CC6EB0611636800939D
:2051E0002D312368424689B20E20FEF74FF9082E07F11C0740F0A7802B78664A02EBC302EB
:20520000654B07921868FBF79FF94FF6FF76CDE90001079A6149584813F016FCCDF808B04D
:205220000196636800932368534AB4210E20FEF72DF92A7802EB820302EB4302584B1A44EC
:20524000584B07921868FBF77FF9079ACDE900015549494813F0F8FBCDE9016B636800932B
:205260002368454AB4218C20FEF710F92A784F494F4B41481B68C2EBC2020A444D4913F05D
:20528000E3FBCDE9016B6368009323683A4AC3210E20FEF7FBF8484B48491A68364813F080
:2052A000D3FBCDE9016B636800932368324AC3218220FEF7EBF8424B1B78002B40F09C80A4
:2052C00040492D4800254FF6FF7613F0DDFBCDE90165636800932368274AC321C820FEF7DF
:2052E000D5F8394A394993680093D2E90023224813F0AAFBCDE901656368009323681E4AF1
:20530000D2210E20FEF7C2F8314A3249137A0593D37904939379039353790293137901939C
:20532000D378009393781448527813F08DFBCDE901656368009323680F4AE1210E20FEF750
:20534000A5F82C46C7E63446D4E6234B09A803EB810113F079FB4FF6E07907E7AFF30080A9
:20536000000000000088C34027050020CBD101088FD10108AABF0108C32E00206C00002039
:205380000865002007D201081D0500202C010020D8BF010856D101087C04002018C00108BE
:2053A0006ED101088004002022C0010841D10108BC0300202CC00108C003002039C0010842
:2053C000FE04002042C001082463002059C001080C67002074C00108BFD10108C8BF0108DE
:2053E000084B0BA803EB810113F02EFB4FF47849D4E605493246E7E6044962E7022918BF22
:20540000002468E6BFD10108F8BF01084DC001082DE9F04F6E4D6F4E2A786F4C33686F492E
:20542000DFF8E8A102EBC20287B001EB420201336B49204613F008FB4CF218670C23CDE9FE
:2054400001370094C8234FF4A07214210020FFF797FC0023CDE90173624C2A78636862494F
:20546000009302EB02120A4423682D210520FEF70DF85E4A05921368BBB92A7802EB420152
:2054800002EB810231685AF82110002940F093804FF4FC63CDE90113636800932368544922
:2054A0000A44B4202D21FDF7F1FF00274CF21868CDE901872A7863684E49009302EB82026D
:2054C00001EB4202236841210520FDF7DFFFCDE901872A7863684849009302EB420201EBCC
:2054E0004202236855210520FDF7D0FF30685AF820304FF6205B4FF6E079BB4218BFD946F4
:20550000C0B2FFF749FACDE90197636800932368314A41219F20FDF7B9FF3078FFF7DEFAEB
:20552000CDE901976368009323682B4A55219F20FDF7ACFFCDE901876368009323682F4A4B
:2055400069210520FDF7A2FFCDE901876368009323682B4A7D210520FDF798FFFFF72AF805
:20556000CDE901872A78636826490093C2EBC202236801EB82020520A521FDF787FF059B0D
:205580001B680BBBCDF800B0292340F23712B7210420FDF7E7FF30685AF820104FF6E072FF
:2055A0004FF6205300290CBF1146194607B0BDE8F04FFFF7A7B94FF6E071CDE9013163684F
:2055C0000093236810496BE748F210430093DBE727050020D0030020C32E002006D00108F1
:2055E0009FC001085C000020DED00108080000203CD0010811D101082FD10108A5C0010871
:20560000B0C001088AD00108B8CF0108D40400202DE9FF41DFF86882884DD8F80030297899
:20562000874C9A1E012A00F29680864E864B01EB01111944304613F027FA00274FF6205333
:205640004FF4A072CDE901371421C82338460096FFF796FB29787D4B01EB410103EBC10105
:20566000304613F011FA4CF2186301936368009323680297324650210520FDF707FF744A11
:205680002B781268012A4FEAC30340F0B98071496C48194413F0F8F900264FF47843CDE9C1
:2056A00001366368674A0093782123680520FDF7EDFE694B2978634803EBC10113F0C4F90C
:2056C00002964CF218630193636800935D4A236878219B20FDF7DAFE2978604B59481A220C
:2056E00001FB023113F0D0F94CF218666368554A009300272368CDE90167A0210520FDF74C
:20570000C5FE2978564B4F48C1EBC10103EB810113F0BAF963684B4A0093CDE901672368BD
:20572000B4210520FDF7B2FE29784648C1EBC10301EB83014B4B194413F0A6F963680093C9
:20574000CDE9016723683F4AD7210520FDF79EFE04B0BDE8F081012B91DC434B394E01EB06
:20576000C10103EB4101304613F08EF900274FF62053CDE9013714210096C8234FF4A0725F
:205780003846FFF7FDFA2978D8F8008001EB4101C1EBC101B8F1000F0FD1344B3046194427
:2057A00013F072F94CF21863019363680093CDF80880236832465A215EE72D4B3046194475
:2057C00013F062F94CF21868636800933246236802975A210520CDF80480FDF757FE2978E0
:2057E000244B01EB410103EBC101304613F04CF963680093CDE90187236832463C213BE780
:205800001D491048194413F01FF900264CF21863CDE9013663680B4A00937821236805208A
:20582000FDF734FE154B2978064803EBC10113F00BF902964FF4784345E700BF270500206F
:205840005C000020C32E00208AC3010898C40108F8040020DCC50108F4C501080CC601089D
:20586000BDC3010841C40108E0C4010816C5010855C5010894C5010811C4010829C40108A7
:20588000F40400207FB5B84DB84B2978B84E01EB810101EB81011944304613F0F5F84CF230
:2058A00018641F23CDE901340096C8234FF4A07214210020FFF764FA2B78002B40F02A8117
:2058C000AC49304613F0E0F84FF4FC630022CDE90132A94CA64A6368009323682D21052094
:2058E000FDF7D4FD2B78012B40F01A81A349A04813F0CAF84FF4FC630022CDE90132636838
:20590000009323689A4A46210520FDF7BFFD2B78022B40F00C819A49954813F0B5F84FF409
:20592000FC630026CDE9013663680093904A23685F210520FDF7AAFD924B29788C4803EBB2
:20594000C10113F0A1F84FF6E07302960193636800932368864A8C4E2D219F20FDF796FDFE
:205960002B788A4A317803EBC3031A44002940F0E58087497E4813F067F84FF4FC6300227B
:20598000CDE90132636800932368794A46219F20FDF77CFD33787F4A012B2B7803EBC303E8
:2059A0001A4440F0D2807A49714813F04DF84FF4FC630026CDE90136636800936C4A2368EF
:2059C0005F219F20FDF762FD2978734B684801EB410103EB810113F057F84FF6E073029606
:2059E0000193636800936D4E614A23687D210520FDF74CFD3278002A40F0AE8068495C483D
:205A000013F042F84FF4FC630022CDE90132636800932368564A96210E20FDF737FD33785B
:205A2000012B40F0D7805F49514813F02DF84FF4FC630026CDE90136636800934C4A236816
:205A4000AF210E20FDF722FD2978574B484801EBC101194413F018F84FF6E0730296019380
:205A600063680093514E424A23687D219F20FDF70DFD3278002A40F0B4804D493C4813F062
:205A800003F84FF4FC630022CDE90132636800932368374A96219F20FDF7F8FC3378012BBF
:205AA00040F0A6804349324812F0EEFF4FF4FC630022CDE901326368009323682C4A9F20D0
:205AC000AF21FDF7E3FC3C4B1878002840F097804FF478430093982216232A210420FDF7B6
:205AE00041FD29782248C1EBC10301EB8301334B194412F0C9FF4CF218630022CDE9013214
:205B00006368009323681A4AD2210320FDF7BEFC04B070BD2A49304612F0B6FF2346D5E6CF
:205B20002849134812F0B0FF4CF21863E4E626490F4812F0A9FF4CF21863F2E623490C48A4
:205B400012F082FF4CF2186319E72049084812F07BFF4CF218632CE71D49054812F094FFC0
:205B60004CF2186350E700BF2705002095C70108C32E0020BEC001085C000020D6C0010812
:205B8000EEC00108E0C701081C0500208EC801080AC10108A9C80108F8C701081D050020A6
:205BA00018C101082AC101081CC801082C0100203CC101084AC101082905002037C8010865
:205BC000CAC00108E2C00108FCC0010811C1010821C101082F49304812F056FF4CF21863FC
:205BE00027E72E492C4812F04FFF4CF218634AE72B49294812F048FF4CF2186358E7012823
:205C000006D14FF47843009398221623432165E7022806D14FF478430093982216235C2177
:205C20005CE7032806D14FF47843009398221623932153E7042806D14FF47843009398225F
:205C40001623AC214BE7052807D14FF4784300939B22162343219C2041E7062806D14FF4F0
:205C6000784300939B2216235C21F4E7072806D14FF4784300939B2216239321EBE7082845
:205C80007FF42FAF4FF4784300939B221623AC21E1E700BF33C10108C32E002043C10108BD
:205CA00051C101081FB50F4A0F4912780F4B104C1B68C2EB0210014400910E49013301EB75
:205CC000C20220460C4912F0BFFE00201F23CDE901300094C8234FF4A0721421FFF750F8F6
:205CE00004B010BD2705002072C60108D0030020C32E00205AC6010858C101080000000047
:205D00002DE9F04F044687B0002855D19C4D9D4F9D4E04F0E3FE9D4B9D4A9E49284612F0A4
:205D200093FE0C234CF21862CDE901321421C8234FF4A07220460095FFF722F83A78964BEF
:205D4000964902EB820203EB4202284612F07CFE1F23029401937368009333682A46DA21F7
:205D60000120FDF793FB3A7802EBC2038C4A1A44134613F8011B11B10134092CF9D102343C
:205D800086497F4812F060FEC4EB043004EB800004EB800404F23F101F230024CDE90134B2
:205DA000736800933368764ADA2180B2FDF76EFB002007B0BDE8F08F012807D10C23AF2294
:205DC000282140F23110FDF7C0FBF1E7022807D10C234FF4A072D7210020FDF7AAFBE7E77B
:205DE000704B032C187840F0A18000F10808DFF8C8B1654D624F5FFA88F804460026A045F6
:205E0000D6DD9BF80030B3424FEA460949D1072C33DCE0B2FEF7DCFEB144C9EBC90909F15D
:205E20002D014FF4FC6A4FF00009CDE9019A6B68009389B22B6805913A460520FDF726FB6E
:205E4000072C17DC584B059953F8243093B1CDE9019A6B6800932B68544A2620FDF716FBC5
:205E6000CDE9019A6B6800932B68514A05995220FDF70CFB01360134C1E7424B1A78E021FE
:205E80006FF0DF0311FB02311C2303FB041349493846194412F0F8FD1B213846FEF758FFC4
:205EA000BAE7072C2EDCE0B2FEF792FEB144C9EBC90909F12D0148F210434FF00009CDE9BF
:205EC00001396B68009389B22B6805913A460520FDF7DCFA072CCDDC334B059953F82430B8
:205EE000012BC7D14FF6205ACDF80890CDF804A06B6800932B682D4A2620FDF7C7FACDE938
:205F000001A9AFE71F4B1A78E0216FF0DF0311FB02311C2303FB041326493846194412F024
:205F2000B3FD1B213846FEF713FFBFE7042C1CD1214B1C78204407EE900AF8EEE77A17EEEE
:205F4000900AFAF701FB0CA3D3E90023FAF754FBFAF72AFE0C23C1B20093072264232A3193
:205F600040F23510FDF7CBFA22E7631F584258411FE700BFAFF30080666666666666144094
:205F8000C32E0020270500205C00002061C101086CC101087CC10108DACB010884C1010885
:205FA0001FC901084F050020B404002089C101088BC101083AC901084E0500202DE9F3472D
:205FC000344C354F0A288246054628BF4FF00A0AA1462378012B27D03B78012B24D00023A3
:205FE000009340F23912142391210320FDF787FA2A4B1B78022B1BD1294B1B78DBB1294BE8
:206000001B68072B0CBF4FF00C084FF01F080026B245544615DC092D03D842F20415092C0C
:2060200025DD02B0BDE8F0870020FDF7CFFBD0E742F20418EBE74FF00C08E8E70020FDF7A3
:20604000C5FB99F80030012BF8D03B78012BF5D070010330CDF8008014231922912180B2E8
:20606000FDF74DFA0136D3E70020FDF7AFFB99F80030012BF8D03B78012BF5D06001033049
:20608000009514231922912180B2FDF738FA0134C5E700BF3105002088040020F605002032
:2060A0001E05002048060020F0B5AE4B1B6885B0002B63D0AC49AD4812F0E6FC00224FF448
:2060C0007844CDE90124AA4B5A6800921B68A74A78210320FDF7DAF9A64AA74913780093EB
:2060E0005378A6489278A54D12F0AEFC0023A44A2846194612F8016B10F8014B0133A6427B
:206100001CBF02F8014C0121082BF3D1002932D09C4E9D4C3378012B00F095812378012BA2
:2061200000F09181994B9A491A7890488F4E994F02EB420302EB8302974B1A4412F084FC01
:2061400000248A48FAF744F8013415F8012B3946304412F079FC082CF3D14CF21862002173
:20616000CDE90121824B5A6800921B687F4AB4210320FDF78BF9012005B0F0BD874D2B7870
:20618000002B5CD0814A632B12784DD0774C844902EB420201EB42022046824912F054FC34
:2061A0002B78012B254605D12046FAF711F87E49204481E7022B04D12046FAF709F87B49BE
:2061C000F6E70E2B04D844F64812DA40D70710D41A1FD2B2082A11D840F22B1121FA02F208
:2061E000D60740F134816148F9F7F2FF7049284462E72046F9F7ECFF6E49D9E70D2B04D11F
:206200005A48F9F7E5FF6C49F1E70F2B04D15748F9F7DEFF6949EAE7102B7FF44FAF534836
:20622000F9F7D6FF6649E2E702EB420302EB8302644B65494D481A4412F006FC3EE7634A57
:206240001278022A40F0EE80614F3B68002B00F0D380604A1488604A127812B9002C00F0C8
:20626000CB80072B484E474D33D12B78012B29D03378012B26D0454B58491A783B4802EBAB
:20628000820302EB4302564B00251A4412F0DCFB1223DC22009578215B20FDF730F91F2210
:2062A000334B029501925A68009203201B682F4A7821FDF7EBF8E0B20A2828BF0A20FFF788
:2062C0007DFE09E70020FDF781FACEE70020FDF77DFA2B78012BF9D03378012BF6D000232C
:2062E000009340F23712142378210320FDF707F92B78012B1ED03378012B1BD03B68234A1A
:20630000032B12781AD1374B37491B6801EBC2023649164812F098FB00251223DC22009546
:2063200078215B20FDF7EBF84FF6E072CDE901520F4BB8E70020FDF749FAD9E7052B06D1BB
:20634000284B2B491B6802EBC2020A44E0E7294B2249064802EB820203EB820212F074FB8C
:20636000DAE700BFF80500208DC10108C32E00205C000020006500200FC301084D000020CF
:206380006006002031050020880400202705002040C20108056B04082AD301080506002071
:2063A0008ED20108A7C10108AEC10108BCC10108D9C10108CDC10108F0C10108FBC101084C
:2063C00007C20108A0D2010813C20108F605002048060020340600201E05002021C2010880
:2063E00097CF01082C06002064CF01082CC201087CCF0108C7D20108194A1A4B12784CF223
:2064000018611F20CDE901105968009116491B6802EB820201EB820203207821FDF736F80A
:206420000A204CE70E4A0F49127802EB420002EB80024FF62050CDE901304B6800930B68D2
:206440000A490A44E8E70020FDF7C0F962E60A2B7FF434AE0648F9F7BBFE0649C7E600BF7B
:20646000270500205C000020C7D2010803D30108C32E0020E5C101082DE9F0438FB007463E
:206480000FF052FFB74B7C7A00221A60BB78012B064602D0BB79012B08D12E2C00F0928006
:2064A0002D2C00F09680252C00F09580292C40F08A80AD4B1A7898460AB9AC4B1A80AC4BE5
:2064C0001B78012B40F08980A4F15903DBB2092B01D83B3CE4B2A74B1B781A4318D1462CEF
:2064E00016D10320019204F03DF9A34BA3480221196012F0F5F90A2012F00AFA019AA048BD
:206500004FF4807108F09EFC07F084FF9D4B18609D4A1368092B154640F04B82A4F11E0238
:20652000D1B2072900F28F8098480023036098480360984801240460974802609748017004
:206540009749392000FB0212964912F8010B01F8010B0133392BF8D19349944A0023013387
:2065600051F8040B42F8040B082BF8D1904A914B0021107818705078587090789870D078AF
:20658000D870107918715079587190799871D079D8710131107A18720829507A587202F16D
:2065A0000D0203F10D03E4D1834B09221A7007232B6004F04FFA814B01221A70804B032235
:2065C0001A7056E357247F4A002313607E4A13706FE75624F7E75524F5E7542C3FF47BAFF3
:2065E000552C3FF478AF562C3FF475AF572C3FF472AF582C1DD0592C3FF46DAF5A2C1AD05B
:206600005B2C3FF468AF5C2C17D05D2C3FF463AF5E2C14D05F2C3FF45EAF602C11D0612C39
:206620003FF459AF622C3FF456AF632C08BF4C2451E728244FE751244DE750244BE74F2417
:2066400049E7522447E7172C09D15B4B09221A7007232B6004F0FEF9584B0422ADE7062CBF
:2066600001D00A2C40D1504A00231046194650F8044B0133082B2144F9D111BB534B4FF4B6
:2066800078421A804CF208425A804FF620529A804FF6E072DA804FF4FC621A8140F2FF72A3
:2066A0005A8140F27F429A814FF61F02DA81424B09221A7007232B6004F0CCF93F4B0022D4
:2066C0007BE74249424C002352F8040B012808BF34F8130003F1010318BF42F20410082B4A
:2066E00021F8020BF0D1E2E7162C09D1324B09221A7007232B6004F0ADF9304B05225CE768
:20670000082C09D12C4B09221A7007232B6004F0A1F92A4B082250E7132C0DD1264B09226D
:206720001A7007232B6004F095F9244B0A221A7004F0AAF9274BC2E7192C51D11E4A13706F
:2067400007232B6004F086F92348244A08230021013B00F8011B02F8011BF9D1174B0B222D
:206760002BE700BF940400201E0500203406002081010020760500208405002044C20108FE
:20678000000C024078050020C4000020180400201C04002008000020D0030020D803002098
:2067A0002C5F0020C0630020B4040020D4040020BC620020FC610020C9000020C80000208F
:2067C00033050020F8050020050600200E000020C4C80108510500203E0500203204002027
:2067E0000F2C0DD1AC4B09221A7007232B6004F031F9AA4B1A78AA4B1A70AA4B0D22DCE615
:20680000292C0FD1A44A09231370A64A2B601370A54AA64B11781B7811B9033B1370CDE66E
:20682000A14B4CE7522C10D1A14A13780BB1013BF4E79D4A1378002BF9D19D4B07221A708F
:206840009A4B1B78033B984AE8E74F2CF5D0502C03D1974A00231370F5E7512C0FD1944AA3
:206860001378062B01D80133D8E7904A8E4912780B78033A9342ECDA01330B709EE64B2C50
:20688000CED04E2CDCD0282C02D0582C7FF496AE854B1C78864B1B781C44E4B2072C41D8C9
:2068A0007D4B09221A7007232B6004F0D3F87D4B804901221A7000230B607F490B607F4920
:2068C0000A607F4A14607F4A1470C4EBC40204EBC2047D4A14447D4A14F8011B02F8011B76
:2068E0000133392BF8D17A4A7A4B0021107818705078587090789870D078D870107918713B
:206900005079587190799871D079D8710131107A18720829507A587202F10D0203F10D0330
