:020000040800F2
:200000000000022059EB000859DF000871DF00088DDF0008A5DF0008BDDF00080000000036
:20002000000000000000000000000000D5DF0008D7DF000800000000D9DF0008F1DF0008AE
:20004000A9EB0008A9EB0008A9EB0008A9EB0008A9EB0008A9EB0008A1E00008A9EB0008D3
:20006000A9EB0008A9EB0008A9EB0008A9EB0008A9EB0008A9EB0008A9EB0008A9EB0008A0
:20008000A9EB0008A9EB0008C5E00008A9EB0008A9EB0008A9EB0008A9EB0008A7E000087C
:2000A000A9EB0008A9EB0008A9EB0008A9EB0008A9EB0008A9EB0008A9EB0008A9EB000860
:2000C000A9EB0008A9EB0008A9EB0008A9EB0008A9EB0008D1E00008A9EB0008A9EB000823
:2000E000BBE00008A9EB0008A9EB0008A9EB0008A9EB0008A9EB0008A9EB0008A9EB000819
:20010000A9EB0008A9EB0008A9EB0008A9EB0008A9EB0008A9EB0008A9EB0008DDE00008D6
:20012000A9EB0008A9EB0008A9EB0008A9EB0008A9EB0008A9EB0008A9EB0008A9EB0008DF
:20014000A9EB0008A9EB0008A9EB000835E10008A9EB0008A9EB0008A9EB0008A9EB00083D
:20016000A9EB0008A9EB0008A9EB0008A9EB0008A9EB000841E10008A9EB000800000000AD
:20018000A9EB0008A9EB0008FFFFFFFFFFFFFFFF10B5054C237833B9044B13B10448AFF391
:2001A00000800123237010BD600300200000000074BC010808B5034B1BB103490348AFF36F
:2001C000008008BD000000006403002074BC0108034613F8012B002AFBD1181A0138704782
:2001E00001F0FF01102A2BDB10F0070F08D010F8013B013A8B422DD010F0070F42B3F6D1C5
:20020000F0B441EA012141EA014122F007047FF000070023F0E80256083C85EA010586EA71
:20022000010685FA47F5A3FA87F586FA47F6A5FA87F68EB9EED1F0BC01F0FF0102F007026C
:2002400032B110F8013B013A83EA010313B1F8D10020704701387047002D06BF35460338CF
:20026000073815F0010F07D1013015F4807F02BF013015F4C03F0130F0BC0138704700BF93
:2002800081F0004102E000BF83F0004330B54FEA41044FEA430594EA050F08BF90EA020F8D
:2002A0001FBF54EA000C55EA020C7FEA645C7FEA655C00F0E2804FEA5454D4EB5555B8BF63
:2002C0006D420CDD2C4480EA020281EA030382EA000083EA010180EA020281EA0303362D1A
:2002E00088BF30BD11F0004F4FEA01314FF4801C4CEA113102D0404261EB410113F0004F84
:200300004FEA03334CEA133302D0524263EB430394EA050F00F0A780A4F10104D5F1200EC1
:200320000DDB02FA0EFC22FA05F2801841F1000103FA0EF2801843FA05F359410EE0A5F109
:2003400020050EF1200E012A03FA0EFC28BF4CF0020C43FA05F3C01851EBE37101F0004515
:2003600007D54FF0000EDCF1000C7EEB00006EEB0101B1F5801F1BD3B1F5001F0CD349088F
:200380005FEA30004FEA3C0C04F101044FEA445212F5800F80F09A80BCF1004F08BF5FEA6E
:2003A000500C50F1000041EB045141EA050130BD5FEA4C0C404141EB0101013C28BFB1F5E7
:2003C000801FE9D291F0000F04BF01460020B1FA81F308BF2033A3F10B03B3F120020CDA82
:2003E0000C3208DD02F1140CC2F10C0201FA0CF021FA02F10CE002F11402D8BFC2F1200C96
:2004000001FA02F120FA0CFCDCBF41EA0C019040E41AA2BF01EB0451294330BD6FEA0404CF
:200420001F3C1CDA0C340EDC04F11404C4F1200220FA04F001FA02F340EA030021FA04F320
:2004400045EA030130BDC4F10C04C4F1200220FA02F001FA04F340EA0300294630BD21FA3E
:2004600004F0294630BD94F0000F83F4801306BF81F480110134013D4EE77FEA645C18BF1C
:200480007FEA655C29D094EA050F08BF90EA020F05D054EA000C04BF1946104630BD91EA56
:2004A000030F1EBF0021002030BD5FEA545C05D14000494128BF41F0004130BD14F58004B3
:2004C0003CBF01F5801130BD01F0004545F0FE4141F470014FF0000030BD7FEA645C1ABF2F
:2004E000194610467FEA655C1CBF0B46024650EA013406BF52EA033591EA030F41F400211E
:2005000030BD00BF90F0000F04BF0021704730B54FF4806404F132044FF000054FF000014A
:2005200050E700BF90F0000F04BF0021704730B54FF4806404F1320410F0004548BF404296
:200540004FF000013EE700BF42004FEAE2014FEA31014FEA02701FBF12F07F4393F07F4F10
:2005600081F06051704732F07F4208BF704793F07F4F04BF41F40021704730B54FF4607424
:2005800001F0004521F000411CE700BF50EA010208BF704730B54FF000050AE050EA010206
:2005A00008BF704730B511F0004502D5404261EB41014FF4806404F132045FEA915C3FF4F0
:2005C000D8AE4FF003025FEADC0C18BF03325FEADC0C18BF033202EBDC02C2F1200300FA3C
:2005E00003FC20FA02F001FA03FE40EA0E0021FA02F11444BDE600BF70B54FF0FF0C4CF445
:20060000E06C1CEA11541DBF1CEA135594EA0C0F95EA0C0F00F0DEF82C4481EA030621EAF1
:200620004C5123EA4C5350EA013518BF52EA033541F4801143F4801338D0A0FB02CE4FF074
:200640000005E1FB02E506F00042E0FB03E54FF00006E1FB03569CF0000F18BF4EF0010E9E
:20066000A4F1FF04B6F5007F64F5407404D25FEA4E0E6D4146EB060642EAC62141EA555161
:200680004FEAC52040EA5E504FEACE2EB4F1FD0C88BFBCF5E06F1ED8BEF1004F08BF5FEA36
:2006A000500E50F1000041EB045170BD06F0004646EA010140EA020081EA0301B4EB5C04E5
:2006C000C2BFD4EB0C0541EA045170BD41F480114FF0000E013C00F3AB8014F1360FDEBFC7
:2006E000002001F0004170BDC4F10004203C35DA0C341BDC04F11404C4F1200500FA05F347
:2007000020FA04F001FA05F240EA020001F0004221F0004110EBD37021FA04F642EB0601A1
:200720005EEA430E08BF20EAD37070BDC4F10C04C4F1200500FA04F320FA05F001FA04F24F
:2007400040EA020001F0004110EBD37041F100015EEA430E08BF20EAD37070BDC4F1200516
:2007600000FA05F24EEA020E20FA04F301FA05F243EA020321FA04F001F0004121FA04F2B9
:2007800020EA020000EBD3705EEA430E08BF20EAD37070BD94F0000F0FD101F0004640005B
:2007A00041EB010111F4801F08BF013CF7D041EA060195F0000F18BF704703F000465200BD
:2007C00043EB030313F4801F08BF013DF7D043EA0603704794EA0C0F0CEA135518BF95EA39
:2007E0000C0F0CD050EA410618BF52EA4306D1D181EA030101F000414FF0000070BD50EA3C
:20080000410606BF1046194652EA430619D094EA0C0F02D150EA013613D195EA0C0F05D178
:2008200052EA03361CBF104619460AD181EA030101F0004141F0FE4141F470014FF00000E2
:2008400070BD41F0FE4141F4780170BD70B54FF0FF0C4CF4E06C1CEA11541DBF1CEA135570
:2008600094EA0C0F95EA0C0F00F0A7F8A4EB050481EA030E52EA03354FEA013100F08880CB
:200880004FEA03334FF0805545EA131343EA12634FEA022245EA111545EA10654FEA002629
:2008A0000EF000419D4208BF964244F1FD0404F5407402D25B084FEA3202B61A65EB0305CC
:2008C0005B084FEA32024FF480104FF4002CB6EB020E75EB030E22BFB61A754640EA0C0042
:2008E0005B084FEA3202B6EB020E75EB030E22BFB61A754640EA5C005B084FEA3202B6EBA3
:20090000020E75EB030E22BFB61A754640EA9C005B084FEA3202B6EB020E75EB030E22BF51
:20092000B61A754640EADC0055EA060E18D04FEA051545EA16754FEA06164FEAC30343EA5D
:2009400052734FEAC2025FEA1C1CC0D111F4801F0BD141EA00014FF000004FF0004CB6E7B0
:2009600011F4801F04BF01430020B4F1FD0C88BFBCF5E06F3FF6AFAEB5EB030C04BFB6EB12
:20098000020C5FEA500C50F1000041EB045170BD0EF0004E4EEA113114EB5C04C2BFD4EB50
:2009A0000C0541EA045170BD41F480114FF0000E013C90E645EA060E8DE60CEA135594EA21
:2009C0000C0F08BF95EA0C0F3FF43BAF94EA0C0F0AD150EA01347FF434AF95EA0C0F7FF438
:2009E00025AF104619462CE795EA0C0F06D152EA03353FF4FDAE1046194622E750EA410659
:200A000018BF52EA43067FF4C5AE50EA41047FF40DAF52EA43057FF4EBAE12E74FF0FF3CE3
:200A200006E000BF4FF0010C02E000BF4FF0010C4DF804CD4FEA410C7FEA6C5C4FEA430C83
:200A400018BF7FEA6C5C1BD001B050EA410C0CBF52EA430C91EA030F02BF90EA020F00201C
:200A6000704710F1000F91EA030F58BF994208BF90422CBFD8176FEAE37040F00100704729
:200A80004FEA410C7FEA6C5C02D150EA013C07D14FEA430C7FEA6C5CD6D152EA033CD3D0FF
:200AA0005DF8040B704700BF8446104662468C461946634600E000BF01B5FFF7B7FF002891
:200AC00048BF10F1000F01BD4DF808EDFFF7F4FF0CBF012000205DF808FB00BF4DF808EDC1
:200AE000FFF7EAFF34BF012000205DF808FB00BF4DF808EDFFF7E0FF94BF012000205DF8D4
:200B000008FB00BF4DF808EDFFF7CEFF94BF012000205DF808FB00BF4DF808EDFFF7C4FF78
:200B200034BF012000205DF808FB00BF4FEA410C7FEA6C5C02D150EA013C0AD14FEA430C06
:200B40007FEA6C5C02D152EA033C02D14FF0000070474FF0010070474FEA410212F50012C1
:200B600015D211D56FF47873B3EB625212D94FEAC12343F0004343EA505311F0004F23FA4D
:200B800002F018BF404270474FF00000704750EA013005D111F0004008BF6FF000407047BE
:200BA0004FF00000704700BF4A0011D212F5001211D20DD56FF47873B3EB62520ED44FEABA
:200BC000C12343F0004343EA505323FA02F070474FF00000704750EA013002D14FF0FF3083
:200BE00070474FF0000070474FEA4102B2F1E04324BFB3F5001CDCF1FE5C0DD901F0004C15
:200C00004FEAC0024CEA5070B2F1004F40EB830008BF20F00100704711F0804F21D113F1EE
:200C20003872BCBF01F00040704741F480114FEA5252C2F11802C2F1200C10FA0CF320FA35
:200C400002F018BF40F001004FEAC1234FEAD32303FA0CFC40EA0C0023FA02F34FEA430382
:200C6000CCE77FEA625307D150EA01331EBF4FF0FE4040F44000704701F0004040F0FE4039
:200C800040F40000704700BF53B94AB9002908BF00281CBF4FF0FF314FF0FF3000F06EB9B4
:200CA000ADF1080C6DE904CE00F006F8DDF804E0DDE9022304B070472DE9F047089D044621
:200CC0008C46002B40F083808A42174647D9B2FA82F242B1C2F1200024FA00F091409740FF
:200CE00040EA010C94404FEA1748230CBCFBF8F61FFA87FE08FB16C143EA014306FB0EF194
:200D0000994209D9FB1806F1FF3080F01981994240F21681023E3B445B1AA4B2B3FBF8F00F
:200D200008FB103344EA034400FB0EFEA64509D93C1900F1FF3380F00581A64540F2028116
:200D400002383C4440EA0640A4EB0E0400261DB1D4400023C5E900433146BDE8F08702B95E
:200D6000FFDEB2FA82F2002A50D1CB1B4FEA174E1FFA87F80126B3FBFEFC210C0EFB1C33BB
:200D800041EA034108FB0CF38B4207D979180CF1FF3002D28B4200F2E9808446C91AA3B27A
:200DA000B1FBFEF00EFB101143EA014408FB00F8A04507D93C1900F1FF3302D2A04500F21A
:200DC000D9801846A4EB080440EA0C40BFE78B4209D9002D00F0B1800026C5E9000130465D
:200DE0003146BDE8F087B3FA83F6002E4AD18B4202D3824200F2B880841A61EB0301012052
:200E00008C46002DA8D0C5E9004CA5E7C2F1200320FA03F6974001FA02F04FEA174ED94071
:200E20003043030CB1FBFEF61FFA87F80EFB161143EA014306FB08F1994204FA02F409D9AC
:200E4000FB1806F1FF3C80F08D80994240F28A80023E3B445B1A81B2B3FBFEF00EFB10336A
:200E600041EA034100FB08F38B4207D9791800F1FF3C73D28B4271D902383944CB1A40EA81
:200E8000064678E7C6F1200C03FA06F422FA0CF31C4320FA0CF701FA06F34FEA144E21FA8C
:200EA0000CF11F433B0CB1FBFEF91FFA84F80EFB191143EA014109FB08FA8A4502FA06F2E9
:200EC00000FA06F308D9611809F1FF3048D28A4546D9A9F102092144A1EB0A01BFB2B1FBD6
:200EE000FEF00EFB101147EA014700FB08F8B84507D9E71900F1FF312ED2B8452CD902382C
:200F0000274440EA0940A7EB0807A0FB02894F45C64649461AD317D05DB1B3EB0E0267EB1B
:200F2000010707FA0CFCF2404CEA0202F740C5E9002700263146BDE8F0872E4628460BE79B
:200F40000646E9E61846FDE64345E5D2B8EB020E69EB04010138DFE70846D2E760468DE7CA
:200F60008146B9E7664675E730464AE7ACF1020C394413E702383C4424E700BF704700BF3F
:200F800010B51F498EB044F64252ADF800200A680988ADF802100023110C120ECDE901334F
:200FA0008DF804108DF8052028214FF4A072CDE90412144AADF80C30F024CDE906424FF4F0
:200FC000963C40F6C462CDE909C20B924FF48072CDE90C2308936A46431E00F10D0112F8F6
:200FE000014B03F8014F8B42F9D104AA353012F8011B03F8011F8342F9D10EB010BD00BF96
:20100000000000200100180037B5094C019065680FF0C0FE019B074AB0FBF2F043430193A7
:201020006368019A5B1B9342FAD303B030BD00BF001000E040420F0030B587B004460D4699
:201040001422002101A817F02DFB0122294620460EF00EFB002301A92046CDE902330195AE
:201060000EF08CF907B030BD30B587B004460D461422002101A817F015FB29462046012281
:201080000EF0F6FA11220023CDE9022301A903232046019504930EF071F907B030BD0000C2
:2010A0002DE9F84F254B264F93F8008000263546F3B298450BD8234B187808F0A7FF1DB173
:2010C000012009F031FC01252846BDE8F88F07EB43124FEA431AD17D69B301249C40E0B22F
:2010E00008F094FF4FF08C0B002002F015FABBF1010BF9D107EB0A0957F80A00B9F80410C9
:20110000FFF79AFFB9F8041057F80A000EF0AAFA0C4A63B2147828B12343137089F81AB07C
:201120000136C5E724EA0303137001231D4489F81A30EDB2F4E79176F2E700BFBA130208F5
:20114000206500206C04002008B50548012280210EF08EFA08F082FFBDE80840FFF7A0BF4B
:20116000001002407FB50C4604A901E90C00029EBDF80C1001910546002230460EF078FA9E
:201180002846FFF741FF3046019901220EF070FA204604B0BDE87040FFF736BF82B06B46D3
:2011A00083E806000CCB20B905213C2002B0FFF7D9BF3C210520F9E773B56D4685E806009C
:2011C0000646002446FA04F095E8060000F001000134FFF7E3FF082CF4D102B070BD73B5EA
:2011E0006B4683E80300BDF804600CCB05460A210120FFF7B7FF31462846FFF71DFF31462F
:2012000028460EF02FFA04462820FFF7FDFE28463146FFF729FF201E18BF012002B070BD9E
:2012200073B56E4686E8030000252C4696E80300FFF7D5FFA84001350444082DE4B2F5D188
:20124000204602B070BD73B56B4683E80300BDF804600CCB054646214FF4FA70FFF782FF3C
:2012600031462846FFF7E8FE314628460EF0FAF9314604462846FFF7F7FE4FF4C870FFF74C
:20128000C3FEB4FA84F0400902B070BD84B008B50DF1080C8CE80F00DCE90001FFF7D3FF2F
:2012A000BDE80840013818BF012004B0704784B007B50DF1100C8CE80F00DCE90001FFF75C
:2012C000C2FF01281BD104AB93E80600CC20FFF773FF04AB93E806004420FFF76DFF04AA10
:2012E00092E803006B4683E80300FFF799FF003818BF012003B05DF804EB04B07047012011
:20130000F8E7000008B54378007800EB0320DB0980B20CD0404280B2FFF704F9064B0022E4
:20132000FFF76AF9FFF760FC00EE100A08BDFFF7F9F8024B0022F3E70000B0BF0000B03FA7
:2013400073B56C4684E80600054694E80300FFF77AFFE0B194E80600CC20FFF72DFF94E86B
:201360000600BE20FFF728FF6E1E083594E80300FFF756FF06F8010FAE42F7D194E8030094
:20138000FFF761FFB0FA80F0400902B070BD0120FBE737B56C4684E80600054694E80300D8
:2013A000FFF751FF10B9012003B030BD94E80600CC20FFF701FF94E806004E20FFF7FCFE19
:2013C00094E80600A878FFF7F7FE94E80600E878FFF7F2FE94E806002879FFF7EDFE94E838
:2013E0000300FFF730FF0028DDD094E80600CC20FFF7E2FE94E806004820FFF7DDFE1420BD
:2014000002F08AF80020CFE710B586B06B4683E80600002204468DF8102003A893E8060018
:20142000FFF78EFFA0B99DF810301F2B03D10923237006B010BD3F2B01D10A23F8E75F2BC9
:2014400001D10B23F4E77F2B01D10C23F0E720700120EEE730B587B06D4685E8060004461D
:20146000002395E806000DF10B008DF80B30FFF7CBFF40B11A4817F031FE0A2017F046FE3F
:20148000012007B030BD9DF80B30A342F9D0092C11D00A2C11D00B2C11D00C2C0CBF7F231F
:2014A0001F2395E8060003A88DF81030FFF771FF38B10C48DFE71F23F3E73F23F1E75F23B6
:2014C000EFE795E806000DF10B00FFF79DFF0028D0D19DF80B30181B18BF0120D1E700BFDD
:2014E000C9BC0108E5BC010830B593B0C3790493837903934379029303790193C3780093F8
:201500000DAD837842780C462846134917F09AFE9DF838300D9A8DF824300AA900230892B4
:201520008DF8253005220B46A85C01F8010B01320C2AF9D10022BDF840108DF82F208DF89D
:201540001F2007AAADF81C100092044908AA204617F078FE13B030BD03BD010820BD0108F7
:2015600030B50246014400208A4200D130BD12F8015B082480EA050313F0010F4FEA5000AF
:201580001CBF80F08C03D8B2631E13F0FF044FEA5505EFD1E8E7000070B5304A86B05168B0
:2015A00004461068127A03AB03C394E803001A7001AB83E80300FFF733FE08B9012538E020
:2015C00094E80300FFF73FFE0028F7D094E80600CC20FFF7F1FD94E80600BE20FFF7ECFDD9
:2015E00003AE092594E80300FFF71AFE013D15F0FF0506F8010BF5D1082103A8FFF7B0FFEF
:201600009DF81430834222D19DF80D309DF80C0000EB032080B2DE09A0820DD0404280B2EC
:20162000FEF780FF0E4B0022FEF7E6FFFFF7DCFA2061284606B070BDFEF774FF094B002265
:20164000FEF7DAFFFFF7D0FA35462061F1E7064817F044FD0A2017F059FDAFE790BC010820
:201660000000B0BF0000B03FBBBD01082DE9F0418AB006AD85E80600264A064651681068F7
:2016800008AB03C395E80300FFF7DDFD00283ED095E806003320FFF78FFD08AFB846082412
:2016A00095E80300FFF7BCFD013C14F0FF0408F8010BF5D1072108A8FFF752FF9DF82730DA
:2016C00083420BD1731EF01D17F8012B03F8012F8342F9D120460AB0BDE8F08104939DF874
:2016E000263003939DF8253002939DF8243001939DF8233000939DF821209DF822309DF835
:201700002010054817F0EAFC0A2017F0FFFC0124E0E700BF99BC0108DDBD01082DE9F04F32
:201720002DED028BBA4B1B788FB0012B04900C4602D1B8480FF0ECFE049B23F00207012F72
:2017400073D125464FF000090DF1180A4FF0000B4FF0020805F1100696E80F008DE80F00C2
:2017600095E80F00FFF792FDAE46BEE80F000DF1180CACE80F0096E80F008CE80F009AE858
:201780000300FFF760FD012812D1A87596E80F008DE80F0095E80F00FFF789FD8046BBF13F
:2017A000090F18D00BF1010BB8F1000FD2D10BE03946994817F092FC0A2017F0A7FC0023EF
:2017C000AB75EB7D002BEAD1BBF1010F1CDD93485A46394613E0EE7D012E40F00681394629
:2017E0008F482E7617F07AFC0A2017F08FFCB1468C49504617F046FD8B485246394617F098
:201800006DFC0A2017F082FC0137092F05F120059CD1049B032B5CD1002528460FB0BDECC3
:20182000028BBDE8F08F8149E3E7049B002B4ED109F058F8DDF810909FED7D8A002604F10E
:20184000070B35460223002705930DF11808A37DEBB1A646BEE80F000DF1180CACE80F00D7
:201860009EE80F008CE80F0098E80300FFF7EBFC0128824645D0002323726372A372E372F3
:2018800023736373A373E373E37D002B51D1DFF8C0A1DFED688A0A274FF00208A37D002B08
:2018A0006BD1E37D012B00D123760136082E04F120040BF1200BC5D1049B73B9002DABD040
:2018C0005D4817F00BFC0A2017F020FCA5E74FF00009049B022BAFD000254D4B1B78012B6D
:2018E00002D14C480FF004FE002D95D0B9F1000F92D0524817F0F2FB0A2017F007FC4D467E
:201900008BE794E806004046FFF7B0FEC0B139464B4817F0E3FB0A2017F0F8FB002205985E
:20192000A28284ED048A84F818A084F81DA055460590092F0FD0059B0137002B87D1A6E7E8
:201940006077424604F10F0312F8011B03F801195B45F9D1ECE7E77D012F98D1711C39489E
:2019600017F0BCFB0A2017F0D1FB0023A38284ED048A27766777B94689E72046FFF70CFE15
:20198000A37D002818BF0125012B1AD19AF80030D4ED047A012B09D0B2EE027A67EE877A73
:2019A000F1EE046A87EEA67A77EE287AC4ED047A4FF00008013F0AD0B8F1000F7FF46EAF66
:2019C00073E7E37D84ED048A002BF3D16DE7E77D012F7FF46AAF711C1B4817F07FFB0A2050
:2019E00017F094FBB94627765FE7B8F1000F3FF4EEAEB8F1030F3FF4FBAEB8F1010F3FF465
:201A000012AFB8F1020F7FF4F7AE1049F1E600BF3D0500206067002027BD010884BE0108C3
:201A20001BBE010841BE01084EBE0108F10D02080000000000000042F8BE010809BF0108CD
:201A4000BCBE0108D3BE0108E3BE010849BE01082C01002008B50B480B4A0C4BC0E90023DA
:201A600000234FF48042C0E90233C0E90423C0E9063303620EF02AFB18B1BDE8084009F077
:201A800093BC08BD9461002000540040A086010070B50E4C0E4E0546012086B020703078AD
:201AA000012808D00A98009028460EF0D1FB0023237006B070BD0020CDE90423039101F0A0
:201AC0002BFDDDE904230399E9E700BF8D050020A004002070B50E4C0E4E0546012086B0D3
:201AE00020703078012808D00A98009028460EF087FC0023237006B070BD0020CDE90423F6
:201B0000039101F009FDDDE904230399E9E700BF8D050020A0040020030903EB830300F03C
:201B20000F0000EB4300C0B270470A23B0FBF3F3C3EB4312C3EB820200EB420040EA0310E2
:201B4000C0B2704710B5052386B0044602223E48D0210EF0C5FD50B13C4817F0BFFA0A2025
:201B600017F0D4FAFFF776FF012006B010BD8DF810002078FFF7D9FF8DF811006078FFF722
:201B8000D4FF8DF81200A078FFF7CFFF8DF81300E078FFF7CAFF8DF814002079FFF7C5FF64
:201BA0008DF815006079FFF7C0FF8DF81600A079FFF7BBFF64238DF817000093224808234E
:201BC00004AAD021FFF764FF08B12148C5E702A800F042F808B11F48BFE723789DF808006D
:201BE0009DF809206178834208BF9142A2789DF80A000CBF01230023824214BF002303F077
:201C00000103A2799DF80E00824214BF002303F0010362799DF80D00824214BF002303F027
:201C2000010322799DF80C00824214BF002303F00103E2789DF80B00824214BF002003F00F
:201C4000010080F0010090E7946100201FBF01084CBF010867BF01082DE9F043052389B0B2
:201C6000054602225A48D0210EF03AFDB0B1FFF7F1FE642001F050FC554805230222D0214C
:201C80000EF02EFD50B1534817F028FA0A2017F03DFA0124204609B0BDE8F0836426DFF831
:201CA00030813746009701230022D0214046FFF7EFFE40B1484817F011FA0A2017F026FADB
:201CC000FFF7C8FEE5E702AA00970723D0214046FFF700FF024608B14048ECE7009701238C
:201CE000D0214046FFF7D4FE08B13D48E3E70097072304AAD0214046FFF7ECFE044608B1D4
:201D00003848D8E702AA04AB012112F801EB13F801CB0130E64518BF00210728F5D1013EB2
:201D200001D00029BED09DF80800FFF7F5FE814628709DF80900FFF7EFFE014668709DF801
:201D40000A00FFF7E9FE0246A8709DF80B00FFF7E3FE8046E8709DF80C00FFF7DDFE0746E8
:201D600028719DF80D00FFF7D7FE687106469DF80E00FFF7D1FE3B2998BF172A8CBF012167
:201D80000021B9F13B0F94BF0B4641F0010308F1FF32062A94BF1A4643F00102013F1E2F85
:201DA00088BF42F00102A8711AB9013E0B2E7FF671AF4FF08073069340F20113ADF81C30AC
:201DC00006A800238DF81E30FFF7BCFE61E700BF9461002082BF01084CBF0108B1BF0108BC
:201DE000CFBF0108EABF01081FB564238DF80C008DF80D1000930948022303AAD021FFF76F
:201E000047FE40B1064817F069F90A2017F07EF9FFF720FE012005B05DF804FB94610020DA
:201E200008C0010830B585B064250C468DF8080000951048012302AAD021FFF729FE50B183
:201E40000D4817F04BF90A2017F060F9FFF702FE012005B030BD07480095012303AAD021F9
:201E6000FFF738FE08B10548EBE79DF80C302370EFE700BF9461002008C001082CC001088A
:201E80002DE9F3410646084617461D46FFF74DFE04463846FFF749FE80462846FFF745FEEB
:201EA00007469DF82000FFF740FEF20744BF64F07F04E4B2B30748BF68F07F08054648BF91
:201EC0005FFA88F8700744BF67F07F07FFB2310744BF65F07F05EDB2F20644BF45F04005F9
:201EE000EDB2330623D421460720FFF77DFF48B1314817F0F3F80A2017F008F9012002B0AA
:201F0000BDE8F0810DF107010720FFF78BFF08B12A48EEE79DF80700041B18BF0124082619
:201F200041463046FFF760FF20B12548E1E700240B26F5E70DF107013046FFF773FF08B17B
:201F40002048D6E79DF80730434518BF601C06F1010818BFC4B239464046FFF745FF08B170
:201F60001948C6E70DF107014046FFF75BFF08B11648BEE79DF80730BB4218BF601C06F1A8
:201F8000020618BFC4B229463046FFF72DFF08B10F48AEE70DF107013046FFF743FF08B1D3
:201FA0000C48A6E79DF80730AB4201D00A48A0E7201E18BF0120A2E753C0010877C00108C2
:201FC0009AC00108BEC00108E1C0010805C1010828C101084CC101086FC1010837B5044627
:201FE0000D460E206946FFF71DFF40B1164817F075F80A2017F08AF8012003B030BD012344
:20200000013C03FA04F49DF80030012D06BF43EA0401C9B223EA04010E208DF80010FFF75E
:20202000E3FE08B10948E2E701A90E20FFF7FAFE08B10748DBE79DF800209DF804309A4202
:20204000DBD00448D3E700BF94C10108BEC10108E5C101080BC2010837B504460D460F20ED
:202060006946FFF7DFFE40B1174817F037F80A2017F04CF8012003B030BD631E9DF80020EC
:20208000012404FA03F312EA03001AD022EA03010F208DF80010FFF7A7FE08B10B48E4E7F8
:2020A00001A90F20FFF7BEFE08B10948DDE79DF800209DF804309A4201D12C70DBE70548F0
:2020C000D3E72870D7E700BF33C2010850C201086EC201088BC2010813B50C460F2001A996
:2020E000FFF7A0FE40B1074816F0F8FF0A2017F00DF8012002B010BD9DF8043023F07F03DB
:202100002370F7E7AAC2010813B5044669460E20FFF788FE40B1154816F0E0FF0A2016F00B
:20212000F5FF012002B010BD9DF80010032C9DBF21F01C0141EAC400C1B241F004010E20E7
:202140008DF80010FFF750FE08B10948E4E701A90E20FFF767FE08B10648DDE79DF800201E
:202160009DF804309A42DDD00348D5E7CCC20108EEC2010811C3010833C3010870B586B07F
:202180000CF010F90446C8B93348344D324E16F0A5FF0A2016F0BAFF0CF004F9002850D11E
:2021A000304616F09BFF0A2016F0B0FF01344FF4FA70E4B201F0B0F9032CEDD9284C294D39
:2021C000002001F0A9F92378072B42D04FF4FA7001F0A2F94FF4FA7001F09EF94FF4FA7052
:2021E00001F09AF94FF4FA7001F096F901231E482B7016F073FF0A2016F088FF0CF032F8B4
:202200001A4A0123E15C02F8011B0133092BF9D1237A0493E3790393A3790293637901936A
:2022200023790093E378A2786178114816F056FF0A2016F06BFF2878431E5842584106B0E9
:2022400070BD284616F04AFF0A2016F05FFF0424ACE700232B70D1E757C3010869C301087D
:20226000A46700207C03002079C30108A06400208AC30108214A38B50005138800F57E2545
:20228000B3EB154F144616D2020CB3EB104F4FF0000038BF228001F03FF9002220881146CD
:2022A0000CF034FA10B920880CF038F9238801332380022021E0FCD1114B1988B1EB153FF7
:2022C0001C4616D200F57020B1EB103F4FEA10334FF0000038BF238001F01EF9002220881D
:2022E00011460CF073F90028E0D120880CF0D4F8DCE7DED100201080188038BD9403002070
:20230000960300201A4A38B50005138800F57E25B3EB154F144610D2020CB3EB104F4FF0F3
:20232000000038BF228001F0F7F820880CF052FB238801332380022019E0FCD10D4B1988D0
:20234000B1EB153F1C460ED200F57020030BB1EB103F4FF0000038BF238001F0DDF8208886
:202360000CF00CFBE4E7E6D100201080188038BDB0030020B203002030B51B4B00051A8801
:202380000D4600F57E21B2EB112FC1B01C4627D2B2EB102F4FEA10234FF0000038BF23808C
:2023A00001F0BAF84FF480730022684621880CF079FB00226B46104613F8011B0130A942EF
:2023C00018BF0132B0F5807FF6D122B100232380012041B030BD2388013323800220F8E76D
:2023E000FCD100201880F4E77E030020234A38B50005138800F57E25B3EB154F144619D203
:20240000020CB3EB104F4FF0000038BF228001F083F80022208811460CF078F920B1238863
:2024200001332380022004E0154A002323801380012038BDF6D1124B1988B1EB153F1D46D9
:2024400016D200F57020B1EB103F4FEA10334FF0000038BF2B8001F05FF800222888114656
:202460000CF0B4F80028DFD02B8801332B80D9E7D8D1002010801880DBE700BF980300205E
:202480009A0300202DE9F0470023C0B006030C461A4631464FEA005868460CF003FB04F13F
:2024A00039030021187820281A4603F1FF3303D11878202808BF5970A342F3D15D1EEA46D1
:2024C00002F137032F466A4600249F421FD1BCB36A462B46BB4223D100224FEA1838114632
:2024E00040460CF073F88146F8B100231A46314668460CF0EBF900231A46314668460CF053
:20250000D1FABD4220D1003C18BF012418E012F8011B17F8010F88421CBF0134E4B2D4E760
:2025200013F8011F02F8011BD4E740460BF0B4FF4A46494640460CF049F80028D5D1012496
:20254000204640B0BDE8F0871AF8013B15F8012F9A421CBF0134E4B2D3E710B5C0B04FF4CA
:20256000807300220C46010368460CF09BFA00236A46184612F8011BFF2914BFE154E054F6
:202580000133392BF6D1002040B010BD2DE9F041C4B00B788DF804304B788DF805308B7888
:2025A0008DF80630CB788DF807300B798DF808304B798DF809308B798DF80A30CB798DF812
:2025C0000B300B7A8DF80C3004054B7A8DF80D3004F57E248B7A8DF80E30270A00231A46D3
:2025E000394604A80CF05EFA01AD04AE002331462A46184612F801EB11F801CBE64518BFC7
:20260000013003F1010318BFC0B20B2BF2D100283BD004A901AB0022013213F8010B01F85E
:20262000010B0B2AF8D10022240B114620460BF0CDFF8046F0B100231A46394604A80CF0AA
:2026400045F900231A4604A839460CF02BFA0023184615F8011B16F8012B914218BF0130AE
:2026600003F1010318BFC0B20B2BF2D1003818BF01200AE020460BF00FFF42464146204622
:202680000BF0A4FF0028D6D1012044B0BDE8F08110B50C460105C0B001F57E2168464FF48F
:2026A00080730022090A0CF0FDF99DF8003023709DF8013063709DF80230A3709DF803306D
:2026C000E3709DF8043023719DF8053063719DF80630A3719DF80730E3719DF8083023724B
:2026E0009DF8093063729DF80A30A372002040B010BD000010B5304B0005196800F58042F9
:20270000120A8A42C0B01C4651D900F58050B1EB102F4FEA10234FF0000038BF236000F020
:20272000FBFE21684FF48073002268460CF0BAF96946002311F8012BFF2A0BD12168FE20AF
:202740000DF8030003EB01210CF080F80020206040B010BD12B3FE2A08D1FC220DF8032084
:2027600021681DF8030003EB0121EDE7FC2A01D1F822F3E7F82A01D1F022EFE7F02A01D120
:20278000E022EBE7E02A01D1C022E7E7C02A01D18022E3E7802AE3D10022DFE70133B3F58F
:2027A000807FC7D12368013323600220D0E7FCD100221A600120CBE7AC03002038B5040566
:2027C00004F58054240BA51C0022114628460BF0FDFE08B9280138BD01340022114620466C
:2027E0000BF0F4FE08B92001F5E70020F3E70000F0B5324A030505460E46106803F580413B
:20280000090A8142C1B0144652D903F58053B0EB132F4FEA13274FF0000038BF176000F034
:202820007BFE216800224FF4807368460CF03AF96A46002112F8013BFF2B0AD12368DB1BC4
:2028400001EB0323DB00002046F82530206041B0F0BD23B3FE2B1A4A09D10123137023684B
:20286000DB1B01EB0323117801EBC303EBE7FC2B01D10223F2E7F82B01D10323EEE7F02B41
:2028800001D10423EAE7E02B01D10523E6E7C02B01D10623E2E7802BE1D10723DEE701316F
:2028A000B1F5807FC6D12368013323600220CEE7FCD1002313600120C9E700BFA403002009
:2028C0009C03002030B5132387B0594313788DF8043053788DF8053093788DF80630D37871
:2028E0008DF8073013798DF8083053798DF8093093798DF80A30D3798DF80B30137A8DF860
:202900000C30537A8DF80D30937A8DF80E30D37A8DF80F30137B8DF81030537B8DF8113024
:20292000937B8DF81230D37B8DF81330137C8DF81430537C8DF81530937C8DF816301B4B7B
:2029400001EB005000F580421968133291421D4628D200F58044A1424FF0000038BF1C6040
:2029600000F0DAFD296806AA0B1B134413F8140C0BF06CFF0DF1030029680CF055F82B68D3
:2029800006AA1C1B14449DF8032014F8141C914217BF002301332B60012004BF2B600220E8
:2029A00007B030BD00201860FAE700BFA8030020132337B559432B4D01EB005000F5804346
:2029C00029681333994218D200F58044A1424FF0000038BF2C6000F09FFD29680DF10700DB
:2029E0000CF022F82B68204A9DF807101C1B013311552B60022003B030BD1C4B1120002141
:202A000013F8014BFF2C08BF03F8011C0138F7D1154B197811705978517099789170D978ED
:202A2000D170197911715979517199799171D979D171197A1172597A5172997A9172D97AF0
:202A4000D172197B1173597B5173997B9173D97BD173197C1174597C51749B7C9374286079
:202A6000C9E700BFA00300208003002082030020F0B5CDB003788DF8043043788DF8053011
:202A800083788DF80630C3788DF8073002AA031D00F1240113F8014B02F8014B8B42F9D173
:202AA0000AAA2A3013F8011B02F8011B8342F9D100231A4647F6F0710CA80BF0F3FF01ADCC
:202AC0000CAC002321462A46184612F8017B11F8016BB74218BF013003F1010318BFC0B2A9
:202AE0002C2BF2D100283FD00CA901AB0022013213F8010B01F8010B2C2AF8D1002211461B
:202B000040F2FF700BF062FD064600B300231A4647F6F0710CA80BF0D9FE00231A460CA8DD
:202B200047F6F0710BF0BEFF0023184615F8011B14F8012B914218BF013003F1010318BFB3
:202B4000C0B22C2BF2D1003818BF01200CE040F2FF700BF0A1FC3246314640F2FF700BF009
:202B600035FD0028D2D101204DB0F0BD10B5C0B04FF48073002247F6F071044668460BF06F
:202B800091FF6A462C23002112F8010BFF2808BF02F8011C013BF7D19DF8003023709DF879
:202BA000013063709DF80230A3709DF80330E37001AA231D04F1240112F8010B03F8010BFA
:202BC0008B42F9D109AA2A3412F8011B03F8011BA342F9D1002040B010BD00000248002218
:202BE00080210CF045BD00BF000C02400248012280210CF03DBD00BF000C024010B5084CFF
:202C00000022202120460CF033FD05200CF01EF820460122BDE8104020210CF029BD00BF28
:202C2000000C024007B500238DF8043001224FF0FF3301A903480EF035FB9DF8040003B0AB
:202C40005DF804FB7C62002007B500228DF80700402107480CF00CFD4FF0FF3301220DF171
:202C6000070104480EF08BF903B05DF804FB00BF000C02407C620020F8B5012205460C46FF
:202C80000B480C4F40210CF0F3FC04B9F8BDB4F5004F264628BF4FF4004629464FF0FF3314
:202CA000B2B238460EF06BF93544A41BEDE700BF000C02407C62002007B540BAADF804005A
:202CC000022101A8FFF7D8FF03B05DF804FBF7B507462A2016461C460D46FFF7B5FF042131
:202CE0000DEB01007FBA76BAADF80470ADF80660FFF7C2FF2B20FFF7A7FF04210DEB010092
:202D00006DBA64BAADF80450ADF80640FFF7B4FF2C20FFF799FF03B0F0BD0000F7B51C4699
:202D20008318B3F5A07F154601EB0403C4BFC0F5A075ADB2F02BC8BFC1F1F0040F4606464E
:202D4000C8BFA4B2FFF74AFF7B1E721E23442A4439469BB292B23046FFF7B9FFBDF8203020
:202D60000E480F4F5BBA01224021ADF804300CF07FFC8CB9FFF73AFF03B0F0BD4FF0FF3371
:202D8000022201A938460EF0FAF8013EB6B2002EF4D1013CA4B2ECE72E46F8E7000C024056
:202DA0007C62002030B5012285B04FF0FF3300218348844C0EF0E3F8FFF710FFFFF71EFFBA
:202DC000782000F0A9FB0120FFF73EFF782000F0A3FBCB20FFF738FF20682379009005215B
:202DE00068468DF80430FFF747FFCF20FFF72CFF2346032133F8052FADF800209B788DF8D7
:202E000002306846FFF738FFE820FFF71DFF34F8082FADF80020A3788DF8023003216846BF
:202E2000FFF72AFFEA20FFF70FFF002402216846ADF80040FFF720FFED20FFF705FF624BC2
:202E4000009304216846FFF717FFF720FFF7FCFE2023012168468DF80030FFF70DFFC0204F
:202E6000FFF7F2FE2323012168468DF80030FFF703FFC120FFF7E8FE1023012168468DF864
:202E80000030FFF7F9FEC520FFF7DEFE42F63E0302216846ADF80030FFF7EEFEC720FFF780
:202EA000D3FE8623012168468DF80030FFF7E4FE3620FFF7C9FE4823012168468DF8003038
:202EC000FFF7DAFE3A20FFF7BFFE5523012168468DF80030FFF7D0FEB120FFF7B5FE4FF499
:202EE000C05302216846ADF80030FFF7C5FEB620FFF7AAFE354B03211A889B78ADF80020CE
:202F000068468DF80230FFF7B7FEF220FFF79CFE012168468DF80040FFF7AEFE2620FFF78C
:202F200093FE012168468DF80010FFF7A5FEE020FFF78AFE264B6A4603F108051868596821
:202F4000144603C40833AB422246F7D1186899889B79A3712060A18068460F21FFF78CFE30
:202F6000E120FFF771FE1B4B6A4603F1080518685968144603C40833AB422246F7D118689A
:202F800099889B79A3712060A18068460F21FFF773FE1120FFF758FE782000F0BDFA2920FD
:202FA000FFF752FE3620FFF74FFE2823012168468DF80030FFF760FEFFF718FE05B030BD60
:202FC0007C620020A1BC010864031281BBC30108BFC30108ACBC010882B02DE9F74FDEB2F2
:202FE000C3F3072514460D93721E6B1E0B4402449BB292B2BDF83C80FFF769FEC72C70D0B5
:20300000E72C70D0B42C70D0A82C70D0C02C70D0C12C70D0C22C70D0C32C70D0C42C70D043
:20302000C82C70D0C92C70D0CA2C70D0CB2C70D0CC2C70D0CD2C70D0CE2C70D0CF2C70D0D4
:20304000D22C70D0D32C70D0D42C70D0D52C70D0D62C70D0D92C70D0DA2C70D0DB2C70D05E
:20306000DC2C70D0E02C70D0E12C70D0E22C70D0E32C70D0E42C70D0E82C70D0E92C70D0D9
:20308000EA2C70D0EB2C70D0EC2C70D0ED2C70D0EE2C70D0EF2C70D0F22C70D0F32C70D060
:2030A000F42C70D0F52C70D0F62C70D0F92C70D0FA2C70D0FB2C70D0FC2C70D07F2C28BFC1
:2030C0002024BDF840A0203C6C4364004FF000099AFA9AFAA94564D303B0BDE8F04F02B0CA
:2030E00070477F24EDE78024EBE78124E9E78224E7E78324E5E78424E3E78524E1E7862443
:20310000DFE78724DDE78824DBE78924D9E78A24D7E78B24D5E78C24D3E78D24D1E78E2443
:20312000CFE78F24CDE79024CBE79124C9E79224C7E79324C5E79424C3E79524C1E7962463
:20314000BFE79724BDE79824BBE79924B9E79A24B7E79B24B5E79C24B3E79D24B1E79E2483
:20316000AFE79F24ADE7A024ABE7A124A9E7A224A7E7A324A5E7A424A3E7A524A1E7A624A3
:203180009FE7A7249DE7A8249BE7A92499E7AA2497E7AB2495E7AC2493E7AD2491E7AE24C3
:2031A0008FE70E9B33F804B00027BE4203D809F1010902348EE70BFA07F31B0409D598FAD2
:2031C00098F3ADF80430022101A8FFF755FD0137EBE7ADF804A0F6E782B02DE9FF4704466F
:2031E000BDF83C90BDF840A00D9388461546DFB2C3F30726FFF7F2FC15F8012B2AB904B0C8
:20320000BDE8F04702B0FFF7F1BCE319B3F5A07F0BDB08EB06031FFA83F816FA83F3EF2BA4
:20322000EDDC202A4FF00004E6D00E9B8DF834708DF8356000932046CDE9019A0D9B41461D
:203240003C44FFF7C9FEA4B2D6E730B4B0F5A07FBDF8085005D2EF2903D8029530BCFFF726
:203260005DBD30BC704707B500210090F0234FF4A0720846FFF752FD03B05DF804FBB0F57D
:20328000A07F13B505D2EF2903D800930123FFF7DCFF02B010BDB0F5A07F13B506D2EF29FA
:2032A00004D8009313460122FFF7CFFF02B010BD2DE9F341B0F5A07FBDF8207004460D46F0
:2032C00090461E4620D2EF291ED800970123FFF7BCFFA919424620460097012389B2FFF7AC
:2032E000B4FF33462946204600970122FFF7ADFF04EB080033460122294680B2089702B0EC
:20330000BDE8F041FFF7A1BF02B0BDE8F081B0F5A07F13B5144610DAEF290EDC80B289B27A
:203320004B1C421C9BB292B2FFF7D1FC64BA022101A8ADF80440FFF79FFC02B010BD2DE97B
:20334000F74FBDF8306007460C4698469146FFF745FC264408EB070BB6B24FF0000A1FFA1E
:203360008BFBB44215D009EB4A033D4621B20AE033F8022B28B2CDE90013FFF7C8FFDDE9ED
:2033800000130135ADB25D45F2D10134C244A4B2E7E703B0BDE8F04FFFF728BC2DE9F74FF4
:2033A000A3EB0109A2EB000AB9F1000FB8BFC9F10009BAF1000FB8BFCAF1000AD145BDF82A
:2033C000307004460D46904603DD98460C4613460546444505DD29461D460B4621464446A7
:2033E0008846A8EB0406A3EB050BBBF1000FC6F3C031B2B2B8BFCBF1000B01FA86F69D4267
:20340000B4BF01234FF0FF33009276100193FFF7E5FB444504DD03B0BDE8F04FFFF7E6BB8A
:20342000D145C7BF2146284629462046A6EB0B063A46FFF76CFFB3B236B2002E05DA019ACE
:203440001544009AD6182DB236B2013424B2E0E7044BC90001F4FC6141EAD20203EA00207C
:203460001043704700F8FFFF2DE9F341089E1D460F4614468046FFF7B1FB2A20FFF7E4FBC3
:203480001FFA88F0FFF718FCA0B2FFF715FC2B20FFF7DAFBB8B2FFF70FFCA8B2FFF70CFC5F
:2034A0002E20FFF7D1FBFFF7BDFBE91BA4EB0800441C4B1C14FB03F39BB203EB43050F4F06
:2034C000ADB206EB4304A64205D1FFF78FFB284602B0BDE8F0814FF0FF33032201A9384623
:2034E0000DF0E0FE9DF806209DF805109DF80400FFF7AEFF26F8020BE5E700BF7C6200209C
:2035000008B504480DF0BDF918B1BDE8084007F04BBF08BDE861002010B50446FFF7F0FF16
:20352000013C00D210BDFFF7EBFF01200BF08EFBF6E700000C480D4A08B542F21073C0E985
:20354000002300234FF48042C0E90233C0E90423C0E9063303620CF0B9FD18B1BDE80840C3
:2035600007F022BF08BD00BFF05E0020005C004070B50E4C0E4E0546012086B02070307830
:20358000012808D00A98009028460CF061FE0023237006B070BD0020CDE904230391FFF70F
:2035A000BBFFDDE904230399E9E700BFA00400208D05002070B50E4C0E4E0546012086B046
:2035C00020703078012808D00A98009028460CF017FF0023237006B070BD0020CDE904236A
:2035E0000391FFF799FFDDE904230399E9E700BFA00400208D05002030B585B005250C4685
:203600008DF80C008DF80D1016480095022303AAD021FFF7ADFF50B1134815F05FFD0A2038
:2036200015F074FDFFF786FF012005B030BD0D480095012303AAD021FFF79AFF08B10B488F
:20364000EBE708480095012303AAD021FFF7B2FF08B10748E1E79DF80C30181B18BF01207E
:20366000E3E700BFF05E0020CEC30108F2C3010816C4010810B5084805230122D0210DF0CA
:203680002FF808B1FFF756FFBDE81040024805230122D0210DF024B8F05E0020000000003D
:2036A0002DE9F04F984B2DED028B196885B069B1964815F013FD0A2015F028FD4FF0020AC9
:2036C000504605B0BDEC028BBDE8F08F904E914D012405231A46D02130460DF001F88246B7
:2036E00070B12146284615F0F9FC01340A2015F00DFDFFF71FFF0A2CEBD14FF0010ADFE756
:203700009FED858ADFF80892844DDFF834B204460646074680460020FFF7FEFE3B238DF871
:203720000C30052300937A48012303AAD021FFF71FFF002800F0B680794815F0CFFC0A20F1
:2037400015F0E4FCFFF7F6FE0134E4B2632CE2D907EE908AF8EEE77AC7EE886A07EE907A89
:20376000F8EEE77A87EE887A07EE906AF8EEE77AC7EE888A9FED6B8A66EE887A17EE90BA68
:2037800067EE087A17EE900AFCF7DEFE064658460F46FCF7D9FE68EE887A804617EE900A1E
:2037A0008946FCF7D1FE02460B46FCF725FF424604460D464B4640464946FCF71DFF224686
:2037C0002B46FCF763FD41EC100B18F0A1F8304653EC102B3946FDF739F841EC100B17F059
:2037E000EBFE514B51EC100B0022FCF705FF44A3D3E90023FDF72AF84C4B8046186889464B
:20380000FCF7A2FE02460B4640464946FCF73CFDFDF7EAF9324608EE100A3B463046394666
:20382000FCF7EAFE22462B46FCF730FD41EC100B18F06EF855EC104B8BF00040FCF784FE32
:2038400022462B46FDF702F841EC100B17F0B4FE354B51EC100B0022FCF7CEFE28A3D3E960
:203860000023FCF7F3FF324B044618680D46FCF76BFE0B46024629462046FCF705FDFDF7F3
:20388000B3F9DFED2C7A2C4B38EE678A07EE900ABDEEC88AFDEEE77A83ED008A274BC3ED88
:2038A000007A0DE71E2300931C4A0623D0214846FFF780FE08B158463FE72A786B7843EA15
:2038C000022308FA83F8AA78EB7843EA022307FA83F72A796B79F0EE087AB4EEE78A43EACD
:2038E0000223F1EE10FA06FA83F604D5F7EE007A38EE278A28E7632C3FF4FFAE642423E722
:203900007A008BFCFA210940C40300203DC40108F05E002075C40108000000007406002007
:20392000CEC301080000803800806640B4030020B80300200000B442BC030020C0030020A5
:2039400016C40108000000002DE9F0472DED068B8F4886B015F0C2FB0A2015F0D7FB8D4BE4
:20396000196861B18C4815F0B9FB0A2015F0CEFB0224204606B0BDEC068BBDE8F087874FC1
:20398000874E092505231A46D02138460CF0A8FE044668B13046013D15F0A0FBADB20A204B
:2039A00015F0B4FBFFF7C6FD002DEBD10124E0E7DFED7C8ADFF8E4A17B4E9FED7C8A0546F1
:2039C0000746804681460020FFF7A6FD3B238DF81430052300937148012305AAD021FFF7FF
:2039E000C7FD002800F0A080714815F077FB0A2015F08CFBFFF79EFD0135ADB2B5F57A7F1C
:203A0000E1D307EE909AF8EEE77A9FED6A9A87EEA87A07EE908AF8EEE77A87EEA88A07EE73
:203A2000907AF8EEE77A28EE098AC7EEA89A67EE098AFDEEE87A17EE903A002BB8BF5B4252
:203A400007EE903AF8EEE77AE9EE897A17EE900AFCF77AFD41EC1A0B18EE100AFCF774FDA7
:203A6000B0EE4A1AF0EE6A1A41EC100B17F04DFF514B51EC100B0022FCF7BEFD4F4B0022C7
:203A8000FCF7BAFDBDEEC88A3FA3D3E90023FCF7DDFEFDF7A9F818EE103A002BB8BF5B42CC
:203AA00008EE103AB8EEC88A0646A9EE898A18EE100AFCF749FD41EC190B18EE900AFCF79B
:203AC00043FDB0EE491AF0EE691A41EC100B17F01CFF394B51EC100B0022FCF78DFD384BDC
:203AE0000022FCF789FD28A3D3E90023FCF7AEFEFDF77AF8334B1E60334B054618603046C9
:203B0000FCF722FD02460B462846CDE90223FCF71BFDDDE90223CDE900012C4815F0DEFAB3
:203B20000A2015F0F3FA24E71E2300931E4A0623D0215046FFF73EFD08B1254855E7327835
:203B4000737843EA022309FA83F9B278F37843EA022308FA83F832797379F4EEC88A43EA4D
:203B60000223F1EE10FA07FA83F704D5F7EE007A78EEA78A40E740F2E7339D423FF416AFA3
:203B80004FF47A7538E700BF7A008BFCFA210940A7C40108C40300203DC40108F05E0020DD
:203BA000B9C40108000000007406002000004843CEC3010800008038008076400000E03FB3
:203BC0000000E0BFB4030020B8030020E7C4010816C40108F0B5274F274E85B005250022EC
:203BE0004FF4007138460BF043FD3220FFF794FC01224FF4007138460BF03AFD3220FFF7B1
:203C00008BFC05231A46D02130460CF069FD08B1FFF790FC05231A46D02130460CF060FD49
:203C200068B1164815F05AFA013D0A2015F06EFAFFF780FC15F0FF05D1D1012416E048F26D
:203C40006B03ADF80C300523009303AA0223D0213046FFF78DFC044608B10948E2E70AF08B
:203C6000EFFF084B18602046FFF756FC204605B0F0BD00BF00040240F05E0020F8C40108DD
:203C8000CEC30108C40300201FB57523ADF80C301A4B196841B11A4815F020FA0A2015F0CE
:203CA00035FA022004B010BD0A2416480094012303AAD021FFF75CFC48B1134815F00EFAA1
:203CC000204615F023FAFFF735FC0120EAE7052300930C48012303AAD021FFF76BFC08B15C
:203CE0000A48EBE79DF80C106829DBD0084815F0F5F9204615F00AFAE7E700BFC40300208D
:203D00003DC40108F05E002022C5010848C5010871C501082DE9F0412F4C2368054633B16A
:203D20002E4E0AF08DFF2368643898421CD300232B4E2C4FDFF8BC8023600124FFF79AFC33
:203D400008B1FFF7F7FBFFF795FCC0B12648214615F0C4F901340A2015F0D8F9FFF7EAFB23
:203D60000A2CEBD1012035E00020FFF7D5FB2168304615F0B3F90A2015F0C8F9D1E7FFF7E7
:203D800083FF014610B119482146E1E76B20FFF733FC014610B121464046D9E71B20FFF773
:203DA0002BFC014610B121463846D1E71C20FFF723FC10B121463046CAE7012D0AD10C483A
:203DC00015F08CF90A2015F0A1F9FFF7BDFD003818BF0120BDE8F081C40300203DC40108A9
:203DE0003EC6010810C60108A0C50108C0C501086DC60108E3C5010807B5F02300210246B6
:203E0000009308464FF4A073FFF799FA03B05DF804FB000030B5094A01F1C60314685D1AF5
:203E2000AC4206DB08551368C52B9CBF0133136030BD13F8014D5C70F0E700BF24040020F9
:203E400070B50D4619464378012B144602D04379002B4CD04F2D15D1A248046822461346FC
:203E60000132CD5C15F0DF0F01D0C52BF7D919444B7833B1C52A04D89B4B1B68A342FDD177
:203E8000026070BD502DFCD1964C2368002BF8DD954A12689342FDD1CA18C85C12F8012CA3
:203EA000203A18BF012200B9013BC81805E00578202D03F1FF3300D10132DE43012A4FEA7B
:203EC000D676C8BF002610F801590EB1002DEED1002B03DA834B00221A60D2E719445A1CDE
:203EE0004B78002BCDD0C52ACBD82260C9E72F2D82781ED17D4C012A2368264601D0857974
:203F00005DB113B960233360BBE7D8B2FFF782FF6020FFF77FFF0023F5E713B9B4232360F5
:203F2000AFE7D8B2FFF776FFB420FFF773FF2560A7E7342D16D16D4C012A2368264601D0B3
:203F400085793DB10BB95E23DDE7D8B2FFF762FF5E20DEE70BB97E23E1E7D8B2FFF75AFF42
:203F60007E20E2E7012A01D0837973B1232D0CD15E4C206808B9A823D1E7C0B2FFF74AFF6A
:203F8000A820FFF747FF0023C9E72A2D14D1554B1A68501EC5283FF674AF534C2468A2422A
:203FA000FDD10A441860C83191423FF46AAF12F8013B02F8023CF7E74C2D0AD1494B1B688E
:203FC0000B445A1AC62A3FF65CAF5A7803F8012BF7E7A4F120035F2B00F2DB80434D2B6865
:203FE000002B00F0D180602B1CD1412C6ED0452C6ED0492C6ED04F2C6ED0552C6ED0612CCB
:204000006ED0652C74D0692C74D06F2C74D0752C74D06020FFF7FEFE2046FFF7FBFE002306
:204020002B602EE7B42B15D1412C69D0452C69D0492C69D04F2C69D0552C69D0612C69D0E9
:20404000652C69D0692C69D06F2C69D0752C69D0B420DFE75E2B15D1412C65D0452C65D0C9
:20406000492C65D04F2C65D0552C65D0612C65D0652C65D0692C65D06F2C65D0752C65D038
:204080005E20C7E77E2B09D1412C61D04F2C61D0612C61D06F2C61D07E20BBE7A82BBBD1FE
:2040A000412C5DD0452C5DD0492C5DD04F2C5DD0552C5DD0612C5DD0652C5DD0692C5DD096
:2040C0006F2C5DD0752C5DD0A820A3E7C024A3E7C824A1E7CC249FE7D2249DE7D9249BE7A7
:2040E000E02499E72404002028040020D0030020E82491E7EC248FE7F2248DE7F9248BE792
:20410000C12489E7C92487E7CD2485E7D32483E7DA2481E7E1247FE7E9247DE7ED247BE77C
:20412000F32479E7FA2477E7C22475E7CA2473E7CE2471E7D4246FE7DB246DE7E2246BE7BF
:20414000EA2469E7EE2467E7F42465E7FB2463E7C32461E7D5245FE7E3245DE7F5245BE7C0
:20416000C42459E7CB2457E7CF2455E7D62453E7DC2451E7E4244FE7EB244DE7EF244BE789
:20418000F62449E7FC2447E72046BDE87040FFF741BE4F2D0FD1324A324813680068C95C7D
:2041A00031B1C52B04D88342FDD10133136068E68342FDD18EE6502D13D1294A2948136802
:2041C0000468002B0BDDA342FDD1013BEEE701300D5C002DFBD1A342FDD1106051E600208F
:2041E000F6E7522D0CD11E4A1E49136809681B2B03DD8B42FDD11C3BD8E78B42FDD169E60A
:20420000512D19D1002200E001328B5C002BFBD1134B196801F11C00904208DA1B293FF708
:2042200030AE104A12689142FDD1186029E60D4800688142FDD14FE64B2D3FF44BAE4E2D02
:204240007FF41FAE002200E001328B5C002BFBD1044B1868024B19688842FDD13CE600BFF5
:20426000240400202804002013B519234CF21864194618460094FA22FEF7E7FF192318460A
:204280000094FA22BE21FEF7E0FF1922104600948C233221FEF7D9FF00948C2319223221F6
:2042A000FA20FEF7D2FF502319460094192240F21310FEF7CAFF3C210846009478231C2252
:2042C000FEF7C3FF009478231C223C216220FEF7BCFF009478231C223C218820FEF7B5FF10
:2042E000009478231C223C21AE20FEF7AEFF009478231C223C21D420FEF7A7FF002002B059
:2043000010BD00002DE9F043534F544B3A68544C53F822104FF6E0754FF62053002918BF35
:204320001D46530104EB421287B0917D01296DD1127E002A6AD1083304AA23444FF0080941
:20434000104613F8011B02F8011BB9F10109F8D1DFF82081434E4146FDF7C6F8CDE90159FB
:20436000736800934246336869218B20FEF734FF3B6804EB43131869FCF7E6F802460B467C
:204380004046394914F05EFF3B689FED387A04EB4314D4ED047A364BF4EEC77AF1EE10FAC1
:2043A0001B78424612DB012B02D12C2388F80330CD200023CDE901537368009333682D4A5A
:2043C0007D21FEF709FF07B0BDE8F083B2EE047AF4EEC77AF1EE10FA05DB012B01D12C231C
:2043E0009370D820E5E7F5EEC07AF1EE10FA05DD012B01D12C235370E320DAE7BAEE047A14
:20440000F4EEC77AF1EE10FAE7DDF1E70026CDE90156144C184A63680093236869218B20E1
:20442000FEF7DAFE124B15491B781248012B144B1B7814BF2E222C22B34214BF43234623E1
:2044400014F000FFCDE90156636800932368094A7D21E320B5E700BFD8030020EC04002009
:20446000206500205C00002092C601080000C84235050020DF2E002099C60108AAC6010848
:204480002C010020F0B40D2101FB00F3164C1749174D94F804C005F803C01944EA18002356
:2044A0006779A679A5784B7164788B71CB710B724B72104957709670D5701471537193711E
:2044C000D3711372537201220A7081F801C08F70CE700D714C718B71CB710B724B728B7290
:2044E000F0BCC0B2FEF752B818650020D462002014620020406600202DE9F041DFF860E0F2
:204500001549164A0D2444430EEB04031EF804404C705C7892F804C05779967995788C7005
:2045200052789C7883F805C09F71DE711D725A724FF00008CC70DC781B7981F800800C71C2
:204540004B7181F806C0CF710E724D728A72BDE8F041C0B2FEF71AB8406600201865002073
:204560001462002030B5164B164C197801EB410301EB8301144B1A68144B53F8225085B09A
:204580009DB1134B1348194414F05CFE00234FF62052CDE90132636800930E4A23682D2107
:2045A000B420FEF719FE05B030BD0B4B0948194414F048FE4FF6E073CDE90153EBE700BFF8
:2045C0003F0500205C000020D8030020EC0400206CD70108DF2E0020F0D7010830B5154B62
:2045E000154C197801EB410301EB8301134B1A68134B53F8225085B09DB1124B1248194497
:2046000014F020FE002302934FF620530193636800930D4A23682D21B420FEF7DDFD05B08E
:2046200030BD0A4B0848194414F00CFE02954FF6E073EBE73F0500205C000020D8030020A1
:20464000EC04002093D70108DF2E002017D801082DE9F043204DDFF8849087B00E4605245D
:204660004FF000082F4619F8013B8DF81580CDE90168002B08BF20238DF814306B68009394
:204680002B68204605AAB9210B34FEF7A5FDA4B240F239139C42E6D1DFF8449005254FF045
:2046A000000819F8013B8DF81580CDE90168002B08BF20238DF814307B68009328460B354A
:2046C0003B6805AACD21ADB2FEF786FDA542E8D107B0BDE8F08300BF5C000020D8630020BE
:2046E000F4630020494B2DE9F0411D68484F0D236B438AB0FB5C632B9FBF4FF00A0CB3FBEE
:20470000FCFCCCEB4C12CCEB820298BF03EB42034FF00D0202FB057288BF002351788CBF87
:204720009C46DBB263299FBF0A22B1FBF2F2C2EB4210C2EB800098BF01EB40014FF00D0068
:2047400000FB057088BF002180788CBF0A46C9B263289FBF4FF00A0EB0FBFEFECEEB4E1471
:20476000CEEB840498BF00EB44004FF00D0404FB057488BF0020E4788CBF8646C0B2632CCF
:204780009FBF0A26B4FBF6F6C6EB4618C6EB880898BF04EB48044FF00D0808FB057588BFF6
:2047A00000242D7994BFE4B22646632D9FBF0A27B5FBF7F7C7EB4718C7EB880898BF05EB83
:2047C0004805DFF8608098F800808ABF0025EDB22F46B8F1010F0CBFCDE90021CDE900C36F
:2047E000CDE902E015BF0B460A490B49624605A814F028FDCDE9017508490094334605AA9E
:20480000074814F01FFD0AB0BDE8F081D803002014620020B5C60108C4C60108D3C601080F
:20482000DF2E002034050020354B2DE9F0411E68344B0D2202FB06368AB03379632B53D81F
:204840000A257179B1FBF5FCCCEB4C13CCEB830301EB4301B379B3FBF5F2C2EB4210C2EBB2
:20486000800003EB4003F079B0FBF5FECEEB4E14CEEB840400EB4400347AB4FBF5F7C7EBFA
:204880004718C7EB8808767AB6FBF5F504EB4804C5EB4518C5EB880806EB4806C9B2DBB21D
:2048A000C0B2E4B2F6B2DFF8708098F80080B8F1010F0ABFCDE90023CDE900C10B46CDE998
:2048C00002E00ABF10491149624605A814F0BAFCCDE901560E4900943B4605AA0D4814F0EA
:2048E000B1FC0AB0BDE8F081002427462046A646234622462146A44626462546D3E700BFE6
:20490000D803002014620020B5C60108C4C60108D3C60108DF2E0020340500202DE9F04F72
:204920000D234343574FF95C63299FBF4FF00A0CB1FBFCFCCCEB4C13CCEB830398BF01EB4D
:2049400043014FF00D0303FB007388BF00215B788CBF8C46C9B2632B98BF0A2204469FBFC7
:20496000B3FBF2F2C2EB4210C2EB800003EB40034FF00D0000FB047088BF002380788CBFE0
:204980001A46DBB263289FBF4FF00A0EB0FBFEFECEEB4E15CEEB850598BF00EB45004FF01E
:2049A0000D0505FB047588BF0020AD7A8CBF8646C0B2632D9FBF4FF00A08B5FBF8F8C8EBC3
:2049C0004816C8EB860698BF05EB46054FF00D0606FB047688BF0025F67A94BFEDB2A8461F
:2049E000632E9FBF4FF00A09B6FBF9F9C9EB491AC9EB8A0A98BF06EB4A064FF00D0A0AFB81
:204A0000047788BF00263F7B94BFF6B2B146632F9FBF4FF00A0AB7FBFAFACAEB4A1BCAEB4A
:204A20008B0B98BF07EB4B07DFF86CB09BF800B08FB08ABF0027FFB2BA46BBF1010F0DF1F5
:204A4000240B0ABFCDE90023CDE900C10B46CDE902E00ABF0C490D496246584614F0F2FB7A
:204A6000631CCDE905A7CDE90396CDE901850849CDF800B01A46074814F0E4FB0FB0BDE80E
:204A8000F08F00BFD4620020B5C60108C4C60108E0C60108DF2E00203405002030B500232E
:204AA0008B4204DB012300224254184630BDC25C32B9C4182025CB1A934203DC0023F2E764
:204AC0000133EDE704F8015B0132F5E72DE9F04F85B0984604AF0B2392FBF3F39C1D24F0DE
:204AE0000704ADEB040DBD6AB7F82CA05E1E0DF1100B0024B4424DDB012BACBF5B440BF157
:204B000001034FF000048EB295B203F8014C84B22A4631462046CDF800A0142306F114094C
:204B2000FEF793FB1FFA88F81FFA89F9AA1E601C002300934946434692B280B2FEF785FBC1
:204B40003A8E174BCDF808A001925A680092B11CE01C5A461B6889B280B2FEF73DFB08F158
:204B60001301314453462A46204689B2FEF787FB2046013C5346424649462C44FEF78BFB4D
:204B8000534642464946A0B2FEF785FB0437BD46BDE8F08F15F804C00BF804C00134A9E7DF
:204BA0005C0000202DE9FF47704D714E2978714BDFF80492704C01EB810103EB81013046C7
:204BC00014F060FB4CF218670C23CDE901370096C8234FF4A07214210020FFF777FF2B7862
:204BE000664A03EB430102EB410209EBC3036449304614F027FB0023CDE9017363680093F5
:204C0000324623685F4E2D210520FEF7E5FA0097152340F2371240210420FEF749FB42F261
:204C2000041300934FF49B72142341210520FEF70CFBF17828783379534A96F806C077792A
:204C4000002900F08E800139CDE9007C01EBC00102EB81024D494E4814F0F4FA4CF21867C9
:204C60006368009342F2041A2368494ACDE9017A41210520FEF7B0FA2A78464B46493C48C9
:204C800002EB420203EB420214F0DCFA4FF0000863680093CDE901782368354A962105201D
:204CA000FEF79AFA0097152340F23712A9210420FEF7FEFACDF800A014234FF49B72AA218F
:204CC0000520FEF7C2FA337800937378B2783349334814F0B7FA63680093CDE9017A2368E5
:204CE0002F4AAB210520FEF777FA2A782D49204809EBC20214F0A6FA63680093CDE901787B
:204D000023681B4A5F210520FEF766FA2A78264B26491748C2EB02121A4414F093FA63684D
:204D20000093CDE901782368114A78210520FEF753FA2A781E4B1F490D4802EB420202EBE5
:204D4000C2021A4414F07EFA63680093CDE901782368074AD2210520FEF73EFA04B0BDE8AE
:204D6000F087CDE9007C02EB401273E73F050020DF2E00200CCF01085C00002052CE0108D7
:204D8000FEC60108AC660020C7D9010811C70108AA060020FACE010824C70108AECA010874
:204DA000E45E002033C70108CDCE01083DC701087CCE01081CC9010864CE01080000000061
:204DC0002DE9F04F2DED028B0C4695B0002930D1002828DD0C234CF21862CDE90132B44D18
:204DE000B44A2B7803EB830302EB830300934FF4A072C82314212046FFF768FEAE4B2A78C6
:204E0000AE49AF4803EB021214F01CFAAD4B02944FF6FF7201925A6800921B68A84A2D219A
:204E20000620FEF7D9F9204615B0BDEC028BBDE8F08F012940F08681A34FDFF8E8A2DFF875
:204E400080820024D7ED047ABDEEE78AB8EEC87A77EEC77A17EE900AFBF776FB92A3D3E94D
:204E60000023FBF7C9FBFBF777FE0DAA834607F1080100231046013311F8015B02F8015B09
:204E8000082BF8D10FA9661CFCF72EFB0FAB5146CDF804B08DED008A3246404614F0D2F925
:204EA000FB7D834D012B297840F0F580874B09A803EB810114F0C6F94FF4FC69824B03EB1F
:204EC000441404F110030FCB8DE80F0094E80F00FCF7DCF92978002840F026817B4B0BA8A8
:204EE00003EB810114F0AEF9794B7A4A1B7812788DED028A012B14BF2E232C23CDE9033B59
:204F00000FAB019309AB00930BAB002A40F015817149324640464FF0000B14F093F9CDE90E
:204F2000019B684CC6EB0611636800932D312368424689B20E20FEF74FF9082E07F120078F
:204F400040F0A7802B78654A02EBC302644B07921868FBF7F9FA4FF6FF76CDE90001079A37
:204F60006049574814F06EF9CDF808B00196636800932368524AB4210E20FEF72DF92A7825
:204F800002EB820302EB4302574B1A44574B07921868FBF7D9FA079ACDE900015449484868
:204FA00014F050F9CDE9016B636800932368444AB4218C20FEF710F92A784E494E4B404832
:204FC0001B68C2EBC2020A444C4914F03BF9CDE9016B636800932368394AC3210E20FEF72D
:204FE000FBF8474B47491A68354814F02BF9CDE9016B636800932368314AC3218220FEF774
:20500000EBF8414B1B78002B40F09A803F492C4800254FF6FF7614F035F9CDE90165636825
:2050200000932368264AC321C820FEF7D5F8384A384993680093D2E90023214814F002F97D
:20504000CDE901656368009323681D4AD2210E20FEF7C2F8304A3149137A0593D379049318
:20506000937903935379029313790193D378009393781348527814F0E5F8CDE90165636837
:20508000009323680E4AE1210E20FEF7A5F82C46C9E63446D6E6224B09A803EB810114F0EF
:2050A000D1F84FF6E07909E7000000000088C3403F0500207FD9010843D9010847C701080D
:2050C000DF2E00206C00002020650020BBD90108350500202C01002075C701080AD90108FD
:2050E00090040020B5C7010822D9010898040020BFC70108F5D80108BC030020C9C70108DA
:20510000C0030020D6C7010816050020DFC701083C630020F6C70108A467002011C801088A
:2051200073D9010865C70108084B0BA803EB810114F088F84FF47849D6E605493246E9E696
:20514000044964E7022918BF00246CE673D9010895C70108EAC701082DE9F04F6E4D6F4EFE
:205160002A786F4C33686F49DFF8E8A102EBC20287B001EB420201336B49204614F062F85B
:205180004CF218670C23CDE901370094C8234FF4A07214210020FFF799FC0023CDE9017334
:2051A000624C2A7863686249009302EB02120A4423682D210520FEF70FF85E4A0592136893
:2051C000BBB92A7802EB420102EB810231685AF82110002940F093804FF4FC63CDE9011325
:2051E00063680093236854490A44B4202D21FDF7F3FF00274CF21868CDE901872A78636843
:205200004E49009302EB820201EB4202236841210520FDF7E1FFCDE901872A7863684849A1
:20522000009302EB420201EB4202236855210520FDF7D2FF30685AF820304FF6205B4FF650
:20524000E079BB4218BFD946C0B2FFF74BFACDE90197636800932368314A41219F20FDF78E
:20526000BBFF3078FFF7E0FACDE901976368009323682B4A55219F20FDF7AEFFCDE901873C
:205280006368009323682F4A69210520FDF7A4FFCDE901876368009323682B4A7D21052007
:2052A000FDF79AFFFFF72EF8CDE901872A78636826490093C2EBC202236801EB8202052007
:2052C000A521FDF789FF059B1B680BBBCDF800B0292340F23712B7210420FDF7E9FF3068F7
:2052E0005AF820104FF6E0724FF6205300290CBF1146194607B0BDE8F04FFFF7A9B94FF6FB
:20530000E071CDE9013163680093236810496BE748F210430093DBE73F050020D80300207F
:20532000DF2E0020BAD701083CC801085C00002092D8010808000020F0D70108C5D801080C
:20534000E3D8010842C801084DC801083ED801086CD70108EC0400202DE9FF41DFF86882C6
:20536000884DD8F800302978874C9A1E012A00F29680864E864B01EB01111944304613F080
:2053800081FF00274FF620534FF4A072CDE901371421C82338460096FFF798FB29787D4B45
:2053A00001EB410103EBC101304613F06BFF4CF21863019363680093236802973246502174
:2053C0000520FDF709FF744A2B781268012A4FEAC30340F0B98071496C48194413F052FF1F
:2053E00000264FF47843CDE901366368674A0093782123680520FDF7EFFE694B2978634863
:2054000003EBC10113F01EFF02964CF218630193636800935D4A236878219B20FDF7DCFE25
:205420002978604B59481A2201FB023113F02AFF4CF218666368554A009300272368CDE9C7
:205440000167A0210520FDF7C7FE2978564B4F48C1EBC10103EB810113F014FF63684B4A18
:205460000093CDE901672368B4210520FDF7B4FE29784648C1EBC10301EB83014B4B19444E
:2054800013F000FF63680093CDE9016723683F4AD7210520FDF7A0FE04B0BDE8F081012BD5
:2054A00091DC434B394E01EBC10103EB4101304613F0E8FE00274FF62053CDE9013714212B
:2054C0000096C8234FF4A0723846FFF7FFFA2978D8F8008001EB4101C1EBC101B8F1000F44
:2054E0000FD1344B3046194413F0CCFE4CF21863019363680093CDF80880236832465A2137
:205500005EE72D4B3046194413F0BCFE4CF21868636800933246236802975A210520CDF821
:205520000480FDF759FE2978244B01EB410103EBC101304613F0A6FE63680093CDE90187F5
:20554000236832463C213BE71D491048194413F079FE00264CF21863CDE9013663680B4A48
:205560000093782123680520FDF736FE154B2978064803EBC10113F065FE02964FF478432C
:2055800045E700BF3F0500205C000020DF2E00203DCB01084BCC0108100500208FCD010848
:2055A000A7CD0108BFCD010870CB0108F4CB010893CC0108C9CC010808CD010847CD0108CC
:2055C000C4CB0108DCCB01080C0500207FB5B84DB84B2978B84E01EB810101EB8101194436
:2055E000304613F04FFE4CF218641F23CDE901340096C8234FF4A07214210020FFF766FA7D
:205600002B78002B40F02A81AC49304613F03AFE4FF4FC630022CDE90132A94CA64A6368DE
:20562000009323682D210520FDF7D6FD2B78012B40F01A81A349A04813F024FE4FF4FC63DD
:205640000022CDE901326368009323689A4A46210520FDF7C1FD2B78022B40F00C819A49C4
:20566000954813F00FFE4FF4FC630026CDE9013663680093904A23685F210520FDF7ACFD83
:20568000924B29788C4803EBC10113F0FBFD4FF6E07302960193636800932368864A8C4EB6
:2056A0002D219F20FDF798FD2B788A4A317803EBC3031A44002940F0E58087497E4813F0CB
:2056C000C1FD4FF4FC630022CDE90132636800932368794A46219F20FDF77EFD33787F4AAA
:2056E000012B2B7803EBC3031A4440F0D2807A49714813F0A7FD4FF4FC630026CDE901366F
:20570000636800936C4A23685F219F20FDF764FD2978734B684801EB410103EB810113F0A6
:20572000B1FD4FF6E07302960193636800936D4E614A23687D210520FDF74EFD3278002AD2
:2057400040F0AE8068495C4813F09CFD4FF4FC630022CDE90132636800932368564A96210D
:205760000E20FDF739FD3378012B40F0D7805F49514813F087FD4FF4FC630026CDE90136F6
:20578000636800934C4A2368AF210E20FDF724FD2978574B484801EBC101194413F072FD27
:2057A0004FF6E0730296019363680093514E424A23687D219F20FDF70FFD3278002A40F0B0
:2057C000B4804D493C4813F05DFD4FF4FC630022CDE90132636800932368374A96219F2091
:2057E000FDF7FAFC3378012B40F0A6804349324813F048FD4FF4FC630022CDE901326368CC
:20580000009323682C4A9F20AF21FDF7E5FC3C4B1878002840F097804FF4784300939822BF
:2058200016232A210420FDF743FD29782248C1EBC10301EB8301334B194413F023FD4CF265
:2058400018630022CDE901326368009323681A4AD2210320FDF7C0FC04B070BD2A493046E5
:2058600013F010FD2346D5E62849134813F00AFD4CF21863E4E626490F4813F003FD4CF294
:205880001863F2E623490C4813F0DCFC4CF2186319E72049084813F0D5FC4CF218632CE708
:2058A0001D49054813F0EEFC4CF2186350E700BF3F05002048CF0108DF2E00205BC80108BC
:2058C0005C00002073C801088BC8010893CF01083405002041D00108A7C801085CD0010821
:2058E000ABCF010835050020B5C80108C7C80108CFCF01082C010020D9C80108E7C8010857
:2059000041050020EACF010867C801087FC8010899C80108AEC80108BEC801082F4930486F
:2059200013F0B0FC4CF2186327E72E492C4813F0A9FC4CF218634AE72B49294813F0A2FCEE
:205940004CF2186358E7012806D14FF47843009398221623432165E7022806D14FF478431C
:205960000093982216235C215CE7032806D14FF47843009398221623932153E7042806D16A
:205980004FF47843009398221623AC214BE7052807D14FF4784300939B22162343219C20D8
:2059A00041E7062806D14FF4784300939B2216235C21F4E7072806D14FF4784300939B2287
:2059C00016239321EBE708287FF42FAF4FF4784300939B221623AC21E1E700BFD0C801080B
:2059E000DF2E0020E0C80108EEC801081FB50F4A0F4912780F4B104C1B68C2EB02100144BE
:205A000000910E49013301EBC20220460C4913F019FC00201F23CDE901300094C8234FF4DC
:205A2000A0721421FFF752F804B010BD3F05002025CE0108D8030020DF2E00200DCE0108F2
:205A4000F5C80108000000002DE9F04F054687B0002840F08880B24FB24CB34E05F092F9C9
:205A6000B24BB34AB349384613F0ECFB4CF218680C23CDE901384FF4A072C8231421284609
:205A80000097FFF723F82278AB4902EB820206EB4202384613F0D6FB2378A84A03EB8303D7
:205AA00006EB430615702B4616F8011B00294CD105B1137000261F23CDE90136A04D984AE9
:205AC0006B6800932B689F4FDA210120FDF784FB22783E7002EBC2039B4A1A441046314646
:205AE000334610F8016B002E36D101B13B7092498B4813F0A7FB954A1378012B0BD100233F
:205B000013703A78072A06D800936E221223DA21D120FDF79AFB3878814A0230C0EB0033E9
:205B200000EB830300EB830000241F23CDE901346B68009300F23F102B68DA2180B2FDF7DA
:205B40004BFB002007B0BDE8F08F0133DBB20A2B4FF00105A8D1ACE70133DBB2092B4FF089
:205B60000101BED1C2E7012807D10C23AF22282140F23110FDF78FFBE3E7022807D10C23B5
:205B80004FF4A072D7210020FDF779FBD9E7704B03281C7840F0EC806E4E694DDFF8808110
:205BA00004F108035FFA83FB06EB44160027A345C7DD694B1B78BB424FEA470962D1072CDD
:205BC0004CDCE0B2FEF7AAFE00234FF4FC6ECDE9013EB9446B680093C9EBC90909F12D0198
:205BE00089B22B68059142460520FDF7F5FA072C30DC337F05990BB9737F6BB100234FF4EA
:205C0000FC6CCDE9013C6B6800932B68534A05911B20FDF7E1FA0599514B53F82430CBB19E
:205C20004FF4FC6ACDF808A04FF00009CDF804906B6800932B684B4A05912620FDF7CCFA89
:205C4000CDE9019A6B6800932B68474A05995220FDF7C2FA013701342036A8E7314B1A7849
:205C6000E0216FF0DF0311FB02311C2303FB04133E494046194413F005FB1B214046FEF72B
:205C80000DFFA1E7072C36DCE0B2FEF747FE48F210430020CDE90130B9446B680093C9EBB4
:205CA000C90909F12D0189B22B68059142460520FDF792FA072CCDDC337F05990BB9737F77
:205CC0006BB14FF620530022CDE901326B6800932B68224A05911B20FDF77EFA0599204B3A
:205CE00053F82430012BB5D14FF0000ACDF808A04FF620599AE70B4B1A78E0216FF0DF0334
:205D000011FB02311C2303FB041318494046194413F0B8FA1B214046FEF7C0FEB7E700BF25
:205D2000DF2E00203F0500208ED30108FEC8010809C9010819C9010821C901083904002083
:205D40005C00002038040020D3D00108C903002067050020206500206605002026C901081F
:205D6000CC04002028C901082AC90108EED0010804281CD1124B1878204407EE900AF8EE97
:205D8000E77A17EE900AFAF7DFFB0BA3D3E90023FAF732FCFAF708FF0C23C1B20093072236
:205DA00064232A3140F23510FDF74FFAC9E6431F58425841C6E600BF6666666666661440E6
:205DC000660500202DE9F347344C354F0A288246054628BF4FF00A0AA1462378012B27D0C0
:205DE0003B78012B24D00023009340F23912142391210320FDF729FA2A4B1B78022B1BD159
:205E0000294B1B78DBB1294B1B68072B0CBF4FF00C084FF01F080026B245544615DC092D64
:205E200003D842F20415092C25DD02B0BDE8F0870020FDF771FBD0E742F20418EBE74FF09D
:205E40000C08E8E70020FDF767FB99F80030012BF8D03B78012BF5D070010330CDF80080A7
:205E600014231922912180B2FDF7EFF90136D3E70020FDF751FB99F80030012BF8D03B7837
:205E8000012BF5D060010330009514231922912180B2FDF7DAF90134C5E700BF49050020BD
:205EA000A0040020120600203605002064060020F0B5AE4B1B6885B0002B63D0AC49AD4863
:205EC00013F0E0F900224FF47844CDE90124AA4B5A6800921B68A74A78210320FDF77CF908
:205EE000A64AA749137800935378A6489278A54D13F0A8F90023A44A2846194612F8016BF7
:205F000010F8014B0133A6421CBF02F8014C0121082BF3D1002932D09C4E9D4C3378012B01
:205F200000F095812378012B00F09181994B9A491A7890488F4E994F02EB420302EB8302F8
:205F4000974B1A4413F07EF900248A48FAF740F9013415F8012B3946304413F073F9082C63
:205F6000F3D14CF218620021CDE90121824B5A6800921B687F4AB4210320FDF72DF901200C
:205F800005B0F0BD874D2B78002B5CD0814A632B12784DD0774C844902EB420201EB4202E0
:205FA0002046824913F04EF92B78012B254605D12046FAF70DF97E49204481E7022B04D164
:205FC0002046FAF705F97B49F6E70E2B04D844F64812DA40D70710D41A1FD2B2082A11D86E
:205FE00040F22B1121FA02F2D60740F134816148FAF7EEF87049284462E72046FAF7E8F83C
:206000006E49D9E70D2B04D15A48FAF7E1F86C49F1E70F2B04D15748FAF7DAF86949EAE70F
:20602000102B7FF44FAF5348FAF7D2F86649E2E702EB420302EB8302644B65494D481A44F2
:2060400013F000F93EE7634A1278022A40F0EE80614F3B68002B00F0D380604A1488604A6D
:20606000127812B9002C00F0CB80072B484E474D33D12B78012B29D03378012B26D0454BDF
:2060800058491A783B4802EB820302EB4302564B00251A4413F0D6F81223DC220095782150
:2060A0005B20FDF7D2F81F22334B029501925A68009203201B682F4A7821FDF78DF8E0B2A7
:2060C0000A2828BF0A20FFF77DFE09E70020FDF723FACEE70020FDF71FFA2B78012BF9D071
:2060E0003378012BF6D00023009340F23712142378210320FDF7A9F82B78012B1ED03378E2
:20610000012B1BD03B68234A032B12781AD1374B37491B6801EBC2023649164813F092F816
:2061200000251223DC22009578215B20FDF78DF84FF6E072CDE901520F4BB8E70020FDF738
:20614000EBF9D9E7052B06D1284B2B491B6802EBC2020A44E0E7294B2249064802EB8202C6
:2061600003EB820213F06EF8DAE700BF140600202CC90108DF2E00205C0000201865002046
:20618000AECA01084D0000207C06002049050020A00400203F050020DFC901087A7304082F
:2061A000DEDA01082206002042DA010846C901084DC901085BC9010878C901086CC90108C5
:2061C0008FC901089AC90108A6C9010854DA0108B2C9010812060020640600205006002087
:2061E00036050020C0C901084BD701084806002018D70108CBC9010830D701087BDA010816
:20620000194A1A4B12784CF218611F20CDE901105968009116491B6802EB820201EB82025A
:2062200003207821FCF7D8FF0A204CE70E4A0F49127802EB420002EB80024FF62050CDE938
:2062400001304B6800930B680A490A44E8E70020FDF762F962E60A2B7FF434AE0648F9F765
:20626000B7FF0649C7E600BF3F0500205C0000207BDA0108B7DA0108DF2E002084C9010852
:206280002DE9F0438FB0074610F050FCB74B7C7A00221A60BB78012B064602D0BB79012B6C
:2062A00008D12E2C00F093802D2C00F09780252C00F09680292C40F08B80AD4B1A789846F9
:2062C0000AB9AC4B1A80AC4B1B78012B40F08A80A4F15903DBB2092B01D83B3CE4B2A74BF0
:2062E00019780A4319D1462C17D111460320019204F01AFBA24BA3480221196012F0EEFE04
:206300000A2012F003FF019A9F484FF4807109F0AFF908F095FC9D4B18609D4A1368092B79
:20632000154640F04A82A4F11E02D1B2072900F28F809848002303609748036097480124F1
:20634000046097480260974801709749392000FB0212964912F8010B01F8010B0133392B6E
:20636000F8D19349934A0023013351F8040B42F8040B082BF8D1904A904B002110781870C1
:206380005078587090789870D078D870107918715079587190799871D079D8710131107AC9
:2063A00018720829507A587202F10D0203F10D03E4D1834B09221A7007232B6004F09EFC0D
:2063C000804B01221A70804B03221A7055E357247E4A002313607E4A13706EE75624F7E7C2
:2063E0005524F5E7542C3FF47AAF552C3FF477AF562C3FF474AF572C3FF471AF582C1DD073
:20640000592C3FF46CAF5A2C1AD05B2C3FF467AF5C2C17D05D2C3FF462AF5E2C14D05F2C34
:206420003FF45DAF602C11D0612C3FF458AF622C3FF455AF632C08BF4C2450E728244EE7A6
:2064400051244CE750244AE74F2448E7522446E7172C09D15A4B09221A7007232B6004F08A
:206460004DFC584B0422ADE7062C01D00A2C40D14F4A00231046194650F8044B0133082BBD
:206480002144F9D111BB534B4FF478421A804CF208425A804FF620529A804FF6E072DA80A8
:2064A0004FF4FC621A8140F2FF725A8140F27F429A814FF61F02DA81414B09221A700723E8
:2064C0002B6004F01BFC3F4B00227BE74149424C002352F8040B012808BF34F8130003F161
:2064E000010318BF42F20410082B21F8020BF0D1E2E7162C09D1324B09221A7007232B6093
:2065000004F0FCFB2F4B05225CE7082C09D12C4B09221A7007232B6004F0F0FB294B082240
:2065200050E7132C0DD1264B09221A7007232B6004F0E4FB234B0A221A7004F0F9FB274BDB
:20654000C2E7192C50D11E4A137007232B6004F0D5FB2348234A08230021013B00F8011B54
:2065600002F8011BF9D1174B0B222BE7AC0400203605002050060020810100208F050020A3
:20658000A0050020E3C90108000C024094050020C4000020240400202804002008000020DA
:2065A000D8030020E0030020445F0020D8630020CC040020EC040020D462002014620020D3
:2065C000C9000020C80000204B05002014060020220600200E00002078D0010869050020EB
:2065E00056050020400400200F2C0DD1AC4B09221A7007232B6004F081FBAA4B1A78AA4B56
:206600001A70AA4B0D22DDE6292C0FD1A44A09231370A64A2B601370A54AA64B11781B783D
:2066200011B9033B1370CEE6A14B4DE7522C10D1A14A13780BB1013BF4E79D4A1378002BB6
:20664000F9D19D4B07221A709A4B1B78033B984AE8E74F2CF5D0502C03D1974A0023137057
:20666000F5E7512C0FD1944A1378062B01D80133D8E7904A8E4912780B78033A9342ECDAE5
:2066800001330B709FE64B2CCED04E2CDCD0282C02D0582C7FF497AE854B1C78864B1B7861
:2066A0001C44E4B2072C41D87D4B09221A7007232B6004F023FB7D4B804901221A700023F3
:2066C0000B607F490B607F490A607F4A14607F4A1470C4EBC40204EBC2047D4A14447D4A50
:2066E00014F8011B02F8011B0133392BF8D17A4A7A4B0021107818705078587090789870A1
:20670000D078D870107918715079587190799871D079D8710131107A18720829507A587296
:2067200002F10D0203F10D03E4D14CE60C2C3FF491AE092C1FD16A4A00231046194650F8C9
:20674000044B0133082B2144F9D100293FF49BAE6449654C002352F8040B012808BF34F8B9
:20676000130003F1010318BF42F20410082B21F8020BF0D1A0E60B2C3FF4BDAE082C3FF413
:20678000C6AE0A2C3FF4CFAE0D2C12D1444B09221A7007232B6004F0B1FA00235348544A8F
:2067A00019460133082B00F8011B02F8011BF8D1D9E60E2C7FF407AE18E70D2B59D1512C21
:2067C00008D14C4A1378072B00F220810133DBB2137060E0522C06D1464A13780BB1013B0E
:2067E000F5E70823F4E7292C05D12D4909230B7013602E4AECE7282C01D0582C4BD13D4B64
:20680000DFF8A0801B783C4E3C4F3D4C022B15D888F8003003A8FCF7A9F93B788DF80C30D2
:2068200033788DF80D3023788DF80E3003A898F800308DF80F30FCF71BF9C4E5032B02D1AD
:2068400000233370E6E7042B01D10123F9E7052B02D100233B70DDE7062B01D10123F9E704
:20686000072B02D100232370D4E7082BD2D10123F9E70B2B40F09D80A4F11E02D3B2072BD9
:206880004FF0000342D81F490B7019498B5CB3FA83F35B098B541C4B03221A70F1E000BF64
:2068A000C90000203F05002040050020C800002067050020CA0000206605002024040020F5
:2068C0002804002008000020D8030020E0030020445F0020D8630020D4620020146200203C
:2068E000CC0400200E00002078D00108560500204004002041050020350500203405002031
:206900002C010020220600204B050020042C01D0172C0CD1A44A1370A44B01221A705A707A
